:100000004DC2000069C2000067C200000C94431496
:1000100063C2000061C200005FC200005DC2000058
:100020005BC2000059C2000057C2000055C2000068
:1000300053C200000C94DC134FC200004DC20000FC
:1000400082C4000049C2000047C2000045C200004F
:100050000C94A1200C9469203FC200003DC2000016
:100060003BC2000039C2000037C2000035C20000A8
:100070000C94D94131C200002FC200002DC20000F3
:100080002BC2000029C2000027C20000B52DBF2FDF
:10009000CF2DCF2EF62E162F202FC32E6D372042B8
:1000A000FF0862664743EB0346260B5A5C1A695EFB
:1000B0003F41D70D472A0B4D680B52C10754BB1B5C
:1000C00056690957350858390F4FE33D65270966CA
:1000D0006E1F6CED0874230575D216489D4368D8D1
:1000E0000B59484A78B20345BC2363383671B124B2
:1000F000000000202F2000203D2000072E050DD3FA
:1001000091FF080500000C0021656A2D3B1322F8C1
:1001100062073F181D1CC700B0876BF8B611EA2AAA
:10012000001F41000D2E2D07D3913D043200000623
:100130000021656A55E43023B900070018146C07E4
:100140000090876BF85611E92A001F410000030F49
:100150001E2627000000030F1E2536386700030FF8
:10016000256740605000030F275188838100030FEB
:100170002750C8C3C200270000000000000067002D
:10018000000000000000500000000000000081009E
:10019000000000000000C2000000000000504C4CB5
:1001A000310D0A00504C4C300D0A005620312E36CD
:1001B000375F6E6F637265646974732043554E4F89
:1001C000383638005620312E36375F6E6F637265D1
:1001D000646974732043554E4F34333300202F200D
:1001E00000203D20004552523A4343410D0A000B86
:1001F00008105B11F81547191D1A1C1BC71C001DA0
:10020000B221B623EA0007022E030D04E905CA074E
:100210000C0B060D210E650F6A10C8119312031501
:10022000341733181819161B432156250026112997
:10023000592C812D353EC3424F56460D0A004C4580
:100240004E4552520D0A004C454E4552520D0A0081
:100250000007024604C605260B0610C811931203B8
:1002600013221534173F182819161B432156250051
:1002700026110D210E650F6A070C160720F81E8740
:100280001F6B29592C812D353EC3FF004E2F410095
:10029000454F420D0A004E2F41004E2F41000053A2
:1002A0005300547D7DFFFF4B4B7E7E002069732001
:1002B000756E6B6E6F776E2920557365206F6E6556
:1002C000206F66003F20280041343530353500412D
:1002D000343530353500303000302E302E302E3071
:1002E0000032333233003139322E3136382E302E4F
:1002F00031003235352E3235352E3235352E30003F
:100300003139322E3136382E302E3234340031002D
:100310000D2E2D07D3913D04320000060010B07160
:1003200055E43023B900070018146C070090876B60
:10033000F85611E92A001F41002053495A453A0056
:1003400020444154413A00204352433A00204F5642
:100350003A002050453A002046453A002052454395
:10036000563A0053454E543A00483F207374617426
:1003700075732C2048736161626263632E2E2E2098
:1003800073656E64206D657373616765206161627A
:100390006263632E2E2E00746F6F2073686F727409
:1003A0002C206D696E696D756D20392062797465D8
:1003B000733A206464646464646363737373737313
:1003C000737373004F4646004F464600544D4F44EA
:1003D0004500534D4F4445000454053D17000006A9
:1003E00002000B080C000D210E6B0FD0105C1104E5
:1003F0001206132214F80A00154421B62210181808
:10040000192E1ABF1B431C091DB523EA242A2500F7
:10041000261F29592C812D352E09070408000900B3
:1004200006FF3EC2FF047605961700000602000B89
:10043000080C000D210E650F6A106A114A1206138E
:100440002214F80A00154721B622101818192E1A7E
:100450006D1B041C091DB223EA242A2500261F292E
:10046000592C812D352E0907040800090006FF3E8E
:10047000C2FF0D2E2D07D3913D043200000600105F
:10048000ABA5550A3023B900070018146C0700907B
:10049000876BF85611E92A001F41000011241FBE86
:1004A000CFEFD0E4DEBFCDBF12E0A0E0B1E0EEE2DE
:1004B000F2EA00E00BBF02C007900D92A03BB1072B
:1004C000D9F722E2A0EBB2E001C01D92A536B20737
:1004D000E1F703D00C94155193CD88E10FB6F89451
:1004E00080936000109260000FBE549A5C9A5D9AEF
:1004F0005E9A209A289A0E941337D8D660E083E348
:1005000090E00E94E5500E9429370E945C3B0E94C7
:10051000B33A89EF87BD84E085BD82E084BD8093D6
:100520006E00109280008AE08093810090E080E865
:100530000FB6F89480936100909361000FBE84B76A
:10054000877F84BF2FE088E190E00FB6F894A895EC
:10055000809360000FBE2093600089E190E80E94C4
:10056000D5200E945B1B0E94180F82E391E29093BA
:100570008409809383090E94F21589E08093B30275
:100580000E944D2328980E94C84178940E94F6202A
:100590000E9440117DD20E94B41F0E9474170E94D5
:1005A0005B0C0E947F220E94E4190E94AB420E94D1
:1005B0006745ECCF8EBD0DB407FEFDCF8EB5089517
:1005C000A1E0B0E0E6EEF2E00C945B4F482F8A30F9
:1005D00008F048E088E0489F70011124F701E35BD0
:1005E000FE4F7F018BE290E0F70164918C010F5F79
:1005F0001F4F498391D4FFEFEF1AFF0A498103335C
:10060000110511F0C801F0CF4550453010F461E1FB
:1006100001C067E184E290E07FD42196E6E00C948B
:10062000774FCF93DF9382E090E0FC01EE5DFE4FC9
:100630006491EC01219670D4CB32D10511F0CE013A
:10064000F4CF87E390E0FC01EC53FF4F6491EC01A1
:10065000219662D4C036D10511F0CE01F4CF4D9968
:1006600018C060E18FE090E057D460EB80E190E04B
:1006700053D461E781E190E04FD460E184E490E0FD
:100680004BD460EB85E490E047D461E786E490E0EA
:1006900043D488E095DFDF91CF9108952C98806C4A
:1006A00089DF80E087DF2C9A0895A1E0B0E0EBE5D8
:1006B000F3E00C945F4F2C98806469837BDF698141
:1006C000862F78DF2C9A2196E2E00C947B4F2C98B1
:1006D00071DF2C9A0895EF92FF920F931F93CF939F
:1006E000DF93EC0110925F03EA98249A2C9A8EE132
:1006F00090E044D22C988EE190E040D22C9A8DE28A
:1007000090E03CD280E3E3DF84E690E037D22C989F
:1007100080E450DF7E0189E2E80EF11C8E010F5F5C
:100720001F4FCE01FED346DF0E151F0511F0E80165
:10073000F5CF2C9A2C988EE73DDF8BE290E0EC0110
:100740002196EFD337DFC333D10511F0CE01F7CFB8
:100750002C9A83E3BCDF81E016D2CDB7DEB7E6E0AA
:100760000C94774FA1E0B0E0E8EBF3E00C945F4F1E
:1007700022E0298341E0BE016F5F7F4F019644D3A1
:1007800089811EDF82E090E0A6DF2196E2E00C94F2
:100790007B4FCF93EA9886E39ADFCFEF85E397DF2D
:1007A000C1508077803229F08AE090E0E7D1C11112
:1007B000F5CFCF910895CF93CFEF84E388DFC15079
:1007C0008077803129F08AE090E0D8D1C111F5CF4F
:1007D000EA9ACF910895A2E0B0E0E1EFF3E00C9443
:1007E0005D4F8C01FC0181818737E9F441E0BE0156
:1007F0006F5F7F4FC801029607D3892BA1F041E0BC
:10080000BE016E5F7F4FC8010496FED2892B59F05E
:100810006A8189814ADF83E35ADFCDDF8981EFD2A4
:100820008A81EDD22CC041E0BE016E5F7F4FC801CE
:100830000196EAD2892B21F18A81893969F410E085
:10084000812F2CDFDCD2812F8770873009F462D2B0
:100850001F5F1033A9F714C021DF182F83E403D2E0
:100860008A81CDD287EF90E048D2812FC8D283EF22
:1008700090E043D240E262E0812F90E050D24AD231
:100880002296E4E00C94794F86E321DF10928509EB
:100890001092B90210925F03089582E090E01BDF8E
:1008A00081E0809385091092B90210925F03089548
:1008B0000F931F93CF93DF93082F10E0C62FD0E044
:1008C00085E3ECDE801731F0CE0158D11150C1F72D
:1008D00081E001C080E0DF91CF911F910F910895D9
:1008E00085E2DCDE8F3311F080E0089586E3EFDEF1
:1008F0008091B002811104C084EA91E0FED102C06F
:100900008DE3E5DE83E3E3DE64E081E0D1DF85E2D1
:10091000C5DE8F3349F78091B002811103C08DE9A4
:1009200091E0EBD181E0089585E3B8DE8D3051F49C
:1009300085E2B4DE8F3331F4D3DF84E3C8DE807721
:100940008031D9F708951F920F920FB60F9211249C
:100950000BB60F928F939F93AF93BF93EF93FF9339
:100960008091870990918809A0918909B0918A099D
:100970000196A11DB11D8093870990938809A093CA
:100980008909B0938A09809186098F5F80938609CF
:100990008091771E8F5F8093771E8D37A8F08091AE
:1009A0000D0190910E01A0910F01B09110010196DF
:1009B000A11DB11D80930D0190930E01A0930F0115
:1009C000B09310011092771EECEAFDE080819181D6
:1009D000181619061CF401979183808336968DE0D2
:1009E000E43CF80799F78091C60D9091C70D0097E8
:1009F00029F001979093C70D8093C60D8091D90D72
:100A00008F3F19F081508093D90DFF91EF91BF91E5
:100A1000AF919F918F910F900BBE0F900FBE0F90D3
:100A20001F9018952FB7F894409187095091880925
:100A30006091890970918A09FC0140835183628326
:100A400073832FBF0895A4E0B0E0E9E2F5E00C94D1
:100A50005F4FCE010196E6DF8C81D1D18B81CFD162
:100A60008A81CDD18981CBD155D12496E2E00C94F5
:100A70007B4FA4E0B0E0EFE3F5E00C945F4FCE01D4
:100A80000196D0DF89819A812496E2E00C947B4F15
:100A90001F93CF93DF938091870990918809A0914C
:100AA0008909B0918A092091B202281709F462C01D
:100AB0008091870990918809A0918909B0918A094C
:100AC0008093B202A895CCEADDE010E0288139815C
:100AD000232B19F4812F0E94DD1D1F5F26961430F1
:100AE000A9F78091C60D9091C70D892B11F40E9432
:100AF000391E8091D90D811102C00E94971E8091EC
:100B00009D0D882339F0815080939D0D811102C085
:100B10000E9412180E94A63B809186098D3750F1E1
:100B2000109286098091000181FF04C085B191E097
:100B3000892785B984E893E090938C0980938B0989
:100B40000E94B43780910D01811102C00E94B83615
:100B50008091B1028F5F8093B1028C3359F410926F
:100B6000B1028091AB0D8F5F8093AB0D8C3310F091
:100B70001092AB0DDF91CF911F910895880F991FAF
:100B80000197F1F7089520ED37E0815020F0F90149
:100B90003197F1F7FACF0895CF93DF93DC011696E2
:100BA0008C911697843509F05BC0CD010696CD91E6
:100BB000DC9111974DE0242F30E02C173D0740F0D9
:100BC000AE014F5051092417350709F049C008C03C
:100BD000FC01E20FF31F50815B3391F34F5FEBCFCA
:100BE000FE013E97E80FF91F20812435C9F51796BD
:100BF0003C9117972181321333C018963C91189776
:100C0000228132132DC019963C91199723813213FA
:100C100027C01A963C911A972481321321C06197FC
:100C2000C80FD91F858188838681898381858A83BE
:100C300082858B8383858C8384858D8385858E8354
:100C40008D919C9111970A9711969C938E9314966F
:100C50008D919C9115970A9715969C938E93149756
:100C6000DF91CF910895CF93C82F8091B30282FF77
:100C700003C08C2F0E94A4248091B30280FF13C074
:100C80002091EF0D3091F00D2E3F83E0380738F0C2
:100C90002115344040F4CD3011F0CA3021F46C2FCE
:100CA0008BEE9DE028D38091A80D8823C9F0809118
:100CB000B30283FF15C0CA3099F0CD3011F46BE355
:100CC00001C06C2F85E999E016D3CD3019F485E980
:100CD00099E062DF83E080939D0D82E08093A30D15
:100CE000CF910895CF93DF93EC018991882311F080
:100CF000BADFFBCFDF91CF910895CF93DF93EC0163
:100D0000FE018491882319F0AEDF2196F9CFDF919F
:100D1000CF9108958DE0A7DF8AE0A5CF0895A6E0E2
:100D2000B0E0E5E9F6E00C945D4F062F1E8215E079
:100D30002AE030E01150E1E0F0E0EC0FFD1FE10FA0
:100D4000F11DB9010E94E74E805D8083CB01015007
:100D5000009769F01111EECF0AC0112359F011501C
:100D6000E1E0F0E0EC0FFD1FE10FF11D40830150C9
:100D700007FFF3CF81E090E08C0F9D1F810F911D45
:100D8000B1DF2696E4E00C94794FA5E0B0E0EBECFF
:100D9000F6E00C945F4F1D8224E0382F3F70215005
:100DA000E22FF0E03A3010F4305D01C0395CA1E090
:100DB000B0E0AC0FBD1FEA0FFB1F308334E0969507
:100DC00087953A95E1F76150009739F7615067FDD3
:100DD0000BC0222349F02150E1E0F0E0EC0FFD1FB1
:100DE000E20FF11D4083F2CF81E090E08C0F9D1F58
:100DF000820F911D77DF2596E2E00C947B4F40E354
:100E000062E090E0C2CF0895DC01FB0130E090E0A9
:100E10008D918823A9F0813608F0805220ED280FAB
:100E20002A3030F02FEB280F263030F429EC280F31
:100E3000292B332379F006C0803251F38A3341F3F2
:100E4000CF0105C0CF0101962083415041F4861B9C
:100E5000970B0895922F9295907F31E0D9CFFC01A6
:100E6000D5CFFB0150E020E0DC013D91CD013323E3
:100E7000D1F050ED530F5A3050F4522F550F252F0B
:100E8000220F220F250F2053230F51E0EDCF3032D8
:100E900011F03E3279F4442321F020834150319601
:100EA000E1CF50E0E1CFDF01552321F0442311F0E1
:100EB00031962C93CF01861B970B089520E030E0EC
:100EC0005AE0FC014191CF01442379F0E0EDE40FB9
:100ED000EA30B8F7F9015E9F90015F9F300D112451
:100EE00020533109240F311DECCFFB0131832083C6
:100EF0000895982F92959F709A3010F4905D01C0DC
:100F0000995CFB0190838F708A3010F4805D01C082
:100F1000895CFB01818308950E94F750F999FECF07
:100F200008950C94D85008951F93CF93DF9314E045
:100F3000115068F0EC012196F4DF40E261E090E0AE
:100F4000EEDE112311F08EE28EDECE01F1CFDF91C5
:100F5000CF911F9108951F93CF93DF93162F1150B8
:100F60001F3F59F0EC012196DCDF49DF112311F01E
:100F70008AE379DE1150CE01F3CFDF91CF911F913B
:100F80000895A2E0B0E0E7ECF7E00C945C4FFC01C0
:100F90002181293691F582818D3621F466E082E641
:100FA00090E030C0843619F488E690E019C08136AC
:100FB00019F489E690E00EC08E3619F48DE690E0C3
:100FC00009C0873619F481E790E004C08E3421F41B
:100FD00085E790E0A9DF44C08F3629F48BE790E0E5
:100FE000A0DF0DDF3DC0803709F03AC089E790E00F
:100FF0000E94E05040E260E032C02D3429F466E007
:101000008AEF9FE0A8DF2CC0203521F460E18AED53
:101010009FE0F8CF1A82198242E0BE016F5F7F4FD6
:101020000196F2DE098110E0823021F4102F0027B2
:101030008A81082BC80175DFF82E82E514DE40E3B3
:1010400064E0C801A2DE81EE91E057DE8F2DD7DE8D
:101050008DED91E052DE40E262E08F2D90E05FDEA8
:1010600059DE2296E5E00C94784FA8E0B0E0EBE37F
:10107000F8E00C94594F9C01FC0181818E010F5FB7
:101080001F4F893609F06BC082818D3649F446E0E6
:10109000B801C9010396B8DE82E690E026E04DC0B3
:1010A000843639F4B801C901039608DF88E690E078
:1010B0003FC0813641F444E0B801C9010396D1DE56
:1010C00089E690E027C08E3641F444E0B801C901BA
:1010D0000396C7DE8DE690E01DC0873641F444E0FC
:1010E000B801C9010396BDDE81E790E013C08037E7
:1010F00041F4B801C9010396E1DE89E790E022E0FE
:101100001CC08E3449F444E0B801C9010396A9DE3D
:1011100085E790E024E011C08F3661F441E0B8012A
:10112000C901039671DE89818093781E8BE790E078
:1011300021E003C080E090E020E078013E2D301BEC
:10114000321708F046C0F70161917F016C01FFEF93
:10115000CF1ADF0A2887E0DEC6012885EFCF43E0FB
:10116000B801C901019628873F834EDE28853F815B
:10117000823078F1C980D12C823021F0DC2CCC2453
:101180004A81C42A7C01FF24FE01EE0DFF1D60810F
:10119000C60128873F83C0DEEE0CFF1C8FEFE81AE4
:1011A000F80A28853F81E20EF31EF701808188232B
:1011B00081F041E0B801C70127DE892B51F0EFEF44
:1011C000CE1ADE0A6981C601A7DEF2E0EF0EF11C3D
:1011D000ECCF2896E8E00C94754F41E060E071E0B8
:1011E000019612DE8091000180FF02C0289A01C0A2
:1011F00028986091000184E390E08ECE0895A1E0EC
:10120000B0E0E5E0F9E00C945F4F1982009731F00F
:1012100041E0BE016F5F7F4F0196F6DD89818F3F10
:1012200009F4FFCF882321F061E083E390E074DECE
:1012300010926E00F89428E088E190E00FB6F894E0
:10124000A895809360000FBE20936000FFCFCF93DE
:10125000DF93EC0161E080E090E05EDE63E481E03A
:1012600090E05ADEDED960E080E690E055DE60E096
:1012700081E690E051DE60E083E390E04DDE62E0E5
:1012800084E390E049DE0E94BE2160E080E690E0C9
:1012900043DE60E081E690E03FDE8981883719F027
:1012A00080E090E0ACDFDF91CF91089580E090E0A6
:1012B00038DE813029F481E090E033DE833419F0A8
:1012C00080E090E0C4DF84E390E02BDE80930001B7
:1012D00008954D9903C084EC91E002C08BEA91E03F
:1012E0000CDD18CD0895FC01158214821182108244
:1012F000138212820895FC014FB7F894848195817E
:10130000811524E0920798F40196958384832081C7
:101310003181C901019691838083DF01A20FB31F40
:1013200016966C938115944011F4118210824FBF70
:101330000895FC014FB7F89484819581009719F4C2
:101340004FBF80E0089501979583848382819381C4
:101350009C012F5F3F4F33832283DF01A80FB91F0A
:1013600016968C912115344011F4138212824FBFCE
:101370000895FA013081882369F0E1E0F0E0022E5F
:1013800001C0EE0F0A94EAF7DB01A30FB11D9C9197
:101390009E2B9C93222319F08FEF820F0BC081E0CC
:1013A000830F8C3010F4FA018083FB01E80FF11DEC
:1013B000108287E090E00895CF93C82F299A882360
:1013C00019F08091B60202C08091B80220E1829F9C
:1013D000C0011124D3DB2998CC2319F08091B502E8
:1013E00002C08091B70220E1829FC0011124C6DBB8
:1013F000CF910895A9E0B0E0E0E0FAE00C944F4FFF
:101400004C01D62E642E422E1E2D289A80915F0309
:10141000882341F010925F0383EA92E02AD5BB242F
:10142000B39401C0B12C80918509811101C035DAD6
:10143000B0D980E1C89E900111243A83298380E1CC
:10144000A89E900111243C832B832D2D30E03E83F8
:101450002D83712CEE24E394F12C512CC11002C089
:10146000AA2041F0299A89819A8188DB29988B8169
:101470009C8184DB312C832D992787FD90952D81CC
:101480003E818217930724F480E096DF3394F3CFF4
:10149000DD2011F081E090DF90E0292E332427FC3D
:1014A00030942614370424F097E0280C391C1CC013
:1014B00047E050E0280C391C9701042E01C0220F90
:1014C0000A94EAF7F101808182234F835887998734
:1014D00073DF4F8158854150510999854F3FFFEF88
:1014E0005F0751F79F5FD9CF292F332727FD30950D
:1014F0004216530674F49701092E01C0220F0A9474
:10150000EAF7F10180818223998756DF998591500E
:10151000EBCF812F38DB015009F0A0CF80918E09ED
:10152000882311F048D902C086E3D1D8B1100E94B7
:101530002F1828982996E2E10C946B4FADE0B0E0AB
:10154000E4EAFAE00C94524F7C01162F842F022F0C
:101550006701C60ED11C462FB701A6D4D6018C93C5
:101560001F5F1D8619825E2C670127E06624639445
:10157000712C8C2D8519811788F537E0A32EB12C9D
:101580004701880E911CF3010A2C01C0EE0F0A944A
:10159000EAF7D4018C91AE01435F5F4FBE016F5FEC
:1015A0007F4F8E23E6DE282FB1E0AB1AB10858F743
:1015B000D6018D916D01082E82958025082E869585
:1015C000869580258F5F86958170AE01435F5F4F62
:1015D000BE016F5F7F4FCDDE282FCBCF222311F0CE
:1015E000215004C08D858F5F8D8727E089E180932E
:1015F000B7028093B80285E28093B5028093B60269
:10160000A12CC12C9AE0E92E4D856CE0CE0101960B
:10161000F1DE2D96EFE00C946E4FADE0B0E0E3E12B
:10162000FBE00C945E4F162F242F4BE0BE016F5F42
:101630007F4F01962D87E8DB2D85412F682FCE0146
:1016400001967CDF2D96E3E00C947A4F43E066E050
:10165000E4CF0895AF92CF92EF920F93CF93DF93A1
:10166000CDB7DEB760970FB6F894DEBF0FBECDBF23
:1016700040E1BE016F5F7F4F0196C6DB69814A8101
:101680000B818C818093B8028D818093B7028E810B
:101690008093B6028F818093B502E02EE2945FE0E2
:1016A000E5220F70242F2F7042954F70A12CC12C72
:1016B000CE0108969FDE60960FB6F894DEBF0FBE8F
:1016C000CDBFDF91CF910F91EF90CF90AF90089564
:1016D000A9E1B0E0EEE6FBE00C94574F4BE0BE0111
:1016E0006F5F7F4F019690DB182F893009F05CC047
:1016F00099E19093B7029093B8029093B60282E377
:101700008093B50269E0CE010196D8D3E1E0F0E024
:10171000EC0FFD1FE10FF11D8083198E1D86CE0198
:1017200001967C016E019BE0C90ED11C27E0AA2422
:10173000A394B12CEC14FD0429F100E010E0F501B4
:10174000002E01C0EE0F0A94EAF7D7018C91AE018A
:10175000475E5F4FBE01635F7F4F8E230ADE282FF7
:101760000F5F1F4F0830110551F7AE01475E5F4F05
:10177000BE01635F7F4F81E0FCDD282FBFEFEB1AD6
:10178000FB0AD8CF222311F0215004C0898D8F5F2E
:10179000898F27E0A12CC12C6AE0E62E03E0498D59
:1017A0006CE0CE010D9626DE6996EAE00C94734F4C
:1017B000AF92CF92EF920F93CF93DF93CDB7DEB777
:1017C0002C970FB6F894DEBF0FBECDBF4BE0BE0125
:1017D0006F5F7F4F029618DB8530C1F48EE38093F4
:1017E000B8028CE18093B70281E28093B6028AE36B
:1017F0008093B502B5E2AB2E0AEFC02EE12C05E0D6
:1018000024E044E068E0CE010196F4DD2C960FB6AA
:10181000F894DEBF0FBECDBFDF91CF910F91EF9057
:10182000CF90AF900895CF93DF93EA98249A2C9AA3
:101830008EE190E0A3D92C988EE190E09FD92C9A6C
:101840008DE290E09BD980E30E94670384E690E0FC
:1018500095D9C5E0D2E0FE0131966491FE018491F4
:101860000E9455032296F2E0C733DF07A1F780916B
:10187000BA02811106C083E30E94670384E083D922
:101880000FC0CFEED1E0FE0131966491FE0184914C
:101890000E9455032296F2E0C530DF07A1F7EBCF97
:1018A00084E30E94670385E30E944E038D30C1F7F5
:1018B000DF91CF910895A2E3B0E0E1E6FCE00C9463
:1018C0005D4F8091B902882309F49BC01A9B84C0A4
:1018D0008FE30E944E038F778983823368F08AE317
:1018E0000E94670386E30E9467038DE30E946703FB
:1018F00084E30E94670385C02C988FEF0E94DA0270
:1019000010E08981181760F480E00E94DA02E2E0BA
:10191000F0E0EC0FFD1FE10FF11D80831F5FF1CFA1
:1019200080E00E94DA02082F80E00E94DA022C9AFE
:1019300084E30E94670385E30E944E038D30C1F764
:101940002A8196E792279A8392E08981E92FF0E035
:10195000981768F441E050E04C0F5D1FE40FF51F4D
:1019600030812452232720839F5F232FEECF81E0F5
:1019700090E08C0F9D1FE80FF91F90818B819827B5
:10198000908380918E0984FF10C081E66CD910E0AD
:101990008981811708F1E1E0F0E0EC0FFD1FE10F14
:1019A000F11D808160D91F5FF3CF81E45CD910E025
:1019B0008981811750F0E1E0F0E0EC0FFD1FE10FAD
:1019C000F11D80811CDA1F5FF3CF80918E0985FFA6
:1019D00002C0802F14DA9ED985E30E944E03813025
:1019E00029F0813161F48AE30E94670386E30E9453
:1019F00067038DE30E94670384E30E9467030E94EC
:101A00009404E296E4E00C94794F8F929F92AF9207
:101A1000BF92DF92EF92FF920F931F93CF93DF93CA
:101A2000CDB7DEB7EA970FB6F894DEBF0FBECDBFD5
:101A300041E38E010F5F1F4FB8010196E5D97C018C
:101A400099270197298130E08217930709F09DC0FB
:101A50008091B902811103C0E6DE83E094D8DB8077
:101A60008A8196E789278A8322E03981822F90E054
:101A7000F801E80FF91F231750F4DE01A80FB91F72
:101A80008C9184529081892780832F5FEECF808153
:101A90008D258083CE01C7960E94120585E30E94A2
:101AA000670385E30E944E03833179F1CE01C3962B
:101AB0000E9412054BA95CA96DA97EA98FA998ADBA
:101AC000A9ADBAAD84179507A607B70760F44A0118
:101AD0005B01881A990AAA0ABB0A2DEB82169104A7
:101AE000A104B10470F4481759076A077B0768F42A
:101AF00084549F4FAF4FBF4F84179507A607B70772
:101B000020F485EE91E0F9D824C085E30E944E03CD
:101B1000833121F6D4FE06C088E735D888E733D86C
:101B200088E701C08AE02FD82C988FE70E94DA025C
:101B300058018A2D801B8E1530F4F50181915F01CB
:101B40000E94DA02F6CF2C9A85E30E944E0383317D
:101B5000D9F385E30E944E03863149F48BE30E945A
:101B6000670386E30E9467038DE30E946703809109
:101B7000B902882349F084E30E94670385E30E9449
:101B80004E038D30C1F701C064D1EA960FB6F894C8
:101B9000DEBF0FBECDBFDF91CF911F910F91FF90A0
:101BA000EF90DF90BF90AF909F908F900895FC01D1
:101BB0002181223731F0223559F481E08093BA0235
:101BC00002C01092BA022FDE81E08093B90208951C
:101BD000233719F4019619CF08951092B902089588
:101BE0008F929F92AF92BF92DF92EF92FF920F93EC
:101BF0001F93CF93DF931092D6021092EB02FC0159
:101C00002181220F220F220F3381231B57E0520F15
:101C10001092D70210E070E038E0D32ED20EFF24ED
:101C2000F39447E007E0E12CC7E0D0E0A1E0B0E0AA
:101C3000FD1409F47FC0FC01EE0DF11D248130E09C
:101C4000002E02C0359527950A94E2F721703327BC
:101C5000E22F002311F0015002C0E39407E06B343F
:101C600071F4433009F04AC0111107C0E1115FC09F
:101C70001092D6027093EB0274C010E041C04F3F47
:101C800031F56634A9F4E72FF0E0E952FD4FE08129
:101C90000E2EE295E0250E2EE695E695E025EF5F07
:101CA000E1FB882480F8912C8216930641F004C051
:101CB000653429F4E11103C01093D602DBCF7F5FB6
:101CC000E72FF0E0E952FD4F108247E031C0EE23EC
:101CD00061F1663471F4E72FF0E0E952FD4FA08026
:101CE0009D01042E01C0220F0A94EAF7A22AA082C5
:101CF0001CC0653439F06B34C1F404C04F3FD1F2DD
:101D0000EE2399F0E72FF0E0E952FD4F9E01241BEE
:101D1000310947FD33955D0102C0AA0CBB1C2A9511
:101D2000E2F795013081322B3083415001C011E040
:101D3000F3947ECF1093D6027093EB025F1588F474
:101D4000653431F44F3F21F47F5F7093EB0204C0A0
:101D50008091D6028111F8CF81E09091EB02911130
:101D600001C080E0DF91CF911F910F91FF90EF9024
:101D7000DF90BF90AF909F908F90089510926F006A
:101D8000E091EE028CE1E89FF0011124E151FD4F5A
:101D9000108280918D098D7F80938D090895FC01BB
:101DA0002181243110F0EACF08953381662381F038
:101DB00081E090E0032E01C0880F0A94EAF7DF016A
:101DC000A20FB11D14969C911497982B14969C9376
:101DD000332319F031503383089587E083832F5FD5
:101DE0002183E20FF11D14820895DC011196EC911C
:101DF0001197F0E050E02C91CF01841B950B0B96CE
:101E00004797A0F430E070E0C901861B970B0B9652
:101E1000479760F42E0F3F1F640F751F261B370B6B
:101E2000255F3F4F81E02731310508F080E00895BC
:101E3000219A29982298E9E6F0E0808180618083E8
:101E400010920B03109227031092430310928509FE
:101E5000089580917C0981110BC080918E0988239F
:101E600029F00E944D040C94DB0308950C94440463
:101E70000895FC01218121110FC080918E090E94DB
:101E8000FF0640E265E080918B0990918C090E94E9
:101E90008F060C948A06089541E06EE879E0019679
:101EA0000E940407D6CF0895442339F04150FB0126
:101EB000E40FF11D9081890FF7CF089520E066238C
:101EC00039F06150FC01E60FF11D30812327F7CF77
:101ED000822F0895A091D60240E035E020E06623ED
:101EE00099F06150FC01E60FF11D5081752F72953C
:101EF0007F702727370FAA2311F0442319F05F7052
:101F00002527350F4F5FEBCF320F40E1349FC001E3
:101F10001124822B0895FC0132812381A081B1819B
:101F2000A30FB11D8C9190E0022E02C0959587956C
:101F30000A94E2F7817099274FEF420F43832111F2
:101F400004C03F5F328327E023830895A2E0B0E01E
:101F5000ECEAFFE00C94574F7C01A12CB12CD12C62
:101F6000CC24C394062F10E001501109A616F0F4FA
:101F7000C7014A836983CFDF4A816981882391F051
:101F8000442349F098012A193B098C2D01C0880F80
:101F90002A95EAF706C08C2D0A2C01C0880F0A94F6
:101FA000EAF7D82A8FEFA81AB80AE0CF8D2D22962B
:101FB000EAE00C94734FA4E0B0E0E1EEFFE00C9493
:101FC000564F1B8227E02C839C012C5F3F4F3A83A6
:101FD00029831092EB02FC012181338187E090E09C
:101FE000831B9109F8E02F9F800D911D11248534EA
:101FF00091050CF44EC0B12CA090EB02F5E0FA155F
:1020000058F10A2D10E040E068E0CE0101969EDF15
:1020100009521D4FF8018083982E092C9294902428
:10202000092C969496949024CE01019674DF939493
:1020300091FACC24C0F8D12C90E0C816D90649F505
:10204000CE01019668DF811124C0F8018081B82695
:10205000A394A092EB02D0CF40E068E0CE010196BD
:1020600075DF082F182F012E12951025012E1695B9
:1020700016951025CE0101964EDF1F5F11FBEE2451
:10208000E0F8F12C282F30E0E216F30611F481E09D
:10209000B01280E02496EBE00C94724FA5E0B0E023
:1020A000E4E5F0E10C945A4FFC011B8287E08C833D
:1020B000CF0104969A8389838081853009F051C0CD
:1020C0002181338187E090E0831B910938E0239FD1
:1020D000800D911D11248039910509F042C01092A4
:1020E000EB020FE010EF29E88091EB02E82EF12CD3
:1020F000DD24D394D80E41E068E08F3088F4CE011F
:1021000001962D8323DF080F111DF701E952FD4FC2
:102110002D812827208324E2280FD092EB02E4CFE0
:10212000CE01019613DF080F111DD092EB02F701CB
:10213000E952FD4F8095808341E068E0CE01019631
:1021400005DF90E0982F8827081B190B41E068E015
:10215000CE010196FBDE282F30E081E00217130745
:1021600009F080E02596E7E00C94764FA4E0B0E01B
:10217000ECEBF0E10C945C4F1B8227E02C839C017C
:102180002C5F3F4F3A832983FC0121812430A1F544
:102190008381813089F51092EB028091EB02082F48
:1021A00010E0FF24F394F80E41E0843098F481119C
:1021B00006C067E0CE010196C9DE806804C068E011
:1021C000CE010196C3DEF801E952FD4F8083F09203
:1021D000EB02E3CF67E0CE010196B8DEF801E952E9
:1021E000FD4F880F8083F092EB029091D702929579
:1021F0009F7081E09A3009F080E02496E5E00C942D
:10220000784FCF93DF93FC0181818330E9F48381A0
:102210008730D1F480818830B9F41092EB0220E04D
:10222000822F90E0DC01A952BD4FEF01C80FD91FEA
:102230008C818C9381E0820F833010F4282FF0CFB3
:102240008093EB0281E001C080E0DF91CF9108959F
:10225000FC01908180918D09993611F0933751F4EA
:10226000982F9370913011F4826006C080FF07C0F0
:102270008B7F03C080FD03C0846080938D09089527
:10228000A1E0B0E0E6E4F1E10C945B4F19828091AB
:10229000BB028823B9F180918E0987FF17C084E3C0
:1022A0000E944E038058803458F0803C58F490E0EF
:1022B0008055910953E0959587955A95E1F703C0AC
:1022C00080E001C08FE08F590E94330680918E0913
:1022D00083FF16C082E70E94330680918E0984FF37
:1022E00004C08091BC020E94330686E60E94330639
:1022F00080918E0984FF04C08091BB020E94330646
:102300001092BB028091EC02882309F451C2289AF2
:102310000091ED022CE1029F8001112401511D4F1B
:102320008981811106C0C8016CDF882311F083E721
:1023300089838981811106C0C801B0DE882311F02C
:1023400083E589838981811139C066E4C80148DC4D
:102350008823A1F1F090EB02FA94F092EB024F2D5A
:1023600067ED72E086E0A0DDEF2DF0E0E952FD4F71
:10237000E0808E1105C093E09F1510F486E41BC029
:10238000282F30E02F5F3F4F6E2D70E02617370764
:1023900039F423E02F1520F496E4998380830EC04E
:1023A0004F2D67ED72E08CE07FDD8E1106C083E07B
:1023B0008F1518F484E5898301C019828981811100
:1023C00016C065E4C8010CDC882389F08091EB021B
:1023D00081508093EB02893051F469E087ED92E0FF
:1023E0006DDD9091E002891302C085E489838981C3
:1023F000811106C0C801DFDD882311F088E48983DC
:102400008981811106C0C801B1DE882311F084E7FB
:1024100089838981811133C0F801438D6091BC02A9
:10242000C8014A96E2DC682FC801B9DC6BE4C80138
:10243000D7DB8823B1F0F090EB02FA94F092EB0234
:102440006F2D87ED92E046DDEF2DF0E09091D60202
:10245000E91BF109E952FD4F9081891302C08BE419
:102460008983898181110BC0F801838191E0980FE4
:102470009383873021F41382818181508183898104
:1024800081112DC0F8018181843049F58381843028
:1024900031F54EE16CE3C8014896A7DC8823F9F0DA
:1024A0004EE16091BC02C8014A969FDC682FC801CA
:1024B00076DC20E0822F90E0FC01E952FD4FD8014C
:1024C000A80FB91F14968C91808381E0820F85300C
:1024D00010F4282FEFCF8093EB0282E589833981B6
:1024E000332309F4D9C020918E0920FFD5C08091F3
:1024F0008D098E7F8B7F80938D0921FD64C0509163
:10250000D502F090EB025F113DC040E04517C0F4EA
:10251000842F90E061E0640FFC01EF53FD4FDC017C
:10252000A952BD4F70818C91781741F04093D5022C
:1025300080918D098D7F80938D0904C0462FE6CF51
:102540004093D50245131EC04091870950918809D8
:102550006091890970918A098091BD029091BE02B3
:10256000A091BF02B091C002481B590B6A0B7B0BB4
:10257000463251056105710528F480918D0981600D
:1025800080938D0940E04F1560F4842F90E0FC01AA
:10259000EF53FD4FDC01A952BD4F8C9180834F5FFB
:1025A000F2CF4093D5028091870990918809A0913C
:1025B0008909B0918A098093BD029093BE02A093CD
:1025C000BF02B093C0023435E9F426FD1BC08091F0
:1025D000EB028530B8F08091D9028B3471F08936E6
:1025E00061F09DEA980F923040F08D57823028F0CC
:1025F0008091DA028077803729F480918D0981609B
:1026000080938D09B801CE01019622DE898184353F
:1026100069F49091A80D992349F09091AA0D911118
:1026200005C090918D099B7F90938D0990918D09A4
:1026300092FF32C00E9433068091D602882329F08F
:102640008091EB0281508093EB02F12CE091EB0240
:10265000FE1648F4EF2DF0E0E952FD4F80810E9414
:10266000FF06F394F3CF8091D602882351F0F0E077
:10267000E952FD4F80818F7040E361E090E00E945D
:10268000C50680918E0985FF05C084E30E944E0334
:102690000E94FF060E948A0680918E0982FF6FC009
:1026A00080E70E943306F801808140E262E090E01A
:1026B0000E948F06F801808D40E265E0F0E18F9F77
:1026C000C00111240E948F06F801818D40E265E06F
:1026D000F0E18F9FC00111240E948F06F801828DC6
:1026E00040E265E0F0E18F9FC00111240E948F0657
:1026F000F801838D40E265E0F0E18F9FC001112475
:102700000E948F06F801828140E263E090E00E941F
:102710008F06F801818140E263E090E00E948F061D
:10272000F801238140E262E087E090E0821B91099A
:102730000E948F0680E20E94330680918E0985FFF9
:1027400008C084E30E944E030E94FF0680E20E94BC
:102750003306F8018381873019F081818F5F81838F
:10276000F12CF8018181F81640F4F801EF0DF11D0C
:1027700084810E94FF06F394F4CF0E948A06F80138
:1027800010828091EC0281508093EC028091ED02E6
:102790008F5F843019F08093ED0202C01092ED0239
:1027A00028988981843521F487ED92E00E94A71E44
:1027B0002196E6E00C94774F1F920F920FB60F927E
:1027C00011240BB60F922F933F934F935F936F9308
:1027D0007F938F939F93AF93BF93EF93FF93109249
:1027E0006F0080918E0983FF03C08EE20E94330642
:1027F0008091EE029CE1899FF0011124E151FD4F8F
:102800009081933018F09181923010F4B7DA18C0AB
:102810009091EC02933049F480918E0982FFF6CFBB
:1028200087E392E00E947D06F1CF9F5F9093EC02D8
:102830008F5F843019F08093EE0202C01092EE0296
:10284000FF91EF91BF91AF919F918F917F916F9188
:102850005F914F913F912F910F900BBE0F900FBE44
:102860000F901F9018959BED980F973150F496EFAD
:10287000960F9D3130F491E0681708F090E0892FB1
:10288000089580E008951F920F920FB60F921124C1
:102890000BB60F92FF920F931F932F933F934F937B
:1028A0005F936F937F938F939F93AF93BF93CF93D8
:1028B000DF93EF93FF938091EA0D882321F082E06C
:1028C0008093EA0D63C180919E0D823021F483E0F4
:1028D00080939E0D5BC1009184001091850064E09F
:1028E000169507956A95E1F7C091EE029CE1C99FA4
:1028F000E0011124C151DD4F9881943031F40E3242
:1029000008F444C10F3448F0B6C0953031F40731B3
:1029100008F43CC1083208F0AEC01A990DC09450BA
:10292000923038F461E0CE013ADA109285001092CC
:1029300084000093BC022AC18091BC02081B009352
:10294000BB0210928500109284009881983071F437
:102950002A8121110BC021E02A83888F8A8F098F59
:102960000B3B10F4000F01C006950B8F9450923072
:1029700020F460E0CE0113DA09C182E086BBF88062
:10298000F11011C09091BC02953608F0FFC0809103
:10299000BB02853608F0FAC0988F898F81E08A8360
:1029A00082E08883F3C01091BB0282E0F81273C00A
:1029B0000091BC02412F602FCE01489616DA6A8141
:1029C0008823F9F0488D50E09A01220F331F240F1D
:1029D000351F200F311D3595279535952795288F63
:1029E000298D30E0C901880F991F820F931F810F35
:1029F000911D9595879595958795898F6F5F6A83CA
:102A0000C5C0643008F445C020EA3FE03093890037
:102A1000209388008A818C3050F0888D298D30E099
:102A2000280F311D2536310524F084E027C08A3077
:102A300088F0888D298D30E0280F311D2532310531
:102A40004CF485E0888328EE33E0309389002093AE
:102A5000880015C080919409882379F0612F802F18
:102A600002DF882351F0688D898DFDDE882329F0EF
:102A700081E080939E0D82D989C083E088830A8F8C
:102A80001B8F198287E08B831C8282E080936F000A
:102A90007DC0188277CF98E0F91225C081E9810FB7
:102AA0008D3178F460E0CE017AD9288D30E0C9010B
:102AB000880F991F820F931F2091BC02820F911DD6
:102AC0004EC0173E08F462C061E0CE0168D92A8D7D
:102AD00030E0C901880F991F820F931F2091BC021B
:102AE000820F911D15C00091BC02412F602FCE01B5
:102AF0004A967BD9882301F161E0CE0150D92A8D15
:102B000030E0C901880F991F820F931F800F911D1C
:102B100095958795959587958A8F2B8D30E0C9017E
:102B2000880F991F820F931F810F911D959587958F
:102B3000959587958B8F2AC0412F602FCE0148969F
:102B400054D9882301F160E0CE0129D9288D30E0E5
:102B5000C901880F991F820F931F800F911D9595B2
:102B6000879595958795888F298D30E0C901880FC5
:102B7000991F820F931F810F911D959587959595AC
:102B80008795898F03C087E0F81275CFFF91EF9189
:102B9000DF91CF91BF91AF919F918F917F916F9175
:102BA0005F914F913F912F911F910F91FF900F9047
:102BB0000BBE0F900FBE0F901F901895E091EE0284
:102BC0008CE1E89FF0011124E151FD4F80818111DA
:102BD00007C081E09091D90D9F3F19F480E00895DE
:102BE00081E0089580E690E00E9491078093940927
:102BF00081E690E00E9491078093A80D882321F040
:102C000081E280938E0925C90895299A0C94BE0506
:102C1000089529980C94BE050895A7E0B0E0E3E17B
:102C2000F6E10C945A4F90919B09943559F42091F8
:102C3000A10D3091A20D2F5F3F4F3093A20D209335
:102C4000A10D3EC0963459F420919F0D3091A00DF6
:102C50002F5F3F4F3093A00D20939F0D31C09534CF
:102C600059F420919109309192092F5F3F4F309391
:102C700092092093910924C09B3459F42091A40D0A
:102C80003091A50D2F5F3F4F3093A50D2093A40DDC
:102C900017C0983459F42091A60D3091A70D2F5FDD
:102CA0003F4F3093A70D2093A60D0AC020918F09A6
:102CB000309190092F5F3F4F3093900920938F09F7
:102CC00095E79983882399F0BE016E5F7F4F8091CD
:102CD000A80D0E947907BE016C5F7F4F8091940917
:102CE0000E94790785E58E8386E0D82E02C0DD2418
:102CF000D3940E944D040E94C90316E080E891E03D
:102D000084DF80E093E085DF1150C1F780E093E03D
:102D10007CDF80E891E07DDF80E891E076DF299834
:102D200087E390E00E946B0383E00E94C3052C9828
:102D30008FE70E94DA02809199098D0D0E94DA02D4
:102D4000CE0101967C018C01F80181918F010E94D6
:102D5000DA02802F8E198D15B8F380919909909120
:102D60009A09892B39F085E999E00E9499090E9416
:102D7000DA02F3CF2C9A0E94C90385E999E00E94F8
:102D8000730915E18AE30E944E038F7731F01150E9
:102D900021F081E00E94C305F5CF5BD82796E7E0DC
:102DA0000C94764FCF93DF93EC018981811107C09A
:102DB000809194090E94FF068091A80D13C084366B
:102DC000A1F48091870990918809A0918909B09117
:102DD0008A0940E364E00E94C5068EE20E94330641
:102DE00080919D0D0E94FF064DC0833709F04DC0B4
:102DF00040E361E08091A10D9091A20D0E94C50673
:102E00008EE20E94330640E361E080919F0D909135
:102E1000A00D0E94C5068EE20E94330640E361E0E9
:102E200080919109909192090E94C5068EE20E94BC
:102E3000330640E361E08091A40D9091A50D0E94BE
:102E4000C5068EE20E94330640E361E08091A60D44
:102E50009091A70D0E94C5068EE20E94330640E3C2
:102E600061E080918F09909190090E94C5068EE2E1
:102E70000E94330640E361E080919B0D90919C0D90
:102E80000E94C5060E948A062CC08936D9F441E00A
:102E900064E979E0CE0102960E94040760919409EA
:102EA00080E690E00E948C0741E068EA7DE0CE0178
:102EB00004960E9404076091A80D81E690E00E94AC
:102EC0008C070FC085E999E00E94730921966991EA
:102ED000662329F085E999E00E947B09F8CF80E01C
:102EE0009CDEDF91CF910895A1E0B0E0EAE7F7E141
:102EF0000C94594F80919E0D882309F48FC0C09087
:102F00008709D0908809E0908909F0908A09833078
:102F100009F06AC08FE30E944E03182F8630C8F074
:102F200081EF91E10E9473092C988FEF0E94DA02E1
:102F300080E00E94DA02082F115049F080E00E94E0
:102F4000DA02682F81EF91E10E947B09F5CF2C9A7C
:102F500001C000E00E94290F10929E0D053709F074
:102F60005DC041E0BE016F5F7F4F87EF91E10E943E
:102F700004070197A1F599818091940998132FC0B6
:102F80008091FB11853581F48091F5119091F611B6
:102F9000892B39F081EF91E10E9499090E94330653
:102FA000F3CF0E948A063AC08091F5119091F611F4
:102FB00004979093F6118093F51184E090E090933C
:102FC000F4118093F3116AE081EF91E10E947B0993
:102FD000E0918309F091840988E009951FC081EF91
:102FE00091E10E9473091AC0823059F480919309CB
:102FF0009C2D981B983090F00E94290F10929E0DE6
:103000000DC0813059F487E390E00E946B030E9469
:10301000DB0382E080939E0DC09293092196E8E045
:103020000C94754FCBDD882361F083E08093A30D72
:1030300080919B0D90919C0D019690939C0D809397
:103040009B0D8091A30D81508093A30D882321F0C7
:1030500083E080939D0D089581E0DFCD0895CF93A7
:10306000DF93EA98249A2C9A8EE190E00E94BE05A4
:103070002C988EE190E00E94BE052C9A8DE290E0A3
:103080000E94BE0580E30E94670384E690E00E94F0
:10309000BE05C0E5D2E0FE018491813440F083E3B7
:1030A0000E94670384E00E94C305CFEF0DC0FE01BC
:1030B00031966491FE0184910E9455032296F2E0BC
:1030C000CC38DF0741F7EBCF84E30E9467038AE047
:1030D00090E00E94BE05C150B9F781E080935F0384
:1030E000DF91CF910895EF92FF920F931F93CF93AB
:1030F000DF93EC018B01F88080915F03811101C0A7
:10310000AEDF85E30E944E038D3071F08AE50E94A8
:10311000330685E40E94330682E50E94330682E589
:103120000E94330681E34CC080916003909161035B
:10313000A0916203B0916303892B8A2B8B2B51F5ED
:103140000E94C90385E30E944E03833109F443C002
:103150008AE50E94330685E40E94330682E50E94D8
:10316000330682E50E94330682E32AC080918709F4
:1031700090918809A0918909B0918A094F5F5F4FAA
:103180006F4F7F4F84179507A607B707C9F681E0F1
:103190000E94C3058091870990918809A0918909AF
:1031A000B0918A094091600350916103609162037C
:1031B0007091630384179507A607B707B9F6E7CFA1
:1031C0000E94330685E30E944E030E94FF060E9480
:1031D0008A0645DF65C0012B49F42C988FE70E94D1
:1031E000DA02EC2E0C2F1D2FF3940BC00AE010E036
:1031F00084E60E94C3050150110901151105C1F7AC
:10320000ECCF802F8E198F1530F4F80181918F014A
:103210000E94DA02F6CF2C9AC8EC85E30E944E0396
:103220008D30E9F485E30E944E038D3019F18AE573
:103230000E94330685E40E94330682E50E9433062D
:1032400082E50E94330683E30E94330685E30E94F1
:103250004E030E94FF060E948A0601DF0BC085E331
:103260000E944E038331F1F681E00E94C305C150F4
:10327000A1F6D8CF80915F03811102C00E94290F6F
:103280008091870990918809A0918909B0918A0954
:103290008093600390936103A0936203B0936303F0
:1032A000CDB7DEB7E6E00C94774FACE0B0E0EBE5ED
:1032B000F9E10C945E4FFC018BE0898381818A8364
:1032C0001B8282E08C8387818D8380858E838185BC
:1032D0008F83848188878581898786818A871B86F9
:1032E0001C8684E10E94C30560E070E0CE01019677
:1032F000FADE8AE50E94330610E0812F90E02981F2
:1033000030E0281739075CF0E1E0F0E0EC0FFD1F3A
:10331000E80FF91F80810E94FF061F5FEECF8091AA
:103320008E0985FF03C080E00E94FF060E948A0686
:103330002C96E3E00C947A4FCF93DF93EC018091CD
:103340006703811108C090916803911104C09091A6
:1033500069039923A9F09B81903319F09F7E9034E3
:1033600079F49F8198130CC0988580916803981315
:1033700007C0998580916903981302C0CE0195DF3B
:1033800080916403811108C090916503911104C07C
:10339000909166039923A9F098819B3091F49B81C9
:1033A000903479F49F8198130CC0988580916503BF
:1033B000981307C0998580916603981302C0CE01C7
:1033C00074DFDF91CF910895AEE1B0E0EAEEF9E16C
:1033D0000C945D4F80915F03882309F469C01A9BA8
:1033E00059C08FE30E944E038F778E3108F08DE134
:1033F00089832C988FEF0E94DA0210E089811817D8
:1034000060F480E00E94DA02E2E0F0E0EC0FFD1FE1
:10341000E10FF11D80831F5FF1CF80E00E94DA028F
:10342000082F80E00E94DA022C9ACE01019684DFF8
:1034300080918E0984FF12C08AE70E94330610E053
:1034400089818117A8F1E1E0F0E0EC0FFD1FE10FA9
:10345000F11D80810E9433061F5FF2CF8AE50E9432
:10346000330610E08981811758F0E1E0F0E0EC0FBD
:10347000FD1FE10FF11D80810E94FF061F5FF2CF4B
:1034800080918E0985FF03C0802F0E94FF060E9455
:103490008A060EC085E30E944E03813149F48AE317
:1034A0000E94670386E30E94670384E30E94670328
:1034B0006E96E4E00C94794FAEE1B0E0E2E6FAE11A
:1034C0000C945D4F8C01FC018181823711F4C7DDC2
:1034D00036C0833711F0863601F54DE1BE016F5FCE
:1034E0007F4FC80102960E940407992701972981FE
:1034F00030E08217930729F08EE392E00E947D0668
:103500001EC061E070E0F8018181833711F060E056
:1035100070E0CE010196E7DD12C0813621F443E070
:1035200067E673E005C0873741F443E064E673E083
:10353000C80102960E94040702C010925F036E96B3
:10354000E4E00C94794F1092C40D1092250483E0AE
:1035500080936F038FEF8093D90D0895E0E7F3E038
:103560002081211105C0892BB1F080E090E0089501
:10357000B4E0EE31FB07B8F7009751F04181DC0170
:103580003C91431305C0428111963C91431751F081
:10359000E20FF11DE5CF34E0EE31F30719F010F042
:1035A000EEE1F4E0CF01089594E0899FF001112449
:1035B000E652F24F80818F3F91F080936A038181C0
:1035C00080936B03828180936C03838180936D036E
:1035D00021E04CE064E08AE693E00C949E0A0895B2
:1035E0008FE194E0BBDF009799F020916F03FC011D
:1035F0003081231768F4E20FF11D8081809321044C
:1036000089E78093220481818093230481E00895D7
:1036100080E00895EF92FF921F93CF93DF931F9264
:10362000CDB7DEB7182F80918E0986FF18C084E5CC
:1036300099830E943306E12E9981F92E15E0F70156
:1036400081917F010E94FF061150C9F780918E0978
:1036500085FF03C08AEF0E94FF060E948A060F9032
:10366000DF91CF911F91FF90EF90089586E30E9424
:10367000670380912104833511F48BE901C08BE449
:103680000E94C30521E04CE065E08FE194E00E94D8
:103690009E0A0E94DB038FE194E0BCCF0895E6DF31
:1036A00080912104893631F081E080931E0489E203
:1036B0008093D90D0895CF9385E390E00E94910700
:1036C0008093AA0D86E390E00E9491078093D80D25
:1036D000CFEFC093C80DC093CA0DC093CC0DC0935B
:1036E000CE0DC093D00DC093D20DC093D40DC09316
:1036F000D60D29DF1092700381E08093A90DC0934D
:10370000DA0D8FEF9FEF9093AD0D8093AC0D10927B
:10371000AF0D1092AE0D1092B10D1092B00DC0937E
:10372000DE0D9093B30D8093B20D1092B50D1092F3
:10373000B40D1092B70D1092B60DC093E20D909398
:10374000B90D8093B80D1092BB0D1092BA0D109266
:10375000BD0D1092BC0DC093E60D9093BF0D8093EC
:10376000BE0D1092C10D1092C00D1092C30D10929B
:10377000C20DCF910895ACE0B0E0E1ECFBE10C9418
:10378000584F6C018C010F5F1F4F45E0BE016F5F0A
:103790007F4FC8010E940407843008F0F3C099816C
:1037A0009130A9F4833061F46A8185E390E00E944E
:1037B0008C076B8186E390E00E948C077CDFF9C167
:1037C0008091AA0D0E94FF068091D80D9AC0923078
:1037D00009F051C0813039F081E09A81913009F0CF
:1037E00080E0F82E02C0FF24F394809170038111D1
:1037F00004C08CE892E00E947D0600E713E0F80127
:103800008081882309F4BBC0F4E00E311F0708F063
:10381000B6C083E00037180719F080E20E94330633
:10382000F80181810E94FF06F80182810E94FF0653
:10383000FF20E1F08AE30E94330693E0F8018081E3
:103840009817A0F4943038F090FF05C08CE29C8764
:103850000E9433069C85EE24E394E90EF801E90FFB
:10386000F11D80810E94FF069E2DE8CFF801808126
:10387000080F111DC4CF933049F480E090E06EDE54
:10388000805793409EEA981B892F3BC0903171F579
:1038900008EC1DE089ECE82E8DE0F82EC12CD12C2F
:1038A000F80180818F3FA1F0DD2019F080E20E94B5
:1038B00033068C2D0E94FF068AE30E943306F8012E
:1038C00080810E94FF06F70180810E94FF06D39449
:1038D0000E5F1F4FC394F2E0EF0EF11C88E0C81298
:1038E000DFCFD1104CC08AE992E047C0913161F43A
:1038F0008091C60D9091C70D6DE770E00E94E74E74
:10390000862F0E94FF063BC09231C9F51AEDE12EC9
:103910001DE0F12E0DED1DE0C12CD12CF7018081B1
:103920008F3FF1F0DD2019F080E20E9433068C2DEC
:103930000E94FF068AE30E943306F70180810E94FD
:10394000FF06F801329780810E94FF06F801319747
:1039500080810E94FF06F80180810E94FF06D394B7
:10396000F4E0EF0EF11CC3940C5F1F4F84E0C8120B
:10397000D5CFD11004C086E992E00E947D060E9456
:103980008A0617C144E0BE01695F7F4FC8010E94EB
:1039900004074F81493608F477C07A8558856985D0
:1039A0007C3009F04BC020E030E080E090E0F9018D
:1039B000E652F24F708174131CC0A181A51319C087
:1039C000A281A61316C02CE023839C01220F331F73
:1039D000280F391FF901EE0FFF1FE455F24F118236
:1039E0001082F901EE0FFF1FE255F24F1182108293
:1039F000C2C07F3FD9F44083518362832CE023838C
:103A00009C01220F331F280F391FF901EE0FFF1FF2
:103A1000E455F24F11821082F901EE0FFF1FE255BB
:103A2000F24F118210821092A90DA5C001962C5F51
:103A30003F4F2031310509F0BACFBBC080E090E0A4
:103A400020E030E0FC01E652F24FA081A41315C043
:103A5000A181A51312C0A281A6130FC07383F9011F
:103A6000EE0FFF1FE20FF31FEE0FFF1FE255F24FA5
:103A700081E090E0918380839CC02F5F3F4F04964C
:103A800080319105F9F695C0E9818091AA0DE8177A
:103A900058F190E0F0E09C01295F3F4F2E173F075F
:103AA0001CF13A812091D80D32131EC02C812F3287
:103AB00031F442E06CE0C6010E940D0B7AC03D81FA
:103AC0002C3249F43093C50D81E090E09093C70DFE
:103AD0008093C60D6EC0E81BF90BEE0FF0E0E853C3
:103AE000F24F2083318365C080E090E037DD7C01B8
:103AF000F80101900020E9F73197E01BF10BF695F2
:103B0000E795BB24B394BE0EC7018B0D911D805762
:103B100093408F3A91050CF048C0F701B1928F01A4
:103B200021E0822F880F81502B15D8F441E0B80195
:103B3000F601E80FF11DCF012C870E9404072C85A8
:103B4000233058F020FD09C0D80111978C9184369C
:103B500021F4F80180818093AB0D2F5F0F5F1F4F21
:103B6000E0CFFEE1EF16F4E0FF0618F5F701E20FF3
:103B7000F11D10821EC022E04CE064E0CE010796E9
:103B80000E949E0A8FE08A8722E04CE064E0CE012A
:103B900007960E949E0A82E08A8722E04CE064E059
:103BA000CE0107960E949E0A04C080E992E00E941E
:103BB0007D062C96E9E00C94744F0F931F93CF93DE
:103BC000DF939091A90D91114FC093E0899F8001DF
:103BD0001124F801EE0FFF1FE455F24F94E0899F86
:103BE000D0011124A652B24F12969C91977040E8D2
:103BF00050E0491B51099AEF949F9001959F300D19
:103C00001124359527953595279531832083E80133
:103C1000CC0FDD1FC055D24F288139812F5F3F4F18
:103C200039832883000F111F0255124FF80140817C
:103C300051814115510529F424303105A9F4B4DC32
:103C400011C04130510539F4AFDC82E090E0F80159
:103C50009183808309C04230510531F4A5DCF8011D
:103C60001182108219821882DF91CF911F910F91DA
:103C70000895A6E0B0E0EFE3FEE10C945B4F2091E5
:103C8000D80D2A831B828091C50D882341F0833093
:103C900019F487E791E00FC08DE790E00CC0277022
:103CA00030E02A513F4F4DE7429FC001439F900DA6
:103CB0001124959587959093C70D8093C60D09ECB7
:103CC0001DE0F12C7CE2E72EF801319790819F3FB7
:103CD000C1F08091AA0D8F0D89838091C50D882335
:103CE00011F0EC8203C09C83F80180818D8321E078
:103CF0004CE065E0CE0101960E949E0ACE0101963D
:103D000089DCF3940E5F1F4FF8E0FF12DDCF809146
:103D1000C50D882341F0833019F41092C50D03C0FE
:103D200082508093C50D2696E6E00C94774F8091E3
:103D30001E04882351F09ADC89E28093D90D80918A
:103D40001E04815080931E040895FDCB0895FF92B8
:103D50000F931F93CF93DF93FC01F0800181C28109
:103D6000D38114818FE58093D90D10921E04809128
:103D7000AA0D811105C08091D80D882309F4A9C02E
:103D800080911F048F1104C080912004801729F0B6
:103D9000DADBF0921F04009320048091C40D8F3F62
:103DA00009F497C0C0932104D093220410932304F4
:103DB000CC23F1F081111CC08091AA0D181761F07D
:103DC000143651F08DEA8C0F823010F0CD3739F473
:103DD0008FEF8093C40D7DC0C43509F47AC08D2F58
:103DE000807F803609F075C0D067D093220457C019
:103DF000F7DB811105C08091C40D882309F469C0E7
:103E000080912504811107C0E091C40DF0E0E256D5
:103E1000FD4FE49101C0E82FE33541F4C43531F49E
:103E20009091C40D9E5F9093C40D04C0EC1711F0E7
:103E30008ADB4FC0882369F080916F038E5F809387
:103E40006F03CEDB81110EC08091C40D8E5F809315
:103E5000C40D8091C40DE82FF0E0E156FD4F1491A0
:103E60001F3F59F480912104809325048436B9F4CE
:103E70008091AB0D8093230412C01093210497E727
:103E8000909322049091AA0D909323048E5F8093C7
:103E9000C40D109225048E3021F01123D1F0FFDBE8
:103EA00018C08FE194E05ADBDC01009781F02C917F
:103EB00030E08EE194E0821B930BA817B90730F431
:103EC000ED01C20FD31F48814D93F7CF1C923BDB0E
:103ED000E4CFCDB7DEB7E5E00C94784FFF920F93B7
:103EE0001F93CF93DF938C01EC0109900020E9F739
:103EF0002197C81BD90BFC018181823751F487E3DC
:103F000090E00E946B030E94DB0381E08093EA0D46
:103F100026C0833711F5FC2E2C988FE70E94DA0219
:103F20008C2F82500E94DA02E801229612E01F15BF
:103F300028F489910E94DA021F5FF9CF2C9A0E941F
:103F4000C9038AE30E944E038F7721F081E00E942B
:103F5000C305F7CF0E94DB0302C01092EA0DCDB774
:103F6000DEB7E5E00C94784FA0E0B4E0EAEBFFE1C7
:103F70000C94594F8091EA0D882309F452C0813086
:103F800011F58091870990918809A0918909B091D4
:103F90008A0920912604281709F443C085E30E946A
:103FA0004E03813129F48AE30E9467030E94DB03F8
:103FB0008091870990918809A0918909B0918A0917
:103FC000809326042EC08FE30E944E03D82E2C9897
:103FD0008FEF0E94DA028E010F5F1F4F7801C02E13
:103FE0008E2D801B8D1538F480E00E94DA02F701D7
:103FF00081937F01F5CF2C9A81E08093B302802FCB
:104000008C198D1530F4F80181918F010E943306CF
:10401000F6CF0E948A068FEF8093B30281E08093EF
:10402000EA0DDC5FE8E00C94754F2091612230913D
:1040300062222115310521F42091210130912201C4
:1040400080911F0190912001009741F48DB79EB798
:104050004091230150912401841B950B28173907A7
:1040600018F4821B930B089580E090E0089582E499
:104070000E94330640E265E08091612290916222C5
:104080000E948F060E948A0683E50E94330640E262
:1040900065E080912101909122010E948F060E948B
:1040A0008A0685E40E94330640E265E080911F01A4
:1040B000909120010E948F060E948A0686E40E9449
:1040C0003306B3DF40E265E00E948F060C948A0657
:1040D00008951F920F920FB60F9211240BB60F92F4
:1040E0002F933F934F935F936F937F938F939F9300
:1040F000AF93BF93EF93FF938091EF0D9091F00DED
:10410000892B39F08BEE9DE00E9499098093C600BF
:1041100005C08091C1008F7D8093C100FF91EF9118
:10412000BF91AF919F918F917F916F915F914F91CF
:104130003F912F910F900BBE0F900FBE0F901F90CD
:1041400018951F920F920FB60F9211240BB60F9273
:104150002F933F934F935F936F937F938F939F938F
:10416000AF93BF93EF93FF9385B191E0892785B912
:104170006091C6008091C000887121F481EF91E1C7
:104180000E947B09FF91EF91BF91AF919F918F9119
:104190007F916F915F914F913F912F910F900BBE47
:1041A0000F900FBE0F901F90189597FF04C022E04C
:1041B0002093C0009F779093C5008093C40088E946
:1041C0008093C10086E08093C20008958091C10071
:1041D00085FD0BC08091EF0D9091F00D892B29F09A
:1041E0008091C10080628093C1000895E0918309AD
:1041F000F091840981E00995E9CF08950F931F9309
:10420000CF93DF93EC0110E0212F30E0F901EE0FA6
:10421000FF1FE20FF31FE456FF4F0491F901EE0F69
:10422000FF1FE20FF31FE356FF4F25913491002348
:1042300099F0209739F480E20E943306802F0E9483
:10424000330608C08881801305C0CE01F9010995A5
:1042500081E003C01F5FD8CF80E0DF91CF911F9135
:104260000F910895CF93C091B3028093B3028091D0
:10427000F5119091F611892B09F43EC081EF91E17F
:104280000E94990920912704309128048A3011F066
:104290008D3011F52115310551F3F901E75DFB4F23
:1042A000108289E294E0AADF811111C084EC92E0CF
:1042B0000E947D0689E294E00E9472068CEA92E0F8
:1042C0000E947D0680E090E099DF0E948A061092AD
:1042D000280410922704CBCF211594E0390738F633
:1042E000A9014F5F5F4F5093280440932704F901C1
:1042F000E75DFB4F8083BBCFC093B302CF9108959E
:104300001F93CF93DF93EC0116E0115048F0899191
:104310000E94FF061123C9F38AE30E943306F5CFFA
:10432000DF91CF911F910895EF92FF920F931F930A
:10433000CF93DF93EB01FC01E080F180FE24EF24BA
:10434000FE24028113811027012710276F2DCE0133
:104350000E948C076E2DCE0101960E948C07612F62
:10436000CE0102960E948C07602FCE0103960E9418
:104370008C07CDB7DEB7E6E00C94774FA5E1B0E04F
:10438000E4ECF1E20C945D4F89E68A8384E68B834A
:104390006EE073E0CE0104960E94AD50CE0101960E
:1043A0000E94350881E68B8360E073E0CE010496BD
:1043B0000E94AD50CE0101960E9435088EE68B8397
:1043C00062EF72E0CE0104960E94AD50CE010196DC
:1043D0000E94350887E68B8366EE72E0CE01049674
:1043E0000E94AD50CE0101960E94350880E78B8374
:1043F00061EE72E0CE0104960E94AD50CE010196AE
:104400000E9435088EE48B8369ED72E0CE0104963C
:104410000E94AD50CE0101960E9435088FE68B8335
:1044200066ED72E0CE0104960E94AD50CE01019679
:104430000E9435088AEF9FE00E949107843A71F547
:104440008BEF9FE00E949107803541F58CEF9FE054
:104450000E949107853511F58DE68B836FEC72E034
:10446000CE0104960E94AD508DEF9FE00E9491070F
:10447000BE01665F7F4F0E9479078EEF9FE00E942A
:104480009107BE01645F7F4F0E9479078FEF9FE025
:104490000E949107BE01625F7F4F26C08DE68B832D
:1044A00068EC72E0CE0104960E94AD50E0E0F0E0CE
:1044B00000E010E081E2809357009491090F111DF4
:1044C0003196E032F105B9F7BE01665F7F4F80E0BB
:1044D0000E947907BE01645F7F4F812F0E94790798
:1044E000BE01625F7F4F802F0E947907188ACE013C
:1044F00001960E9435086596E4E00C94794FB1D599
:104500008BEF95E10E945832892B09F438C08BEF6C
:1045100095E10E94443284E196E1909313168093D2
:10452000121682E0FED68091051690910616892B10
:1045300019F00E943D31C3D489E19EE190930F169A
:1045400080930E1685E0EDD68091051690910616A3
:10455000892B19F00E943D31B2D488E49EE19093FA
:104560000F1680930E1685E0DCD68091051690918B
:104570000616892B19F00E943D31A1D49BD587EFF7
:1045800095E10E945832892B31F087EF95E10E9426
:1045900044320C9473300895A0E0B0E0E2EDF2E212
:1045A0000C94594F8C01EB01CB010E9491077E01C5
:1045B0008FEFE81AF80AC7010E949107D82ECE01A2
:1045C0000E949107C82EC7010E9491072C2D30E050
:1045D0003D29F801318320837E01F2E0EF0EF11CCA
:1045E000C7010E9491072396CE010E949107D82E01
:1045F000C7010E949107F82ECE010E9491072F2D2E
:1046000030E03D29F80133832283CDB7DEB7E8E0FF
:104610000C94754FA4E0B0E0E0E1F3E20C945F4F3E
:1046200069E670E0CE010196B7DF89819A819093A7
:104630003618809335188B819C819093381880931D
:10464000371861E770E0CE010196A6DF89819A8173
:1046500090932E1880932D188B819C819093301805
:1046600080932F186DE670E0CE01019695DF898169
:104670009A8190933218809331188B819C8190930A
:1046800034188093331886E794E015D447D10E94FC
:10469000D7342496E2E00C947B4F549A5C9888ECD3
:1046A0000E94C3055C9A88EC0E94C305EAD382E6A7
:1046B00090E00E94910780932C0883E690E00E948E
:1046C000910780932D0884E690E00E9491078093E3
:1046D0002E0885E690E00E94910780932F0886E6D9
:1046E00090E00E9491078093300887E690E00E9456
:1046F0009107809331088CE298E0C5D380912C0813
:104700008093330880912D088093340880912E087F
:104710008093350880912F08809336088091300867
:1047200080933708809131088093380877D51092AC
:10473000CC081092CB086FE170E08BEF95E10E94FE
:10474000383262EE74E087EF95E10E94383288E6F5
:1047500090E00E949107882351F086EA94E0ABD361
:104760008CE298E00E94A33410922B08089582E016
:1047700080932B084FCF08951F93CF93DF93FC01B5
:104780008181893611F489DF2BC08336C1F4C5E3FA
:10479000D8E114E0115060F0899140E261E090E0CE
:1047A0000E948F061123B1F38EE20E943306F2CFEE
:1047B00080E20E94330683E398E0A2DD0AC08436DB
:1047C00059F480912A088F5F837080932A080E9491
:1047D000FF060E948A0604C08E3611F40E94B83685
:1047E000DF91CF911F910895CF93DF93EC01009754
:1047F00011F410DF3CC069E670E0469695DD8E89C5
:104800009F899093361880933518888D998D909351
:1048100038188093371861E770E0CE01829684DD06
:104820008AA19BA190932E1880932D188CA19DA1F5
:104830009093301880932F186DE670E0CE014A9661
:1048400073DD8A8D9B8D90933218809331188C8DF7
:104850009D8D9093341880933318EB81FC811582E1
:10486000148286E794E027D359D00E94D734DF9191
:10487000CF910895E0911216F0911316248135819D
:104880008091FF15909100162817390709F470C020
:10489000089580912B08823029F00E947333809311
:1048A0002B080895E0910E16F0910F16309759F0ED
:1048B00080910D1681FF07C08481958181159B47EA
:1048C00011F40C94E83608951F93CF93DF93C091B1
:1048D0001216D09113168091EF0D9091F00D892B47
:1048E000C9F089A18A3F49F482E01BD50E943D317D
:1048F000E6D282E00E94C30502DE19A181E0810FA9
:1049000089A38BEE9DE00E949909FE01E10FF11D44
:1049100082A3E1CFDF91CF911F91089589E790E0C5
:104920000E94E050292F30E040E050E0582FC901AC
:10493000842B952B909300168093FF15E1D4109251
:104940000216109201160895E0913516EA3F40F4E0
:1049500091E09E0F90933516F0E0E05DF94E86836E
:104960000895E0911216F091131682E0848F089555
:10497000EF92FF920F931F93CF93DF930091121644
:104980001091131680910D1686FF1CC0F80111A21C
:1049900081E0848F80910116909102169C012F5F17
:1049A0003F4F3093021620930116892B29F48091F2
:1049B000B30284608093B30266EA7EE0C8014D963C
:1049C0000E943832F801848D8230B9F481E0848FFE
:1049D00080E180930D168091011690910216019747
:1049E0009093021680930116892B09F0C0C0809124
:1049F000B3028B7F8093B302BAC080910D16982FBB
:104A0000907311F487FF0AC0E0911216F09113160B
:104A100011A2DF01A45EBE4F1C92148E81FF31C033
:104A2000E0900516F0900616E114F10451F1309172
:104A300010162091111684E694E2909382098093D7
:104A40008109C32FD22F699181EF91E10E947B09E7
:104A50008091F5119091F6118115944031F4E09117
:104A60008309F091840984E0099521E0E21AF108B4
:104A7000E114F10441F7E0918309F091840984E0A5
:104A8000099580910D16982F947082FD06C0282FED
:104A9000237019F4887409F451C0C0911216D09192
:104AA0001316992311F17E0184EEE81A8EEFF80AAD
:104AB000F7014081442309F441C050E0BE01635E28
:104AC0007E4F80911016909111160E94C150F701EF
:104AD000608170E080911016909111160E94CE2F87
:104AE000CE014D960E944E3229C049A1442331F196
:104AF0007E01F2E2EF0EF11C50E0B701809110163A
:104B0000909111160E94C15069A170E08091101619
:104B1000909111160E94CE2FCE014D960E944E32DA
:104B200049A150E0B701CE01835E9E4F0E94C15063
:104B3000FE01E45EFE4F89A1808319A2F801848DF5
:104B40008130A9F4035E1F4FC8010E945832892B9F
:104B500071F0C8010E944432C091B30284E0809396
:104B6000B30286EA92E00E946909C093B302CDB70E
:104B7000DEB7E6E00C94774F14988AE30E9423375F
:104B800080E00E942337149A0895CF93C82F149879
:104B90008AE70E9423378C2F0E942337149ACF91E3
:104BA0000895CF93C82F40EA63E08FE1A1D06C2F26
:104BB000637040E88FE19CD0C0933208CF91089594
:104BC000CF93DF93C82FD82FDF712D2F30E02B31FB
:104BD000310584F4282F2076822F90E025E09595EA
:104BE00087952A95E1F74091320850E084179507A0
:104BF00009F0D7DF14988D2F0E94233780E00E94A0
:104C00002337C7FF03C080E00E942337149ADF9147
:104C1000CF91089514988FEF0E9423378DE1D0DF54
:104C200080FFFCCF149A0895CF93DF93D62FC82F1F
:104C3000CF714C2F50E04B31510584F4282F207652
:104C4000822F90E035E0959587953A95E1F7409170
:104C5000320850E08417950709F0A3DF14988C2FD1
:104C600080640E9423378D2F0E942337149ADF918E
:104C7000CF910895A1E0B0E0E0E4F6E20C945F4F3C
:104C8000682F80E09983D0DF9981692F81E0CCDFA4
:104C90002196E2E00C947B4FA1E0B0E0E2E5F6E281
:104CA0000C945F4F682F82E09983BEDF9981692F52
:104CB00083E0BADF2196E2E00C947B4FA1E0B0E004
:104CC000E4E6F6E20C945E4F162F682F84ED7983AC
:104CD000ABDF612F86EDA8DF7981672F87EDA4DF39
:104CE0008AEE6EDF80FDFCCF2196E3E00C947A4FD4
:104CF000A1E0B0E0EEE7F6E20C945D4F062F182F2E
:104D00001F71E12FF0E07B9794F4282F2076822FFB
:104D100090E055E0959587955A95E1F7E091320836
:104D2000F0E08E179F0719F049833BDF4981149803
:104D3000812F842B0E942337802F0E942337149ABF
:104D40002196E4E00C94794FCF93682F84ED6CDFCB
:104D500040E861E082EDCCDF8AEE32DF80FDFCCFFF
:104D600040EA61E082EDC4DF88ED2ADFC82F89EDDB
:104D700027DF2C2F30E0A901582BCA01CF910895CD
:104D80000C9A149A47DF60E088E04EDF60E089E02B
:104D90004BDF6FEF8AE048DF6FE08BE045DF60E0DC
:104DA00084E042DF60E185E03FDF60E08CE03CDFF3
:104DB00060E08DE039DF60E08EE036DF60E08FE0BC
:104DC00033DF109204161092031640EA60E881EC7B
:104DD0008FDF40E86DE080EC8BDF40E862E382EC3F
:104DE00087DF60E070E080E069DF80E0ADDF90FFAA
:104DF00006C040E861E082EC7BDF62E105C040EA8A
:104E000061E082EC75DF65E184EC0EDF62E186EC47
:104E10000BDF6CE087EC08DF60EE8AEC05DF65E015
:104E20008BEC02DF6091330884EEFEDE6091340883
:104E300085EEFADE6091350882EEF6DE6091360886
:104E400083EEF2DE6091370880EEEEDE6091380886
:104E500081EEEADE63E888E3E7DE62E17CE084E19C
:104E60002DDF6BED8BE1E0DE62E170E082E126DFB9
:104E700040E864E08FE13CDF40E860E88EE138CF55
:104E800008957ECF0895CF93DF93EC01688184EE7F
:104E9000CBDE698185EEC8DE6A8182EEC5DE6B817C
:104EA00083EEC2DE6C8180EEBFDE6D8181EEBCDE02
:104EB000DF91CF910895BC0184E100CF0895CF9395
:104EC000DF93C4E68FE17CDE83FF03C0C150D0F7DF
:104ED00002C0CC2391F160E084E0A6DE60E185E0D1
:104EE000A3DE6091051686E09FDE80910516909105
:104EF0000616905F692F87E097DE80E090E1CCDEB8
:104F000080E043DEC9E3D8E1809105169091061652
:104F10009E01295338412817390718F4899135DE45
:104F2000F3CF40E860E88FE1E3DE40EA60E88FE13C
:104F3000DFDE40E868E08FE1DBDEDF91CF910895AE
:104F4000A4E0B0E0E6EAF7E20C945B4F89E338DED8
:104F5000882309F480C080910316909104168ADE9C
:104F60000BDE182F09DE212F30E0382B309304168A
:104F7000209303168E010F5F1F4F7E0125E0E20E86
:104F8000F11CFADDF80181938F01EE15FF05C9F7D9
:104F900089819A818C01045011091A8309834297EF
:104FA0008F3C954028F489E3E82E88E1F82E02C072
:104FB000E7DE51C0C701895398418017910728F453
:104FC000DBDDF70181937F01F5CF10930616009387
:104FD000051680914518909146189827892798279B
:104FE0008115F8E09F0761F086309840A1F40E9497
:104FF0009D308091051690910616892B61F00AC0AC
:1050000081E08FD18091051690910616892B19F0B9
:105010000E943D3154DF6091031670910416CB015C
:1050200001978115904128F06FEF8CE0FDDD6FE076
:1050300009C061508CE0F8DD809103169091041650
:105040000197692F8DE0F0DD40E860E48EE150DEED
:1050500081E090E002C080E090E02496E6E00C94CD
:10506000774FCF9389E3ACDD882311F18CE1A8DD84
:10507000C82F40EA60E88BE13BDEC3FF08C040EA8E
:1050800068E08CE135DE40EA6AE08DE131DE58DF30
:10509000C0FF04C040EA61E08CE12ADEC1FF04C029
:1050A00040EA62E08CE124DE40E860E88BE120DE4B
:1050B000CF91089582EC84DD8273823311F060CE4B
:1050C000089580EC7DDD8D30D1F70895FB014150CE
:1050D0005109460F571FE417F50778F4208130E097
:1050E000322F22276181260F311D820F931F8217D5
:1050F000930708F401963296EECFE417F50751F4C2
:10510000208130E0322F2227820F931F82179307CE
:1051100008F401960895FC015381560F50930C1624
:10512000872F99274281480F40930B16A181A093A6
:105130000A16E081E0930916242F30E0281739077A
:1051400048F481E08A0F80930A16811103C0EF5F53
:10515000E0930916852F90E077278617970788F444
:105160004F5F40930B1641110CC080910A168F5F60
:1051700080930A16811105C0809109168F5F809374
:10518000091608952091121630911316BC01C90119
:105190000896C1DFE0911216F0911316809109165E
:1051A000808780910A16818780910B168287809173
:1051B0000C168387089544E150E067E478E180E0CD
:1051C00090E084DF009721F0982789279827089599
:1051D0008FEF9FEF0895CF93DF93C0914918D0E0F0
:1051E000DC2FCC2780914A18C80FD11D48E050E031
:1051F00063E578E1CE010E9769DFAE0144515109B4
:105200006BE578E163DF009721F0982789279827DD
:1052100002C08FEF9FEFDF91CF91089510922C186D
:1052200010922B1810922D1680E09FE2989FF001AB
:105230001124E75EF14E158214828F5F8230B0F345
:1052400080933C08089520913D0830913E08A0913C
:105250001D1EB0911E1EE0914C1EF0914D1E2F5F41
:105260003F4F21154DE7340710F020E030E1522F79
:10527000432FA417B50799F3E417F50781F330938B
:105280003E0820933D0840E05FE24230A0F4A1E0F8
:10529000A40F549FF0011124E75EF14E2481358163
:1052A000232B39F440933C08309741F480E090E0A0
:1052B00008954A2FEACF40933C08F8CF20913D084B
:1052C00030913E0832272327322735832483778382
:1052D0006683009729F410821182128213820CC017
:1052E000DC012D913C9111973183208312968D9191
:1052F0009C9113979383828380E48087CF010895E4
:1053000020912B1830912C18232B39F410923C0843
:1053100090932C1880932B18089581E080933C087B
:1053200008950F931F93CF93DF93C0911216D091DE
:105330001316843009F49CC12FE638E1309311161E
:10534000209310163093081620930716833059F4D3
:10535000898D8F70833009F012C688899989892BCD
:1053600009F00DC677C0823009F079C080914208FB
:105370008F5F80934208811113C0809141088F5F35
:105380008093410881110CC0809140088F5F809309
:105390004008811105C080913F088F5F80933F08CE
:1053A00010920616109205161092181E1092171ED3
:1053B000298D822F8D7F853041F48A8D8F5F8A8F72
:1053C000883709F0DCC5198EDAC5222309F4D7C560
:1053D00088899989892BD1F18A8D9FEF980F9A8FAF
:1053E0008111CDC58B8D883031F09FEF920F9230B7
:1053F00040F4853031F4198E80E880930D163ADA46
:1054000067C4853038F493E0082E01C0990F0A94E0
:10541000EAF701C090E39A8F8F5F8B8F822F8F7096
:10542000843009F4EDC358F4813009F4DDC28330CF
:1054300009F0A5C584E080930D161CDA7DC4863082
:1054400009F4DEC3883009F09AC5DAC32F7023301F
:1054500009F095C588E080930D160CDA30C48530CC
:1054600019F5E0910E16F0910F1684819581892B24
:1054700009F485C5109213161092121683E698E16E
:105480009093111680931016909308168093071628
:105490001092181E1092171E1092061610920516E2
:1054A00088E080930D16E3C080914718853409F099
:1054B00066C5C0914918D0E0DC2FCC2780914A18EE
:1054C000C80FD11D80910516909106168C179D0767
:1054D00008F455C5D0930616C093051680914D1853
:1054E0008F7309F04CC580914E18811148C5009109
:1054F0003518109136180115110531F480913718BF
:1055000090913818892BA1F08091571890915818D4
:105510008017910709F033C52091591830915A1816
:1055200080913718909138182817390709F027C546
:1055300042DE019609F023C580915018863009F4A7
:10554000EEC08131B1F1813009F019C580915B184D
:10555000883009F014C510925B1880915D18909105
:105560005E18873FCFEF9C0710F0099601C00896A0
:1055700090935E1880935D18809153189091541801
:1055800090935818809357188091551890915618F9
:1055900090935A18809359181093541800935318E5
:1055A0008091371890913818909356188093551819
:1055B000EAC46C97D0930616C093051620915D1827
:1055C00030915E1840915B1850915C1860915318AF
:1055D00070915418A0915518B0915618E9E1FEE168
:1055E0008EE1E737F80708F0C6C4848195810097FB
:1055F00019F12817390701F586819781009719F06D
:1056000048175907C9F480819181009729F4C28114
:10561000D381CD2B49F412C08F3F1FEF910721F4A6
:10562000C281D381219651F06817790729F48281CC
:105630009381A817B90711F0BF96D2CFF0930F1638
:10564000E0930E16109213161092121682E08093B9
:105650000D1683E698E1909311168093101690939F
:105660000816809307161092181E1092171E11D953
:105670008091171E9091181E009709F480C49C0118
:10568000245E3F4F30930616209305163093491839
:1056900020934A18E0910E16F0910F162085209362
:1056A0004F1821E1209350180896982789279827AA
:1056B0009093601880935F1810926218109261188E
:1056C0008481958190935C1880935B188681978183
:1056D00090935E1880935D188091351890913618DC
:1056E00090935418809353188091371890913818DC
:1056F00090935618809355188081918190935818F3
:10570000809357188281938190935A1880935918E7
:105710008FE698E190931116809310160AC45BDD12
:10572000019609F02CC450912D164091681855230C
:1057300069F120915D1830915E1880911816909152
:1057400019162817390711F520915B1830915C184C
:1057500080911A1690911B1628173907B9F42091D9
:1057600053183091541880911416909115162817DB
:10577000390761F42091551830915618809116160A
:10578000909117162817390709F445C1842F8F7394
:10579000823019F042FDF3C317C080915D189091DB
:1057A0005E1890933A088093390820912B18309115
:1057B0002C188217930709F0EDC3511176C010928F
:1057C0003C08C4E1D6E17BC084E18093681888E29C
:1057D00090E0909306168093051680E580936718F5
:1057E00080916218909166189093621830916118B8
:1057F0009091651890936118309365182091601806
:1058000090916418909360182093641890915F1899
:1058100090933C084091631840935F1890936318ED
:105820008F5F8093661881110FC081E0830F809392
:105830006518811109C081E0820F8093641881117D
:1058400003C09F5F9093631880915B1890915C18E0
:1058500090933A088093390820915D1830915E1832
:1058600030935C1820935B1890935E1880935D18BA
:10587000809153189091541890935818809357180A
:10588000809155189091561890935A1880935918F2
:10589000109354180093531880913718909138182A
:1058A00090935618809355182AC3573019F4C4E1C1
:1058B000D6E102C0C0E0D0E081E080933C082097B0
:1058C00009F45DC3D0931316C093121683E08A8F38
:1058D000888F1E8A84E08F8B1B8E80915D1890913B
:1058E0005E189D838C8380915B1890915C189F83D8
:1058F0008E83809153189091541899838883809156
:105900005518909156189B838A8381E0898F8091E6
:105910003F088C87809140088D87809141088E8751
:10592000809142088F8781E090E0998B888B8091ED
:1059300062188B87809161188A87809160188987A7
:1059400080915F18888781E090E01CDC8091671867
:10595000282F207F30E0213531050CF445C0829599
:105960008F7090E00597880F991F880F991F3091CD
:105970003B0820E0E22FF0E0E817F9078CF5E75C40
:10598000F74E36A9311105C020933C0810923B0810
:105990002BC0313011F42F5FEDCF3230E1F447A945
:1059A0004430C9F420933C0830933B0880AD90E02C
:1059B000982F882721AD822B90933A08809339083D
:1059C000873A15E0910710F086EA95E09B8B8A8B69
:1059D0009D8B8C8B09C047A9442311F0240FCACF9B
:1059E00020933C0830933B0882E18093681882E062
:1059F00080936F1884E08093701885E0809371180D
:105A000086EA809372188CE290E090930616809359
:105A1000051680E621C284E196E1909313168093E7
:105A2000121610920D1642FF04C010922D1680E23D
:105A3000B1C18091671882958F70880F880F80930D
:105A40003C08C81BD1096497D0930616C09305166D
:105A50005F70523021F4842F8F738231E9F0CD2BA7
:105A600019F4842F8370C1F090915F1880911C16F7
:105A70009813E6C19091601880911D169813E0C1AB
:105A80009091611880911E169813DAC19091621856
:105A900080911F169813D4C144FF58C060912416FA
:105AA000709125166115710509F450C080E296E1E8
:105AB00032DB3091631880910916381347C020916A
:105AC000641880910A16281341C09091651880913E
:105AD0000B1698133BC08091661840910C168413E6
