:10000000C7C100000C941714E1C10000DFC100005B
:10001000DDC10000DBC10000D9C10000D7C1000074
:10002000D5C10000D3C10000D1C10000CFC1000084
:10003000CDC100000C94B013C9C10000C7C10000BD
:10004000D2C30000C3C10000C1C10000BFC1000095
:100050000C94A5220C946F22B9C10000B7C1000016
:10006000B5C10000B3C10000B1C10000AFC10000C4
:10007000ADC10000ABC10000A9C10000A7C10000D4
:10008000A5C10000A3C10000A1C100006D3D224236
:10009000110762E226433B0346F80869571841DC22
:1000A0000B5A010E47FC084D34094BA209598B1A13
:1000B00052810654BF1D56790757C10658910F65E6
:1000C00039076672216CFF0674570475A41678020E
:1000D00003000000202F2000203D2000072E050DEA
:1000E000D391FF080500000C0021656A2D3B132207
:1000F000F862073F181D1CC700B0876BF8B611EAFD
:100100002A001F41000D2E2D07D3913D043200001F
:10011000060021656A55E43023B900070018146C05
:10012000070090876BF85611E92A001F4100000371
:100130000F1E2627000000030F1E25363867000318
:100140000F256740605000030F275188838100030B
:100150000F2750C8C3C2002700000000000000673E
:1001600000000000000000500000000000000081BE
:1001700000000000000000C2000000000000504C21
:100180004C310D0A00504C4C300D0A005620312ED7
:1001900036375F6E6F637265646974732043534DC5
:1001A00038363800202F2000203D20004552523A9A
:1001B0004343410D0A000B08105B11F81547191D48
:1001C0001A1C1BC71C001DB221B623EA0007022E11
:1001D000030D04E905CA070C0B060D210E650F6A15
:1001E00010C81193120315341733181819161B432E
:1001F00021562500261129592C812D353EC34C4509
:100200004E4552520D0A004C454E4552520D0A00C1
:100210000007024604C605260B0610C811931203F8
:1002200013221534173F182819161B432156250091
:1002300026110D210E650F6A070C160720F81E8780
:100240001F6B29592C812D353EC3FF00424F564666
:100250000D0A000D2E2D07D3913D0432000006003B
:1002600010B07155E43023B900070018146C070072
:1002700090876BF85611E92A001F41000D2E2D07BB
:10028000D3913D04320000060010ABA5550A30237F
:10029000B900070018146C070090876BF85611E935
:1002A0002A001F41004E2F4100454F420D0A004ECB
:1002B0002F41004E2F410000535300547D7DFFFF1E
:1002C0004B4B7E7E0020697320756E6B6E6F776E70
:1002D0002920557365206F6E65206F66003F2028CA
:1002E000004F4646004F464600544D4F444500538C
:1002F0004D4F4445000454053D1700000602000B15
:10030000080C000D210E6B0FD0105C1104120613A7
:100310002214F80A00154421B622101818192E1AB2
:10032000BF1B431C091DB523EA242A2500261F29CB
:10033000592C812D352E0907040800090006FF3EBF
:10034000C2FF047605961700000602000B080C0099
:100350000D210E650F6A106A114A1206132214F855
:100360000A00154721B622101818192E1A6D1B0401
:100370001C091DB223EA242A2500261F29592C8195
:100380002D352E0907040800090006FF3EC2FF00B4
:1003900011241FBECFEFD0E4DEBFCDBF11E0A0E03F
:1003A000B1E0ECE9F6E500E00BBF02C007900D926A
:1003B000A838B107D9F728E0A8E8B1E001C01D923C
:1003C000A83FB207E1F703D00C944C2B19CE88E17B
:1003D0000FB6F89480936000109260000FBE089AE8
:1003E000109A099A119A0E947F2370D589EF87BDD0
:1003F00084E085BD82E084BD80936E001092800011
:100400008AE08093810090E080E80FB6F8948093B2
:100410006100909361000FBE84B7877F84BF2FE097
:1004200088E190E00FB6F894A895809360000FBE25
:100430002093600089E190E80E94D9220E945F1D0C
:100440000E94700F84E393E290938D0380938C035A
:1004500081E080938B010E94C61580918B0188609A
:1004600080938B01119878940E94F8220E944D117C
:1004700034D20E94B8210E9446170E94690A0E9445
:100480008B0D0E94E724F0CF8EBD0DB407FEFDCF8B
:100490008EB50895A1E0B0E0E0E5F2E00C94E42927
:1004A000482F8A3008F048E088E0489F7001112406
:1004B000F701E25DFE4F7F018BE290E0F70164916E
:1004C0008C010F5F1F4F4983FED3FFEFEF1AFF0A26
:1004D00049810333110511F0C801F0CF4550453073
:1004E00010F461E101C067E184E290E0ECD3219671
:1004F000E6E00C94002ACF93DF9382E090E0FC01C9
:10050000ED5FFE4F6491EC012196DDD3CB32D10536
:1005100011F0CE01F4CF87E390E0FC01EB55FF4FE3
:100520006491EC012196CFD3C036D10511F0CE01F4
:10053000F4CF88E0AFDFDF91CF9108952C98806CE5
:10054000A3DF80E0A1DF2C9A0895A1E0B0E0EBEA00
:10055000F2E00C94E8292C988064698395DF698126
:10056000862F92DF2C9A2196E2E00C94042A2C9894
:100570008BDF2C9A0895EF92FF920F931F93CF93E6
:10058000DF93EC0110929301E898249A2C9A8EE163
:1005900090E00FD22C988EE190E00BD22C9A8DE255
:1005A00090E007D280E3E3DF84E690E002D22C986B
:1005B00080E46ADF7E0189E2E80EF11C8E010F5FA4
:1005C0001F4FCE0185D360DF0E151F0511F0E80126
:1005D000F5CF2C9A2C988EE757DF8BE290E0EC0158
:1005E000219676D351DFC333D10511F0CE01F7CF79
:1005F0002C9A83E3BCDF81E0E1D1CDB7DEB7E6E042
:100600000C94002AA1E0B0E0E8E0F3E00C94E829C3
:1006100022E0298341E0BE016F5F7F4F0196F8D24F
:10062000898138DF82E090E0A6DF2196E2E00C9439
:10063000042ACF93E89886E39ADFCFEF85E397DF2C
:10064000C1508077803229F08AE090E0B2D1C111A8
:10065000F5CFCF910895CF93CFEF84E388DFC150DA
:100660008077803129F08AE090E0A3D1C111F5CFE5
:10067000E89ACF910895A2E0B0E0E1E4F3E00C94B1
:10068000E6298C01FC0181818737E9F441E0BE0154
:100690006F5F7F4FC8010296BBD2892BA1F041E06A
:1006A000BE016E5F7F4FC8010496B2D2892B59F00C
:1006B0006A8189814ADF83E35ADFCDDF8981A3D252
:1006C0008A81A1D22CC041E0BE016E5F7F4FC8017C
:1006D00001969ED2892B21F18A81893969F410E033
:1006E000812F2CDF90D2812F8770873009F416D2AA
:1006F0001F5F1033A9F714C021DF182F83E4C3D183
:100700008A8181D288ED90E0FCD1812F7CD284ED6A
:1007100090E0F7D140E262E0812F90E004D2FED178
:100720002296E4E00C94022A86E321DF10928E03E5
:100730001092910110929301089582E090E01BDFE6
:1007400081E080938E03109291011092930108959D
:100750000F931F93CF93DF93082F10E0C62FD0E0A5
:1007600085E3ECDE801731F0CE0123D11150C1F7C3
:1007700081E001C080E0DF91CF911F910F9108953A
:1007800085E2DCDE8F3311F080E0089586E3EFDE52
:1007900080918801811104C085E891E0B2D102C046
:1007A0008DE3E5DE83E3E3DE64E081E0D1DF85E233
:1007B000C5DE8F3349F780918801811103C08EE730
:1007C00091E09FD181E0089585E3B8DE8D3051F44A
:1007D00085E2B4DE8F3331F4D3DF84E3C8DE807783
:1007E0008031D9F708951F920F920FB60F921124FE
:1007F0000BB60F928F939F93AF93BF93EF93FF939B
:100800008091900390919103A0919203B0919303F2
:100810000196A11DB11D8093900390939103A09325
:100820009203B093930380918F038F5F80938F0324
:10083000E2E3F4E080819181181619061CF4019717
:1008400091838083369684E0EA34F80799F78091A3
:100850004C0490914D04009729F0019790934D041A
:1008600080934C0480915F048F3F19F081508093F6
:100870005F04FF91EF91BF91AF919F918F910F9086
:100880000BBE0F900FBE0F901F9018952FB7F894C6
:100890004091900350919103609192037091930362
:1008A000FC0140835183628373832FBF0895A4E0CA
:1008B000B0E0EDE5F4E00C94E829CE010196E6DF26
:1008C0008C81A1D18B819FD18A819DD189819BD13E
:1008D00025D12496E2E00C94042A1F93CF93DF9352
:1008E0008091900390919103A0919203B091930312
:1008F00020918A01281709F458C0809190039091A3
:100900009103A0919203B091930380938A01A895DB
:10091000C2E3D4E010E028813981232B19F4812F20
:100920000E94E11F1F5F26961430A9F780914C04A6
:1009300090914D04892B11F40E943D2080915F0419
:10094000811102C00E949B2080912304882339F0EA
:10095000815080932304811102C00E94DA17809194
:100960008F038D3710F110928F038091000181FF6A
:1009700004C082B192E0892782B984E893E0909321
:10098000950380939403809189018F5F80938901FF
:100990008C3359F410928901809131048F5F8093D8
:1009A00031048C3310F010923104DF91CF911F91FC
:1009B0000895880F991F0197F1F7089520ED37E00A
:1009C000815020F0F9013197F1F7FACF0895CF93D4
:1009D000DF93DC0113968C911397843509F050C096
:1009E000CD010396CC91FD0170964DE04C1750F06F
:1009F00050E0D0E09E012F5031094217530709F013
:100A00003FC005C021912B3399F34F5FEFCFFE011B
:100A10003E97E80FF91F2081243591F514963C91FB
:100A20001497218132132CC015963C911597228181
:100A3000321326C016963C9116972381321320C09C
:100A400017963C911797248132131AC06197C80FEB
:100A5000D91F858188838681898381858A83828560
:100A60008B8383858C8384858D8385858E838C9110
:100A70008A508C9312968C9112978A5012968C936E
:100A8000DF91CF910895CF93C82F80918B0180FF84
:100A90000EC0809173048E3730F087FD08C0CD30D2
:100AA00011F0CA3021F46C2F81E794E02CD28091B0
:100AB0002E048823C9F080918B0183FF15C0CA30B2
:100AC00099F0CD3011F46BE301C06C2F8EE993E007
:100AD0001AD2CD3019F48EE993E079DF83E0809368
:100AE000230482E080932904CF910895CF93DF936C
:100AF000EC018991882311F0C6DFFBCFDF91CF9104
:100B00000895CF93DF93EC01FE018491882319F0BF
:100B1000BADF2196F9CFDF91CF9108958DE0B3DF51
:100B20008AE0B1CF0895A6E0B0E0E9E9F5E00C94E1
:100B3000E629062F1E8215E02AE030E01150E1E0A0
:100B4000F0E0EC0FFD1FE10FF11DB9010E94C42977
:100B5000805D8083CB010150009769F01111EECFC9
:100B60000AC0112359F01150E1E0F0E0EC0FFD1F35
:100B7000E10FF11D4083015007FFF3CF81E090E0CA
:100B80008C0F9D1F810F911DB1DF2696E4E00C9420
:100B9000022AA5E0B0E0EFECF5E00C94E8291D8214
:100BA00024E0382F3F702150E22FF0E03A3010F46B
:100BB000305D01C0395CA1E0B0E0AC0FBD1FEA0FB1
:100BC000FB1F308334E0969587953A95E1F76150A5
:100BD000009739F7615067FD0BC0222349F021507F
:100BE000E1E0F0E0EC0FFD1FE20FF11D4083F2CFDA
:100BF00081E090E08C0F9D1F820F911D77DF25967D
:100C0000E2E00C94042A40E362E090E0C2CF089551
:100C1000DC01FB0130E090E08D918823A9F0813662
:100C200008F0805220ED280F2A3030F02FEB280FEB
:100C3000263030F429EC280F292B332379F006C015
:100C4000803251F38A3341F3CF0105C0CF010196C1
:100C50002083415041F4861B970B0895922F929563
:100C6000907F31E0D9CFFC01D5CF20E030E05AE0D1
:100C7000FC014191CF01442379F0E0EDE40FEA302B
:100C8000B8F7F9015E9F90015F9F300D112420534A
:100C90003109240F311DECCFFB01318320830895EE
:100CA000982F92959F709A3010F4905D01C0995CD6
:100CB000FB0190838F708A3010F4805D01C0895CE5
:100CC000FB01818308950E943E2BF999FECF089580
:100CD0000C94362B08951F93CF93DF93162F11504A
:100CE0001F3F59F0EC012196F3DF8DDF112311F046
:100CF0008AE3C9DE1150CE01F3CFDF91CF911F916E
:100D00000895A2E0B0E0E7E8F6E00C94E529FC01E4
:100D100021812D3421F466E08AEF9FE005C0203563
:100D200029F460E18AED9FE0D6DF26C01A8219829D
:100D300042E0BE016F5F7F4F01966ADF098110E0DC
:100D4000823021F4102F00278A81082BC801C0DFD0
:100D5000F82E82E598DE40E364E0C8011ADF88EAF5
:100D600091E0CFDE8F2D4FDF84EA91E0CADE40E2D2
:100D700062E08F2D90E0D7DED1DE2296E5E00C9484
:100D8000012AA6E0B0E0E7ECF6E00C94E2296C0161
:100D900043E0BE016F5F7F4F01963ADF823058F12A
:100DA000E980F12C823021F0FE2CEE242A81E22A07
:100DB0008C011127FE01E00FF11F6081C70183DF65
:100DC000000F111F0F5F1F4F0C0D1D1DF8018081BB
:100DD000882389F041E0BE016F5F7F4FC80118DFB3
:100DE000892B49F08FEFE81AF80A6981C7016BDF98
:100DF0000E5F1F4FEBCF2696E8E00C94FE2941E0F2
:100E000060E071E0019604DF8091000180FF02C084
:100E1000119A01C011986091000184E390E053CFD2
:100E20000895A1E0B0E0E7E1F7E00C94E829198229
:100E3000009731F041E0BE016F5F7F4F0196E8DE21
:100E400089818F3F09F4FFCF882321F061E083E39C
:100E500090E039DF10926E00F89428E088E190E08D
:100E60000FB6F894A895809360000FBE20936000A1
:100E7000FFCFCF93DF93EC0161E080E090E023DFD0
:100E800063E481E090E01FDF36DB60E080E690E025
:100E90001ADF60E081E690E016DF60E083E390E037
:100EA00012DF62E084E390E00EDF60E080E690E035
:100EB0000ADF60E081E690E006DF8981883719F07B
:100EC00080E090E0AEDFDF91CF91089580E090E088
:100ED000FFDE813029F481E090E0FADE833419F0FE
:100EE00080E090E0C6DF84E390E0F2DE80930001D2
:100EF00008958CE891E005DE11CE0895FC01128280
:100F0000108211820895FC018FB7F894928197FDA9
:100F10000EC09F5F9283208191E0920F9083DF014A
:100F2000A20FB11D13966C93903809F410828FBFF5
:100F30000895FC019FB7F8948281882371F0815055
:100F40008283818121E0280F2183DF01A80FB11D59
:100F500013968C91203809F411829FBF0895FA01ED
:100F60003081882369F0E1E0F0E0022E01C0EE0F4D
:100F70000A94EAF7DB01A30FB11D9C919E2B9C9371
:100F8000222319F08FEF820F0BC081E0830F8C308A
:100F900010F4FA018083FB01E80FF11D108287E055
:100FA00090E00895CF93C82F299A882319F0809153
:100FB0008E0102C08091900120E1829FC001112426
:100FC000F8DC2998CC2319F080918D0102C0809122
:100FD0008F0120E1829FC0011124EBDCCF910895A5
:100FE000A1E0B0E0E6EFF7E00C94D8296C01162FF1
:100FF000842E622E119A80919301882341F01092E1
:10100000930185E891E08DD7FF24F39401C0F12C82
:1010100080918E03811101C090DB0BDBA12EB12CDE
:10102000912C712C512C852D992787FD90958A152F
:101030009B0524F480E0B6DF5394F5CF112311F023
:1010400081E0B0DF20E0422E552447FC5094481444
:1010500059042CF097E0392E4C0C5D1C1BC087E026
:10106000282E312C4C0C5D1C81E090E0022C01C03C
:10107000880F0A94EAF7F20190818923298392DF8D
:10108000F1E02F1A310829818FEF2816380661F711
:101090002F5FD9CF832D992787FD90956816790604
:1010A0006CF481E090E0032C01C0880F0A94EAF709
:1010B000F2019081892376DF3A94ECCF8E2D7EDC8D
:1010C000015009F0AFCF80919703882311F0C3DA64
:1010D00002C086E34CDAF11088D311982196E2E140
:1010E0000C94F429ADE0B0E0E8E7F8E00C94DB29DB
:1010F0007C01162F842F022F6701C60ED11C462FAC
:10110000B7012AD7D6018C931F5F1D8619825E2CEA
:10111000670127E066246394712C8C2D8519811753
:1011200088F547E0A42EB12C4701880E911CF301ED
:101130000A2C01C0EE0F0A94EAF7D4018C91AE019B
:10114000435F5F4FBE016F5F7F4F8E2308DF282F05
:10115000B1E0AB1AB10858F7D6018D916D01082E98
:1011600082958025082E8695869580258F5F8695A9
:101170008170AE01435F5F4FBE016F5F7F4FEFDE57
:10118000282FCBCF222311F0215004C08D858F5FF3
:101190008D8727E089E180938F018093900185E21C
:1011A00080938D0180938E013AE0E32E4D856CE0B3
:1011B000CE01019615DF2D96EFE00C94F729ADE0F6
:1011C000B0E0E5EEF8E00C94E729162F242F4BE071
:1011D000BE016F5F7F4F01962D871ADD2D85412F50
:1011E000682FCE0101967EDF2D96E3E00C94032A52
:1011F00043E066E0E4CF0895EF920F93CF93DF933F
:10120000CDB7DEB760970FB6F894DEBF0FBECDBF87
:1012100040E1BE016F5F7F4F0196FADC69814A8130
:101220000B818C81809390018D8180938F018E81C1
:1012300080938E018F8180938D01E02EE2947FE078
:10124000E7220F70242F2F7042954F70CE01089621
:10125000C7DE60960FB6F894DEBF0FBECDBFDF913C
:10126000CF910F91EF900895A9E1B0E0EAE3F9E0A2
:101270000C94E0294BE0BE016F5F7F4F0196C8DC04
:10128000182F893009F05AC099E190938F019093FB
:10129000900190938E0182E380938D0169E0CE01ED
:1012A000019664D6E1E0F0E0EC0FFD1FE10FF11DC7
:1012B0008083198E1D86CE0101967C016E019BE014
:1012C000C90ED11C27E0AA24A394B12CEC14FD0470
:1012D00029F100E010E0F501002E01C0EE0F0A94A4
:1012E000EAF7D7018C91AE01475E5F4FBE01635FA5
:1012F0007F4F8E2334DE282F0F5F1F4F08301105DC
:1013000051F7AE01475E5F4FBE01635F7F4F81E0E3
:1013100026DE282FBFEFEB1AFB0AD8CF222311F0CD
:10132000215004C0898D8F5F898F27E0EAE0EE2E7F
:1013300003E0498D6CE0CE010D9652DE6996EAE03D
:101340000C94FC29A9E1B0E0E8EAF9E00C94DF296B
:101350004BE09E012F5F3F4F7901B901019658DCA8
:10136000182F85E38093900196E190938F019093DD
:101370008E0180938D01612FC70104D6F701E10F23
:10138000F11D808399249394910E198E1D868701F7
:1013900027E0AA24A394B12C802F8E19891508F078
:1013A0004AC0C12CD12CF5010C2C01C0EE0F0A94BF
:1013B000EAF7D8018C91AE01475E5F4FBE01635FD3
:1013C0007F4F8E23CCDD282FBFEFCB1ADB0A34E012
:1013D000C316D10441F7AE01475E5F4FBE01635FA4
:1013E0007F4F81E0BCDD282FB4E0CB2ED12CF5015E
:1013F0000C2C01C0EE0F0A94EAF7D8018C91AE01D3
:10140000475E5F4FBE01635F7F4F8E23A8DD282FAD
:10141000BFEFCB1ADB0A38E0C316D10441F7AE01A7
:10142000475E5F4FBE01635F7F4F81E098DD282FED
:101430000F5F1F4FB1CFAAE0EA2E03E0498D6AE0AB
:10144000CE010D96CDDD6996EBE00C94FB29CF9390
:10145000DF93E898249A2C9A8EE190E0AADA2C98EF
:101460008EE190E0A6DA2C9A8DE290E0A2DA80E399
:101470007ED884E690E09DDACCECD1E0FE01319696
:101480006491FE01849161D82296F1E0CE3FDF079E
:10149000A9F780919201811105C083E368D884E0A7
:1014A0008DDA0EC0C6EBD1E0FE0131966491FE01EB
:1014B00084914BD82296F1E0CC3CDF07A9F7EDCF21
:1014C00084E355D885E33AD88D30D1F7DF91CF91B9
:1014D0000895A2E3B0E0EFE6FAE00C94E6298091EB
:1014E0009101882309F494C04A9B7EC08FE326D8DB
:1014F0008F778983823348F08AE339D886E337D8F7
:101500008DE335D884E333D883C02C988FEF0E94C5
:10151000440210E08981181760F480E00E944402C0
:10152000E2E0F0E0EC0FFD1FE10FF11D80831F5F93
:10153000F1CF80E00E944402082F80E00E94440224
:101540002C9A84E314D885E30E949E028D30C9F75B
:101550002A8196E792279A8392E08981E92FF0E029
:10156000981768F441E050E04C0F5D1FE40FF51F41
:1015700030812452232720839F5F232FEECF81E0E9
:1015800090E08C0F9D1FE80FF91F90818B819827A9
:1015900090838091970384FF10C081E674DA10E095
:1015A0008981811708F1E1E0F0E0EC0FFD1FE10F08
:1015B000F11D808168DA1F5FF3CF81E464DA10E007
:1015C0008981811750F0E1E0F0E0EC0FFD1FE10FA1
:1015D000F11D808118DB1F5FF3CF8091970385FF9A
:1015E00002C0802F10DB9ADA85E30E949E028130D0
:1015F00029F0813161F48AE30E94B70286E30E94F8
:10160000B7028DE30E94B70284E30E94B702DCD8E0
:10161000E296E4E00C94022A8F929F92AF92BF92DE
:10162000DF92EF92FF920F931F93CF93DF93CDB78B
:10163000DEB7EA970FB6F894DEBF0FBECDBF41E329
:101640008E010F5F1F4FB8010196E2DA7C019927E6
:101650000197298130E08217930709F09BC08091A0
:101660009101811103C0F3DE83E0A8D9DB808A8178
:1016700096E789278A8322E03981822F90E0F8015A
:10168000E80FF91F231750F4DE01A80FB91F8C9142
:1016900084529081892780832F5FEECF80818D25B2
:1016A0008083CE01C796F2D885E30E94B70285E316
:1016B0000E949E02833171F1CE01C396E7D84BA9F7
:1016C0005CA96DA97EA98FA998ADA9ADBAAD841703
:1016D0009507A607B70760F44A015B01881A990AC3
:1016E000AA0ABB0A2DEB82169104A104B10470F47E
:1016F000481759076A077B0768F484549F4FAF4F18
:10170000BF4F84179507A607B70720F48CEA91E02E
:10171000F8D924C085E30E949E02833129F6D4FEC5
:1017200006C088E74BD988E749D988E701C08AE035
:1017300045D92C988FE70E94440258018A2D801BBE
:101740008E1530F4F50181915F010E944402F6CFBD
:101750002C9A85E30E949E028331D9F385E30E948F
:101760009E02863149F48BE30E94B70286E30E9411
:10177000B7028DE30E94B70280919101882349F05E
:1017800084E30E94B70285E30E949E028D30C1F778
:1017900001C0B7D3EA960FB6F894DEBF0FBECDBF37
:1017A000DF91CF911F910F91FF90EF90DF90BF904D
:1017B000AF909F908F900895FC012181223731F0E6
:1017C000223559F481E08093920102C01092920177
:1017D0003EDE81E0809391010895233719F401964C
:1017E0001BCF0895109291010895CF93DF93E8984D
:1017F000249A2C9A8EE190E0DCD82C988EE190E02F
:10180000D8D82C9A8DE290E0D4D880E30E94B70219
:1018100084E690E0CED8C0E1D2E0FE01849181342C
:1018200038F083E30E94B70284E0C8D8CFEF0DC040
:10183000FE0131966491FE0184910E94A5022296D8
:10184000F2E0CC34DF0749F7ECCF84E30E94B70223
:101850008AE090E0AED8C150C1F781E08093930157
:10186000DF91CF910895EF92FF920F931F93CF9343
:10187000DF93EC018B01F88080919301811101C00D
:10188000B4DF85E30E949E028D3051F08AE5FBD8DB
:1018900085E4F9D882E5F7D882E5F5D881E347C039
:1018A0008091940190919501A0919601B09197013A
:1018B000892B8A2B8B2B29F50E94190385E30E9423
:1018C0009E02833109F43BC08AE5DDD885E4DBD88C
:1018D00082E5D9D882E5D7D882E329C080919003E8
:1018E00090919103A0919203B09193034F5F5F4F4A
:1018F0006F4F7F4F84179507A607B707E9F681E07A
:101900005DD88091900390919103A0919203B09142
:1019100093034091940150919501609196017091CB
:10192000970184179507A607B707C1F6E8CFABD88C
:1019300085E30E949E0267D9F1D857DF5CC0012B76
:1019400049F42C988FE70E944402EC2E0C2F1D2F97
:10195000F3940AC00AE010E084E630D8015011097F
:1019600001151105C9F7EDCF802F8E198F1530F4B1
:10197000F80181918F010E944402F6CF2C9AC8ECA5
:1019800085E30E949E028D30B1F485E30E949E02A1
:101990008D30E1F08AE577D885E475D882E573D893
:1019A00082E571D883E36FD885E30E949E022BD92C
:1019B000B5D81BDF0BC085E30E949E02833129F757
:1019C00081E00E94DE04C150D9F6DFCF80919301FF
:1019D000811101C096D28091900390919103A091C2
:1019E0009203B09193038093940190939501A093F7
:1019F0009601B0939701CDB7DEB7E6E00C94002ACC
:101A0000ACE0B0E0E6E0FDE00C94E729FC018BE0FF
:101A1000898381818A831B8282E08C8387818D8385
:101A200080858E8381858F8384818887858189875E
:101A300086818A871B861C8684E10E94DE0460E022
:101A400070E0CE0101960FDF8AE51DD810E0812FEE
:101A500090E0298130E02817390754F0E1E0F0E008
:101A6000EC0FFD1FE80FF91F8081CDD81F5FEFCF6E
:101A70008091970385FF02C080E0C5D84FD82C968F
:101A8000E3E00C94032ACF93DF93EC0180919B0158
:101A9000811108C090919C01911104C090919D0109
:101AA0009923A9F09B81903319F09F7E903479F4AB
:101AB0009F8198130CC0988580919C01981307C052
:101AC000998580919D01981302C0CE0199DF809184
:101AD0009801811108C090919901911104C09091D1
:101AE0009A019923A9F098819B3091F49B819034BD
:101AF00079F49F8198130CC098858091990198136F
:101B000007C0998580919A01981302C0CE0178DFB1
:101B1000DF91CF910895AEE1B0E0E1E9FDE00C94F2
:101B2000E62980919301882309F467C04A9B57C036
:101B30008FE30E949E028F778E3108F08DE18983BA
:101B40002C988FEF0E94440210E08981181760F4EE
:101B500080E00E944402E2E0F0E0EC0FFD1FE10FA4
:101B6000F11D80831F5FF1CF80E00E944402082FA7
:101B700080E00E9444022C9ACE01019684DF80917D
:101B8000970384FF12C08AE70E94430510E0898111
:101B9000811798F1E1E0F0E0EC0FFD1FE10FF11D7E
:101BA00080810E9443051F5FF2CF8AE50E944305B2
:101BB00010E08981811750F0E1E0F0E0EC0FFD1FAB
:101BC000E10FF11D80811FD81F5FF3CF8091970334
:101BD00085FF02C0802F17D80E948E050EC085E3B6
:101BE0000E949E02813149F48AE30E94B70286E393
:101BF0000E94B70284E30E94B7026E96E4E00C9460
:101C0000022AAEE1B0E0E7E0FEE00C94E6298C01A8
:101C1000FC018181823711F4E8DD36C0833711F091
:101C2000863601F54DE1BE016F5F7F4FC801029618
:101C30000E94080699270197298130E082179307AF
:101C400029F08EEF91E00E9481051EC061E070E0F6
:101C5000F8018181833711F060E070E0CE010196D8
:101C600002DE12C0813621F443E06BE971E005C069
:101C7000873741F443E068E971E0C80102960E94A9
:101C8000080602C0109293016E96E4E00C94022ABA
:101C90008F929F92AF92BF92DF92EF92FF920F933B
:101CA0001F93CF93DF931092B9011092CE01FC01E4
:101CB0002181220F220F220F3381231B57E0520F65
:101CC0001092BA0110E070E038E0D32ED20EFF245B
:101CD000F39447E007E0E12CC7E0D0E0A1E0B0E0FA
:101CE000FD1409F47FC0FC01EE0DF11D248130E0EC
:101CF000002E02C0359527950A94E2F7217033270C
:101D0000E22F002311F0015002C0E39407E06B348E
:101D100071F4433009F04AC0111107C0E1115FC0EE
:101D20001092B9017093CE0174C010E041C04F3FD2
:101D300031F56634A9F4E72FF0E0E654FE4FE08178
:101D40000E2EE295E0250E2EE695E695E025EF5F56
:101D5000E1FB882480F8912C8216930641F004C0A0
:101D6000653429F4E11103C01093B901DBCF7F5F23
:101D7000E72FF0E0E654FE4F108247E031C0EE233B
:101D800061F1663471F4E72FF0E0E654FE4FA08075
:101D90009D01042E01C0220F0A94EAF7A22AA08214
:101DA0001CC0653439F06B34C1F404C04F3FD1F22C
:101DB000EE2399F0E72FF0E0E654FE4F9E01241B3E
:101DC000310947FD33955D0102C0AA0CBB1C2A9561
:101DD000E2F795013081322B3083415001C011E090
:101DE000F3947ECF1093B9017093CE015F1588F400
:101DF000653431F44F3F21F47F5F7093CE0104C00E
:101E00008091B9018111F8CF81E09091CE019111BB
:101E100001C080E0DF91CF911F910F91FF90EF9073
:101E2000DF90BF90AF909F908F90089510926F00B9
:101E3000E091D1018CE1E89FF0011124EE52FE4FB8
:101E40001082809196038D7F809396030895FC0104
:101E50002181243110F0EACF08953381662381F087
:101E600081E090E0032E01C0880F0A94EAF7DF01B9
:101E7000A20FB11D14969C911497982B14969C93C5
:101E8000332319F031503383089587E083832F5F24
:101E90002183E20FF11D14820895DC011196EC916B
:101EA0001197F0E050E02C91CF01841B950B0B961D
:101EB0004797A0F430E070E0C901861B970B0B96A2
:101EC000479760F42E0F3F1F640F751F261B370BBB
:101ED000255F3F4F81E02731310508F080E008950C
:101EE000219A29985298E9E6F0E080818160808308
:101EF0001092EE0110920A021092260210928E03A6
:101F000008958091880381110BC0809197038823E5
:101F100029F00E949D030C942B0308950C949403C4
:101F20000895FC01218121110FC0809197030E9427
:101F3000030640E265E080919403909195030E942E
:101F400093050C948E05089541E067E973E00196CE
:101F50000E940806D6CF0895442339F04150FB0172
:101F6000E40FF11D9081890FF7CF089520E06623DB
:101F700039F06150FC01E60FF11D30812327F7CFC6
:101F8000822F0895A091B90140E035E020E066235A
:101F900099F06150FC01E60FF11D5081752F72958B
:101FA0007F702727370FAA2311F0442319F05F70A1
:101FB0002527350F4F5FEBCF320F40E1349FC00133
:101FC0001124822B0895FC0132812381A081B181EB
:101FD000A30FB11D8C9190E0022E02C095958795BC
:101FE0000A94E2F7817099274FEF420F4383211142
:101FF00004C03F5F328327E023830895A2E0B0E06E
:10200000E4E0F0E10C94E0297C01A12CB12CD12C6E
:10201000CC24C394062F10E001501109A616F0F449
:10202000C7014A836983CFDF4A816981882391F0A0
:10203000442349F098012A193B098C2D01C0880FCF
:102040002A95EAF706C08C2D0A2C01C0880F0A9445
:10205000EAF7D82A8FEFA81AB80AE0CF8D2D22967A
:10206000EAE00C94FC29A4E0B0E0E9E3F0E10C9490
:10207000DF291B8227E02C839C012C5F3F4F3A8392
:1020800029831092CE01FC012181338187E090E009
:10209000831B9109F8E02F9F800D911D1124853439
:1020A00091050CF44EC0B12CA090CE01F5E0FA15CC
:1020B00058F10A2D10E040E068E0CE0101969EDF65
:1020C00006541E4FF8018083982E092C9294902478
:1020D000092C969496949024CE01019674DF9394E3
:1020E00091FACC24C0F8D12C90E0C816D90649F555
:1020F000CE01019668DF811124C0F8018081B826E5
:10210000A394A092CE01D0CF40E068E0CE0101962A
:1021100075DF082F182F012E12951025012E169508
:1021200016951025CE0101964EDF1F5F11FBEE24A0
:10213000E0F8F12C282F30E0E216F30611F481E0EC
:10214000B01280E02496EBE00C94FB29A5E0B0E00F
:10215000ECEAF0E10C94E329FC011B8287E08C831C
:10216000CF0104969A8389838081853009F051C01C
:102170002181338187E090E0831B910938E0239F20
:10218000800D911D11248039910509F042C01092F3
:10219000CE010FE010EF29E88091CE01E82EF12C5E
:1021A000DD24D394D80E41E068E08F3088F4CE016E
:1021B00001962D8323DF080F111DF701E654FE4F12
:1021C0002D812827208324E2280FD092CE01E4CF4E
:1021D000CE01019613DF080F111DD092CE01F70139
:1021E000E654FE4F8095808341E068E0CE01019681
:1021F00005DF90E0982F8827081B190B41E068E065
:10220000CE010196FBDE282F30E081E00217130794
:1022100009F080E02596E7E00C94FF29CF93DF9347
:10222000FC0181818330E9F483818730D1F480819E
:102230008830B9F41092CE0120E0822F90E0DC01CA
:10224000A654BE4FEF01C80FD91F8C818C9381E03B
:10225000820F833010F4282FF0CF8093CE0181E0DD
:1022600001C080E0DF91CF910895FC0190818091C1
:102270009603993611F0933751F4982F937091305B
:1022800011F4826006C080FF07C08B7F03C080FD11
:1022900003C08460809396030895A1E0B0E0E3E575
:1022A000F1E10C94E429198280919E018823B9F10F
:1022B0008091970387FF17C084E30E949E02805895
:1022C000803458F0803C58F490E08055910953E0F8
:1022D000959587955A95E1F703C080E001C08FE09E
:1022E0008F590E9443058091970383FF16C082E7B0
:1022F0000E9443058091970384FF04C080919F0151
:102300000E94430586E60E9443058091970384FF5F
:1023100004C080919E010E94430510929E0180910D
:10232000CF01882309F418C2119A0091D0012CE141
:10233000029F800111240E521E4F8981811106C017
:10234000C8016CDF882311F083E7898389818111BB
:1023500006C0C801FBDE882311F083E589838981EB
:10236000811139C066E4C80193DC8823A1F1F090A3
:10237000CE01FA94F092CE014F2D6AEB71E086E027
:10238000EBDDEF2DF0E0E654FE4FE0808E1105C04E
:1023900093E09F1510F486E41BC0282F30E02F5FD8
:1023A0003F4F6E2D70E02617370739F423E02F15C5
:1023B00020F496E4998380830EC04F2D6AEB71E080
:1023C0008CE0CADD8E1106C083E08F1518F484E519
:1023D000898301C019828981811116C065E4C80111
:1023E00057DC882389F08091CE0181508093CE0103
:1023F000893051F469E08AEB91E0B8DD9091C30136
:10240000891302C085E489838981811106C0C801CE
:102410002ADE882311F088E489838981811133C001
:10242000F801438D60919F01C8014A9636DD682FFF
:10243000C8010DDD6BE4C8012BDC8823B1F0F090FE
:10244000CE01FA94F092CE016F2D8AEB91E09ADDE5
:10245000EF2DF0E09091B901E91BF109E654FE4F30
:102460009081891302C08BE48983898181110BC01B
:10247000F801838191E0980F9383873021F41382D0
:102480008181815081833981332309F4D9C020911E
:10249000970320FFD5C0809196038E7F8B7F80931A
:1024A000960321FD64C05091B801F090CE015F11F8
:1024B0003DC040E04517C0F4842F90E061E0640F18
:1024C000FC01EC55FE4FDC01A654BE4F70818C918F
:1024D000781741F04093B801809196038D7F8093E7
:1024E000960304C0462FE6CF4093B80145131EC0A3
:1024F00040919003509191036091920370919303E6
:102500008091A0019091A101A091A201B091A3019D
:10251000481B590B6A0B7B0B46325105610571054F
:1025200028F48091960381608093960340E04F15D4
:1025300060F4842F90E0FC01EC55FE4FDC01A654C2
:10254000BE4F8C9180834F5FF2CF4093B801809152
:10255000900390919103A0919203B0919303809383
:10256000A0019093A101A093A201B093A3013435DF
:10257000E9F426FD1BC08091CE018530B8F0809132
:10258000BC018B3471F0893661F09DEA980F92306E
:1025900040F08D57823028F08091BD0180778037E0
:1025A00029F480919603816080939603B801CE014F
:1025B00001965BDE8981843569F490912E0499231C
:1025C00049F090913004911105C0909196039B7F42
:1025D000909396039091960392FF32C00E94430518
:1025E0008091B901882329F08091CE018150809398
:1025F000CE01F12CE091CE01FE1648F4EF2DF0E073
:10260000E654FE4F80810E940306F394F3CF80913D
:10261000B901882351F0F0E0E654FE4F80818F70BD
:1026200040E361E090E00E94C9058091970385FF37
:1026300005C084E30E949E020E9403060E948E054C
:102640008091970382FF6FC080E70E944305F801E5
:10265000808140E262E090E00E949305F801808D65
:1026600040E265E0F0E18F9FC00111240E949305D4
:10267000F801818D40E265E0F0E18F9FC0011124F7
:102680000E949305F801828D40E265E0F0E18F9FA2
:10269000C00111240E949305F801838D40E265E09A
:1026A000F0E18F9FC00111240E949305F8018281FF
:1026B00040E263E090E00E949305F801818140E2EE
:1026C00063E090E00E949305F801238140E262E01C
:1026D00087E090E0821B91090E94930580E20E94AE
:1026E00043058091970385FF08C084E30E949E0202
:1026F0000E94030680E20E944305F801838187302F
:1027000019F081818F5F8183F12CF8018181F816A6
:1027100040F4F801EF0DF11D84810E940306F3944B
:10272000F4CF0E948E05F80110828091CF01815074
:102730008093CF018091D0018F5F843019F0809316
:10274000D00102C01092D00111988981843521F402
:102750008AEB91E00E94AB202196E6E00C94002ADF
:102760001F920F920FB60F9211240BB60F922F9358
:102770003F934F935F936F937F938F939F93AF9309
:10278000BF93EF93FF9310926F008091970383FFA5
:1027900003C08EE20E9443058091D1019CE1899F94
:1027A000F0011124EE52FE4F9081933018F0918188
:1027B000923010F43BDB18C09091CF01933049F474
:1027C0008091970382FFF6CF8CE492E00E9481050E
:1027D000F1CF9F5F9093CF018F5F843019F080938A
:1027E000D10102C01092D101FF91EF91BF91AF9141
:1027F0009F918F917F916F915F914F913F912F9119
:102800000F900BBE0F900FBE0F901F9018959BED71
:10281000980F973150F496EF960F9D3130F491E078
:10282000681708F090E0892F089580E008951F92BE
:102830000F920FB60F9211240BB60F92FF920F93C7
:102840001F932F933F934F935F936F937F938F9338
:102850009F93AF93BF93CF93DF93EF93FF938091B9
:102860007004882321F082E08093700463C180911A
:102870002404823021F483E0809324045BC100911E
:1028800084001091850064E0169507956A95E1F73C
:10289000C091D1019CE1C99FE0011124CE52DE4FCD
:1028A0009881943031F40E3208F444C10F3448F06A
:1028B000B6C0953031F4073108F43CC1083208F055
:1028C000AEC04A990DC09450923038F461E0CE0108
:1028D000BEDA109285001092840000939F012AC1F5
:1028E00080919F01081B00939E0110928500109219
:1028F00084009881983071F42A8121110BC021E065
:102900002A83888F8A8F098F0B3B10F4000F01C038
:1029100006950B8F9450923020F460E0CE0197DA48
:1029200009C182E086BBF880F11011C090919F012F
:10293000953608F0FFC080919E01853608F0FAC0F8
:10294000988F898F81E08A8382E08883F3C0109119
:102950009E0182E0F81273C000919F01412F602F09
:10296000CE0148969ADA6A818823F9F0488D50E0C2
:102970009A01220F331F240F351F200F311D35956B
:10298000279535952795288F298D30E0C901880F27
:10299000991F820F931F810F911D9595879595958E
:1029A0008795898F6F5F6A83C5C0643008F445C01E
:1029B00020EA3FE030938900209388008A818C30A0
:1029C00050F0888D298D30E0280F311D25363105D6
:1029D00024F084E027C08A3088F0888D298D30E08B
:1029E000280F311D253231054CF485E0888328EE0F
:1029F00033E0309389002093880015C080919D03B7
:102A0000882379F0612F802F02DF882351F0688DB1
:102A1000898DFDDE882329F081E08093240406DA85
:102A200089C083E088830A8F1B8F198287E08B839C
:102A30001C8282E080936F007DC0188277CF98E07F
:102A4000F91225C081E9810F8D3178F460E0CE0163
:102A5000FED9288D30E0C901880F991F820F931F7E
:102A600020919F01820F911D4EC0173E08F462C055
:102A700061E0CE01ECD92A8D30E0C901880F991FA1
:102A8000820F931F20919F01820F911D15C000910D
:102A90009F01412F602FCE014A96FFD9882301F173
:102AA00061E0CE01D4D92A8D30E0C901880F991F89
:102AB000820F931F800F911D95958795959587950A
:102AC0008A8F2B8D30E0C901880F991F820F931FC9
:102AD000810F911D95958795959587958B8F2AC028
:102AE000412F602FCE014896D8D9882301F160E0AC
:102AF000CE01ADD9288D30E0C901880F991F820F12
:102B0000931F800F911D9595879595958795888F33
:102B1000298D30E0C901880F991F820F931F810F03
:102B2000911D9595879595958795898F03C087E029
:102B3000F81275CFFF91EF91DF91CF91BF91AF91D7
:102B40009F918F917F916F915F914F913F912F91C5
:102B50001F910F91FF900F900BBE0F900FBE0F9023
:102B60001F901895E091D1018CE1E89FF0011124AC
:102B7000EE52FE4F8081811107C081E090915F0489
:102B80009F3F19F480E0089581E0089580E690E089
:102B90000E94680680939D0381E690E00E9468068B
:102BA00080932E04882321F081E280939703A9C9A2
:102BB0000895299A0C94D904089529980C94D9045D
:102BC0000895A7E0B0E0E7EEF5E10C94E3299091D9
:102BD000A103943559F420912704309128042F5FE4
:102BE0003F4F30932804209327043EC0963459F475
:102BF00020912504309126042F5F3F4F3093260407
:102C00002093250431C0953459F420919A033091D2
:102C10009B032F5F3F4F30939B0320939A0324C065
:102C20009B3459F420912A0430912B042F5F3F4F9D
:102C300030932B0420932A0417C0983459F4209120
:102C40002C0430912D042F5F3F4F30932D0420939F
:102C50002C040AC020919803309199032F5F3F4FB5
:102C6000309399032093980395E79983882399F0EB
:102C7000BE016E5F7F4F80912E040E945006BE0100
:102C80006C5F7F4F80919D030E94500685E58E8387
:102C900086E0D82E02C0DD24D3940E949D030E94BA
:102CA000190316E080E891E084DF80E093E085DF9F
:102CB0001150C1F780E093E07CDF80E891E07DDF98
:102CC00080E891E076DF299887E390E00E94BB02DC
:102CD00083E00E94DE042C988FE70E9444028091DA
:102CE000A0038D0D0E944402CE0101967C018C014F
:102CF000F80181918F010E944402802F8E198D1559
:102D0000B8F38091A003882339F08EE993E00E9404
:102D100099070E944402F5CF2C9A0E9419038EE96C
:102D200093E00E947E0715E18AE30E949E028F775E
:102D300031F0115021F081E00E94DE04F5CFE1D89E
:102D40002796E7E00C94FF29CF93DF93EC0189816C
:102D5000811107C080919D030E94030680912E047B
:102D600013C08436A1F48091900390919103A091B7
:102D70009203B091930340E364E00E94C9058EE2A0
:102D80000E944305809123040E9403064DC08337AF
:102D900009F04DC040E361E0809127049091280440
:102DA0000E94C9058EE20E94430540E361E08091E4
:102DB0002504909126040E94C9058EE20E944305D5
:102DC00040E361E080919A0390919B030E94C905C2
:102DD0008EE20E94430540E361E080912A049091D5
:102DE0002B040E94C9058EE20E94430540E361E086
:102DF00080912C0490912D040E94C9058EE20E94BE
:102E0000430540E361E080919803909199030E940B
:102E1000C9058EE20E94430540E361E080912104F0
:102E2000909122040E94C9050E948E052CC089360B
:102E3000D9F441E06DE973E0CE0102960E940806E4
:102E400060919D0380E690E00E94630641E06EE29F
:102E500074E0CE0104960E94080660912E0481E67B
:102E600090E00E9463060FC08EE993E00E947E0707
:102E700021966991662329F08EE993E00E948307E9
:102E8000F8CF80E09EDEDF91CF910895A1E0B0E021
:102E9000ECE4F7E10C94E22980912404882309F4FE
:102EA00085C0C0909003D0909103E0909203F09081
:102EB0009303833009F060C08FE30E949E02182FB5
:102EC0008630C8F084EF94E00E947E072C988FEF44
:102ED0000E94440280E00E944402082F115049F0F1
:102EE00080E00E944402682F84EF94E00E948307F0
:102EF000F5CF2C9A01C000E004D8109224040537C5
:102F000009F054C041E0BE016F5F7F4F87EF94E04E
:102F10000E940806019759F5998180919D039813A5
:102F200026C08091FB04853571F48091F6048823D6
:102F300039F084EF94E00E9499070E944305F5CF91
:102F40000E948E0533C08091F60484508093F6046D
:102F500084E08093F5046AE084EF94E00E948307A4
:102F6000E0918C03F0918D0388E009951FC084EFF8
:102F700094E00E947E071AC0823059F480919C032D
:102F80009C2D981B983090F00E94810F1092240481
:102F90000DC0813059F487E390E00E94BB020E948B
:102FA0002B0382E080932404C0929C032196E8E0E6
:102FB0000C94FE29D7DD882361F083E080932904F7
:102FC0008091210490912204019690932204809391
:102FD000210480912904815080932904882321F0C1
:102FE00083E080932304089581E0EBCD0895CF938F
:102FF000DF93E898249A2C9A8EE190E00E94D904FD
:103000002C988EE190E00E94D9042C9A8DE290E0F9
:103010000E94D90480E30E94B70284E690E00E94F7
:10302000D9042C9880E40E944402C3E5D2E0FE015A
:1030300084910E9444022196F2E0C036DF07B9F77E
:10304000809101010E944402809102010E94440289
:10305000809103010E944402C0E0D0E0FE01ED59DE
:10306000FD4F84910E9444022196C931D105B1F7E8
:103070002C9A2C988EE70E9444028BE290E0EC019F
:1030800021960E9468060E944402C333D10511F0C4
:10309000CE01F5CF2C9A83E30E94B70281E00E9413
:1030A000DE0481E080938E03DF91CF9108956F92CB
:1030B0007F928F929F92AF92CF92EF92FF920F9357
:1030C0001F93CF93DF93EC018981843769F468E023
:1030D00071E0CE0102960E94350640E260E08091E8
:1030E00008019091090112C0833709F092C18A81C9
:1030F000823789F464E071E0CE0103960E943506C0
:1031000040E260E080910401909105010E949305E6
:103110000E948E05F3C1119A80914402811116C05C
:1031200080919101882329F081E0809343021092DD
:10313000910180919301882329F081E080934202DC
:103140001092930154DF83E00E94DE0486E30E9424
:10315000B7028AE30E94B7028BE30E94B7020E9483
:103160001903FE0101900020E9F70E2F0C1B0250FD
:10317000C12CFAE09F2E7E0132E0E30EF11CA5E0A7
:10318000AA2EB8E28B2E80910401909105012C2D7E
:10319000332727FD30952817390708F0FBC0013287
:1031A000A1F4299A80910801909109010E94D90403
:1031B00029988091060190910701FC019E9EC00113
:1031C0009F9E900D11240E94D904370111E0101721
:1031D0000CF0B7C0F30181913F01299A803309F0C7
:1031E00046C0013201F580910601909107010E94CD
:1031F000D904299880910601909107010E94D90471
:10320000299A80910601909107010E94D90429987A
:1032100080910601909107019C01A29EC001A39E8E
:10322000900D11248AC080910801909109010E949B
:10323000D904299880910801909109019C01220FDD
:10324000331F820F931F0E94D904299A809108018D
:10325000909109010E94D9042998809108019091C8
:1032600009019C01220F331F820F931F66C0813317
:1032700029F5013291F480910601909107010E9495
:10328000D90429988091060190910701FC01AE9E16
:10329000C001AF9E900D11241EC080910801909135
:1032A00009019C01220F331F820F931F0E94D90432
:1032B000299880910801909109012CC00132D1F424
:1032C00080910601909107010E94D904299880916C
:1032D0000601909107010E94D904299A8091060164
:1032E000909107010E94D90429988091060190913C
:1032F000070123C080910801909109010E94D9041F
:10330000299880910801909109019C01220F331F97
:10331000820F931F0E94D904299A809108019091ED
:1033200009019C01220F331F820F931F0E94D904B1
:10333000299880910801909109010E94D9041F5F8A
:1033400046CF299A0132A1F480910601909107019C
:103350000E94D904299880910601909107019C014F
:10336000829EC001839E900D11240E94D90410C03A
:1033700080910801909109010E94D90429981FE1C8
:1033800080910801909109010E94D9041150C1F760
:10339000C394F9CE80914402882341F08091970331
:1033A00081110FC086E30E94B70219C080914302C9
:1033B000882351F0109243020E94270A81E08093F3
:1033C00091010E942B030BC080914202882329F0B7
:1033D000109242020E94F50B02C00E94810F1198C8
:1033E00089E60E94430583E70E94430511E0101718
:1033F0000CF08ECEFE01E10FF11D17FDFA958181D3
:10340000803319F0813309F086E40E9443051F5F81
:10341000EECF8237B9F480919101882329F081E0C1
:10342000809343021092910180919301882329F0A7
:1034300081E08093420210929301D9DD81E0809374
:1034400044025CC0863651F58A81803351F480E1B4
:103450008093010180EB8093020181E78093030157
:1034600007C043E061E071E0CE0102960E940806C9
:1034700089E60E94430586E60E9443058AE30E948E
:103480004305809101010E940306809102010E9480
:103490000306809103010E9403063ACE883731F576
:1034A00080914302882341F0109243020E94270A30
:1034B00081E08093910111C080914202882329F01C
:1034C000109242020E94F50B0EC082E090E00E9432
:1034D000BB0280919703882319F00E942B0303C03D
:1034E00086E30E94B7021092440208C0833631F48A
:1034F00068E071E0CE0101960E943506DF91CF9120
:103500001F910F91FF90EF90CF90AF909F908F9071
:103510007F906F900895A2E0B0E0E1E9FAE10C94A9
:10352000DB297C01FC018181833709F09DC119826F
:1035300087E090E00E940F2A8C0141E0BE016F5F9E
:103540007F4FC70102960E9408068981F801808397
:1035500041E0BE016F5F7F4FC70104960E940806DD
:103560002981207FF801218341E0BE016F5F7F4FF9
:10357000C70106962A830E9408068981F801828382
:1035800041E0BE016F5F7F4FC70108960E940806A9
:103590008981F801838341E0BE016F5F7F4FC701DE
:1035A0000A960E9408068981F801868341E0BE01DF
:1035B0006F5F7F4FC7010C960E9408068981F80152
:1035C000858341E0BE016F5F7F4FC7010E960E9469
:1035D00008068981F801848380E090E02A81419186
:1035E000342F32953F70342783279F5F9730B9F788
:1035F0008F70822BF801818387E090E00E940F2A70
:103600005C0187E0F801D50101900D928A95E1F700
:10361000D8011196C8010696F8013D912191232702
:103620002083E817F907C9F7119A809147028111A1
:1036300060C080919101882329F081E08093460247
:103640001092910180919301882329F081E0809369
:10365000450210929301E898249A2C9A8EE190E00A
:103660000E94D9042C988EE190E00E94D9042C9AF3
:103670008DE290E00E94D90480E30E94B70284E6C4
:1036800090E00E94D9042C9880E40E9444026CE7E8
:10369000E62E62E0F62EF70184910E944402FFEFCD
:1036A000EF1AFF0A25EAE21622E0F206A1F72C9AA9
:1036B0002C988EE70E9444028BE290E07C01EFEFB1
:1036C000EE1AFE0A0E9468060E944402F3E3EF1617
:1036D000F10411F0C701F2CF2C9A83E30E94B702E4
:1036E00081E00E94DE0481E080938E0383E00E94EB
:1036F000DE0486E30E94B7028AE30E94B7028BE3EE
:103700000E94B7020E941903299A87EC94E20E9452
:10371000D904299889E50E94DE0485E392E00E949D
:10372000D904712C80910E0190E0272D332727FDBD
:103730003095281739070CF057C0711002C022E0ED
:1037400001C027E0F12C299A86EF99E02A830E9494
:10375000D904299886EF99E00E94D904F3942A812C
:10376000F2168CF3299A8CEF92E10E94D9042998E1
:1037700080910A0190910B010E94D9046801612C8B
:10378000F60181906F0148E0542E50E8E52EF12CAF
:10379000912CC70188219921892B49F4299A80917C
:1037A0000A0190910B010E94D904299808C0299818
:1037B00080910A0190910B010E94D904299A80916D
:1037C0000A0190910B010E94D904F694E7945A944F
:1037D00001F76394F7E06F12D3CF299880E090E06F
:1037E0000E94D90473949ECF80914702882341F0B0
:1037F0008091970381110FC086E30E94B70219C020
:1038000080914602882351F0109246020E94270AB6
:1038100081E0809391010E942B030BC080914502AF
:10382000882329F0109245020E94F50B02C00E94E5
:10383000810F119889E50E94430583E70E944305A3
:103840007501D12CF70181917F010E940306D39469
:10385000F7E0DF12F7CF0E948E05C5010E94A72A6C
:10386000C8010E94A72A6FC08237A9F46EE071E0F8
:10387000C70102960E94350689E50E94430582E74A
:103880000E9443058AE30E94430580910E0140E2B5
:1038900060E090E02CC0843779F5F70182818033B5
:1038A00039F488ED94E090930D0180930C0106C0EB
:1038B0006CE071E0C70102960E94350680910C0110
:1038C00090910D019695879590930B0180930A0135
:1038D00089E50E94430584E70E9443058AE30E942C
:1038E000430540E266E080910C0190910D010E9439
:1038F00093050E948E0527C0883729F580914602DE
:10390000882341F0109246020E94270A81E08093AA
:10391000910111C080914502882329F0109245023F
:103920000E94F50B0EC082E090E00E94BB028091E5
:103930009703882319F00E942B0303C086E30E949B
:10394000B702109247022296EFE00C94F7291092EA
:103950004A041092030383E080934D028FEF80931B
:103960005F040895EEE4F2E02081211105C0892B67
:10397000B1F080E090E00895B2E0EC3FFB07B8F7CB
:10398000009751F04181DC013C91431305C0428115
:1039900011963C91431751F0E20FF11DE5CF32E053
:1039A000EC3FF30719F010F0ECEFF2E0CF010895CF
:1039B00094E0899FF0011124E05AFB4F80818F3FF2
:1039C00091F08093480281818093490282818093A3
:1039D0004A02838180934B0221E04CE064E088E45A
:1039E00092E00C94720808958DEF92E0BBDF00978F
:1039F00099F020914D02FC013081231768F4E20F09
:103A0000F11D80818093FF0289E78093000381810B
:103A10008093010381E0089580E00895EF92FF9282
:103A20001F93CF93DF931F92CDB7DEB7182F8091EE
:103A3000970386FF18C084E599830E944305E12E11
:103A40009981F92E15E0F70181917F010E9403060B
:103A50001150C9F78091970385FF03C08AEF0E9438
:103A600003060E948E050F90DF91CF911F91FF906A
:103A7000EF90089586E30E94B7028091FF0283359C
:103A800011F48BE901C08BE40E94DE0421E04CE0DC
:103A900065E08DEF92E00E9472080E942B038DEF8B
:103AA00092E0BCCF0895E6DF8091FF02893631F0C5
:103AB00081E08093FC0289E280935F040895CF93B4
:103AC00085E390E00E9468068093300486E390E0EE
:103AD0000E94680680935E04CFEFC0934E04C093AB
:103AE0005004C0935204C0935404C0935604C0932E
:103AF0005804C0935A04C0935C0429DF10924E020C
:103B000081E080932F04C09360048FEF9FEF909328
:103B100033048093320410923504109234041092CE
:103B2000370410923604C093640490933904809350
:103B3000380410923B0410923A0410923D04109203
:103B40003C04C093680490933F0480933E04109219
:103B50004104109240041092430410924204C09316
:103B60006C0490934504809344041092470410928F
:103B700046041092490410924804CF910895ACE095
:103B8000B0E0E5ECFDE10C94E1296C018C010F5FE4
:103B90001F4F45E0BE016F5F7F4FC8010E940806BE
:103BA000843008F0F3C099819130A9F4833061F436
:103BB0006A8185E390E00E9463066B8186E390E072
:103BC0000E9463067CDFF9C1809130040E940306E5
:103BD00080915E049AC0923009F051C0813039F072
:103BE00081E09A81913009F080E0F82E02C0FF2434
:103BF000F39480914E02811104C085EA92E00E9404
:103C000081050EE412E0F8018081882309F4BBC02D
:103C1000F2E00C3F1F0708F0B6C082E00E34180730
:103C200019F080E20E944305F80181810E94030699
:103C3000F80182810E940306FF20E1F08AE30E94DE
:103C4000430593E0F80180819817A0F4943038F090
:103C500090FF05C08CE29C870E9443059C85EE2462
:103C6000E394E90EF801E90FF11D80810E9403063B
:103C70009E2DE8CFF8018081080F111DC4CF93302D
:103C800049F480E090E06EDE8E5492409EEA981BEC
:103C9000892F3BC0903171F50EE414E08FE4E82EDB
:103CA00084E0F82EC12CD12CF80180818F3FA1F047
:103CB000DD2019F080E20E9443058C2D0E9403064E
:103CC0008AE30E944305F80180810E940306F70100
:103CD00080810E940306D3940E5F1F4FC394F2E0CD
:103CE000EF0EF11C88E0C812DFCFD1104CC083EB7F
:103CF00092E047C0913161F480914C0490914D0461
:103D00006DE770E00E94C429862F0E9403063BC025
:103D10009231C9F510E6E12E14E0F12E03E614E02D
:103D2000C12CD12CF70180818F3FF1F0DD2019F0FB
:103D300080E20E9443058C2D0E9403068AE30E94C4
:103D40004305F70180810E940306F80132978081C4
:103D50000E940306F801319780810E940306F80152
:103D600080810E940306D394F4E0EF0EF11CC3940B
:103D70000C5F1F4F84E0C812D5CFD11004C08FEA6A
:103D800092E00E9481050E948E0517C144E0BE01A9
:103D9000695F7F4FC8010E9408064F81493608F4C9
:103DA00077C07A85588569857C3009F04BC020E062
:103DB00030E080E090E0F901E05AFB4F708174132D
:103DC0001CC0A181A51319C0A281A61316C02CE0A6
:103DD00023839C01220F331F280F391FF901EE0F97
:103DE000FF1FEE5CFB4F11821082F901EE0FFF1FE7
:103DF000EC5CFB4F11821082C2C07F3FD9F440833C
:103E0000518362832CE023839C01220F331F280FF0
:103E1000391FF901EE0FFF1FEE5CFB4F118210827C
:103E2000F901EE0FFF1FEC5CFB4F11821082109224
:103E30002F04A5C001962C5F3F4F2031310509F0BA
:103E4000BACFBBC080E090E020E030E0FC01E05A57
:103E5000FB4FA081A41315C0A181A51312C0A2819C
:103E6000A6130FC07383F901EE0FFF1FE20FF31FBC
:103E7000EE0FFF1FEC5CFB4F81E090E091838083AD
:103E80009CC02F5F3F4F049680319105F9F695C095
:103E9000E98180913004E81758F190E0F0E09C014E
:103EA000295F3F4F2E173F071CF13A8120915E0496
:103EB00032131EC02C812F3231F442E06CE0C60177
:103EC0000E94DF087AC03D812C3249F430934B04C4
:103ED00081E090E090934D0480934C046EC0E81B09
:103EE000F90BEE0FF0E0E25BFB4F2083318365C0FE
:103EF00080E090E037DD7C01F80101900020E9F7D7
:103F00003197E01BF10BF695E795BB24B394BE0EF9
:103F1000C7018B0D911D8E5492408F3A91050CF084
:103F200048C0F701B1928F0121E0822F880F8150A4
:103F30002B15D8F441E0B801F601E80FF11DCF01CF
:103F40002C870E9408062C85233058F020FD09C0DC
:103F5000D80111978C91843621F4F80180818093E7
:103F600031042F5F0F5F1F4FE0CFFCEFEF16F2E041
:103F7000FF0618F5F701E20FF11D10821EC022E0C6
:103F80004CE064E0CE0107960E9472088FE08A87B9
:103F900022E04CE064E0CE0107960E94720882E0C5
:103FA0008A8722E04CE064E0CE0107960E94720806
:103FB00004C089EA92E00E9481052C96E9E00C9405
:103FC000FD290F931F93CF93DF9390912F049111AD
:103FD0004FC093E0899F80011124F801EE0FFF1F6D
:103FE000EE5CFB4F94E0899FD0011124A05ABB4F97
:103FF00012969C91977040E850E0491B51099AEF46
:10400000949F9001959F300D1124359527953595F6
:10401000279531832083E801CC0FDD1FCA5CDB4F7D
:10402000288139812F5F3F4F39832883000F111F6B
:104030000C5C1B4FF801408151814115510529F459
:1040400024303105A9F4B4DC11C04130510539F4F4
:10405000AFDC82E090E0F8019183808309C04230B8
:10406000510531F4A5DCF801118210821982188201
:10407000DF91CF911F910F910895A6E0B0E0E3E4A6
:10408000F0E20C94E42920915E042A831B82809143
:104090004B04882341F0833019F487E791E00FC087
:1040A0008DE790E00CC0277030E02A513F4F4DE77C
:1040B000429FC001439F900D112495958795909341
:1040C0004D0480934C040FE414E0F12C7CE2E72EC5
:1040D000F801319790819F3FC1F0809130048F0D9E
:1040E000898380914B04882311F0EC8203C09C8368
:1040F000F80180818D8321E04CE065E0CE010196DE
:104100000E947208CE01019689DCF3940E5F1F4F66
:10411000F8E0FF12DDCF80914B04882341F083301B
:1041200019F410924B0403C0825080934B042696DE
:10413000E6E00C94002A8091FC02882351F09ADC7E
:1041400089E280935F048091FC0281508093FC029D
:104150000895FDCB0895FF920F931F93CF93DF93A4
:10416000FC01F0800181C281D38114818FE58093AD
:104170005F041092FC0280913004811105C080918F
:104180005E04882309F4A9C08091FD028F1104C048
:104190008091FE02801729F0DADBF092FD02009395
:1041A000FE0280914A048F3F09F497C0C093FF023A
:1041B000D093000310930103CC23F1F081111CC0B4
:1041C00080913004181761F0143651F08DEA8C0F8D
:1041D000823010F0CD3739F48FEF80934A047DC0E0
:1041E000C43509F47AC08D2F807F803609F075C000
:1041F000D067D093000357C0F7DB811105C08091D1
:104200004A04882309F469C080910303811107C01F
:10421000E0914A04F0E0E954FD4FE49101C0E82F39
:10422000E33541F4C43531F490914A049E5F909394
:104230004A0404C0EC1711F08ADB4FC0882369F0F0
:1042400080914D028E5F80934D02CEDB81110EC0B6
:1042500080914A048E5F80934A0480914A04E82F3B
:10426000F0E0E854FD4F14911F3F59F48091FF0294
:10427000809303038436B9F4809131048093010361
:1042800012C01093FF0297E79093000390913004BF
:10429000909301038E5F80934A04109203038E3043
:1042A00021F01123D1F0FFDB18C08DEF92E05ADB33
:1042B000DC01009781F02C9130E08CEF92E0821BC2
:1042C000930BA817B90730F4ED01C20FD31F488133
:1042D0004D93F7CF1C923BDBE4CFCDB7DEB7E5E0E3
:1042E0000C94012AFF920F931F93CF93DF938C01BD
:1042F000EC0109900020E9F72197C81BD90BFC01BC
:104300008181823751F487E390E00E94BB020E94D2
:104310002B0381E08093700426C0833711F5FC2EB7
:104320002C988FE70E9444028C2F82500E944402F6
:10433000E801229612E01F1528F489910E94440298
:104340001F5FF9CF2C9A0E9419038AE30E949E02F4
:104350008F7721F081E00E94DE04F7CF0E942B03CB
:1043600002C010927004CDB7DEB7E5E00C94012ACC
:10437000A0E8B0E0EEEBF1E20C94E2298091700449
:10438000882309F454C0813011F5809190039091F5
:104390009103A0919203B0919303209104032817F5
:1043A00009F445C085E30E949E02813129F48AE325
:1043B0000E94B7020E942B03809190039091910379
:1043C000A0919203B09193038093040330C08FE3D4
:1043D0000E949E02D82E87FD27C02C988FEF0E9446
:1043E00044028E010F5F1F4F7801C02E8E2D801B5F
:1043F0008D1538F480E00E944402F70181937F011B
:10440000F5CF2C9A81E080938B01802F8C198D152C
:1044100030F4F80181918F010E944305F6CF0E948C
:104420008E058FEF80938B0181E080937004C058DC
:10443000DF4FE8E0E3C72091F4083091F50821153B
:10444000310521F4209111013091120180910F0169
:1044500090911001009741F48DB79EB740911301E0
:1044600050911401841B950B2817390718F4821BEF
:10447000930B089580E090E0089582E40E94430544
:1044800040E265E08091F4089091F5080E94930560
:104490000E948E0583E50E94430540E265E080911D
:1044A0001101909112010E9493050E948E0585E4EE
:1044B0000E94430540E265E080910F019091100158
:1044C0000E9493050E948E0586E40E944305B3DF97
:1044D00040E265E00E9493050C948E0508951F92BA
:1044E0000F920FB60F9211240BB60F922F933F939A
:1044F0004F935F936F937F938F939F93AF93BF93EC
:10450000EF93FF9380917304882339F081E794E05F
:104510000E9499078093C60005C08091C1008F7DDD
:104520008093C100FF91EF91BF91AF919F918F91C7
:104530007F916F915F914F913F912F910F900BBEA3
:104540000F900FBE0F901F9018951F920F920FB6ED
:104550000F9211240BB60F922F933F934F935F93BB
:104560006F937F938F939F93AF93BF93EF93FF933B
:1045700082B192E0892782B96091C6008091C00023
:10458000887121F484EF94E00E948307FF91EF91FA
:10459000BF91AF919F918F917F916F915F914F915B
:1045A0003F912F910F900BBE0F900FBE0F901F9059
:1045B000189597FF04C022E02093C0009F77909346
:1045C000C5008093C40088E98093C10086E0809391
:1045D000C20008958091C10085FD09C080917304D7
:1045E000882329F08091C10080628093C1000895E2
:1045F000E0918C03F0918D0381E00995EBCF089554
:104600000F931F93CF93DF93EC0110E0212F30E045
:10461000F901EE0FFF1FE20FF31FE457FF4F049164
:10462000F901EE0FFF1FE20FF31FE357FF4F259134
:104630003491002399F0209739F480E20E944305D9
:10464000802F0E94430508C08881801305C0CE01D9
:10465000F901099581E003C01F5FD8CF80E0DF91A9
:10466000CF911F910F910895CF93C0918B018093AB
:104670008B018091F604882309F43DC084EF94E017
:104680000E94990720910503309106038A3011F0AA
:104690008D3011F52115310561F3F901E95FFC4F0A
:1046A000108287E093E0ACDF811111C08DED92E0C4
:1046B0000E94810587E093E00E94760585EC92E0F8
:1046C0000E94810580E090E09BDF0E948E051092A1
:1046D000060310920503CDCF2038310550F6A9010D
:1046E0004F5F5F4F5093060340930503F901E95F65
:1046F000FC4F8083BECFC0938B01CF910895E4E639
:10470000F0E080818B7F80832F9A84B1806B84B9A5
:10471000269880E58CBD8DB581608DBD08958F9202
:104720009F92BF92CF92DF92EF92FF920F931F93CF
:10473000CF93DF931F92CDB7DEB7D82EC62E7A0166
:1047400089012C988FEF99830E944402BD2C8D2CF7
:104750009981992E882D8B198C1538F480E00E9450
:104760004402F40181934F01F5CFE114F10469F0A3
:1047700080E00E944402F70180830115110529F0B1
:1047800080E00E944402F80180832C9A0F90DF9110
:10479000CF911F910F91FF90EF90DF90CF90BF903E
:1047A0009F908F900895CF93882331F010928205C7
:1047B00086E30E94B70207C085E30E949E028D3007
:1047C000A9F780E039C085E30E949E02C82F81309E
:1047D000D1F78BE30E94B7028AE30E94B7021092DE
:1047E0007705109279051092780510927B0510924A
:1047F0007A0526EA36E030937D0520937C051092F9
:104800007E05C0937F051092800580918803809378
:10481000810560E083E00E94A50262E088E00E94DA
:10482000A50284E30E94B70285E30E949E028D30B8
:10483000D9F781E080938205CF9108950F931F935C
:10484000CF93DF93182F062F219852981092880348
:1048500010928903E898249A2C9A8EE190E00E94A5
:10486000D9042C988EE190E00E94D9042C9A8DE214
:1048700090E00E94D90480E30E94B70284E690E0B1
:104880000E94D904113031F0123009F06DC0C5EF2B
:10489000D2E022C0C2E4D3E0FE018491813420F052
:1048A000013009F049C01DC0FE0131966491FE013E
:1048B00084910E94A5022296F4E0CA30DF0761F7D6
:1048C000EFCF31966491FE0184910E94A502229659
:1048D000F3E0CD3BDF0721F3FE018491813488F3BF
:1048E000DFCF60E087E10E94A50267E083E00E94DD
:1048F000A50264E584E0113029F40E94A50266E770
:1049000085E010C00E94A5026DE385E00E94A5022B
:1049100060E585E10E94A5026BE580E10E94A502A9
:1049200068EF81E10E94A50262E082E00E94A50298
:104930006EE280E00E94A502109388030093890331
:1049400083E30E94B7028CE0E7E7F5E0DF011D9208
:104950008A95E9F786E0EEEEF8E0DF011D928A9590
:10496000E9F784E00E94DE04DF91CF911F910F915F
:104970000895CF92DF92FF920F931F93CF93DF930F
:104980001F92CDB7DEB7182F062F2C988FE799838B
:104990000E944402F12EC12E9981D92E8C2D8F199F
:1049A000801730F4F60181916F010E944402F6CF26
:1049B0002C9A81E00F90DF91CF911F910F91FF9082
:1049C000DF90CF9008958DE30C94B7020895A4E092
:1049D000B0E0ECEEF4E2FBC490918903923009F070
:1049E00009C180918803882309F404C1809182055C
:1049F000813049F030F0823059F0833009F472C0D0
:104A0000A2C081E0F6C04A9B9EC0909382059BC0E5
:104A1000199B99C020E030E040E050E063E08091D5
:104A20007C0590917D057BDE2091810580917C0540
:104A300090917D05213071F4BE016F5F7F4F35D2BB
:104A40008111D3C089818093770510D3AC0160E0D8
:104A500081E00EC040E0BE016F5F7F4FADD281119B
:104A6000C4C089818093770501D3AC0160E080E008
:104A700013D39093790580937805609178057091B0
:104A80007905693482E0780708F0AFC086E06F3FAF
:104A9000710509F050F40E94A50260E088E00E94D0
:104AA000A50281E080937E0502C00E94A50280914C
:104AB0007C0590917D05039690937D0580937C0500
:104AC0008091780590917905039790937B05809369
:104AD0007A0510927F0583E08093820567E00E944B
:104AE000A50231C0199B2FC080917A0590917B055A
:104AF0008F3F910509F058F480917E05811107C020
:104B000060E088E00E94A50281E080937E0520E0BD
:104B100030E040E050E06FE180917C0590917D05B0
:104B2000FEDD80917A0590917B054F9790937B05F0
:104B300080937A0580917C0590917D054F969093A6
:104B40007D0580937C054A9953C08091820582300F
:104B500008F44EC01C821B829E012D5F3F4FAE01A8
:104B60004C5F5F4F60917A0580917C0590917D0547
:104B7000D6DD81E08093800580918105813051F4FC
:104B80008091770573D2AC0163E875E086EA96E020
:104B9000EDD209C08091770569D2AC0163E875E078
:104BA00086EA96E056D3892B01F582E60E944305FA
:104BB00010E0809183055AD2212F30E02817390761
:104BC00040F4F901ED57FA4F80810E9403061F5F00
:104BD000F0CF8091970385FF06C08B810E9403066A
:104BE0008C810E9403060E948E051092820502C0ED
:104BF00080E0D9DD2496E3E006C4A0E0B0E0E2E086
:104C0000F6E2E0C37C018B01C42EFC0180812ED230
:104C1000EC019C01215031092232314008F0C9C019
:104C200080918903823019F4D090880301C0D12C7F
:104C300061E08C2D03DE81E0AE01B701C81206C031
:104C4000C8013ED2AE0161E081E005C0C8015ED27C
:104C5000AE0161E080E020D29093EF088093EE08EF
:104C6000B2DE807711F086E361C08BE30E94B70269
:104C70001093F1080093F0081092F3086091EE0889
:104C80007091EF086F3F710509F058F486E00E94BB
:104C9000A50260E088E00E94A50281E08093F2080E
:104CA0000AC0772786E00E94A50262E088E00E94A1
:104CB000A5021092F208C091EE08D091EF08C1341D
:104CC000D10510F0C0E4D0E06C2F8091F0089091F5
:104CD000F1084FDE8091F0089091F1088C0F9D1F34
:104CE0009093F1088093F0082091EE083091EF083E
:104CF0002C1B3D0B3093EF082093EE08232B19F467
:104D000081E08093F30885E30E94B70211E003C0BD
:104D1000203C3105C0F18091F30881113FC0199901
:104D20000AC051DE80778037B1F78BE30E94B7026B
:104D300082E090E043C0C091EE08D091EF08C1320C
:104D4000D10510F0C0E2D0E06C2F8091F008909176
:104D5000F1080FDE2091F0083091F1082C0F3D1F73
:104D60003093F1082093F0082091EE083091EF087D
:104D70002C1B3D0B3093EF082093EE0821153105D5
:104D800039F61093F3088091F2088111C4CF60E0E6
:104D900088E00E94A5021093F208BDCF85E30E942F
:104DA0009E028130D9F7DD2039F062E08D2D46DD9D
:104DB00003C081E090E002C080E090E0CDB7DEB7B4
:104DC000E8E01CC31F93CF93DF93EC018981823706
:104DD00089F48A818823C9F1833719F462E081E07C
:104DE00004C0843721F462E082E028DD2EC060E058
:104DF00080E0FBCF833749F510E0612F70E09B0125
:104E0000220F331FC90103968C0F9D1FFC014081A7
:104E1000442369F0FE01E20FF31F2481222339F0BD
:104E20006D577A4F41E00E9408061F5FE6CF8A81E6
:104E3000833711F441E003C0843701F542E066EAAC
:104E400076E083E895E0D9DE19C08091890382304D
:104E500079F480918803813029F0823031F489EE31
:104E600092E008C08FEE92E005C085EE92E002C0AD
:104E700081EE92E00E9481050E948E05DF91CF9124
:104E80001F910895DC01EC91AE2FA295AF70B0E0B8
:104E9000AB5DBE4F8C91DB018C93EF70F0E0EB5D6E
:104EA000FE4F808111968C930895CF93DF93EC0190
:104EB000A881E981CA2FC295CF70D0E0CB5EDE4FCA
:104EC0004881AF70B0E0AB5EBE4F2C91AE2FA29583
:104ED000AF70B0E0AB5EBE4F8C91EF70F0E0EB5E78
:104EE000FE4F908151E02F3F09F050E031E04F3FFD
:104EF00009F030E0532B31E08F3F09F030E0352BE3
:104F0000A9F49F3F99F0D0E44D9FA0011124E0E166
:104F10002E9F90011124242B292BF4E08F9FC00198
:104F20001124282BEB01288380E001C081E0DF9170
:104F3000CF9108951F93CF93DF93FB0141110FC0D1
:104F4000EC01A981CA2FCF70D0E0CB58DE4F188179
:104F5000A295AF70B0E0AB58BE4F5C9101C054E178
:104F6000EC01A881CA2FCF70D0E0CB58DE4F28814A
:104F7000A295AF70B0E0AB58BE4F6C91D4E06D9F7E
:104F8000B0011124922F92959F70962B9083952FAC
:104F90009695969580E1289F90011124922B9183FC
:104FA000411106C0C0E45C9FC0011124812B8283A3
:104FB000DF91CF911F910895DC0111969C9111977B
:104FC000411118C012968C911297E82FEF73F0E000
:104FD000EB5CFE4F5081E92FEF7024E0E29FF0017F
:104FE00011248295869586958370E82BEB5CFE4FA5
:104FF000808102C080E050E02C91E22FE37030E12C
:10500000E39FF001112492959F70E92BEB5CFE4F1A
:10501000908126952695E22FF0E0EB5CFE4F2081F3
:10502000E1E09F3F09F0E0E031E02F3F09F030E0A0
:10503000E32B31E05F3F09F030E03E2B99F48F3FE6
:1050400089F0E0E12E9F90011124292BFB012083A0
:1050500041110AC0F0E18F9FC0011124852BFB0193
:10506000818302C081E0089580E00895482F50E0D8
:105070008A3150F09A012A51310984E035952795FB
:105080008A95E1F72D5F01C022E0CA010196820FE7
:10509000911D820F911D0895882331F0CA0161117D
:1050A0000196880F991F0895CA01880F991F840FD0
:1050B000951F96958795611101C040FD0196089551
:1050C000A0E0B0E0E5E6F8E27BC16A018C0186E988
:1050D000F80181938F01EB017F015B01A40EB51EE6
:1050E000CA15DB0541F0B701CE01CCDE2196F2E016
:1050F000EF0EF11CF5CFF601EE0FFF1FE00FF11FD1
:1051000085E58083CDB7DEB7EAE076C1A0E0B0E008
:10511000EBE8F8E256C1EC017B018A0175E5B72E98
:1051200001151105F9F00130110529F441E0BE0126
:10513000C70100DF0CC0CE0103966C0140E0BE0148
:10514000C7010230110531F4F5DEBB82E60100E053
:1051500010E0E6CFEFDEE60192E0E90EF11C02502E
:105160001109DECFCDB7DEB7E9E047C1A0E0B0E07E
:10517000EBEBF8E21FC14C01EB016A01A12CB12C51
:1051800000E010E0612C712CE12CF12CA2E14A2E00
:10519000512CC114D10409F450C0BE01C40185DEF4
:1051A00081114EC082E0C816D10499F08AE0E81659
:1051B000F10458F0C7010A97B201E6D031E020E0CF
:1051C000892B09F030E0032F122FA114B10499F0BC
:1051D00005C0A114B10491F001E010E06094709456
:1051E0007724888190E06816790669F5A12CB12CA6
:1051F000612C712C17C00115110581F093012095C8
:105200003095232F3327888190E028173907D9F468
:10521000AA24A394B12C00E010E004C06881C3016B
:105220009DD03C0181E0C81AD1088FEFE81AF80A36
:1052300082E0880E911C2196ACCF80E090E005C002
:1052400081E090E002C082E090E0CDB7DEB7E0E11F
:10525000CDC0A0E0B0E0EEE2F9E2AEC07C01EB012F
:105260003A0100E010E0C12CD12C92E1892E912C62
:105270006114710409F46CC081E068167104D1F402
:1052800041E0BE01C70198DE882319F081E090E07B
:1052900061C056018FEFA81AB80AC8018095909591
:1052A0009927288130E08217930709F44DC082E0E6
:1052B00090E050C040E0BE01C7017EDE8111E6CF24
:1052C00082E0681A7108560182E0A80EB11C6114D0
:1052D000710451F08BE0A816B104C8F0C6010A971A
:1052E000B40152D0892B99F4009510959801332779
:1052F000898190E028173907D1F6012F112788817D
:1053000090E00817190799F600E010E018C06881CE
:1053100081E06816710471F4C80120D08C019C01F1
:1053200020953095232F3327898190E0281739075E
:1053300031F0BDCFC80112D0698110D08C0183E05B
:10534000E80EF11C229602C0612C712C650190CFF1
:1053500080E090E0CDB7DEB7EEE04AC078E0AC0187
:1053600044275078452F5527262F207830E0880F86
:10537000991F4217530721F025E682272DE3922734
:10538000660F715061F70895AA1BBB1B51E107C05E
:10539000AA1FBB1FA617B70710F0A61BB70B881FC5
:1053A000991F5A95A9F780959095BC01CD01089554
:1053B0002F923F924F925F926F927F928F929F9225
:1053C000AF92BF92CF92DF92EF92FF920F931F9313
:1053D000CF93DF93CDB7DEB7CA1BDB0B0FB6F894C4
:1053E000DEBF0FBECDBF09942A88398848885F8404
:1053F0006E847D848C849B84AA84B984C884DF8075
:10540000EE80FD800C811B81AA81B981CE0FD11D58
:105410000FB6F894DEBF0FBECDBFED010895CF9358
:10542000DF938230910510F482E090E0E091F6087D
:10543000F091F70820E030E0A0E0B0E0309739F1DB
:105440004081518148175907B8F04817590771F43E
:1054500082819381109729F013969C938E931297D3
:105460002CC09093F7088093F60827C021153105CA
:1054700031F04217530718F0A901DB0101C0EF0119
:105480009A01BD01DF010280F381E02DD7CF211504
:105490003105F9F0281B390B2430310580F48A815D
:1054A0009B816115710521F0FB019383828304C008
:1054B0009093F7088093F608FE01329644C0FE01EF
:1054C000E20FF31F8193919322503109398328838E
:1054D0003AC02091F4083091F508232B41F4209133
:1054E0001101309112013093F5082093F4082091B6
:1054F0000F01309110012115310541F42DB73EB750
:105500004091130150911401241B350BE091F408D4
:10551000F091F508E217F307A0F42E1B3F0B2817B4
:10552000390778F0AC014E5F5F4F2417350748F01C
:105530004E0F5F1F5093F5084093F40881939193A9
:1055400002C0E0E0F0E0CF01DF91CF910895CF936A
:10555000DF93009709F487C0FC013297138212820F
:10556000C091F608D091F708209781F4208131810D
:10557000280F391F8091F4089091F508821793073E
:1055800079F5F093F508E093F4086DC0DE0120E0B2
:1055900030E0AE17BF0750F412964D915C9113970F
:1055A0009D014115510509F1DA01F3CFB383A283BF
:1055B00040815181840F951F8A179B0771F48D914B
:1055C0009C911197840F951F029691838083129668
:1055D0008D919C911397938382832115310529F432
:1055E000F093F708E093F6083EC0D9011396FC93B8
:1055F000EE9312974D915D91A40FB51FEA17FB072B
:1056000079F480819181840F951F0296D9011196BA
:105610009C938E938281938113969C938E93129781
:10562000E0E0F0E08A819B81009719F0FE01EC0137
:10563000F9CFCE01029628813981820F931F2091E4
:10564000F4083091F5082817390769F4309729F4E0
:105650001092F7081092F60802C013821282D093BB
:10566000F508C093F408DF91CF910895F999FECF22
:1056700092BD81BDF89A992780B50895262FF99992
:10568000FECF1FBA92BD81BD20BD0FB6F894FA9A25
:0C569000F99A0FBE01960895F894FFCF20
:10569C000210B07106000401A4016C02D8040600CB
:1056AC0000F8082000FFFFFFFFFF0302FFFF0100CF
:1056BC00FFFFFFFFFFAAA9A6A59A9996956A6966AE
:1056CC00655A595655FFFFFFFFFFFFFFFFFFFFFF16
:1056DC0003FF0102FFFFFFFF07FFFF00FFFF0506AF
:1056EC00FF04FFFFFFFFFFFF0BFF090AFFFF0FFF88
:1056FC00FF08FFFFFFFF0D0EFF0CFFFFFFFFFFFF7B
:10570C00FFFFFFFFFF160D0E0B1C191A132C25267D
:08571C0023343132293231003F
:00000001FF
