:1000000028C2000044C2000042C200000C94BB148D
:100010003EC200003CC200003AC2000038C20000EC
:1000200036C2000034C2000032C2000030C20000FC
:100030002EC200000C9454142AC2000028C20000F2
:1000400058C4000024C2000022C2000020C20000E8
:100050000C945B260C9423261AC2000018C20000E0
:1000600016C2000014C2000012C2000010C200003C
:100070000C94AD270CC200000AC2000008C20000A8
:1000800006C2000004C2000002C20000DE27E5270D
:100090003B2832282828EB2743286DF12542A70763
:1000A00062562C43C10346A809690D1C41010C5A34
:1000B000230E47AC094DE40959411E5217075475E8
:1000C00021560F0857570758B10F65CF07662825E7
:1000D0002AD528258B286C950774DD04754A177876
:1000E00088037A561B000000202F2000203D2000AE
:1000F000072E050DD391FF080500000C0021656A4D
:100100002D3B1322F862073F181D1CC700B0876BF8
:10011000F8B611EA2A001F41000D2E2D07D3913D9C
:1001200004320000060021656A55E43023B9000757
:100130000018146C070090876BF85611E92A001F0D
:10014000410000030F1E2627000000030F1E253666
:10015000386700030F256740605000030F27518860
:10016000838100030F2750C8C3C20027000000008E
:1001700000000067000000000000005000000000C8
:100180000000008100000000000000C2000000002C
:100190000000504C4C310D0A00504C4C300D0A0000
:1001A0005620312E36375F6E6F63726564697473E3
:1001B0002043534D383638005620312E36375F6E87
:1001C0006F637265646974732043534D3433330035
:1001D000202F2000203D20004552523A4343410D3C
:1001E0000A000B08105B11F81547191D1A1C1BC7D4
:1001F0001C001DB221B623EA0007022E030D04E9FC
:1002000005CA070C0B060D210E650F6A10C8119365
:10021000120315341733181819161B4321562500DD
:10022000261129592C812D353EC34C454E4552523D
:100230000D0A004C454E4552520D0A000007024679
:1002400004C605260B0610C8119312031322153499
:10025000173F182819161B432156250026110D217A
:100260000E650F6A070C160720F81E871F6B2959A9
:100270002C812D353EC3FF00424F56460D0A00002B
:1002800001022E030104AA050F06FF070008000B58
:10029000060D210E740FAD104B11F81216137215C6
:1002A00041181819161B0323E9242A2500261F3E8E
:1002B000500001022E030104AA050F06FF070008E3
:1002C000000B060D210E660F6610CA11931206135D
:1002D000521535181819161B0323E9242A25002660
:1002E0001F3E500001022E0301045505F006FF07D2
:1002F0000008000B060D210E660F9910591183128C
:100300001E13521535181819161B0323E9242A2524
:1003100000261F3E500D2E2D07D3913D04320000C4
:10032000060010B07155E43023B900070018146CB2
:10033000070090876BF85611E92A001F41000D2E27
:100340002D07D3913D04320000060010ABA5550ADD
:100350003023B900070018146C070090876BF8561B
:1003600011E92A001F41004E2F4100454F420D0A5E
:10037000004E2F41004E2F410000535300547D7D0D
:10038000FFFF4B4B7E7E0020697320756E6B6E6F96
:10039000776E2920557365206F6E65206F66003F6C
:1003A0002028004F4646004F464600544D4F4445D6
:1003B00000534D4F4445000454053D17000006020C
:1003C000000B080C000D210E6B0FD0105C110412F5
:1003D00006132214F80A00154421B6221018181921
:1003E0002E1ABF1B431C091DB523EA242A2500260B
:1003F0001F29592C812D352E0907040800090006F4
:10040000FF3EC2FF047605961700000602000B08A7
:100410000C000D210E650F6A106A114A1206132294
:1004200014F80A00154721B622101818192E1A6D53
:100430001B041C091DB223EA242A2500261F295962
:100440002C812D352E0907040800090006FF3EC245
:10045000FF0011241FBECFEFD0E4DEBFCDBF12E0FE
:10046000A0E0B1E0E0EAF1E600E00BBF02C00790D7
:100470000D92A838B107D9F721E1A8E8B2E001C090
:100480001D92A23CB207E1F703D00C94CE30B8CD58
:1004900088E10FB6F89480936000109260000FBE60
:1004A0003E9A469A179A169A0E94F328A5D589EF84
:1004B00087BD84E085BD82E084BD80936E0010928C
:1004C00080008AE08093810090E080E80FB6F89485
:1004D00080936100909361000FBE84B7877F84BFD3
:1004E0002FE088E190E00FB6F894A8958093600023
:1004F0000FBE2093600089E190E80E948F260E9441
:100500003C2787B18C7F87B988B18C7F88B90E94DE
:1005100015210E94900F8CEE96E290931B0780931A
:100520001A0781E080938B020E946A1680918B02E9
:10053000886080938B02469878940E94B0260E942F
:10054000B81151D20E946E250E94EC17EDD70E947F
:10055000AE0D0E94C1280E945B2A0E94221AEDCF94
:100560008EBD0DB407FEFDCF8EB50895A1E0B0E0BD
:10057000ECEBF2E00C945E2F482F8A3008F048E054
:1005800088E0489F70011124F701EE5BFE4F7F0168
:100590008BE290E0F70164918C010F5F1F4F49835C
:1005A00028D4FFEFEF1AFF0A49810333110511F038
:1005B000C801F0CF4550453010F461E101C067E15A
:1005C00084E290E016D42196E6E00C947A2FCF9343
:1005D000DF9382E090E0FC01E95EFE4F6491EC0164
:1005E000219607D4CB32D10511F0CE01F4CF87E3A9
:1005F00090E0FC01E754FF4F6491EC012196F9D3A0
:10060000C036D10511F0CE01F4CF079918C060E1D2
:100610008FE090E0EED360EB80E190E0EAD361E719
:1006200081E190E0E6D360E184E490E0E2D360EB26
:1006300085E490E0DED361E786E490E0DAD388E0F9
:1006400095DFDF91CF9108952C98806C89DF80E051
:1006500087DF2C9A0895A1E0B0E0E1E3F3E00C9489
:10066000622F2C98806469837BDF6981862F78DF15
:100670002C9A2196E2E00C947E2F2C9871DF2C9A14
:100680000895EF92FF920F931F93CF93DF93EC01A6
:1006900010929302EA98249A2C9A8EE190E00FD25D
:1006A0002C988EE190E00BD22C9A8DE290E007D24C
:1006B00080E3E3DF84E690E002D22C9880E450DF10
:1006C0007E0189E2E80EF11C8E010F5F1F4FCE0103
:1006D00095D346DF0E151F0511F0E801F5CF2C9AD2
:1006E0002C988EE73DDF8BE290E0EC01219686D3DB
:1006F00037DFC333D10511F0CE01F7CF2C9A83E356
:10070000BCDF81E0E1D1CDB7DEB7E6E00C947A2F13
:10071000A1E0B0E0EEE8F3E00C94622F22E0298340
:1007200041E0BE016F5F7F4F019608D389811EDFD4
:1007300082E090E0A6DF2196E2E00C947E2FCF933A
:10074000EA9886E39ADFCFEF85E397DFC1508077A1
:10075000803229F08AE090E0B2D1C111F5CFCF917B
:100760000895CF93CFEF84E388DFC1508077803145
:1007700029F08AE090E0A3D1C111F5CFEA9ACF9198
:100780000895A2E0B0E0E7ECF3E00C94602F8C0158
:10079000FC0181818737E9F441E0BE016F5F7F4F43
:1007A000C8010296CBD2892BA1F041E0BE016E5F59
:1007B0007F4FC8010496C2D2892B59F06A81898182
:1007C0004ADF83E35ADFCDDF8981B3D28A81B1D298
:1007D0002CC041E0BE016E5F7F4FC8010196AED2D2
:1007E000892B21F18A81893969F410E0812F2CDF6E
:1007F000A0D2812F8770873009F426D21F5F103373
:10080000A9F714C021DF182F83E4CED18A8191D2B9
:100810008CEE90E00CD2812F8CD288EE90E007D243
:1008200040E262E0812F90E014D20ED22296E4E002
:100830000C947C2F86E321DF10921C07109291020A
:1008400010929302089582E090E01BDF81E0809394
:100850001C07109291021092930208950F931F9318
:10086000CF93DF93082F10E0C62FD0E085E3ECDEB6
:10087000801731F0CE0123D11150C1F781E001C0C2
:1008800080E0DF91CF911F910F91089585E2DCDE2A
:100890008F3311F080E0089586E3EFDE80918802C7
:1008A000811104C089E991E0C2D102C08DE3E5DE87
:1008B00083E3E3DE64E081E0D1DF85E2C5DE8F33F0
:1008C00049F780918802811103C082E991E0AFD19C
:1008D00081E0089585E3B8DE8D3051F485E2B4DE21
:1008E0008F3331F4D3DF84E3C8DE80778031D9F7EA
:1008F00008951F920F920FB60F9211240BB60F920C
:100900008F939F93AF93BF93EF93FF9380911E07B5
:1009100090911F07A0912007B09121070196A11D7A
:10092000B11D80931E0790931F07A0932007B093DB
:10093000210780911D078F5F80931D07E6EFF9E087
:1009400080819181181619061CF401979183808388
:1009500036968AE0EE30F80799F78091100A909168
:10096000110A009729F001979093110A8093100AB9
:100970008091230A8F3F19F081508093230AFF91C1
:10098000EF91BF91AF919F918F910F900BBE0F9000
:100990000FBE0F901F9018952FB7F89440911E0727
:1009A00050911F076091200770912107FC0140833F
:1009B0005183628373832FBF0895A4E0B0E0E3EE18
:1009C000F4E00C94622FCE010196E6DF8C81B1D168
:1009D0008B81AFD18A81ADD18981ABD135D12496BC
:1009E000E2E00C947E2F1F93CF93DF9380911E073C
:1009F00090911F07A0912007B091210720918A02B2
:100A0000281709F458C080911E0790911F07A091E4
:100A10002007B091210780938A02A895C6EFD9E0FC
:100A200010E028813981232B19F4812F0E9497230C
:100A30001F5F26961430A9F78091100A9091110A31
:100A4000892B11F40E94F3238091230A811102C0A3
:100A50000E94512480913409882339F08150809379
:100A60003409811102C00E948A1880911D078D37B8
:100A700010F110921D078091000181FF04C088B120
:100A800090E4892788B984E893E0909323078093C2
:100A90002207809189028F5F809389028C3359F4F9
:100AA000109289028091F5098F5F8093F5098C334C
:100AB00010F01092F509DF91CF911F910895880FE2
:100AC000991F0197F1F7089520ED37E0815020F04C
:100AD000F9013197F1F7FACF0895CF93DF93DC0155
:100AE00016968C911697843509F05BC0CD01069659
:100AF000CD91DC9111974DE0242F30E02C173D076C
:100B000040F0AE014F5051092417350709F049C094
:100B100008C0FC01E20FF31F50815B3391F34F5F7C
:100B2000EBCFFE013E97E80FF91F20812435C9F570
:100B300017963C9117972181321333C018963C9138
:100B40001897228132132DC019963C911997238151
:100B5000321327C01A963C911A972481321321C070
:100B60006197C80FD91F8581888386818983818594
:100B70008A8382858B8383858C8384858D83858519
:100B80008E838D919C9111970A9711969C938E93C9
:100B900014968D919C9115970A9715969C938E9318
:100BA0001497DF91CF910895CF93C82F80918B0236
:100BB00080FF13C02091390A30913A0A2E3F81E01C
:100BC000380738F02115324040F4CD3011F0CA30EA
:100BD00021F46C2F85E39AE034D280913F09882379
:100BE000C9F080918B0283FF15C0CA3099F0CD30D7
:100BF00011F46BE301C06C2F8CE297E022D2CD3070
:100C000019F48CE297E069DF83E08093340982E095
:100C100080933A09CF910895CF93DF93EC018991A6
:100C2000882311F0C1DFFBCFDF91CF910895CF93DF
:100C3000DF93EC01FE018491882319F0B5DF219642
:100C4000F9CFDF91CF9108958DE0AEDF8AE0ACCF90
:100C50000895A6E0B0E0EFE2F6E00C94602F062FD6
:100C60001E8215E02AE030E01150E1E0F0E0EC0FE8
:100C7000FD1FE10FF11DB9010E94382F805D8083B7
:100C8000CB010150009769F01111EECF0AC011237A
:100C900059F01150E1E0F0E0EC0FFD1FE10FF11D04
:100CA0004083015007FFF3CF81E090E08C0F9D1F40
:100CB000810F911DB1DF2696E4E00C947C2FA5E016
:100CC000B0E0E5E6F6E00C94622F1D8224E0382FB8
:100CD0003F702150E22FF0E03A3010F4305D01C057
:100CE000395CA1E0B0E0AC0FBD1FEA0FFB1F308301
:100CF00034E0969587953A95E1F76150009739F77A
:100D0000615067FD0BC0222349F02150E1E0F0E083
:100D1000EC0FFD1FE20FF11D4083F2CF81E090E068
:100D20008C0F9D1F820F911D77DF2596E2E00C94BA
:100D30007E2F40E362E090E0C2CF0895DC01FB012A
:100D400030E090E08D918823A9F0813608F0805240
:100D500020ED280F2A3030F02FEB280F263030F40A
:100D600029EC280F292B332379F006C0803251F368
:100D70008A3341F3CF0105C0CF0101962083415052
:100D800041F4861B970B0895922F9295907F31E046
:100D9000D9CFFC01D5CF20E030E05AE0FC014191F1
:100DA000CF01442379F0E0EDE40FEA30B8F7F90120
:100DB0005E9F90015F9F300D112420533109240F55
:100DC000311DECCFFB01318320830895982F92953C
:100DD0009F709A3010F4905D01C0995CFB01908384
:100DE0008F708A3010F4805D01C0895CFB018183C3
:100DF00008950E94C030F999FECF08950C94B83040
:100E000008951F93CF93DF93162F11501F3F59F072
:100E1000EC012196F3DF8DDF112311F08AE3C4DEAC
:100E20001150CE01F3CFDF91CF911F910895A2E031
:100E3000B0E0EDE1F7E00C945F2FFC0121812D344F
:100E400021F466E08AEF9FE005C0203529F460E1D7
:100E50008AED9FE0D6DF26C01A82198242E0BE01E9
:100E60006F5F7F4F01966ADF098110E0823021F4C5
:100E7000102F00278A81082BC801C0DFF82E82E5D9
:100E800093DE40E364E0C8011ADF84ED91E0CFDE39
:100E90008F2D4FDF80ED91E0CADE40E262E08F2DC2
:100EA00090E0D7DED1DE2296E5E00C947B2FA6E021
:100EB000B0E0EDE5F7E00C945C2F6C0143E0BE017F
:100EC0006F5F7F4F01963ADF823058F1E980F12C55
:100ED000823021F0FE2CEE242A81E22A8C01112797
:100EE000FE01E00FF11F6081C70183DF000F111FBA
:100EF0000F5F1F4F0C0D1D1DF8018081882389F0A5
:100F000041E0BE016F5F7F4FC80118DF892B49F0B8
:100F10008FEFE81AF80A6981C7016BDF0E5F1F4F78
:100F2000EBCF2696E8E00C94782F41E060E071E08A
:100F3000019604DF8091000180FF02C0469A01C043
:100F400046986091000184E390E053CF0895A1E0BA
:100F5000B0E0EDEAF7E00C94622F1982009731F0CF
:100F600041E0BE016F5F7F4F0196E8DE89818F3FD0
:100F700009F4FFCF882321F061E083E390E039DFBB
:100F800010926E00F89428E088E190E00FB6F89493
:100F9000A895809360000FBE20936000FFCFCF9391
:100FA000DF93EC0161E080E090E023DF63E481E027
:100FB00090E01FDF0CDB60E080E690E01ADF60E08D
:100FC00081E690E016DF60E083E390E012DF62E00C
:100FD00084E390E00EDF60E080E690E00ADF60E00E
:100FE00081E690E006DF8981883719F080E090E0A3
:100FF000AEDFDF91CF91089580E090E0FFDE813099
:1010000029F481E090E0FADE833419F080E090E08A
:10101000C6DF84E390E0F2DE809300010895079933
:1010200003C088EB91E002C080EA91E000DE0CCEC4
:101030000895FC011582148211821082138212829B
:101040000895FC014FB7F89484819581811522E0C1
:10105000920798F401969583848320813181C90198
:10106000019691838083DF01A20FB31F16966C93C4
:101070008115924011F4118210824FBF0895FC0136
:101080004FB7F89484819581009719F44FBF80E0A1
:101090000895019795838483828193819C012F5FBA
:1010A0003F4F33832283DF01A80FB91F16968C911F
:1010B0002115324011F4138212824FBF0895FA01B4
:1010C0003081882369F0E1E0F0E0022E01C0EE0FEC
:1010D0000A94EAF7DB01A30FB11D9C919E2B9C9310
:1010E000222319F08FEF820F0BC081E0830F8C3029
:1010F00010F4FA018083FB01E80FF11D108287E0F4
:1011000090E00895CF93C82F299A882319F08091F1
:101110008E0202C08091900220E1829FC0011124C2
:10112000CEDC2998CC2319F080918D0202C08091E9
:101130008F0220E1829FC0011124C1DCCF9108956C
:10114000A1E0B0E0E6EAF8E00C94522F6C01162F13
:10115000842E622E469A80919302882341F0109249
:10116000930285E892E0FDD6FF24F39401C0F12CB0
:1011700080911C07811101C066DBE1DAA12EB12C40
:10118000912C712C512C852D992787FD90958A15CE
:101190009B0524F480E0B6DF5394F5CF112311F0C2
:1011A00081E0B0DF20E0422E552447FC50944814E3
:1011B00059042CF097E0392E4C0C5D1C1BC087E0C5
:1011C000282E312C4C0C5D1C81E090E0022C01C0DB
:1011D000880F0A94EAF7F20190818923298392DF2C
:1011E000F1E02F1A310829818FEF2816380661F7B0
:1011F0002F5FD9CF832D992787FD909568167906A3
:101200006CF481E090E0032C01C0880F0A94EAF7A7
:10121000F2019081892376DF3A94ECCF8E2D54DC55
:10122000015009F0AFCF80912507882311F099DA9A
:1012300002C086E322DAF110FDD246982196E2E15F
:101240000C946E2FADE0B0E0E8E2F9E00C94552F7D
:101250007C01162F842F022F6701C60ED11C462F4A
:10126000B7019AD6D6018C931F5F1D8619825E2C1A
:10127000670127E066246394712C8C2D85198117F2
:1012800088F547E0A42EB12C4701880E911CF3018C
:101290000A2C01C0EE0F0A94EAF7D4018C91AE013A
:1012A000435F5F4FBE016F5F7F4F8E2308DF282FA4
:1012B000B1E0AB1AB10858F7D6018D916D01082E37
:1012C00082958025082E8695869580258F5F869548
:1012D0008170AE01435F5F4FBE016F5F7F4FEFDEF6
:1012E000282FCBCF222311F0215004C08D858F5F92
:1012F0008D8727E089E180938F028093900285E2B9
:1013000080938D0280938E023AE0E32E4D856CE04F
:10131000CE01019615DF2D96EFE00C94712FADE014
:10132000B0E0E5E9F9E00C94612F162F242F4BE093
:10133000BE016F5F7F4F01962D8700DD2D85412F08
:10134000682FCE0101967EDF2D96E3E00C947D2F71
:1013500043E066E0E4CF0895EF920F93CF93DF93DD
:10136000CDB7DEB760970FB6F894DEBF0FBECDBF26
:1013700040E1BE016F5F7F4F0196E0DC69814A81E9
:101380000B818C81809390028D8180938F028E815E
:1013900080938E028F8180938D02E02EE2947FE015
:1013A000E7220F70242F2F7042954F70CE010896C0
:1013B000C7DE60960FB6F894DEBF0FBECDBFDF91DB
:1013C000CF910F91EF900895A9E1B0E0EAEEF9E036
:1013D0000C945A2F4BE0BE016F5F7F4F0196AEDC3D
:1013E000182F893009F05AC099E190938F02909399
:1013F000900290938E0282E380938D0269E0CE0189
:101400000196D4D5E1E0F0E0EC0FFD1FE10FF11DF6
:101410008083198E1D86CE0101967C016E019BE0B2
:10142000C90ED11C27E0AA24A394B12CEC14FD040E
:1014300029F100E010E0F501002E01C0EE0F0A9442
:10144000EAF7D7018C91AE01475E5F4FBE01635F43
:101450007F4F8E2334DE282F0F5F1F4F083011057A
:1014600051F7AE01475E5F4FBE01635F7F4F81E082
:1014700026DE282FBFEFEB1AFB0AD8CF222311F06C
:10148000215004C0898D8F5F898F27E0EAE0EE2E1E
:1014900003E0498D6CE0CE010D9652DE6996EAE0DC
:1014A0000C94762FCF93DF93EA98249A2C9A8EE1AE
:1014B00090E005DB2C988EE190E001DB2C9A8DE228
:1014C00090E0FDDA80E3D9D884E690E0F8DAC8EF5E
:1014D000D1E0FE0131966491FE018491BCD8229640
:1014E000F2E0CA32DF07A9F780919202811105C0AC
:1014F00083E3C3D884E0E8DA0EC0C2EED1E0FE0197
:1015000031966491FE018491A6D82296F1E0C83FFD
:10151000DF07A9F7EDCF84E3B0D885E395D88D3008
:10152000D1F7DF91CF910895A2E3B0E0EAE9FAE0C4
:101530000C94602F80919102882309F48EC01A9B2D
:101540007DC08FE381D88F778983823348F08AE327
:1015500094D886E392D88DE390D884E38ED87DC06A
:101560002C988FEF0E94B00210E08981181760F468
:1015700080E00E94B002E2E0F0E0EC0FFD1FE10F1E
:10158000F11D80831F5FF1CF80E00E94B002082F21
:1015900080E00E94B0022C9A84E36FD885E354D88F
:1015A0008D30D1F72A8196E792279A8392E089813C
:1015B000E92FF0E0981768F441E050E04C0F5D1F10
:1015C000E40FF51F30812452232720839F5F232FB0
:1015D000EECF81E090E08C0F9D1FE80FF91F908106
:1015E0008B81982790838091250784FF10C081E626
:1015F000DBDA10E08981811708F1E1E0F0E0EC0F1F
:10160000FD1FE10FF11D8081CFDA1F5FF3CF81E471
:10161000CBDA10E08981811750F0E1E0F0E0EC0FC7
:10162000FD1FE10FF11D808184DB1F5FF3CF8091EF
:10163000250785FF02C0802F7CDB06DB85E304D80D
:10164000813021F0813141F48AE317D886E315D83F
:101650008DE313D884E311D83DD9E296E4E00C94ED
:101660007C2F8F929F92AF92BF92DF92EF92FF9268
:101670000F931F93CF93DF93CDB7DEB7EA970FB6E3
:10168000F894DEBF0FBECDBF41E38E010F5F1F4F49
:10169000B801019653DB7C0199270197298130E03D
:1016A0008217930709F09BC080919102811103C0BA
:1016B000F9DE83E009DADB808A8196E789278A836D
:1016C00022E03981822F90E0F801E80FF91F2317FB
:1016D00050F4DE01A80FB91F8C91845290818927A4
:1016E00080832F5FEECF80818D258083CE01C796CA
:1016F00053D985E30E943D0385E30E94240383318F
:1017000071F1CE01C39648D94BA95CA96DA97EA9F8
:101710008FA998ADA9ADBAAD84179507A607B707ED
:1017200060F44A015B01881A990AAA0ABB0A2DEBE8
:1017300082169104A104B10470F4481759076A078E
:101740007B0768F484549F4FAF4FBF4F84179507B2
:10175000A607B70720F488ED91E069DA24C085E395
:101760000E942403833129F6D4FE06C088E7ACD951
:1017700088E7AAD988E701C08AE0A6D92C988FE724
:101780000E94B00258018A2D801B8E1530F4F5019D
:1017900081915F010E94B002F6CF2C9A85E30E94EE
:1017A00024038331D9F385E30E942403863149F46D
:1017B0008BE30E943D0386E30E943D038DE30E947C
:1017C0003D0380919102882349F084E30E943D0308
:1017D00085E30E9424038D30C1F701C0B2D3EA969D
:1017E0000FB6F894DEBF0FBECDBFDF91CF911F9132
:1017F0000F91FF90EF90DF90BF90AF909F908F90F0
:101800000895FC012181223731F0223559F481E01D
:101810008093920202C01092920244DE81E0809393
:1018200091020895233719F401961BCF0895109261
:1018300091020895CF93DF93EA98249A2C9A8EE12F
:1018400090E03DD92C988EE190E039D92C9A8DE228
:1018500090E035D980E30E943D0384E690E02FD9E3
:10186000CCE3D2E0FE018491813438F083E30E941E
:101870003D0384E029D9CFEF0DC0FE01319664917C
:10188000FE0184910E942B032296F2E0C837DF0705
:1018900049F7ECCF84E30E943D038AE090E00FD942
:1018A000C150C1F781E080939302DF91CF910895F9
:1018B000EF92FF920F931F93CF93DF93EC018B0175
:1018C000F88080919302811101C0B4DF85E30E940A
:1018D00024038D3051F08AE567D985E465D982E526
:1018E00063D982E561D981E347C0809194029091E8
:1018F0009502A0919602B0919702892B8A2B8B2B8F
:1019000029F50E949F0385E30E942403833109F493
:101910003BC08AE549D985E447D982E545D982E5C6
:1019200043D982E329C080911E0790911F07A0919F
:101930002007B09121074F5F5F4F6F4F7F4F841794
:101940009507A607B707E9F681E0BED880911E0784
:1019500090911F07A0912007B09121074091940218
:1019600050919502609196027091970284179507A5
:10197000A607B707C1F6E8CF17D985E30E9424036D
:10198000D8D962D957DF5BC0012B49F42C988FE777
:101990000E94B002EC2E0C2F1D2FF3940AC00AE017
:1019A00010E084E691D80150110901151105C9F71D
:1019B000EDCF802F8E198F1530F4F80181918F01B2
:1019C0000E94B002F6CF2C9AC8EC85E30E94240353
:1019D0008D30B1F485E30E9424038D30D9F08AE57F
:1019E000E3D885E4E1D882E5DFD882E5DDD883E37A
:1019F000DBD885E30E9424039CD926D91BDF0AC0CB
:101A000085E30E942403833129F781E05DD8C1502A
:101A1000E1F6E0CF80919302811101C092D28091D2
:101A20001E0790911F07A0912007B0912107809376
:101A3000940290939502A0939602B0939702CDB72B
:101A4000DEB7E6E00C947A2FACE0B0E0EAE2FDE02D
:101A50000C94612FFC018BE0898381818A831B8236
:101A600082E08C8387818D8380858E8381858F83BF
:101A7000848188878581898786818A871B861C86E1
:101A800084E122D860E070E0CE01019611DF8AE5A2
:101A90008BD810E0812F90E0298130E0281739079A
:101AA00054F0E1E0F0E0EC0FFD1FE80FF91F80813A
:101AB00040D91F5FEFCF8091250785FF02C080E0EE
:101AC00038D9C2D82C96E3E00C947D2FCF93DF93C6
:101AD000EC0180919B02811108C090919C029111B0
:101AE00004C090919D029923A9F09B81903319F035
:101AF0009F7E903479F49F8198130CC098858091D3
:101B00009C02981307C0998580919D02981302C08A
:101B1000CE019ADF80919802811108C090919902BC
:101B2000911104C090919A029923A9F098819B3059
:101B300091F49B81903479F49F8198130CC098851F
:101B400080919902981307C0998580919A02981301
:101B500002C0CE0179DFDF91CF910895AEE1B0E010
:101B6000E4EBFDE00C94602F80919302882309F44C
:101B700066C01A9B56C08FE30E9424038F778E3174
:101B800008F08DE189832C988FEF0E94B00210E05D
:101B90008981181760F480E00E94B002E2E0F0E072
:101BA000EC0FFD1FE10FF11D80831F5FF1CF80E07F
:101BB0000E94B002082F80E00E94B0022C9ACE0151
:101BC000019684DF8091250784FF12C08AE70E9476
:101BD000D40510E08981811790F1E1E0F0E0EC0F8D
:101BE000FD1FE10FF11D80810E94D4051F5FF2CF20
:101BF0008AE50E94D40510E08981811750F0E1E068
:101C0000F0E0EC0FFD1FE10FF11D808192D81F5F06
:101C1000F3CF8091250785FF02C0802F8AD814D882
:101C20000EC085E30E942403813149F48AE30E94B7
:101C30003D0386E30E943D0384E30E943D036E96CC
:101C4000E4E00C947C2FAEE1B0E0E9E2FEE00C941D
:101C5000602F8C01FC018181823711F4EBDD34C0EF
:101C6000833711F08636F9F44DE1BE016F5F7F4F87
:101C7000C801029663D899270197298130E082171D
:101C8000930729F08AE292E00E9417061DC061E0E6
:101C900070E0F8018181833711F060E070E0CE01DF
:101CA000019606DE11C0813621F443E06BE972E053
:101CB00005C0873739F443E068E972E0C80102964D
:101CC0003DD802C0109293026E96E4E00C947C2FF3
:101CD0008F929F92AF92BF92DF92EF92FF920F93FB
:101CE0001F93CF93DF931092B9021092CE02FC01A2
:101CF0002181220F220F220F3381231B57E0520F25
:101D00001092BA0210E070E038E0D32ED20EFF2419
:101D1000F39447E007E0E12CC7E0D0E0A1E0B0E0B9
:101D2000FD1409F47FC0FC01EE0DF11D248130E0AB
:101D3000002E02C0359527950A94E2F721703327CB
:101D4000E22F002311F0015002C0E39407E06B344E
:101D500071F4433009F04AC0111107C0E1115FC0AE
:101D60001092B9027093CE0274C010E041C04F3F90
:101D700031F56634A9F4E72FF0E0E654FD4FE08139
:101D80000E2EE295E0250E2EE695E695E025EF5F16
:101D9000E1FB882480F8912C8216930641F004C060
:101DA000653429F4E11103C01093B902DBCF7F5FE2
:101DB000E72FF0E0E654FD4F108247E031C0EE23FC
:101DC00061F1663471F4E72FF0E0E654FD4FA08036
:101DD0009D01042E01C0220F0A94EAF7A22AA082D4
:101DE0001CC0653439F06B34C1F404C04F3FD1F2EC
:101DF000EE2399F0E72FF0E0E654FD4F9E01241BFF
:101E0000310947FD33955D0102C0AA0CBB1C2A9520
:101E1000E2F795013081322B3083415001C011E04F
:101E2000F3947ECF1093B9027093CE025F1588F4BD
:101E3000653431F44F3F21F47F5F7093CE0204C0CC
:101E40008091B9028111F8CF81E09091CE02911179
:101E500001C080E0DF91CF911F910F91FF90EF9033
:101E6000DF90BF90AF909F908F90089510926F0079
:101E7000E091D1028CE1E89FF0011124EE52FD4F78
:101E80001082809124078D7F809324070895FC01A0
:101E90002181243110F0EACF08953381662381F047
:101EA00081E090E0032E01C0880F0A94EAF7DF0179
:101EB000A20FB11D14969C911497982B14969C9385
:101EC000332319F031503383089587E083832F5FE4
:101ED0002183E20FF11D14820895DC011196EC912B
:101EE0001197F0E050E02C91CF01841B950B0B96DD
:101EF0004797A0F430E070E0C901861B970B0B9662
:101F0000479760F42E0F3F1F640F751F261B370B7A
:101F1000255F3F4F81E02731310508F080E00895CB
:101F2000219A29982298E9E6F0E0808180618083F7
:101F30001092EE0210920A031092260310921C07D0
:101F400008958091160781110BC080912507882381
:101F500029F00E9423040C94B10308950C941A04F0
:101F60000895FC01218121110FC0809125070E9455
:101F7000990640E265E080912207909123070E9434
:101F800029060C942406089541E065E277E0019665
:101F90000E949E06D6CF0895442339F04150FB019C
:101FA000E40FF11D9081890FF7CF089520E066239B
:101FB00039F06150FC01E60FF11D30812327F7CF86
:101FC000822F0895A091B90240E035E020E0662319
:101FD00099F06150FC01E60FF11D5081752F72954B
:101FE0007F702727370FAA2311F0442319F05F7061
:101FF0002527350F4F5FEBCF320F40E1349FC001F3
:102000001124822B0895FC0132812381A081B181AA
:10201000A30FB11D8C9190E0022E02C0959587957B
:102020000A94E2F7817099274FEF420F4383211101
:1020300004C03F5F328327E023830895A2E0B0E02D
:10204000E4E2F0E10C945A2F7C01A12CB12CD12CAC
:10205000CC24C394062F10E001501109A616F0F409
:10206000C7014A836983CFDF4A816981882391F060
:10207000442349F098012A193B098C2D01C0880F8F
:102080002A95EAF706C08C2D0A2C01C0880F0A9405
:10209000EAF7D82A8FEFA81AB80AE0CF8D2D22963A
:1020A000EAE00C94762FA4E0B0E0E9E5F0E10C94CE
:1020B000592F1B8227E02C839C012C5F3F4F3A83D2
:1020C00029831092CE02FC012181338187E090E0C8
:1020D000831B9109F8E02F9F800D911D11248534F9
:1020E00091050CF44EC0B12CA090CE02F5E0FA158B
:1020F00058F10A2D10E040E068E0CE0101969EDF25
:1021000006541D4FF8018083982E092C9294902438
:10211000092C969496949024CE01019674DF9394A2
:1021200091FACC24C0F8D12C90E0C816D90649F514
:10213000CE01019668DF811124C0F8018081B826A4
:10214000A394A092CE02D0CF40E068E0CE010196E9
:1021500075DF082F182F012E12951025012E1695C8
:1021600016951025CE0101964EDF1F5F11FBEE2460
:10217000E0F8F12C282F30E0E216F30611F481E0AC
:10218000B01280E02496EBE00C94752FA5E0B0E04F
:10219000ECECF0E10C945D2FFC011B8287E08C835A
:1021A000CF0104969A8389838081853009F051C0DC
:1021B0002181338187E090E0831B910938E0239FE0
:1021C000800D911D11248039910509F042C01092B3
:1021D000CE020FE010EF29E88091CE02E82EF12C1C
:1021E000DD24D394D80E41E068E08F3088F4CE012E
:1021F00001962D8323DF080F111DF701E654FD4FD3
:102200002D812827208324E2280FD092CE02E4CF0C
:10221000CE01019613DF080F111DD092CE02F701F7
:10222000E654FD4F8095808341E068E0CE01019641
:1022300005DF90E0982F8827081B190B41E068E024
:10224000CE010196FBDE282F30E081E00217130754
:1022500009F080E02596E7E00C94792FA4E0B0E047
:10226000E4E3F1E10C945F2F1B8227E02C839C01B7
:102270002C5F3F4F3A832983FC0121812430A1F553
:102280008381813089F51092CE028091CE02082F91
:1022900010E0FF24F394F80E41E0843098F48111AB
:1022A00006C067E0CE010196C9DE806804C068E020
:1022B000CE010196C3DEF801E654FD4F8083F09213
:1022C000CE02E3CF67E0CE010196B8DEF801E65416
:1022D000FD4F880F8083F092CE029091BA029295C2
:1022E0009F7081E09A3009F080E02496E5E00C943C
:1022F0007B2FCF93DF93FC0181818330E9F48381CD
:102300008730D1F480818830B9F41092CE0220E079
:10231000822F90E0DC01A654BD4FEF01C80FD91FFA
:102320008C818C9381E0820F833010F4282FF0CFC2
:102330008093CE0281E001C080E0DF91CF910895CB
:10234000FC01908180912407993611F0933751F464
:10235000982F9370913011F4826006C080FF07C0FF
:102360008B7F03C080FD03C08460809324070895A1
:10237000A1E0B0E0EEEBF1E10C945E2F19828091C8
:102380009E028823B9F18091250787FF17C084E357
:102390000E9424038058803458F0803C58F490E028
:1023A0008055910953E0959587955A95E1F703C0BB
:1023B00080E001C08FE08F590E94D40580912507ED
:1023C00083FF16C082E70E94D4058091250784FF11
:1023D00004C080919F020E94D40586E60E94D40525
:1023E0008091250784FF04C080919E020E94D4053D
:1023F00010929E028091CF02882309F451C2469A1E
:102400000091D0022CE1029F800111240E521D4F39
:102410008981811106C0C8016CDF882311F083E730
:1024200089838981811106C0C801B0DE882311F03B
:1024300083E589838981811139C066E4C80148DC5C
:102440008823A1F1F090CE02FA94F092CE024F2DA3
:102450006AEB72E086E0A0DDEF2DF0E0E654FD4F80
:10246000E0808E1105C093E09F1510F486E41BC038
:10247000282F30E02F5F3F4F6E2D70E02617370773
:1024800039F423E02F1520F496E4998380830EC05D
:102490004F2D6AEB72E08CE07FDD8E1106C083E089
:1024A0008F1518F484E5898301C01982898181110F
:1024B00016C065E4C8010CDC882389F08091CE0247
:1024C00081508093CE02893051F469E08AEB92E02A
:1024D0006DDD9091C302891302C085E489838981EF
:1024E000811106C0C801DFDD882311F088E48983EB
:1024F0008981811106C0C801B1DE882311F084E70B
:1025000089838981811133C0F801438D60919F02D5
:10251000C8014A96E2DC682FC801B9DC6BE4C80147
:10252000D7DB8823B1F0F090CE02FA94F092CE027D
:102530006F2D8AEB92E046DDEF2DF0E09091B9022D
:10254000E91BF109E654FD4F9081891302C08BE429
:102550008983898181110BC0F801838191E0980FF3
:102560009383873021F41382818181508183898113
:1025700081112DC0F8018181843049F58381843037
:1025800031F54EE16CE3C8014896A7DC8823F9F0E9
:102590004EE160919F02C8014A969FDC682FC801F6
:1025A00076DC20E0822F90E0FC01E654FD4FD8015C
:1025B000A80FB91F14968C91808381E0820F85301B
:1025C00010F4282FEFCF8093CE0282E589833981E2
:1025D000332309F4D9C02091250720FFD5C080916D
:1025E00024078E7F8B7F8093240721FD64C0509148
:1025F000B802F090CE025F113DC040E04517C0F434
:10260000842F90E061E0640FFC01EC55FD4FDC018C
:10261000A654BD4F70818C91781741F04093B80259
:10262000809124078D7F8093240704C0462FE6CF36
:102630004093B80245131EC040911E0750911F07DA
:1026400060912007709121078091A0029091A102D2
:10265000A091A202B091A302481B590B6A0B7B0BFD
:10266000463251056105710528F480912407816087
:102670008093240740E04F1560F4842F90E0FC0124
:10268000EC55FD4FDC01A654BD4F8C9180834F5F0C
:10269000F2CF4093B80280911E0790911F07A0913E
:1026A0002007B09121078093A0029093A102A093EC
:1026B000A202B093A3023435E9F426FD1BC0809139
:1026C000CE028530B8F08091BC028B3471F089362F
:1026D00061F09DEA980F923040F08D57823028F0DB
:1026E0008091BD028077803729F480912407816032
:1026F00080932407B801CE01019622DE89818435BA
:1027000069F490913F09992349F09091F40991114E
:1027100005C0909124079B7F9093240790912407F4
:1027200092FF32C00E94D4058091B902882329F01B
:102730008091CE0281508093CE02F12CE091CE02A6
:10274000FE1648F4EF2DF0E0E654FD4F80810E9424
:102750009906F394F3CF8091B902882351F0F0E009
:10276000E654FD4F80818F7040E361E090E00E946D
:102770005F068091250785FF05C084E30E9424033E
:102780000E9499060E9424068091250782FF6FC04F
:1027900080E70E94D405F801808140E262E090E089
:1027A0000E942906F801808D40E265E0F0E18F9FEC
:1027B000C00111240E942906F801818D40E265E0E4
:1027C000F0E18F9FC00111240E942906F801828D3B
:1027D00040E265E0F0E18F9FC00111240E942906CC
:1027E000F801838D40E265E0F0E18F9FC001112484
:1027F0000E942906F801828140E263E090E00E9495
:102800002906F801818140E263E090E00E942906F8
:10281000F801238140E262E087E090E0821B9109A9
:102820000E94290680E20E94D4058091250785FF39
:1028300008C084E30E9424030E94990680E20E945B
:10284000D405F8018381873019F081818F5F8183FE
:10285000F12CF8018181F81640F4F801EF0DF11D1B
:1028600084810E949906F394F4CF0E942406F80113
:1028700010828091CF0281508093CF028091D0024C
:102880008F5F843019F08093D00202C01092D00282
:1028900046988981843521F48AEB92E00E94612474
:1028A0002196E6E00C947A2F1F920F920FB60F92AA
:1028B00011240BB60F922F933F934F935F936F9317
:1028C0007F938F939F93AF93BF93EF93FF93109258
:1028D0006F008091250783FF03C08EE20E94D4051C
:1028E0008091D1029CE1899FF0011124EE52FD4FAD
:1028F0009081933018F09181923010F4B7DA18C0BB
:102900009091CF02933049F48091250782FFF6CF52
:1029100088E792E00E941706F1CF9F5F9093CF0265
:102920008F5F843019F08093D10202C01092D102DF
:10293000FF91EF91BF91AF919F918F917F916F9197
:102940005F914F913F912F910F900BBE0F900FBE53
:102950000F901F9018959BED980F973150F496EFBC
:10296000960F9D3130F491E0681708F090E0892FC0
:10297000089580E008951F920F920FB60F921124D0
:102980000BB60F92FF920F931F932F933F934F938A
:102990005F936F937F938F939F93AF93BF93CF93E7
:1029A000DF93EF93FF938091340A882321F082E034
:1029B0008093340A63C180913509823021F483E029
:1029C000809335095BC1009184001091850064E01B
:1029D000169507956A95E1F7C091D1029CE1C99FD0
:1029E000E0011124CE52DD4F9881943031F40E3243
:1029F00008F444C10F3448F0B6C0953031F40731C3
:102A000008F43CC1083208F0AEC01A990DC09450C9
:102A1000923038F461E0CE013ADA109285001092DB
:102A2000840000939F022AC180919F02081B00939B
:102A30009E0210928500109284009881983071F463
:102A40002A8121110BC021E02A83888F8A8F098F68
:102A50000B3B10F4000F01C006950B8F9450923081
:102A600020F460E0CE0113DA09C182E086BBF88071
:102A7000F11011C090919F02953608F0FFC080912F
:102A80009E02853608F0FAC0988F898F81E08A838C
:102A900082E08883F3C010919E0282E0F81273C036
:102AA00000919F02412F602FCE01489616DA6A816D
:102AB0008823F9F0488D50E09A01220F331F240F2C
:102AC000351F200F311D3595279535952795288F72
:102AD000298D30E0C901880F991F820F931F810F44
:102AE000911D9595879595958795898F6F5F6A83D9
:102AF000C5C0643008F445C020EA3FE03093890047
:102B0000209388008A818C3050F0888D298D30E0A8
:102B1000280F311D2536310524F084E027C08A3086
:102B200088F0888D298D30E0280F311D2532310540
:102B30004CF485E0888328EE33E0309389002093BD
:102B4000880015C080912B07882379F0612F802F92
:102B500002DF882351F0688D898DFDDE882329F0FE
:102B600081E08093350982D989C083E088830A8F08
:102B70001B8F198287E08B831C8282E080936F0019
:102B80007DC0188277CF98E0F91225C081E9810FC6
:102B90008D3178F460E0CE017AD9288D30E0C9011A
:102BA000880F991F820F931F20919F02820F911D02
:102BB0004EC0173E08F462C061E0CE0168D92A8D8C
:102BC00030E0C901880F991F820F931F20919F0247
:102BD000820F911D15C000919F02412F602FCE01E1
:102BE0004A967BD9882301F161E0CE0150D92A8D24
:102BF00030E0C901880F991F820F931F800F911D2C
:102C000095958795959587958A8F2B8D30E0C9018D
:102C1000880F991F820F931F810F911D959587959E
:102C2000959587958B8F2AC0412F602FCE014896AE
:102C300054D9882301F160E0CE0129D9288D30E0F4
:102C4000C901880F991F820F931F800F911D9595C1
:102C5000879595958795888F298D30E0C901880FD4
:102C6000991F820F931F810F911D959587959595BB
:102C70008795898F03C087E0F81275CFFF91EF9198
:102C8000DF91CF91BF91AF919F918F917F916F9184
:102C90005F914F913F912F911F910F91FF900F9056
:102CA0000BBE0F900FBE0F901F901895E091D102B0
:102CB0008CE1E89FF0011124EE52FD4F80818111DB
:102CC00007C081E09091230A9F3F19F480E00895A6
:102CD00081E0089580E690E00E94FE0680932B0735
:102CE00081E690E00E94FE0680933F09882321F050
:102CF00081E28093250725C90895299A0C945F05E0
:102D0000089529980C945F050895A7E0B0E0EBE8DA
:102D1000F6E10C945D2F90913207943559F420918F
:102D20003809309139092F5F3F4F3093390920938B
:102D300038093EC0963459F420913609309137094C
:102D40002F5F3F4F309337092093360931C09534B8
:102D500059F420912807309129072F5F3F4F309376
:102D600029072093280724C09B3459F420913B095C
:102D700030913C092F5F3F4F30933C0920933B0932
:102D800017C0983459F420913D0930913E092F5FC6
:102D90003F4F30933E0920933D090AC020912607FA
:102DA000309127072F5F3F4F309327072093260747
:102DB00095E79983882399F0BE016E5F7F4F8091DC
:102DC0003F090E94E606BE016C5F7F4F80912B0792
:102DD0000E94E60685E58E8386E0D82E02C0DD24BB
:102DE000D3940E9423040E949F0316E080E891E0A0
:102DF00084DF80E093E085DF1150C1F780E093E04D
:102E00007CDF80E891E07DDF80E891E076DF299843
:102E100087E390E00E94410383E00E9464052C98C0
:102E20008FE70E94B002809130078D0D0E94B002A2
:102E3000CE0101967C018C01F80181918F010E94E5
:102E4000B002802F8E198D15B8F3809130079091C4
:102E50003107892B39F08CE297E00E943F080E94ED
:102E6000B002F3CF2C9A0E949F038CE297E00E945D
:102E7000190815E18AE30E9424038F7731F011507D
:102E800021F081E00E946405F5CF5BD82796E7E04A
:102E90000C94792FCF93DF93EC018981811107C0C6
:102EA00080912B070E94990680913F0913C08436B8
:102EB000A1F480911E0790911F07A0912007B09167
:102EC000210740E364E00E945F068EE20E94D40581
:102ED000809134090E9499064DC0833709F04DC096
:102EE00040E361E080913809909139090E945F06C2
:102EF0008EE20E94D40540E361E080913609909112
:102F000037090E945F068EE20E94D40540E361E02B
:102F100080912807909129070E945F068EE20E9407
:102F2000D40540E361E080913B0990913C090E9407
:102F30005F068EE20E94D40540E361E080913D0986
:102F400090913E090E945F068EE20E94D40540E304
:102F500061E080912607909127070E945F068EE22C
:102F60000E94D40540E361E08091320990913309D9
:102F70000E945F060E9424062CC08936D9F441E0E5
:102F80006BE277E0CE0102960E949E0660912B07CD
:102F900080E690E00E94F90641E06FE379E0CE011F
:102FA00004960E949E0660913F0981E690E00E948F
:102FB000F9060FC08CE297E00E94190821966991EA
:102FC000662329F08CE297E00E942108F8CF80E088
:102FD0009CDEDF91CF910895A1E0B0E0E2EFF7E150
:102FE0000C945C2F80913509882309F48FC0C09020
:102FF0001E07D0901F07E0902007F0902107833034
:1030000009F06AC08FE30E942403182F8630C8F0AD
:103010008BE39CE00E9419082C988FEF0E94B0026D
:1030200080E00E94B002082F115049F080E00E9419
:10303000B002682F8BE39CE00E942108F5CF2C9A08
:1030400001C000E00E94A10F10923509053709F078
:103050005DC041E0BE016F5F7F4F81E49CE00E9454
:103060009E060197A1F5998180912B0798132FC097
:103070008091450C853581F480913F0C9091400CF6
:10308000892B39F08BE39CE00E943F080E94D40515
:10309000F3CF0E9424063AC080913F0C9091400CDF
:1030A00004979093400C80933F0C84E090E09093C1
:1030B0003E0C80933D0C6AE08BE39CE00E9421086B
:1030C000E0911A07F0911B0788E009951FC08BE378
:1030D0009CE00E9419081AC0823059F480912A0796
:1030E0009C2D981B983090F00E94A10F10923509EA
:1030F0000DC0813059F487E390E00E9441030E94A3
:10310000B10382E080933509C0922A072196E8E056
:103110000C94782FCBDD882361F083E080933A090B
:1031200080913209909133090196909333098093ED
:10313000320980913A09815080933A09882321F01D
:1031400083E080933409089581E0DFCD08950E94E3
:10315000B103EA980895CF93DF93249A2C9A8EE1D5
:1031600090E00E945F052C988EE190E00E945F0540
:103170002C9A8DE290E00E945F0580E30E943D035F
:1031800084E690E00E945F058091E9098933C1F4EB
:10319000C3EED2E0FE0131966491FE0184910E945B
:1031A0002B032296F3E0C531DF07A1F783E30E94EA
:1031B0003D0384E00E946405CADFDF91CF9108954A
:1031C000843379F4C1EBD2E0FE0131966491FE01C3
:1031D00084910E942B032296F2E0C33EDF07A1F701
:1031E000E5CF813319F7CFE7D2E0FE013196649144
:1031F000FE0184910E942B032296F2E0C13BDF077F
:10320000A1F7D4CFFC0190818091EE09981318C0EA
:1032100091818091EF09981313C092818091F009F8
:1032200098130EC093818091F109981309C080858D
:103230009091F209891302C081E008958F3FE1F374
:1032400080E008952FEF662339F06150FC01E60F0E
:10325000F11D30812327F7CF822F0895DC01FC0177
:103260008FE09DE170E09F012A1B3B0B261737077B
:1032700004F52191492F552742279A01329522952D
:103280002F7023273F70232724273527982F88273F
:1032900082279327A901542F44275295507F8427D2
:1032A000952745E0220F331F4A95E1F782279327A0
:1032B000DACF0895A0E0B0E0E0E6F9E10C945D2FEC
:1032C000EC01E62E469A8091E909893339F464E1EC
:1032D00082E10E942B036E2D660F6D5E86E00E94D8
:1032E0002B030E949F032C988FE70E94B0028091CD
:1032F000E909893321F0FC2E0C2F1D2F50C01FE04F
:1033000086E60E94B0021150D9F78AEA0E94B00204
:1033100085E50E94B002DC2E0C2F1D2F802F8D1909
:103320008E15B0F5F801F1908F01F7FE02C080E82C
:1033300001C080E4F6FE02C090E201C090E1980F67
:10334000F5FE02C088E001C084E0890FF4FE02C0EF
:1033500092E001C091E0890F0E94B002F3FE02C02A
:1033600080E801C080E4F2FE02C090E201C090E17A
:10337000980FF1FE02C088E001C084E0890FF0FEE2
:1033800002C092E001C091E0890F0E94B002C6CF56
:1033900080E00E94B00280E00E94B0020BC0802F4B
:1033A0008F198E1538F4F80181918F0180950E9454
:1033B000B002F5CF2C9A85E30E9424038331D9F320
:1033C0006FEF86E00E942B038091E909893321F495
:1033D0006EE182E10E942B03BADE46988D8186FF62
:1033E0002CC080911E0790911F07A0912007B091DB
:1033F00021070696A11DB11D8093EA099093EB0960
:10340000A093EC09B093ED09809142038F5F809304
:103410004203823060F08AE70E94D40582E70E946E
:10342000D405809142030E9499060E94240680914F
:103430004203833010F010924203CDB7DEB7E7E0CD
:103440000C94792FA9EAB0E0E8E2FAE10C94582F45
:1034500080914303882309F424C180914203882387
:10346000D9F040911E0750911F076091200770917D
:1034700021078091EA099091EB09A091EC09B091A4
:10348000ED0984179507A607B70730F46091E8099E
:1034900080E499E00FDF05C11A9B03C1469A2C987E
:1034A0008FEF0E94B0028E010F5F1F4F6E0189E007
:1034B000C80ED11C780180E00E94B002F701808321
:1034C0009091E909993311F080958083FFEFEF1A0D
:1034D000FF0AEC14FD0479F72C9AB88487EF8B0D62
:1034E000803A10F038DEDDC06B2D86E00E942B03A1
:1034F0008091E909813331F0843341F4ACEDEA2E57
:10350000F12C08C0FAE5EF2EF12C04C0E8E9EE2E0C
:10351000E3E0FE2E60EA962E78E0A72ECB2CD12C8D
:10352000C7010E945F058BE30E942403882E882335
:1035300031F1282F30E02A0D311DC216D30694F246
:103540002C988FEF0E94B0028A0CA81471F080E0D2
:103550000E94B0029091E909993309F08095F80131
:10356000EA0DF11D8083A394F0CF2C9AAB1438F0B0
:103570008091E909EB2CF12C8133D9F403C09A94A2
:1035800079F6F6CFFE013197EE0DFF1DC080D12CEC
:10359000DC2CCC24FE01EE0DFF1D8081C80ED11C59
:1035A0006EEF6B0DC8015ADE21E08C159D0559F4B4
:1035B0000BC06FEF6B0DC80145DEFE01EE0DFF1D68
:1035C00021E09081891320E080914303823771F4D8
:1035D000C801C755DF4F2883C95AD04013DEC755ED
:1035E000DF4F2881C95AD040882399F0222391F0D7
:1035F0008AE70E94D4057801F70181917F010E943A
:1036000099068E2D801B8B15B8F30E94240621E0AD
:1036100001C020E080914303823781F4222371F0BE
:103620008E81982F9370933029F4909142039111D9
:103630001092420386FF02C087FF07C06FEF86E04B
:103640000E942B0384DD46982CC08AE00E9464050A
:103650008D8189878091F2098D8383E08E838091AB
:10366000E909813349F48BE0888769E0C801F6DD18
:103670009A878B876BE007C08AE0888769E0C8017A
:10368000E1DD8A876AE0C80115DE8AE70E94D40579
:1036900081E60E94D40589850E9499060E9424062D
:1036A000D2CFC755DF4FECE00C94742FFC01218181
:1036B000223711F02D3659F4FC018281811101C0AD
:1036C00084E38093E9092093430345CD089523378C
:1036D00079F41092420348EA60E479E002960E948D
:1036E0009E068093E809682F80E499E0E3CD089571
:1036F000293681F5FC012281222339F045E06EEE66
:1037000079E002960C949E060895809143030E94EE
:10371000D4058091E9090E94D40580E20E94D40575
:103720008091EE090E9499068091EF090E94990606
:103730008091F0090E9499068091F1090E949906F2
:1037400080E20E94D4058091F2090E9499060C94AF
:1037500024060895109243030895CF93DF93EA98C7
:10376000249A2C9A8EE190E00E945F052C988EE1BD
:1037700090E00E945F052C9A8DE290E00E945F0528
:1037800080E30E943D0384E690E00E945F052C9850
:1037900080E40E94B002C5E1D3E0FE0184910E9462
:1037A000B0022196F3E0C232DF07B9F78091010140
:1037B0000E94B002809102010E94B0028091030138
:1037C0000E94B002C0E0D0E0FE01EB5DFC4F8491AE
:1037D0000E94B0022196C931D105B1F72C9A2C98DC
:1037E0008EE70E94B0028BE290E0EC0121960E94ED
:1037F000FE060E94B002C333D10511F0CE01F5CF11
:103800002C9A83E30E943D0381E00E94640581E0DD
:1038100080931C07DF91CF9108956F927F928F92D2
:103820009F92AF92CF92EF92FF920F931F93CF93FD
:10383000DF93EC018981843769F468E071E0CE019F
:1038400002960E94CB0640E260E0809108019091D0
:10385000090112C0833709F092C18A81823789F445
:1038600064E071E0CE0103960E94CB0640E260E086
:1038700080910401909105010E9429060E9424066E
:10388000F3C1469A80914603811116C0809191023E
:10389000882329F081E08093450310929102809162
:1038A0009302882329F081E08093440310929302CD
:1038B00054DF83E00E94640586E30E943D038AE3AF
:1038C0000E943D038BE30E943D030E949F03FE0183
:1038D00001900020E9F70E2F0C1B0250C12CFAE0DA
:1038E0009F2E7E0132E0E30EF11CA5E0AA2EB8E285
:1038F0008B2E80910401909105012C2D332727FDFB
:1039000030952817390708F0FBC00132A1F4299A35
:1039100080910801909109010E945F05299880918A
:10392000060190910701FC019E9EC0019F9E900D93
:1039300011240E945F05370111E010170CF0B7C089
:10394000F30181913F01299A803309F046C0013289
:1039500001F580910601909107010E945F05299869
:1039600080910601909107010E945F05299A80913C
:103970000601909107010E945F0529988091060138
:10398000909107019C01A29EC001A39E900D11245D
:103990008AC080910801909109010E945F052998D1
:1039A00080910801909109019C01220F331F820F21
:1039B000931F0E945F05299A809108019091090147
:1039C0000E945F05299880910801909109019C014E
:1039D000220F331F820F931F66C0813329F50132F6
:1039E00091F480910601909107010E945F0529984A
:1039F0008091060190910701FC01AE9EC001AF9E2F
:103A0000900D11241EC080910801909109019C0124
:103A1000220F331F820F931F0E945F052998809108
:103A20000801909109012CC00132D1F48091060166
:103A3000909107010E945F0529988091060190915D
:103A400007010E945F05299A809106019091070164
:103A50000E945F052998809106019091070123C07B
:103A600080910801909109010E945F052998809139
:103A70000801909109019C01220F331F820F931FAF
:103A80000E945F05299A80910801909109019C018B
:103A9000220F331F820F931F0E945F052998809188
:103AA0000801909109010E945F051F5F46CF299A86
:103AB0000132A1F480910601909107010E945F05F7
:103AC000299880910601909107019C01829EC00176
:103AD000839E900D11240E945F0510C08091080103
:103AE000909109010E945F0529981FE180910801CA
:103AF000909109010E945F051150C1F7C394F9CE5E
:103B000080914603882341F08091250781110FC0E1
:103B100086E30E943D0319C080914503882351F03C
:103B2000109245030E94520A81E0809391020E9404
:103B3000B1030BC080914403882329F01092440301
:103B40000E941A0C02C00E94A10F469889E60E94AA
:103B5000D40583E70E94D40511E010170CF08ECE37
:103B6000FE01E10FF11D17FDFA958181803319F0F7
:103B7000813309F086E40E94D4051F5FEECF8237BF
:103B8000B9F480919102882329F081E08093450364
:103B90001092910280919302882329F081E0809312
:103BA000440310929302D9DD81E0809346035CC008
:103BB000863651F58A81803351F480E1809301018A
:103BC00080EB8093020181E78093030107C043E00B
:103BD00061E071E0CE0102960E949E0689E60E9495
:103BE000D40586E60E94D4058AE30E94D40580911C
:103BF00001010E949906809102010E94990680911C
:103C000003010E9499063ACE883731F58091450329
:103C1000882341F0109245030E94520A81E080936C
:103C2000910211C080914403882329F0109244032B
:103C30000E941A0C0EC082E090E00E944103809125
:103C40002507882319F00E94B10303C086E30E9470
:103C50003D031092460308C0833631F468E071E0FA
:103C6000CE0101960E94CB06DF91CF911F910F915B
:103C7000FF90EF90CF90AF909F908F907F906F903C
:103C80000895A2E0B0E0E7E4FEE10C94552F7C013A
:103C9000FC018181833709F09DC1198287E090E0A2
:103CA0000E94892F8C0141E0BE016F5F7F4FC701E9
:103CB00002960E949E068981F801808341E0BE0140
:103CC0006F5F7F4FC70104960E949E062981207F67
:103CD000F801218341E0BE016F5F7F4FC701069667
:103CE0002A830E949E068981F801828341E0BE01F9
:103CF0006F5F7F4FC70108960E949E068981F80179
:103D0000838341E0BE016F5F7F4FC7010A960E9427
:103D10009E068981F801868341E0BE016F5F7F4F77
:103D2000C7010C960E949E068981F801858341E0B7
:103D3000BE016F5F7F4FC7010E960E949E0689816C
:103D4000F801848380E090E02A814191342F3295FC
:103D50003F70342783279F5F9730B9F78F70822B8E
:103D6000F801818387E090E00E94892F5C0187E061
:103D7000F801D50101900D928A95E1F7D8011196CD
:103D8000C8010696F8013D91219123272083E81769
:103D9000F907C9F7469A80914903811160C0809163
:103DA0009102882329F081E08093480310929102C8
:103DB00080919302882329F081E080934703109239
:103DC0009302EA98249A2C9A8EE190E00E945F0573
:103DD0002C988EE190E00E945F052C9A8DE290E095
:103DE0000E945F0580E30E943D0384E690E00E940C
:103DF0005F052C9880E40E94B0026EE3E62E63E03B
:103E0000F62EF70184910E94B002FFEFEF1AFF0A2D
:103E100027E6E21623E0F206A1F72C9A2C988EE70B
:103E20000E94B0028BE290E07C01EFEFEE1AFE0AF6
:103E30000E94FE060E94B002F3E3EF16F10411F0B7
:103E4000C701F2CF2C9A83E30E943D0381E00E94D8
:103E5000640581E080931C0783E00E94640586E38B
:103E60000E943D038AE30E943D038BE30E943D03D1
:103E70000E949F03299A87EC94E20E945F0529988B
:103E800089E50E94640585E392E00E945F05712C3C
:103E900080910E0190E0272D332727FD30952817BC
:103EA00039070CF057C0711002C022E001C027E0B2
:103EB000F12C299A86EF99E02A830E945F052998C0
:103EC00086EF99E00E945F05F3942A81F2168CF345
:103ED000299A8CEF92E10E945F05299880910A014E
:103EE00090910B010E945F056801612CF6018190A1
:103EF0006F0148E0542E50E8E52EF12C912CC701BB
:103F000088219921892B49F4299A80910A0190915D
:103F10000B010E945F05299808C0299880910A0129
:103F200090910B010E945F05299A80910A0190915E
:103F30000B010E945F05F694E7945A9401F763948D
:103F4000F7E06F12D3CF299880E090E00E945F05E0
:103F500073949ECF80914903882341F08091250777
:103F600081110FC086E30E943D0319C08091480370
:103F7000882351F0109248030E94520A81E08093F6
:103F800091020E94B1030BC080914703882329F05E
:103F9000109247030E941A0C02C00E94A10F46987B
:103FA00089E50E94D40583E70E94D4057501D12CD0
:103FB000F70181917F010E949906D394F7E0DF1207
:103FC000F7CF0E942406C5010E942130C8010E943B
:103FD00021306FC08237A9F46EE071E0C70102960C
:103FE0000E94CB0689E50E94D40582E70E94D40591
:103FF0008AE30E94D40580910E0140E260E090E0E7
:104000002CC0843779F5F7018281803339F488ED4B
:1040100094E090930D0180930C0106C06CE071E078
:10402000C70102960E94CB0680910C0190910D0170
:104030009695879590930B0180930A0189E50E94DC
:10404000D40584E70E94D4058AE30E94D40540E2A7
:1040500066E080910C0190910D010E9429060E945A
:10406000240627C0883729F580914803882341F02A
:10407000109248030E94520A81E08093910211C07D
:1040800080914703882329F0109247030E941A0C5D
:104090000EC082E090E00E944103809125078823B2
:1040A00019F00E94B10303C086E30E943D03109201
:1040B00049032296EFE00C94712F10920E0A109291
:1040C000050483E080934F038FEF8093230A0895C4
:1040D000E0E5F3E02081211105C0892BB1F080E0FB
:1040E00090E00895B3E0EE3FFB07B8F7009751F07A
:1040F0004181DC013C91431305C0428111963C9102
:10410000431751F0E20FF11DE5CF33E0EE3FF30727
:1041100019F010F0EEEFF3E0CF01089594E0899FDD
:10412000F0011124EC5DF54F80818F3F91F0809379
:104130004A03818180934B03828180934C03838166
:1041400080934D0321E04CE064E08AE493E00C941A
:10415000220908958FEF93E0BBDF009799F020913B
:104160004F03FC013081231768F4E20FF11D8081B9
:104170008093010489E78093020481818093030482
:1041800081E0089580E00895EF92FF921F93CF930E
:10419000DF931F92CDB7DEB7182F8091250786FFDA
:1041A00018C084E599830E94D405E12E9981F92EE7
:1041B00015E0F70181917F010E9499061150C9F71E
:1041C0008091250785FF03C08AEF0E9499060E940F
:1041D00024060F90DF91CF911F91FF90EF900895EB
:1041E00086E30E943D0380910104833511F48BE93D
:1041F00001C08BE40E94640521E04CE065E08FEF94
:1042000093E00E9422090E94B1038FEF93E0BCCF9C
:104210000895E6DF80910104893631F081E08093D2
:10422000FE0389E28093230A0895CF9385E390E00B
:104230000E94FE068093F40986E390E00E94FE0649
:104240008093220ACFEFC093120AC093140AC0933E
:10425000160AC093180AC0931A0AC0931C0AC09386
:104260001E0AC093200A29DF1092500381E0809338
:10427000F309C093240A8FEF9FEF9093F70980937F
:10428000F6091092F9091092F8091092FB091092A0
:10429000FA09C093280A9093FD098093FC091092B3
:1042A000FF091092FE091092010A1092000AC093B1
:1042B0002C0A9093030A8093020A1092050A109226
:1042C000040A1092070A1092060AC093300A9093CB
:1042D000090A8093080A10920B0A10920A0A109297
:1042E0000D0A10920C0ACF910895ACE0B0E0EBE714
:1042F000F1E20C945B2F6C018C010F5F1F4F45E0C6
:10430000BE016F5F7F4FC8010E949E06843008F097
:10431000F3C099819130A9F4833061F46A8185E317
:1043200090E00E94F9066B8186E390E00E94F90616
:104330007CDFF9C18091F4090E9499068091220ADC
:104340009AC0923009F051C0813039F081E09A81F1
:10435000913009F080E0F82E02C0FF24F3948091A0
:104360005003811104C087E693E00E94170600E520
:1043700013E0F8018081882309F4BBC0F3E00E3F0D
:104380001F0708F0B6C083E00035180719F080E277
:104390000E94D405F80181810E949906F80182816A
:1043A0000E949906FF20E1F08AE30E94D40593E081
:1043B000F80180819817A0F4943038F090FF05C080
:1043C0008CE29C870E94D4059C85EE24E394E90E40
:1043D000F801E90FF11D80810E9499069E2DE8CF1A
:1043E000F8018081080F111DC4CF933049F480E09B
:1043F00090E06EDE805593409EEA981B892F3BC06B
:10440000903171F502E11AE083E1E82E8AE0F82E9E
:10441000C12CD12CF80180818F3FA1F0DD2019F053
:1044200080E20E94D4058C2D0E9499068AE30E94A6
:10443000D405F80180810E949906F70180810E94CD
:104440009906D3940E5F1F4FC394F2E0EF0EF11C58
:1044500088E0C812DFCFD1104CC085E793E047C099
:10446000913161F48091100A9091110A6DE770E02A
:104470000E94382F862F0E9499063BC09231C9F5C1
:1044800014E2E12E1AE0F12E07E21AE0C12CD12C41
:10449000F70180818F3FF1F0DD2019F080E20E946A
:1044A000D4058C2D0E9499068AE30E94D405F70159
:1044B00080810E949906F801329780810E949906B6
:1044C000F801319780810E949906F80180810E944D
:1044D0009906D394F4E0EF0EF11CC3940C5F1F4FC8
:1044E00084E0C812D5CFD11004C081E793E00E94C8
:1044F00017060E94240617C144E0BE01695F7F4F82
:10450000C8010E949E064F81493608F477C07A851B
:10451000588569857C3009F04BC020E030E080E0B0
:1045200090E0F901EC5DF54F708174131CC0A1811E
:10453000A51319C0A281A61316C02CE023839C01E9
:10454000220F331F280F391FF901EE0FFF1FEA500A
:10455000F64F11821082F901EE0FFF1FE850F64F5F
:1045600011821082C2C07F3FD9F44083518362839D
:104570002CE023839C01220F331F280F391FF901E0
:10458000EE0FFF1FEA50F64F11821082F901EE0F75
:10459000FF1FE850F64F118210821092F309A5C058
:1045A00001962C5F3F4F2031310509F0BACFBBC0D7
:1045B00080E090E020E030E0FC01EC5DF54FA08170
:1045C000A41315C0A181A51312C0A281A6130FC008
:1045D0007383F901EE0FFF1FE20FF31FEE0FFF1FB2
:1045E000E850F64F81E090E0918380839CC02F5F7C
:1045F0003F4F049680319105F9F695C0E98180918D
:10460000F409E81758F190E0F0E09C01295F3F4F72
:104610002E173F071CF13A812091220A32131EC047
:104620002C812F3231F442E06CE0C6010E948F09E8
:104630007AC03D812C3249F430930F0A81E090E03A
:104640009093110A8093100A6EC0E81BF90BEE0FCD
:10465000F0E0EE5EF54F2083318365C080E090E0AE
:1046600037DD7C01F80101900020E9F73197E01B6C
:10467000F10BF695E795BB24B394BE0EC7018B0DE5
:10468000911D805593408F3A91050CF048C0F70179
:10469000B1928F0121E0822F880F81502B15D8F421
:1046A00041E0B801F601E80FF11DCF012C870E940F
:1046B0009E062C85233058F020FD09C0D8011197A3
:1046C0008C91843621F4F80180818093F5092F5F65
:1046D0000F5F1F4FE0CFFEEFEF16F3E0FF0618F578
:1046E000F701E20FF11D10821EC022E04CE064E0F1
:1046F000CE0107960E9422098FE08A8722E04CE0D3
:1047000064E0CE0107960E94220982E08A8722E0B7
:104710004CE064E0CE0107960E94220904C08BE6BB
:1047200093E00E9417062C96E9E00C94772F0F93E4
:104730001F93CF93DF939091F30991114FC093E0B2
:10474000899F80011124F801EE0FFF1FEA50F64FF8
:1047500094E0899FD0011124AC5DB54F12969C91D5
:10476000977040E850E0491B51099AEF949F9001DF
:10477000959F300D112435952795359527953183D3
:104780002083E801CC0FDD1FC650D64F2881398128
:104790002F5F3F4F39832883000F111F0850164F9A
:1047A000F801408151814115510529F4243031052A
:1047B000A9F4B4DC11C04130510539F4AFDC82E01A
:1047C00090E0F8019183808309C04230510531F4B3
:1047D000A5DCF8011182108219821882DF91CF9135
:1047E0001F910F910895A6E0B0E0E9EFF3E20C9479
:1047F0005E2F2091220A2A831B8280910F0A882330
:1048000041F0833019F487E791E00FC08DE790E025
:104810000CC0277030E02A513F4F4DE7429FC00146
:10482000439F900D1124959587959093110A80933D
:10483000100A03E11AE0F12C7CE2E72EF80131972F
:1048400090819F3FC1F08091F4098F0D8983809101
:104850000F0A882311F0EC8203C09C83F801808149
:104860008D8321E04CE065E0CE0101960E94220993
:10487000CE01019689DCF3940E5F1F4FF8E0FF1222
:10488000DDCF80910F0A882341F0833019F4109214
:104890000F0A03C0825080930F0A2696E6E00C941C
:1048A0007A2F8091FE03882351F09ADC89E280936D
:1048B000230A8091FE0381508093FE030895FDCB6F
:1048C0000895FF920F931F93CF93DF93FC01F08025
:1048D0000181C281D38114818FE58093230A1092D4
:1048E000FE038091F409811105C08091220A88237A
:1048F00009F4A9C08091FF038F1104C080910004C6
:10490000801729F0DADBF092FF0300930004809116
:104910000E0A8F3F09F497C0C0930104D09302049C
:1049200010930304CC23F1F081111CC08091F40991
:10493000181761F0143651F08DEA8C0F823010F0A8
:10494000CD3739F48FEF80930E0A7DC0C43509F45A
:104950007AC08D2F807F803609F075C0D067D093E4
:10496000020457C0F7DB811105C080910E0A88232D
:1049700009F469C080910504811107C0E0910E0A15
:10498000F0E0E758FC4FE49101C0E82FE33541F433
:10499000C43531F490910E0A9E5F90930E0A04C0C4
:1049A000EC1711F08ADB4FC0882369F080914F0328
:1049B0008E5F80934F03CEDB81110EC080910E0A73
:1049C0008E5F80930E0A80910E0AE82FF0E0E65881
:1049D000FC4F14911F3F59F480910104809305040A
:1049E0008436B9F48091F5098093030412C01093C2
:1049F000010497E7909302049091F40990930304C3
:104A00008E5F80930E0A109205048E3021F01123E0
:104A1000D1F0FFDB18C08FEF93E05ADBDC01009789
:104A200081F02C9130E08EEF93E0821B930BA8175E
:104A3000B90730F4ED01C20FD31F48814D93F7CF72
:104A40001C923BDBE4CFCDB7DEB7E5E00C947B2FC7
:104A5000FF920F931F93CF93DF938C01EC0109908A
:104A60000020E9F72197C81BD90BFC01818182370F
:104A700051F487E390E00E9441030E94B10381E07A
:104A80008093340A26C0833711F5FC2E2C988FE7CB
:104A90000E94B0028C2F82500E94B002E801229640
:104AA00012E01F1528F489910E94B0021F5FF9CF10
:104AB0002C9A0E949F038AE30E9424038F7721F09F
:104AC00081E00E946405F7CF0E94B10302C01092FA
:104AD000340ACDB7DEB7E5E00C947B2FA0E0B2E05E
:104AE000E4E7F5E20C945C2F8091340A882309F402
:104AF00052C0813011F580911E0790911F07A0913F
:104B00002007B091210720910604281709F443C01B
:104B100085E30E942403813129F48AE30E943D0346
:104B20000E94B10380911E0790911F07A09120075A
:104B3000B0912107809306042EC08FE30E942403C6
:104B4000D82E2C988FEF0E94B0028E010F5F1F4F5E
:104B50007801C02E8E2D801B8D1538F480E00E94C8
:104B6000B002F70181937F01F5CF2C9A81E0809309
:104B70008B02802F8C198D1530F4F80181918F01F3
:104B80000E94D405F6CF0E9424068FEF80938B02FB
:104B900081E08093340ADE5FE8E00C94782F209166
:104BA000BE113091BF112115310521F42091110260
:104BB0003091120280910F0290911002009741F4FF
:104BC0008DB79EB74091130250911402841B950B30
:104BD0002817390718F4821B930B089580E090E0A2
:104BE000089582E40E94D40540E265E08091BE1100
:104BF0009091BF110E9429060E94240683E50E941D
:104C0000D40540E265E080911102909112020E9469
:104C100029060E94240685E40E94D40540E265E04E
:104C200080910F02909110020E9429060E94240692
:104C300086E40E94D405B3DF40E265E00E942906C5
:104C40000C94240608951F920F920FB60F92112410
:104C50000BB60F922F933F934F935F936F937F9376
:104C60008F939F93AF93BF93EF93FF938091390AF4
:104C700090913A0A892B39F085E39AE00E943F0827
:104C80008093C60005C08091C1008F7D8093C100D4
:104C9000FF91EF91BF91AF919F918F917F916F9114
:104CA0005F914F913F912F910F900BBE0F900FBED0
:104CB0000F901F9018951F920F920FB60F9211240C
:104CC0000BB60F922F933F934F935F936F937F9306
:104CD0008F939F93AF93BF93EF93FF9388B190E42B
:104CE000892788B96091C6008091C000887121F43D
:104CF0008BE39CE00E942108FF91EF91BF91AF915F
:104D00009F918F917F916F915F914F913F912F91E3
:104D10000F900BBE0F900FBE0F901F90189597FF2E
:104D200004C022E02093C0009F779093C500809339
:104D3000C40088E98093C10086E08093C200089592
:104D40008091C10085FD0BC08091390A90913A0A8B
:104D5000892B29F08091C10080628093C100089561
:104D6000E0911A07F0911B0781E00995E9CF0895BA
:104D70000F931F93CF93DF93EC0110E0212F30E0CE
:104D8000F901EE0FFF1FE20FF31FE656FF4F0491EC
:104D9000F901EE0FFF1FE20FF31FE556FF4F2591BC
:104DA0003491002399F0209739F480E20E94D405D1
:104DB000802F0E94D40508C08881801305C0CE01D1
:104DC000F901099581E003C01F5FD8CF80E0DF9132
:104DD000CF911F910F910895CF93C0918B02809333
:104DE0008B0280913F0C9091400C892B09F440C0BC
:104DF0008BE39CE00E943F088F3F99F320910704CA
:104E0000309108048A3011F08D3011F521153105EB
:104E100041F3F901E75FFB4F108289E094E0A8DFDE
:104E2000811111C08FE993E00E94170689E094E098
:104E30000E940C0687E893E00E94170680E090E04D
:104E400097DF0E9424061092080410920704C9CF2D
:104E5000211592E0390728F6A9014F5F5F4F509363
:104E6000080440930704F901E75FFB4F8083B9CF43
:104E7000C0938B02CF910895539A1092CD008CE08D
:104E80008093CC001092C80088E98093C90086E026
:104E90008093CA00E0911506F0E0EA5EF94F1082B7
:104EA0001092140608951092CD0080E18093CC00FA
:104EB000E8ECF0E08081826080830895E091110643
:104EC000F0E0E15FFE4FE08180911006E827F0E01E
:104ED000E15FFE4FE08180910F06E827F0E0E15F9F
:104EE000FE4FE08180910E06E827F0E0E15FFE4F83
:104EF00081E0208190910D06291380E0089590E0D3
:104F00000E94B03090ED980F9A3010F087530895BA
:104F1000892F08958A3010F4805D0895895C089582
:104F2000CF93DF93D82FC091150682958F70F2DF53
:104F3000AC2FB0E0AA5EB94F8C9382E08C0F8093C7
:104F400015068D2F8F70E6DFCF5FEC2FF0E0EA5E65
:104F5000F94F8083DF91CF9108951F920F920FB682
:104F60000F9211240BB60F921F932F933F934F93E1
:104F70005F936F937F938F939F93AF93BF93CF93E1
:104F8000DF93EF93FF938091C800C091CE008871AA
:104F900009F0ABC0809114068111A7C0809113065F
:104FA000813009F08CC04091120650E04730510525
:104FB00008F09BC0FA01EA5BFF4F6EC7C53509F0E8
:104FC00094C05FC0853509F05AC0C093110682E0D5
:104FD000809312068AC0C0930D0670DF882341F1CA
:104FE0001092150685E59CDFC09111068C2F98DF85
:104FF00010911006812F94DFD0910F068D2F90DF36
:1050000080910E068DDF80910D068ADF10920C06CE
:10501000212F30E02D0F311D8C2F90E0982F882705
:10502000280F391F30930B0620930A0686E0D0CF55
:10503000309111062091100690910F0680910E0676
:10504000353551F4209311069093100680930F0686
:10505000C0930E0685E0BCCF253541F49093110630
:1050600080931006C0930F0684E0B2CF953509F007
:10507000A9CF80931106C093100683E0A9CFC53550
:10508000D9F481E0A5CF8C2F4BDF20910C062F5F48
:1050900020930C0630E080910A0690910B06019651
:1050A0002817390710F1E0911506F0E0EA5EF94F94
:1050B000108281E0809314061092120616C0CD3043
:1050C000A1F0E0911506CA3041F4F0E0EA5EF94F34
:1050D000108281E08093140608C081E08E0F8093D7
:1050E0001506F0E0EA5EF94FC083FF91EF91DF9182
:1050F000CF91BF91AF919F918F917F916F915F9170
:105100004F913F912F911F910F900BBE0F900FBEAB
:105110000F901F901895EF92FF920F931F93CF93CC
:10512000DF93EC0180911306811104C0BCDE81E0A5
:1051300080931306F12C11E0FE01E10FF11D808137
:105140008823D9F09091C80095FFFCCF01E0010FB2
:10515000D6DEE82EFE01E00FF11D8081882321F0CC
:1051600002E0010FCCDEF82E80E1E89E90011124D0
:105170002F292093CE00102FDFCFCDB7DEB7E6E08A
:10518000B9C680911406882379F08AE20E94D4057A
:1051900086E196E00E940C060E94240610921506F5
:1051A0001092160610921406089521E0FC01E20FF9
:1051B000F11D3081332341F04091C80045FFFCCF01
:1051C0002F5F3093CE00F2CF8091C80085FFFCCFD7
:1051D0008DE08093CE008091C80085FFFCCF8AE0EF
:1051E0008093CE000895E4E6F0E080818B7F808399
:1051F0002F9A84B1806B84B9269880E58CBD8DB5DB
:1052000081608DBD08958F929F92BF92CF92DF9261
:10521000EF92FF920F931F93CF93DF931F92CDB71F
:10522000DEB7D82EC62E7A0189012C988FEF99838C
:105230000E94B002BD2C8D2C9981992E882D8B193E
:105240008C1538F480E00E94B002F40181934F0184
:10525000F5CFE114F10469F080E00E94B002F7019B
:1052600080830115110529F080E00E94B002F80149
:1052700080832C9A0F90DF91CF911F910F91FF9017
:10528000EF90DF90CF90BF909F908F900895CF9335
:10529000882331F010924C0E86E30E943D0307C034
:1052A00085E30E9424038D30A9F780E039C085E3AF
:1052B0000E942403C82F8130D1F78BE30E943D0365
:1052C0008AE30E943D031092410E1092430E109209
:1052D000420E1092450E1092440E20E73FE03093AC
:1052E000470E2093460E1092480EC093490E10921E
:1052F0004A0E8091160780934B0E60E083E00E9477
:105300002B0362E088E00E942B0384E30E943D03AC
:1053100085E30E9424038D30D9F781E080934C0E01
:10532000CF9108950F931F93CF93DF93182F062FDC
:10533000219822981092160710921707EA98249A3B
:105340002C9A8EE190E00E945F052C988EE190E00F
:105350000E945F052C9A8DE290E00E945F0580E339
:105360000E943D0384E690E00E945F05113031F019
:10537000123009F06DC0C7EBD3E022C0C4E0D4E026
:10538000FE018491813420F0013009F049C01DC034
:10539000FE0131966491FE0184910E942B032296B6
:1053A000F4E0CC3CDF0761F7EFCF31966491FE016A
:1053B00084910E942B032296F4E0CF37DF0721F37C
:1053C000FE018491813488F3DFCF60E087E10E94A1
:1053D0002B0367E083E00E942B0364E584E0113037
:1053E00029F40E942B0366E785E010C00E942B037E
:1053F0006DE385E00E942B0360E585E10E942B03AD
:105400006BE580E10E942B0368EF81E10E942B0392
:1054100062E082E00E942B036EE280E00E942B0398
:10542000109316070093170783E30E943D038CE057
:10543000E1E4FEE0DF011D928A95E9F786E0E8EB02
:10544000F1E1DF011D928A95E9F784E00E9464058D
:10545000DF91CF911F910F910895CF92DF92FF922C
:105460000F931F93CF93DF931F92CDB7DEB7182F03
:10547000062F2C988FE799830E94B002F12EC12E3F
:105480009981D92E8C2D8F19801730F4F6018191D6
:105490006F010E94B002F6CF2C9A81E00F90DF914D
:1054A000CF911F910F91FF90DF90CF9008958DE3E2
:1054B0000C943D030895A4E0B0E0E0E6FAE201C5F3
:1054C00090911707923009F009C18091160788233F
:1054D00009F404C180914C0E813049F030F08230E3
:1054E00059F0833009F472C0A2C081E0F6C01A9B63
:1054F0009EC090934C0E9BC0199B99C020E030E059
:1055000040E050E063E08091460E9091470E7BDED4
:1055100020914B0E8091460E9091470E213071F4F0
:10552000BE016F5F7F4F35D28111D3C089818093D7
:10553000410E10D3AC0160E081E00EC040E0BE013E
:105540006F5F7F4FADD28111C4C089818093410EBE
:1055500001D3AC0160E080E013D39093430E8093BD
:10556000420E6091420E7091430E693482E07807DA
:1055700008F0AFC086E06F3F710509F050F40E945B
:105580002B0360E088E00E942B0381E08093480EAB
:1055900002C00E942B038091460E9091470E039605
:1055A0009093470E8093460E8091420E9091430E49
:1055B00003979093450E8093440E1092490E83E01A
:1055C00080934C0E67E00E942B0331C0199B2FC0C3
:1055D0008091440E9091450E8F3F910509F058F44B
:1055E0008091480E811107C060E088E00E942B0383
:1055F00081E08093480E20E030E040E050E06FE131
:105600008091460E9091470EFEDD8091440E909160
:10561000450E4F979093450E8093440E8091460E11
:105620009091470E4F969093470E8093460E1A998D
:1056300053C080914C0E823008F44EC01C821B82F5
:105640009E012D5F3F4FAE014C5F5F4F6091440E56
:105650008091460E9091470ED6DD81E080934A0EF0
:1056600080914B0E813051F48091410E73D2AC0188
:105670006DE47EE080E79FE0EDD209C08091410EAD
:1056800069D2AC016DE47EE080E79FE056D3892BC0
:1056900001F582E60E94D40510E080914D0E5AD2A9
:1056A000212F30E02817390740F4F901E35BF14F6F
:1056B00080810E9499061F5FF0CF8091250785FFAA
:1056C00006C08B810E9499068C810E9499060E94D7
:1056D000240610924C0E02C080E0D9DD2496E3E04F
:1056E0000CC4A0E0B0E0E6E7FBE2E6C37C018B017E
:1056F000C42EFC0180812ED2EC019C012150310985
:105700002232314008F0C9C080911707823019F465
:10571000D090160701C0D12C61E08C2D03DE81E012
:10572000AE01B701C81206C0C8013ED2AE0161E0A9
:1057300081E005C0C8015ED2AE0161E080E020D208
:105740009093B9118093B811B2DE807711F086E39F
:1057500061C08BE30E943D031093BB110093BA110B
:105760001092BD116091B8117091B9116F3F710520
:1057700009F058F486E00E942B0360E088E00E9464
:105780002B0381E08093BC110AC0772786E00E943A
:105790002B0362E088E00E942B031092BC11C091A1
:1057A000B811D091B911C134D10510F0C0E4D0E0E6
:1057B0006C2F8091BA119091BB114FDE8091BA117C
:1057C0009091BB118C0F9D1F9093BB118093BA11C8
:1057D0002091B8113091B9112C1B3D0B3093B911A8
:1057E0002093B811232B19F481E08093BD1185E338
:1057F0000E943D0311E003C0203C3105C0F18091BF
:10580000BD1181113FC019990AC051DE80778037E0
:10581000B1F78BE30E943D0382E090E043C0C0916A
:10582000B811D091B911C132D10510F0C0E2D0E069
:105830006C2F8091BA119091BB110FDE2091BA119B
:105840003091BB112C0F3D1F3093BB112093BA1127
:105850002091B8113091B9112C1B3D0B3093B91127
:105860002093B8112115310539F61093BD1180919F
:10587000BC118111C4CF60E088E00E942B0310931B
:10588000BC11BDCF85E30E9424038130D9F7DD2010
:1058900039F062E08D2D46DD03C081E090E002C06A
:1058A00080E090E0CDB7DEB7E8E022C31F93CF934E
:1058B000DF93EC018981823789F48A818823C9F1D9
:1058C000833719F462E081E004C0843721F462E098
:1058D00082E028DD2EC060E080E0FBCF833749F511
:1058E00010E0612F70E09B01220F331FC901039666
:1058F0008C0F9D1FFC014081442369F0FE01E20FE3
:10590000F31F2481222339F0635B714F41E00E9431
:105910009E061F5FE6CF8A81833711F441E003C002
:10592000843701F542E060E77FE08DE49EE0D9DE58
:1059300019C080911707823079F480911607813061
:1059400029F0823031F48BEA93E008C081EB93E0D8
:1059500005C087EA93E002C083EA93E00E9417063D
:105960000E942406DF91CF911F910895DC01EC91F4
:10597000AE2FA295AF70B0E0AB5DBD4F8C91DB0157
:105980008C93EF70F0E0EB5DFD4F808111968C936E
:105990000895CF93DF93EC01A881E981CA2FC295C6
:1059A000CF70D0E0CB5EDD4F4881AF70B0E0AB5E32
:1059B000BD4F2C91AE2FA295AF70B0E0AB5EBD4F46
:1059C0008C91EF70F0E0EB5EFD4F908151E02F3F46
:1059D00009F050E031E04F3F09F030E0532B31E067
:1059E0008F3F09F030E0352BA9F49F3F99F0D0E4C8
:1059F0004D9FA0011124E0E12E9F90011124242B42
:105A0000292BF4E08F9FC0011124282BEB01288360
:105A100080E001C081E0DF91CF9108951F93CF9383
:105A2000DF93FB0141110FC0EC01A981CA2FCF7098
:105A3000D0E0CB58DD4F1881A295AF70B0E0AB58E5
:105A4000BD4F5C9101C054E1EC01A881CA2FCF7019
:105A5000D0E0CB58DD4F2881A295AF70B0E0AB58B5
:105A6000BD4F6C91D4E06D9FB0011124922F92959F
:105A70009F70962B9083952F9695969580E1289F01
:105A800090011124922B9183411106C0C0E45C9FC8
:105A9000C0011124812B8283DF91CF911F91089542
:105AA000DC0111969C911197411118C012968C91AE
:105AB0001297E82FEF73F0E0EB5CFD4F5081E92F78
:105AC000EF7024E0E29FF00111248295869586957F
:105AD0008370E82BEB5CFD4F808102C080E050E0DA
