:1000000037C100000C94EF1351C100004FC1000034
:100010004DC100004BC1000049C1000047C10000B4
:1000200045C1000043C1000041C100003FC10000C4
:100030003DC100000C94881339C1000037C1000095
:100040003EC3000033C1000031C100002FC10000D9
:100050000C94CE1D0C94961D29C1000027C10000F0
:1000600025C1000023C1000021C100001FC1000004
:100070001DC100001BC1000019C1000017C1000014
:1000800015C1000013C1000011C100006D641D42C4
:10009000720643A702466E08413E0B5A5A0D47723C
:1000A000084DAA084B180952E20554F11856DA0611
:1000B00057220658E50E659A06669E1C6C6006740B
:1000C000C303757E16786E02000000202F200020EA
:1000D0003D2000072E050DD391FF080500000C0000
:1000E00021656A2D3B1322F862073F181D1CC700CB
:1000F000B0876BF8B611EA2A001F41000D2E2D07BC
:10010000D3913D04320000060021656A55E4302396
:10011000B900070018146C070090876BF85611E9B6
:100120002A001F410000030F1E2627000000030FB6
:100130001E2536386700030F256740605000030F07
:10014000275188838100030F2750C8C3C2002700AE
:1001500000000000000067000000000000005000E8
:100160000000000000008100000000000000C2004C
:100170000000000000504C4C310D0A00504C4C3037
:100180000D0A005620312E36375F6E6F637265643C
:100190006974732043534D38363800202F200020D7
:1001A0003D20004552523A4343410D0A00000702E8
:1001B0002E030D04E905CA070C0B060D210E650F71
:1001C0006A10C81193120315341733181819161B27
:1001D0004321562500261129592C812D353EC34C2B
:1001E000454E4552520D0A004C454E4552520D0A9D
:1001F000000007024604C605260B0610C81193121C
:100200000313221534173F182819161B43215625AE
:100210000026110D210E650F6A070C160720F81E27
:10022000871F6B29592C812D353EC3FF00424F5645
:10023000460D0A004E2F4100454F420D0A004E2F39
:1002400041004E2F410000535300547D7DFFFF4B72
:100250004B7E7E0020697320756E6B6E6F776E2902
:1002600020557365206F6E65206F66003F20280063
:1002700011241FBECFEFD0E4DEBFCDBF11E0A0E060
:10028000B1E0E0E4FEE300E00BBF02C007900D9296
:10029000AA30B107D9F722E1AAE0B1E001C01D926E
:1002A000AD3FB207E1F703D00C941E1FA9CE88E141
:1002B0000FB6F89480936000109260000FBE90E03B
:1002C00080E80FB6F89480936100909361000FBEB0
:1002D0003A9A429A0E94AD1E5AD589EF87BD84E0B2
:1002E00085BD82E084BD80936E00109280008AE01C
:1002F0008093810084B7877F84BF2FE088E190E0FE
:100300000FB6F894A895809360000FBE209360000C
:1003100089E190E80E94021E0E9491180E94C80E76
:100320008FE59EE1909386068093850681E0809319
:100330000D010E949E1580910D01886080930D0132
:10034000429878940E94231E0E94EC1032D20E94A0
:10035000E31C0E9420170E94CC090E94E40CF2CFFB
:100360008EBD0DB407FEFDCF8EB50895A1E0B0E0BF
:10037000ECEBF1E00C94DD1E482F8A3008F048E0E9
:1003800088E0489F70011124F701EB5DFE4F7F016B
:100390008BE290E0F70164918C010F5F1F4F49835E
:1003A000F3D3FFEFEF1AFF0A49810333110511F070
:1003B000C801F0CF4550453010F461E101C067E15C
:1003C00084E290E0E1D32196E6E00C94F91ECF930D
:1003D000DF9382E090E0FC01E650FF4F6491EC0176
:1003E0002196D2D3CB32D10511F0CE01F4CF87E3E1
:1003F00090E0FC01E456FF4F6491EC012196C4D3D8
:10040000C036D10511F0CE01F4CF88E0AFDFDF9127
:10041000CF9108952C98806CA3DF80E0A1DF2C9A07
:100420000895A1E0B0E0E7E1F2E00C94E11E2C9821
:100430008064698395DF6981862F92DF2C9A2196EB
:10044000E2E00C94FD1E2C988BDF2C9A0895EF921D
:10045000FF920F931F93CF93DF93EC01109214013F
:10046000E898249A2C9A8EE190E00FD22C988EE195
:1004700090E00BD22C9A8DE290E007D280E3E3DF8C
:1004800084E690E002D22C9880E46ADF7E0189E263
:10049000E80EF11C8E010F5F1F4FCE017AD360DF93
:1004A0000E151F0511F0E801F5CF2C9A2C988EE758
:1004B00057DF8BE290E0EC0121966BD351DFC33321
:1004C000D10511F0CE01F7CF2C9A83E3BCDF81E098
:1004D000E1D1CDB7DEB7E6E00C94F91EA1E0B0E0C3
:1004E000E4E7F2E00C94E11E22E0298341E0BE0142
:1004F0006F5F7F4F019608D3898138DF82E090E0FB
:10050000A6DF2196E2E00C94FD1ECF93E89886E3E7
:100510009ADFCFEF85E397DFC1508077803229F0F3
:100520008AE090E0B2D1C111F5CFCF910895CF9379
:10053000CFEF84E388DFC1508077803129F08AE0F3
:1005400090E0A3D1C111F5CFE89ACF910895A2E030
:10055000B0E0EDEAF2E00C94DF1E8C01FC01818139
:100560008737E9F441E0BE016F5F7F4FC801029613
:10057000CBD2892BA1F041E0BE016E5F7F4FC80155
:100580000496C2D2892B59F06A8189814ADF83E3BC
:100590005ADFCDDF8981B3D28A81B1D22CC041E04C
:1005A000BE016E5F7F4FC8010196AED2892B21F14B
:1005B0008A81893969F410E0812F2CDFA0D2812F44
:1005C0008770873009F426D21F5F1033A9F714C053
:1005D00021DF182F83E4CED18A8191D28FEC90E075
:1005E0000CD2812F8CD28BEC90E007D240E262E0FB
:1005F000812F90E014D20ED22296E4E00C94FB1EE0
:1006000086E321DF109287061092130110921401E5
:10061000089582E090E01BDF81E0809387061092CE
:1006200013011092140108950F931F93CF93DF933A
:10063000082F10E0C62FD0E085E3ECDE801731F004
:10064000CE0123D11150C1F781E001C080E0DF91DC
:10065000CF911F910F91089585E2DCDE8F3311F069
:1006600080E0089586E3EFDE80910A01811104C0E5
:100670008CE791E0C2D102C08DE3E5DE83E3E3DEE7
:1006800064E081E0D1DF85E2C5DE8F3349F78091F8
:100690000A01811103C085E791E0AFD181E008959F
:1006A00085E3B8DE8D3051F485E2B4DE8F3331F46A
:1006B000D3DF84E3C8DE80778031D9F708951F92B5
:1006C0000F920FB60F9211240BB60F928F939F9338
:1006D000AF93BF93EF93FF938091890690918A0621
:1006E000A0918B06B0918C060196A11DB11D80933F
:1006F000890690938A06A0938B06B0938C0680910E
:1007000088068F5F80938806EEEAFAE08081918107
:10071000181619061CF401979183808336968AE097
:10072000E63CF80799F78091C80A9091C90A0097AA
:1007300029F001979093C90A8093C80A8091DB0A37
:100740008F3F19F081508093DB0AFF91EF91BF91A9
:10075000AF919F918F910F900BBE0F900FBE0F9096
:100760001F9018952FB7F8944091890650918A06EA
:1007700060918B0670918C06FC01408351836283EB
:1007800073832FBF0895A4E0B0E0E9ECF3E00C948C
:10079000E11ECE010196E6DF8C81B1D18B81AFD114
:1007A0008A81ADD18981ABD135D12496E2E00C9418
:1007B000FD1E1F93CF93DF938091890690918A0647
:1007C000A0918B06B0918C0620910C01281709F49A
:1007D00058C08091890690918A06A0918B06B091AD
:1007E0008C0680930C01A895CEEADAE010E028810F
:1007F0003981232B19F4812F0E94101B1F5F26962D
:100800001430A9F78091C80A9091C90A892B11F474
:100810000E946C1B8091DB0A811102C00E94C81BE0
:1008200080919F0A882339F0815080939F0A81111B
:1008300002C00E94BC17809188068D3710F110927B
:1008400088068091000181FF04C088B194E0892767
:1008500088B984E893E090938E0680938D0680910A
:100860000B018F5F80930B018C3359F410920B01B5
:100870008091AD0A8F5F8093AD0A8C3310F0109297
:10088000AD0ADF91CF911F910895880F991F0197AD
:10089000F1F7089520ED37E0815020F0F90131970C
:1008A000F1F7FACF0895CF93DF93DC0116968C9180
:1008B0001697843509F05BC0CD010696CD91DC9189
:1008C00011974DE0242F30E02C173D0740F0AE018A
:1008D0004F5051092417350709F049C008C0FC01E1
:1008E000E20FF31F50815B3391F34F5FEBCFFE01BB
:1008F0003E97E80FF91F20812435C9F517963C91E2
:1009000017972181321333C018963C911897228192
:1009100032132DC019963C9119972381321327C0A9
:100920001A963C911A972481321321C06197C80FFF
:10093000D91F858188838681898381858A83828581
:100940008B8383858C8384858D8385858E838D9130
:100950009C9111970A9711969C938E9314968D9162
:100960009C9115970A9715969C938E931497DF91F7
:10097000CF910895CF93C82F80910D0180FF13C0B0
:100980002091F10A3091F20A2E3F83E0380738F0C7
:100990002115344040F4CD3011F0CA3021F46C2FD1
:1009A0008DEE9AE014D28091AA0A8823C9F0809132
:1009B0000D0183FF15C0CA3099F0CD3011F46BE3FF
:1009C00001C06C2F87E996E002D2CD3019F487E997
:1009D00096E069DF83E080939F0A82E08093A50A16
:1009E000CF910895CF93DF93EC018991882311F083
:1009F000C1DFFBCFDF91CF910895CF93DF93EC015F
:100A0000FE018491882319F0B5DF2196F9CFDF919B
:100A1000CF9108958DE0AEDF8AE0ACCF0895A6E0D7
:100A2000B0E0E5E1F5E00C94DF1E062F1E8215E034
:100A30002AE030E01150E1E0F0E0EC0FFD1FE10FA3
:100A4000F11DB9010E94BD1E805D8083CB01015064
:100A5000009769F01111EECF0AC0112359F011501F
:100A6000E1E0F0E0EC0FFD1FE10FF11D40830150CC
:100A700007FFF3CF81E090E08C0F9D1F810F911D48
:100A8000B1DF2696E4E00C94FB1EA5E0B0E0EBE4B9
:100A9000F5E00C94E11E1D8224E0382F3F702150B8
:100AA000E22FF0E03A3010F4305D01C0395CA1E093
:100AB000B0E0AC0FBD1FEA0FFB1F308334E096950A
:100AC00087953A95E1F76150009739F7615067FDD6
:100AD0000BC0222349F02150E1E0F0E0EC0FFD1FB4
:100AE000E20FF11D4083F2CF81E090E08C0F9D1F5B
:100AF000820F911D77DF2596E2E00C94FD1E40E306
:100B000062E090E0C2CF0895DC01FB0130E090E0AC
:100B10008D918823A9F0813608F0805220ED280FAE
:100B20002A3030F02FEB280F263030F429EC280F34
:100B3000292B332379F006C0803251F38A3341F3F5
:100B4000CF0105C0CF0101962083415041F4861B9F
:100B5000970B0895922F9295907F31E0D9CFFC01A9
:100B6000D5CF982F92959F709A3010F4905D01C068
:100B7000995CFB0190838F708A3010F4805D01C016
:100B8000895CFB01818308950E94101FF999FECFB3
:100B900008950C94081F08951F93CF93DF93162F89
:100BA00011501F3F59F0EC012196F3DFA8DF11230C
:100BB00011F08AE3DFDE1150CE01F3CFDF91CF9148
:100BC0001F910895A2E0B0E0E8EEF5E00C94DE1E7F
:100BD000FC0121812D3421F466E08AEF9FE005C0FD
:100BE000203529F460E18AED9FE0D6DF26C01A8225
:100BF000198242E0BE016F5F7F4F019685DF098158
:100C000010E0823021F4102F00278A81082BC801C0
:100C1000C0DFF82E82E5AEDE40E364E0C80135DFD8
:100C20008FE991E0EADE8F2D6ADF8BE991E0E5DE66
:100C300040E262E08F2D90E0F2DEECDE2296E5E00D
:100C40000C94FA1EA6E0B0E0E8E2F6E00C94DB1E9D
:100C50006C0143E0BE016F5F7F4F019655DF82302C
:100C600058F1E980F12C823021F0FE2CEE242A810B
:100C7000E22A8C011127FE01E00FF11F6081C701FC
:100C800083DF000F111F0F5F1F4F0C0D1D1DF8019B
:100C90008081882389F041E0BE016F5F7F4FC801EA
:100CA00033DF892B49F08FEFE81AF80A6981C70111
:100CB0006BDF0E5F1F4FEBCF2696E8E00C94F71E1C
:100CC00041E060E071E001961FDF8091000180FF4C
:100CD00002C0429A01C042986091000184E390E012
:100CE00053CF0895A1E0B0E0E8E7F6E00C94E11EF0
:100CF0001982009731F041E0BE016F5F7F4F01968E
:100D000003DF89818F3F09F4FFCF882321F061E061
:100D100083E390E039DF10926E00F89428E088E1D8
:100D200090E00FB6F894A895809360000FBE2093D2
:100D30006000FFCFCF93DF93EC0161E080E090E0B3
:100D400023DF63E481E090E01FDF41DB60E080E6C9
:100D500090E01ADF60E081E690E016DF60E083E378
:100D600090E012DF62E084E390E00EDF60E080E676
:100D700090E00ADF60E081E690E006DF8981883755
:100D800019F080E090E0AEDFDF91CF91089580E030
:100D900090E0FFDE813029F481E090E0FADE8334D8
:100DA00019F080E090E0C6DF84E390E0F2DE80930B
:100DB0000001089583E891E020DE2CCE0895FC0127
:100DC0001582148211821082138212820895FC010E
:100DD0004FB7F89484819581811524E0920798F4A7
:100DE00001969583848320813181C9010196918385
:100DF0008083DF01A20FB31F16966C938115944078
:100E000011F4118210824FBF0895FC014FB7F8947E
:100E100084819581009719F44FBF80E00895019770
:100E200095838483828193819C012F5F3F4F33831D
:100E30002283DF01A80FB91F16968C91211534402B
:100E400011F4138212824FBF0895FA013081882372
:100E500069F0E1E0F0E0022E01C0EE0F0A94EAF73B
:100E6000DB01A30FB11D9C919E2B9C93222319F0B3
:100E70008FEF820F0BC081E0830F8C3010F4FA01EA
:100E80008083FB01E80FF11D108287E090E0089558
:100E9000CF93C82F299A882319F08091100102C09E
:100EA0008091120120E1829FC0011124EEDC29987B
:100EB000CC2319F080910F0102C08091110120E133
:100EC000829FC0011124E1DCCF910895A1E0B0E040
:100ED000ECE6F7E00C94D11E6C01162F842E622EE6
:100EE000429A80911401882341F01092140187E006
:100EF00091E06BD7FF24F39401C0F12C8091870619
:100F0000811101C086DB01DBA12EB12C912C712C4B
:100F1000512C852D992787FD90958A159B0524F4E2
:100F200080E0B6DF5394F5CF112311F081E0B0DFFC
:100F300020E0422E552447FC5094481459042CF0CC
:100F400097E0392E4C0C5D1C1BC087E0282E312CFD
:100F50004C0C5D1C81E090E0022C01C0880F0A94CB
:100F6000EAF7F20190818923298392DFF1E02F1AB9
:100F7000310829818FEF2816380661F72F5FD9CF06
:100F8000832D992787FD9095681679066CF481E08A
:100F900090E0032C01C0880F0A94EAF7F2019081D7
:100FA000892376DF3A94ECCF8E2D74DC015009F062
:100FB000AFCF80919006882311F0B9DA02C086E3A2
:100FC00042DAF1106CD342982196E2E10C94ED1EC6
:100FD000ADE0B0E0EEEEF7E00C94D41E7C01162FED
:100FE000842F022F6701C60ED11C462FB70108D7E8
:100FF000D6018C931F5F1D8619825E2C670127E046
:1010000066246394712C8C2D8519811788F547E02F
:10101000A42EB12C4701880E911CF3010A2C01C0AB
:10102000EE0F0A94EAF7D4018C91AE01435F5F4F53
:10103000BE016F5F7F4F8E2308DF282FB1E0AB1A10
:10104000B10858F7D6018D916D01082E8295802543
:10105000082E8695869580258F5F86958170AE01D6
:10106000435F5F4FBE016F5F7F4FEFDE282FCBCF17
:10107000222311F0215004C08D858F5F8D8727E0DA
:1010800089E1809311018093120185E280930F0121
:10109000809310013AE0E32E4D856CE0CE0101967D
:1010A00015DF2D96EFE00C94F01EADE0B0E0EBE51F
:1010B000F8E00C94E01E162F242F4BE0BE016F5F6A
:1010C0007F4F01962D8720DD2D85412F682FCE0182
:1010D00001967EDF2D96E3E00C94FC1E43E066E073
:1010E000E4CF0895EF920F93CF93DF93CDB7DEB7A0
:1010F00060970FB6F894DEBF0FBECDBF40E1BE01D2
:101100006F5F7F4F019600DD69814A810B818C8181
:10111000809312018D81809311018E818093100143
:101120008F8180930F01E02EE2947FE0E7220F7021
:10113000242F2F7042954F70CE010896C7DE60961F
:101140000FB6F894DEBF0FBECDBFDF91CF910F91E8
:10115000EF900895A9E1B0E0E0EBF8E00C94D91E1F
:101160004BE0BE016F5F7F4F0196CEDC182F8930B8
:1011700009F05AC099E19093110190931201909354
:10118000100182E380930F0169E0CE01019642D6FF
:10119000E1E0F0E0EC0FFD1FE10FF11D8083198EFF
:1011A0001D86CE0101967C016E019BE0C90ED11C0B
:1011B00027E0AA24A394B12CEC14FD0429F100E04B
:1011C00010E0F501002E01C0EE0F0A94EAF7D701F6
:1011D0008C91AE01475E5F4FBE01635F7F4F8E23F0
:1011E00034DE282F0F5F1F4F0830110551F7AE0175
:1011F000475E5F4FBE01635F7F4F81E026DE282F91
:10120000BFEFEB1AFB0AD8CF222311F0215004C004
:10121000898D8F5F898F27E0EAE0EE2E03E0498D0C
:101220006CE0CE010D9652DE6996EAE00C94F51E54
:10123000A9E1B0E0EEE1F9E00C94D81E4BE09E018C
:101240002F5F3F4F7901B90101965EDC182F85E3CE
:101250008093120196E19093110190931001809375
:101260000F01612FC701E2D5F701E10FF11D808366
:1012700099249394910E198E1D86870127E0AA2444
:10128000A394B12C802F8E19891508F04AC0C12C67
:10129000D12CF5010C2C01C0EE0F0A94EAF7D8010D
:1012A0008C91AE01475E5F4FBE01635F7F4F8E231F
:1012B000CCDD282FBFEFCB1ADB0A34E0C316D104F4
:1012C00041F7AE01475E5F4FBE01635F7F4F81E034
:1012D000BCDD282FB4E0CB2ED12CF5010C2C01C0A5
:1012E000EE0F0A94EAF7D8018C91AE01475E5F4F8A
:1012F000BE01635F7F4F8E23A8DD282FBFEFCB1A7F
:10130000DB0A38E0C316D10441F7AE01475E5F4FF8
:10131000BE01635F7F4F81E098DD282F0F5F1F4F75
:10132000B1CFAAE0EA2E03E0498D6AE0CE010D9626
:10133000CDDD6996EBE00C94F41ECF93DF93E89833
:10134000249A2C9A8EE190E0A0DA2C988EE190E01D
:101350009CDA2C9A8DE290E098DA80E374D884E6E7
:1013600090E093DACDEAD1E0FE0131966491FE017E
:10137000849157D82296F1E0CF3DDF07A9F783E3A8
:1013800062D884E087DA84E35ED885E343D88D3081
:10139000D1F7DF91CF910895AEE1B0E0E2EDF9E051
:1013A0000C94DF1E80911301882309F493C04A9B9B
:1013B0007DC08FE32FD88F7789838E3148F08AE301
:1013C00042D886E340D88DE33ED884E33CD882C03F
:1013D0002C988FEF0E94B00110E08981181760F4FB
:1013E00080E00E94B001E2E0F0E0EC0FFD1FE10FB1
:1013F000F11D80831F5FF1CF80E00E94B001082FB4
:1014000080E00E94B0012C9A84E31DD885E302D8C5
:101410008D30D1F72A8196E792279A8392E08981CD
:10142000E92FF0E0981768F441E050E04C0F5D1FA1
:10143000E40FF51F30812452232720839F5F232F41
:10144000EECF81E090E08C0F9D1FE80FF91F908197
:101450008B81982790838091900684FF10C081E64D
:1014600089DA10E08981811708F1E1E0F0E0EC0F02
:10147000FD1FE10FF11D80817DDA1F5FF3CF81E455
:1014800079DA10E08981811750F0E1E0F0E0EC0FAB
:10149000FD1FE10FF11D808132DB1F5FF3CF8091D3
:1014A000900685FF02C0802F2ADBB4DA85E30E9414
:1014B0000A02813029F0813161F48AE30E9423021B
:1014C00086E30E9423028DE30E94230284E30E94AC
:1014D0002302E6D86E96E4E00C94FB1E8F929F9256
:1014E000AF92BF92DF92EF92FF920F931F93CF9331
:1014F000DF93CDB7DEB7A6970FB6F894DEBF0FBE69
:10150000CDBF4DE18E010F5F1F4FB8010196FCDA90
:101510007C0199270197298130E08217930709F010
:101520009BC080911301811103C007DF83E0B2D912
:10153000DB808A8196E789278A8322E03981822F9E
:1015400090E0F801E80FF91F231750F4DE01A80F0F
:10155000B91F8C9184529081892780832F5FEECFB1
:1015600080818D258083CE018396FCD885E30E94FF
:10157000230285E30E940A02833171F1CE014F9666
:10158000F1D84F8D58A169A17AA18BA19CA1ADA1E1
:10159000BEA184179507A607B70760F44A015B014F
:1015A000881A990AAA0ABB0A2DEB82169104A10493
:1015B000B10470F4481759076A077B0768F484542C
:1015C0009F4FAF4FBF4F84179507A607B70720F46B
:1015D00083EA91E012DA24C085E30E940A02833193
:1015E00029F6D4FE06C088E755D988E753D988E79D
:1015F00001C08AE04FD92C988FE70E94B0015801B2
:101600008A2D801B8E1530F4F50181915F010E94B7
:10161000B001F6CF2C9A85E30E940A028331D9F3F8
:1016200085E30E940A02863149F48BE30E9423027B
:1016300086E30E9423028DE30E942302809113011E
:10164000882349F084E30E94230285E30E940A0272
:101650008D30C1F701C0ADD3A6960FB6F894DEBFAA
:101660000FBECDBFDF91CF911F910F91FF90EF90F3
:10167000DF90BF90AF909F908F900895FC012181E3
:10168000223729F45ADE81E080931301089523372D
:1016900019F4019623CF0895109213010895CF9362
:1016A000DF93E898249A2C9A8EE190E0EED82C985B
:1016B0008EE190E0EAD82C9A8DE290E0E6D880E3C3
:1016C0000E94230284E690E0E0D8C1EFD1E0FE0161
:1016D0008491813438F083E30E94230284E0DAD8D5
:1016E000CFEF0DC0FE0131966491FE0184910E94FE
:1016F00011022296F2E0CD32DF0749F7ECCF84E306
:101700000E9423028AE090E0C0D8C150C1F781E076
:1017100080931401DF91CF910895EF92FF920F9380
:101720001F93CF93DF93EC018B01F880809114011C
:10173000811101C0B4DF85E30E940A028D3051F0AF
:101740008AE518D985E416D982E514D982E512D93B
:1017500081E347C08091150190911601A091170176
:10176000B0911801892B8A2B8B2B29F50E948502B9
:1017700085E30E940A02833109F43BC08AE5FAD866
:1017800085E4F8D882E5F6D882E5F4D882E329C06A
:101790008091890690918A06A0918B06B0918C0663
:1017A0004F5F5F4F6F4F7F4F84179507A607B707AF
:1017B000E9F681E06FD88091890690918A06A09120
:1017C0008B06B0918C0640911501509116016091E5
:1017D00017017091180184179507A607B707C1F67E
:1017E000E8CFC8D885E30E940A0289D913D957DF08
:1017F0005BC0012B49F42C988FE70E94B001EC2EBE
:101800000C2F1D2FF3940AC00AE010E084E642D8A2
:101810000150110901151105C9F7EDCF802F8E195F
:101820008F1530F4F80181918F010E94B001F6CF3D
:101830002C9AC8EC85E30E940A028D30B1F485E34E
:101840000E940A028D30D9F08AE594D885E492D8B6
:1018500082E590D882E58ED883E38CD885E30E9418
:101860000A024DD9D7D81BDF0AC085E30E940A02BD
:10187000833129F781E00ED8C150E1F6E0CF8091A5
:101880001401811101C095D28091890690918A0638
:10189000A0918B06B0918C06809315019093160150
:1018A000A0931701B0931801CDB7DEB7E6E00C9412
:1018B000F91EACE0B0E0EFE5FCE00C94E01EFC01AA
:1018C0008BE0898381818A831B8282E08C8387817C
:1018D0008D8380858E8381858F83848188878581B0
:1018E000898786818A871B861C8684E10E944A0438
:1018F00060E070E0CE01019610DF8AE53BD810E091
:10190000812F90E0298130E02817390754F0E1E079
:10191000F0E0EC0FFD1FE80FF91F8081F0D81F5F8A
:10192000EFCF8091900685FF02C080E0E8D872D8A2
:101930002C96E3E00C94FC1ECF93DF93EC01809196
:101940001C01811108C090911D01911104C090915A
:101950001E019923A9F09B81903319F09F7E90344A
:1019600079F49F8198130CC0988580911D0198137C
:1019700007C0998580911E01981302C0CE0199DF9E
:1019800080911901811108C090911A01911104C030
:1019900090911B019923A9F098819B3091F49B8130
:1019A000903479F49F8198130CC0988580911A0126
:1019B000981307C0998580911B01981302C0CE012E
:1019C00078DFDF91CF910895AEE1B0E0EAEEFCE080
:1019D0000C94DF1E80911401882309F467C04A9B90
:1019E00057C08FE30E940A028F778E3108F08DE195
:1019F00089832C988FEF0E94B00110E0898118171D
:101A000060F480E00E94B001E2E0F0E0EC0FFD1F26
:101A1000E10FF11D80831F5FF1CF80E00E94B001D4
:101A2000082F80E00E94B0012C9ACE01019684DF3D
:101A30008091900684FF12C08AE70E94BA0410E0E9
:101A40008981811798F1E1E0F0E0EC0FFD1FE10FD3
:101A5000F11D80810E94BA041F5FF2CF8AE50E94C7
:101A6000BA0410E08981811750F0E1E0F0E0EC0F5A
:101A7000FD1FE10FF11D808142D81F5FF3CF8091E0
:101A8000900685FF02C0802F3AD80E940A050EC03A
:101A900085E30E940A02813149F48AE30E9423020D
:101AA00086E30E94230284E30E9423026E96E4E010
:101AB0000C94FB1EAEE1B0E0E0E6FDE00C94DF1E0E
:101AC0008C01FC018181823711F4E9DD35C0833757
:101AD00011F08636F9F44DE1BE016F5F7F4FC8010A
:101AE000029612D899270197298130E0821793072F
:101AF00029F08FED91E00E94FD041EC061E070E0CE
:101B0000F8018181833711F060E070E0CE01019629
:101B100004DE12C0813621F443E06CE171E005C0BF
:101B2000873741F443E069E171E0C80102960E9401
:101B3000840502C0109214016E96E4E00C94FB1E22
:101B40008F929F92AF92BF92DF92EF92FF920F938C
:101B50001F93CF93DF9310923A0110924F01FC0133
:101B60002181220F220F220F3381231B57E0520FB6
:101B700010923B0110E070E038E0D32ED20EFF242B
:101B8000F39447E007E0E12CC7E0D0E0A1E0B0E04B
:101B9000FD1409F47FC0FC01EE0DF11D248130E03D
:101BA000002E02C0359527950A94E2F7217033275D
:101BB000E22F002311F0015002C0E39407E06B34E0
:101BC00071F4433009F04AC0111107C0E1115FC040
:101BD00010923A0170934F0174C010E041C04F3F22
:101BE00031F56634A9F4E72FF0E0E55CFE4FE081C3
:101BF0000E2EE295E0250E2EE695E695E025EF5FA8
:101C0000E1FB882480F8912C8216930641F004C0F1
:101C1000653429F4E11103C010933A01DBCF7F5FF3
:101C2000E72FF0E0E55CFE4F108247E031C0EE2385
:101C300061F1663471F4E72FF0E0E55CFE4FA080BF
:101C40009D01042E01C0220F0A94EAF7A22AA08265
:101C50001CC0653439F06B34C1F404C04F3FD1F27D
:101C6000EE2399F0E72FF0E0E55CFE4F9E01241B88
:101C7000310947FD33955D0102C0AA0CBB1C2A95B2
:101C8000E2F795013081322B3083415001C011E0E1
:101C9000F3947ECF10933A0170934F015F1588F44F
:101CA000653431F44F3F21F47F5F70934F0104C0DE
:101CB00080913A018111F8CF81E090914F0191110B
:101CC00001C080E0DF91CF911F910F91FF90EF90C5
:101CD000DF90BF90AF909F908F90089510926F000B
:101CE000E09152018CE1E89FF0011124ED5AFE4F82
:101CF000108280918F068D7F80938F060895FC015E
:101D00002181243110F0EACF08953381662381F0D8
:101D100081E090E0032E01C0880F0A94EAF7DF010A
:101D2000A20FB11D14969C911497982B14969C9316
:101D3000332319F031503383089587E083832F5F75
:101D40002183E20FF11D14820895DC011196EC91BC
:101D50001197F0E050E02C91CF01841B950B0B966E
:101D60004797A0F430E070E0C901861B970B0B96F3
:101D7000479760F42E0F3F1F640F751F261B370B0C
:101D8000255F3F4F81E02731310508F080E008955D
:101D9000219A29985298E9E6F0E080818160808359
:101DA00010926F0110928B011092A701109287067A
:101DB000089580919006882329F00E9409030C94CD
:101DC000970208950C9400030895FC0121812111CC
:101DD0000FC0809190060E947F0540E265E08091EF
:101DE0008D0690918E060E940F050C940A050895A9
:101DF00041E060E976E001960E948405DACF08951B
:101E0000442339F04150FB01E40FF11D9081890F0B
:101E1000F7CF089520E0662339F06150FC01E60F0A
:101E2000F11D30812327F7CF822F0895A0913A0129
:101E300040E035E020E0662399F06150FC01E60FB8
:101E4000F11D5081752F72957F702727370FAA23B8
:101E500011F0442319F05F702527350F4F5FEBCF4A
:101E6000320F40E1349FC0011124822B0895FC0100
:101E700032812381A081B181A30FB11D8C9190E0AB
:101E8000022E02C0959587950A94E2F781709927F2
:101E90004FEF420F4383211104C03F5F328327E09D
:101EA00023830895A2E0B0E0E8E5FFE00C94D91E9A
:101EB0007C01A12CB12CD12CCC24C394062F10E092
:101EC00001501109A616F0F4C7014A836983CFDFD8
:101ED0004A816981882391F0442349F098012A19A5
:101EE0003B098C2D01C0880F2A95EAF706C08C2D7E
:101EF0000A2C01C0880F0A94EAF7D82A8FEFA81A93
:101F0000B80AE0CF8D2D2296EAE00C94F51EA4E0ED
:101F1000B0E0EDE8FFE00C94D81E1B8227E02C8394
:101F20009C012C5F3F4F3A83298310924F01FC01A3
:101F30002181338187E090E0831B9109F8E02F9F96
:101F4000800D911D1124853491050CF44EC0B12CE7
:101F5000A0904F01F5E0FA1558F10A2D10E040E08D
:101F600068E0CE0101969EDF055C1E4FF80180837C
:101F7000982E092C92949024092C9694969490244F
:101F8000CE01019674DF939491FACC24C0F8D12C41
:101F900090E0C816D90649F5CE01019668DF811197
:101FA00024C0F8018081B826A394A0924F01D0CF1D
:101FB00040E068E0CE01019675DF082F182F012E52
:101FC00012951025012E169516951025CE01019615
:101FD0004EDF1F5F11FBEE24E0F8F12C282F30E0DC
:101FE000E216F30611F481E0B01280E02496EBE0F3
:101FF0000C94F41EA5E0B0E0E0E0F0E10C94DC1EEF
:10200000FC011B8287E08C83CF0104969A8389832D
:102010008081853009F051C02181338187E090E0D3
:10202000831B910938E0239F800D911D1124803975
:10203000910509F042C010924F010FE010EF29E81E
:1020400080914F01E82EF12CDD24D394D80E41E08D
:1020500068E08F3088F4CE0101962D8323DF080FCE
:10206000111DF701E55CFE4F2D812827208324E216
:10207000280FD0924F01E4CFCE01019613DF080F55
:10208000111DD0924F01F701E55CFE4F80958083D2
:1020900041E068E0CE01019605DF90E0982F8827A7
:1020A000081B190B41E068E0CE010196FBDE282FEA
:1020B00030E081E00217130709F080E02596E7E0A1
:1020C0000C94F81EA4E0B0E0E8E6F0E10C94DE1E0B
:1020D0001B8227E02C839C012C5F3F4F3A8329838E
:1020E000FC0121812430A1F58381813089F5109292
:1020F0004F0180914F01082F10E0FF24F394F80E58
:1021000041E0843098F4811106C067E0CE01019669
:10211000C9DE806804C068E0CE010196C3DEF80124
:10212000E55CFE4F8083F0924F01E3CF67E0CE0184
:102130000196B8DEF801E55CFE4F880F8083F092CF
:102140004F0190913B0192959F7081E09A3009F088
:1021500080E02496E5E00C94FA1ECF93DF93FC0117
:1021600081818330E9F483818730D1F480818830A4
:10217000B9F410924F0120E0822F90E0DC01A55CC1
:10218000BE4FEF01C80FD91F8C818C9381E0820F65
:10219000833010F4282FF0CF80934F0181E001C0ED
:1021A00080E0DF91CF910895FC01908180918F06AE
:1021B000993611F0933751F4982F9370913011F4B0
:1021C000826006C080FF07C08B7F03C080FD03C014
:1021D000846080938F060895A1E0B0E0E2EFF0E123
:1021E0000C94DD1E198280911F018823B9F1809122
:1021F000900687FF17C084E30E940A02805880344B
:1022000058F0803C58F490E08055910953E0959542
:1022100087955A95E1F703C080E001C08FE08F59A0
:102220000E94BA048091900683FF16C082E70E9444
:10223000BA048091900684FF04C0809120010E941E
:10224000BA0486E60E94BA048091900684FF04C016
:1022500080911F010E94BA0410921F0180915001C9
:10226000882309F451C2429A009151012CE1029F46
:10227000800111240D5A1E4F8981811106C0C801A9
:102280006CDF882311F083E789838981811106C07F
:10229000C801B0DE882311F083E58983898181112B
:1022A00039C066E4C8014CDC8823A1F1F0904F01ED
:1022B000FA94F0924F014F2D6BE371E086E0A0DDC0
:1022C000EF2DF0E0E55CFE4FE0808E1105C093E05D
:1022D0009F1510F486E41BC0282F30E02F5F3F4F7E
:1022E0006E2D70E02617370739F423E02F1520F400
:1022F00096E4998380830EC04F2D6BE371E08CE0F0
:102300007FDD8E1106C083E08F1518F484E5898384
:1023100001C019828981811116C065E4C80110DCF1
:10232000882389F080914F01815080934F0189303B
:1023300051F469E08BE391E06DDD909144018913E4
:1023400002C085E489838981811106C0C801DFDD6F
:10235000882311F088E489838981811106C0C8012E
:10236000B1DE882311F084E789838981811133C02C
:10237000F801438D60912001C8014A96E6DC682F80
:10238000C801BDDC6BE4C801DBDB8823B1F0F09051
:102390004F01FA94F0924F016F2D8BE391E046DDEF
:1023A000EF2DF0E090913A01E91BF109E55CFE4F59
:1023B0009081891302C08BE48983898181110BC0CC
:1023C000F801838191E0980F9383873021F4138281
:1023D000818181508183898181112DC0F8018181A2
:1023E000843049F58381843031F54EE16CE3C801D6
:1023F0004896ABDC8823F9F04EE160912001C801DA
:102400004A96A3DC682FC8017ADC20E0822F90E096
:10241000FC01E55CFE4FD801A80FB91F14968C9102
:10242000808381E0820F853010F4282FEFCF8093D6
:102430004F0182E589833981332309F4D9C0209182
:10244000900620FFD5C080918F068E7F8B7F809372
:102450008F0621FD64C050913901F0904F015F114A
:102460003DC040E04517C0F4842F90E061E0640F68
:10247000FC01EB5DFE4FDC01A55CBE4F70818C91D1
:10248000781741F04093390180918F068D7F8093BA
:102490008F0604C0462FE6CF4093390145131EC076
:1024A0004091890650918A0660918B0670918C0646
:1024B0008091210190912201A0912301B0912401EA
:1024C000481B590B6A0B7B0B4632510561057105A0
:1024D00028F480918F06816080938F0640E04F152D
:1024E00060F4842F90E0FC01EB5DFE4FDC01A55C05
:1024F000BE4F8C9180834F5FF2CF40933901809122
:10250000890690918A06A0918B06B0918C068093E3
:10251000210190932201A0932301B093240134352B
:10252000E9F426FD1BC080914F018530B8F0809101
:102530003D018B3471F0893661F09DEA980F92303D
:1025400040F08D57823028F080913E0180778037AF
:1025500029F480918F06816080938F06B801CE01A7
:10256000019622DE8981843569F49091AA0A992323
:1025700049F09091AC0A911105C090918F069B7F14
:1025800090938F0690918F0692FF32C00E94BA04FA
:1025900080913A01882329F080914F0181508093E6
:1025A0004F01F12CE0914F01FE1648F4EF2DF0E0C1
:1025B000E55CFE4F80810E947F05F394F3CF80910C
:1025C0003A01882351F0F0E0E55CFE4F80818F7086
:1025D00040E361E090E00E9445058091900685FF10
:1025E00005C084E30E940A020E947F050E940A053A
:1025F0008091900682FF6FC080E70E94BA04F801C4
:10260000808140E262E090E00E940F05F801808D39
:1026100040E265E0F0E18F9FC00111240E940F05A8
:10262000F801818D40E265E0F0E18F9FC001112447
:102630000E940F05F801828D40E265E0F0E18F9F76
:10264000C00111240E940F05F801838D40E265E06E
:10265000F0E18F9FC00111240E940F05F8018281D3
:1026600040E263E090E00E940F05F801818140E2C2
:1026700063E090E00E940F05F801238140E262E0F0
:1026800087E090E0821B91090E940F0580E20E9482
:10269000BA048091900685FF08C084E30E940A0274
:1026A0000E947F0580E20E94BA04F801838187308E
:1026B00019F081818F5F8183F12CF8018181F816F7
:1026C00040F4F801EF0DF11D84810E947F05F39421
:1026D000F4CF0E940A05F8011082809150018150C8
:1026E00080935001809151018F5F843019F0809365
:1026F000510102C01092510142988981843521F420
:102700008BE391E00E94D81B2196E6E00C94F91E21
:102710001F920F920FB60F9211240BB60F922F93A8
:102720003F934F935F936F937F938F939F93AF9359
:10273000BF93EF93FF9310926F008091900683FFF9
:1027400003C08EE20E94BA04809152019CE1899FED
:10275000F0011124ED5AFE4F9081933018F09181D1
:10276000923010F4BBDA18C090915001933049F4C4
:102770008091900682FFF6CF8DE292E00E94FD04E8
:10278000F1CF9F5F909350018F5F843019F0809359
:10279000520102C010925201FF91EF91BF91AF918F
:1027A0009F918F917F916F915F914F913F912F9169
:1027B0000F900BBE0F900FBE0F901F9018959BEDC2
:1027C000980F973150F496EF960F9D3130F491E0C9
:1027D000681708F090E0892F089580E008951F920F
:1027E0000F920FB60F9211240BB60F92FF920F9318
:1027F0001F932F933F934F935F936F937F938F9389
:102800009F93AF93BF93CF93DF93EF93FF93809109
:10281000EC0A882321F082E08093EC0A63C1809166
:10282000A00A823021F483E08093A00A5BC100916A
:1028300084001091850064E0169507956A95E1F78C
:10284000C09152019CE1C99FE0011124CD5ADE4F95
:102850009881943031F40E3208F444C10F3448F0BA
:10286000B6C0953031F4073108F43CC1083208F0A5
:10287000AEC04A990DC09450923038F461E0CE0158
:102880003EDA1092850010928400009320012AC144
:1028900080912001081B00931F0110928500109267
:1028A00084009881983071F42A8121110BC021E0B5
:1028B0002A83888F8A8F098F0B3B10F4000F01C089
:1028C00006950B8F9450923020F460E0CE0117DA19
:1028D00009C182E086BBF880F11011C090912001FF
:1028E000953608F0FFC080911F01853608F0FAC0C8
:1028F000988F898F81E08A8382E08883F3C010916A
:102900001F0182E0F81273C000912001412F602F57
:10291000CE0148961ADA6A818823F9F0488D50E092
:102920009A01220F331F240F351F200F311D3595BB
:10293000279535952795288F298D30E0C901880F77
:10294000991F820F931F810F911D959587959595DE
:102950008795898F6F5F6A83C5C0643008F445C06E
:1029600020EA3FE030938900209388008A818C30F0
:1029700050F0888D298D30E0280F311D2536310526
:1029800024F084E027C08A3088F0888D298D30E0DB
:10299000280F311D253231054CF485E0888328EE5F
:1029A00033E0309389002093880015C0809196060B
:1029B000882379F0612F802F02DF882351F0688D02
:1029C000898DFDDE882329F081E08093A00A86D9D5
:1029D00089C083E088830A8F1B8F198287E08B83ED
:1029E0001C8282E080936F007DC0188277CF98E0D0
:1029F000F91225C081E9810F8D3178F460E0CE01B4
:102A00007ED9288D30E0C901880F991F820F931F4E
:102A100020912001820F911D4EC0173E08F462C024
:102A200061E0CE016CD92A8D30E0C901880F991F71
:102A3000820F931F20912001820F911D15C00091DC
:102A40002001412F602FCE014A967FD9882301F1C2
:102A500061E0CE0154D92A8D30E0C901880F991F59
:102A6000820F931F800F911D95958795959587955A
:102A70008A8F2B8D30E0C901880F991F820F931F19
:102A8000810F911D95958795959587958B8F2AC078
:102A9000412F602FCE01489658D9882301F160E07C
:102AA000CE012DD9288D30E0C901880F991F820FE2
:102AB000931F800F911D9595879595958795888F84
:102AC000298D30E0C901880F991F820F931F810F54
:102AD000911D9595879595958795898F03C087E07A
:102AE000F81275CFFF91EF91DF91CF91BF91AF9128
:102AF0009F918F917F916F915F914F913F912F9116
:102B00001F910F91FF900F900BBE0F900FBE0F9073
:102B10001F901895E09152018CE1E89FF00111247B
:102B2000ED5AFE4F8081811107C081E09091DB0A50
:102B30009F3F19F480E0089581E0089580E690E0D9
:102B40000E94C9058093960681E690E00E94C9051F
:102B50008093AA0A882321F081E28093900629C9F4
:102B60000895299A0C944504089529980C944504D5
:102B70000895A7E0B0E0EFEBF5E10C94DC1E909136
:102B80009D06943559F42091A30A3091A40A2F5F31
:102B90003F4F3093A40A2093A30A3EC0963459F4C1
:102BA0002091A10A3091A20A2F5F3F4F3093A20AD1
:102BB0002093A10A31C0953459F4209193063091A5
:102BC00094062F5F3F4F309394062093930624C0C2
:102BD0009B3459F42091A60A3091A70A2F5F3F4FEA
:102BE0003093A70A2093A60A17C0983459F420916D
:102BF000A80A3091A90A2F5F3F4F3093A90A20936A
:102C0000A80A0AC020919106309192062F5F3F4F8B
:102C1000309392062093910695E79983882399F043
:102C2000BE016E5F7F4F8091AA0A0E94B105BE016E
:102C30006C5F7F4F809196060E94B10585E58E837B
:102C400086E0D82E02C0DD24D3940E9409030E949E
:102C5000850216E080E891E084DF80E093E085DF84
:102C60001150C1F780E093E07CDF80E891E07DDFE8
:102C700080E891E076DF299887E390E00E942702C0
:102C800083E00E944A042C988FE70E94B001809153
:102C90009B068D0D0E94B001CE0101967C018C0136
:102CA000F80181918F010E94B001802F8E198D153E
:102CB000B8F380919B0690919C06892B39F087E9A7
:102CC00096E00E9405070E94B001F3CF2C9A0E9463
:102CD000850287E996E00E94DF0615E18AE30E94FB
:102CE0000A028F7731F0115021F081E00E944A04EE
:102CF000F5CF5FD82796E7E00C94F81ECF93DF93CB
:102D0000EC018981811107C0809196060E947F05A0
:102D10008091AA0A13C08436A1F48091890690910B
:102D20008A06A0918B06B0918C0640E364E00E9475
:102D300045058EE20E94BA0480919F0A0E947F0599
:102D40004DC0833709F04DC040E361E08091A30A94
:102D50009091A40A0E9445058EE20E94BA0440E3C5
:102D600061E08091A10A9091A20A0E9445058EE23D
:102D70000E94BA0440E361E080919306909194062A
:102D80000E9445058EE20E94BA0440E361E0809112
:102D9000A60A9091A70A0E9445058EE20E94BA04F5
:102DA00040E361E08091A80A9091A90A0E9445053C
:102DB0008EE20E94BA0440E361E080919106909116
:102DC00092060E9445058EE20E94BA0440E361E04B
:102DD00080919D0A90919E0A0E9445050E940A05D5
:102DE0002CC08936D9F441E066E976E0CE0102963E
:102DF0000E9484056091960680E690E00E94C405DA
:102E000041E06AEA7AE0CE0104960E94840560916E
:102E1000AA0A81E690E00E94C4050FC087E996E007
:102E20000E94DF0621966991662329F087E996E0E2
:102E30000E94E706F8CF80E09CDEDF91CF910895F5
:102E4000A1E0B0E0E5E2F7E1B6C78091A00A8823EF
:102E500009F48FC0C0908906D0908A06E0908B0656
:102E6000F0908C06833009F06AC08FE30E940A025A
:102E7000182F8630C8F083EF9EE00E94DF062C9862
:102E80008FEF0E94B00180E00E94B001082F115026
:102E900049F080E00E94B001682F83EF9EE00E941D
:102EA000E706F5CF2C9A01C000E00E94D90E1092DF
:102EB000A00A053709F05DC041E0BE016F5F7F4F9A
:102EC00089EF9EE00E9484050197A1F59981809188
:102ED000960698132FC08091FD0E853581F4809160
:102EE000F70E9091F80E892B39F083EF9EE00E9447
:102EF00005070E94BA04F3CF0E940A053AC08091E8
:102F0000F70E9091F80E04979093F80E8093F70EB9
:102F100084E090E09093F60E8093F50E6AE083EFE4
:102F20009EE00E94E706E0918506F091860688E023
:102F300009951FC083EF9EE00E94DF061AC0823011
:102F400059F4809195069C2D981B983090F00E9422
:102F5000D90E1092A00A0DC0813059F487E390E099
:102F60000E9427020E94970282E08093A00AC092EA
:102F700095062196E8E03BC7CDDD882361F083E02C
:102F80008093A50A80919D0A90919E0A0196909344
:102F90009E0A80939D0A8091A50A81508093A50A7C
:102FA000882321F083E080939F0A089581E0E1CD9A
:102FB00008951092C60A10927E0283E08093C801A1
:102FC0008FEF8093DB0A0895E9ECF1E02081211175
:102FD00005C0892BB1F080E090E00895B2E0E737BA
:102FE000FB07B8F7009751F04181DC013C91431396
:102FF00005C0428111963C91431751F0E20FF11D3B
:10300000E5CF32E0E737F30719F010F0E7E7F2E039
:10301000CF01089594E0899FF0011124E452F54F07
:1030200080818F3F91F08093C30181818093C4019F
:1030300082818093C50183818093C60121E04CE0A9
:1030400064E083EC91E00C94E807089588E792E04F
:10305000BBDF009799F02091C801FC013081231754
:1030600068F4E20FF11D808180937A0289E78093F2
:103070007B02818180937C0281E0089580E0089545
:10308000EF92FF921F93CF93DF931F92CDB7DEB7DE
:10309000182F8091900686FF18C084E599830E94BE
:1030A000BA04E12E9981F92E15E0F70181917F0193
:1030B0000E947F051150C9F78091900685FF03C0DB
:1030C0008AEF0E947F050E940A050F90DF91CF9141
:1030D0001F91FF90EF90089586E30E942302809154
:1030E0007A02833511F48BE901C08BE40E944A0413
:1030F00021E04CE065E088E792E00E94E8070E944A
:10310000970288E792E0BCCF0895E6DF80917A02CB
:10311000893631F081E08093770289E28093DB0A7F
:103120000895CF9385E390E00E94C9058093AC0A8F
:1031300086E390E00E94C9058093DA0ACFEFC0933E
:10314000CA0AC093CC0AC093CE0AC093D00AC093D7
:10315000D20AC093D40AC093D60AC093D80A29DFF2
:103160001092C90181E08093AB0AC093DC0A8FEF13
:103170009FEF9093AF0A8093AE0A1092B10A10921B
:10318000B00A1092B30A1092B20AC093E00A909368
:10319000B50A8093B40A1092B70A1092B60A109238
:1031A000B90A1092B80AC093E40A9093BB0A8093BC
:1031B000BA0A1092BD0A1092BC0A1092BF0A10926D
:1031C000BE0AC093E80A9093C10A8093C00A109285
:1031D000C30A1092C20A1092C50A1092C40ACF9173
:1031E0000895ACE0B0E0E6EFF8E1E4C56C018C01D5
:1031F0000F5F1F4F45E0BE016F5F7F4FC8010E9408
:103200008405843008F0F2C099819130A9F48330AC
:1032100061F46A8185E390E00E94C4056B8186E3D6
:1032200090E00E94C4057DDFF8C18091AC0A0E9445
:103230007F058091DA0A99C0923009F051C081303F
:1032400039F081E09A81913009F080E0F82E02C0D7
:10325000FF24F3948091C901811104C084E392E0BA
:103260000E94FD0409EC11E0F8018081882309F433
:10327000BAC0F2E007371F0708F0B5C081E0093C8B
:10328000180719F080E20E94BA04F80181810E94B7
:103290007F05F80182810E947F05FF20E1F08AE32B
:1032A0000E94BA0493E0F80180819817A0F494304A
:1032B00038F090FF05C08CE29C870E94BA049C8580
:1032C000EE24E394E90EF801E90FF11D80810E94DC
:1032D0007F059E2DE8CFF8018081080F111DC4CF16
:1032E000933049F480E090E06FDE895C91409EEA83
:1032F000981B892F3AC0903171F50AEC1AE08BECDB
:10330000E82E8AE0F82EC12CD12CF80180818F3F65
:10331000A1F0DD2019F080E20E94BA048C2D0E94F9
:103320007F058AE30E94BA04F80180810E947F052C
:10333000F70180810E947F05D3940E5F1F4FC394D5
:10334000F2E0EF0EF11C88E0C812DFCFD1104BC0C5
:1033500082E492E046C0913159F48091C80A90917C
:10336000C90A6DE770E009D5862F0E947F053BC032
:103370009231C9F51CEDE12E1AE0F12E0FED1AE0A5
:10338000C12CD12CF70180818F3FF1F0DD2019F0A5
:1033900080E20E94BA048C2D0E947F058AE30E947D
:1033A000BA04F70180810E947F05F801329780817D
:1033B0000E947F05F801319780810E947F05F80106
:1033C00080810E947F05D394F4E0EF0EF11CC3943A
:1033D0000C5F1F4F84E0C812D5CFD11004C08EE31C
:1033E00092E00E94FD040E940A0517C144E0BE015C
:1033F000695F7F4FC8010E9484054F81493608F4F8
:1034000077C07A85588569857C3009F04BC020E00B
:1034100030E080E090E0F901E452F54F70817413E0
:103420001CC0A181A51319C0A281A61316C02CE04F
:1034300023839C01220F331F280F391FF901EE0F40
:10344000FF1FE255F54F11821082F901EE0FFF1FA9
:10345000E055F54F11821082C2C07F3FD9F44083FE
:10346000518362832CE023839C01220F331F280F9A
:10347000391FF901EE0FFF1FE255F54F118210823F
:10348000F901EE0FFF1FE055F54F118210821092E7
:10349000AB0AA5C001962C5F3F4F2031310509F0E2
:1034A000BACFBBC080E090E020E030E0FC01E45205
:1034B000F54FA081A41315C0A181A51312C0A2814C
:1034C000A6130FC07383F901EE0FFF1FE20FF31F66
:1034D000EE0FFF1FE055F54F81E090E09183808370
:1034E0009CC02F5F3F4F049680319105F9F695C03F
:1034F000E9818091AC0AE81758F190E0F0E09C0176
:10350000295F3F4F2E173F071CF13A812091DA0ABD
:1035100032131EC02C812F3231F442E06CE0C60120
:103520000E9455087AC03D812C3249F43093C70A75
:1035300081E090E09093C90A8093C80A6EC0E81BAE
:10354000F90BEE0FF0E0E653F54F2083318365C0B1
:1035500080E090E039DD7C01F80101900020E9F77E
:103560003197E01BF10BF695E795BB24B394BE0EA3
:10357000C7018B0D911D895C91408F3A91050CF02C
:1035800048C0F701B1928F0121E0822F880F81504E
:103590002B15D8F441E0B801F601E80FF11DCF0179
:1035A0002C870E9484052C85233058F020FD09C00B
:1035B000D80111978C91843621F4F8018081809391
:1035C000AD0A2F5F0F5F1F4FE0CFF7E7EF16F2E076
:1035D000FF0618F5F701E20FF11D10821EC022E070
:1035E0004CE064E0CE0107960E94E8078FE08A87EE
:1035F00022E04CE064E0CE0107960E94E80782E0FA
:103600008A8722E04CE064E0CE0107960E94E8073A
:1036100004C088E392E00E94FD042C96E9E0E6C332
:103620000F931F93CF93DF939091AB0A91114FC0EB
:1036300093E0899F80011124F801EE0FFF1FE255EE
:10364000F54F94E0899FD0011124A452B54F1296F2
:103650009C91977040E850E0491B51099AEF949F64
:103660009001959F300D1124359527953595279517
:1036700031832083E801CC0FDD1FCE54D54F288144
:1036800039812F5F3F4F39832883000F111F005569
:10369000154FF801408151814115510529F424301D
:1036A0003105A9F4B7DC11C04130510539F4B2DC61
:1036B00082E090E0F8019183808309C04230510597
:1036C00031F4A8DCF8011182108219821882DF918E
:1036D000CF911F910F910895A6E0B0E0E1E7FBE1E3
:1036E0006CC32091DA0A2A831B828091C70A88233F
:1036F00041F0833019F487E791E00FC08DE790E047
:103700000CC0277030E02A513F4F4DE7429FC00167
:10371000439F900D1124959587959093C90A8093A6
:10372000C80A0BEC1AE0F12C7CE2E72EF801319785
:1037300090819F3FC1F08091AC0A8F0D8983809169
:10374000C70A882311F0EC8203C09C83F8018081B2
:103750008D8321E04CE065E0CE0101960E94E807F0
:10376000CE0101968DDCF3940E5F1F4FF8E0FF123F
:10377000DDCF8091C70A882341F0833019F410927D
:10378000C70A03C082508093C70A2696E6E031C379
:1037900080917702882351F09FDC89E28093DB0AD5
:1037A00080917702815080937702089502CC08952A
:1037B000FF920F931F93CF93DF93FC01F080018161
:1037C000C281D38114818FE58093DB0A1092770246
:1037D0008091AC0A811105C08091DA0A882309F42E
:1037E000A9C0809178028F1104C08091790280175E
:1037F00029F0DFDBF0927802009379028091C60A0B
:103800008F3F09F497C0C0937A02D0937B02109344
:103810007C02CC23F1F081111CC08091AC0A1817F6
:1038200061F0143651F08DEA8C0F823010F0CD37F4
:1038300039F48FEF8093C60A7DC0C43509F47AC08D
:103840008D2F807F803609F075C0D067D0937B02C2
:1038500057C0FCDB811105C08091C60A882309F49A
:1038600069C080917E02811107C0E091C60AF0E034
:10387000EA5BFD4FE49101C0E82FE33541F4C43524
:1038800031F49091C60A9E5F9093C60A04C0EC176B
:1038900011F08FDB4FC0882369F08091C8018E5FE3
:1038A0008093C801D3DB81110EC08091C60A8E5F60
:1038B0008093C60A8091C60AE82FF0E0E95BFD4FCD
:1038C00014911F3F59F480917A0280937E028436CE
:1038D000B9F48091AD0A80937C0212C010937A02F1
:1038E00097E790937B029091AC0A90937C028E5F55
:1038F0008093C60A10927E028E3021F01123D1F0FF
:1039000004DC18C088E792E05FDBDC01009781F0FF
:103910002C9130E087E792E0821B930BA817B90740
:1039200030F4ED01C20FD31F48814D93F7CF1C92A5
:1039300040DBE4CFCDB7DEB7E5E05CC2FF920F938A
:103940001F93CF93DF938C01EC0109900020E9F7DE
:103950002197C81BD90BFC018181823751F487E381
:1039600090E00E9427020E94970281E08093EC0A77
:1039700026C0833711F5FC2E2C988FE70E94B001EA
:103980008C2F82500E94B001E801229612E01F1590
:1039900028F489910E94B0011F5FF9CF2C9A0E94F0
:1039A00085028AE30E940A028F7721F081E00E945B
:1039B0004A04F7CF0E94970202C01092EC0ACDB7DA
:1039C000DEB7E5E017C2A0E0B4E0E8EEFCE1F3C149
:1039D0008091EC0A882309F452C0813011F580915E
:1039E000890690918A06A0918B06B0918C06209151
:1039F0007F02281709F443C085E30E940A0281313F
:103A000029F48AE30E9423020E949702809189068A
:103A100090918A06A0918B06B0918C0680937F02CC
:103A20002EC08FE30E940A02D82E2C988FEF0E949E
:103A3000B0018E010F5F1F4F7801C02E8E2D801BAD
:103A40008D1538F480E00E94B001F70181937F0169
:103A5000F5CF2C9A81E080930D01802F8C198D1564
:103A600030F4F80181918F010E94BA04F6CF0E94D0
:103A70000A058FEF80930D0181E08093EC0ADC5FF3
:103A8000E8E0B5C12091F9123091FA122115310503
:103A900021F4209103013091040180910101909162
:103AA0000201009741F48DB79EB7409105015091F6
:103AB0000601841B950B2817390718F4821B930BFA
:103AC000089580E090E0089582E40E94BA0440E204
:103AD00065E08091F9129091FA120E940F050E9400
:103AE0000A0583E50E94BA0440E265E08091030183
:103AF000909104010E940F050E940A0585E40E942E
:103B0000BA0440E265E080910101909102010E94B7
:103B10000F050E940A0586E40E94BA04B3DF40E262
:103B200065E00E940F050C940A0508951F920F92FC
:103B30000FB60F9211240BB60F922F933F934F9312
:103B40005F936F937F938F939F93AF93BF93EF9305
:103B5000FF938091F10A9091F20A892B39F08DEE52
:103B60009AE00E9405078093C60005C08091C100BD
:103B70008F7D8093C100FF91EF91BF91AF919F9195
:103B80008F917F916F915F914F913F912F910F9006
:103B90000BBE0F900FBE0F901F9018951F920F92A3
:103BA0000FB60F9211240BB60F922F933F934F93A2
:103BB0005F936F937F938F939F93AF93BF93EF9395
:103BC000FF9388B194E0892788B96091C6008091FD
:103BD000C000887121F483EF9EE00E94E706FF9108
:103BE000EF91BF91AF919F918F917F916F915F9175
:103BF0004F913F912F910F900BBE0F900FBE0F90E2
:103C00001F90189597FF04C022E02093C0009F7773
:103C10009093C5008093C40088E98093C10086E03A
:103C20008093C20008958091C10085FD0BC08091F2
:103C3000F10A9091F20A892B29F08091C1008062EB
:103C40008093C1000895E0918506F091860681E099
:103C50000995E9CF08950F931F93CF93DF93EC015C
:103C600010E0212F30E0F901EE0FFF1FE20FF31FEC
:103C7000E457FF4F0491F901EE0FFF1FE20FF31F0E
:103C8000E357FF4F25913491002399F0209739F4A1
:103C900080E20E94BA04802F0E94BA0408C0888182
:103CA000801305C0CE01F901099581E003C01F5FB3
:103CB000D8CF80E0DF91CF911F910F910895CF93DE
:103CC000C0910D0180930D018091F70E9091F80E37
:103CD000892B09F43EC083EF9EE00E9405072091E6
:103CE0008002309181028A3011F08D3011F521155A
:103CF000310551F3F901EE57FD4F108282E892E051
:103D0000AADF811111C08CE692E00E94FD0482E8D6
:103D100092E00E94F20484E592E00E94FD0480E0BB
:103D200090E099DF0E940A051092810210928002B1
:103D3000CBCF211594E0390738F6A9014F5F5F4FCB
:103D40005093810240938002F901EE57FD4F80832A
:103D5000BBCFC0930D01CF910895E4E6F0E08081E0
:103D60008B7F80832F9A84B1806B84B9269880E5FD
:103D70008CBD8DB581608DBD0895AA1BBB1B51E123
:103D800007C0AA1FBB1FA617B70710F0A61BB70BCB
:103D9000881F991F5A95A9F780959095BC01CD0170
:103DA00008952F923F924F925F926F927F928F92DF
:103DB0009F92AF92BF92CF92DF92EF92FF920F93BA
:103DC0001F93CF93DF93CDB7DEB7CA1BDB0B0FB6C4
:103DD000F894DEBF0FBECDBF09942A883988488881
:103DE0005F846E847D848C849B84AA84B984C88417
:103DF000DF80EE80FD800C811B81AA81B981CE0F0E
:103E0000D11D0FB6F894DEBF0FBECDBFED010895F2
:103E1000F999FECF92BD81BDF89A992780B5089592
:103E2000262FF999FECF1FBA92BD81BD20BD0FB6D6
:103E3000F894FA9AF99A0FBE01960895F894FFCF74
:0A3E4000020000FD122000323100E4
:00000001FF
