:100000006DC100000C94941285C1000083C10000F2
:1000100081C100007FC100007DC100007BC10000E4
:1000200079C1000077C1000075C1000073C10000F4
:1000300071C100000C9431126DC100006BC1000051
:1000400063C3000067C1000065C1000063C1000018
:100050000C94761C0C94421C5DC100005BC1000036
:1000600059C1000057C1000055C1000053C1000034
:1000700051C100004FC100004DC100001F29292BB4
:100080003929392A602A802A8A2A2D2A6D101C4291
:10009000DC0743D00246C70969AF3A41320C47CB6F
:1000A000094D030A59BF3C529E0654941756460800
:1000B00057120758900D4F353965040866471B6C79
:1000C000CA07740004751F15789702457B1F71706D
:1000D00020000000202F2000203D2000072E050DCD
:1000E000D391FF080500000C0021656A2D3B132207
:1000F000F862073F181D1CC700B0876BF8B611EAFD
:100100002A001F41000D2E2D07D3913D043200001F
:10011000060021656A55E43023B900070018146C05
:10012000070090876BF85611E92A001F4100000371
:100130000F1E2627000000030F1E25363867000318
:100140000F256740605000030F275188838100030B
:100150000F2750C8C3C2002700000000000000673E
:1001600000000000000000500000000000000081BE
:1001700000000000000000C2000000000000504C21
:100180004C310D0A00504C4C300D0A005620312ED7
:1001900036375F6E6F637265646974732043554EC2
:1001A0004F38363800202F2000203D200045525285
:1001B0003A4343410D0A000B08105B11F81547192B
:1001C0001D1A1C1BC71C001DB221B623EA00070222
:1001D0002E030D04E905CA070C0B060D210E650F51
:1001E0006A10C81193120315341733181819161B07
:1001F0004321562500261129592C812D353EC34215
:100200004F56460D0A004E2F4100454F420D0A0041
:100210004E2F41004E2F410000535300547D7DFF6F
:10022000FF4B4B7E7E0020697320756E6B6E6F777F
:100230006E2920557365206F6E65206F66003F2024
:1002400028004134353035350041343530353500FE
:10025000303000302E302E302E300032333233002A
:100260003139322E3136382E302E31003235352E9E
:100270003235352E3235352E30003139322E313689
:10028000382E302E3234340031000D2E2D07D3910C
:100290003D04320000060010B07155E43023B9006F
:1002A000070018146C070090876BF85611E92A00B4
:1002B0001F41000D2E2D07D3913D04320000060092
:1002C00010ABA5550A3023B900070018146C0700BD
:1002D00090876BF85611E92A001F410011241FBEB8
:1002E000CFEFD0E1DEBFCDBF12E0A0E0B1E0E2ECA5
:1002F000F6E802C005900D92AC33B107D9F721E1C1
:10030000ACE3B2E001C01D92AA30B207E1F703D01E
:100310000C945F4375CE88E10FB6F894809360002B
:10032000109260000FBE549A5C9A209A289A0E94FC
:10033000733299D60E9489320E94B6360E940D36D9
:1003400089EF87BD84E085BD82E084BD80936E0027
:10035000109280008AE08093810090E080E80FB6E0
:10036000F89480936100909361000FBE89E190E85A
:100370000E94A61C0E9434170E94730D83E09DE129
:1003800090935706809356060E943F1489E080930D
:100390003F020E940C1F289878940E94C71C0E945C
:1003A000950F53D20E948D1B0E94C1150E94B90A5D
:1003B0000E94501EF2CF8EBD0DB407FEFDCF8EB54C
:1003C0000895A1E0B0E0E7EEF1E00C94B741482FCA
:1003D0008A3008F048E088E0489F70011124F70156
:1003E000E25DFE4F7F018BE290E0F70164918C01AA
:1003F0000F5F1F4F49836DD4FFEFEF1AFF0A49814A
:100400000333110511F0C801F0CF4550453010F409
:1004100061E101C067E184E290E05BD42196E6E00F
:100420000C94D341CF93DF9382E090E0FC01ED5F29
:10043000FE4F6491EC0121964CD4CB32D10511F0E2
:10044000CE01F4CF87E390E0FC01EB55FF4F6491C0
:10045000EC0121963ED4C036D10511F0CE01F4CF87
:1004600088E0AFDFDF91CF9108952C98806CA3DFF7
:1004700080E0A1DF2C9A0895A1E0B0E0E2E4F2E090
:100480000C94BB412C988064698395DF6981862F29
:1004900092DF2C9A2196E2E00C94D7412C988BDFC6
:1004A0002C9A0895EF92FF920F931F93CF93DF93AF
:1004B000EC01E898249A2C9A8EE190E03CD22C989A
:1004C0008EE190E038D22C9A8DE290E034D280E335
:1004D000E5DF84E690E02FD22C9880E46CDF7E018B
:1004E00089E2E80EF11C8E010F5F1F4FCE01F6D39B
:1004F00062DF0E151F0511F0E801F5CF2C9A2C983C
:100500008EE759DF8BE290E0EC012196E7D353DFD1
:10051000C333D10511F0CE01F7CF2C9A83E3BEDFB0
:1005200081E00ED2CDB7DEB7E6E00C94D341A1E076
:10053000B0E0EDE9F2E00C94BB4122E0298341E018
:10054000BE016F5F7F4F01963CD389813ADF82E025
:1005500090E0A8DF2196E2E00C94D741CF93E89891
:1005600086E39CDFCFEF85E399DFC150807780324F
:1005700029F08AE090E0DFD1C111F5CFCF91089545
:10058000CF93CFEF84E38ADFC1508077803129F0A9
:100590008AE090E0D0D1C111F5CFE89ACF910895CB
:1005A000A2E0B0E0E6EDF2E00C94B9418C01FC0170
:1005B00081818737E9F441E0BE016F5F7F4FC80159
:1005C0000296FFD2892BA1F041E0BE016E5F7F4F02
:1005D000C8010496F6D2892B59F06A8189814CDFD3
:1005E00083E35CDFCDDF8981E7D28A81E5D22CC04D
:1005F00041E0BE016E5F7F4FC8010196E2D2892BB8
:1006000021F18A81893969F410E0812F2EDFD4D25B
:10061000812F8770873009F45AD21F5F1033A9F7F2
:1006200014C023DF182F83E4FBD18A81C5D288ED63
:1006300090E040D2812FC0D284ED90E03BD240E2E6
:1006400062E0812F90E048D242D22296E4E00C94FE
:10065000D54186E323DF1092580610924502089593
:1006600082E090E01FDF81E08093580610924502FF
:1006700008950F931F93CF93DF93082F10E0C62F99
:10068000D0E085E3F2DE801731F0CE0154D1115075
:10069000C1F781E001C080E0DF91CF911F910F9100
:1006A000089585E2E2DE8F3311F080E0089586E35D
:1006B000F5DE80913C02811104C085E891E0FAD119
:1006C00002C08DE3EBDE83E3E9DE64E081E0D1DFAD
:1006D00085E2CBDE8F3349F780913C02811103C064
:1006E0008EE791E0E7D181E0089585E3BEDE8D30AD
:1006F00051F485E2BADE8F3331F4D3DF84E3CEDE0A
:1007000080778031D9F708951F920F920FB60F921C
:1007100011248F939F93AF93BF93EF93FF93809197
:100720005A0690915B06A0915C06B0915D06019619
:10073000A11DB11D80935A0690935B06A0935C06A1
:10074000B0935D06809159068F5F80935906809122
:1007500099108F5F809399108D37A8F080910D01CB
:1007600090910E01A0910F01B09110010196A11D71
:10077000B11D80930D0190930E01A0930F01B093D2
:10078000100110929910EFE7F8E08081918118161E
:1007900019061CF4019791838083369688E0E73927
:1007A000F80799F78091990890919A08009729F095
:1007B000019790939A08809399088091AC088F3F95
:1007C00019F081508093AC08FF91EF91BF91AF91E8
:1007D0009F918F910F900FBE0F901F9018952FB77C
:1007E000F89440915A0650915B0660915C067091B6
:1007F0005D06FC0140835183628373832FBF08959C
:10080000A4E0B0E0E6E0F4E00C94BB41CE01019638
:10081000E6DF8C81D1D18B81CFD18A81CDD1898105
:10082000CBD155D12496E2E00C94D741A4E0B0E0BE
:10083000ECE1F4E00C94BB41CE010196D0DF89815C
:100840009A812496E2E00C94D7411F93CF93DF93D3
:1008500080915A0690915B06A0915C06B0915D066E
:1008600020913E02281709F462C080915A069091A7
:100870005B06A0915C06B0915D0680933E02A89550
:10088000CFE7D8E010E028813981232B19F4812F9C
:100890000E94B6191F5F26961430A9F78091990817
:1008A00090919A08892B11F40E94121A8091AC0839
:1008B000811102C00E94701A80917008882339F05B
:1008C000815080937008811102C00E945F160E94BF
:1008D0000037809159068D3750F11092590680915A
:1008E000000181FF04C085B191E0892785B984E8C2
:1008F00093E090935F0680935E060E94143380918C
:100900000D01811102C00E94183280913D028F5F5B
:1009100080933D028C3359F410923D0280917E0801
:100920008F5F80937E088C3310F010927E08DF91E9
:10093000CF911F910895880F991F0197F1F708959E
:1009400020ED37E0815020F0F9013197F1F7FACF2F
:100950000895CF93DF93DC0116968C91169784351A
:1009600009F05BC0CD010696CD91DC9111974DE069
:10097000242F30E02C173D0740F0AE014F505109B5
:100980002417350709F049C008C0FC01E20FF31F26
:1009900050815B3391F34F5FEBCFFE013E97E80F41
:1009A000F91F20812435C9F517963C9117972181AD
:1009B000321333C018963C911897228132132DC000
:1009C00019963C9119972381321327C01A963C91AE
:1009D0001A972481321321C06197C80FD91F8581CE
:1009E00088838681898381858A8382858B838385B9
:1009F0008C8384858D8385858E838D919C911197C1
:100A00000A9711969C938E9314968D919C911597AD
:100A10000A9715969C938E931497DF91CF91089522
:100A2000CF93C82F80913F0282FF03C08C2F0E947A
:100A3000632080913F0280FF13C02091C208309153
:100A4000C3082E3F81E0380738F02115324040F4CA
:100A5000CD3011F0CA3021F46C2F8EEB98E023D307
:100A600080917B088823C9F080913F0283FF15C0E5
:100A7000CA3099F0CD3011F46BE301C06C2F88E6D9
:100A800096E011D3CD3019F488E696E062DF83E07A
:100A90008093700882E080937608CF910895CF9379
:100AA000DF93EC018991882311F0BADFFBCFDF914E
:100AB000CF910895CF93DF93EC01FE0184918823B9
:100AC00019F0AEDF2196F9CFDF91CF9108958DE037
:100AD000A7DF8AE0A5CF0895A6E0B0E0E2E7F5E061
:100AE0000C94B941062F1E8215E02AE030E0115027
:100AF000E1E0F0E0EC0FFD1FE10FF11DB9010E94F4
:100B00004341805D8083CB010150009769F0111152
:100B1000EECF0AC0112359F01150E1E0F0E0EC0FE4
:100B2000FD1FE10FF11D4083015007FFF3CF81E06E
:100B300090E08C0F9D1F810F911DB1DF2696E4E0A0
:100B40000C94D541A5E0B0E0E8EAF5E00C94BB4197
:100B50001D8224E0382F3F702150E22FF0E03A3020
:100B600010F4305D01C0395CA1E0B0E0AC0FBD1FF6
:100B7000EA0FFB1F308334E0969587953A95E1F7AD
:100B80006150009739F7615067FD0BC0222349F08F
:100B90002150E1E0F0E0EC0FFD1FE20FF11D40837A
:100BA000F2CF81E090E08C0F9D1F820F911D77DFC7
:100BB0002596E2E00C94D74140E362E090E0C2CF9A
:100BC0000895DC01FB0130E090E08D918823A9F0CD
:100BD000813608F0805220ED280F2A3030F02FEBBC
:100BE000280F263030F429EC280F292B332379F0F5
:100BF00006C0803251F38A3341F3CF0105C0CF01E3
:100C000001962083415041F4861B970B0895922F43
:100C10009295907F31E0D9CFFC01D5CFFB0150E018
:100C200020E0DC013D91CD013323D1F050ED530F95
:100C30005A3050F4522F550F252F220F220F250F17
:100C40002053230F51E0EDCF303211F03E3279F4D2
:100C5000442321F0208341503196E1CF50E0E1CF91
:100C6000DF01552321F0442311F031962C93CF015D
:100C7000861B970B089520E030E05AE0FC0141917B
:100C8000CF01442379F0E0EDE40FEA30B8F7F90141
:100C90005E9F90015F9F300D112420533109240F76
:100CA000311DECCFFB01318320830895982F92955D
:100CB0009F709A3010F4905D01C0995CFB019083A5
:100CC0008F708A3010F4805D01C0895CFB018183E4
:100CD00008950E944143F999FECF08950C9434433E
:100CE00008951F93CF93DF9314E0115068F0EC0147
:100CF0002196F4DF40E261E090E0EEDE112311F096
:100D00008EE28EDECE01F1CFDF91CF911F9108955B
:100D10001F93CF93DF93162F11501F3F59F0EC0113
:100D20002196DCDF49DF112311F08AE379DE1150CF
:100D3000CE01F3CFDF91CF911F910895A2E0B0E0F3
:100D4000E4EAF6E00C94B841FC012181293691F5E2
:100D500082818D3621F466E082E690E030C08436F0
:100D600019F488E690E019C0813619F489E690E01C
:100D70000EC08E3619F48DE690E009C0873619F45E
:100D800081E790E004C08E3421F485E790E0A9DF8C
:100D900044C08F3629F48BE790E0A0DF0DDF3DC023
:100DA000803709F03AC089E790E00E943C4340E276
:100DB00060E032C02D3429F466E08AEF97E0A8DFC6
:100DC0002CC0203521F460E18AED97E0F8CF1A823B
:100DD000198242E0BE016F5F7F4F0196F2DE09810A
:100DE00010E0823021F4102F00278A81082BC801DF
:100DF00075DFF82E82E514DE40E364E0C801A2DE70
:100E000089EA91E057DE8F2DD7DE85EA91E052DE48
:100E100040E262E08F2D90E05FDE59DE2296E5E051
:100E20000C94D441A8E0B0E0E8E1F7E00C94B541BF
:100E30009C01FC0181818E010F5F1F4F893609F0F3
:100E40006BC082818D3649F446E0B801C901039632
:100E5000B8DE82E690E026E04DC0843639F4B80171
:100E6000C901039608DF88E690E03FC0813641F46F
:100E700044E0B801C9010396D1DE89E690E027C0BD
:100E80008E3641F444E0B801C9010396C7DE8DE611
:100E900090E01DC0873641F444E0B801C9010396D3
:100EA000BDDE81E790E013C0803741F4B801C9018D
:100EB0000396E1DE89E790E022E01CC08E3449F41D
:100EC00044E0B801C9010396A9DE85E790E024E07B
:100ED00011C08F3661F441E0B801C901039671DE9B
:100EE000898180939A108BE790E021E003C080E035
:100EF00090E020E078013E2D301B321708F046C00C
:100F0000F70161917F016C01FFEFCF1ADF0A28879B
:100F1000E0DEC6012885EFCF43E0B801C9010196A4
:100F200028873F834EDE28853F81823078F1C98053
:100F3000D12C823021F0DC2CCC244A81C42A7C01C3
:100F4000FF24FE01EE0DFF1D6081C60128873F834F
:100F5000C0DEEE0CFF1C8FEFE81AF80A28853F81EF
:100F6000E20EF31EF7018081882381F041E0B80191
:100F7000C70127DE892B51F0EFEFCE1ADE0A698117
:100F8000C601A7DEF2E0EF0EF11CECCF2896E8E0F8
:100F90000C94D14141E060E071E0019612DE809155
:100FA000000180FF02C0289A01C0289860910001CA
:100FB00084E390E08ECE0895A1E0B0E0E2EEF7E0A9
:100FC0000C94BB411982009731F041E0BE016F5F84
:100FD0007F4F0196F6DD89818F3F09F4FFCF88238B
:100FE00021F061E083E390E074DE10926E00F894EB
:100FF00028E088E190E00FB6F894A895809360000F
:101000000FBE20936000FFCFCF93DF93EC0161E030
:1010100080E090E05EDE63E481E090E05ADE02DA98
:1010200060E080E690E055DE60E081E690E051DE31
:1010300060E083E390E04DDE62E084E390E049DE2F
:101040000E948F1D60E080E690E043DE60E081E674
:1010500090E03FDE8981883719F080E090E0ACDFD6
:10106000DF91CF91089580E090E038DE813029F45F
:1010700081E090E033DE833419F080E090E0C4DF5B
:1010800084E390E02BDE8093000108958CE891E0EA
:1010900011DD1DCD0895FC0115821482118210828C
:1010A000138212820895FC014FB7F89484819581D0
:1010B000811522E0920798F401969583848320811C
:1010C0003181C901019691838083DF01A20FB31F93
:1010D00016966C938115924011F4118210824FBFC5
:1010E0000895FC014FB7F89484819581009719F415
:1010F0004FBF80E008950197958384838281938117
:101100009C012F5F3F4F33832283DF01A80FB91F5C
:1011100016968C912115324011F4138212824FBF22
:101120000895FA013081882369F0E1E0F0E0022EB1
:1011300001C0EE0F0A94EAF7DB01A30FB11D9C91E9
:101140009E2B9C93222319F08FEF820F0BC081E01E
:10115000830F8C3010F4FA018083FB01E80FF11D3E
:10116000108287E090E00895CF93C82F299A8823B2
:1011700019F08091420202C08091440220E1829FD6
:10118000C0011124D8DB2998CC2319F080914102A9
:1011900002C08091430220E1829FC0011124CBDB79
:1011A000CF910895A0E0B0E0E8EDF8E00C94AB41F9
:1011B0006C01162F842E622E289A80915806811178
:1011C00001C04EDACBD9A12EB12C912CC1E0D0E0D8
:1011D000712CF12C8F2D992787FD90958A159B05F1
:1011E00024F480E0C1DFF394F5CF112311F081E006
:1011F000BBDFF12C4F2C552447FC50944814590464
:101200002CF097E0392E4C0C5D1C15C087E0282E81
:10121000312C4C0C5D1CCE01022C01C0880F0A94AD
:10122000EAF7F201908189239FDFF1E02F1A31085C
:1012300090F7F394DFCF832D992787FD909568165B
:10124000790664F4CE01032C01C0880F0A94EAF7F2
:10125000F2019081892388DF3A94EDCF8E2D70DBE7
:10126000015009F0B6CF80916106882311F088D92A
:1012700002C086E313D92898CDB7DEB7E2E10C941B
:10128000C741ADE0B0E0E7E4F9E00C94AE417C0189
:10129000162F842F022F6701C60ED11C462FB701CF
:1012A00058D4D6018C931F5F1D8619825E2C67016E
:1012B00027E066246394712C8C2D8519811788F59D
:1012C00047E0A42EB12C4701880E911CF3010A2C93
:1012D00001C0EE0F0A94EAF7D4018C91AE01435F8E
:1012E0005F4FBE016F5F7F4F8E231BDF282FB1E062
:1012F000AB1AB10858F7D6018D916D01082E829571
:101300008025082E8695869580258F5F869581702D
:10131000AE01435F5F4FBE016F5F7F4F02DF282F3B
:10132000CBCF222311F0215004C08D858F5F8D8794
:1013300027E089E1809343028093440285E2809311
:101340004102809342023AE0E32E4D856CE0CE01EB
:10135000019628DF2D96EFE00C94CA41ADE0B0E095
:10136000E4EBF9E00C94BA41162F242F4BE0BE01B8
:101370006F5F7F4F01962D8724DC2D85412F682FCD
:10138000CE0101967EDF2D96E3E00C94D64143E03A
:1013900066E0E4CF0895EF920F93CF93DF93CDB73C
:1013A000DEB760970FB6F894DEBF0FBECDBF40E149
:1013B000BE016F5F7F4F019604DC69814A810B811A
:1013C0008C81809344028D81809343028E8180932F
:1013D00042028F8180934102E02EE2947FE0E72277
:1013E0000F70242F2F7042954F70CE010896DADED1
:1013F00060960FB6F894DEBF0FBECDBFDF91CF91E0
:101400000F91EF900895A9E1B0E0E9E0FAE00C94C3
:10141000B3414BE0BE016F5F7F4F0196D2DB182FC7
:10142000893009F05AC099E19093430290934402A5
:101430009093420282E38093410269E0CE010196DB
:1014400092D3E1E0F0E0EC0FFD1FE10FF11D80838E
:10145000198E1D86CE0101967C016E019BE0C90E9E
:10146000D11C27E0AA24A394B12CEC14FD0429F18B
:1014700000E010E0F501002E01C0EE0F0A94EAF73B
:10148000D7018C91AE01475E5F4FBE01635F7F4F16
:101490008E2347DE282F0F5F1F4F0830110551F7AD
:1014A000AE01475E5F4FBE01635F7F4F81E039DE73
:1014B000282FBFEFEB1AFB0AD8CF222311F02150BF
:1014C00004C0898D8F5F898F27E0EAE0EE2E03E06C
:1014D000498D6CE0CE010D9665DE6996EAE00C94CC
:1014E000CF41CF93DF93E898249A2C9A8EE190E035
:1014F00022DA2C988EE190E01EDA2C9A8DE290E0B0
:101500001ADA80E30E944E0284E690E014DACDEC11
:10151000D1E0FE0131966491FE0184910E943C026B
:101520002296F1E0CF3FDF07A1F7809146028111BB
:1015300006C083E30E944E0284E002DA0FC0C7EBCC
:10154000D1E0FE0131966491FE0184910E943C023B
:101550002296F1E0CD3CDF07A1F7EBCF84E30E94B8
:101560004E0285E30E9435028D30C1F7DF91CF91A5
:101570000895A2E3B0E0EFEBFAE00C94B94180915A
:101580004502882309F49AC04A9B84C08FE30E94D5
:1015900035028F778983823368F08AE30E944E0296
:1015A00086E30E944E028DE30E944E0284E30E9475
:1015B0004E0284C02C988FEF0E94DB0110E08981DD
:1015C000181760F480E00E94DB01E2E0F0E0EC0F2D
:1015D000FD1FE10FF11D80831F5FF1CF80E00E94AE
:1015E000DB01082F80E00E94DB012C9A84E30E943B
:1015F0004E0285E30E9435028D30C1F72A8196E7BD
:1016000092279A8392E08981E92FF0E0981768F495
:1016100041E050E04C0F5D1FE40FF51F3081245274
:10162000232720839F5F232FEECF81E090E08C0F54
:101630009D1FE80FF91F90818B81982790838091DF
:10164000610684FF10C081E6EBD910E08981811723
:1016500008F1E1E0F0E0EC0FFD1FE10FF11D8081EA
:10166000DFD91F5FF3CF81E4DBD910E089818117D7
:1016700050F0E1E0F0E0EC0FFD1FE10FF11D808183
:101680009BDA1F5FF3CF8091610685FF02C0802F38
:1016900093DA1DDA85E30E943502813029F0813129
:1016A00061F48AE30E944E0286E30E944E028DE3BB
:1016B0000E944E0284E30E944E0217D8E296E4E0B4
:1016C0000C94D5418F929F92AF92BF92DF92EF928E
:1016D000FF920F931F93CF93DF93CDB7DEB7EA97B7
:1016E0000FB6F894DEBF0FBECDBF41E38E010F5F92
:1016F0001F4FB801019665DA7C019927019729816E
:1017000030E08217930709F09BC080914502811158
:1017100003C0E7DE83E014D9DB808A8196E789275E
:101720008A8322E03981822F90E0F801E80FF91FC7
:10173000231750F4DE01A80FB91F8C9184529081B9
:10174000892780832F5FEECF80818D258083CE0116
:10175000C79645D885E30E944E0285E30E94350274
:10176000833171F1CE01C3963AD84BA95CA96DA91A
:101770007EA98FA998ADA9ADBAAD84179507A60724
:10178000B70760F44A015B01881A990AAA0ABB0AE2
:101790002DEB82169104A104B10470F44817590787
:1017A0006A077B0768F484549F4FAF4FBF4F84177D
:1017B0009507A607B70720F48DEA91E07BD924C0EE
:1017C00085E30E943502833129F6D4FE06C088E7FE
:1017D000B7D888E7B5D888E701C08AE0B1D82C9897
:1017E0008FE70E94DB0158018A2D801B8E1530F493
:1017F000F50181915F010E94DB01F6CF2C9A85E310
:101800000E9435028331D9F385E30E943502863187
:1018100049F48BE30E944E0286E30E944E028DE360
:101820000E944E0280914502882349F084E30E9481
:101830004E0285E30E9435028D30C1F701C064D1AC
:10184000EA960FB6F894DEBF0FBECDBFDF91CF9101
:101850001F910F91FF90EF90DF90BF90AF909F90FE
:101860008F900895FC012181223731F0223559F4FF
:1018700081E08093460202C01092460232DE81E08F
:10188000809345020895233719F401961BCF0895DC
:101890001092450208958F929F92AF92BF92DF926D
:1018A000EF92FF920F931F93CF93DF9310926202F8
:1018B00010927702FC012181220F220F220F338127
:1018C000231B57E0520F1092630210E070E038E0E3
:1018D000D32ED20EFF24F39447E007E0E12CC7E0BB
:1018E000D0E0A1E0B0E0FD1409F47FC0FC01EE0DF2
:1018F000F11D248130E0002E02C0359527950A9411
:10190000E2F721703327E22F002311F0015002C0CB
:10191000E39407E06B3471F4433009F04AC01111CD
:1019200007C0E1115FC0109262027093770274C029
:1019300010E041C04F3F31F56634A9F4E72FF0E0E5
:10194000ED59FD4FE0810E2EE295E0250E2EE69535
:10195000E695E025EF5FE1FB882480F8912C821664
:10196000930641F004C0653429F4E11103C01093DB
:101970006202DBCF7F5FE72FF0E0ED59FD4F108271
:1019800047E031C0EE2361F1663471F4E72FF0E0F7
:10199000ED59FD4FA0809D01042E01C0220F0A9435
:1019A000EAF7A22AA0821CC0653439F06B34C1F476
:1019B00004C04F3FD1F2EE2399F0E72FF0E0ED594C
:1019C000FD4F9E01241B310947FD33955D0102C087
:1019D000AA0CBB1C2A95E2F795013081322B30838B
:1019E000415001C011E0F3947ECF109362027093D6
:1019F00077025F1588F4653431F44F3F21F47F5F3F
:101A00007093770204C0809162028111F8CF81E067
:101A100090917702911101C080E0DF91CF911F91E9
:101A20000F91FF90EF90DF90BF90AF909F908F90BD
:101A3000089510926F00E0917A028CE1E89FF00126
:101A40001124E558FD4F1082809160068D7F8093B0
:101A500060060895FC012181243110F0EACF089539
:101A60003381662381F081E090E0032E01C0880F6E
:101A70000A94EAF7DF01A20FB11D14969C91149706
:101A8000982B14969C93332319F031503383089587
:101A900087E083832F5F2183E20FF11D1482089575
:101AA000DC011196EC911197F0E050E02C91CF0100
:101AB000841B950B0B964797A0F430E070E0C901AA
:101AC000861B970B0B96479760F42E0F3F1F640FF2
:101AD000751F261B370B255F3F4F81E027313105EE
:101AE00008F080E00895219A29985298E9E6F0E0FC
:101AF000808181608083109297021092B3021092CD
:101B0000CF0210925806089580916106882329F02B
:101B10000E9430030C94C00208950C942903089588
:101B2000FC01218121110EC08091610645D840E25F
:101B300065E080915E0690915F060E946C050C94B2
:101B40006705089541E061E676E001963AD8DCCF7A
:101B50000895442339F04150FB01E40FF11D9081B9
:101B6000890FF7CF089520E0662339F06150FC011A
:101B7000E60FF11D30812327F7CF822F0895A09122
:101B8000620240E035E020E0662399F06150FC01FC
:101B9000E60FF11D5081752F72957F702727370F43
:101BA000AA2311F0442319F05F702527350F4F5FEA
:101BB000EBCF320F40E1349FC0011124822B0895F6
:101BC000FC0132812381A081B181A30FB11D8C91D1
:101BD00090E0022E02C0959587950A94E2F78170F5
:101BE00099274FEF420F4383211104C03F5F328397
:101BF00027E023830895A2E0B0E0E1E0FEE00C944A
:101C0000B3417C01A12CB12CD12CCC24C394062F40
:101C100010E001501109A616F0F4C7014A83698348
:101C2000CFDF4A816981882391F0442349F09801EC
:101C30002A193B098C2D01C0880F2A95EAF706C0A6
:101C40008C2D0A2C01C0880F0A94EAF7D82A8FEF4E
:101C5000A81AB80AE0CF8D2D2296EAE00C94CF4165
:101C6000A4E0B0E0E6E3FEE00C94B2411B8227E082
:101C70002C839C012C5F3F4F3A832983109277027B
:101C8000FC012181338187E090E0831B9109F8E01A
:101C90002F9F800D911D1124853491050CF44EC0A9
:101CA000B12CA0907702F5E0FA1558F10A2D10E05A
:101CB00040E068E0CE0101969EDF0D591D4FF8010E
:101CC0008083982E092C92949024092C96949694B3
:101CD0009024CE01019674DF939491FACC24C0F83D
:101CE000D12C90E0C816D90649F5CE01019668DFDF
:101CF000811124C0F8018081B826A394A0927702B4
:101D0000D0CF40E068E0CE01019675DF082F182F94
:101D1000012E12951025012E169516951025CE012F
:101D200001964EDF1F5F11FBEE24E0F8F12C282F07
:101D300030E0E216F30611F481E0B01280E0249660
:101D4000EBE00C94CE41A5E0B0E0E9EAFEE00C94B3
:101D5000B641FC011B8287E08C83CF0104969A83F5
:101D600089838081853009F051C02181338187E0EA
:101D700090E0831B910938E0239F800D911D112471
:101D80008039910509F042C0109277020FE010EF00
:101D900029E880917702E82EF12CDD24D394D80E27
:101DA00041E068E08F3088F4CE0101962D8323DF77
:101DB000080F111DF701ED59FD4F2D8128272083B4
:101DC00024E2280FD0927702E4CFCE01019613DFF0
:101DD000080F111DD0927702F701ED59FD4F809544
:101DE000808341E068E0CE01019605DF90E0982F06
:101DF0008827081B190B41E068E0CE010196FBDE45
:101E0000282F30E081E00217130709F080E02596C3
:101E1000E7E00C94D241A4E0B0E0E1E1FFE00C94F3
:101E2000B8411B8227E02C839C012C5F3F4F3A83F3
:101E30002983FC0121812430A1F58381813089F53A
:101E40001092770280917702082F10E0FF24F3941C
:101E5000F80E41E0843098F4811106C067E0CE01AD
:101E60000196C9DE806804C068E0CE010196C3DE39
:101E7000F801ED59FD4F8083F0927702E3CF67E0E0
:101E8000CE010196B8DEF801ED59FD4F880F808331
:101E9000F09277029091630292959F7081E09A3060
:101EA00009F080E02496E5E00C94D441CF93DF93D1
:101EB000FC0181818330E9F483818730D1F4808112
:101EC0008830B9F41092770220E0822F90E0DC0194
:101ED000AD59BD4FEF01C80FD91F8C818C9381E0A4
:101EE000820F833010F4282FF0CF8093770281E0A7
:101EF00001C080E0DF91CF910895FC019081809135
:101F00006006993611F0933751F4982F9370913001
:101F100011F4826006C080FF07C08B7F03C080FD84
:101F200003C08460809360060895A1E0B0E0EBE90F
:101F3000FFE00C94B7411982809147028823B9F1E0
:101F40008091610687FF17C084E30E9435028058A4
:101F5000803458F0803C58F490E08055910953E06B
:101F6000959587955A95E1F703C080E001C08FE011
:101F70008F590E9410058091610683FF16C082E789
:101F80000E9410058091610684FF04C08091480280
:101F90000E94100586E60E9410058091610684FF6C
:101FA00004C0809147020E94100510924702809160
:101FB0007802882309F451C2289A009179022CE111
:101FC000029F8001112405581D4F8981811106C08F
:101FD000C8016CDF882311F083E78983898181112F
:101FE00006C0C801B0DE882311F083E589838981AA
:101FF000811139C066E4C8014EDC8823A1F1F0905C
:102000007702FA94F09277024F2D63E672E086E051
:10201000A0DDEF2DF0E0ED59FD4FE0808E1105C001
:1020200093E09F1510F486E41BC0282F30E02F5F4B
:102030003F4F6E2D70E02617370739F423E02F1538
:1020400020F496E4998380830EC04F2D63E672E0FE
:102050008CE07FDD8E1106C083E08F1518F484E5D7
:10206000898301C019828981811116C065E4C80184
:1020700012DC882389F08091770281508093770267
:10208000893051F469E083E692E06DDD90916C0255
:10209000891302C085E489838981811106C0C80142
:1020A000DFDD882311F088E489838981811106C0EE
:1020B000C801B1DE882311F084E789838981811109
:1020C00033C0F801438D60914802C8014A96E8DCAC
:1020D000682FC801BFDC6BE4C801DDDB8823B1F0E9
:1020E000F0907702FA94F09277026F2D83E692E0F7
:1020F00046DDEF2DF0E090916202E91BF109ED5908
:10210000FD4F9081891302C08BE4898389818111FD
:102110000BC0F801838191E0980F9383873021F4FD
:102120001382818181508183898181112DC0F801C1
:102130008181843049F58381843031F54EE16CE34F
:10214000C8014896ADDC8823F9F04EE16091480261
:10215000C8014A96A5DC682FC8017CDC20E0822FEC
:1021600090E0FC01ED59FD4FD801A80FB91F14965E
:102170008C91808381E0820F853010F4282FEFCF7F
:102180008093770282E589833981332309F4D9C0AA
:102190002091610620FFD5C0809160068E7F8B7FE5
:1021A0008093600621FD64C050916102F090770237
:1021B0005F113DC040E04517C0F4842F90E061E01E
:1021C000640FFC01E35BFD4FDC01AD59BD4F708135
:1021D0008C91781741F040936102809160068D7F69
:1021E0008093600604C0462FE6CF409361024513FA
:1021F0001EC040915A0650915B0660915C0670913A
:102200005D068091490290914A02A0914B02B091E3
:102210004C02481B590B6A0B7B0B4632510561057A
:10222000710528F48091600681608093600640E02B
:102230004F1560F4842F90E0FC01E35BFD4FDC015F
:10224000AD59BD4F8C9180834F5FF2CF40936102B7
:1022500080915A0690915B06A0915C06B0915D0654
:102260008093490290934A02A0934B02B0934C0290
:102270003435E9F426FD1BC0809177028530B8F033
:10228000809165028B3471F0893661F09DEA980F78
:10229000923040F08D57823028F08091660280772E
:1022A000803729F480916006816080936006B801D0
:1022B000CE01019622DE8981843569F490917B08F4
:1022C000992349F090917D08911105C09091600685
:1022D0009B7F909360069091600692FF32C00E94AF
:1022E000100580916202882329F080917702815045
:1022F00080937702F12CE0917702FE1648F4EF2DDF
:10230000F0E0ED59FD4F80810E94DC05F394F3CF9E
:1023100080916202882351F0F0E0ED59FD4F8081F9
:102320008F7040E361E090E00E94A2058091610619
:1023300085FF05C084E30E9435020E94DC050E94EF
:1023400067058091610682FF6FC080E70E941005DB
:10235000F801808140E262E090E00E946C05F801A3
:10236000808D40E265E0F0E18F9FC00111240E9462
:102370006C05F801818D40E265E0F0E18F9FC001BE
:1023800011240E946C05F801828D40E265E0F0E1C5
:102390008F9FC00111240E946C05F801838D40E2DB
:1023A00065E0F0E18F9FC00111240E946C05F801E7
:1023B000828140E263E090E00E946C05F801818137
:1023C00040E263E090E00E946C05F801238140E266
:1023D00062E087E090E0821B91090E946C0580E238
:1023E0000E9410058091610685FF08C084E30E9469
:1023F00035020E94DC0580E20E941005F80183810D
:10240000873019F081818F5F8183F12CF801818100
:10241000F81640F4F801EF0DF11D84810E94DC05EF
:10242000F394F4CF0E946705F8011082809178023E
:10243000815080937802809179028F5F843019F007
:102440008093790202C0109279022898898184359C
:1024500021F483E692E00E94801A2196E6E00C9433
:10246000D3411F920F920FB60F9211242F933F93D7
:102470004F935F936F937F938F939F93AF93BF938C
:10248000EF93FF9310926F008091610683FF03C06A
:102490008EE20E94100580917A029CE1899FF001F2
:1024A0001124E558FD4F9081933018F091819230BE
:1024B00010F4BFDA18C090917802933049F48091FB
:1024C000610682FFF6CF8FEF91E00E945A05F1CFAF
:1024D0009F5F909378028F5F843019F080937A0227
:1024E00002C010927A02FF91EF91BF91AF919F913C
:1024F0008F917F916F915F914F913F912F910F90AD
:102500000FBE0F901F9018959BED980F973150F4C8
:1025100096EF960F9D3130F491E0681708F090E047
:10252000892F089580E008951F920F920FB60F92A1
:102530001124FF920F931F932F933F934F935F9319
:102540006F937F938F939F93AF93BF93CF93DF93BB
:10255000EF93FF938091BD08882321F082E0809360
:10256000BD0863C180917108823021F483E08093BB
:1025700071085BC1009184001091850064E016959C
:1025800007956A95E1F7C0917A029CE1C99FE00145
:102590001124C558DD4F9881943031F40E3208F47F
:1025A00044C10F3448F0B6C0953031F4073108F417
:1025B0003CC1083208F0AEC04A990DC09450923028
:1025C00038F461E0CE0146DA109285001092840062
:1025D000009348022AC180914802081B00934702D9
:1025E00010928500109284009881983071F42A81AD
:1025F00021110BC021E02A83888F8A8F098F0B3B22
:1026000010F4000F01C006950B8F9450923020F407
:1026100060E0CE011FDA09C182E086BBF880F110CC
:1026200011C090914802953608F0FFC08091470292
:10263000853608F0FAC0988F898F81E08A8382E01E
:102640008883F3C01091470282E0F81273C00091B2
:102650004802412F602FCE01489622DA6A818823F2
:10266000F9F0488D50E09A01220F331F240F351FD7
:10267000200F311D3595279535952795288F298D64
:1026800030E0C901880F991F820F931F810F911DA0
:102690009595879595958795898F6F5F6A83C5C056
:1026A000643008F445C020EA3FE03093890020936D
:1026B00088008A818C3050F0888D298D30E0280F79
:1026C000311D2536310524F084E027C08A3088F09A
:1026D000888D298D30E0280F311D253231054CF4CD
:1026E00085E0888328EE33E03093890020938800CA
:1026F00015C080916706882379F0612F802F04DF51
:10270000882351F0688D898DFFDE882329F081E0D0
:10271000809371088ED989C083E088830A8F1B8FCC
:10272000198287E08B831C8282E080936F007DC0DA
:10273000188277CF98E0F91225C081E9810F8D3199
:1027400078F460E0CE0186D9288D30E0C901880F89
:10275000991F820F931F20914802820F911D4EC036
:10276000173E08F462C061E0CE0174D92A8D30E0D2
:10277000C901880F991F820F931F20914802820F71
:10278000911D15C000914802412F602FCE014A963D
:1027900087D9882301F161E0CE015CD92A8D30E030
:1027A000C901880F991F820F931F800F911D959566
:1027B0008795959587958A8F2B8D30E0C901880F75
:1027C000991F820F931F810F911D95958795959560
:1027D00087958B8F2AC0412F602FCE01489660D9F4
:1027E000882301F160E0CE0135D9288D30E0C901A0
:1027F000880F991F820F931F800F911D95958795C4
:1028000095958795888F298D30E0C901880F991F8C
:10281000820F931F810F911D9595879595958795AB
:10282000898F03C087E0F81275CFFF91EF91DF9198
:10283000CF91BF91AF919F918F917F916F915F9158
:102840004F913F912F911F910F91FF900F900FBECD
:102850000F901F901895E0917A028CE1E89FF001AB
:102860001124E558FD4F8081811107C081E09091CE
:10287000AC089F3F19F480E0089581E0089580E658
:1028800090E00E946E068093670681E690E00E94C9
:102890006E0680937B08882321F081E28093610695
:1028A00033C90895299A0C949B04089529980C948F
:1028B0009B040895A7E0B0E0E0E6F4E10C94B64193
:1028C00090916E06943559F42091740830917508F2
:1028D0002F5F3F4F30937508209374083EC09634A5
:1028E00059F420917208309173082F5F3F4F309355
:1028F00073082093720831C0953459F4209164060E
:10290000309165062F5F3F4F309365062093640634
:1029100024C09B3459F420917708309178082F5FB8
:102920003F4F309378082093770817C0983459F4B4
:102930002091790830917A082F5F3F4F30937A08C1
:10294000209379080AC020916206309163062F5FB8
:102950003F4F309363062093620695E7998388235F
:1029600099F0BE016E5F7F4F80917B080E945606F2
:10297000BE016C5F7F4F809167060E94560685E519
:102980008E8386E0D82E02C0DD24D3940E943003CB
:102990000E94AE0216E080E891E084DF80E093E0E0
:1029A00085DF1150C1F780E093E07CDF80E891E0A3
:1029B0007DDF80E891E076DF299887E390E00E9450
:1029C000520283E00E94A0042C988FE70E94DB0152
:1029D00080916C068D0D0E94DB01CE0101967C0179
:1029E0008C01F80181918F010E94DB01802F8E19EB
:1029F0008D15B8F380916C0690916D06892B39F096
:102A000088E696E00E9471080E94DB01F3CF2C9AC1
:102A10000E94AE0288E696E00E944B0815E18AE328
:102A20000E9435028F7731F0115021F081E00E9431
:102A3000A004F5CF69D82796E7E00C94D241CF9354
:102A4000DF93EC018981811107C0809167060E94A4
:102A5000DC0580917B0813C08436A1F480915A066E
:102A600090915B06A0915C06B0915D0640E364E046
:102A70000E94A2058EE20E941005809170080E94BB
:102A8000DC054DC0833709F04DC040E361E0809123
:102A90007408909175080E94A2058EE20E941005AC
:102AA00040E361E080917208909173080E94A20552
:102AB0008EE20E94100540E361E0809164069091EF
:102AC00065060E94A2058EE20E94100540E361E0C7
:102AD00080917708909178080E94A2058EE20E946A
:102AE000100540E361E08091790890917A080E9496
:102AF000A2058EE20E94100540E361E0809162062B
:102B0000909163060E94A2058EE20E94100540E3A8
:102B100061E080916E0890916F080E94A2050E946A
:102B200067052CC08936D9F441E067E676E0CE012E
:102B300002960E94E1056091670680E690E00E949F
:102B4000690641E06BE778E0CE0104960E94E1055A
:102B500060917B0881E690E00E9469060FC088E6DC
:102B600096E00E944B0821966991662329F088E639
:102B700096E00E945308F8CF80E09CDEDF91CF9171
:102B80000895A1E0B0E0E7ECF5E10C94B541809147
:102B90007108882309F48FC0C0905A06D0905B0654
:102BA000E0905C06F0905D06833009F06AC08FE328
:102BB0000E943502182F8630C8F084EC9AE00E94FB
:102BC0004B082C988FEF0E94DB0180E00E94DB0114
:102BD000082F115049F080E00E94DB01682F84EC3F
:102BE0009AE00E945308F5CF2C9A01C000E00E94A1
:102BF000840D10927108053709F05DC041E0BE01F7
:102C00006F5F7F4F8AEC9AE00E94E1050197A1F582
:102C100099818091670698132FC08091CE0A8535DF
:102C200081F48091C80A9091C90A892B39F084EC0B
:102C30009AE00E9471080E941005F3CF0E94670578
:102C40003AC08091C80A9091C90A04979093C90A22
:102C50008093C80A84E090E09093C70A8093C60AE4
:102C60006AE084EC9AE00E945308E0915606F091E5
:102C7000570688E009951FC084EC9AE00E944B0833
:102C80001AC0823059F4809166069C2D981B9830AA
:102C900090F00E94840D109271080DC0813059F49B
:102CA00087E390E00E9452020E94C00282E080937B
:102CB0007108C09266062196E8E00C94D141CBDD04
:102CC000882361F083E08093760880916E0890916C
:102CD0006F08019690936F0880936E088091760834
:102CE000815080937608882321F083E080937008D8
:102CF000089581E0DFCD0895109297081092A60301
:102D000083E08093F0028FEF8093AC080895E1EFA9
:102D1000F2E02081211105C0892BB1F080E090E024
:102D20000895B3E0EF39FB07B8F7009751F0418100
:102D3000DC013C91431305C0428111963C9143173D
:102D400051F0E20FF11DE5CF33E0EF39F30719F051
:102D500010F0EFE9F3E0CF01089594E0899FF001CE
:102D60001124E355F74F80818F3F91F08093EB0260
:102D700081818093EC0282818093ED028381809334
:102D8000EE0221E04CE064E08BEE92E00C9441090D
:102D9000089580EA93E0BBDF009799F02091F0025C
:102DA000FC013081231768F4E20FF11D80818093CC
:102DB000A20389E78093A30381818093A40381E028
:102DC000089580E00895EF92FF921F93CF93DF93D1
:102DD0001F92CDB7DEB7182F8091610686FF18C00D
:102DE00084E599830E941005E12E9981F92E15E062
:102DF000F70181917F010E94DC051150C9F7809194
:102E0000610685FF03C08AEF0E94DC050E9467050A
:102E10000F90DF91CF911F91FF90EF90089586E37F
:102E20000E944E028091A203833511F48BE901C008
:102E30008BE40E94A00421E04CE065E080EA93E08E
:102E40000E9441090E94C00280EA93E0BCCF08952D
:102E5000E6DF8091A203893631F081E080939F0301
:102E600089E28093AC080895CF9385E390E00E94B7
:102E70006E0680937D0886E390E00E946E06809344
:102E8000AB08CFEFC0939B08C0939D08C0939F08E9
:102E9000C093A108C093A308C093A508C093A70836
:102EA000C093A90829DF1092F10281E080937C0889
:102EB000C093AD088FEF9FEF9093800880937F08B9
:102EC0001092820810928108109284081092830850
:102ED000C093B10890938608809385081092880863
:102EE0001092870810928A0810928908C093B5083A
:102EF00090938C0880938B0810928E0810928D0806
:102F00001092900810928F08C093B908909392087D
:102F1000809391081092940810929308109296084A
:102F200010929508CF910895ACE0B0E0EAE9F7E19E
:102F30000C94B4416C018C010F5F1F4F45E0BE0142
:102F40006F5F7F4FC8010E94E105843008F0F3C035
:102F500099819130A9F4833061F46A8185E390E02E
:102F60000E9469066B8186E390E00E9469067CDF1F
:102F7000F9C180917D080E94DC058091AB089AC060
:102F8000923009F051C0813039F081E09A8191305E
:102F900009F080E0F82E02C0FF24F3948091F10242
:102FA000811104C086E092E00E945A0501EF12E010
:102FB000F8018081882309F4BBC0F3E00F391F07B3
:102FC00008F0B6C082E0013F180719F080E20E94C5
:102FD0001005F80181810E94DC05F80182810E94C0
:102FE000DC05FF20E1F08AE30E94100593E0F80180
:102FF00080819817A0F4943038F090FF05C08CE2DF
:103000009C870E9410059C85EE24E394E90EF8014C
:10301000E90FF11D80810E94DC059E2DE8CFF801AB
:103020008081080F111DC4CF933049F480E090E0F7
:103030006EDE815F92409EEA981B892F3BC09031E3
:1030400071F50BE918E08CE9E82E88E0F82EC12C28
:10305000D12CF80180818F3FA1F0DD2019F080E2B2
:103060000E9410058C2D0E94DC058AE30E94100549
:10307000F80180810E94DC05F70180810E94DC0557
:10308000D3940E5F1F4FC394F2E0EF0EF11C88E063
:10309000C812DFCFD1104CC084E192E047C091311B
:1030A00061F48091990890919A086DE770E00E9410
:1030B0004341862F0E94DC053BC09231C9F51DEAD1
:1030C000E12E18E0F12E00EB18E0C12CD12CF70115
:1030D00080818F3FF1F0DD2019F080E20E94100521
:1030E0008C2D0E94DC058AE30E941005F701808187
:1030F0000E94DC05F801329780810E94DC05F8010E
:10310000319780810E94DC05F80180810E94DC05F6
:10311000D394F4E0EF0EF11CC3940C5F1F4F84E0D6
:10312000C812D5CFD11004C080E192E00E945A05A8
:103130000E94670517C144E0BE01695F7F4FC80167
:103140000E94E1054F81493608F477C07A85588599
:1031500069857C3009F04BC020E030E080E090E0F1
:10316000F901E355F74F708174131CC0A181A513B9
:1031700019C0A281A61316C02CE023839C01220F44
:10318000331F280F391FF901EE0FFF1FE158F74FCA
:1031900011821082F901EE0FFF1FEF57F74F1182D6
:1031A0001082C2C07F3FD9F44083518362832CE0F8
:1031B00023839C01220F331F280F391FF901EE0FC3
:1031C000FF1FE158F74F11821082F901EE0FFF1F28
:1031D000EF57F74F1182108210927C08A5C001961C
:1031E0002C5F3F4F2031310509F0BACFBBC080E0E2
:1031F00090E020E030E0FC01E355F74FA081A413FC
:1032000015C0A181A51312C0A281A6130FC073839C
:10321000F901EE0FFF1FE20FF31FEE0FFF1FEF5735
:10322000F74F81E090E0918380839CC02F5F3F4FF8
:10323000049680319105F9F695C0E98180917D0869
:10324000E81758F190E0F0E09C01295F3F4F2E17FE
:103250003F071CF13A812091AB0832131EC02C812C
:103260002F3231F442E06CE0C6010E94AE097AC010
:103270003D812C3249F43093980881E090E090939E
:103280009A08809399086EC0E81BF90BEE0FF0E0E6
:10329000E556F74F2083318365C080E090E037DD4D
:1032A0007C01F80101900020E9F73197E01BF10B58
:1032B000F695E795BB24B394BE0EC7018B0D911D07
:1032C000815F92408F3A91050CF048C0F701B192AE
:1032D0008F0121E0822F880F81502B15D8F441E017
:1032E000B801F601E80FF11DCF012C870E94E1051E
:1032F0002C85233058F020FD09C0D80111978C91FE
:10330000843621F4F801808180937E082F5F0F5F5F
:103310001F4FE0CFFFE9EF16F3E0FF0618F5F701C6
:10332000E20FF11D10821EC022E04CE064E0CE01ED
:1033300007960E9441098FE08A8722E04CE064E012
:10334000CE0107960E94410982E08A8722E04CE084
:1033500064E0CE0107960E94410904C08AE092E031
:103360000E945A052C96E9E00C94D0410F931F93CC
:10337000CF93DF9390917C0891114FC093E0899F88
:1033800080011124F801EE0FFF1FE158F74F94E080
:10339000899FD0011124A355B74F12969C91977025
:1033A00040E850E0491B51099AEF949F9001959F86
:1033B000300D112435952795359527953183208338
:1033C000E801CC0FDD1FCD57D74F288139812F5F02
:1033D0003F4F39832883000F111F0F57174FF801F4
:1033E000408151814115510529F424303105A9F45A
:1033F000B4DC11C04130510539F4AFDC82E090E01B
:10340000F8019183808309C04230510531F4A5DC75
:10341000F8011182108219821882DF91CF911F91D9
:103420000F910895A6E0B0E0E8E1FAE10C94B7410D
:103430002091AB082A831B8280919808882341F051
:10344000833019F487E791E00FC08DE790E00CC05E
:10345000277030E02A513F4F4DE7429FC001439F04
:10346000900D11249595879590939A0880939908CB
:103470000CE918E0F12C7CE2E72EF80131979081FD
:103480009F3FC1F080917D088F0D898380919808BE
:10349000882311F0EC8203C09C83F80180818D8326
:1034A00021E04CE065E0CE0101960E944109CE0189
:1034B000019689DCF3940E5F1F4FF8E0FF12DDCF19
:1034C00080919808882341F0833019F4109298086D
:1034D00003C08250809398082696E6E00C94D3416E
:1034E00080919F03882351F09ADC89E28093AC0895
:1034F00080919F03815080939F030895FDCB089591
:10350000FF920F931F93CF93DF93FC01F080018113
:10351000C281D38114818FE58093AC0810929F0300
:1035200080917D08811105C08091AB08882309F442
:10353000A9C08091A0038F1104C08091A1038017BE
:1035400029F0DADBF092A0030093A10380919708A1
:103550008F3F09F497C0C093A203D093A3031093A5
:10356000A403CC23F1F081111CC080917D081817B1
:1035700061F0143651F08DEA8C0F823010F0CD37A7
:1035800039F48FEF809397087DC0C43509F47AC071
:103590008D2F807F803609F075C0D067D093A3034C
:1035A00057C0F7DB811105C080919708882309F483
:1035B00069C08091A603811107C0E0919708F0E0EF
:1035C000E85EFD4FE49101C0E82FE33541F4C435D6
:1035D00031F4909197089E5F9093970804C0EC1780
:1035E00011F08ADB4FC0882369F08091F0028E5F72
:1035F0008093F002CEDB81110EC0809197088E5F20
:103600008093970880919708E82FF0E0E75EFD4FE0
:1036100014911F3F59F48091A2038093A60384362E
:10362000B9F480917E088093A40312C01093A20382
:1036300097E79093A30390917D089093A4038E5FE6
:10364000809397081092A6038E3021F01123D1F0B9
:10365000FFDB18C080EA93E05ADBDC01009781F0C1
:103660002C9130E08FE993E0821B930BA817B907E8
:1036700030F4ED01C20FD31F48814D93F7CF1C9258
:103680003BDBE4CFCDB7DEB7E5E00C94D441FF924D
:103690000F931F93CF93DF938C01EC0109900020CF
:1036A000E9F72197C81BD90BFC018181823751F4BE
:1036B00087E390E00E9452020E94C00281E0809362
:1036C000BD0826C0833711F5FC2E2C988FE70E9489
:1036D000DB018C2F82500E94DB01E801229612E070
:1036E0001F1528F489910E94DB011F5FF9CF2C9AE6
:1036F0000E94AE028AE30E9435028F7721F081E0BA
:103700000E94A004F7CF0E94C00202C01092BD0820
:10371000CDB7DEB7E5E00C94D441A0E0B2E0E3E938
:10372000FBE10C94B5418091BD08882309F452C097
:10373000813011F580915A0690915B06A0915C064C
:10374000B0915D062091A703281709F443C085E3D3
:103750000E943502813129F48AE30E944E020E94C0
:10376000C00280915A0690915B06A0915C06B091D0
:103770005D068093A7032EC08FE30E943502D82EEA
:103780002C988FEF0E94DB018E010F5F1F4F780195
:10379000C02E8E2D801B8D1538F480E00E94DB0139
:1037A000F70181937F01F5CF2C9A81E080933F024E
:1037B000802F8C198D1530F4F80181918F010E94B2
:1037C0001005F6CF0E9467058FEF80933F0281E0DE
:1037D0008093BD08DE5FE8E00C94D1412091061192
:1037E000309107112115310521F4209121013091EB
:1037F000220180911F0190912001009741F48DB723
:103800009EB74091230150912401841B950B2817EA
:10381000390718F4821B930B089580E090E0089517
:1038200082E40E94100540E265E0809106119091CB
:1038300007110E946C050E94670583E50E94100530
:1038400040E265E080912101909122010E946C0587
:103850000E94670585E40E94100540E265E08091C2
:103860001F01909120010E946C050E94670586E46B
:103870000E941005B3DF40E265E00E946C050C94E5
:10388000670508951F920F920FB60F9211242F9380
:103890003F934F935F936F937F938F939F93AF93D8
:1038A000BF93EF93FF938091C2089091C308892B37
:1038B00039F08EEB98E00E9471088093C60005C035
:1038C0008091C1008F7D8093C100FF91EF91BF91E6
:1038D000AF919F918F917F916F915F914F913F91A8
:1038E0002F910F900FBE0F901F9018951F920F925F
:1038F0000FB60F9211242F933F934F935F936F93C3
:103900007F938F939F93AF93BF93EF93FF9385B173
:1039100091E0892785B96091C6008091C0008871C7
:1039200021F484EC9AE00E945308FF91EF91BF913B
:10393000AF919F918F917F916F915F914F913F9147
:103940002F910F900FBE0F901F90189597FF04C0F6
:1039500022E02093C0009F779093C5008093C4001D
:1039600088E98093C10086E08093C2000895809129
:10397000C10085FD0BC08091C2089091C308892BBE
:1039800029F08091C10080628093C1000895E09188
:103990005606F091570681E00995E9CF08950F93F7
:1039A0001F93CF93DF93EC0110E0212F30E0F9015A
:1039B000EE0FFF1FE20FF31FE457FF4F0491F901D1
:1039C000EE0FFF1FE20FF31FE357FF4F25913491D6
:1039D000002399F0209739F480E20E941005802F8F
:1039E0000E94100508C08881801305C0CE01F9012E
:1039F000099581E003C01F5FD8CF80E0DF91CF91B0
:103A00001F910F910895CF93C0913F0280933F0281
:103A10008091C80A9091C90A892B09F43EC084ECB0
:103A20009AE00E9471082091A8033091A9038A307E
:103A300011F08D3011F52115310551F3F901E655DD
:103A4000FC4F10828AEA93E0AADF811111C08EE355
:103A500092E00E945A058AEA93E00E944F0586E2AE
:103A600092E00E945A0580E090E099DF0E9467058D
:103A70001092A9031092A803CBCF211592E0390729
:103A800038F6A9014F5F5F4F5093A9034093A803F5
:103A9000F901E655FC4F8083BBCFC0933F02CF9125
:103AA00008951F93CF93DF93EC0116E0115048F077
:103AB00089910E94DC051123C9F38AE30E94100555
:103AC000F5CFDF91CF911F910895EF92FF920F9361
:103AD0001F93CF93DF93EB01FC01E080F180FE2484
:103AE000EF24FE24028113811027012710276F2D58
:103AF000CE010E9469066E2DCE0101960E946906D4
:103B0000612FCE0102960E946906602FCE010396B6
:103B10000E946906CDB7DEB7E6E00C94D341A5E17B
:103B2000B0E0E5E9FDE10C94B94189E68A8384E6D9
:103B30008B8368E872E0CE0104960E940943CE01AF
:103B400001960E94120781E68B836AE772E0CE013C
:103B500004960E940943CE0101960E9412078EE648
:103B60008B836CE672E0CE0104960E940943CE017D
:103B700001960E94120787E68B8360E672E0CE0111
:103B800004960E940943CE0101960E94120780E725
:103B90008B836BE572E0CE0104960E940943CE014F
:103BA00001960E9412078EE48B8363E572E0CE01DA
:103BB00004960E940943CE0101960E9412078FE6E7
:103BC0008B8360E572E0CE0104960E940943CE012A
:103BD00001960E9412078AEF97E00E946E06843ACF
:103BE00071F58BEF97E00E946E06803541F58CEF02
:103BF00097E00E946E06853511F58DE68B8369E4AA
:103C000072E0CE0104960E9409438DEF97E00E9476
:103C10006E06BE01665F7F4F0E9456068EEF97E0EC
:103C20000E946E06BE01645F7F4F0E9456068FEFB2
:103C300097E00E946E06BE01625F7F4F26C08DE650
:103C40008B8362E472E0CE0104960E940943E0E0B7
:103C5000F0E000E010E081E2809357009491090FBA
:103C6000111D3196E032F105B9F7BE01665F7F4F55
:103C700080E00E945606BE01645F7F4F812F0E9444
:103C80005606BE01625F7F4F802F0E945606188A3B
:103C9000CE0101960E9412076596E4E00C94D5418E
:103CA00069D58EEC9CE00E94B82D892B39F18EEC01
:103CB0009CE00E94AE2D87EE9CE09093E60C8093F2
:103CC000E50C82E09CD68091D80C9091D90C892B80
:103CD00019F00E94A72C7CD48AE690E19093E20C24
:103CE0008093E10C85E08BD68091D80C9091D90C13
:103CF000892B19F00E94A72C6BD465D58AEC9CE027
:103D00000E94B82D892B31F08AEC9CE00E94AE2DE8
:103D10000C94DD2B0895A0E0B0E0E1E9FEE10C9405
:103D2000B5418C01EB01CB010E946E067E018FEF45
:103D3000E81AF80AC7010E946E06D82ECE010E942A
:103D40006E06C82EC7010E946E062C2D30E03D295C
:103D5000F801318320837E01F2E0EF0EF11CC701F0
:103D60000E946E062396CE010E946E06D82EC701D1
:103D70000E946E06F82ECE010E946E062F2D30E0B6
:103D80003D29F80133832283CDB7DEB7E8E00C94F8
:103D9000D141A4E0B0E0EFECFEE10C94BB4169E658
:103DA00070E0CE010196B7DF89819A819093050F6B
:103DB0008093040F8B819C819093070F8093060F53
:103DC00061E770E0CE010196A6DF89819A81909328
:103DD000FD0E8093FC0E8B819C819093FF0E80934F
:103DE000FE0E6DE670E0CE01019695DF89819A8125
:103DF0009093010F8093000F8B819C819093030F10
:103E00008093020F86E794E0DFD347D10E943730DA
:103E10002496E2E00C94D741549A5C9888EC0E9476
:103E2000A0045C9A88EC0E94A004B4D382E690E0DF
:103E30000E946E068093AD0583E690E00E946E06B8
:103E40008093AE0584E690E00E946E068093AF05F5
:103E500085E690E00E946E068093B00586E690E0CD
:103E60000E946E068093B10587E690E00E946E0680
:103E70008093B2058DEA95E08FD38091AD05809354
:103E8000B4058091AE058093B5058091AF05809310
:103E9000B6058091B0058093B7058091B1058093F8
:103EA000B8058091B2058093B90541D510924D06B1
:103EB00010924C066FE170E08EEC9CE00E94A22D07
:103EC00062EE74E08AEC9CE00E94A22D88E690E00D
:103ED0000E946E06882351F086EA94E075D38DEA3D
:103EE00095E00E9403301092AC05089582E0809323
:103EF000AC054FCF08951F93CF93DF93FC018181D1
:103F0000893611F489DF2BC08336C1F4C4E0DFE0C9
:103F100014E0115060F0899140E261E090E00E946D
:103F20006C051123B1F38EE20E941005F2CF80E2FE
:103F30000E94100584EB95E0B4DD0AC0843659F484
:103F40008091AB058F5F83708093AB050E94DC0589
:103F50000E94670504C08E3611F40E941832DF916A
:103F6000CF911F910895CF93DF93EC01009711F447
:103F700010DF3CC069E670E04696A7DD8E899F8918
:103F80009093050F8093040F888D998D9093070F60
:103F90008093060F61E770E0CE01829696DD8AA1DC
:103FA0009BA19093FD0E8093FC0E8CA19DA19093FC
:103FB000FF0E8093FE0E6DE670E0CE014A9685DD21
:103FC0008A8D9B8D9093010F8093000F8C8D9D8D1A
:103FD0009093030F8093020FEB81FC811582148272
:103FE00086E794E0F1D259D00E943730DF91CF912B
:103FF0000895E091E50CF091E60C248135818091E3
:10400000D20C9091D30C2817390709F470C0089589
:104010008091AC05823029F00E94D32E8093AC05AC
:104020000895E091E10CF091E20C309759F0809105
:10403000E00C81FF07C08481958181159B4711F4B5
:104040000C94483208951F93CF93DF93C091E50CF1
:10405000D091E60C8091C2089091C308892BC9F0D9
:104060008D8D8A3F49F482E0CAD40E94A72CB0D239
:1040700082E00E94A00414DE1D8D81E0810F8D8FEF
:104080008EEB98E00E947108FE01E10FF11D868F12
:10409000E1CFDF91CF911F91089589E790E00E94D1
:1040A0003C43292F30E040E050E0582FC901842BD9
:1040B000952B9093D30C8093D20C90D41092D50C66
:1040C0001092D40C0895E091040DEA3F40F491E081
:1040D0009E0F9093040DF0E0ED5FF24F8283089500
:1040E000E091E50CF091E60C82E0848F08950F9347
:1040F0001F93CF93DF93E091E50CF091E60C409194
:10410000E00C46FF15C0158E81E0848F8091D40CA1
:104110009091D50C9C012F5F3F4F3093D50C20938D
:10412000D40C892B29F480913F02846080933F0254
:10413000848D8230B9F481E0848F80E18093E00C3B
:104140008091D40C9091D50C01979093D50C8093CD
:10415000D40C892B09F094C080913F028B7F80930F
:104160003F028EC0842F807311F447FF06C0158E66
:10417000DF01A85EBE4F1C92148E41FF30C000913B
:10418000D80C1091D90C0115110549F13091E30CAF
:104190002091E40C83E290E29093550680935406BC
:1041A000C32FD22F699184EC9AE00E94530880912A
:1041B000C80A9091C90A8115924031F4E0915606DF
:1041C000F091570684E00995015011090115110578
:1041D00049F7E0915606F091570684E009958091E1
:1041E000E00C982F947082FD06C0282F237019F4DC
:1041F000887409F445C0C091E50CD091E60C992370
:10420000D9F08E01085E1E4FF80140814423C1F1B0
:1042100050E0BE01675E7E4F8091E30C9091E40C0C
:104220000E941D43F801608170E08091E30C909141
:10423000E40C0E94382B24C04D8D442309F18E01DB
:10424000025E1F4F50E0B8018091E30C9091E40CA6
:104250000E941D436D8D70E08091E30C9091E40C01
:104260000E94382B4D8D50E0B801CE01875E9E4FE5
:104270000E941D43FE01E85EFE4F8D8D80831D8EE2
:10428000DF91CF911F910F91089514988AE30E94B6
:10429000833280E00E948332149A0895CF93C82F0E
:1042A00014988AE70E9483328C2F0E948332149ADA
:1042B000CF910895CF93C82F40EA63E08FE1A1D05A
:1042C0006C2F637040E88FE19CD0C093B305CF9111
:1042D0000895CF93DF93C82FD82FDF712D2F30E0B3
:1042E0002B31310584F4282F2076822F90E025E0B1
:1042F000959587952A95E1F74091B30550E084178D
:10430000950709F0D7DF14988D2F0E94833280E043
:104310000E948332C7FF03C080E00E948332149A58
:10432000DF91CF91089514988FEF0E9483328DE131
:10433000D0DF80FFFCCF149A0895CF93DF93D62F60
:10434000C82FCF714C2F50E04B31510584F4282FEA
:104350002076822F90E035E0959587953A95E1F7A4
:104360004091B30550E08417950709F0A3DF149836
:104370008C2F80640E9483328D2F0E948332149A86
:10438000DF91CF910895A1E0B0E0E9ECF1E20C9467
:10439000BB41682F80E09983D0DF9981692F81E04C
:1043A000CCDF2196E2E00C94D741A1E0B0E0EBED48
:1043B000F1E20C94BB41682F82E09983BEDF9981C2
:1043C000692F83E0BADF2196E2E00C94D741A1E0A7
:1043D000B0E0EDEEF1E20C94BA41162F682F84EDB7
:1043E0007983ABDF612F86EDA8DF7981672F87EDB9
:1043F000A4DF8AEE6EDF80FDFCCF2196E3E00C9413
:10440000D641A1E0B0E0E7E0F2E20C94B941062F1A
:10441000182F1F71E12FF0E07B9794F4282F20765E
:10442000822F90E055E0959587955A95E1F7E091B8
:10443000B305F0E08E179F0719F049833BDF4981F0
:104440001498812F842B0E948332802F0E94833204
:10445000149A2196E4E00C94D541CF93682F84ED13
:104460006CDF40E861E082EDCCDF8AEE32DF80FD78
:10447000FCCF40EA61E082EDC4DF88ED2ADFC82F7F
:1044800089ED27DF2C2F30E0A901582BCA01CF91ED
:1044900008950C9A149A47DF60E088E04EDF60E0F0
:1044A00089E04BDF6FEF8AE048DF6FE08BE045DFAC
:1044B00060E084E042DF60E185E03FDF60E08CE0C7
:1044C0003CDF60E08DE039DF60E08EE036DF60E009
:1044D0008FE033DF1092D70C1092D60C40EA60E8E0
:1044E00081EC8FDF40E86DE080EC8BDF40E862E339
:1044F00082EC87DF60E070E080E069DF80E0ADDFC4
:1045000090FF06C040E861E082EC7BDF62E105C01D
:1045100040EA61E082EC75DF65E184EC0EDF62E188
:1045200086EC0BDF6CE087EC08DF60EE8AEC05DFE1
:1045300065E08BEC02DF6091B40584EEFEDE6091F5
:10454000B50585EEFADE6091B60582EEF6DE609185
:10455000B70583EEF2DE6091B80580EEEEDE609185
:10456000B90581EEEADE63E888E3E7DE62E17CE03C
:1045700084E12DDF6BED8BE1E0DE62E170E082E152
:1045800026DF40E864E08FE13CDF40E860E88EE150
:1045900038CF08957ECF0895CF93DF93EC016881E3
:1045A00084EECBDE698185EEC8DE6A8182EEC5DEEF
:1045B0006B8183EEC2DE6C8180EEBFDE6D8181EEA9
:1045C000BCDEDF91CF910895BC0184E100CF089556
:1045D000CF93DF93C4E68FE17CDE83FF03C0C1503D
:1045E000D0F702C0CC2391F160E084E0A6DE60E168
:1045F00085E0A3DE6091D80C86E09FDE8091D80C28
:104600009091D90C905F692F87E097DE80E090E170
:10461000CCDE80E043DEC8E0DFE08091D80C9091F2
:10462000D90C9E0128503F402817390718F489916A
:1046300035DEF3CF40E860E88FE1E3DE40EA60E892
:104640008FE1DFDE40E868E08FE1DBDEDF91CF91D4
:104650000895A4E0B0E0EFE2F3E20C94B74189E3FF
:1046600038DE882309F480C08091D60C9091D70C55
:104670008ADE0BDE182F09DE212F30E0382B309335
:10468000D70C2093D60C8E010F5F1F4F7E0125E0C3
:10469000E20EF11CFADDF80181938F01EE15FF05A2
:1046A000C9F789819A818C01045011091A83098301
:1046B00042978135914028F488E0E82E8FE0F82E6B
:1046C00002C0E7DE51C0C70188509F4080179107A4
:1046D00028F4DBDDF70181937F01F5CF1093D90C2E
:1046E0000093D80C8091140F9091150F982789276B
:1046F00098278115F8E09F0761F086309840A1F473
:104700000E94072C8091D80C9091D90C892B61F0D4
:104710000AC081E074D18091D80C9091D90C892B7A
:1047200019F00E94A72C54DF6091D60C7091D70C21
:10473000CB0101978115904128F06FEF8CE0FDDDF2
:104740006FE009C061508CE0F8DD8091D60C90914B
:10475000D70C0197692F8DE0F0DD40E860E48EE131
:1047600050DE81E090E002C080E090E02496E6E038
:104770000C94D341CF9389E3ACDD882311F18CE114
:10478000A8DDC82F40EA60E88BE13BDEC3FF08C02C
:1047900040EA68E08CE135DE40EA6AE08DE131DE36
:1047A00058DFC0FF04C040EA61E08CE12ADEC1FFAF
:1047B00004C040EA62E08CE124DE40E860E88BE17E
:1047C00020DECF91089582EC84DD8273823311F074
:1047D00060CE089580EC7DDD8D30D1F70895FB012A
:1047E00041505109460F571FE417F50778F420810F
:1047F00030E0322F22276181260F311D820F931F57
:104800008217930708F401963296EECFE417F50766
:1048100051F4208130E0322F2227820F931F82171C
:10482000930708F401960895FC015381560F5093A5
:10483000DF0C872F99274281480F4093DE0CA1811E
:10484000A093DD0CE081E093DC0C242F30E02817EE
:10485000390748F481E08A0F8093DD0C811103C091
:10486000EF5FE093DC0C852F90E0772786179707A2
:1048700088F44F5F4093DE0C41110CC08091DD0C39
:104880008F5F8093DD0C811105C08091DC0C8F5F00
:104890008093DC0C08952091E50C3091E60CBC016E
:1048A000C9010896C1DFE091E50CF091E60C80911A
:1048B000DC0C80878091DD0C81878091DE0C828703
:1048C0008091DF0C8387089544E150E066E17FE04A
:1048D00080E090E084DF009721F0982789279827CF
:1048E00008958FEF9FEF0895CF93DF93C091180F36
:1048F000D0E0DC2FCC278091190FC80FD11D48E0E4
:1049000050E062E27FE0CE010E9769DFAE014451D4
:1049100051096AE27FE063DF009721F09827892739
:10492000982702C08FEF9FEFDF91CF9108951092EB
:10493000FB0E1092FA0E1092000D81E08093BD05DF
:1049400010926F1010926E100895E0916E10F09119
:104950006F102091BE053091BF052F5F3F4F21158D
:104960004DE7340710F020E030E1522F432FE417D9
:10497000F50799F33093BF052093BE05EF2B41F562
:104980001092BD0550936F1040936E10709371108C
:1049900060937010009749F410926A1010926B1097
:1049A00010926C1010926D100DC0FC0120813181AD
:1049B00030936B1020936A108281938190936D10D5
:1049C00080936C1080E4809372108AE690E10895E1
:1049D00081E08093BD0580E090E008952091FA0E7B
:1049E0003091FB0E232B39F41092BD059093FB0EF2
:1049F0008093FA0E089581E08093BD0508950F938A
:104A00001F93CF93DF93C091E50CD091E60C8430D7
:104A100009F49CC12EE33FE03093E40C2093E30CB7
:104A20003093DB0C2093DA0C833059F4898D8F702E
:104A3000833009F00EC688899989892B09F009C647
:104A400077C0823009F079C08091C3058F5F809371
:104A5000C305811113C08091C2058F5F8093C20589
:104A600081110CC08091C1058F5F8093C1058111B8
:104A700005C08091C0058F5F8093C0051092D90C4E
:104A80001092D80C1092691010926810298D822F04
:104A90008D7F853041F48A8D8F5F8A8F883709F04A
:104AA000D8C5198ED6C5222309F4D3C5888999891A
:104AB000892BD1F18A8D9FEF980F9A8F8111C9C5EB
:104AC0008B8D883031F09FEF920F923040F485301B
:104AD00031F4198E80E88093E00C8BDA63C4853062
:104AE00038F493E0082E01C0990F0A94EAF701C048
:104AF00090E39A8F8F5F8B8F822F8F70843009F4B1
:104B0000E9C358F4813009F4D9C2833009F0A1C552
:104B100084E08093E00C6DDA79C4863009F4DAC35E
:104B2000883009F096C5D6C32F70233009F091C59F
:104B300088E08093E00C5DDA2CC4853019F5E091B3
:104B4000E10CF091E20C84819581892B09F481C5F7
:104B50001092E60C1092E50C82E39FE09093E40C37
:104B60008093E30C9093DB0C8093DA0C1092691025
:104B7000109268101092D90C1092D80C88E0809393
:104B8000E00CE3C08091160F853409F062C5C09136
:104B9000180FD0E0DC2FCC278091190FC80FD11D42
:104BA0008091D80C9091D90C8C179D0708F451C5B1
:104BB000D093D90CC093D80C80911C0F8F7309F03F
:104BC00048C580911D0F811144C50091040F1091BB
:104BD000050F0115110531F48091060F9091070F13
:104BE000892BA1F08091260F9091270F80179107B4
:104BF00009F02FC52091280F3091290F8091060FC1
:104C00009091070F2817390709F023C55DDE01963B
:104C100009F01FC580911F0F863009F4EEC0813165
:104C2000B1F1813009F015C580912A0F883009F063
:104C300010C510922A0F80912C0F90912D0F873F55
:104C4000CFEF9C0710F0099601C0089690932D0FA6
:104C500080932C0F8091220F9091230F9093270F18
:104C60008093260F8091240F9091250F9093290F08
:104C70008093280F1093230F0093220F8091060F2B
:104C80009091070F9093250F8093240FE6C46C97A3
:104C9000D093D90CC093D80C20912C0F30912D0FAC
:104CA00040912A0F50912B0F6091220F7091230F8A
:104CB000A091240FB091250FEAE6F0E180E1E939F7
:104CC000F80708F0C2C484819581009719F128176C
:104CD000390701F586819781009719F04817590720
:104CE000C9F480819181009729F4C281D381CD2BB1
:104CF00049F412C08F3F1FEF910721F4C281D38185
:104D0000219651F06817790729F482819381A817B9
:104D1000B90711F0BF96D2CFF093E20CE093E10C0B
:104D20001092E60C1092E50C82E08093E00C82E396
:104D30009FE09093E40C8093E30C9093DB0C8093C2
:104D4000DA0C109269101092681062D98091681084
:104D500090916910009709F47CC49C01245E3F4F38
:104D60003093D90C2093D80C3093180F2093190F3F
:104D7000E091E10CF091E20C208520931E0F21E1DF
:104D800020931F0F089698278927982790932F0F15
:104D900080932E0F1092310F1092300F84819581E5
:104DA00090932B0F80932A0F8681978190932D0FDC
:104DB00080932C0F8091040F9091050F9093230FF7
:104DC0008093220F8091060F9091070F9093250FEB
:104DD0008093240F808191819093270F8093260FD9
:104DE000828193819093290F8093280F8EE39FE017
:104DF0009093E40C8093E30C06C476DD019609F0F1
:104E000028C45091000D4091370F552369F120912E
:104E10002C0F30912D0F8091EB0C9091EC0C2817FA
:104E2000390711F520912A0F30912B0F8091ED0C4D
:104E30009091EE0C28173907B9F42091220F309188
:104E4000230F8091E70C9091E80C2817390761F443
:104E50002091240F3091250F8091E90C9091EA0C5C
:104E60002817390709F441C1842F8F73823019F054
:104E700042FDEFC317C080912C0F90912D0F90939E
:104E8000BB058093BA052091FA0E3091FB0E821774
:104E9000930709F0E9C3511176C01092BD05C7EE22
:104EA000DCE07BC084E18093370F88E290E0909350
:104EB000D90C8093D80C80E58093360F8091310F08
:104EC0009091350F9093310F3091300F9091340FB6
:104ED0009093300F3093340F20912F0F9091330F18
:104EE00090932F0F2093330F90912E0F9093BD0529
:104EF0004091320F40932E0F9093320F8F5F80932B
:104F0000350F81110FC081E0830F8093340F811121
:104F100009C081E0820F8093330F811103C09F5F2E
:104F20009093320F80912A0F90912B0F9093BB0595
:104F30008093BA0520912C0F30912D0F30932B0FB9
:104F400020932A0F90932D0F80932C0F8091220F86
:104F50009091230F9093270F8093260F8091240F19
:104F60009091250F9093290F8093280F1093230F72
:104F70000093220F8091060F9091070F9093250FB9
:104F80008093240F26C3573019F4C7EEDCE002C02B
:104F9000C0E0D0E021E02093BD05209709F459C37B
:104FA000D093E60CC093E50C23E02A8F288F1E8A4D
:104FB00024E02F8B1B8E9D838C8380912A0F9091F0
:104FC0002B0F9F838E838091220F9091230F9983C3
:104FD00088838091240F9091250F9B838A8381E0A1
:104FE000898F8091C0058C878091C1058D878091C4
:104FF000C2058E878091C3058F8781E090E0998BF1
:10500000888B8091310F8B878091300F8A878091B8
:105010002F0F898780912E0F888781E090E03BDCFD
:105020008091360F282F207F30E0213531050CF498
:1050300045C082958F7090E00597880F991F880F63
:10504000991F3091BC0520E0E22FF0E0E817F90746
:105050008CF5E85FF04F36A9311105C02093BD05EE
:105060001092BC052BC0313011F42F5FEDCF3230E0
:10507000E1F447A94430C9F42093BD053093BC0541
:1050800080AD90E0982F882721AD822B9093BB05AF
:105090008093BA05893211E0910710F088E291E01F
:1050A0009B8B8A8B9D8B8C8B09C047A9442311F065
:1050B000240FCACF2093BD053093BC0582E18093B5
:1050C000370F82E080933E0F84E080933F0F81E0B2
:1050D0008093400F88E28093410F8CE290E09093A0
:1050E000D90C8093D80C80E621C287EE9CE0909387
:1050F000E60C8093E50C1092E00C42FF04C0109285
:10510000000D80E2B1C18091360F82958F70880FBB
:10511000880F8093BD05C81BD1096497D093D90C23
:10512000C093D80C5F70523021F4842F8F7382317A
:10513000E9F0CD2B19F4842F8370C1F090912E0FDC
:105140008091EF0C9813E6C190912F0F8091F00C95
:105150009813E0C19091300F8091F10C9813DAC14F
:105160009091310F8091F20C9813D4C144FF58C034
:105170006091F70C7091F80C6115710509F450C03D
:1051800083EF9CE051DB3091320F8091DC0C3813BF
:1051900047C02091330F8091DD0C281341C09091BE
:1051A000340F8091DE0C98133BC08091350F4091F5
:1051B000DF0C841335C03093F30C2093F40C9093E0
:1051C000F50C8093F60C8091020D81111EC0909118
:1051D000FD0C8091FF0C2091010D821B292F26953B
:1051E00026952695821B980F9093FD0C2091FE0C1E
:1051F000322F36953695831B820F8093FE0C969541
:1052000096959695980F9093FF0C81E08093E00C13
:105210008091FF0C8093010D1092F80C1092F70C06
:105220004091000D842F8F7090E0FC013197E830A1
:10523000F10508F00EC2E25CFF4F0C948C418091A6
:10524000E00C80FF06C283E08093000D80E4809331
:10525000E00C1092F80C1092F70C8091D80C909101
:10526000D90C009709F48DC022E42093E00C13DBE5
:1052700088C08091370F80FF31C044FD2FC08091DE
:10528000F70C9091F80C892B09F0E3C18091D80CB0
:105290009091D90C0196FFDA2091E00C822F806169
:1052A0008093E00C8091D80C9091D90C892B19F047
:1052B00022612093E00C0E94F91F81E090E090931E
:1052C000F80C8093F70C88E08093000D1092020D8B
:1052D000C7EEDCE081E18093370F21C185FF1CC060
:1052E00080913C0F90E0982F882720913D0F822BD2
:1052F0002091E30C3091E40C280F391F3093E40C1B
:105300002093E30C2091D80C3091D90C281B390B39
:105310003093D90C2093D80C8091D80C9091D90C53
:10532000009741F044FD06C02091E00C22602093DC
:10533000E00CB1DA8091380F90E0982F8827209107
:10534000390F820F911D9093BB058093BA05209170
:10535000FB0C3091FC0C2817390710F0892B21F435
:105360003093BB052093BA058091BA059091BB0597
:105370009093FA0C8093F90C8091E00C837009F4FF
:1053800068C110926910109268100E94F91FC7EE50
:10539000DCE08091E00C85FF07C01092691010924C
:1053A0006810198E84E197CF84FF0CC010926910A9
:1053B0001092681081E090E0998B888B84E0898F4F
:1053C0001B8E88CF2091681030916910211531050E
:1053D000E1F080FF02C0198A188A888999890097AC
:1053E00081F48A899B898217930720F4909369102E
:1053F000809368108091681090916910998B888BC8
:1054000004C090936910809368101B8E8091DA0C11
:105410009091DB0C9093E40C8093E30C80916810E6
:1054200090916910892B59F088899989009739F0F2
:1054300088969093D90C8093D80C88E10BC080910A
:10544000E00C81FF06C188E290E09093D90C809334
:10545000D80C80E18093370F68C08091E00C80FF0A
:10546000F8C01092000D80E18093E00C0E94F91FBB
:10547000F0C08091D80C9091D90C009709F00BDA0C
:105480009091370F8091E00C90FF10C080FF0AC010
:1054900087E08093000D1092010D1092F80C10928D
:1054A000F70C1EC086E08093000D1AC080FF21C05B
:1054B00085E08093000D1092F80C1092F70CC9C093
:1054C0008091D80C9091D90C009709F0E4D9809183
:1054D000370F80FF0EC087E08093000D1092010D02
:1054E00081E090E0D8D980E18093E00C0E94F91F20
:1054F00011C08091D80C9091D90C892B59F4A9C076
:105500008091E00C80FFA5C087E08093000D109291
:10551000010D9FC080E18093370FC7EEDCE088E289
:1055200090E09093D90C8093D80C80E58093360F4F
:1055300088858093320F89858093330F8A85809385
:10554000340F8B858093350F8C8580932E0F8D853E
:1055500080932F0F8E858093300F8F858093310F2E
:1055600086E080931F0F8C819D8190932B0F8093F9
:105570002A0F8E819F8190932D0F80932C0F809105
:10558000040F9091050F9093230F8093220F809129
:10559000060F9091070F9093250F8093240F888119
:1055A00099819093270F8093260F8A819B819093F6
:1055B000290F8093280F898D84FF05C01092390F21
:1055C0001092380F06C081E08093380F88E28093F4
:1055D000390F80E480931E0F8091D80C9091D90CE4
:1055E0009093180F8093190F10923D0F10923C0F5B
:1055F00010923B0F10923A0F77D980959095909327
:105600003B0F80933A0F85E48093160F1092170F8B
:1056100010921D0F10921C0F8091C4059091C5052A
:1056200001969093C5058093C40590931A0F8093BB
:105630001B0F1092210F1092200F46D98095909544
:105640009093210F8093200F08C0F093E20CE09319
:10565000E10C1092D90C1092D80C1092E00CDF9152
:10566000CF911F910F91089581E08093BD0500CCEB
:105670009C01AB011616170674F4709369106093C1
:1056800068108091DA0C9091DB0C2817390719F01B
:10569000B9010C941D430895CF93DF931092C9056F
:1056A0004091240F5091250F6091260F7091270F84
:1056B000E0E0C0E0D0E0FBE0E830F0F4FE9FE00185
:1056C0001124C253DA4F288139812115310591F017
:1056D0008A819B81009771F04217530759F468172C
:1056E000790741F4E093C905DE01149686E0EEE106
:1056F000FFE059C0EF5FE0CF1092C90520E03BE02A
:10570000283090F4329FE0011124C253DA4F88818F
:105710009981892B39F48A819B81892B19F42093F3
:10572000C9052FC02F5FECCF2093C905283049F55C
:10573000A091C7058A2F90E070E0C0E060E0BBE078
:10574000683098F4B69FF0011124E253FA4FE285D5
:10575000AC014E1B5109272F30E0241735071CF4EC
:10576000C62F7A2F7E1B6F5FEBCF7093C605C09359
:10577000C805C093C9058BE0C89FE0011124C2533E
:10578000DA4F8091240F9091250FA091260FB091B0
:10579000270FFE0181939193A193B1939F0186E01E
:1057A000EEE1FFE0D90101900D928A95E1F7809139
:1057B000C7058A87DF91CF9108952091C7052F5F94
:1057C0002093C7051092C9057BE030E06091C905C0
:1057D0006830E0F4769FF0011124E253FA4F8281A1
:1057E000938140815181842B952B892B59F082859F
:1057F000A901481B51094837510524F01082118234
:10580000128213826F5F6093C905E0CF0895809183
:10581000D80C9091D90C1092D90C1092D80C8A9770
:1058200008F4089580911C0F90911D0F811521E0BF
:10583000920729F08115924009F471C008952091D2
:105840002E0F30912F0F8091040F9091050F281784
:10585000390709F07BC02091300F3091310F8091D2
:10586000060F9091070F2817390709F06FC014DF52
:1058700080E092E090931D0F80931C0F86E0EEE194
:10588000FFE0A8E2BFE001900D928A95E1F786E083
:10589000E4EBF5E0AEE1BFE001900D928A95E1F70F
:1058A00086E0E4EBF5E0AEE0BFE001900D928A9572
:1058B000E1F786E0E8E2FFE0A8E0BFE001900D92AA
:1058C0008A95E1F78091240F9091250F90932F0FE7
:1058D00080932E0F8091260F9091270F9093310F78
:1058E0008093300F8091040F9091050F9093250FB6
:1058F0008093240F8091060F9091070F9093270FAC
:105900008093260F88E096E09093150F8093140FF4
:105910008AE290E09093D90C8093D80C089520915E
:105920002E0F30912F0F8091040F9091050F2817A3
:10593000390761F42091300F3091310F8091060FBB
:105940009091070F2817390709F4A6CE08952091E2
:10595000260F3091270F2F3F4FEF340751F48091DE
:10596000280F9091290F019621F486E0E5E2F1E0FD
:10597000CAC08091040F9091050F82279327409110
:10598000000F5091010F84239523892B91F44091AE
:10599000280F5091290F8091060F9091070F8427AF
:1059A00095276091020F7091030F86239723892B0F
:1059B00089F08091FC0E9091FD0E9093CB05809321
:1059C000CA058091FE0E9091FF0E9093CD058093B5
:1059D000CC0508C03093CB052093CA055093CD0564
:1059E0004093CC051092C9058091CA059091CB05D2
:1059F0002091CC053091CD0560E0E0E0F0E07BE067
:105A0000683090F4769FF0011124E253FA4F408100
:105A100051818417950731F442815381241735074A
:105A200009F46DC06F5FECCF6093C905683009F071
:105A300068C046E050E06FEF70E088E09FE00E94B1
:105A4000264326E0E8E2FFE0DF01422F1D924A955F
:105A5000E9F7E4EBF5E0AEE0BFE0822F01900D92B4
:105A60008A95E1F7E4EBF5E0AEE1BFE0822F01902B
:105A70000D928A95E1F78091CA059091CB0590939C
:105A80002F0F80932E0F8091CC059091CD05909390
:105A9000310F8093300F8091040F9091050F9093F8
:105AA000250F8093240F8091060F9091070F9093FC
:105AB000270F8093260F80E091E090931D0F809335
:105AC0001C0F9093170F8093160F88E090E090932F
:105AD000190F8093180F20931A0F84E080931B0FE7
