:1000000038C100000C94710D50C100004EC10000B9
:100010004CC100004AC1000048C1000046C10000B8
:1000200044C1000042C1000040C100003EC10000C8
:100030003CC100000C940E0D38C1000036C1000018
:10004000ECC2000032C1000030C100002EC100002F
:100050000C947D140C944B1428C1000026C10000A0
:1000600024C1000022C1000020C100001EC1000008
:100070001CC100001AC1000018C100006D19144213
:10008000F40543A80246CA0749871644C81547CE57
:10009000074D0608526405549C11565C0657A4058A
:1000A00058B109651C06664F136CE205746A037546
:1000B0009E0F786F02000000202F2000203D2000BE
:1000C000072E050DD391FF080500000C0021656A7D
:1000D0002D3B1322F862073F181D1CC700B0876B29
:1000E000F8B611EA2A001F41000D2E2D07D3913DCD
:1000F00004320000060021656A55E43023B9000788
:100100000018146C070090876BF85611E92A001F3D
:10011000410000030F1E2627000000030F1E253696
:10012000386700030F256740605000030F27518890
:10013000838100030F2750C8C3C2002700000000BE
:1001400000000067000000000000005000000000F8
:100150000000008100000000000000C2000000005C
:1001600000005620312E36375F6E6F63726564690A
:1001700074732043534D38363800202F2000203D23
:100180002000424F56460D0A004E2F4100454F4277
:100190000D0A0000535300547D7DFFFF4B4B7E7EC4
:1001A0000020697320756E6B6E6F776E2920557312
:1001B00065206F6E65206F66003F202800626F6FBC
:1001C00074696E67207570202E2E2E20002020204E
:1001D000627573776172652E646500202A00312E86
:1001E00036375F6E6F637265646974730020560002
:1001F00043534D383638002A2000080306182003E0
:1002000006090E0005050F0F01000005020B0D1B6E
:10021000020B020B00101C28300101000407141807
:100220003A071407140C18000C1801010003050C00
:100230000F1E050C040A00101525250101000204FB
:100240000D0F26040D040D00000000000101000246
:10025000040D0F26040D040D0010102020010100D4
:10026000011016070B070B070B0F14000F140001EA
:10027000000011241FBECFEFD0E1DEBFCDBF11E0E3
:10028000A0E0B1E0E6E5F6E302C005900D92AC30E7
:10029000B107D9F723E0ACE0B1E001C01D92AE3A5E
:1002A000B207E1F703D00C94291BAACE88E10FB660
:1002B000F89480936000109260000FBE90E080E898
:1002C0000FB6F89480936100909361000FBE089A76
:1002D000109A099A119A0E943416DBD40E9447168C
:1002E00081E087BD84E085BD82E084BD80936E009F
:1002F000109280008AE08093810084B7877F84BF5A
:100300002FE088E190E00FB6F894A8958093600004
:100310000FBE2093600089E190E80E94AD140E9416
:1003200096150E948C110E94970988E095E19093A0
:10033000BC028093BB0281E0809310010E94C00E3A
:1003400080911001886180931001119878940E9427
:10035000CC140E94CA0AD4D10E9494130E94401067
:100360000E944B16F4CF8EBD0DB407FEFDCF8EB5A7
:100370000895A1E0B0E0EFEBF1E00C94DF1A482F14
:100380008A3008F048E088E0489F70011124F701A6
:10039000EE5EFE4F7F018BE290E0F70164918C01ED
:1003A0000F5F1F4F498372D3FFEFEF1AFF0A498196
:1003B0000333110511F0C801F0CF4550453010F45A
:1003C00061E101C067E184E290E060D32196E6E05C
:1003D0000C94FB1ACF93DF9382E090E0FC01E9518B
:1003E000FF4F6491EC01219651D3CB32D10511F02E
:1003F000CE01F4CF87E390E0FC01E757FF4F649113
:10040000EC01219643D3C036D10511F0CE01F4CFD3
:1004100088E0AFDFDF91CF9108952C98806CA3DF47
:1004200080E0A1DF2C9A0895A1E0B0E0EAE1F2E0DB
:100430000C94E31A2C988064698395DF6981862F78
:1004400092DF2C9A2196E2E00C94FF1A2C988BDF15
:100450002C9A0895EF92FF920F931F93CF93DF93FF
:10046000EC01E898249A2C9A8EE190E099D12C988E
:100470008EE190E095D12C9A8DE290E091D180E3CD
:10048000E5DF84E690E08CD12C9880E46CDF7E017F
:1004900089E2E80EF11C8E010F5F1F4FCE01FBD2E7
:1004A00062DF0E151F0511F0E801F5CF2C9A2C988C
:1004B0008EE759DF8BE290E0EC012196ECD253DF1E
:1004C000C333D10511F0CE01F7CF2C9A83E3BEDF01
:1004D00081E06BD1CDB7DEB7E6E00C94FB1AA1E06A
:1004E000B0E0E5E7F2E00C94E31A22E0298341E072
:1004F000BE016F5F7F4F019689D289813ADF82E02A
:1005000090E0A8DF2196E2E00C94FF1ACF93E898E0
:1005100086E39CDFCFEF85E399DFC150807780329F
:1005200029F08AE090E03CD1C111F5CFCF91089538
:10053000CF93CFEF84E38ADFC1508077803129F0F9
:100540008AE090E02DD1C111F5CFE89ACF910895BE
:10055000A2E0B0E0EEEAF2E00C94E11A8C01FC01BA
:1005600081818737E9F441E0BE016F5F7F4FC801A9
:1005700002964CD2892BA1F041E0BE016E5F7F4F05
:10058000C801049643D2892B59F06A8189814CDFD6
:1005900083E35CDFCDDF898134D28A8132D22CC003
:1005A00041E0BE016E5F7F4FC80101962FD2892BBB
:1005B00021F18A81893969F410E0812F2EDF21D25F
:1005C000812F8770873009F4A7D11F5F1033A9F7F7
:1005D00014C023DF182F83E44DD18A8112D28CEB13
:1005E00090E08DD1812F0DD288EB90E088D140E250
:1005F00062E0812F90E095D18FD12296E4E00C94B7
:10060000FD1A86E323DF1092BD02089582E090E098
:1006100021DF81E08093BD0208951F920F920FB6F3
:100620000F9211242F933F934F935F936F937F9378
:100630008F939F93AF93BF93EF93FF930E94821684
:1006400080910D018F5F80930D018D3708F110921D
:100650000D018091BF029091C002A091C102B091A2
:10066000C2020196A11DB11D8093BF029093C002EA
:10067000A093C102B093C2028091BE028F5F8093AB
:10068000BE02809122038F3F19F081508093220394
:10069000FF91EF91BF91AF919F918F917F916F915A
:1006A0005F914F913F912F910F900FBE0F901F9030
:1006B00018952FB7F8944091BF025091C0026091F5
:1006C000C1027091C202FC01408351836283738333
:1006D0002FBF0895A4E0B0E0E0E7F3E00C94E31A44
:1006E000CE010196E6DF8C818CD18B818AD18A8103
:1006F00088D1898186D110D12496E2E00C94FF1A2A
:100700008091BF029091C002A091C102B091C2023B
:1007100020910F01281709F442C08091BF029091E7
:10072000C002A091C102B091C20280930F01A895AE
:1007300080912203811102C00E94791280911203DC
:10074000882339F0815080931203811102C00E94E6
:10075000D3108091BE028D3710F11092BE028091AD
:10076000000181FF04C082B192E0892782B984E848
:1007700093E09093C4028093C30280910E018F5F37
:1007800080930E018C3359F410920E0180911F0357
:100790008F5F80931F038C3310F010921F03089516
:1007A000880F991F0197F1F7089520ED37E08150E8
:1007B00020F0F9013197F1F7FACF0895CF93DF9345
:1007C000DC0113968C911397843509F050C0CD014C
:1007D0000396CC91FD0170964DE04C1750F050E01F
:1007E000D0E09E012F5031094217530709F03FC056
:1007F00005C021912B3399F34F5FEFCFFE013E9758
:10080000E80FF91F2081243591F514963C91149737
:10081000218132132CC015963C91159722813213F9
:1008200026C016963C9116972381321320C0179646
:100830003C911797248132131AC06197C80FD91FB2
:10084000858188838681898381858A8382858B835C
:1008500083858C8384858D8385858E838C918A5056
:100860008C9312968C9112978A5012968C93DF91EA
:10087000CF910895CF93C82F8091100184FF03C0BA
:100880008C2F0E940B168091100180FF0EC080916A
:1008900026038E3330F0803440F4CD3011F0CA306E
:1008A00021F46C2F84E293E011D280911D03882300
:1008B000C9F08091100183FF15C0CA3099F0CD3086
:1008C00011F46BE301C06C2F8DEC92E0FFD1CD30C1
:1008D00019F48DEC92E072DF83E08093120382E0E2
:1008E00080931803CF910895CF93DF93EC01899102
:1008F000882311F0BFDFFBCFDF91CF910895CF9315
:10090000DF93EC01FE018491882319F0B3DF219677
:10091000F9CFDF91CF9108958DE0ACDF8AE0AACFC7
:100920000895A6E0B0E0E7E9F4E00C94E11A062FA0
:100930001E8215E02AE030E01150E1E0F0E0EC0F1B
:10094000FD1FE10FF11DB9010E94BF1A805D808378
:10095000CB010150009769F01111EECF0AC01123AD
:1009600059F01150E1E0F0E0EC0FFD1FE10FF11D37
:100970004083015007FFF3CF81E090E08C0F9D1F73
:10098000810F911DB1DF2696E4E00C94FD1AA5E0DD
:10099000B0E0EDECF4E00C94E31A1D8224E0382F73
:1009A0003F702150E22FF0E03A3010F4305D01C08A
:1009B000395CA1E0B0E0AC0FBD1FEA0FFB1F308334
:1009C00034E0969587953A95E1F76150009739F7AD
:1009D000615067FD0BC0222349F02150E1E0F0E0B7
:1009E000EC0FFD1FE20FF11D4083F2CF81E090E09C
:1009F0008C0F9D1F820F911D77DF2596E2E00C94EE
:100A0000FF1A40E362E090E0C2CF0895DC01FB01F1
:100A100030E090E08D918823A9F0813608F0805273
:100A200020ED280F2A3030F02FEB280F263030F43D
:100A300029EC280F292B332379F006C0803251F39B
:100A40008A3341F3CF0105C0CF0101962083415085
:100A500041F4861B970B0895922F9295907F31E079
:100A6000D9CFFC01D5CF982F92959F709A3010F472
:100A7000905D01C0995CFB0190838F708A3010F407
:100A8000805D01C0895CFB01818308950E941B1B6E
:100A9000F999FECF08950C94131B08951F93CF93DB
:100AA000DF93162F11501F3F59F0EC012196F3DF11
:100AB000A8DF112311F08AE3DDDE1150CE01F3CF60
:100AC000DF91CF911F910895A2E0B0E0EAE6F5E052
:100AD0000C94E01AFC0121812D3421F466E08AEFA8
:100AE00097E005C0203529F460E18AED97E0D6DF74
:100AF00026C01A82198242E0BE016F5F7F4F0196C5
:100B000085DF098110E0823021F4102F00278A81CF
:100B1000082BC801C0DFF82E82E5ACDE40E364E0BC
:100B2000C80135DF8EE791E0EADE8F2D6ADF8AE7C4
:100B300091E0E5DE40E262E08F2D90E0F2DEECDE57
:100B40002296E5E00C94FC1AA6E0B0E0EAEAF5E0B3
:100B50000C94DD1A6C0143E0BE016F5F7F4F01967C
:100B600055DF823058F1E980F12C823021F0FE2CE3
:100B7000EE242A81E22A8C011127FE01E00FF11FE9
:100B80006081C70183DF000F111F0F5F1F4F0C0D26
:100B90001D1DF8018081882389F041E0BE016F5F4F
:100BA0007F4FC80133DF892B49F08FEFE81AF80A2D
:100BB0006981C7016BDF0E5F1F4FEBCF2696E8E020
:100BC0000C94F91A41E060E071E001961FDF80911A
:100BD000000180FF02C0119A01C0119860910001CC
:100BE00084E390E053CF0895A1E0B0E0EAEFF5E0B0
:100BF0000C94E31A1982009731F041E0BE016F5F57
:100C00007F4F019603DF89818F3F09F4FFCF88234F
:100C100021F061E083E390E039DF10926E00F894F8
:100C200028E088E190E00FB6F894A89580936000E2
:100C30000FBE20936000FFCFCF93DF93EC0161E004
:100C400080E090E023DF63E481E090E01FDFC2DB1F
:100C500060E080E690E01ADF60E081E690E016DF79
:100C600060E083E390E012DF62E084E390E00EDF77
:100C700060E080E690E00ADF60E081E690E006DF79
:100C80008981883719F080E090E0AEDFDF91CF9165
:100C9000089580E090E0FFDE813029F481E090E06B
:100CA000FADE833419F080E090E0C6DF84E390E060
:100CB000F2DE80930001089582E691E020DE2CCEE2
:100CC0000895FC011282108211820895FC018FB7F1
:100CD000F8949281903470F49F5F9283208191E028
:100CE000920F9083DF01A20FB11D13966C93903485
:100CF00009F410828FBF0895FC019FB7F894828198
:100D0000882371F081508283818121E0280F218323
:100D1000DF01A80FB11D13968C91203409F41182C4
:100D20009FBF0895FA013081882369F0E1E0F0E087
:100D3000022E01C0EE0F0A94EAF7DB01A30FB11DEA
:100D40009C919E2B9C93222319F08FEF820F0BC056
:100D500081E0830F8C3010F4FA018083FB01E80FEF
:100D6000F11D108287E090E00895CF93C82F299A53
:100D7000882319F08091130102C08091150120E1B0
:100D8000829FC00111240CDD2998CC2319F0809199
:100D9000120102C08091140120E1829FC001112440
:100DA000FFDCCF910895A0E0B0E0E9EDF6E00C940F
:100DB000D31A6C01162F842E622E119AF89480910A
:100DC000BD02811101C022DCA1DBA12EB12C912C2E
:100DD000C1E0D0E0712CF12C8F2D992787FD9095E3
:100DE0008A159B0524F480E0C0DFF394F5CF11232E
:100DF00011F081E0BADFF12C4F2C552447FC5094C0
:100E0000481459042CF097E0392E4C0C5D1C15C089
:100E100087E0282E312C4C0C5D1CCE01022C01C029
:100E2000880F0A94EAF7F201908189239EDFF1E0AE
:100E30002F1A310890F7F394DFCF832D992787FD80
:100E400090956816790664F4CE01032C01C0880FD2
:100E50000A94EAF7F2019081892387DF3A94EDCF73
:100E60008E2DA3DC015009F0B6CF8091C6028823F5
:100E700011F05EDB02C086E3E9DA78941198CDB711
:100E8000DEB7E2E10C94EF1AADE0B0E0EAE4F7E09F
:100E90000C94D61A7C01162F842F022F6701C60EE0
:100EA000D11C462FB70174D2D6018C931F5F1D86CB
:100EB00019825E2C670127E066246394712C8C2DC7
:100EC0008519811788F547E0A42EB12C4701880EBB
:100ED000911CF3010A2C01C0EE0F0A94EAF7D40129
:100EE0008C91AE01435F5F4FBE016F5F7F4F8E23DA
:100EF00019DF282FB1E0AB1AB10858F7D6018D9150
:100F00006D01082E82958025082E86958695802570
:100F10008F5F86958170AE01435F5F4FBE016F5F4B
:100F20007F4F00DF282FCBCF222311F0215004C0A8
:100F30008D858F5F8D8727E089E1809314018093F1
:100F4000150185E280931201809313013AE0E32EAC
:100F50004D856CE0CE01019626DF2D96EFE00C94D6
:100F6000F21AADE0B0E0E7EBF7E00C94E21A162FCE
:100F7000242F4BE0BE016F5F7F4F01962D8746DD2A
:100F80002D85412F682FCE0101967EDF2D96E3E05F
:100F90000C94FE1A43E066E0E4CF0895EF920F93BD
:100FA000CF93DF93CDB7DEB760970FB6F894DEBF6F
:100FB0000FBECDBF40E1BE016F5F7F4F019626DDC2
:100FC00069814A810B818C81809315018D81809389
:100FD00014018E81809313018F8180931201E02E82
:100FE000E2947FE0E7220F70242F2F7042954F701C
:100FF000CE010896D8DE60960FB6F894DEBF0FBE1D
:10100000CDBFDF91CF910F91EF900895A9E1B0E0AE
:10101000ECE0F8E00C94DB1A4BE0BE016F5F7F4F11
:101020000196F4DC182F893009F05AC099E19093A9
:101030001401909315019093130182E380931201A0
:1010400069E0CE010196AED1E1E0F0E0EC0FFD1FCA
:10105000E10FF11D8083198E1D86CE0101967C0162
:101060006E019BE0C90ED11C27E0AA24A394B12CE9
:10107000EC14FD0429F100E010E0F501002E01C0A0
:10108000EE0F0A94EAF7D7018C91AE01475E5F4FED
:10109000BE01635F7F4F8E2345DE282F0F5F1F4FFA
:1010A0000830110551F7AE01475E5F4FBE01635F27
:1010B0007F4F81E037DE282FBFEFEB1AFB0AD8CF36
:1010C000222311F0215004C0898D8F5F898F27E082
:1010D000EAE0EE2E03E0498D6CE0CE010D9663DE72
:1010E0006996EAE00C94F71A8F929F92AF92BF92A2
:1010F000DF92EF92FF920F931F93CF93DF931092A3
:10110000290110923601FC012181220F220F220FAA
:101110003381231B57E0520F10922A0110E070E038
:1011200038E0D32ED20EFF24F39447E007E0E12C01
:10113000C7E0D0E0A1E0B0E0FD1409F47FC0FC01FD
:10114000EE0DF11D248130E0002E02C0359527956B
:101150000A94E2F721703327E22F002311F00150A7
:1011600002C0E39407E06B3471F4433009F04AC0E5
:10117000111107C0E1115FC010922901709336016F
:1011800074C010E041C04F3F31F56634A9F4E72F39
:10119000F0E0E65DFE4FE0810E2EE295E0250E2E9A
:1011A000E695E695E025EF5FE1FB882480F8912C39
:1011B0008216930641F004C0653429F4E11103C09E
:1011C00010932901DBCF7F5FE72FF0E0E65DFE4F54
:1011D000108247E031C0EE2361F1663471F4E72FED
:1011E000F0E0E65DFE4FA0809D01042E01C0220FBD
:1011F0000A94EAF7A22AA0821CC0653439F06B3445
:10120000C1F404C04F3FD1F2EE2399F0E72FF0E094
:10121000E65DFE4F9E01241B310947FD33955D01BC
:1012200002C0AA0CBB1C2A95E2F795013081322B33
:101230003083415001C011E0F3947ECF1093290117
:10124000709336015F1588F4653431F44F3F21F413
:101250007F5F7093360104C0809129018111F8CF1E
:1012600081E090913601911101C080E0DF91CF9132
:101270001F910F91FF90EF90DF90BF90AF909F90E4
:101280008F90089510926F00E091390184E1E89FFA
:10129000F0011124E65CFE4F10820895FC012181CB
:1012A0002C3010F0EFCF08953381662381F081E078
:1012B00090E0032E01C0880F0A94EAF7DF01A20F25
:1012C000B11D14969C911497982B14969C933323DC
:1012D00019F031503383089587E083832F5F218392
:1012E000E20FF11D14820895DC011196EC91119723
:1012F000F0E050E02C91CF01841B950B0B964797A3
:10130000A0F430E070E0C901861B970B0B9647975D
:1013100060F42E0F3F1F640F751F261B370B255FD0
:101320003F4F81E02731310508F080E00895219A90
:1013300029985298E9E6F0E08081816080831092DC
:101340004E0110926201109276011092BD02089532
:101350008091C602882319F059D9EAC8089551C965
:101360000895FC01218121110CC08091C60249DB46
:1013700040E265E08091C3029091C402D2DACCCA07
:10138000089541E066EC72E0019640DBE1CF0895FC
:10139000442339F04150FB01E40FF11D9081890F86
:1013A000F7CF089520E0662339F06150FC01E60F85
:1013B000F11D30812327F7CF822F0895A0912901B5
:1013C00040E035E020E0662399F06150FC01E60F33
:1013D000F11D5081752F72957F702727370FAA2333
:1013E00011F0442319F05F702527350F4F5FEBCFC5
:1013F000320F40E1349FC0011124822B0895FC017B
:1014000032812381A081B181A30FB11D8C9190E025
:10141000022E02C0959587950A94E2F7817099276C
:101420004FEF420F4383211104C03F5F328327E017
:1014300023830895A2E0B0E0E0E2FAE00C94DB1A26
:101440007C01A12CB12CD12CCC24C394062F10E00C
:1014500001501109A616F0F4C7014A836983CFDF52
:101460004A816981882391F0442349F098012A191F
:101470003B098C2D01C0880F2A95EAF706C08C2DF8
:101480000A2C01C0880F0A94EAF7D82A8FEFA81A0D
:10149000B80AE0CF8D2D2296EAE00C94F71AA4E06A
:1014A000B0E0E5E5FAE00C94DA1A1B8227E02C8321
:1014B0009C012C5F3F4F3A83298310923601FC0137
:1014C0002181338187E090E0831B9109F8E02F9F11
:1014D000800D911D1124853491050CF44EC0B12C62
:1014E000A0903601F5E0FA1558F10A2D10E040E021
:1014F00068E0CE0101969EDF065D1E4FF8018083F5
:10150000982E092C92949024092C969496949024C9
:10151000CE01019674DF939491FACC24C0F8D12CBB
:1015200090E0C816D90649F5CE01019668DF811111
:1015300024C0F8018081B826A394A0923601D0CFB0
:1015400040E068E0CE01019675DF082F182F012ECC
:1015500012951025012E169516951025CE0101968F
:101560004EDF1F5F11FBEE24E0F8F12C282F30E056
:10157000E216F30611F481E0B01280E02496EBE06D
:101580000C94F61A8091C50280FD03C0846080939C
:10159000C5020895A1E0B0E0E0EDFAE00C94DF1A96
:1015A000198280911601882391F18091C60287FFEC
:1015B00016C084E30E940D028058803458F0803CAD
:1015C00058F490E08055910943E0959587954A95A8
:1015D000E1F703C080E001C08FE08F594BD98091C3
:1015E000C60283FF12C082E745D98091C60284FFFC
:1015F00003C0809117013ED986E63CD98091C6028E
:1016000084FF03C08091160135D910921601809194
:101610003701882309F4FEC1119A0091380124E1B1
:10162000029F80011124065C1E4F8981811139C0FF
:1016300066E4C80159DD8823A1F1F0903601FA94DF
:10164000F09236014F2D6AE271E086E0A1DEEF2DC7
:10165000F0E0E65DFE4FE0808E1105C093E09F153F
:1016600010F486E41BC0282F30E02F5F3F4F6E2D13
:1016700070E02617370739F423E02F1520F496E49D
:10168000998380830EC04F2D6AE271E08CE080DE8A
:101690008E1106C083E08F1518F484E5898301C09C
:1016A00019828981811116C065E4C8011DDD882376
:1016B00089F080913601815080933601893051F450
:1016C00069E08AE291E06EDE90913301891302C0F5
:1016D00085E489838981811106C0C801E0DE882301
:1016E00011F088E489838981811133C0F80143892D
:1016F00060911701C8014296F7DD682FC801CEDD61
:101700006BE4C801F1DC8823B1F0F0903601FA9463
:10171000F09236016F2D8AE291E050DEEF2DF0E07D
:1017200090912901E91BF109E65DFE4F9081891333
:1017300002C08BE48983898181110BC0F801838108
:1017400091E0980F9383873021F413828181815037
:1017500081833981332309F4D5C02091C60220FF4B
:10176000D1C08091C5028E7F8B7F8093C50221FD01
:1017700064C050912801F09036015F113DC040E0F7
:101780004517C0F4842F90E061E0640FFC01E45E33
:10179000FE4FDC01A65DBE4F70818C91781741F041
:1017A000409328018091C5028D7F8093C50204C0BB
:1017B000462FE6CF4093280145131EC04091BF023B
:1017C0005091C0026091C1027091C20280911801D3
:1017D00090911901A0911A01B0911B01481B590B5E
:1017E0006A0B7B0B463251056105710528F4809127
:1017F000C50281608093C50240E04F1560F4842FDC
:1018000090E0FC01E45EFE4FDC01A65DBE4F8C91D2
:1018100080834F5FF2CF409328018091BF02909167
:10182000C002A091C102B091C202809318019093AE
:101830001901A0931A01B0931B013435E9F426FD78
:101840001BC0809136018530B8F080912C018B341B
:1018500071F0893661F09DEA980F923040F08D5713
:10186000823028F080912D018077803729F4809193
:10187000C50281608093C502B801CE01019682DE67
:101880008981843569F490911D03992349F09091E1
:101890001E03911105C09091C5029B7F9093C502D4
:1018A0009091C50292FF2EC00E943A0480912901B6
:1018B000882329F080913601815080933601F12CE4
:1018C000E0913601FE1640F4EF2DF0E0E65DFE4FAC
:1018D000808197D8F394F4CF80912901882349F02F
:1018E000F0E0E65DFE4F80818F7040E361E090E0C4
:1018F0004ED88091C60285FF04C084E30E940D0289
:1019000080D80AD88091C60282FF6CC080E70E940E
:101910003A04F801808140E262E090E002D8F801E8
:10192000808940E265E0F0E18F9FC00111240E94B0
:101930009104F801818940E265E0F0E18F9FC001E8
:1019400011240E949104F801828940E265E0F0E1EF
:101950008F9FC00111240E949104F801838940E205
:1019600065E0F0E18F9FC00111240E949104F8010D
:10197000828140E263E090E00E949104F80181815D
:1019800040E263E090E00E949104F801238140E28C
:1019900062E087E090E0821B91090E94910480E25E
:1019A0000E943A048091C60285FF07C084E30E942A
:1019B0000D0227D880E20E943A04F8018381873023
:1019C00019F081818F5F8183F12CF8018181F816F4
:1019D00038F4F801EF0DF11D848113D8F394F5CF9D
:1019E0000E948C04F801108280913701815080930D
:1019F0003701809138018F5F843019F0809338016E
:101A000002C01092380111988981843519F48AE254
:101A100091E07FD52196E6E00C94FB1A1F920F927D
:101A20000FB60F9211242F933F934F935F936F93B1
:101A30007F938F939F93AF93BF93EF93FF931092F6
:101A40006F008091C60283FF03C08EE20E943A04B9
:101A50008091390194E1899FF0011124E65CFE4FE9
:101A60009081933018F09181923010F40BDC18C003
:101A700090913701933049F48091C60282FFF6CFEE
:101A800082E891E00E947F04F1CF9F5F909337013D
:101A90008F5F843019F08093390102C010923901B0
:101AA000FF91EF91BF91AF919F918F917F916F9136
:101AB0005F914F913F912F910F900FBE0F901F900C
:101AC00018959BED980F973150F496EF960F9D3136
:101AD00030F491E0681708F090E0892F089580E0D5
:101AE00008951F920F920FB60F921124FF920F9339
:101AF0001F932F933F934F935F936F937F938F9396
:101B00009F93AF93BF93CF93DF93EF93FF93809116
:101B10002303882321F082E08093230307C180916F
:101B20001303823021F483E080931303FFC00091FC
:101B3000840010918500B4E016950795BA95E1F7F9
:101B4000C091390184E1C89FE0011124C65CDE4FD9
:101B50008881843031F40E3208F4E8C00F3408F084
:101B600086C04A990CC0843039F461E0CE0196DB1E
:101B7000109285001092840000931701D7C08091C5
:101B80001701081B00931601109285001092840023
:101B90008881843021F460E0CE0180DBC7C082E020
:101BA00086BBF88000911701F1100FC0053608F0D0
:101BB000BDC080911601853608F0B8C0088B898BAE
:101BC00081E08A8382E08883B1C01091160182E0AF
:101BD000412F602FF8125BC0CE01409685DB6A81F1
:101BE0008823F9F0488950E09A01220F331F240F0F
:101BF000351F200F311D3595279535952795288B55
:101C0000298930E0C901880F991F820F931F810F26
:101C1000911D9595879595958795898B6F5F6A83BB
:101C200085C0643090F180EA9FE0909389008093B2
:101C300088008A818C3050F08889298930E0280F0B
:101C4000311D2536310514F084E014C08091CC029A
:101C5000882379F0612F802F34DF882351F0688941
:101C600089892FDF882329F081E0809313030ADB21
:101C70005DC083E088830A8B1B8B198287E08B838E
:101C80001C8282E080936F0051C018828FCFCE01FA
:101C900042962ADB882301F161E0CE01FFDA4A890E
:101CA00050E09A01220F331F240F351F200F311DE2
:101CB00035952795359527952A8B2B8930E0C901D5
:101CC000880F991F820F931F810F911D95958795FE
:101CD000959587958B8B2AC0412F602FCE0140961A
:101CE00003DB882301F160E0CE01D8DA488950E0B7
:101CF0009A01220F331F240F351F200F311D3595F8
:101D0000279535952795288B298930E0C901880FBB
:101D1000991F820F931F810F911D9595879595951A
:101D20008795898B03C087E0F812A1CFFF91EF91CF
:101D3000DF91CF91BF91AF919F918F917F916F91E3
:101D40005F914F913F912F911F910F91FF900F90B5
:101D50000FBE0F901F901895E091390184E1E89F24
:101D6000F0011124E65CFE4F8081811107C081E003
:101D7000909122039F3F19F480E0089581E0089537
:101D800080E690E00E944B058093CC0281E690E0D3
:101D90000E944B0580931D03882321F081E28093EC
:101DA000C602D6CA0895299A0C94D003089529989A
:101DB0000C94D0030895A7E0B0E0E1EEFEE00C94AF
:101DC000DE1A9091D002943559F420911603309187
:101DD00017032F5F3F4F30931703209316033EC026
:101DE000963459F420911403309115032F5F3F4F1F
:101DF000309315032093140331C0953459F4209186
:101E0000C9023091CA022F5F3F4F3093CA0220931C
:101E1000C90224C09B3459F42091190330911A034C
:101E20002F5F3F4F30931A032093190317C0983444
:101E300059F420911B0330911C032F5F3F4F3093C7
:101E40001C0320931B030AC02091C7023091C802D3
:101E50002F5F3F4F3093C8022093C70295E79983C5
:101E6000882399F0BE016E5F7F4F80911D030E9411
:101E70003305BE016C5F7F4F8091CC020E94330519
:101E800085E58E8386E0D82E02C0DD24D3940E949F
:101E900006030E94860216E080E891E084DF80E07D
:101EA00093E085DF1150C1F780E093E07CDF80E8AC
:101EB00091E07DDF80E891E076DF299887E390E08C
:101EC0000E942A0283E00E94D5032C988FE70E948B
:101ED000B3018091CF028D0D0E94B301CE01019616
:101EE0007C018C01F80181918F010E94B301802F48
:101EF0008E198D15B8F38091CF02882339F08DECBF
:101F000092E00E947C060E94B301F5CF2C9A0E94B9
:101F100086028DEC92E00E94610615E18AE30E9440
:101F20000D028F7731F0115021F081E00E94D5032E
:101F3000F5CF0EDA2796E7E00C94FA1ACF93DF93E9
:101F4000EC018981811107C08091CC020E940105BA
:101F500080911D0313C08436A1F48091BF0290913B
:101F6000C002A091C102B091C20240E364E00E94AD
:101F7000C7048EE20E943A04809112030E94010578
:101F80004DC0833709F04DC040E361E080911603F6
:101F9000909117030E94C7048EE20E943A0440E326
:101FA00061E080911403909115030E94C7048EE2B2
:101FB0000E943A0440E361E08091C9029091CA0214
:101FC0000E94C7048EE20E943A0440E361E08091DF
:101FD000190390911A030E94C7048EE20E943A04EA
:101FE00040E361E080911B0390911C030E94C704B1
:101FF0008EE20E943A0440E361E08091C702909132
:10200000C8020E94C7048EE20E943A0440E361E0E5
:1020100080911003909111030E94C7040E948C04C8
:102020002CC08936D9F441E06CEC72E0CE01029606
:102030000E9406056091CC0280E690E00E94460571
:1020400041E06DE173E0CE0104960E9406056091C7
:102050001D0381E690E00E9446050FC08DEC92E0E2
:102060000E94610621966991662329F08DEC92E029
:102070000E946606F8CF80E09EDEDF91CF91089542
:10208000A1E0B0E0E6E4F0E10C94DD1A80911303E6
:10209000882309F484C0C090BF02D090C002E090B1
:1020A000C102F090C202833009F060C08FE30E9449
:1020B0000D02182F8630C8F087E693E00E94610673
:1020C0002C988FEF0E94B30180E00E94B301082F8B
:1020D000115049F080E00E94B301682F87E693E039
:1020E0000E946606F5CF2C9A01C000E031D910920B
:1020F0001303053709F053C041E0BE016F5F7F4F06
:102100008AE693E00E940605019759F5998180912E
:10211000CC02981326C080916E03853571F48091AE
:102120006903882339F087E693E00E947C060E94C9
:102130003A04F5CF0E948C0432C080916903845028
:102140008093690384E0809368036AE087E693E004
:102150000E946606E091BB02F091BC0288E00995FE
:102160001EC087E693E00E94610619C0823051F4D8
:102170008091CB029C2D981B983088F0E9D8109262
:1021800013030DC0813059F487E390E00E942A02C6
:102190000E94980282E080931303C092CB022196A2
:1021A000E8E00C94F91AD8DD882361F083E080938D
:1021B00018038091100390911103019690931103DD
:1021C0008093100380911803815080931803882313
:1021D00021F083E080931203089581E0ECCD08950F
:1021E000109220031092400283E080938A018FEFC7
:1021F000809322030895EBE8F1E02081211105C0CE
:10220000892BB1F080E090E00895B2E0E933FB075C
:10221000B8F7009751F04181DC013C91431305C0B0
:10222000428111963C91431751F0E20FF11DE5CF29
:1022300032E0E933F30719F010F0E9E3F2E0CF01FF
:1022400008958AE392E0D7DF009799F020918A0100
:10225000FC013081231768F4E20FF11D8081809327
:102260003C0289E780933D02818180933E0281E0B8
:10227000089580E00895EF92FF921F93CF93DF932C
:102280001F92CDB7DEB7182F8091C60286FF18C007
:1022900084E599830E943A04E12E9981F92E15E094
:1022A000F70181917F010E9401051150C9F78091CA
:1022B000C60285FF03C08AEF0E9401050E948C04BC
:1022C0000F90DF91CF911F91FF90EF90089586E3DB
:1022D0000E94260280913C02833511F48BE901C0F3
:1022E0008BE40E94D50321E04CE065E08AE392E0B4
:1022F0000E9444070E9498028AE392E0BCCF0895AE
:10230000E6DF80913C02893631F081E0809339022A
:1023100089E280932203089585E390E00E944B05B3
:1023200080931E0386E390E00E944B058093210377
:1023300057DF10928B010895A7E0B0E0E2EAF1E1E7
:102340000C94DC1A6C018C010F5F1F4F45E0BE013D
:102350006F5F7F4FC8010E940605843008F07BC084
:1023600099819130A9F4833061F46A8185E390E02A
:102370000E9446056B8186E390E00E944605CCDF13
:10238000B4C080911E030E940105809121035EC0AC
:10239000923009F051C0813039F081E09A8191305A
:1023A00009F080E0F82E02C0FF24F39480918B01A5
:1023B000811104C089E891E00E947F040BE811E0DC
:1023C000F8018081882309F443C0F2E009331F0734
:1023D00008F03EC081E00B38180719F080E20E9437
:1023E0003A04F80181810E940105F80182810E946E
:1023F0000105FF20E1F08AE30E943A0493E0F8012E
:1024000080819817A0F4943038F090FF05C08CE2DA
:102410009F830E943A049F81EE24E394E90EF80121
:10242000E90FF11D80810E9401059E2DE8CFF80182
:102430008081080F111DC4CF933051F480E090E0EB
:10244000DADE8B5891409EEA981B892F0E94010585
:102450000E948C044AC080E090E0CDDE7C01F8014F
:1024600001900020E9F73197E01BF10BF695E79515
:10247000BB24B394BE0E97012B0D311D2B58314058
:102480002F3A310574F5F701B1928F0121E0822FC7
:10249000880F81502B15D8F441E0B801F601E80F00
:1024A000F11DCF012F830E9406052F81233058F0A4
:1024B00020FD09C0D80111978C91843621F4F801D0
:1024C000808180931F032F5F0F5F1F4FE0CFF9E3E1
:1024D000EF16F2E0FF0648F4F701E20FF11D10825B
:1024E00004C08DE891E00E947F042796E9E00C94F7
:1024F000F81A80913902882351F0E9DE89E280934D
:10250000220380913902815080933902089568CE68
:102510000895FF920F931F93CF93DF93FC01F080F8
:102520000181C281D38114818FE5809322031092AF
:10253000390280911E03811105C0809121038823F7
:1025400009F4A9C080913A028F1104C080913B0226
:10255000801729F045DEF0923A0200933B02809109
:1025600020038F3F09F497C0C0933C02D0933D02F3
:1025700010933E02CC23F1F081111CC080911E0308
:10258000181761F0143651F08DEA8C0F823010F07C
:10259000CD3739F48FEF809320037DC0C43509F423
:1025A0007AC08D2F807F803609F075C0D067D093B8
:1025B0003D0257C046DE811105C08091200388236B
:1025C00009F469C080914002811107C0E0912003A5
:1025D000F0E0ED56FE4FE49101C0E82FE33541F401
:1025E000C43531F4909120039E5F9093200304C082
:1025F000EC1711F0F5DD4FC0882369F080918A0156
:102600008E5F80938A011DDE81110EC080912003B0
:102610008E5F8093200380912003E82FF0E0EC563A
:10262000FE4F14911F3F59F480913C028093400269
:102630008436B9F480911F0380933E0212C0109338
:102640003C0297E790933D0290911E0390933E02C7
:102650008E5F80932003109240028E3021F0112370
:10266000D1F04EDE18C08AE392E0C5DDDC010097B0
:1026700081F02C9130E089E392E0821B930BA81744
:10268000B90730F4ED01C20FD31F48814D93F7CF46
:102690001C92A6DDE4CFCDB7DEB7E5E0ADC7FF9273
:1026A0000F931F93CF93DF938C01EC0109900020CF
:1026B000E9F72197C81BD90BFC018181823751F4BE
:1026C00087E390E00E942A020E94980281E08093B2
:1026D000230326C0833711F5FC2E2C988FE70E9428
:1026E000B3018C2F82500E94B301E801229612E0C0
:1026F0001F1528F489910E94B3011F5FF9CF2C9A0E
:102700000E9486028AE30E940D028F7721F081E009
:102710000E94D503F7CF0E94980202C010922303B3
:10272000CDB7DEB7E5E068C7A0E4B0E0E9E9F3E1E2
:1027300044C780912303882309F455C0813011F5E3
:102740008091BF029091C002A091C102B091C202DB
:1027500020914102281709F446C085E30E940D022A
:10276000813129F48AE30E9426020E949802809116
:10277000BF029091C002A091C102B091C2028093A9
:10278000410231C08FE30E940D02D82E8FE38D15D8
:1027900038F12C988FEF0E94B3018E010F5F1F4F0D
:1027A0007801C02E8E2D801B8D1538F480E00E949C
:1027B000B301F70181937F01F5CF2C9A81E08093DB
:1027C0001001802F8C198D1530F4F80181918F0143
:1027D0000E943A04F6CF0E948C048FEF8093100180
:1027E00081E080932303C05CDF4FE8E002C72091C3
:1027F000AA033091AB032115310521F42091070183
:10280000309108018091050190910601009741F4F3
:102810008DB79EB74091090150910A01841B950B19
:102820002817390718F4821B930B089580E090E075
:10283000089582E40E943A0440E265E08091AA0390
:102840009091AB030E9491040E948C0483E50E9446
:102850003A0440E265E080910701909108010E94EE
:1028600091040E948C0485E40E943A0440E265E0F1
:1028700080910501909106010E9491040E948C04B0
:1028800086E40E943A04B3DF40E265E00E949104CE
:102890000C948C0408951F920F920FB60F9211247E
:1028A0002F933F934F935F936F937F938F939F9358
:1028B000AF93BF93EF93FF9380912603882339F062
:1028C00084E293E00E947C068093C60005C080915C
:1028D000C1008F7D8093C100FF91EF91BF91AF91B7
:1028E0009F918F917F916F915F914F913F912F9128
:1028F0000F900FBE0F901F9018951F920F920FB65A
:102900000F9211242F933F934F935F936F937F9375
:102910008F939F93AF93BF93EF93FF9382B192E016
:10292000892782B96091C6008091C000887121F426
:1029300087E693E00E946606FF91EF91BF91AF9109
:102940009F918F917F916F915F914F913F912F91C7
:102950000F900FBE0F901F90189597FF04C022E0B4
:102960002093C0009F779093C5008093C40088E9AE
:102970008093C10086E08093C20008958091C100D9
:1029800085FD09C080912603882329F08091C1002C
:1029900080628093C1000895E091BB02F091BC0277
:1029A00081E00995EBCF08950F931F93CF93DF93A9
:1029B000EC0110E0212F30E0F901EE0FFF1FE20FD4
:1029C000F31FE458FF4F0491F901EE0FFF1FE20FD0
:1029D000F31FE358FF4F25913491002399F020977E
:1029E00039F480E20E943A04802F0E943A0408C021
:1029F0008881801305C0CE01F901099581E003C0EB
:102A00001F5FD8CF80E0DF91CF911F910F91089584
:102A1000CF93C091100180931001809169038823A6
:102A200009F43DC087E693E00E947C0620914202B3
:102A3000309143028A3011F08D3011F521153105A6
:102A400061F3F901EC5BFD4F108284E492E0ACDFAE
:102A5000811111C089EB91E00E947F0484E492E02F
:102A60000E94740481EA91E00E947F0480E090E07B
:102A70009BDF0E948C041092430210924202CDCF41
:102A80002034310550F6A9014F5F5F4F5093430248
:102A900040934202F901EC5BFD4F8083BECFC093AF
:102AA0001001CF9108951498ECD0149A82E00C9400
:102AB000D5030895149AE5D0149882E390E00C941D
:102AC000D0030895CF93DF931598EC018991882363
:102AD00011F0F0DFFBCF159ADF91CF910895CF93DE
:102AE000DF93EC011598FE018491882319F0E2DF51
:102AF0002196F9CF159ADF91CF9108951598D3DFDC
:102B0000159A089581E0FACF08958058F7CF089577
:102B1000CF93C82F159889E3C6DF8C2F8F708067FD
:102B2000C2DF88E3C0DF159ACF9108950C9A149AFA
:102B30000D9A159889E3B7DF85E1B5DF85E5B3DF49
:102B40008EE6B1DF81E7AFDF88E3ADDF8FE0ABDF9B
:102B500086E0A9DF159AD6DF87EF91E0C0DF80EF2E
:102B600091E0BDDF8DEE91E0BADF8EED91E0B7DF51
:102B70008BED91E0B4DF80E9C1DF8DEC91E0AFDF58
:102B800080EABCDF8DEB91E0AADF10928502089508
:102B9000A1E0B0E0EDECF5E114C58C01FC01818110
:102BA000823661F168F4833499F542E0BE016F5FCB
:102BB0007F4FC80102960E94060589819FDF28C0C9
:102BC000833619F0843719F023C09CDF21C042E01E
:102BD000BE016F5F7F4FC80102960E940605898182
:102BE000803308F08FE2898390DF8981F801E81B48
:102BF000F10914AAC801049665DF0AC042E0BE01CB
:102C00006F5F7F4FC80102960E940605898180DFB1
:102C10002196E4E0F2C4CF93C82F8A3081F415984E
:102C20008091850291E0980F90938502803118F48D
:102C300080E240DFF5CF159A1092850213C08D30E7
:102C400089F080918502803168F4811102C080EAA8
:102C500055DF15988C2F2EDF809185028F5F809332
:102C60008502159ACF910895E4E6F0E080818B7F8C
:102C700080832F9A84B1806B84B9269881E58CBDBE
:102C800008958EBD0DB407FEFDCF8EB508950ED10B
:102C9000109286020895A6E0B0E0E0E5F6E193C464
:102CA00080918602882359F1CE01019602D18823B2
:102CB00031F180918602823019F48E8180FD1FC02F
:102CC000119A89E40E943A04898140E362E090E02D
:102CD0000E94C70440E364E08A819B810E94C7048C
:102CE00040E364E08C819D810E94C7048E8140E3B3
:102CF00062E090E00E94C7040E948C04119826961E
:102D0000E2E07DC480918602811159C10895FC01E1
:102D100021812237A9F42281222349F02381222311
:102D200031F042E066E872E002960E94060580916A
:102D3000860240E362E090E00E94C7040C948C0499
:102D400008956091B8027091B0029091A702671740
:102D500030F12091B102621710F5E091B602482FD0
:102D600050E020919C0230919D02EE2379F0E62FF5
:102D7000E71B0E2E02C0440F551F0A94E2F7422BA8
:102D8000532B50939D0240939C0267C0220F331F28
:102D9000242B352B30939D0220939C025EC07091B2
:102DA000B202671730F12091B302621710F5E0917B
:102DB000B602482F50E020919A0230919B02EE23F8
:102DC00079F0E62FE71B0E2E02C0440F551F0A9420
:102DD000E2F7422B532B50939B0240939A023DC043
:102DE000220F331F242B352B30939B0220939A0202
:102DF00034C09330C1F49FEE960F943008F052C067
:102E000090E02FEE260F02C0880F991F2A95E2F757
:102E10002091980230919902282B392B30939902F6
:102E2000209398023FC09530C1F49CEE960F9430E9
:102E3000B0F4482F50E098EF960F02C0440F551F92
:102E40009A95E2F720919A0230919B02242B352B20
:102E500030939B0220939A0202C0953019F560339B
:102E600008F5E62FE695E695E695262F2770F0E023
:102E7000EE56FD4F882359F081E090E0022E01C00C
:102E8000880F0A94EAF79081982B90830BC081E019
:102E900090E0022E01C0880F0A94EAF78095908195
:102EA000892380836F5F6093B802089512980A980F
:102EB0000895FC018091A602882309F460C08091E6
:102EC000A502823051F1833009F05BC08091A102EC
:102ED0009091A2022091A1023091A202892F9927FC
:102EE0002095309533278217930709F044C08091CD
:102EF000A1029091A20299279093A2028093A1022D
:102F00002091A1023091A20280919F029091A00293
:102F1000982F8827822B932B29C08091A102909112
:102F2000A2022091A1023091A202892F9927209517
:102F30003095332782179307A1F08091A3029091D7
:102F4000A4028E3E9748B9F48BE08093A50280914D
:102F5000A1029091A202892F99279093A4028093B5
:102F6000A3028091A1029091A20299279093A202BC
:102F70008093A10206C080E01092A602089580E02E
:102F800008958091A50280838091A3029091A4026C
:102F9000928381838091A1029091A2029483838382
:102FA00080919E0285831092A2021092A10210923B
:102FB000A4021092A30210929E0281E0DDCF80B1A4
:102FC0009091A60291116AC2847090919102911120
:102FD00032C090919002811104C09F5F9093900243
:102FE0005DC29923C9F081E08093910280938F02A2
:102FF00010928E0210929B0210929A0210929D02E1
:1030000010929C028FEF8093B80281E090E0909341
:103010008D0280938C0242C280918A0290918B0231
:103020008F3F2FEF920709F439C2019690938B02DC
:1030300080938A0233C290918F02992309F49DC034
:10304000882371F080918C0290918D02019690936B
:103050008D0280938C028330914008F40FC1F4C03C
:10306000409190028FED840F8A3040F480918C0261
:1030700090918D020797059708F447C08DEA840F59
:10308000843768F480918C0290918D029C012952C2
:1030900031092B333105E0F144974F97E0F182EC91
:1030A000840F813138F480918C0290918D02CE97FB
:1030B0004197A0F185ED840F883138F480918C021E
:1030C00090918D028B97489760F181ED840F8D3040
:1030D00038F480918C0290918D024797089720F1E7
:1030E0004350443068F480918C0290918D029C0191
:1030F0002851310929303105D0F009970697B8F0E9
:103100001092910260E070E014C060E672E011C0BD
:103110006FE472E00EC06EE372E00BC06DE272E02D
:1031200008C06CE172E005C06BE072E002C06AEFBB
:1031300071E080919102882329F041E150E087EA13
:1031400092E068D21092B8028091A702883059F4B8
:1031500080918C0290918D024897099710F481E03C
:1031600001C080E0EEDD81E08093900210928D023C
:1031700010928C0210928F0281C090918E0299233E
:1031800009F46BC0882309F48CC14091B8025091B6
:10319000B402451313C08091B502813079F4809157
:1031A00090029091AC02891708F44EC09091AD0244
:1031B000981708F449C01092B50260C080918C0243
:1031C00090918D02019690938D0280938C022091B4
:1031D000A702213031F58C30910508F44FC04B30F7
:1031E00000F181E0840F8093B402842F90E00B976C
:1031F000382F222780919C0290919D02822B932B45
:1032000090939D0280939C028091B202840F8F5F05
:103210008093B3028AE090E090938D0280938C02B9
:1032200040C18330914050F1242F30E0852F90E051
:1032300001972817390741F48091B502811104C024
:103240004F5F4093B8021AC0109291021092900200
:1032500010928D0210928C0211C0811106C08091D3
:1032600090028F5F8093900209C081E080938E026C
:1032700081E090E090938D0280938C028091910286
:10328000882309F40BC16091B8028091B4026813DD
:1032900005C18091B502811101C1209103013091D6
:1032A000040140919A0250919B022417350769F45A
:1032B00080918A0290918B02823E944030F48091FA
:1032C00089028F5F8093890202C010928902E09187
:1032D000A702E13051F4809189028150823090F44C
:1032E00010928B0210928A029FC0E53029F48091DF
:1032F0008902813039F4F4CFEA3021F480918902D7
:1033000080FDEECF81E08093A602E83029F5CA0166
:1033100080959095937060918702709188028617CE
:10332000970799F490939B0280939A02E093A502E9
:1033300040919C0250919D025093A4024093A3029D
:103340009093A2028093A1026FC01092A6025093A4
:1033500088024093870268C0E230F9F4611144C0EA
:1033600080918A0290918B0283359740D8F58091A5
:1033700001019091020190939D0280939C023093F1
:103380009B0220939A0280919E02816080939E020C
:1033900010928B0210928A0227C0E53029F5909195
:1033A00092028091930260919402492F42954F704E
:1033B0009F704927982F9F70492782958F704827C3
:1033C00050E0862F8F7090E04817590711F0109247
:1033D000A602809195028627909196028927909166
:1033E000970289131092A602E093A50280919C0295
:1033F00090919D029093A4028093A302E23021F465
:10340000909302018093010180919A0290919B0216
:103410009093A2028093A1028091980290919902C8
:103420009093A00280939F028091A602882351F17D
:1034300080919A0290919B0240919C0250919D0232
:103440002817390799F420910101309102012417BE
:10345000350761F420918A0230918B02283239407D
:1034600028F420919E02216020939E025093020135
:1034700040930101909304018093030110928B0209
:1034800010928A021092910210929B0210929A025C
:103490001092900210928D0210928C028091A602DE
:1034A00008958091A70240919002833049F5509190
:1034B000B802503129F54550483050F580918C02C2
:1034C00090918D029C012E5331092131310550F428
:1034D00010928E02109299021092980281E18093CC
:1034E000B8024BC02AE02093A7025093B20220E218
:1034F0002093B3022093B4020F974097D0F523C0D6
:103500008091A802481758F48091AC024817E8F45B
:103510001092910210928D0210928C022EC0809116
:10352000A902841788F380918C0290918D022091DA
:10353000AA0230E08217930738F32091AB0230E003
:103540002817390708F381E015C08091AD02841770
:10355000F8F280918C0290918D022091AE0230E0C1
:1035600082179307A8F22091AF0230E0281739079D
:1035700078F280E0E6DB10928E0281E073CEAA1B27
:10358000BB1B51E107C0AA1FBB1FA617B70710F04E
:10359000A61BB70B881F991F5A95A9F78095909580
:1035A000BC01CD0108952F923F924F925F926F928E
:1035B0007F928F929F92AF92BF92CF92DF92EF92C3
:1035C000FF920F931F93CF93DF93CDB7DEB7CA1B44
:1035D000DB0B0FB6F894DEBF0FBECDBF09942A886F
:1035E000398848885F846E847D848C849B84AA8417
:1035F000B984C884DF80EE80FD800C811B81AA81A4
:10360000B981CE0FD11D0FB6F894DEBF0FBECDBF6E
:10361000ED010895FB01DC0102C005900D924150BF
:103620005040D8F70895F999FECF92BD81BDF89A20
:10363000992780B50895262FF999FECF1FBA92BD1C
:1036400081BD20BD0FB6F894FA9AF99A0FBE019683
:063650000895F894FFCF7D
:0C36560002FFFFFFFF0000AE0320000099
:00000001FF
