:10000000A7C10000CBC10000C9C100000C944F1370
:10001000C5C10000C3C10000C1C10000BFC10000D4
:10002000BDC10000BBC100000C942B37B7C100005C
:10003000B5C10000B3C10000B1C10000AFC10000F4
:10004000ADC100000C94E812A9C10000A7C10000D6
:10005000A5C10000ADC40000A1C100009FC1000007
:100060009DC100009BC1000099C1000097C1000024
:1000700095C1000093C1000091C100008FC1000034
:100080008DC100008BC1000089C1000087C1000044
:1000900085C1000083C100006E2A742C882A882B39
:1000A000AF2BCF2BD92B7C2BFE333034453530345E
:1000B00045357834A0344535ED3415354D040A6D99
:1000C000DF09424E09435B0345102146050C4D40B4
:1000D0000C47080C52F60754161857700856B90901
:1000E000580A0E63F83265770966F61B6C3D097194
:1000F0000A22745805754C1D78230341E916000047
:10010000002A03430055004E0000001603620075EC
:1001100000730077006100720065002E00640065C6
:100120000000000403090409024300020100807D6D
:100130000904000001020201000524000110052449
:1001400001030104240206052406000107058203B9
:100150000800FF09040100020A000000070504026C
:100160004000000705830240000012011001020058
:100170000008EB034B2000000102DC01202F2000CF
:10018000203D2000072E050DD391FF080500000C2F
:100190000021656A2D3B1322F862073F181D1CC71A
:1001A00000B0876BF8B611EA2A001F41000D2E2D12
:1001B00007D3913D04320000060021656A55E43002
:1001C00023B900070018146C070090876BF85611CC
:1001D000E92A001F410000030F1E2627000000032C
:1001E0000F1E2536386700030F2567406050000357
:1001F0000F275188838100030F2750C8C3C20027EF
:100200000000000000000067000000000000005037
:10021000000000000000008100000000000000C29B
:10022000000000000000504C4C310D0A00504C4CB6
:10023000300D0A005620312E36375F6E6F637265BF
:10024000646974732043554E00202F2000203D2008
:1002500000416C6C6F63206661696C6564004F4B94
:100260000050726F626C6D657320617420002062B3
:1002700079746573206F662052414D202D200074E3
:10028000657374696E672000424F56460D0A00453B
:1002900052523A4343410D0A000007022E030D0457
:1002A000E905CA070C0B060D210E650F6A10C8116F
:1002B00093120315341733181819161B43215625AA
:1002C00000261129592C812D353EC34E2F41004562
:1002D0004F420D0A004E2F41004E2F410000535354
:1002E00000547D7DFFFF4B4B7E7E0020697320759F
:1002F0006E6B6E6F776E2920557365206F6E65206B
:100300006F66003F202800413435303535004134D8
:100310003530353500303000302E302E302E300064
:1003200032333233003139322E3136382E302E31DD
:10033000003235352E3235352E3235352E300031FE
:1003400039322E3136382E302E323434003100001E
:100350008FEF82B988B980E880937400109275009D
:1003600011241FBECFEFD0E2DEBFCDBF11E0A0E071
:10037000B1E0E4EAF3E700E00BBF02C007900D92A2
:10038000A233B107D9F72DE0A2E3B1E001C01D927D
:10039000A132B207E1F70BD00C94D03931CEF894EA
:1003A00081E085BF82E085BFE0E0F0EF09942FE0B7
:1003B00088E190E00FB6F894A895809360000FBE96
:1003C0002093600090E080E80FB6F894809361007D
:1003D000909361000FBEBCDF04B603FE0AC083E346
:1003E00090E0D5D5882329F060E083E390E0CAD57A
:1003F000D6DF8091AA038111FFCF89EF87BD84E00A
:1004000085BD82E084BD80936E00109280008AE0FA
:100410008093810084B7877F84BF519A0E94C01E59
:1004200095D70E94FB360E94B6170E94EF0D0E94DE
:10043000A22085E79EE19093A00380939F0381E033
:100440008093360159980E94E037EDD10E94451003
:100450005AD30E94411C0E948D1D0E9440150E948B
:10046000DD1FF1CF292F33272230310559F02330FA
:10047000310569F021303105E9F482E190E02AE6A6
:1004800031E01CC083E490E027E231E017C09927F7
:100490008130910549F028F0029761F4E1E0F1E044
:1004A00005C0E3E2F1E002C0EBE0F1E0849190E00E
:1004B0009F0104C080E090E020E030E0FA01318349
:1004C000208308958EBD0DB407FEFDCF8EB508952F
:1004D000EF92FF920F931F93CF93DF931F92CDB7AD
:1004E000DEB7482F8A3008F048E088E0489F700166
:1004F0001124F701EA52FE4F7F018BE290E0F701F1
:1005000064918C010F5F1F4F49833CD5FFEFEF1AB9
:10051000FF0A49810333110511F0C801F0CF45509E
:10052000453010F461E101C067E184E290E00F9092
:10053000DF91CF911F910F91FF90EF9023C5CF9343
:10054000DF9382E090E0FC01E555FE4F6491EC0101
:10055000219618D5CB32D10511F0CE01F4CF87E327
:1005600090E0FC01E35BFE4F6491EC0121960AD51B
:10057000C036D10511F0CE01F4CF88E0DF91CF91E4
:10058000A7CF5F98806C9EDF80E09CDF5F9A089524
:10059000CF93DF931F92CDB7DEB75F9880646983F6
:1005A00091DF6981862F8EDF5F9A0F90DF91CF9167
:1005B00008955F9887DF5F9A0895EF92FF920F93F7
:1005C0001F93CF93DF93EC01EA98579A5F9A8EE1DD
:1005D00090E00BD35F988EE190E007D35F9A8DE2B5
:1005E00090E003D380E3E5DF84E690E0FED25F98FD
:1005F00080E468DF7E0189E2E80EF11C8E010F5F66
:100600001F4FCE01C4D45EDF0E151F0511F0E801A7
:10061000F5CF5F9A5F988EE755DF8BE290E0EC01B3
:100620002196B5D44FDFC333D10511F0CE01F7CFFA
:100630005F9A83E3BEDF81E0DF91CF911F910F913D
:10064000FF90EF90D7C2CF93DF931F92CDB7DEB765
:1006500022E0298341E0BE016F5F7F4F01960AD4FB
:10066000898136DF82E090E0A8DF0F90DF91CF91A3
:100670000895CF93EA9886E39CDFCFEF85E399DF77
:10068000C1508077803229F08AE090E0AED2C1116B
:10069000F5CFCF910895CF93CFEF84E38ADFC15098
:1006A0008077803129F08AE090E09FD2C111F5CFA8
:1006B000EA9ACF9108950F931F93CF93DF9300D0C1
:1006C000CDB7DEB78C01FC0181818737E9F441E0C9
:1006D000BE016F5F7F4FC8010296CCD3892BA1F07A
:1006E00041E0BE016E5F7F4FC8010496C3D3892BE2
:1006F00059F06A8189814CDF83E35BDFCCDF89813C
:10070000B5D38A81B3D32CC041E0BE016E5F7F4F69
:10071000C8010196AFD3892B21F18A81893969F407
:1007200010E0812F2EDFA2D3812F8770873009F44C
:100730001AD31F5F1033A9F714C023DF182F83E4E7
:10074000BED28A8193D380E891E000D3812F8ED3EB
:100750008CE791E0FBD240E262E0812F90E007D38A
:1007600002D30F900F90DF91CF911F910F910895B9
:1007700086E31FDF1092A1031092E001089582E04A
:1007800090E01BDF81E08093A1031092E0010895C7
:100790000F931F93CF93DF93082F10E0C62FD0E065
:1007A00085E3EFDE801731F0CE011FD21150C1F783
:1007B00081E001C080E0DF91CF911F910F910895FA
:1007C00085E2DFDE8F3311F080E0089586E3F1DE0D
:1007D00080913201811104C08DE292E0B7D202C053
:1007E0008DE3E7DE83E3E5DE64E081E0D1DF85E2EF
:1007F000C8DE8F3349F780913201811103C086E250
:1008000092E0A4D281E0089585E3BBDE8D3051F4FF
:1008100085E2B7DE8F3331F4D3DF84E3CADE80773D
:100820008031D9F708958091140D843009F069C0A2
:100830008093E9008091330181112AC08091E80002
:1008400085FF26C08091F2009091F300892B31F052
:100850006091F10089E794E02ED6F4CF8091E80012
:10086000982F9B7F9093E8008F778093E80081E03A
:100870008093330183E194E090939E0380939D03E2
:10088000E0919F03F091A00381E00995109233015C
:1008900083E08093E90080913804882391F180916E
:1008A000E80085FF2EC0F89480913804882369F011
:1008B0008091F2009091F3008034910530F486E34A
:1008C00094E00FD68093F100EFCF78948091F200FE
:1008D0009091F3002091E800322F3E7F3093E800A2
:1008E0002F772093E8008034910559F40E94A135B8
:1008F0008091E800982F9E7F9093E8008F778093F7
:10090000E800089542E061EC82E00E94513542E344
:1009100061E883E00E94513542E360E884E00E9490
:1009200051351092000110920101109202011092B3
:10093000030108958091150D9091160D913229F0C3
:10094000923261F1903299F512C0813A81F580912D
:10095000E800877F8093E80067E070E080E091E046
:100960000E94CA358091E800982F9B7F11C0813288
:10097000F1F48091E800877F8093E80067E070E001
:1009800080E091E00E9474368091E800982F9E7F6D
:100990009093E8008F778093E8000895813239F4CE
:1009A0008091E800877F8093E8000C947B35089560
:1009B0001F920F920FB60F9211240BB60F928F93C6
:1009C0009F93AF93BF93EF93FF938091A303909175
:1009D000A403A091A503B091A6030196A11DB11D8A
:1009E0008093A3039093A403A093A503B093A603BD
:1009F0008091A2038F5F8093A20380910E0D8F5F81
:100A000080930E0D8D37A8F08091140190911501FF
:100A1000A0911601B09117010196A11DB11D8093FF
:100A2000140190931501A0931601B0931701109231
:100A30000E0DEEEAF3E080819181181619061CF480
:100A4000019791838083369683E0E63CF80799F717
:100A50008091C8039091C903009729F00197909362
:100A6000C9038093C8038091DB038F3F19F0815045
:100A70008093DB03FF91EF91BF91AF919F918F9195
:100A80000F900BBE0F900FBE0F901F9018952FB7B1
:100A9000F8944091A3035091A4036091A503709131
:100AA000A603FC0140835183628373832FBF0895A3
:100AB000CF93DF9300D000D0CDB7DEB7CE01019643
:100AC000E6DF8C81D3D18B81D1D18A81CFD189814D
:100AD000CDD149D10F900F900F900F90DF91CF9112
:100AE0000895CF93DF9300D000D0CDB7DEB7CE010D
:100AF0000196CDDF89819A810F900F900F900F9012
:100B0000DF91CF9108951F93CF93DF938091A3033B
:100B10009091A403A091A503B091A6032091350163
:100B2000281709F45EC08091A3039091A403A091BB
:100B3000A503B091A60380933501A895CEEAD3E032
:100B400010E028813981232B19F4812F0E944F1A3C
:100B50001F5F26961430A9F78091C8039091C903AE
:100B6000892B11F40E94AB1A8091DB03811102C022
:100B70000E94171B80913204882339F081508093A2
:100B80003204811102C00E942D1E8091A2038D3774
:100B900040F11092A2038091070181FF04C08BB144
:100BA00092E089278BB984E893E09093A80380931F
:100BB000A70380911401811102C00E9482338091A9
:100BC00034018F5F809334018C3359F410923401D7
:100BD0008091AD038F5F8093AD038C3310F0109242
:100BE000AD03DF91CF911F910895880F991F019751
:100BF000F1F7089520ED37E0815020F0F9013197A9
:100C0000F1F7FACF0895CF93DF93DC0113968C911F
:100C10001397843509F050C0CD010396CC91FD01A6
:100C200070964DE04C1750F050E0D0E09E012F50F0
:100C300031094217530709F03FC005C021912B33FA
:100C400099F34F5FEFCFFE013E97E80FF91F208128
:100C5000243591F514963C911497218132132CC0C0
:100C600015963C9115972281321326C016963C9119
:100C700016972381321320C017963C911797248131
:100C800032131AC06197C80FD91F85818883868166
:100C9000898381858A8382858B8383858C83848500
:100CA0008D8385858E838C918A508C9312968C913E
:100CB00012978A5012968C93DF91CF910895CF931B
:100CC000C82F8091360182FF03C08C2F0E94FD2126
:100CD0008091140D843081F48091360180FF0CC026
:100CE00080913804803408F09EDD6C2F86E394E018
:100CF000E2D3CA3009F497DD809135048823C9F026
:100D00008091360183FF15C0CA3099F0CD3011F4BF
:100D10006BE301C06C2F8FEE93E0CDD3CD3019F48F
:100D20008FEE93E070DF83E08093320482E0809363
:100D30003404CF910895CF93DF93EC0189918823F8
:100D400011F0BDDFFBCFDF91CF910895CF93DF93FB
:100D5000EC01FE018491882319F0B1DF2196F9CFCF
:100D6000DF91CF9108958DE0AADF8AE0A8CF0F939D
:100D70001F93CF93DF9300D000D000D0CDB7DEB764
:100D8000062F1E8215E02AE030E01150E1E0F0E08D
:100D9000EC0FFD1FE10FF11DB9010E94FE37805DD0
:100DA0008083CB010150009769F01111EECF0AC08A
:100DB000112359F01150E1E0F0E0EC0FFD1FE10FBD
:100DC000F11D4083015007FFF3CF81E090E08C0FCD
:100DD0009D1F810F911DAFDF26960FB6F894DEBFE1
:100DE0000FBECDBFDF91CF911F910F910895CF938B
:100DF000DF9300D000D01F92CDB7DEB71D8224E074
:100E0000382F3F702150E22FF0E03A3010F4305D7F
:100E100001C0395CA1E0B0E0AC0FBD1FEA0FFB1FC1
:100E2000308334E0969587953A95E1F761500097C5
:100E300039F7615067FD0BC0222349F02150E1E0F2
:100E4000F0E0EC0FFD1FE20FF11D4083F2CF81E0D7
:100E500090E08C0F9D1F820F911D6DDF0F900F9002
:100E60000F900F900F90DF91CF91089540E362E0D3
:100E700090E0BDCFDC01FB0130E090E08D91882354
:100E8000A9F0813608F0805220ED280F2A3030F08A
:100E90002FEB280F263030F429EC280F292B332391
:100EA00079F006C0803251F38A3341F3CF0105C097
:100EB000CF0101962083415041F4861B970B089582
:100EC000922F9295907F31E0D9CFFC01D5CFFB01D5
:100ED00050E020E0DC013D91CD013323D1F050ED15
:100EE000530F5A3050F4522F550F252F220F220F37
:100EF000250F2053230F51E0EDCF303211F03E3259
:100F000079F4442321F0208341503196E1CF50E021
:100F1000E1CFDF01552321F0442311F031962C93CA
:100F2000CF01861B970B089520E030E05AE0FC01CA
:100F30004191CF01442379F0E0EDE40FEA30B8F7B6
:100F4000F9015E9F90015F9F300D112420533109FC
:100F5000240F311DECCFFB01318320830895982F9E
:100F600092959F709A3010F4905D01C0995CFB01DE
:100F700090838F708A3010F4805D01C0895CFB0122
:100F8000818308950E94B239F999FECF08950C9497
:100F9000A5391F93CF93DF9314E0115068F0EC0153
:100FA0002196F5DF40E261E090E0E1DE112311F0EF
:100FB0008EE285DECE01F1CFDF91CF911F910895B2
:100FC0001F93CF93DF93162F11501F3F59F0EC0161
:100FD0002196DDDF4BDF112311F08AE370DE115023
:100FE000CE01F3CFDF91CF911F910895FF920F9320
:100FF0001F93CF93DF9300D0CDB7DEB7FC012181E3
:10100000293691F582818D3621F466E082E690E002
:1010100030C0843619F488E690E019C0813619F49E
:1010200089E690E00EC08E3619F48DE690E009C096
:10103000873619F481E790E004C08E3421F485E707
:1010400090E0A7DF44C08F3629F48BE790E09FDF64
:101050000DDF3DC0803709F03AC089E790E00E947B
:10106000AD3940E260E032C02D3429F466E08AEF09
:101070009FE0A6DF2CC0203521F460E18AED9FE0DF
:10108000F8CF1A82198242E0BE016F5F7F4F01964E
:10109000F1DE098110E0823021F4102F00278A81CF
:1010A000082BC80174DFF82E82E509DE40E364E016
:1010B000C8019DDE8DE492E049DE8F2DD7DE89E404
:1010C00092E044DE40E262E08F2D90E050DE4BDEA5
:1010D0000F900F90DF91CF911F910F91FF90089586
:1010E000CF92DF92EF92FF920F931F93CF93DF93F4
:1010F000CDB7DEB728970FB6F894DEBF0FBECDBFD1
:101100009C01FC0181818E010F5F1F4F893609F020
:101110006BC082818D3649F446E0B801C90103965F
:10112000A9DE82E690E026E04DC0843639F4B801AD
:10113000C9010396F9DE88E690E03FC0813641F4AC
:1011400044E0B801C9010396C2DE89E690E027C0F9
:101150008E3641F444E0B801C9010396B8DE8DE64D
:1011600090E01DC0873641F444E0B801C901039600
:10117000AEDE81E790E013C0803741F4B801C901C9
:101180000396D2DE89E790E022E01CC08E3449F459
:1011900044E0B801C90103969ADE85E790E024E0B7
:1011A00011C08F3661F441E0B801C901039662DED7
:1011B000898180930F0D8BE790E021E003C080E0F0
:1011C00090E020E078013E2D301B321708F046C039
:1011D000F70161917F016C01FFEFCF1ADF0A2887C9
:1011E000D1DEC6012885EFCF43E0B801C9010196E1
:1011F00028873F833FDE28853F81823078F1C98090
:10120000D12C823021F0DC2CCC244A81C42A7C01F0
:10121000FF24FE01EE0DFF1D6081C60128873F837C
:10122000B1DEEE0CFF1C8FEFE81AF80A28853F812B
:10123000E20EF31EF7018081882381F041E0B801BE
:10124000C70118DE892B51F0EFEFCE1ADE0A698153
:10125000C60198DEF2E0EF0EF11CECCF28960FB637
:10126000F894DEBF0FBECDBFDF91CF911F910F91DC
:10127000FF90EF90DF90CF90089541E067E071E03C
:101280000196F8DD8091070180FF02C0599A01C0E4
:1012900059986091070184E390E074CECF93DF9377
:1012A0001F92CDB7DEB71982009731F041E0BE0141
:1012B0006F5F7F4F0196DEDD89818F3F09F4FFCF9D
:1012C000882321F061E083E390E05CDE0E940B372D
:1012D00010926E00F89428E088E190E00FB6F89440
:1012E000A895809360000FBE20936000FFCFCF933E
:1012F000DF93EC0161E080E090E044DE63E481E0B4
:1013000090E040DE1CD960E080E690E03BDE60E0EB
:1013100081E690E037DE60E083E390E033DE62E078
:1013200084E390E02FDE0E940F1F60E080E690E0F3
:1013300029DE60E081E690E025DE8981883719F0BA
:1013400080E090E0ABDFDF91CF91089580E090E006
:101350001EDE813029F481E090E019DE833419F03B
:1013600080E090E0C4DF84E390E011DE8093070129
:10137000089584E392E0EADCF6CC20911D0D3091D3
:101380001E0D2115310521F420911A0130911B0108
:101390008091180190911901009741F48DB79EB783
:1013A00040911C0150911D01841B950B2817390792
:1013B00018F4821B930B089580E090E0089582E476
:1013C0007EDC40E265E080911D0D90911E0DCFDC2A
:1013D000CADC83E574DC40E265E080911A019091FB
:1013E0001B01C5DCC0DC85E46ADC40E265E080917D
:1013F000180190911901BBDCB6DC86E460DCBDDF2E
:1014000040E265E0B4DCAFCC0F931F93CF93DF9342
:101410008FE792E09BDC40E265E08DEF9FE7A7DC81
:101420008EE692E093DC8DEF9FE70E945338EC014B
:101430000097A1F14DEF5FE767E770E00E949739F1
:10144000FE0180E090E0819301968D3F2FE79207A7
:10145000D1F7FE0100E010E0219130E0C8019927AA
:101460002817390779F081E692E070DC40E265E008
:10147000C8017DDC78DCCE01DF91CF911F910F9107
:101480000C94EB380F5F1F4F0D3F8FE7180721F7C4
:10149000CE010E94EB388EE592E002C081E592E039
:1014A00055DCDF91CF911F910F915DCCFC01128231
:1014B000108211820895FC018FB7F89492819034C4
:1014C00070F49F5F9283208191E0920F9083DF01FF
:1014D000A20FB11D13966C93903409F410828FBF44
:1014E0000895FC019FB7F8948281882371F08150A0
:1014F0008283818121E0280F2183DF01A80FB11DA4
:1015000013968C91203409F411829FBF0895FA013B
:101510003081882369F0E1E0F0E0022E01C0EE0F97
:101520000A94EAF7DB01A30FB11D9C919E2B9C93BB
:10153000222319F08FEF820F0BC081E0830F8C30D4
:1015400010F4FA018083FB01E80FF11D108287E09F
:1015500090E00895CF93C82F8A9A882319F080913C
:10156000390102C080913B0120E1829FC00111241A
:101570003CDB8A98CC2319F08091380102C080911D
:101580003A0120E1829FC0011124CF912ECB2F92EE
:101590003F924F925F926F927F928F929F92AF9203
:1015A000BF92CF92DF92EF92FF920F931F93CF9350
:1015B000DF936C01162F842E622E599A8091A1031D
:1015C000811101C0DCD855D8A12EB12C912CC1E0DD
:1015D000D0E0712CF12C8F2D992787FD90958A15DD
:1015E0009B0524F480E0B6DFF394F5CF112311F0CE
:1015F00081E0B0DFF12C4F2C552447FC5094481467
:1016000059042CF097E0392E4C0C5D1C15C087E076
:10161000282E312C4C0C5D1CCE01022C01C0880FF1
:101620000A94EAF7F2019081892394DFF1E02F1AFE
:10163000310890F7F394DFCF832D992787FD90959C
:101640006816790664F4CE01032C01C0880F0A9451
:10165000EAF7F201908189237DDF3A94EDCF8E2D58
:10166000C9DA015009F0B6CF8091AA03882311F09E
:1016700012D803C086E30E94D9025998DF91CF9116
:101680001F910F91FF90EF90DF90CF90BF90AF90A0
:101690009F908F907F906F905F904F903F902F9092
:1016A00008955F926F927F928F929F92AF92BF92B6
:1016B000CF92DF92EF92FF920F931F93CF93DF931E
:1016C000CDB7DEB72D970FB6F894DEBF0FBECDBFF6
:1016D0007C01162F842F022F6701C60ED11C462FC6
:1016E000B701ADD2D6018C931F5F1D8619825E2C87
:1016F000670127E066246394712C8C2D851981176E
:1017000088F547E0A42EB12C4701880E911CF30107
:101710000A2C01C0EE0F0A94EAF7D4018C91AE01B5
:10172000435F5F4FBE016F5F7F4F8E23F0DE282F38
:10173000B1E0AB1AB10858F7D6018D916D01082EB2
:1017400082958025082E8695869580258F5F8695C3
:101750008170AE01435F5F4FBE016F5F7F4FD7DE89
:10176000282FCBCF222311F0215004C08D858F5F0D
:101770008D8727E089E180933A0180933B0185E2E0
:1017800080933801809339013AE0E32E4D856CE077
:10179000CE010196FCDE2D960FB6F894DEBF0FBE8B
:1017A000CDBFDF91CF911F910F91FF90EF90DF9010
:1017B000CF90BF90AF909F908F907F906F905F90F1
:1017C00008951F93CF93DF93CDB7DEB72D970FB654
:1017D000F894DEBF0FBECDBF162F242F4BE0BE0105
:1017E0006F5F7F4F01962D8745DB2D85412F682F39
:1017F000CE01019656DF2D960FB6F894DEBF0FBED0
:10180000CDBFDF91CF911F91089543E066E0D9CF1E
:10181000EF920F93CF93DF93CDB7DEB760970FB6FC
:10182000F894DEBF0FBECDBF40E1BE016F5F7F4FBA
:10183000019620DB69814A810B818C8180933B0179
:101840008D8180933A018E81809339018F818093BD
:101850003801E02EE2947FE0E7220F70242F2F70F2
:1018600042954F70CE01089692DE60960FB6F894BE
:10187000DEBF0FBECDBFDF91CF910F91EF900895E6
:10188000AF92BF92CF92DF92EF92FF920F931F938E
:10189000CF93DF93CDB7DEB769970FB6F894DEBF6D
:1018A0000FBECDBF4BE0BE016F5F7F4F0196E2DA06
:1018B000182F893009F05AC099E190933A0190931A
:1018C0003B019093390182E38093380169E0CE01B6
:1018D0000196BFD1E1E0F0E0EC0FFD1FE10FF11D3B
:1018E0008083198E1D86CE0101967C016E019BE0DE
:1018F000C90ED11C27E0AA24A394B12CEC14FD043A
:1019000029F100E010E0F501002E01C0EE0F0A946D
:10191000EAF7D7018C91AE01475E5F4FBE01635F6E
:101920007F4F8E23F4DD282F0F5F1F4F08301105E6
:1019300051F7AE01475E5F4FBE01635F7F4F81E0AD
:10194000E6DD282FBFEFEB1AFB0AD8CF222311F0D8
:10195000215004C0898D8F5F898F27E0EAE0EE2E49
:1019600003E0498D6CE0CE010D9611DE69960FB64D
:10197000F894DEBF0FBECDBFDF91CF911F910F91C5
:10198000FF90EF90DF90CF90BF90AF9008958F922F
:101990009F92AF92BF92DF92EF92FF920F931F93AD
:1019A000CF93DF931092570110926C01FC012181BB
:1019B000220F220F220F3381231B57E0520F109268
:1019C000580110E070E038E0D32ED20EFF24F394DB
:1019D00047E007E0E12CC7E0D0E0A1E0B0E0FD1473
:1019E00009F47FC0FC01EE0DF11D248130E0002ED2
:1019F00002C0359527950A94E2F721703327E22F2C
:101A0000002311F0015002C0E39407E06B3471F43D
:101A1000433009F04AC0111107C0E1115FC01092B4
:101A2000570170936C0174C010E041C04F3F31F515
:101A30006634A9F4E72FF0E0E85AFE4FE0810E2E5D
:101A4000E295E0250E2EE695E695E025EF5FE1FBB9
:101A5000882480F8912C8216930641F004C06534E6
:101A600029F4E11103C010935701DBCF7F5FE72F0B
:101A7000F0E0E85AFE4F108247E031C0EE2361F1FA
:101A8000663471F4E72FF0E0E85AFE4FA0809D0124
:101A9000042E01C0220F0A94EAF7A22AA0821CC0D9
:101AA000653439F06B34C1F404C04F3FD1F2EE23FA
:101AB00099F0E72FF0E0E85AFE4F9E01241B310910
:101AC00047FD33955D0102C0AA0CBB1C2A95E2F7C5
:101AD00095013081322B3083415001C011E0F394E5
:101AE0007ECF1093570170936C015F1588F46534B5
:101AF00031F44F3F21F47F5F70936C0104C08091FB
:101B000057018111F8CF81E090916C01911101C0D2
:101B100080E0DF91CF911F910F91FF90EF90DF90C8
:101B2000BF90AF909F908F90089510926F00E091BA
:101B30006F018CE1E89FF0011124E059FE4F108203
:101B40008091A9038D7F8093A9030895FC012181D1
:101B5000243108F0EACF662389F081E090E0038029
:101B600002C0880F991F0A94E2F7DF01A20FB11D8E
:101B700014969C911497982B14969C938381882398
:101B800019F081508383089587E083832F5F218339
:101B9000E20FF11D14820895DC011196EC9111976A
:101BA000F0E050E02C91CF01841B950B0B964797EA
:101BB000A0F430E070E0C901861B970B0B964797A5
:101BC00060F42E0F3F1F640F751F261B370B255F18
:101BD0003F4F81E02731310508F080E00895829A77
:101BE0008A985298E9E6F0E08081806180831092C3
:101BF0008C011092A8011092C4011092A1030895C3
:101C00008091AA03882321F00E94BF030C944B0308
:101C10000C94B803FC01218121110BC08091AA030F
:101C200025D940E265E08091A7039091A8039FD851
:101C30009AC841E06AEA73E001961CD9E1CF4423D7
:101C400039F04150FB01E40FF11D9081890FF7CF6E
:101C5000089520E0662339F06150FC01E60FF11D84
:101C600030812327F7CF822F0895A091570140E0BC
:101C700035E020E0662399F06150FC01E60FF11D8C
:101C80005081752F72957F702727370FAA2311F087
:101C9000442319F05F702527350F4F5FEBCF320FCC
:101CA00040E1349FC0011124822B0895FC01328150
:101CB0002381A081B181A30FB11D8C9190E0022EF0
:101CC00002C0959587950A94E2F7817099274FEFA6
:101CD000420F4383211104C03F5F328327E02383F7
:101CE0000895AF92BF92CF92DF92EF92FF920F933F
:101CF0001F93CF93DF9300D0CDB7DEB77C01A12C2B
:101D0000B12CD12CCC24C394062F10E00150110922
:101D1000A616F0F4C7014A836983C8DF4A81698146
:101D2000882391F0442349F098012A193B098C2D0E
:101D300001C0880F2A95EAF706C08C2D0A2C01C035
:101D4000880F0A94EAF7D82A8FEFA81AB80AE0CFCA
:101D50008D2D0F900F90DF91CF911F910F91FF90DC
:101D6000EF90DF90CF90BF90AF9008959F92AF9289
:101D7000BF92CF92DF92EF92FF920F931F93CF9378
:101D8000DF9300D000D0CDB7DEB71B8227E02C83D5
:101D90009C012C5F3F4F3A83298310926C01FC0118
:101DA0002181338187E090E0831B9109F8E02F9F28
:101DB000800D911D1124853491050CF44EC0B12C79
:101DC000A0906C01F5E0FA1558F10A2D10E040E002
:101DD00068E0CE01019685DF085A1E4FF801808326
:101DE000982E092C92949024092C969496949024E1
:101DF000CE0101965BDF939491FACC24C0F8D12CEC
:101E000090E0C816D90649F5CE0101964FDF811141
:101E100024C0F8018081B826A394A0926C01D0CF91
:101E200040E068E0CE0101965CDF082F182F012EFC
:101E300012951025012E169516951025CE010196A6
:101E400035DF1F5F11FBEE24E0F8F12C282F30E086
:101E5000E216F30611F481E0B01280E00F900F90CB
:101E60000F900F90DF91CF911F910F91FF90EF9006
:101E7000DF90CF90BF90AF909F900895DF92EF9248
:101E8000FF920F931F93CF93DF9300D000D01F9248
:101E9000CDB7DEB7FC011B8287E08C83CF010496AF
:101EA0009A8389838081853009F051C021813381F3
:101EB00087E090E0831B910938E0239F800D911DFE
:101EC00011248039910509F042C010926C010FE095
:101ED00010EF29E880916C01E82EF12CDD24D394D9
:101EE000D80E41E068E08F3088F4CE0101962D8352
:101EF000F8DE080F111DF701E85AFE4F2D81282743
:101F0000208324E2280FD0926C01E4CFCE01019609
:101F1000E8DE080F111DD0926C01F701E85AFE4F60
:101F20008095808341E068E0CE010196DADE90E0A2
:101F3000982F8827081B190B41E068E0CE01019615
:101F4000D0DE282F30E081E00217130709F080E08F
:101F50000F900F900F900F900F90DF91CF911F91E6
:101F60000F91FF90EF90DF900895FF920F931F93D2
:101F7000CF93DF9300D000D0CDB7DEB71B8227E030
:101F80002C839C012C5F3F4F3A832983FC012181E4
:101F90002430A1F58381813089F510926C01809104
:101FA0006C01082F10E0FF24F394F80E41E0843018
:101FB00098F4811106C067E0CE01019692DE806838
:101FC00004C068E0CE0101968CDEF801E85AFE4FAD
:101FD0008083F0926C01E3CF67E0CE01019681DE51
:101FE000F801E85AFE4F880F8083F0926C019091BF
:101FF000580192959F7081E09A3009F080E00F902F
:102000000F900F900F90DF91CF911F910F91FF9044
:102010000895FC0181818330F1F483818730D9F404
:1020200080818830C1F410926C0180E021E0280F9B
:102030009181891760F490E0DF01A80FB91F149611
:102040003C91DC01A85ABE4F3C93822FEFCF809386
:102050006C0181E0089580E00895FC0190818091F9
:10206000A903993611F0933751F4982F937091305A
:1020700011F4826006C080FF07C08B7F03C080FD23
:1020800003C084608093A9030895EF92FF920F9399
:102090001F93CF93DF931F92CDB7DEB71982809144
:1020A0003C018823B9F18091AA0387FF17C084E31C
:1020B0000E94C1028058803458F0803C58F490E06F
:1020C0008055910953E0959587955A95E1F703C09E
:1020D00080E001C08FE08F590E945F068091AA03C3
:1020E00083FF16C082E70E945F068091AA0384FFE7
:1020F00004C080913D010E945F0686E60E945F0653
:102100008091AA0384FF04C080913C010E945F0675
:1021100010923C0180916D01882309F451C2599AB3
:1021200000916E012CE1029F8001112400591E4F85
:102130008981811106C0C8016CDF882311F083E713
:1021400089838981811106C0C80198DE882311F036
:1021500083E589838981811139C066E4C80117DC70
:102160008823A1F1F0906C01FA94F0926C014F2D4C
:1021700068E571E086E063DDEF2DF0E0E85AFE4FA0
:10218000E0808E1105C093E09F1510F486E41BC01B
:10219000282F30E02F5F3F4F6E2D70E02617370756
:1021A00039F423E02F1520F496E4998380830EC040
:1021B0004F2D68E571E08CE042DD8E1106C083E0B2
:1021C0008F1518F484E5898301C0198289818111F2
:1021D00016C065E4C801DBDB882389F080916C01BF
:1021E000815080936C01893051F469E088E591E079
:1021F00030DD90916101891302C085E48983898172
:10220000811106C0C801B2DD882311F088E48983FA
:102210008981811106C0C801A8DE882311F084E7F6
:1022200089838981811133C0F801438D60913D011B
:10223000C8014A96B1DC682FC80188DC6BE4C8018C
:10224000A6DB8823B1F0F0906C01FA94F0926C0157
:102250006F2D88E591E009DDEF2DF0E090915701B9
:10226000E91BF109E85AFE4F9081891302C08BE403
:102270008983898181110BC0F801838191E0980FD6
:102280009383873021F413828181815081838981F6
:1022900081112DC0F8018181843049F5838184301A
:1022A00031F54EE16CE3C801489676DC8823F9F0FD
:1022B0004EE160913D01C8014A966EDC682FC8016D
:1022C00045DC20E0822F90E0FC01E85AFE4FD80167
:1022D000A80FB91F14968C91808381E0820F8530FE
:1022E00010F4282FEFCF80936C0182E58983398128
:1022F000332309F4D9C02091AA0320FFD5C08091CF
:10230000A9038E7F8B7F8093A90321FD64C0509128
:102310005601F0906C015F113DC040E04517C0F4DC
:10232000842F90E061E0640FFC01EE5BFE4FDC0166
:10233000A85ABE4F70818C91781741F04093560196
:102340008091A9038D7F8093A90304C0462FE6CF17
:102350004093560145131EC04091A3035091A4031E
:102360006091A5037091A60380913E0190913F0179
:10237000A0914001B0914101481B590B6A0B7B0BA6
:10238000463251056105710528F48091A9038160E9
:102390008093A90340E04F1560F4842F90E0FC0186
:1023A000EE5BFE4FDC01A85ABE4F8C9180834F5FDD
:1023B000F2CF409356018091A3039091A403A09182
:1023C000A503B091A60380933E0190933F01A09393
:1023D0004001B09341013435E9F426FD1BC08091E2
:1023E0006C018530B8F080915A018B3471F08936D8
:1023F00061F09DEA980F923040F08D57823028F0BE
:1024000080915B018077803729F48091A9038160F6
:102410008093A903B801CE0101961FDE898184351E
:1024200069F490913504992349F09091AC0391118E
:1024300005C09091A9039B7F9093A9039091A90354
:1024400092FF32C00E945F0680915701882329F0D5
:1024500080916C01815080936C01F12CE0916C01B2
:10246000FE1648F4EF2DF0E0E85AFE4F80810E94FE
:102470003607F394F3CF80915701882351F0F0E0B1
:10248000E85AFE4F80818F7040E361E090E00E9447
:10249000F7068091AA0385FF05C084E30E94C1026C
:1024A0000E9436070E94B3068091AA0382FF6FC084
:1024B00080E70E945F06F801808140E262E090E0E0
:1024C0000E94B706F801808D40E265E0F0E18F9F41
:1024D000C00111240E94B706F801818D40E265E039
:1024E000F0E18F9FC00111240E94B706F801828D90
:1024F00040E265E0F0E18F9FC00111240E94B70621
:10250000F801838D40E265E0F0E18F9FC001112466
:102510000E94B706F801828140E263E090E00E94E9
:10252000B706F801818140E263E090E00E94B706BF
:10253000F801238140E262E087E090E0821B91098C
:102540000E94B70680E20E945F068091AA0385FF81
:1025500008C084E30E94C1020E94360780E20E9404
:102560005F06F8018381873019F081818F5F818355
:10257000F12CF8018181F81640F4F801EF0DF11DFE
:1025800084810E943607F394F4CF0E94B306F801C9
:10259000108280916D01815080936D0180916E0158
:1025A0008F5F843019F080936E0102C010926E012B
:1025B00059988981843521F488E591E00E94261B91
:1025C0000F90DF91CF911F910F91FF90EF900895A1
:1025D0001F920F920FB60F9211240BB60F922F93EA
:1025E0003F934F935F936F937F938F939F93AF939B
:1025F000BF93EF93FF9310926F008091AA0383FF24
:1026000003C08EE20E945F0680916F019CE1899F6A
:10261000F0011124E059FE4F9081933018F0918120
:10262000923010F482DA18C090916D01933049F421
:102630008091AA0382FFF6CF88E892E00E94A60666
:10264000F1CF9F5F90936D018F5F843019F080937D
:102650006F0102C010926F01FF91EF91BF91AF9196
:102660009F918F917F916F915F914F913F912F91AA
:102670000F900BBE0F900FBE0F901F9018959BED03
:10268000980F973150F496EF960F9D3130F491E00A
:10269000681708F090E0892F089580E008951F9250
:1026A0000F920FB60F9211240BB60F92FF920F9359
:1026B0001F932F933F934F935F936F937F938F93CA
:1026C0009F93AF93BF93CF93DF93EF93FF9380914B
:1026D000EC03882321F082E08093EC036CC18091AD
:1026E0003304823021F483E08093330464C1009189
:1026F00084001091850074E0169507957A95E1F7AE
:10270000C0916F019CE1C99FE0011124C059DE4FC7
:102710009881943031F40E3208F44DC10F3448F0F2
:10272000BBC0953031F4073108F445C1083208F0D8
:10273000B3C04A990DC09450923038F461E0CE0194
:1027400005DA109285001092840000933D0133C198
:1027500080913D01081B00933C011092850010926E
:1027600084009881983091F48A8181110FC081E0B2
:102770008A8380913D01888F8A8F80913C01898F67
:102780008B3B10F4880F01C086958B8F945092304C
:1027900020F460E0CE01DAD90EC182E086BBF88079
:1027A000F11011C090913D01953608F004C180915F
:1027B0003C01853608F0FFC0988F898F81E08A83BD
:1027C00082E08883F8C010913C0182E0F81278C062
:1027D00000913D01412F602FCE014896DDD94A81FD
:1027E0008823F9F0288D30E0C901880F991F820FE6
:1027F000931F800F911D9595879595958795888F47
:10280000298D30E0C901880F991F820F931F810F16
:10281000911D9595879595958795898F4F5F4A83EB
:10282000CAC0443008F44AC080EA9FE0909389000F
:10283000809388008A818C3050F0288D898D90E0BB
:10284000820F911D8536910524F084E028C08A30DE
:1028500080F0288D898D90E0820F911D85974CF432
:1028600085E0888388EE93E09093890080938800C8
:1028700017C08091EE03882389F060913C0180911C
:102880003D01FDDE882351F0688D898DF8DE8823B7
:1028900029F081E08093330448D98DC083E0888398
:1028A00080913D018A8F80913C018B8F198287E056
:1028B0008B831C8282E080936F007DC0188272CF70
:1028C00098E0F91225C081E9810F8D3178F460E03C
:1028D000CE013CD9288D30E0C901880F991F820FA5
:1028E000931F20913D01820F911D4EC0173E08F4A9
:1028F00062C061E0CE012AD92A8D30E0C901880F7B
:10290000991F820F931F20913D01820F911D15C0C9
:1029100000913D01412F602FCE014A963DD9882379
:1029200001F161E0CE0112D92A8D30E0C901880F92
:10293000991F820F931F800F911D959587959595EF
:1029400087958A8F2B8D30E0C901880F991F820FE0
:10295000931F810F911D95958795959587958B8FE1
:102960002AC0412F602FCE01489616D9882301F145
:1029700060E0CE01EBD8288D30E0C901880F991FA7
:10298000820F931F800F911D95958795959587953B
:10299000888F298D30E0C901880F991F820F931FFE
:1029A000810F911D9595879595958795898F03C082
:1029B00087E0F81271CFFF91EF91DF91CF91BF9136
:1029C000AF919F918F917F916F915F914F913F91C7
:1029D0002F911F910F91FF900F900BBE0F900FBE84
:1029E0000F901F901895E0916F018CE1E89FF00126
:1029F0001124E059FE4F8081811107C081E0909140
:102A0000DB039F3F19F480E0089581E00895CF93A0
:102A1000DF93EA98579A5F9A8EE190E00E94F5055D
:102A20005F988EE190E00E94F5055F9A8DE290E05C
:102A30000E94F50580E30E94D90284E690E00E949E
:102A4000F505C9E9D2E0FE0131966491FE01849159
:102A50000E94C8022296F2E0CB3CDF07A1F783E395
:102A60000E94D90284E00E94FA0584E30E94D90200
:102A700085E30E94C1028D30C1F7DF91CF910895A7
:102A80000F931F93CF93DF93CDB7DEB76E970FB63B
:102A9000F894DEBF0FBECDBF8091E001882309F41A
:102AA000B4C04A9B93C08FE30E94C1028F77898391
:102AB0008E31B0F08AE30E94D90286E30E94D902E7
:102AC0008DE30E94D90284E36E960FB6F894DEBFC0
:102AD0000FBECDBFDF91CF911F910F910C94D90202
:102AE0005F988FEF0E94620210E08981181760F4EE
:102AF00080E00E946202E2E0F0E0EC0FFD1FE10FD7
:102B0000F11D80831F5FF1CF80E00E946202082FD9
:102B100080E00E9462025F9A84E30E94D90285E30A
:102B20000E94C1028D30C1F72A8196E792279A83CD
:102B300092E08981E92FF0E0981768F441E050E0D5
:102B40004C0F5D1FE40FF51F308124522327208393
:102B50009F5F232FEECF81E090E08C0F9D1FE80F49
:102B6000F91F90818B81982790838091AA0384FF1D
:102B700012C081E60E945F0610E08981811730F162
:102B8000E1E0F0E0EC0FFD1FE10FF11D80810E94FC
:102B90005F061F5FF2CF81E40E945F0610E089812B
:102BA000811758F0E1E0F0E0EC0FFD1FE10FF11D9F
:102BB00080810E9436071F5FF2CF8091AA0385FFB4
:102BC00003C0802F0E9436070E94B30685E30E944F
:102BD000C102813029F0813161F48AE30E94D90277
:102BE00086E30E94D9028DE30E94D90284E30E9409
:102BF000D9026E960FB6F894DEBF0FBECDBFDF913F
:102C0000CF911F910F910C9404046E960FB6F89417
:102C1000DEBF0FBECDBFDF91CF911F910F91089501
:102C20008F929F92AF92BF92DF92EF92FF920F939B
:102C30001F93CF93DF93CDB7DEB7A6970FB6F89467
:102C4000DEBF0FBECDBF4DE18E010F5F1F4FB8013C
:102C500001960E943A077C0199270197298130E06B
:102C60008217930709F0A3C08091E001811104C08D
:102C7000CEDE83E00E94FA05DB808A8196E7892711
:102C80008A8322E03981822F90E0F801E80FF91F52
:102C9000231750F4DE01A80FB91F8C918452908144
:102CA000892780832F5FEECF80818D258083CE01A1
:102CB00083960E94470585E30E94D90285E30E941E
:102CC000C102833181F1CE014F960E9447054F8D9D
:102CD00058A169A17AA18BA19CA1ADA1BEA1841725
:102CE0009507A607B70760F44A015B01881A990A9D
:102CF000AA0ABB0A2DEB82169104A104B10470F458
:102D0000481759076A077B0770F484549F4FAF4FE9
:102D1000BF4F84179507A607B70728F48FE892E0FE
:102D20000E94A60627C085E30E94C102833119F6DE
:102D3000D4FE08C088E70E94FA0588E70E94FA05D9
:102D400088E701C08AE00E94FA055F988FE70E9439
:102D5000620258018A2D801B8E1530F4F501819195
:102D60005F010E946202F6CF5F9A85E30E94C10272
:102D70008331D9F385E30E94C102863149F48BE3A4
:102D80000E94D90286E30E94D9028DE30E94D902F3
:102D90008091E001882349F084E30E94D90285E311
:102DA0000E94C1028D30C1F702C00E94000EA6969B
:102DB0000FB6F894DEBF0FBECDBFDF91CF911F914C
:102DC0000F91FF90EF90DF90BF90AF909F908F900A
:102DD0000895FC012181223729F419DE81E08093D6
:102DE000E0010895233711F401961ACF1092E00103
:102DF00008951092C6031092B60283E08093E60114
:102E00008FEF8093DB030895E7EEF1E0208121113D
:102E100005C0892BB1F080E090E00895B2E0EF3A70
:102E2000FB07B8F7009751F04181DC013C91431357
:102E300005C0428111963C91431751F0E20FF11DFC
:102E4000E5CF32E0EF3AF30719F010F0EFEAF2E0E5
:102E5000CF01089594E0899FF0011124E452FC4FC2
:102E600080818F3F91F08093E10181818093E20125
:102E700082818093E30183818093E40121E04CE02F
:102E800064E081EE91E00C94510B089580EB92E0A8
:102E9000BBDF009799F02091E601FC0130812317F8
:102EA00068F4E20FF11D80818093B20289E780937C
:102EB000B30281818093B40281E0089580E0089597
:102EC000EF92FF921F93CF93DF931F92CDB7DEB7A0
:102ED000182F8091AA0386FF1EC084E599830E9463
:102EE0005F06E12E9981F92E15E0F70181917F01AE
:102EF0000E9436071150C9F78091AA0385FF03C0CD
:102F00008AEF0E9436070F90DF91CF911F91FF90BB
:102F1000EF900C94B3060F90DF91CF911F91FF902B
:102F2000EF90089586E30E94D9028091B202833522
:102F300011F48BE901C08BE40E94FA0521E04CE01A
:102F400065E080EB92E00E94510B0E944B0380EB06
:102F500092E0B6CFE7DF8091B202893631F081E0AE
:102F60008093AF0289E28093DB030895CF9385E3DA
:102F700090E00E94C7078093AC0386E390E00E9434
:102F8000C7078093DA03CFEFC093CA03C093CC0383
:102F9000C093CE03C093D003C093D203C093D40395
:102FA000C093D603C093D80324DF1092E70181E0D9
:102FB0008093AB03C093DC038FEF9FEF9093AF033D
:102FC0008093AE031092B1031092B0031092B3033A
:102FD0001092B203C093E0039093B5038093B403BF
:102FE0001092B7031092B6031092B9031092B8036F
:102FF000C093E4039093BB038093BA031092BD0384
:103000001092BC031092BF031092BE03C093E8035A
:103010009093C1038093C0031092C3031092C20324
:103020001092C5031092C403CF910895BF92CF921E
:10303000DF92EF92FF920F931F93CF93DF93CDB761
:10304000DEB72C970FB6F894DEBF0FBECDBF6C0174
:103050008C010F5F1F4F45E0BE016F5F7F4FC801BE
:103060000E943A07843008F0F3C099819130A9F4A6
:10307000833061F46A8185E390E00E94C2076B812E
:1030800086E390E00E94C20771DFF9C18091AC0332
:103090000E9436078091DA039AC0923009F051C03D
:1030A000813039F081E09A81913009F080E0F82E8A
:1030B00002C0FF24F3948091E701811104C08BECDE
:1030C00092E00E94A60607EE11E0F80180818823B5
:1030D00009F4BBC0F2E00F3A1F0708F0B6C081E068
:1030E000073E180719F080E20E945F06F80181810F
:1030F0000E943607F80182810E943607FF20E1F026
:103100008AE30E945F0693E0F80180819817A0F49B
:10311000943038F090FF05C08CE29C870E945F06D7
:103120009C85EE24E394E90EF801E90FF11D8081FE
:103130000E9436079E2DE8CFF8018081080F111DEF
:10314000C4CF933049F480E090E05EDE875E91402A
:1031500098EC981B892F3BC0903171F50AEC13E075
:103160008BECE82E83E0F82EC12CD12CF801808165
:103170008F3FA1F0DD2019F080E20E945F068C2DC8
:103180000E9436078AE30E945F06F80180810E9450
:103190003607F70180810E943607D3940E5F1F4FD8
:1031A000C394F2E0EF0EF11C88E0C812DFCFD1101B
:1031B0004CC089ED92E047C0913161F48091C80321
:1031C0009091C9036DE770E00E94FE37862F0E9440
:1031D00036073BC09231C9F51CEDE12E13E0F12E0C
:1031E0000FED13E0C12CD12CF70180818F3FF1F05E
:1031F000DD2019F080E20E945F068C2D0E943607C8
:103200008AE30E945F06F70180810E943607F80179
:10321000329780810E943607F801319780810E94A1
:103220003607F80180810E943607D394F4E0EF0E50
:10323000F11CC3940C5F1F4F84E0C812D5CFD1108E
:1032400004C085ED92E00E94A6060E94B30617C155
:1032500044E0BE01695F7F4FC8010E943A074F8179
:10326000493608F477C07A85588569857C3009F03D
:103270004BC020E030E080E090E0F901E452FC4FE8
:10328000708174131CC0A181A51319C0A281A6135B
:1032900016C02CE023839C01220F331F280F391FF7
:1032A000F901EE0FFF1FE255FC4F11821082F90168
:1032B000EE0FFF1FE055FC4F11821082C2C07F3F0E
:1032C000D9F44083518362832CE023839C01220F35
:1032D000331F280F391FF901EE0FFF1FE255FC4F76
:1032E00011821082F901EE0FFF1FE055FC4F118291
:1032F00010821092AB03A5C001962C5F3F4F203186
:10330000310509F0BACFBBC080E090E020E030E0AA
:10331000FC01E452FC4FA081A41315C0A181A513A8
:1033200012C0A281A6130FC07383F901EE0FFF1F15
:10333000E20FF31FEE0FFF1FE055FC4F81E090E01E
:10334000918380839CC02F5F3F4F0496803191050D
:10335000F9F695C0E9818091AC03E81758F190E047
:10336000F0E09C01295F3F4F2E173F071CF13A8187
:103370002091DA0332131EC02C812F3231F442E047
:103380006CE0C6010E94E10B7AC03D812C3249F409
:103390003093C70381E090E09093C9038093C80302
:1033A0006EC0E81BF90BEE0FF0E0E653FC4F2083F4
:1033B000318365C080E090E027DD7C01F801019059
:1033C0000020E9F73197E01BF10BF695E795BB2458
:1033D000B394BE0EC7018B0D911D875E9140893C51
:1033E00091050CF048C0F701B1928F0121E0822FC6
:1033F000880F81502B15D8F441E0B801F601E80F91
:10340000F11DCF012C870E943A072C85233058F0FC
:1034100020FD09C0D80111978C91843621F4F80160
:1034200080818093AD032F5F0F5F1F4FE0CFFFEAD6
:10343000EF16F2E0FF0618F5F701E20FF11D10821A
:103440001EC022E04CE064E0CE0107960E94510BC2
:103450008FE08A8722E04CE064E0CE0107960E946C
:10346000510B82E08A8722E04CE064E0CE010796AF
:103470000E94510B04C08FEC92E00E94A6062C968D
:103480000FB6F894DEBF0FBECDBFDF91CF911F9175
:103490000F91FF90EF90DF90CF90BF9008950F9322
:1034A0001F93CF93DF939091AB0391114FC093E0A3
:1034B000899F80011124F801EE0FFF1FE255FC4F98
:1034C00094E0899FD0011124A452BC4F12969C9184
:1034D000977040E850E0491B51099AEF949F900182
:1034E000959F300D11243595279535952795318376
:1034F0002083E801CC0FDD1FCE54DC4F28813981B9
:103500002F5F3F4F39832883000F111F00551C4F39
:10351000F801408151814115510529F424303105CC
:10352000A9F498DC11C04130510539F493DC82E0F4
:1035300090E0F8019183808309C04230510531F455
:1035400089DCF8011182108219821882DF91CF91F3
:103550001F910F910895EF92FF920F931F93CF93B6
:10356000DF9300D000D000D0CDB7DEB72091DA03D2
:103570002A831B828091C703882341F0833019F48A
:1035800087E791E00FC08DE790E00CC0277030E036
:103590002A513F4F4DE7429FC001439F900D112498
:1035A000959587959093C9038093C8030BEC13E01E
:1035B000F12C7CE2E72EF801319790819F3FC1F01A
:1035C0008091AC038F0D89838091C703882311F00C
:1035D000EC8203C09C83F80180818D8321E04CE064
:1035E00065E0CE0101960E94510BCE01019668DC88
:1035F000F3940E5F1F4FF8E0FF12DDCF8091C703F9
:10360000882341F0833019F41092C70303C082501D
:103610008093C70326960FB6F894DEBF0FBECDBFCA
:10362000DF91CF911F910F91FF90EF9008958091BE
:10363000AF02882351F076DC89E28093DB0380912E
:10364000AF0281508093AF020895D3CBFF920F93C6
:103650001F93CF93DF93FC01F0800181C281D3815E
:1036600014818FE58093DB031092AF028091AC034D
:10367000811105C08091DA03882309F4B1C08091DB
:10368000B0028F1104C08091B102801729F0B1DB24
:10369000F092B0020093B1028091C6038F3F09F40B
:1036A0009FC0C093B202D093B3021093B402CC2354
:1036B000F1F081111CC08091AC03181761F0143631
:1036C00051F08DEA8C0F823010F0CD3739F48FEF46
:1036D0008093C60385C0C43509F482C08D2F807FD6
:1036E000803609F07DC0D067D093B3025BC0CEDBDB
:1036F000811105C08091C603882309F471C08091AF
:10370000B602811107C0E091C603F0E0E352FD4F1D
:10371000E49101C0E82FE33541F4C43531F49091D0
:10372000C6039E5F9093C60308C0EC1731F0DF918B
:10373000CF911F910F91FF905CCB882369F080910E
:10374000E6018E5F8093E601A1DB81110EC08091BE
:10375000C6038E5F8093C6038091C603E82FF0E016
:10376000E252FD4F14911F3F59F48091B2028093B1
:10377000B6028436B9F48091AD038093B40212C0CE
:103780001093B20297E79093B3029091AC03909399
:10379000B4028E5F8093C6031092B6028E3041F061
:1037A0001123F1F0DF91CF911F910F91FF90D2CBB8
:1037B00080EB92E029DBDC01009781F02C9130E076
:1037C0008FEA92E0821B930BA817B90730F4ED0142
:1037D000C20FD31F48814D93F7CF1C920ADBE0CF75
:1037E000DF91CF911F910F91FF900895FF920F935A
:1037F0001F93CF93DF938C01EC0109900020E9F730
:103800002197C81BD90BFC018181823751F487E3D2
:1038100090E00E94DD020E944B0381E08093EC0364
:103820002AC0833731F5FC2E5F988FE70E94620231
:103830008C2F82500E946202E801229612E01F152E
:1038400028F489910E9462021F5FF9CF5F9A0E945B
:1038500039038AE30E94C1028F7721F081E00E9440
:10386000FA05F7CFDF91CF911F910F91FF900C9444
:103870004B031092EC03DF91CF911F910F91FF90BA
:103880000895CF92DF92EF92FF920F931F93CF9301
:10389000DF93CDB7DEB7C054D1090FB6F894DEBFC1
:1038A0000FBECDBF8091EC03882309F455C0813051
:1038B00011F58091A3039091A403A091A503B09169
:1038C000A6032091B702281709F446C085E30E9499
:1038D000C102813129F48AE30E94D9020E944B037C
:1038E0008091A3039091A403A091A503B091A60396
:1038F0008093B70231C08FE30E94C102D82E8FE3BC
:103900008D1538F15F988FEF0E9462028E010F5F74
:103910001F4F7801C02E8E2D801B8D1538F480E04E
:103920000E946202F70181937F01F5CF5F9A81E0E7
:1039300080933601802F8C198D1530F4F801819118
:103940008F010E945F06F6CF0E94B3068FEF80932F
:10395000360181E08093EC03C05CDF4F0FB6F89432
:10396000DEBF0FBECDBFDF91CF911F910F91FF90B2
:10397000EF90DF90CF9008958A9A0C94F5058A987D
:103980000C94F505DF92EF92FF920F931F93CF9364
:10399000DF93CDB7DEB727970FB6F894DEBF0FBE23
:1039A000CDBF95E79983882399F0BE016E5F7F4F65
:1039B000809135040E94AF07BE016C5F7F4F8091FC
:1039C000EE030E94AF0785E58E8386E0D82E02C005
:1039D000DD24D3940E94BF030E94390316E080E8DF
:1039E00091E0CADF80E093E0CADF1150C1F780E0C8
:1039F00093E0C2DF80E891E0C2DF80E891E0BCDFC5
:103A00008A9887E390E00E94DD0283E00E94FA0535
:103A10005F988FE70E9462028091F1038D0D0E94F2
:103A20006202CE0101967C018C01F80181918F0127
:103A30000E946202802F8E198D15B8F38091F103D8
:103A4000882339F08FEE93E00E94710A0E9462028F
:103A5000F5CF5F9A0E9439038FEE93E00E94560AD9
:103A600015E18AE30E94C1028F7731F0115021F0F5
:103A700081E00E94FA05F5CF0E94000E27960FB64E
:103A8000F894DEBF0FBECDBFDF91CF911F910F9194
:103A9000FF90EF90DF900895CF93DF93EC01898141
:103AA00081110CC08091EE030E943607809135048D
:103AB0000E943607DF91CF910C94B3068936E1F46A
:103AC00041E06EEE73E0CE0102960E943A076091EB
:103AD000EE0380E690E00E94C20741E065E374E0F7
:103AE000CE0104960E943A076091350481E690E089
:103AF000DF91CF910C94C2078FEE93E00E94560A9B
:103B000021966991662329F08FEE93E00E945B0A6B
:103B1000F8CF80E0DF91CF9135CFCF92DF92EF9257
:103B2000FF920F931F93CF93DF931F92CDB7DEB712
:103B300080913304882309F486C0C090A303D090F9
:103B4000A403E090A503F090A603833009F061C0C0
:103B50008FE30E94C102182F8630C8F089E794E0F5
:103B60000E94560A5F988FEF0E94620280E00E94D6
:103B70006202082F115049F080E00E946202682F13
:103B800089E794E00E945B0AF5CF5F9A01C000E0EC
:103B90000E94000E10923304053709F054C041E032
:103BA000BE016F5F7F4F8CE794E00E943A07019758
:103BB00059F599818091EE03981326C08091800475
:103BC000853571F480917B04882339F089E794E08E
:103BD0000E94710A0E945F06F5CF0E94B30633C0AF
:103BE00080917B04845080937B0484E080937A04EA
:103BF0006AE089E794E00E945B0AE0919F03F091FC
:103C0000A00388E009951FC089E794E00E94560A46
:103C10001AC0823059F48091ED039C2D981B983086
:103C200090F00E94000E109233040DC0813059F4C0
:103C300087E390E00E94DD020E944B0382E08093C4
:103C40003304C092ED030F90DF91CF911F910F913C
:103C5000FF90EF90DF90CF9008950E94F314882397
:103C600019F083E080933404809134048150809370
:103C70003404882321F083E080933204089581E0A6
:103C800081CE0F931F93CF93DF93EC0110E0212F90
:103C900030E0F901EE0FFF1FE20FF31FE454FF4F76
:103CA0000491F901EE0FFF1FE20FF31FE354FF4FE2
:103CB00025913491002399F0209739F480E20E94F5
:103CC0005F06802F0E945F0608C08881801305C0B0
:103CD000CE01F901099581E003C01F5FD8CF80E0D4
:103CE000DF91CF911F910F910895CF93C09136012D
:103CF0008093360180917B04882309F43DC089E7D5
:103D000094E00E94710A2091B8023091B9028A3081
:103D100011F08D3011F52115310561F3F901E654EB
:103D2000FD4F10828AEB92E0ACDF811111C083E07D
:103D300093E00E94A6068AEB92E00E949B068BEE1F
:103D400092E00E94A60680E090E09BDF0E94B3060E
:103D50001092B9021092B802CDCF2034310550F63E
:103D6000A9014F5F5F4F5093B9024093B802F90128
:103D7000E654FD4F8083BECFC0933601CF910895A6
:103D8000E4E6F0E080818B7F8083299A84B18760AC
:103D900084B9239880E58CBD8DB581608DBD089573
:103DA0001F93CF93DF93EC0116E0115048F08991F7
:103DB0000E9436071123C9F38AE30E945F06F5CFFC
:103DC000DF91CF911F910895EF92FF920F931F9370
:103DD000CF93DF93EB01FC01E080F180FE24EF2420
:103DE000FE24028113811027012710276F2DCE0199
:103DF0000E94C2076E2DCE0101960E94C207612F5C
:103E0000CE0102960E94C207602FCE010396DF9179
:103E1000CF911F910F91FF90EF900C94C2070F93D9
:103E20001F93CF93DF93CDB7DEB765970FB6F894A6
:103E3000DEBF0FBECDBF89E68A8384E68B836DE447
:103E400073E0CE0104960E947A39CE0101960E9459
:103E5000700881E68B836FE373E0CE0104960E94C5
:103E60007A39CE0101960E9470088EE68B8361E359
:103E700073E0CE0104960E947A39CE0101960E9429
:103E8000700887E68B8365E273E0CE0104960E949A
:103E90007A39CE0101960E94700880E78B8360E238
:103EA00073E0CE0104960E947A39CE0101960E94F9
:103EB00070088EE48B8368E173E0CE0104960E9463
:103EC0007A39CE0101960E9470088FE68B8365E1F6
:103ED00073E0CE0104960E947A39CE0101960E94C9
:103EE00070088AEF9FE00E94C707843A71F58BEF54
:103EF0009FE00E94C707803541F58CEF9FE00E944C
:103F0000C707853511F58DE68B836EE073E0CE0132
:103F100004960E947A398DEF9FE00E94C707BE0188
:103F2000665F7F4F0E94AF078EEF9FE00E94C7073A
:103F3000BE01645F7F4F0E94AF078FEF9FE00E943A
:103F4000C707BE01625F7F4F26C08DE68B8367E0A7
:103F500073E0CE0104960E947A39E0E0F0E000E0E0
:103F600010E081E2809357009491090F111D319662
:103F7000E032F105B9F7BE01665F7F4F80E00E9435
:103F8000AF07BE01645F7F4F812F0E94AF07BE0164
:103F9000625F7F4F802F0E94AF07188ACE01019683
:103FA0000E94700865960FB6F894DEBF0FBECDBFB5
:103FB000DF91CF911F910F91089517D580EC94E078
:103FC0000E94112F892B39F180EC94E00E94FD2E84
:103FD0008AED94E09093D9048093D80482E052D67D
:103FE0008091CB049091CC04892B19F00E94F62D7E
:103FF000C7D48FED9CE09093D5048093D40485E0E2
:1040000041D68091CB049091CC04892B19F00E9469
:10401000F62DB6D426D58CEB94E00E94112F892B77
:1040200031F08CEB94E00E94FD2E0C942C2D089521
:10403000CF92DF92EF92FF920F931F93CF93DF9374
:104040008C01EB01CB010E94C7077E018FEFE81ABC
:10405000F80AC7010E94C707D82ECE010E94C707E1
:10406000C82EC7010E94C7072C2D30E03D29F8015A
:10407000318320837E01F2E0EF0EF11CC7010E9424
:10408000C7072396CE010E94C707D82EC7010E94FA
:10409000C707F82ECE010E94C7072F2D30E03D291B
:1040A000F80133832283DF91CF911F910F91FF900D
:1040B000EF90DF90CF900895CF93DF9300D000D0A2
:1040C000CDB7DEB769E670E0CE010196B1DF898138
:1040D0009A819093FC068093FB068B819C81909340
:1040E000FE068093FD0661E770E0CE010196A0DF39
:1040F00089819A819093F4068093F3068B819C8149
:104100009093F6068093F5066DE670E0CE01019679
:104110008FDF89819A819093F8068093F7068B81CF
:104120009C819093FA068093F90686E794E05AD42E
:104130004ED10E9493310F900F900F900F90DF910E
:10414000CF910895269A2E9888EC0E94FA052E9A0F
:1041500088EC0E94FA052ED482E690E00E94C70700
:104160008093FD0283E690E00E94C7078093FE02E1
:1041700084E690E00E94C7078093FF0285E690E006
:104180000E94C7078093000386E690E00E94C7075D
:104190008093010387E690E00E94C70780930203A3
:1041A0008DEF92E008D48091FD028093030380910B
:1041B000FE02809304038091FF02809305038091A7
:1041C000000380930603809101038093070380918D
:1041D000020380930803EED410929C0310929B0379
:1041E0006FE170E080EC94E00E94F12E62EE74E0EA
:1041F0008CEB94E00E94F12E88E690E00E94C707C5
:10420000882351F086EA94E0EDD38DEF92E00E948E
:104210005C311092FC02089582E08093FC024CCF46
:104220001F93CF93DF93FC018181893621F4DF91C5
:10423000CF911F9187CF8336C1F4CBEFD6E014E046
:10424000115060F0899140E261E090E00E94B70671
:104250001123B1F38EE20E945F06F2CF80E20E944A
:104260005F0683E093E09CDD0AC0843669F48091A8
:10427000FB028F5F83708093FB020E943607DF9101
:10428000CF911F910C94B3068E3629F4DF91CF9114
:104290001F910C948233DF91CF911F910895CF939A
:1042A000DF93EC01009719F4DF91CF9105CF69E618
:1042B00070E0469689DD8E899F899093FC068093F5
:1042C000FB06888D998D9093FE068093FD0661E72D
:1042D00070E0CE01829678DD8AA19BA19093F406CE
:1042E0008093F3068CA19DA19093F6068093F5062A
:1042F0006DE670E0CE014A9667DD8A8D9B8D9093C6
:10430000F8068093F7068C8D9D8D9093FA06809326
:10431000F906EB81FC811582148286E794E062D372
:1043200056D0DF91CF910C949331E091D804F09165
:10433000D904248135818091C4049091C504281743
:10434000390709F46EC008958091FC02823029F08B
:104350000E942C308093FC020895E091D404F091E7
:10436000D504309759F08091D30481FF07C0848130
:10437000958181159B4711F40C94B23308951F93D6
:10438000CF93DF93C091D804D091D90480913804A1
:104390008823C9F089A18A3F49F482E073D40E943E
:1043A000F62DEED282E00E94FA0507DE19A181E027
:1043B000810F89A386E394E00E94710AFE01E10F58
:1043C000F11D82A3E3CFDF91CF911F91089589E77B
:1043D00090E00E94AD39292F30E040E050E0582FA6
:1043E000C901842B952B9093C5048093C40439D4C0
:1043F0001092C7041092C6040895E091FB04EA3FAE
:1044000040F491E09E0F9093FB04F0E0EA50FB4FE4
:1044100086830895E091D804F091D90482E0848FD6
:104420000895EF92FF920F931F93CF93DF93009124
:10443000D8041091D9048091D30486FF1CC0F801E0
:1044400011A281E0848F8091C6049091C7049C01E1
:104450002F5F3F4F3093C7042093C604892B29F464
:104460008091360184608093360166EA7EE0C8015F
:104470004D960E94F12EF801848D8230B9F481E0CE
:10448000848F80E18093D3048091C6049091C70407
:1044900001979093C7048093C604892B09F0BDC08F
:1044A000809136018B7F80933601B7C08091D30411
:1044B000982F907311F487FF0AC0E091D804F0910F
:1044C000D90411A2DF01A45EBE4F1C92148E81FF9D
:1044D0002EC0E090CB04F090CC04E114F10439F14B
:1044E0003091D6042091D7048FEB91E290939E03F4
:1044F00080939D03C32FD22F699189E794E00E9496
:104500005B0A80917B04803431F4E0919F03F09149
:10451000A00384E00995F1E0EF1AF108E114F10439
:1045200059F7E0919F03F091A00384E009958091F1
:10453000D304982F947082FD06C0282F237019F49D
:10454000887409F451C0C091D804D091D90499233A
:1045500011F17E0184EEE81A8EEFF80AF70140812E
:10456000442309F441C050E0BE01635E7E4F809158
:10457000D6049091D7040E948E39F701608170E0D3
:104580008091D6049091D7040E94872CCE014D963D
:104590000E94072F29C049A1442331F17E01F2E294
:1045A000EF0EF11C50E0B7018091D6049091D70432
:1045B0000E948E3969A170E08091D6049091D70451
:1045C0000E94872CCE014D960E94072F49A150E0F2
:1045D000B701CE01835E9E4F0E948E39FE01E45EDC
:1045E000FE4F89A1808319A2F801848D8130A9F43E
:1045F000035E1F4FC8010E94112F892B71F0C80163
:104600000E94FD2EC091360184E0809336018CE239
:1046100091E00E94B909C0933601DF91CF911F91BB
:104620000F91FF90EF9008952898962F9F71982BE7
:104630009EBD0DB407FEFDCF1EBC0DB407FEFDCF21
:1046400067FD03C08EB5289A08951EBC0DB407FE01
:10465000FDCFF8CF28986F71682B6EBD0DB407FEA3
:10466000FDCF4EBD0DB407FEFDCF289A08952898C2
:104670002AE32EBD0DB407FEFDCFFB01860F971F69
:10468000E817F90739F01EBC0DB407FEFDCF2EB5B3
:104690002193F6CF289A089528982AE72EBD0DB4C5
:1046A00007FEFDCFFB01860F971FE817F90731F0D2
:1046B00021912EBD0DB407FEFDCFF7CF289A0895A6
:1046C0001F93CF93DF93182F1076C12FD0E0209146
:1046D000CA0430E0C217D30779F043E06FE180EA03
:1046E000B9DFAE0185E0559547958A95E1F76FE111
:1046F00080E8B0DF1093CA04DF91CF911F91089535
:10470000CF93DF931F92CDB7DEB7682F6983D8DFD1
:10471000698180E00F90DF91CF9186CF1F93CF9377
:10472000DF931F92CDB7DEB7182F6983C9DF4981A8
:10473000612F80E40F90DF91CF911F918BCF1F935A
:10474000CF93DF931F92CDB7DEB7162F682F84ED7E
:104750007983E4DF612F86EDE1DF7981672F87EDD3
:10476000DDDF8AEECDDF80FDFCCF0F90DF91CF91B2
:104770001F910895209A289A299A219A2398229A7B
:10478000209A8CB580618CBD8CB5877F8CBD8CB533
:104790008F7D8CBD8CB58E7F8CBD8CB58D7F8CBD97
:1047A0008DB581608DBD8CB580648CBD4FEF60E0B0
:1047B0008FEF50DF82E390E00E94F5058DE1A0DFEE
:1047C00080FFFCCF80E096E09093C9048093C804FA
:1047D00060E088E0A3DF66E089E0A0DF60E08CE0D5
:1047E0009DDF66E08DE09ADF6FEF8AE097DF6FE193
:1047F0008BE094DF60E084E091DF60E085E08EDFB5
:104800006DE080EC8BDF60E081EC88DF42E362ECFE
:1048100080E820DF62E186EC81DF6CE087EC7EDF00
:1048200062E184EC7BDF6EEE8AEC78DF65E08BEC96
:1048300075DF60E071E080E182DF8FE141DF40EC15
:104840006BE180E807DF44E06FE180E803CFCF92BF
:10485000DF92EF92FF920F931F93CF93DF938C0120
:104860007B01EA01690140E86FE180E8F3DE40E89E
:104870006FE180EAEFDE60E082E050DF60E083E03D
:104880004DDF6C2F600F86E049DFC8018C0F9D1F44
:10489000692F87E043DF40E060E08AE7DBDEB701B5
:1048A000C801FADE209719F0B601CE01F5DE48E026
:1048B0006FE180E8DF91CF911F910F91FF90EF9012
:1048C000DF90CF90C7CEEF92FF920F931F93CF93BD
:1048D000DF938C017B0189E313DF882309F440C057
:1048E0006091C80480E01ADF6091C90481E016DF9E
:1048F00060E08AE399DEC82FD0E0D093C904C0936A
:10490000C80460E08AE390DED82BD093C904C0933A
:10491000C80460E08AE388DEC82FD0E060E08AE364
:1049200083DED82B60E08AE37FDE60E08AE37CDE12
:10493000CF3E85E0D807B8F40C171D0708F4E8014E
:10494000B701CE0194DE6091C8048CE0E7DE60918F
:10495000C9048DE0E3DE40E46EE180E87BDE03C065
:1049600080E090E001C0CE01DF91CF911F910F91C7
:10497000FF90EF9008956FEF76E08CED95E0A3CF78
:104980008091CB049091CC048733910538F420E0DA
:1049900030E040E050E06FEF76E00BC02091D604AD
:1049A0003091D704AC01465351096FEF76E086E3AE
:1049B00090E04DCFDFCECF93DF93EC01688184EEA2
:1049C000ADDE698185EEAADE6A8182EEA7DE6B81AB
:1049D00083EEA4DE6C8180EEA1DE6D8181EEDF913D
:1049E000CF919CCEBC0184E1AACECF93DF93C3DFED
:1049F0009093CC048093CB04009781F18F3E954037
:104A000018F0DF91CF919ECBC0910B07D0910C078E
:104A100080E098E078D7C817D90759F481E032D1FF
:104A20008091CB049091CC04892BC1F00E94F62D8B
:104A300012C0C0910B07D0910C0786E098E063D7B5
:104A4000C817D90759F40E94562D8091CB04909134
:104A5000CC04892B19F0DF91CF9192CFDF91CF91C8
:104A600008950895FB0141505109460F571FE4175F
:104A7000F50778F4208130E0322F22276181260F5C
:104A8000311D820F931F8217930708F40196329607
:104A9000EECFE417F50751F4208130E0322F2227C2
:104AA000820F931F8217930708F401960895FC0163
:104AB0005381560F5093D204872F99274281480F74
:104AC0004093D104A181A093D004E081E093CF046E
:104AD000242F30E02817390748F481E08A0F8093AB
:104AE000D004811103C0EF5FE093CF04852F90E0E5
:104AF00077278617970788F44F5F4093D1044111B9
:104B00000CC08091D0048F5F8093D004811105C0C8
:104B10008091CF048F5F8093CF0408952091D804B3
:104B20003091D904BC01C9010896C1DFE091D804D5
:104B3000F091D9048091CF0480878091D00481873F
:104B40008091D10482878091D2048387089544E1C3
:104B500050E06DE077E080E090E084DF009721F0A6
:104B600098278927982708958FEF9FEF0895CF936F
:104B7000DF93C0910F07D0E0DC2FCC278091100786
:104B8000C80FD11D48E050E069E177E0CE010E97F3
:104B900069DFAE014451510961E277E063DF0097BC
:104BA00021F098278927982702C08FEF9FEFDF9188
:104BB000CF9108951092F2061092F1061092F3042C
:104BC00081E080930C031092E40C1092E30C0895A2
:104BD000E091E30CF091E40C20910D0330910E0371
:104BE0002F5F3F4F21154DE7340710F020E030E1F3
:104BF000522F432FE417F50799F330930E032093B8
:104C00000D03EF2B41F510920C035093E40C4093ED
:104C1000E30C7093E60C6093E50C009749F4109256
:104C2000DF0C1092E00C1092E10C1092E20C0DC01F
:104C3000FC01208131813093E00C2093DF0C8281D4
:104C400093819093E20C8093E10C80E48093E70CD5
:104C50008FED9CE0089581E080930C0380E090E06C
:104C600008952091F1063091F206232B39F4109229
:104C70000C039093F2068093F106089581E08093EF
:104C80000C0308950F931F93CF93DF93C091D80423
:104C9000D091D904843009F4A4C125E337E03093DE
:104CA000D7042093D6043093CE042093CD048330D0
:104CB00059F4898D8F70833009F016C688899989D7
:104CC000892B09F011C677C0823009F079C0809134
:104CD00012038F5F80931203811113C0809111031F
:104CE0008F5F8093110381110CC0809110038F5F3F
:104CF00080931003811105C080910F038F5F809313
:104D00000F031092CC041092CB041092DE0C109280
:104D1000DD0C298D822F8D7F853041F48A8D8F5F48
:104D20008A8F883709F0E0C5198EDEC5222309F481
:104D3000DBC588899989892BD1F18A8D9FEF980FDE
:104D40009A8F8111D1C58B8D883031F09FEF920FF2
:104D5000923040F4853031F4198E80E88093D3048A
:104D6000E4DA6FC4853038F493E0082E01C0990F5F
:104D70000A94EAF701C090E39A8F8F5F8B8F822F9E
:104D80008F70843009F4F5C358F4813009F4E5C21A
:104D9000833009F0A9C584E08093D304C6DA85C4C2
:104DA000863009F4E6C3883009F09EC5E2C32F704F
:104DB000233009F099C588E08093D304B6DA38C46B
:104DC000853019F5E091D404F091D5048481958162
:104DD000892B09F489C51092D9041092D80489E26C
:104DE00097E09093D7048093D6049093CE04809359
:104DF000CD041092DE0C1092DD0C1092CC041092B7
:104E0000CB0488E08093D304EBC080910D078534F8
:104E100009F06AC5C0910F07D0E0DC2FCC27809144
:104E20001007C80FD11D8091CB049091CC048C1732
:104E30009D0708F459C5D093CC04C093CB0480914E
:104E400013078F7309F050C58091140781114CC569
:104E50000091FB061091FC060115110531F48091BB
:104E6000FD069091FE06892BA1F080911D0790917F
:104E70001E078017910709F037C520911F07309151
:104E800020078091FD069091FE062817390709F04A
:104E90002BC55DDE019609F027C580911607863087
:104EA00009F4F6C08131B1F1813009F01DC580915E
:104EB0002107883009F018C5109221078091230737
:104EC00090912407873FCFEF9C0710F0099601C00F
:104ED0000896909324078093230780911907909157
:104EE0001A0790931E0780931D0780911B079091CE
:104EF0001C079093200780931F0710931A070093B5
:104F000019078091FD069091FE0690931C078093EF
:104F10001B07EEC46C97D093CC04C093CB048FEDE9
:104F20009CE09093D5048093D40420912307309182
:104F30002407409121075091220760911907709131
:104F40001A07A0911B07B0911C07E091D404F091BF
:104F5000D5048DE0EE30F80708F0C6C48481958151
:104F6000009719F12817390701F586819781009775
:104F700019F048175907C9F480819181009729F4E5
:104F8000C281D381CD2B49F416C08F3F1FEF91070B
:104F900021F4C281D381219671F06817790729F431
:104FA00082819381A817B90731F0BF96F093D50499
:104FB000E093D404CACF1092D9041092D80482E0AE
:104FC0008093D30489E297E09093D7048093D6042A
:104FD0009093CE048093CD041092DE0C1092DD0CE1
:104FE000B3D98091DD0C9091DE0C009709F47CC45C
:104FF0009C01245E3F4F3093CC042093CB0430932C
:105000000F0720931007E091D404F091D504208578
:105010002093150721E120931607089698278927E2
:1050200098279093260780932507109228071092BF
:105030002707848195819093220780932107868199
:10504000978190932407809323078091FB0690918A
:10505000FC0690931A07809319078091FD069091A2
:10506000FE0690931C0780931B078081918190938B
:105070001E0780931D078281938190932007809360
:105080001F0785E397E09093D7048093D6040AC462
:105090006EDD019609F028C45091F30440912E076B
:1050A000552369F120912307309124078091DE0474
:1050B0009091DF042817390711F5209121073091CD
:1050C00022078091E0049091E10428173907B9F490
:1050D0002091190730911A078091DA049091DB042E
:1050E0002817390761F420911B0730911C07809124
:1050F000DC049091DD042817390709F445C1842F99
:105100008F73823019F042FDEFC317C080912307DF
:105110009091240790930A03809309032091F1064C
:105120003091F2068217930709F0E9C3511176C056
:1051300010920C03CAEDD4E07BC084E180932E076B
:1051400088E290E09093CC048093CB0480E5809338
:105150002D078091280790912C0790932807309174
:10516000270790912B079093270730932B072091C7
:10517000260790912A079093260720932A0790915B
:10518000250790930C03409129074093250790939E
:1051900029078F5F80932C0781110FC081E0830F57
:1051A00080932B07811109C081E0820F80932A0729
:1051B000811103C09F5F90932907809121079091EF
:1051C000220790930A0380930903209123073091CB
:1051D000240730932207209321079093240780937C
:1051E00023078091190790911A0790931E078093C7
:1051F0001D0780911B0790911C07909320078093B7
:105200001F0710931A07009319078091FD069091CC
:10521000FE0690931C0780931B072AC3573019F48E
:10522000CAEDD4E002C0C0E0D0E081E080930C037E
:10523000209709F459C3D093D904C093D80483E0CC
:105240008A8F888F1E8A84E08F8B1B8E8091230724
:10525000909124079D838C83809121079091220750
:105260009F838E838091190790911A079983888371
:1052700080911B0790911C079B838A8381E0898F13
:1052800080910F038C87809110038D87809111038B
:105290008E87809112038F8781E090E0998B888BB5
:1052A000809128078B87809127078A87809126071E
:1052B000898780912507888781E090E02FDC8091A5
:1052C0002D07282F207F30E0213531050CF445C013
:1052D00082958F7090E00597880F991F880F991F0E
:1052E00030910B0320E0E22FF0E0E817F9078CF58E
:1052F000E150F94F36A9311105C020930C031092EB
:105300000B032BC0313011F42F5FEDCF3230E1F4BD
:1053100047A94430C9F420930C0330930B0380ADAC
:1053200090E0982F882721AD822B90930A038093D9
:105330000903873A15E0910710F086EA95E09B8B08
:105340008A8B9D8B8C8B09C047A9442311F0240FB5
:10535000CACF20930C0330930B0382E180932E0776
:1053600082E08093350784E08093360785E0809360
:10537000370786EA809338078CE290E09093CC045C
:105380008093CB0480E621C28AED94E09093D90407
:105390008093D8041092D30442FF04C01092F30407
:1053A00080E2B1C180912D0782958F70880F880FA0
:1053B00080930C03C81BD1096497D093CC04C0938D
:1053C000CB045F70523021F4842F8F738231E9F067
:1053D000CD2B19F4842F8370C1F090912507809113
:1053E000E2049813E6C1909126078091E304981394
:1053F000E0C1909127078091E4049813DAC190915D
:1054000028078091E5049813D4C144FF58C06091E7
:10541000EA047091EB046115710509F450C086EE41
:1054200094E045DB309129078091CF04381347C0C1
:1054300020912A078091D004281341C090912B0716
:105440008091D10498133BC080912C074091D204E5
:10545000841335C03093E6042093E7049093E80466
:105460008093E9048091F50481111EC09091F004AD
:105470008091F2042091F404821B292F2695269511
:105480002695821B980F9093F0042091F104322FFF
:1054900036953695831B820F8093F10496959695E9
:1054A0009695980F9093F20481E08093D3048091B5
:1054B000F2048093F4041092EB041092EA044091F9
:1054C000F304842F8F7090E0FC013197E830F105F0
:1054D00008F00AC2E45BFF4F0C9434388091D30487
:1054E00080FF02C283E08093F30480E48093D304BE
:1054F0001092EB041092EA048091CB049091CC04BA
:10550000009709F48DC022E42093D30407DB88C000
:1055100080912E0780FF31C044FD2FC08091EA04A6
:105520009091EB04892B09F0DFC18091CB0490911D
:10553000CC040196F3DA2091D304822F806180930A
:10554000D3048091CB049091CC04892B19F0226173
:105550002093D3040E94952181E090E09093EB0486
:105560008093EA0488E08093F3041092F504CAED76
:10557000D4E081E180932E0721C185FF1CC080917A
:10558000330790E0982F882720913407822B2091B1
:10559000D6043091D704280F391F3093D7042093B5
:1055A000D6042091CB043091CC04281B390B3093C6
:1055B000CC042093CB048091CB049091CC04009731
:1055C00041F044FD06C02091D30422602093D3040F
:1055D000A5DA80912F0790E0982F88272091300737
:1055E000820F911D90930A03809309032091EE048A
:1055F0003091EF042817390710F0892B21F43093EC
:105600000A03209309038091090390910A03909360
:10561000ED048093EC048091D304837009F464C199
:105620001092DE0C1092DD0C0E949521CAEDD4E0A0
:105630008091D30485FF07C01092DE0C1092DD0C20
:10564000198E84E197CF84FF0CC01092DE0C10926B
:10565000DD0C81E090E0998B888B84E0898F1B8E34
:1056600088CF2091DD0C3091DE0C21153105E1F061
:1056700080FF02C0198A188A88899989009781F465
:105680008A899B898217930720F49093DE0C80937C
:10569000DD0C8091DD0C9091DE0C998B888B04C021
:1056A0009093DE0C8093DD0C1B8E8091CD04909145
:1056B000CE049093D7048093D6048091DD0C909112
:1056C000DE0C892B59F088899989009739F08896E2
:1056D0009093CC048093CB0488E10BC08091D304D9
:1056E00081FF02C188E290E09093CC048093CB04C8
:1056F00080E180932E0768C08091D30480FFF4C0BE
:105700001092F30480E18093D3040E949521ECC0B1
:105710008091CB049091CC04009709F0FFD990912F
:105720002E078091D30490FF10C080FF0AC087E04D
:105730008093F3041092F4041092EB041092EA04A4
:105740001EC086E08093F3041AC080FF21C085E06C
:105750008093F3041092EB041092EA04C5C0809188
:10576000CB049091CC04009709F0D8D980912E07F2
:1057700080FF0EC087E08093F3041092F40481E070
:1057800090E0CCD980E18093D3040E94952111C090
:105790008091CB049091CC04892B59F4A5C08091C1
:1057A000D30480FFA1C087E08093F3041092F40437
:1057B0009BC080E180932E07CAEDD4E088E290E0A0
:1057C0009093CC048093CB0480E580932D0788854B
:1057D00080932907898580932A078A8580932B07E0
:1057E0008B8580932C078C85809325078D858093EE
:1057F00026078E85809327078F858093280786E06C
:10580000809316078C819D819093220780932107B6
:105810008E819F8190932407809323078091FB06BC
:105820009091FC0690931A07809319078091FD06CA
:105830009091FE0690931C0780931B0788819981A5
:1058400090931E0780931D078A819B819093200768
:1058500080931F07898D84FF05C010923007109236
:105860002F0706C085E080932F0786EA80933007D4
:1058700080E4809315078091CB049091CC049093A1
:105880000F0780931007109234071092330710927D
:105890003207109231076BD980959095909332071B
:1058A0008093310785E480930D0710920E071092C4
:1058B000140710921307809113039091140301961B
:1058C000909314038093130390931107809312070E
:1058D00010921807109217073AD9809590959093D7
:1058E00018078093170704C01092CC041092CB04C1
:1058F0001092D304DF91CF911F910F91089581E011
:1059000080930C0300CC98278927982708959C0141
:10591000AB011616170674F47093DE0C6093DD0C61
:105920008091CD049091CE042817390719F0B90160
:105930000C948E390895CF93DF9310921803409101
:105940001B0750911C0760911D0770911E07E0E036
:10595000C0E0D0E0FBE0E830F0F4FE9FE00111246D
:10596000C35EDC4F288139812115310591F08A8190
:105970009B81009771F04217530759F46817790714
:1059800041F4E0931803DE01149686E0E5E1F7E0C8
:1059900059C0EF5FE0CF1092180320E03BE02830C1
:1059A00090F4329FE0011124C35EDC4F888199811D
:1059B000892B39F48A819B81892B19F42093180350
:1059C0002FC02F5FECCF20931803283049F5A0910A
:1059D00016038A2F90E070E0C0E060E0BBE0683022
:1059E00098F4B69FF0011124E35EFC4FE285AC0110
:1059F0004E1B5109272F30E0241735071CF4C62F02
:105A00007A2F7E1B6F5FEBCF70931503C093170344
:105A1000C09318038BE0C89FE0011124C35EDC4FE4
:105A200080911B0790911C07A0911D07B0911E0744
:105A3000FE0181939193A193B1939F0186E0E5E1EB
:105A4000F7E0D90101900D928A95E1F78091160354
:105A50008A87DF91CF910895209116032F5F2093BD
:105A60001603109218037BE030E060911803683051
:105A7000E0F4769FF0011124E35EFC4F8281938174
:105A800040815181842B952B892B59F08285A90166
:105A9000481B51094837510524F0108211821282A7
:105AA00013826F5F60931803E0CF08958091CB0459
:105AB0009091CC041092CC041092CB048A9708F4F5
:105AC00008958091130790911407811521E09207A2
:105AD00029F08115924009F471C00895209125079D
