:1000000026C1000040C100003EC100003CC100000C
:100010003AC100000C94B40D36C1000034C1000098
:1000200032C1000030C100002EC100000C949616B1
:100030002AC1000028C1000026C100000C945D0DFB
:1000400022C1000020C100001EC100000AC400003F
:100050001AC1000018C1000016C1000014C1000040
:1000600012C1000010C100000EC100000CC1000050
:100070000AC10000CE130014E4140014E414481460
:100080007014E4148C14B414418F10425D0643C004
:1000900002658706466808686B0869FF106C4C06A5
:1000A00052CE0554F712746C0456BF06570E06580C
:1000B000DE097887020000002A03430055004C0047
:1000C00034003300330000002A03430055004C0085
:1000D0005F0048004D0000001603620075007300C9
:1000E00077006100720065002E006400650000006A
:1000F00004030904090243000201008032090400DC
:100100000001020201000524000110052401030181
:10011000042402060524060001070582030800FFE7
:1001200009040100020A0000000705040240000063
:10013000070583024000001201100102000008EBD5
:10014000034B20000001020001202F2000203D2051
:10015000000D2E2D07D3913D0432000006002165CD
:100160006A55E43023B900070018146C0700908723
:100170006BF85611E92A001F410027675081C250D1
:100180004C4C310D0A00504C4C300D0A00562031B9
:100190002E36375F6E6F63726564697473204355E2
:1001A0004C5F484D005620312E36375F6E6F6372BC
:1001B00065646974732043554C34333300202F2019
:1001C00000203D2000424F56460D0A004552523A4B
:1001D0004343410D0A000007022E030D04E905CA3E
:1001E000070C0B060D210E650F6A10C81193120340
:1001F00015341733181819161B43215625002611DC
:1002000029592C812D353EC30D2E2D07D3913D0448
:10021000320000060010B07155E43023B900070029
:1002200018146C070090876BF85611E92A001F41DB
:100230000020697320756E6B6E6F776E2920557381
:1002400065206F6E65206F66003F20280000112436
:100250001FBECFEFD2E0DEBFCDBF11E0A0E0B1E026
:10026000E0E7FFE202C005900D92A231B107D9F795
:1002700022E0A2E1B1E001C01D92A235B207E1F790
:100280000CD00C94B617BCCEF89481E085BF82E008
:1002900085BFE0E0F8E1099508952FE088E190E05E
:1002A0000FB6F894A895809360000FBE209360006D
:1002B00090E080E80FB6F89480936100909361001D
:1002C0000FBE2E9A2D9A04B603FE0AC083E390E077
:1002D0004CD4882329F060E083E390E041D4D4DF5C
:1002E00089EF87BD84E085BD82E084BD80936E0088
:1002F000109280008AE08093810084B7877F84BF5A
:100300003C9A0E94A21328D50E947A160E94EA12F3
:100310000E94CA0987E593E19093B2018093B101ED
:1003200081E08093160144980E942C17DDD10E9431
:10033000F70AE8D20E94080FF7CF292F332722307F
:10034000310559F02330310569F02130310539F597
:1003500082E190E027E331E026C083E490E024EFDF
:1003600030E021C099278130910539F018F00297CB
:1003700051F015C0E0EFF0E002C0E8EDF0E084914C
:1003800090E09F0110C01E9903C028EB30E002C02E
:1003900028EC30E0E8ECF0E0849190E004C080E0EC
:1003A00090E020E030E0FA013183208308958EBD93
:1003B0000DB407FEFDCF8EB508950F931F93CF9315
:1003C000DF93082F8A3018F4853018F001C008E058
:1003D00005508BE290E060E010E006581E4FEC0103
:1003E0002196BED3C333D10541F0CC3219F4F801C4
:1003F000649101C060E0CE01F2CFDF91CF911F91F7
:100400000F910895CF93DF9382E090E0FC01E15BD0
:10041000FE4F6491EC012196A3D3CB32D10511F0AC
:10042000CE01F4CF1E990CC060E18FE090E098D32C
:1004300060EB80E190E094D361E781E190E090D3BC
:1004400088E0BBDFDF91CF9108954598806CAFDFE6
:1004500080E0ADDF459A0895A1E0B0E0E2E3F2E08C
:100460000C947917459880646983A1DF6981862F90
:100470009EDF459A2196E2E00C949517459897DF08
:10048000459A0895EF92FF920F931F93CF93DF93B6
:10049000EC01EC983D9A459A8EE190E068D245983F
:1004A0008EE190E064D2459A8DE290E060D280E3E4
:1004B000E5DF84E690E05BD2459880E478DF7E015A
:1004C00089E2E80EF11C8E010F5F1F4FCE014DD364
:1004D0006EDF0E151F0511F0E801F5CF459A45981E
:1004E0008EE765DF8BE290E0EC0121963ED35FDF83
:1004F000C333D10511F0CE01F7CF459A83E3BEDFB8
:1005000081E03AD2CDB7DEB7E6E00C949117A1E0D6
:10051000B0E0EDE8F2E00C94791722E0298341E0A5
:10052000BE016F5F7F4F0196D8D2898146DF82E09E
:1005300090E0A8DF2196E2E00C949517CF93EC9819
:1005400086E39CDFCFEF85E399DFC150807780326F
:1005500029F08AE090E00BD2C111F5CFCF91089538
:10056000CF93CFEF84E38ADFC1508077803129F0C9
:100570008AE090E0FCD1C111F5CFEC9ACF910895BB
:10058000A2E0B0E0E6ECF2E00C9477178C01FC01FD
:1005900081818737E9F441E0BE016F5F7F4FC80179
:1005A00002969BD2892BA1F041E0BE016E5F7F4F86
:1005B000C801049692D2892B59F06A8189814CDF57
:1005C00083E35CDFCDDF898184D28A8182D22CC033
:1005D00041E0BE016E5F7F4FC80101967ED2892B3C
:1005E00021F18A81893969F410E0812F2EDF71D2DF
:1005F000812F8770873009F4F8D11F5F1033A9F776
:1006000014C023DF182F83E4C0D18A8162D28DE425
:1006100091E0DED1812F5DD289E491E0D9D140E231
:1006200062E0812F90E0E5D1E0D12296E4E00C94E5
:10063000931786E323DF1092B301109268010895A7
:1006400082E090E01FDF81E08093B30110926801A7
:1006500008950F931F93CF93DF93082F10E0C62FB9
:10066000D0E085E3F2DE801731F0CE0180D1115069
:10067000C1F781E001C080E0DF91CF911F910F9120
:10068000089585E2E2DE8F3311F080E0089586E37D
:10069000F5DE80911201811104C086E891E098D1C5
:1006A00002C08DE3EBDE83E3E9DE64E081E0D1DFCD
:1006B00085E2CBDE8F3349F780911201811103C0AF
:1006C0008FE791E085D181E0089585E3BEDE8D302E
:1006D00051F485E2BADE8F3331F4D3DF84E3CEDE2A
:1006E00080778031D9F7089580914902843009F0EC
:1006F00061C08093E90080911301811128C080912D
:10070000E80085FF24C08091F200882331F06091D9
:10071000F10082E092E03CD3F6CF8091E800982F80
:100720009B7F9093E8008F778093E80081E080932F
:10073000130184E793E09093B0018093AF01E091BF
:10074000B101F091B20181E009951092130183E0AB
:100750008093E9008091C101882361F18091E800D4
:1007600085FF28C0F8948091C101882351F08091C1
:10077000F200803430F48FEB91E020D38093F100CD
:10078000F2CF78949091F2008091E800282F2E7F8C
:100790002093E8008F778093E800903459F40E940A
:1007A0003A158091E800982F9E7F9093E8008F770C
:1007B0008093E800089542E061EC82E00E94EA1430
:1007C00042E361E883E00E94EA1442E360E884E0E7
:1007D0000E94EA141092000110920101109202018D
:1007E00010920301089580914A0290914B02913238
:1007F00029F0923261F1903299F512C0813A81F577
:100800008091E800877F8093E80067E070E080E0F7
:1008100091E00E9463158091E800982F9B7F11C0A2
:100820008132F1F48091E800877F8093E80067E0EF
:1008300070E080E091E00E9400168091E800982F1F
:100840009E7F9093E8008F778093E800089581322F
:1008500039F48091E800877F8093E8000C941415A8
:1008600008951F920F920FB60F9211248F939F93AA
:10087000AF93BF938091B5019091B601A091B7015C
:10088000B091B8010196A11DB11D8093B50190935F
:10089000B601A093B701B093B8018091B4018F5F06
:1008A0008093B401BF91AF919F918F910F900FBE34
:1008B0000F901F9018952FB7F8944091B501509163
:1008C000B6016091B7017091B801FC01408351837A
:1008D000628373832FBF0895A4E0B0E0E2E7F4E001
:1008E0000C947917CE010196E6DF8C81F2D08B81D2
:1008F000F0D08A81EED08981ECD077D02496E2E0E6
:100900000C9495178091B5019091B601A091B70113
:10091000B091B80120911501281741F18091B501DE
:100920009091B601A091B701B091B80180931501E3
:10093000A8958091B4018D37C8F01092B4018091D0
:10094000070181FF04C088B190E1892788B984E854
:1009500093E09093BA018093B901809114018F5F65
:10096000809314018C3311F4109214010895880FB0
:10097000991F0197F1F7089520ED37E0815020F09D
:10098000F9013197F1F7FACF0895CF93C82F8091ED
:100990004902843081F48091160180FF0CC080915F
:1009A000C101803408F0A0DE6C2F8FEB91E0F0D114
:1009B000CA3009F499DECF910895CF93DF93EC010B
:1009C0008991882311F0E1DFFBCFDF91CF9108956A
:1009D000CF93DF93EC01FE018491882319F0D5DFDA
:1009E0002196F9CFDF91CF9108958DE0CEDF8AE097
:1009F000CCCFA6E0B0E0EFEFF4E00C947717062F31
:100A00001E8215E02AE030E01150E1E0F0E0EC0F4A
:100A1000FD1FE10FF11DB9010E944F17805D80831A
:100A2000CB010150009769F01111EECF0AC01123DC
:100A300059F01150E1E0F0E0EC0FFD1FE10FF11D66
:100A40004083015007FFF3CF81E090E08C0F9D1FA2
:100A5000810F911DB2DF2696E4E00C949317A5E078
:100A6000B0E0E5E3F5E00C9479171D8224E0382F1F
:100A70003F702150E22FF0E03A3010F4305D01C0B9
:100A8000395CA1E0B0E0AC0FBD1FEA0FFB1F308363
:100A900034E0969587953A95E1F76150009739F7DC
:100AA000615067FD0BC0222349F02150E1E0F0E0E6
:100AB000EC0FFD1FE20FF11D4083F2CF81E090E0CB
:100AC0008C0F9D1F820F911D78DF2596E2E00C941C
:100AD000951740E362E090E0C2CFDC01FB0130E01B
:100AE00090E08D918823A9F0813608F0805220EDA6
:100AF000280F2A3030F02FEB280F263030F429EC65
:100B0000280F292B332379F006C0803251F38A3322
:100B100041F3CF0105C0CF0101962083415041F43C
:100B2000861B970B0895922F9295907F31E0D9CF35
:100B3000FC01D5CFDB01FC0180E090E02191222374
:100B400061F030ED320F3A30C8F76AE070E00E9491
:100B50003E17C097820F911DF1CF8D939C930895FE
:100B60000E94A817F999FECF08950C94A017089534
:100B70001F93CF93DF93162F11501F3F59F0EC01B5
:100B80002196F3DFA6DF112311F08AE3FEDE115078
:100B9000CE01F3CFDF91CF911F910895A2E0B0E095
:100BA000E4EDF5E00C947617FC0121812D3421F45D
:100BB00066E08AEF91E005C0203529F460E18AED16
:100BC00091E0D6DF26C01A82198242E0BE016F5F33
:100BD0007F4F019682DF098110E0823021F4102FCF
:100BE00000278A81082BC801C0DFF82E82E5CDDE00
:100BF00040E364E0C80133DF81EC91E0E9DE8F2D52
:100C000068DF8DEB91E0E4DE40E262E08F2D90E062
:100C1000F0DEEBDE2296E5E00C949217A6E0B0E061
:100C2000E4E1F6E00C9473176C0143E0BE016F5FE2
:100C30007F4F019652DF823058F1E980F12C8230EB
:100C400021F0FE2CEE242A81E22A8C011127FE01DC
:100C5000E00FF11F6081C70183DF000F111F0F5FDD
:100C60001F4F0C0D1D1DF8018081882389F041E084
:100C7000BE016F5F7F4FC80130DF892B49F08FEFD6
:100C8000E81AF80A6981C7016BDF0E5F1F4FEBCFCF
:100C90002696E8E00C948F1741E067E071E001963A
:100CA0001CDF8091070180FF02C0449A01C0449874
:100CB0006091070184E390E053CFA1E0B0E0E3E668
:100CC000F6E00C9479171982009731F041E0BE01EB
:100CD0006F5F7F4F019601DF89818F3F09F4FFCF5E
:100CE000882321F061E083E390E03ADF0E948016E0
:100CF00010926E00F89428E088E190E00FB6F89426
:100D0000A895809360000FBE20936000FFCFCF9323
:100D1000DF93EC0161E080E090E022DF63E481E0BA
:100D200090E01EDF6FDB60E080E690E019DF60E0BE
:100D300081E690E015DF60E083E390E011DF62E0A0
:100D400084E390E00DDF8981883719F080E090E03E
:100D5000B4DFDF91CF91089580E090E006DF81302D
:100D600029F481E090E001DF833419F080E090E025
:100D7000CEDF84E390E0F9DE8093070108951E99A9
:100D800003C085EA91E002C08DE891E021DE2DCE1E
:100D9000FC018FB7F8949281903470F49F5F928336
:100DA000208191E0920F9083DF01A20FB11D139675
:100DB0006C93903409F410828FBF0895FC019FB7A3
:100DC000F8948281882371F081508283818121E0AF
:100DD000280F2183DF01A80FB11D13968C912034B9
:100DE00009F411829FBF0895CF93C82F469A882394
:100DF00019F08091190102C080911B0190E034E04C
:100E0000880F991F3A95E1F7B2DD4698CC2319F087
:100E10008091180102C080911A0190E024E0880FAF
:100E2000991F2A95E1F7A3DDCF910895A8E0B0E0DE
:100E3000ECE1F7E00C9469173C01D62E542EB22E4B
:100E40001E2D449A8091B301811101C0F9DB76DB3C
:100E5000EC2CF12C54E0EE0CFF1C5A95E1F78A2C97
:100E6000912C64E0880C991C6A95E1F72D2D30E0F7
:100E70003A832983252D30E03C832B8344244394FB
:100E8000512C2B2D30E03E832D83C11002C0AA20AF
:100E900031F0469AC7016BDD4698C40168DDB12C7C
:100EA0008B2D992787FD909529813A818217930789
:100EB00024F480E099DFB394F3CFDD2011F081E0DA
:100EC00093DFB12C2B2C332427FC30942B813C81D5
:100ED000221633062CF047E0B42E260C371C17C020
:100EE00047E050E0260C371CC201042E01C0880FD9
:100EF0000A94EAF7F101908189234F83588774DFC0
:100F00004F8158854150510978F7B394DBCF8B2D31
:100F1000992787FD90952D813E812817390764F424
:100F2000C2010B2C01C0880F0A94EAF7F1019081ED
:100F300089235ADFBA94EBCF812F1EDD015009F0CF
:100F4000A4CF8091BC01882311F00ADB02C086E3A4
:100F500095DA44982896E2E10C948517ACE0B0E06D
:100F6000E4EBF7E00C9471177C01162F842F022F0D
:100F70006701C60ED11C462FB70135D2F60180831A
:100F800061E0610F19825E2D570140E027E0A1E08A
:100F9000B0E08A2D851B861708F065C0F5017191B8
:100FA0005F0187E090E07D01082E02C0EE0CFF1C7F
:100FB0000A94E2F7E72291F0EE24E394F12CEC0E90
:100FC000FD1EE40EF11CF70130816D01022E02C0FE
:100FD000CC0CDD1C0A94E2F73C293083222319F063
:100FE0003FEF320F0DC021E0240F2C3008F4422FC8
:100FF000E1E0F0E0EC0FFD1FE20FF11D108237E0A1
:10100000232F019780F6872F082E82958025082EA2
:101010008695869580258F5F81FF11C081E090E0E5
:101020008C0F9D1F840F911DFC0120817D01032EDB
:1010300002C0EE0CFF1C0A94E2F72E292083332312
:1010400019F02FEF230FA5CF81E0840F8C3008F427
:10105000482F21E030E02C0F3D1F280F311DF901F2
:10106000108227E096CF222311F0215002C04F5F5B
:1010700027E089E180931A0180931B0185E2809328
:10108000180180931901A12CC12CEAE0EE2E6CE02E
:10109000CE010196CBDE2C96EAE00C948D17ADE0E4
:1010A000B0E0E5E5F8E00C947817162F242F4BE01C
:1010B000BE016F5F7F4F01962D870FDD2D85412F7C
:1010C000682FCE0101964ADF2D96E3E00C94941729
:1010D00043E066E0E4CFAF92CF92EF920F93CF93CD
:1010E000DF93CDB7DEB72C970FB6F894DEBF0FBEF7
:1010F000CDBF4BE0BE016F5F7F4F0296EEDC8530C7
:10110000C1F48EE380931B018CE180931A0181E28C
:10111000809319018AE380931801A5E2AA2EBAEF01
:10112000CB2EE12C05E024E044E068E0CE010196FE
:101130007DDE2C960FB6F894DEBF0FBECDBFDF91DB
:10114000CF910F91EF90CF90AF9008958F929F9293
:10115000AF92BF92DF92EF92FF920F931F93CF93C4
:10116000DF9310922F0110923C01FC012181220F8C
:10117000220F220F3381231B57E0520F10923001B0
:1011800010E070E038E0D32ED20EFF24F39447E055
:1011900007E0E12CC7E0D0E0A1E0B0E0FD1409F4E5
:1011A0007FC0FC01EE0DF11D248130E0002E02C055
:1011B000359527950A94E2F721703327E22F002313
:1011C00011F0015002C0E39407E06B3471F4433036
:1011D00009F04AC0111107C0E1115FC010922F0140
:1011E00070933C0174C010E041C04F3F31F566344C
:1011F000A9F4E72FF0E0E05DFE4FE0810E2EE295CE
:10120000E0250E2EE695E695E025EF5FE1FB8824CC
:1012100080F8912C8216930641F004C0653429F4BD
:10122000E11103C010932F01DBCF7F5FE72FF0E0C8
:10123000E05DFE4F108247E031C0EE2361F166347D
:1012400071F4E72FF0E0E05DFE4FA0809D01042ED9
:1012500001C0220F0A94EAF7A22AA0821CC06534BA
:1012600039F06B34C1F404C04F3FD1F2EE2399F052
:10127000E72FF0E0E05DFE4F9E01241B310947FDA2
:1012800033955D0102C0AA0CBB1C2A95E2F79501BB
:101290003081322B3083415001C011E0F3947ECF76
:1012A00010932F0170933C015F1588F4653431F47D
:1012B0004F3F21F47F5F70933C0104C080912F0168
:1012C0008111F8CF81E090913C01911101C080E043
:1012D000DF91CF911F910F91FF90EF90DF90BF9022
:1012E000AF909F908F90089510926F0080913F0172
:1012F00090E064E170E00E943E17805C9E4FFC012C
:1013000010820895FC0121812C3008F0EDCF33814B
:10131000662381F081E090E0032E01C0880F0A94DB
:10132000EAF7DF01A20FB11D14969C911497982B38
:1013300014969C93332319F031503383089587E03A
:1013400083832F5F2183E20FF11D14820895DC0156
:101350001196EC911197F0E050E02C91CF01841B95
:10136000950B0B964797A0F430E070E0C901861BFF
:10137000970B0B96479760F42E0F3F1F640F751F56
:10138000261B370B255F3F4F81E02731310508F0E1
:1013900080E008953E9A46983F98EAE6F0E0808122
:1013A00081608083109254011092B301089580915E
:1013B000BC01882311F044D9D3C83BC9FC01218169
:1013C00021110BC08091BC0184DB40E265E080917B
:1013D000B9019091BA010DDB08CB41E06CEB71E0F3
:1013E00001967BDBE4CF442339F04150FB01E40F4D
:1013F000F11D9081890FF7CF089520E0662339F021
:101400006150FC01E60FF11D30812327F7CF822FB9
:101410000895A0912F0140E035E020E0662399F087
:101420006150FC01E60FF11D5081752F72957F70A0
:101430002727370FAA2311F0442319F05F702527BF
:10144000350F4F5FEBCF822F830F8295807F822BEA
:101450000895FC0132812381A081B181A30FB11DC8
:101460008C9190E0022E02C0959587950A94E2F740
:10147000817099274FEF420F4383211104C03F5FD2
:10148000328327E023830895A2E0B0E0EAE4FAE0A3
:101490000C9471177C01A12CB12CD12CCC24C394B9
:1014A000062F10E001501109A616F0F4C7014A8377
:1014B0006983CFDF4A816981882391F0442349F011
:1014C00098012A193B098C2D01C0880F2A95EAF74B
:1014D00006C08C2D0A2C01C0880F0A94EAF7D82A7E
:1014E0008FEFA81AB80AE0CF8D2D2296EAE00C946F
:1014F0008D17A4E0B0E0EFE7FAE00C9470171B82C0
:1015000027E02C839C012C5F3F4F3A832983109264
:101510003C01FC01218130E043E0220F331F4A955A
:10152000E1F7438187E090E0841B9109280F391F80
:10153000253431050CF44EC0B12CA0903C01F5E0EF
:10154000FA1558F10A2D10E040E068E0CE0101964E
:101550009BDF005D1E4FF8018083982E092C92942A
:101560009024092C969496949024CE01019671DFD4
:10157000939491FACC24C0F8D12C90E0C816D906E7
:1015800049F5CE01019665DF811124C0F801808103
:10159000B826A394A0923C01D0CF40E068E0CE01F1
:1015A000019672DF082F182F012E12951025012E9B
:1015B000169516951025CE0101964BDF1F5F11FB86
:1015C000EE24E0F8F12C282F30E0E216F30611F4B7
:1015D00081E0B01280E02496EBE00C948C178091AF
:1015E000BB0180FD03C084608093BB010895A1E02E
:1015F000B0E0EDEFFAE00C947517198280911C01B0
:10160000882391F18091BC0187FF16C084E30E947A
:1016100025028058803458F0803C58F490E0805582
:101620009109A3E095958795AA95E1F703C080E01D
:1016300001C08FE08F59A9D98091BC0183FF12C0EE
:1016400082E7A3D98091BC0184FF03C080911D0172
:101650009CD986E69AD98091BC0184FF03C0809111
:101660001C0193D910921C0180913D01882309F43B
:1016700020C2449A80913E0190E064E170E00E94B3
:101680003E178C01005C1E4F8981811139C066E4D0
:10169000C8015CDD8823A1F1F0903C01FA94F0923E
:1016A0003C014F2D60E371E086E09DDEEF2DF0E020
:1016B000E05DFE4FE0808E1105C093E09F1510F4B1
:1016C00086E41BC0282F30E02F5F3F4F6E2D70E067
:1016D0002617370739F493E09F1520F496E4998391
:1016E00080830EC04F2D60E371E08CE07CDE8E11B4
:1016F00006C0E3E0EF1518F484E5898301C0198280
:101700008981811116C065E4C80120DD882389F034
:1017100080913C01815080933C01893051F469E013
:1017200080E391E06ADE90913901891302C085E47B
:1017300089838981811106C0C801DBDE882311F00D
:1017400088E489838981811133C0F80143896091DC
:101750001D01C8014296FBDD682FC801D3DD6BE493
:10176000C801F4DC8823B1F0F0903C01FA94F092C7
:101770003C016F2D80E391E04CDEEF2DF0E0909185
:101780002F01E91BF109E05DFE4F9081891302C032
:101790008BE48983898181110BC0F801838191E0F9
:1017A000980F9383873021F4138281818150818344
:1017B000898181112DC0F8018181843049F58381AF
:1017C000843031F54EE16CE3C8014096C0DD8823DA
:1017D000F9F04EE160911D01C8014296B8DD682F15
:1017E000C80190DD20E0822F90E0FC01E05DFE4F1B
:1017F000D801A80FB91F14968C91808381E0820FC5
:10180000853010F4282FEFCF80933C0182E5898347
:101810003981332309F4C5C02091BC0120FFC1C028
:101820008091BB018E7F8B7F8093BB0121FD64C0C3
:1018300050912E01F0903C015F113DC040E04517F2
:10184000C0F4842F90E061E0640FFC01EE5DFE4F78
:10185000DC01A05DBE4F70818C91781741F0409300
:101860002E018091BB018D7F8093BB0104C0462F68
:10187000E6CF40932E0145131EC04091B501509113
:10188000B6016091B7017091B80180911E019091ED
:101890001F01A0912001B0912101481B590B6A0B37
:1018A0007B0B463251056105710528F48091BB011F
:1018B00081608093BB0140E04F1560F4842F90E07D
:1018C000FC01EE5DFE4FDC01A05DBE4F8C9180837C
:1018D0004F5FF2CF40932E018091B5019091B601F8
:1018E000A091B701B091B80180931E0190931F01A0
:1018F000A0932001B09321013435E9F426FD1BC0EB
:1019000080913C018530B8F0809132018B3471F0C8
:10191000893661F09DEA980F923040F08D57823001
:1019200028F0809133018077803729F48091BB01C2
:1019300081608093BB01B801CE01019650DE809199
:10194000BB0182FF2EC0898120D880912F0188237E
:1019500029F080913C01815080933C01F12CE09171
:101960003C01FE1640F4EF2DF0E0E05DFE4F80817B
:10197000B0D8F394F4CF80912F01882349F0F0E0A0
:10198000E05DFE4F80818F7040E361E090E067D8BA
:101990008091BC0185FF04C084E30E94250299D890
:1019A00024D88091BC0182FF72C080E70E94C504E8
:1019B000F801808140E262E090E01BD8F801808964
:1019C00090E040E265E054E0880F991F5A95E1F7F6
:1019D00010D8F801818990E040E265E074E0880F5A
:1019E000991F7A95E1F705D8F801828990E040E2E5
:1019F00065E0E4E0880F991FEA95E1F70E94F90499
:101A0000F801838990E040E265E0F4E0880F991FD7
:101A1000FA95E1F70E94F904F801828140E263E05F
:101A200090E00E94F904F801818140E263E090E0D7
:101A30000E94F904F801238140E262E087E090E02F
:101A4000821B91090E94F90480E20E94C5048091E2
:101A5000BC0185FF07C084E30E9425023AD880E2DA
:101A60000E94C504F8018381873019F081818F5F5E
:101A70008183F12CF8018181F81638F4F801EF0D1B
:101A8000F11D848126D8F394F5CF0E94F504F80166
:101A9000108280913D01815080933D0180913E01F3
:101AA0008F5F823019F080933E0102C010923E0198
:101AB00044982196E6E00C9491171F920F920FB66E
:101AC0000F9211242F933F934F935F936F937F93C4
:101AD0008F939F93AF93BF93EF93FF9310926F00F9
:101AE0008091BC0183FF03C08EE20E94C504409137
:101AF0003F01242F30E0C90164E170E00E943E17ED
:101B0000805C9E4FFC018081833018F0818182309F
:101B100010F4EADB18C080913D01813049F48091D6
:101B2000BC0182FFF6CF85EC91E00E94E804F1CF82
:101B30008F5F80933D014F5F423019F040933F012A
:101B400002C010923F01FF91EF91BF91AF919F9121
:101B50008F917F916F915F914F913F912F910F9056
:101B60000FBE0F901F9018951F920F920FB60F92F5
:101B70001124FF920F931F932F933F934F935F93E3
:101B80006F937F938F939F93AF93BF93CF93DF9385
:101B9000EF93FF930091840010918500F4E0169577
:101BA0000795FA95E1F780913F0190E064E170E0DC
:101BB0000E943E17EC01C05CDE4F8881843039F40E
:101BC0000E3208F4D6C00F3410F08EDBD2C0379935
:101BD0000CC0843039F461E0CE0194DB10928500B2
:101BE0001092840000931D01C4C080911D01081B48
:101BF00000931C011092850010928400888184302B
:101C000021F460E0CE017EDBB4C082E086BBF880C8
:101C100000911D01F1100FC0053608F0AAC0809197
:101C20001C01853608F0A5C0088B898B81E08A836A
:101C300082E088839EC010911C0182E0412F602FBA
:101C4000F81248C0CE01409682DB4A818823F9F021
:101C5000288930E0C901880F991F820F931F800FD8
:101C6000911D9595879595958795888B298930E065
:101C7000C901880F991F820F931F810F911D9595A0
:101C8000879595958795898B4F5F4A8372C04430BD
:101C9000F8F080EA9FE090938900809388008A8121
:101CA0008C3050F02889898990E0820F911D85360B
:101CB000910514F084E001C083E088830A8B1B8BBC
:101CC000198287E08B831C8282E080936F0051C071
:101CD0001882A2CFCE0142963ADB882301F161E05F
:101CE000CE0110DB2A8930E0C901880F991F820FCD
:101CF000931F800F911D95958795959587958A8B54
:101D00002B8930E0C901880F991F820F931F810F23
:101D1000911D95958795959587958B8B2AC0412F19
:101D2000602FCE01409613DB882301F160E0CE01E5
:101D3000E9DA288930E0C901880F991F820F931FC3
:101D4000800F911D9595879595958795888B298905
:101D500030E0C901880F991F820F931F810F911DD9
:101D60009595879595958795898B03C087E0F8129F
:101D70002CCFFF91EF91DF91CF91BF91AF919F91C8
:101D80008F917F916F915F914F913F912F911F9113
:101D90000F91FF900F900FBE0F901F901895CF934B
:101DA000DF93EC983D9A459A8EE190E00E94B7044B
:101DB00045988EE190E00E94B704459A8DE290E04C
:101DC0000E94B70480E30E943E0284E690E00E94F5
:101DD000B704C6EDD1E0FE0131966491FE01849115
:101DE0000E942C022296F2E0C830DF07A1F783E3BD
:101DF0000E943E0284E00E94BC0484E30E943E02F2
:101E000085E30E9425028D30C1F7DF91CF910895BF
:101E1000AEE1B0E0EEE0FFE00C947717809168014E
:101E2000882309F4A1C0379B8AC08FE30E94250252
:101E30008F7789838E3168F08AE30E943E0286E3C1
:101E40000E943E028DE30E943E0284E30E943E0215
:101E50008BC045988FEF0E94D70110E08981181739
:101E600060F480E00E94D701E2E0F0E0EC0FFD1F9B
:101E7000E10FF11D80831F5FF1CF80E00E94D70149
:101E8000082F80E00E94D701459A84E30E943E0219
:101E900085E30E9425028D30C1F72A8196E79227BB
:101EA0009A8392E08981E92FF0E0981768F441E085
:101EB00050E04C0F5D1FE40FF51F308124522327A3
:101EC00020839F5F232FEECF81E090E08C0F9D1F3A
:101ED000E80FF91F90818B81982790838091BC0136
:101EE00084FF12C081E60E94C50410E08981811739
:101EF00030F1E1E0F0E0EC0FFD1FE10FF11D80811A
:101F00000E94C5041F5FF2CF81E40E94C50410E067
:101F10008981811758F0E1E0F0E0EC0FFD1FE10F3F
:101F2000F11D80810E9469051F5FF2CF8091BC0185
:101F300085FF03C0802F0E9469050E94F50485E398
:101F40000E942502813029F0813161F48AE30E94E8
:101F50003E0286E30E943E028DE30E943E0284E33D
:101F60000E943E020E9465036E96E4E0DCC78F92F9
:101F70009F92AF92BF92DF92EF92FF920F931F93C7
:101F8000CF93DF93CDB7DEB7A6970FB6F894DEBF39
:101F90000FBECDBF4DE18E010F5F1F4FB8010196FF
:101FA0000E946D057C0199270197298130E08217F5
:101FB000930709F0A2C080916801811104C0EFDE8F
:101FC00083E00E94BC04DB808A8196E789278A83AC
:101FD00022E03981822F90E0F801E80FF91F2317E2
:101FE00050F4DE01A80FB91F8C918452908189278B
:101FF00080832F5FEECF80818D258083CE018396F5
:102000000E945B0485E30E943E0285E30E94250254
:10201000833181F1CE014F960E945B044F8D58A110
:1020200069A17AA18BA19CA1ADA1BEA1841795073E
:10203000A607B70760F44A015B01881A990AAA0A41
:10204000BB0A2DEB82169104A104B10470F4481769
:1020500059076A077B0770F484549F4FAF4FBF4FF7
:1020600084179507A607B70728F48CEC91E00E9427
:10207000E80427C085E30E942502833119F6D4FEC7
:1020800008C088E70E94BC0488E70E94BC0488E777
:1020900001C08AE00E94BC0445988FE70E94D701E6
:1020A00058018A2D801B8E1530F4F50181915F0156
:1020B0000E94D701F6CF459A85E30E94250283311D
:1020C000D9F385E30E942502863149F48BE30E940F
:1020D0003E0286E30E943E028DE30E943E02809112
:1020E0006801882349F084E30E943E0285E30E9450
:1020F00025028D30C1F701C05AD9A6960FB6F894C3
:10210000DEBF0FBECDBFDF91CF911F910F91FF902A
:10211000EF90DF90BF90AF909F908F900895FC015B
:102120002181223729F43BDE81E080936801089504
:10213000233711F401961BCF109268010895CF93B5
:10214000DF93EC983D9A459A8EE190E00E94B704A7
:1021500045988EE190E00E94B704459A8DE290E0A8
:102160000E94B70480E30E943E0284E690E00E9451
:10217000B704459880E40E94D701C8E0D2E0FE0190
:1021800084910E94D7012196F2E0C531DF07B9F7AB
:10219000809108010E94D701809109010E94D70116
:1021A00080910A010E94D701C0E0D0E0FE01E85E04
:1021B000FD4F84910E94D7012196C931D105B1F715
:1021C000459A45988EE70E94D7018BE290E0EC019A
:1021D00021960E94B5050E94D701C333D10511F0A5
:1021E000CE01F5CF459A83E30E943E0281E00E9432
:1021F000BC0481E08093B301DF91CF910895AF9249
:10220000BF92CF92EF92FF920F931F93CF93DF93E2
:10221000EC018981843769F46FE071E0CE010296A8
:102220000E949A0540E260E080910F0190911001B8
:1022300012C0833709F062C18A81823789F46BE06A
:1022400071E0CE0103960E949A0540E260E0809121
:102250000B0190910C010E94F9040E94F504B0C199
:10226000449A80916B0181110DC08091680188238F
:1022700029F081E080936A011092680160DF83E0B9
:102280000E94BC0486E30E943E028AE30E943E0252
:102290008BE30E943E020E949E02FE0101900020FC
:1022A000E9F70E2F0C1B0250C12C7E01E2E0EE0E6E
:1022B000F11C80910B0190910C012C2D332727FDEF
:1022C00030952817390708F0E4C0013289F4469A9E
:1022D00080910F01909110010E94B704469880915F
:1022E0000D0190910E016AE070E0C8D50E94B7041C
:1022F000570111E010170CF0A6C0F50181915F01A4
:10230000469A803309F03EC00132E1F480910D011C
:1023100090910E010E94B704469880910D01909112
:102320000E010E94B704469A80910D0190910E0112
:102330000E94B704469880910D0190910E0165E0CE
:1023400070E01EC080910F01909110010E94B704AF
:10235000469880910F019091100163E070E08ED556
:102360000E94B704469A80910F01909110010E943B
:10237000B704469880910F019091100163E070E0DE
:102380007DD55DC0813301F5013279F480910D0175
:1023900090910E010E94B704469880910D01909192
:1023A0000E0165E070E06AD51CC080910F0190912C
:1023B000100163E070E062D50E94B70446988091F6
:1023C0000F01909110012AC00132D1F480910D01CA
:1023D00090910E010E94B704469880910D01909152
:1023E0000E010E94B704469A80910D0190910E0152
:1023F0000E94B704469880910D0190910E011FC074
:1024000080910F01909110010E94B704469880912D
:102410000F019091100163E070E030D50E94B70485
:10242000469A80910F019091100163E070E026D5EB
:102430000E94B704469880910F01909110010E946C
:10244000B7041F5F57CF469A013289F480910D017E
:1024500090910E010E94B704469880910D019091D1
:102460000E0168E270E00AD50E94B70410C08091A6
:102470000F01909110010E94B70446981FE18091CE
:102480000F01909110010E94B7041150C1F7C3943D
:1024900010CF80916B01882341F08091BC018111A4
:1024A0000EC086E30E943E020FC080916A0188231D
:1024B00049F010926A0173DC81E0809368010E9408
:1024C000B00202C00E94D709449889E60E94C50460
:1024D00083E70E94C50411E010170CF0BECEFE0188
:1024E000E10FF11D17FDFA958181803319F08133D9
:1024F00009F086E40E94C5041F5FEECF823771F4B5
:1025000080916801882329F081E080936A0110920C
:10251000680115DE81E080936B0152C0863651F56B
:102520008A81803351F480E18093080180EB8093AD
:10253000090181E780930A0107C043E068E071E088
:10254000CE0102960E946D0589E60E94C50486E6CA
:102550000E94C5048AE30E94C504809108010E947C
:102560006905809109010E94690580910A010E9414
:10257000690573CE8837E1F480916A01882339F0C8
:1025800010926A010CDC81E08093680108C082E04F
:1025900090E00E9442028091BC01882319F00E94C1
:1025A000B00203C086E30E943E0210926B0108C095
:1025B000833631F46FE071E0CE0101960E949A05F6
:1025C000DF91CF911F910F91FF90EF90CF90BF902F
:1025D000AF90089585E390E00E94B5058093BD011A
:1025E00086E390E00E94B5058093BE010895A6E0C1
:1025F000B0E0ECEFF2E17DC445E0BE016F5F7F4FDC
:1026000001960E946D058430D8F499819130B1F41F
:10261000833061F46A8185E390E00E94B0056B81AC
:1026200086E390E00E94B005D5DF0AC08091BD012D
:102630000E9469058091BE010E9469050E94F5040F
:102640002696E2E072C40F931F93CF93DF93EC01C1
:1026500010E0212F30E0C90163E070E00FD488570B
:102660009F4FFC010491C90163E070E007D48757D4
:102670009F4FFC0125913491002399F0209739F464
:1026800080E20E94C504802F0E94C50408C0888192
:10269000801305C0CE01F901099581E003C01F5FD9
:1026A000D8CF80E0DF91CF911F910F910895CF9304
:1026B000C09116018093160180910402882309F4C9
:1026C0003DC082E092E00E94DE0620916C013091D4
:1026D0006D018A3011F08D3011F52115310561F34E
:1026E000F901E259FE4F10828EE691E0ACDF8111D4
:1026F00011C089E492E00E94E8048EE691E00E9415
:10270000DD0481E392E00E94E80480E090E09BDF3A
:102710000E94F50410926D0110926C01CDCF20340F
:10272000310550F6A9014F5F5F4F50936D01409303
:102730006C01F901E259FE4F8083BECFC0931601B0
:10274000CF910895E4E6F0E080818B7F8083299A21
:1027500084B1876084B9239880E58CBD8DB5816094
:102760008DBD0895A2E0B0E0E7EBF3E1C2C3EAE477
:10277000F2E08091F100819382E0E235F807C9F739
:1027800020914A0230914B02832F90E08A309105CC
:1027900008F01AC1FC01E65CFF4F95C3203879F0C0
:1027A000223809F011C180914E028093E900809196
:1027B000EB0085FB882780F91092E90006C0809124
:1027C000450290914602911182609091E800977FB6
:1027D0009093E8008093F1001092F1008091E8005E
:1027E000982F9E7F9093E8008F778093E8008091E8
:1027F000E80082FDAFC0809149028111F8CFD5C0B9
:10280000822F8D7F09F0E0C0222319F0223061F081
:1028100033C080914C02813009F0C7C0333009F0D9
:1028200080E08093460228C080914C02811124C030
:1028300020914E02277009F4B8C02093E9008091DE
:10284000EB0080FF19C08091EB00313091F4806182
:102850008093EB0081E090E0022E01C0880F0A9483
:10286000EAF78093EA001092EA008091EB0088601A
:1028700001C080628093EB001092E9008091E80033
:10288000877F8093E8008091E800982F9E7F66C044
:1028900021119AC020914C028091E800877F80939B
:1028A000E8009091E800892F8E7F8093E8009F7761
:1028B0009093E8008091E80080FD05C08091490276
:1028C0008111F8CF72C0822F8F77982F90689093E4
:1028D000E300882309F469C083E08093490265C05E
:1028E0002058223008F070C0AE014F5F5F4F6091FA
:1028F0004E0280914C0290914D020E949D010097E2
:1029000009F453C02091E800277F2093E800BC0120
:1029100089819A8126D11EC0203809F055C0809146
:10292000E800877F8093E800809147028093F10060
:102930008091E800982F9E7F9093E8008F77809396
:10294000E8008091E80082FD05C080914902811174
:10295000F8CF2BC08091E800982F9B7F9093E800E0
:102960008F778093E80021C021112EC090914C02F6
:102970009230D8F48091E800877F8093E8009093AC
:1029800047028091E800982F9E7F9093E8008F7710
:102990008093E80080914702882311F084E001C011
:1029A00083E0809349020E94DB038091E80083FF6B
:1029B0000EC08091EB0080628093EB008091E80074
:1029C000877F8093E80003C00E94F303EECF229636
:1029D000E2E0ABC28093E900EBEEF0E08081816041
:1029E0008083EDEEF0E010826093EC0040838091F4
:1029F000EE00881F8827881F08951092F40080E059
:102A00008093E9001092F0001092E8009091ED00A0
:102A10009D7F9093ED009091EB009E7F9093EB0053
:102A20008F5F853069F7089580914A0287FD05C060
:102A30008091E80080FF0FC013C08091E80082FD04
:102A400005C0809149028111F8CF08958091E80076
:102A5000982F9B7F09C0809149028111E9CF089589
:102A60008091E800982F9E7F9093E8008F77809365
:102A7000E800089585E69091EC0090FF05C09091E4
:102A8000E80090FF05C019C09091E80092FD15C0C4
:102A900090914902992399F09091EB0095FD11C016
:102AA0009091E10092FFE7CF9091E1009B7F90939E
:102AB000E100815001F783E0089580E0089582E00D
:102AC000089581E0089540915002509151029B0178
:102AD0004617570708F49A0140E021153105A9F17E
:102AE0005091E80053FD39C05091E80052FF06C0F4
:102AF0008091E80082FF2CC080E008955091490247
:102B0000552369F15091E80050FFE7CFFC01CF0158
:102B10002115310551F04091F200483030F4819197
:102B20008093F10021503109F2CF5091F20041E041
:102B3000583009F040E05091E800652F6E7F6093B7
:102B4000E8005F775093E800C8CF4111C9CFD0CFDC
:102B5000809149028111CCCF02C081E0089582E0CA
:102B6000089540915002509151029B01461757071A
:102B700008F49A0140E021153105B1F15091E800C7
:102B800053FD3AC05091E80052FF06C08091E80022
:102B900082FF2DC080E0089550914902552371F1C4
:102BA0005091E80050FFE7CFFC01CF01211531051E
:102BB00059F04091F200483038F484918093F1004C
:102BC000215031093196F1CF5091F20041E0583057
:102BD00009F040E05091E800652F6E7F6093E800B7
:102BE0005F775093E800C7CF4111C8CFCFCF809116
:102BF00049028111CBCF02C081E0089582E008959F
:102C00006115710571F12091E80023FD2FC020911D
:102C10004902222379F12091E80022FFF4CFFC0140
:102C20008091F200882371F09F012F5F3F4FC9010F
:102C30004091F1004083615071096115710519F0EF
:102C4000F901EECFCF012091E800322F3B7F309386
:102C5000E8002F772093E800D3CF809149028823A2
:102C600049F08091E80080FFF8CF02C081E008952C
:102C700080E0089582E0089553D055D01092490223
:102C800010924702109246021092450219BC89B573
:102C9000826089BD09B400FEFDCF8091D800982FD5
:102CA0009F779093D80080688093D80080916300CC
:102CB0008E7F809363008091D8008F7D8093D800B1
:102CC0008091E0008E7F8093E0008091E1008E7F14
:102CD0008093E1008091E20081608093E200809126
:102CE000E100877F8093E1008091E200886080931B
:102CF000E2000895C1DF81E080934802789408954E
:102D0000BBDFE0EEF0E0808181608083E8EDF0E001
:102D100080818F77808319BC1092480208950895AE
:102D20001092E20008951092E10008951F920F9210
:102D30000FB60F9211242F933F934F935F936F938E
:102D40007F938F939F93AF93BF93EF93FF93809164
:102D5000E10080FF1CC08091E20080FF18C08091DC
:102D6000E1008E7F8093E1008091E2008E7F80936E
:102D7000E2008091E20080618093E2008091D800BF
:102D800080628093D80019BC10924902C8DF8091FC
:102D9000E10084FF29C08091E20084FF25C019BCB6
:102DA00089B5826089BD09B400FEFDCF8091D8004D
:102DB0008F7D8093D8008091E1008F7E8093E10029
:102DC0008091E2008F7E8093E2008091E20081603A
:102DD0008093E20080914702882311F084E001C0D3
:102DE00081E0809349029BDF8091E10083FF23C053
:102DF0008091E20083FF1FC08091E100877F809374
:102E0000E10082E080934902109247028091E10044
:102E10008E7F8093E1008091E2008E7F8093E200BC
:102E20008091E20080618093E200E7DD42E060E0B3
:102E300080E0D0DD74DFFF91EF91BF91AF919F9162
:102E40008F917F916F915F914F913F912F910F9053
:102E50000FBE0F901F901895CF9380914902882341
:102E600059F0C091E900C7701092E9008091E80024
:102E700083FD78DCC093E900CF91089500245527A5
:102E800004C0080E591F880F991F009729F07695E6
:102E90006795B8F37105B9F7802D952F0895AA1B92
:102EA000BB1B51E107C0AA1FBB1FA617B70710F035
:102EB000A61BB70B881F991F5A95A9F78095909567
:102EC000BC01CD010895EE0FFF1F0590F491E02D98
:102ED00009942F923F924F925F926F927F928F92BE
:102EE0009F92AF92BF92CF92DF92EF92FF920F9399
:102EF0001F93CF93DF93CDB7DEB7CA1BDB0B0FB6A3
:102F0000F894DEBF0FBECDBF09942A88398848885F
:102F10005F846E847D848C849B84AA84B984C884F5
:102F2000DF80EE80FD800C811B81AA81B981CE0FEC
:102F3000D11D0FB6F894DEBF0FBECDBFED010895D1
:102F4000F999FECF92BD81BDF89A992780B5089571
:102F5000262FF999FECF1FBA92BD81BD20BD0FB6B5
:102F6000F894FA9AF99A0FBE01960895F894FFCF53
:102F7000802500000000080210B07106000401A4C2
:022F800001004E
:00000001FF
