:1000000004C400001EC400001CC400000C94CB14E7
:1000100018C4000016C4000014C4000012C400007C
:1000200010C400000EC400000C946B2E0AC4000023
:1000300008C4000006C4000004C4000002C400009C
:1000400000C400000C946814FCC30000FAC3000054
:10005000F8C3000024C70000F4C30000F2C300008E
:10006000F0C30000EEC30000ECC30000EAC30000D0
:10007000E8C30000E6C30000E4C30000E2C30000E0
:10008000E0C30000DEC30000DCC30000DAC30000F0
:10009000D8C30000D6C30000D4C30000D2C3000000
:1000A000D0C30000CEC30000CCC30000792BAB2B23
:1000B0008F2CAB2B8F2CF32B1B2C8F2C372C5F2CE6
:1000C00041E51942C60A626D3143D20565F00A4620
:1000D000DE0C47E10C68490E69AC1D4B8F0D6BB10E
:1000E000224C31086CB50A4D1F0D6D2A2B4E171D81
:1000F00052370A54C72674AF0755160E7516175691
:10010000300B57770A58CB0F78990559DC1F5A2ABC
:100110001C0000002A03430055004C00340033004B
:10012000330000002A03430055004C00380036001D
:10013000380000001603620075007300770061004C
:10014000720065002E0064006500000004030904CD
:10015000090243000201008032090400000102028A
:1001600001000524000110052401030104240206F6
:100170000524060001070582030800FF09040100A9
:10018000020A000000070504024000000705830280
:100190004000001201100102000008EB034B200098
:1001A0000001020001202F2000203D2000072E0525
:1001B0000DD391FF080500000C0021656A2D3B134B
:1001C00022F862073F181D1CC700B0876BF8B611F4
:1001D000EA2A001F41000D2E2D07D3913D04320065
:1001E00000060021656A55E43023B90007001814A1
:1001F0006C070090876BF85611E92A001F41000038
:10020000030F1E2627000000030F1E253638670047
:10021000030F256740605000030F2751888381003A
:10022000030F2750C8C3C2002700000000000000D1
:100230006700000000000000500000000000000007
:100240008100000000000000C2000000000000501B
:100250004C4C310D0A00504C4C300D0A00562031E8
:100260002E36375F6E6F6372656469747320435511
:100270004C383638005620312E36375F6E6F637239
:1002800065646974732043554C3433330043554CD3
:100290005F563300202F2000203D2000424F56465D
:1002A0000D0A004552523A4343410D0A000B081013
:1002B0005B11F81547191D1A1C1BC71C001DB22124
:1002C000B623EA0007022E030D04E905CA070C0B4A
:1002D000060D210E650F6A10C8119312031534170D
:1002E00033181819161B4321562500261129592C9D
:1002F000812D353EC34C454E4552520D0A004C45AA
:100300004E4552520D0A000007024604C605260B50
:100310000610C81193120313221534173F18281919
:10032000161B432156250026110D210E650F6A0765
:100330000C160720F81E871F6B29592C812D353E7E
:10034000C3FF00737065636966792076616C6964C8
:10035000206D6F6465206E756D6265720D0A000315
:1003600002FF00000000000000000000000000008C
:10037000000000030210881182FF0000000000004E
:100380000000000000000003071088110B0D210E73
:100390006B0FD01553FF00000000000B060D210E5F
:1003A000650F6A1700181819161B431C68250026CC
:1003B000110001024605D4042D03020700080210B3
:1003C00089115C12061556FF000D2E2D07D3913DA5
:1003D00004320000060010B07155E43023B9000764
:1003E0000018146C070090876BF85611E92A001F5B
:1003F00041000D2E2D07D3913D0432000006001060
:10040000ABA5550A3023B900070018146C070090FB
:10041000876BF85611E92A001F41000D0A0020439E
:100420006865636B73756D204572726F722C204323
:10043000616C63756C6174656420436B733A200072
:100440006B72000D0A002020526563656976656451
:1004500020446174613A2000427974657320696EAA
:10046000204669666F3A20004B6F707020436F6DB5
:100470006D616E6420556E6B6E6F776E0D0A004B6A
:100480006F707020526563656976652053756243AD
:100490006F6D6D616E6420556E6B6E6F776E0D0AB9
:1004A0000052585F494E49545F4552525F4D415288
:1004B0004353544154455F5258006B72532D52655B
:1004C000636569766553746172740D0A006B7245D9
:1004D0002D52656365697665456E640D0A0020429C
:1004E00079746573206F72204B6579636F64652042
:1004F0006973206E6F206865782076616C75650D74
:100500000A004B6F7070205472616E736D69747461
:1005100020436F6D6D616E64206E6F742065717520
:10052000616C20746F2000426C6F636B330D0A00A6
:10053000426C6F636B320D0A005B6865785D0D0A73
:10054000007469636B732D426C6F636B53746172DB
:100550007454696D653A20005B6865785D0D0A002A
:100560004B65794F666654696D653A2020202020DE
:10057000202020202020005B6865785D0D0A004265
:100580006C6F636B2053746172742054696D653AAB
:100590002020202020005B6865785D0D0A005469EA
:1005A000636B2054696D65723A2020202020202042
:1005B00020202020005B6865785D0D0A004B65797E
:1005C0004F666654696D6520696E207469636B734C
:1005D0003A2020006D7365630D0A004B65794F6604
:1005E0006654696D653A202020202020202020209C
:1005F00020000D0A005469636B2054696D65723ADE
:100600002020202020202020202020000D0A000D66
:100610000A416D6F756E74206F6620427974657340
:1006200020284865782920666F756E6420696E738E
:1006300069646520636F6D6D616E64206C696E65C1
:1006400020706172616D657465723A2020202020EF
:10065000202020202020000D0A4E65787420436859
:10066000617261637465722028696E742920616605
:1006700074657220706172616D6574657220287393
:10068000686F756C64206265206C696E6520656EAC
:100690006420636861726163746572293A20000D99
:1006A0000A537472696E676C656E6774683A2020CD
:1006B00020202000636F6D6D616E646C696E6570E3
:1006C0006172616D657465723A20005472616E7377
:1006D0006D6974740D0A0054585F494E49545F4562
:1006E00052525F00012E4604AA540FE0000000069B
:1006F0000021656A97831663B947070C29366C0792
:100700004091876BF85611E92A001F41004E2F4196
:1007100000454F420D0A004E2F41004E2F41000070
:10072000535300547D7DFFFF4B4B7E7E0020697349
:1007300020756E6B6E6F776E2920557365206F6E16
:1007400065206F66003F2028004F4646004F464612
:1007500000544D4F444500534D4F4445006E6F7457
:1007600020636F6D70696C656420696E0D0A00040A
:1007700054053D1700000602000B080C000D210E69
:100780006B0FD0105C11041206132214F80A001526
:100790004421B622101818192E1ABF1B431C091D1C
:1007A000B523EA242A2500261F29592C812D352E10
:1007B0000907040800090006FF3EC2FF04760596FB
:1007C0001700000602000B080C000D210E650F6AD1
:1007D000106A114A1206132214F80A00154721B6AE
:1007E00022101818192E1A6D1B041C091DB223EAB9
:1007F000242A2500261F29592C812D352E0907046E
:100800000800090006FF3EC2FF0011241FBECFEF03
:10081000DAE0DEBFCDBF11E0A0E0B1E0E8E7FDE641
:1008200002C005900D92A03CB107D9F729E0A0ECD9
:10083000B1E001C01D92A035B207E1F70CD00C94D5
:10084000BA36DECBF89481E085BF82E085BFE0E078
:10085000F8E3099508952FE088E190E00FB6F89449
:10086000A895809360000FBE2093600090E080E820
:100870000FB6F89480936100909361000FBE2E9A9A
:100880002D9A04B603FE0AC083E390E0D7D58823EF
:1008900029F060E083E390E0CCD5D4DF89EF87BD19
:1008A00084E085BD82E084BD80936E00109280005C
:1008B0008AE08093810084B7877F84BF6E9A0E940C
:1008C000F82ABBD60E94402E0E9467260E94AB0FDA
:1008D0008DEA9AE29093DA038093D9030E946E1610
:1008E00089E08093C40176980E941B2F13D20E9446
:1008F000CC114BD30E9468170E945C180E94B21B57
:100900000E94D81C0E94FF240E945730EDCF292F4F
:1009100033272230310559F02330310569F0213079
:10092000310539F582E190E023E931E026C083E426
:1009300090E020E531E021C099278130910539F020
:1009400018F0029751F015C0ECE4F1E002C0E4E3C6
:10095000F1E0849190E09F0110C01E9903C024E152
:1009600031E002C024E231E0E4E2F1E0849190E081
:1009700004C080E090E020E030E0FA013183208381
:1009800008958EBD0DB407FEFDCF8EB50895A1E08C
:10099000B0E0EDECF4E00C949E33482F8A3008F080
:1009A00048E088E0489F70011124F701E150FE4FB4
:1009B0007F018BE290E0F70164918C010F5F1F4F84
:1009C000498337D5FFEFEF1AFF0A49810333110539
:1009D00011F0C801F0CF4550453010F461E101C07D
:1009E00067E184E290E025D52196E6E00C94BA33E5
:1009F000CF93DF9382E090E0FC01EC52FE4F6491D4
:100A0000EC01219616D5CB32D10511F0CE01F4CFF1
:100A100087E390E0FC01EA58FE4F6491EC012196D7
:100A200008D5C036D10511F0CE01F4CF1E9918C0FB
:100A300060E18FE090E0FDD460EB80E190E0F9D4DC
:100A400061E781E190E0F5D460E184E490E0F1D4E5
:100A500060EB85E490E0EDD461E786E490E0E9D4D2
:100A600088E095DFDF91CF9108952898806C89DF29
:100A700080E087DF289A0895A1E0B0E0E2E4F5E0A5
:100A80000C94A2332898806469837BDF6981862F68
:100A900078DF289A2196E2E00C94BE33289871DF23
:100AA000289A0895EF92FF920F931F93CF93DF93AD
:100AB000EC0110927002EA98209A289A8EE190E058
:100AC0002FD328988EE190E02BD3289A8DE290E0E6
:100AD00027D380E3E3DF84E690E022D3289880E404
:100AE00050DF7E0189E2E80EF11C8E010F5F1F4F7F
:100AF000CE01A4D446DF0E151F0511F0E801F5CF95
:100B0000289A28988EE73DDF8BE290E0EC01219651
:100B100095D437DFC333D10511F0CE01F7CF289A32
:100B200083E3BCDF81E001D3CDB7DEB7E6E00C9410
:100B3000BA33A1E0B0E0EFE9F5E00C94A23322E093
:100B4000298341E0BE016F5F7F4F019617D48981F1
:100B50001EDF82E090E0A6DF2196E2E00C94BE3337
:100B6000CF93EA9886E39ADFCFEF85E397DFC15012
:100B70008077803229F08AE090E0D2D2C111F5CF9F
:100B8000CF910895CF93CFEF84E388DFC150807772
:100B9000803129F08AE090E0C3D2C111F5CFEA9A02
:100BA000CF910895A2E0B0E0E8EDF5E00C94A03319
:100BB0008C01FC0181818737E9F441E0BE016F5F60
:100BC0007F4FC8010296DAD3892BA1F041E0BE0124
:100BD0006E5F7F4FC8010496D1D3892B59F06A818B
:100BE00089814ADF83E35ADFCDDF8981C3D38A81DC
:100BF000C1D32CC041E0BE016E5F7F4FC80101969A
:100C0000BDD3892B21F18A81893969F410E0812FC4
:100C10002CDFB0D3812F8770873009F437D31F5F63
:100C20001033A9F714C021DF182F83E4E3D28A819F
:100C3000A1D389EA91E01DD3812F9CD385EA91E06D
:100C400018D340E262E0812F90E024D31FD3229694
:100C5000E4E00C94BC3386E321DF1092DB031092B6
:100C60006E0210927002089582E090E01BDF81E036
:100C70008093DB0310926E021092700208950F931E
:100C80001F93CF93DF93082F10E0C62FD0E085E3AA
:100C9000ECDE801731F0CE0143D21150C1F781E074
:100CA00001C080E0DF91CF911F910F91089585E2FF
:100CB000DCDE8F3311F080E0089586E3EFDE809173
:100CC000C001811104C086E592E0D3D202C08DE359
:100CD000E5DE83E3E3DE64E081E0D1DF85E2C5DECB
:100CE0008F3349F78091C001811103C08FE492E0F6
:100CF000C0D281E0089585E3B8DE8D3051F485E2FD
:100D0000B4DE8F3331F4D3DF84E3C8DE8077803103
:100D1000D9F708958091C405843009F069C08093A3
:100D2000E9008091C10181112AC08091E80085FF0E
:100D300026C08091F2009091F300892B31F06091F0
:100D4000F1008DE395E0A1D4F4CF8091E800982FD5
:100D50009B7F9093E8008F778093E80081E08093F9
:100D6000C1018AE896E09093D8038093D703E0917D
:100D7000D903F091DA0381E009951092C10183E073
:100D80008093E9008091BC04882391F18091E80070
:100D900085FF2EC0F8948091BC04882369F080916F
:100DA000F2009091F3008034910530F48AEB94E0E6
:100DB00082D48093F100EFCF78948091F2009091EB
:100DC000F3002091E800322F3E7F3093E8002F7728
:100DD0002093E8008034910559F40E94E52C80911D
:100DE000E800982F9E7F9093E8008F778093E8002B
:100DF000089542E061EC82E00E94952C42E361E8B4
:100E000083E00E94952C42E360E884E00E94952CE8
:100E10001092000110920101109202011092030140
:100E200008958091C5059091C605913229F09232BE
:100E300061F1903299F512C0813A81F58091E80014
:100E4000877F8093E80067E070E080E091E00E9497
:100E50000E2D8091E800982F9B7F11C08132F1F414
:100E60008091E800877F8093E80067E070E080E091
:100E700091E00E94B82D8091E800982F9E7F90937A
:100E8000E8008F778093E8000895813239F48091EB
:100E9000E800877F8093E8000C94BF2C08951F9290
:100EA0000F920FB60F9211248F939F93AF93BF931E
:100EB000EF93FF938091DD039091DE03A091DF0318
:100EC000B091E0030196A11DB11D8093DD039093C5
:100ED000DE03A093DF03B093E0038091DC038F5F18
:100EE0008093DC03ECE7F4E0808191811816190609
:100EF0001CF4019791838083369684E0E439F807E7
:100F000099F78091960490919704009729F00197A2
:100F100090939704809396048091A9048F3F19F0D1
:100F200081508093A904FF91EF91BF91AF919F9160
:100F30008F910F900FBE0F901F9018952FB7F894B8
:100F40004091DD035091DE036091DF037091E00377
:100F5000FC0140835183628373832FBF0895A4E013
:100F6000B0E0E5EBF7E00C94A233CE010196E6DFAA
:100F70008C8100D28B81FED18A81FCD18981FAD10A
:100F800085D12496E2E00C94BE331F93CF93DF9378
:100F90008091DD039091DE03A091DF03B091E00327
:100FA0002091C301281709F458C08091DD03909166
:100FB000DE03A091DF03B091E0038093C301A89505
:100FC000CCE7D4E010E028813981232B19F4812F5C
:100FD0000E94E9281F5F26961430A9F78091960495
:100FE00090919704892B11F40E9445298091A904BE
:100FF000811102C00E94A32980916A04882339F0DC
:10100000815080936A04811102C00E94FC17809174
:10101000DC038D3710F11092DC038091070181FF12
:1010200004C08EB190E489278EB984E893E0909350
:10103000E2038093E1038091C2018F5F8093C2013C
:101040008C3359F41092C20180917B048F5F80939E
:101050007B048C3310F010927B04DF91CF911F91B1
:101060000895A0E0B0E0E7E3F8E00C949D338C0134
:101070006EE070E00E944C368D3009F04CC0769ADC
:1010800080917002882341F0109270028AEB91E007
:1010900082D7DD24D39401C0D12C8091DB03811150
:1010A00001C0E2DD5DDD84E0F82E5B9A88EE93E01E
:1010B00037D0C1E0D0E0EE24E394F801EC0FFD1F3F
:1010C0008081813309F0E12C5B98EE2019F088EEE5
:1010D00093E002C080ED97E023D05B9AEE2019F0F8
:1010E00080ED97E002C088EE93E01AD02196CD30D3
:1010F000D10509F75B9883E218D0FA94B1F6809194
:10110000E403882311F03EDD02C086E3C7DCD11082
:101110000E94FD197698CDB7DEB7E7E00C94B9339D
:10112000880F991F0197F1F7089520ED37E081505E
:1011300020F0F9013197F1F7FACF0895CF93DF93BB
:10114000DC0113968C911397843509F050C0CD01C2
:101150000396CC91FD0170964DE04C1750F050E095
:10116000D0E09E012F5031094217530709F03FC0CC
:1011700005C021912B3399F34F5FEFCFFE013E97CE
:10118000E80FF91F2081243591F514963C911497AE
:10119000218132132CC015963C9115972281321370
:1011A00026C016963C9116972381321320C01796BD
:1011B0003C911797248132131AC06197C80FD91F29
:1011C000858188838681898381858A8382858B83D3
:1011D00083858C8384858D8385858E838C918A50CD
:1011E0008C9312968C9112978A5012968C93DF9161
:1011F000CF910895CF93C82F8091C405843079F49E
:101200008091C40180FF0BC08091BC0487FD82DD0A
:101210006C2F8AEB94E039D2CA3009F47BDD8091DF
:1012200073048823C9F08091C40183FF15C0CA30BC
:1012300099F0CD3011F46BE301C06C2F87EE93E091
:1012400024D2CD3019F487EE93E078DF83E08093E9
:101250006A0482E080937204CF910895CF93DF9364
:10126000EC018991882311F0C5DFFBCFDF91CF918D
:101270000895CF93DF93EC01FE018491882319F048
:10128000B9DF2196F9CFDF91CF9108958DE0B2DFDC
:101290008AE0B0CFA6E0B0E0E0E5F9E00C94A0333E
:1012A000062F1E8215E02AE030E01150E1E0F0E068
:1012B000EC0FFD1FE10FF11DB9010E947833805D35
:1012C0008083CB010150009769F01111EECF0AC065
:1012D000112359F01150E1E0F0E0EC0FFD1FE10F98
:1012E000F11D4083015007FFF3CF81E090E08C0FA8
:1012F0009D1F810F911DB2DF2696E4E00C94BC3354
:10130000A5E0B0E0E6E8F9E00C94A2331D8224E009
:10131000382F3F702150E22FF0E03A3010F4305D6A
:1013200001C0395CA1E0B0E0AC0FBD1FEA0FFB1FAC
:10133000308334E0969587953A95E1F761500097B0
:1013400039F7615067FD0BC0222349F02150E1E0DD
:10135000F0E0EC0FFD1FE20FF11D4083F2CF81E0C2
:1013600090E08C0F9D1F820F911D78DF2596E2E0A3
:101370000C94BE3340E362E090E0C2CFDC01FB019D
:1013800030E090E08D918823A9F0813608F08052FA
:1013900020ED280F2A3030F02FEB280F263030F4C4
:1013A00029EC280F292B332379F006C0803251F322
:1013B0008A3341F3CF0105C0CF010196208341500C
:1013C00041F4861B970B0895922F9295907F31E000
:1013D000D9CFFC01D5CF20E030E05AE0FC014191AB
:1013E000CF01442379F0E0EDE40FEA30B8F7F901DA
:1013F0005E9F90015F9F300D112420533109240F0F
:10140000311DECCFFB01318320830895982F9295F5
:101410009F709A3010F4905D01C0995CFB0190833D
:101420008F708A3010F4805D01C0895CFB0181837C
:1014300008950E945F36F999FECF08950C945736AF
:1014400008951F93CF93DF93162F11501F3F59F02C
:10145000EC012196F3DF8EDF112311F08AE3CADE5F
:101460001150CE01F3CFDF91CF911F910895A2E0EB
:10147000B0E0EDE3FAE00C949F33FC0121812D34C0
:1014800021F466E08AEF93E005C0203529F460E19D
:101490008AED93E0D6DF26C01A82198242E0BE01AF
:1014A0006F5F7F4F01966ADF098110E0823021F47F
:1014B000102F00278A81082BC801C0DFF82E82E593
:1014C00099DE40E364E0C8011BDF88E992E0D1DEE9
:1014D0008F2D50DF84E992E0CCDE40E262E08F2D78
:1014E00090E0D8DED3DE2296E5E00C94BB33A6E094
:1014F000B0E0EDE7FAE00C949C336C0143E0BE01F0
:101500006F5F7F4F01963ADF823058F1E980F12C0E
:10151000823021F0FE2CEE242A81E22A8C01112750
:10152000FE01E00FF11F6081C70183DF000F111F73
:101530000F5F1F4F0C0D1D1DF8018081882389F05E
:1015400041E0BE016F5F7F4FC80118DF892B49F072
:101550008FEFE81AF80A6981C7016BDF0E5F1F4F32
:10156000EBCF2696E8E00C94B83341E067E071E0F9
:10157000019604DF8091070180FF02C0769A01C0C6
:1015800076986091070184E390E053CFA1E0B0E04A
:10159000ECECFAE00C94A2331982009731F041E0B0
:1015A000BE016F5F7F4F0196E9DE89818F3F09F4AD
:1015B000FFCF882321F061E083E390E03ADF0E94CF
:1015C0004B2E10926E00F89428E088E190E00FB660
:1015D000F894A895809360000FBE20936000FFCF21
:1015E000CF93DF93EC0161E080E090E022DF63E4E1
:1015F00081E090E01EDFFCD960E080E690E019DF3A
:1016000060E081E690E015DF60E083E390E011DFC9
:1016100062E084E390E00DDF60E080E690E009DFC7
:1016200060E081E690E005DF8981883719F080E08D
:1016300090E0ACDFDF91CF91089580E090E0FEDE96
:10164000813029F481E090E0F9DE833419F080E004
:1016500090E0C6DF84E390E0F1DE80930701089517
:10166000FC018181883419F48DE892E007C01E994D
:1016700003C085E792E002C08DE592E0FADD06CE78
:10168000FC011282108211820895FC018FB7F89438
:10169000928197FD0EC09F5F9283208191E0920F0F
:1016A0009083DF01A20FB11D13966C93903809F45B
:1016B00010828FBF0895FC019FB7F8948281882320
:1016C00071F081508283818121E0280F2183DF0125
:1016D000A80FB11D13968C91203809F411829FBF79
:1016E0000895FA013081882369F0E1E0F0E0022EEC
:1016F00001C0EE0F0A94EAF7DB01A30FB11D9C9124
:101700009E2B9C93222319F08FEF820F0BC081E058
:10171000830F8C3010F4FA018083FB01E80FF11D78
:10172000108287E090E00895CF93C82F5B9A8823BA
:1017300019F08091C70102C08091C90120E1829F08
:10174000C0011124EDDC5B98CC2319F08091C60117
:1017500002C08091C80120E1829FC0011124E0DC19
:10176000CF910895A9E0B0E0E8EBFBE00C94923350
:101770004C01D62E642E422E1E2D769A8091700238
:10178000882341F0109270028AEB91E004D4BB24CC
:10179000B39401C0B12C8091DB03811101C064DAE4
:1017A000DFD980E1C89E900111243A83298380E12A
:1017B000A89E900111243C832B832D2D30E03E8385
:1017C0002D83712CEE24E394F12C512CC11002C016
:1017D000AA2041F05B9A89819A81A2DC5B988B8177
:1017E0009C819EDC312C832D992787FD90952D813E
:1017F0003E818217930724F480E096DF3394F3CF81
:10180000DD2011F081E090DF90E0292E332427FCC9
:1018100030942614370424F097E0280C391C1CC09F
:1018200047E050E0280C391C9701042E01C0220F1C
:101830000A94EAF7F101808182234F8358879987C0
:1018400073DF4F8158854150510999854F3FFFEF14
:101850005F0751F79F5FD9CF292F332727FD309599
:101860004216530674F49701092E01C0220F0A9400
:10187000EAF7F10180818223998756DF998591509B
:10188000EBCF812F52DC015009F0A0CF8091E4030F
:10189000882311F077D902C086E300D9B1100E94E5
:1018A000FD1976982996E2E10C94AE33ADE0B0E0F4
:1018B000ECE5FCE00C9495337C01162F842F022F6D
:1018C0006701C60ED11C462FB7017AD3D6018C937F
:1018D0001F5F1D8619825E2C670127E066246394D2
:1018E000712C8C2D8519811788F537E0A32EB12C2A
:1018F0004701880E911CF3010A2C01C0EE0F0A94D7
:10190000EAF7D4018C91AE01435F5F4FBE016F5F78
:101910007F4F8E23E6DE282FB1E0AB1AB10858F7CF
:10192000D6018D916D01082E82958025082E869511
:10193000869580258F5F86958170AE01435F5F4FEE
:10194000BE016F5F7F4FCDDE282FCBCF222311F05A
:10195000215004C08D858F5F8D8727E089E18093BA
:10196000C8018093C90185E28093C6018093C701B5
:10197000A12CC12C9AE0E92E4D856CE0CE01019698
:10198000F1DE2D96EFE00C94B133ADE0B0E0EBEC7E
:10199000FCE00C94A133162F242F4BE0BE016F5FA7
:1019A0007F4F01962D87EADC2D85412F682FCE01D0
:1019B00001967CDF2D96E3E00C94BD3343E066E0B6
:1019C000E4CFAF92CF92EF920F93CF93DF93CDB747
:1019D000DEB760970FB6F894DEBF0FBECDBF40E113
:1019E000BE016F5F7F4F0196C9DC69814A810B811F
:1019F0008C818093C9018D818093C8018E818093F1
:101A0000C7018F818093C601E02EE2945FE0E5225A
:101A10000F70242F2F7042954F70A12CC12CCE0136
:101A20000896A0DE60960FB6F894DEBF0FBECDBF5D
:101A3000DF91CF910F91EF90CF90AF900895A9E1F2
:101A4000B0E0E5E2FDE00C949A334BE0BE016F5F3D
:101A50007F4F019693DC182F893009F05CC099E123
:101A60009093C8019093C9019093C70182E380933A
:101A7000C60169E0CE010196ADD2E1E0F0E0EC0FE5
:101A8000FD1FE10FF11D8083198E1D86CE01019689
:101A90007C016E019BE0C90ED11C27E0AA24A3940F
:101AA000B12CEC14FD0429F100E010E0F501002E4A
:101AB00001C0EE0F0A94EAF7D7018C91AE01475EA0
:101AC0005F4FBE01635F7F4F8E230BDE282F0F5FBA
:101AD0001F4F0830110551F7AE01475E5F4FBE0141
:101AE000635F7F4F81E0FDDD282FBFEFEB1AFB0A1C
:101AF000D8CF222311F0215004C0898D8F5F898FA8
:101B000027E0A12CC12C6AE0E62E03E0498D6CE0B1
:101B1000CE010D9627DE6996EAE00C94B633A9E172
:101B2000B0E0E5E9FDE00C9499334BE09E012F5FB6
:101B30003F4F7901B901019621DC182F85E380938D
:101B4000C90196E19093C8019093C7018093C601A3
:101B5000612FC7014BD2F701E10FF11D808399245A
:101B60009394910E198E1D86870127E0AA24A394D1
:101B7000B12C802F8E19891508F04AC0C12CD12CA8
:101B8000F5010C2C01C0EE0F0A94EAF7D8018C91F4
:101B9000AE01475E5F4FBE01635F7F4F8E23A1DDC5
:101BA000282FBFEFCB1ADB0A34E0C316D10441F76C
:101BB000AE01475E5F4FBE01635F7F4F81E091DD05
:101BC000282FF4E0CF2ED12CF5010C2C01C0EE0F04
:101BD0000A94EAF7D8018C91AE01475E5F4FBE01CF
:101BE000635F7F4F8E237DDD282FBFEFCB1ADB0A8B
:101BF00038E0C316D10441F7AE01475E5F4FBE0126
:101C0000635F7F4F81E06DDD282F0F5F1F4FB1CFE6
:101C1000A12CC12CEAE0EE2E03E0498D6AE0CE0152
:101C20000D96A0DD6996EBE00C94B533AF92CF92A0
:101C3000EF920F93CF93DF9300D000D0CDB7DEB7F4
:101C400043E0BE016F5F7F4F019698DB8AE6809389
:101C5000C90194E29093C80191E29093C7018093E7
:101C6000C60180E88C83A12CC12CBFE0EB2E03E0E1
:101C700026E043E060E0CE01019674DD0F900F9006
:101C80000F900F90DF91CF910F91EF90CF90AF9089
:101C90000895AF92CF92EF920F93CF93DF93CDB78A
:101CA000DEB72C970FB6F894DEBF0FBECDBF4BE06A
:101CB000BE016F5F7F4F029661DB8530C1F48EE31A
:101CC0008093C9018CE18093C80181E28093C701B0
:101CD0008AE38093C60105E2A02E8AEFC82EE12C8C
:101CE00005E024E044E068E0CE0101963BDD2C965F
:101CF0000FB6F894DEBF0FBECDBFDF91CF910F912D
:101D0000EF90CF90AF9008958F929F92AF92BF9235
:101D1000DF92EF92FF920F931F93CF93DF93109276
:101D2000E5011092FA01FC012181220F220F220FFE
:101D30003381231B57E0520F1092E60110E070E050
:101D400038E0D32ED20EFF24F39447E007E0E12CD5
:101D5000C7E0D0E0A1E0B0E0FD1409F47FC0FC01D1
:101D6000EE0DF11D248130E0002E02C0359527953F
:101D70000A94E2F721703327E22F002311F001507B
:101D800002C0E39407E06B3471F4433009F04AC0B9
:101D9000111107C0E1115FC01092E5017093FA01C3
:101DA00074C010E041C04F3F31F56634A9F4E72F0D
:101DB000F0E0EA51FE4FE0810E2EE295E0250E2E76
:101DC000E695E695E025EF5FE1FB882480F8912C0D
:101DD0008216930641F004C0653429F4E11103C072
:101DE0001093E501DBCF7F5FE72FF0E0EA51FE4F74
:101DF000108247E031C0EE2361F1663471F4E72FC1
:101E0000F0E0EA51FE4FA0809D01042E01C0220F98
:101E10000A94EAF7A22AA0821CC0653439F06B3418
:101E2000C1F404C04F3FD1F2EE2399F0E72FF0E068
:101E3000EA51FE4F9E01241B310947FD33955D0198
:101E400002C0AA0CBB1C2A95E2F795013081322B07
:101E50003083415001C011E0F3947ECF1093E5012F
:101E60007093FA015F1588F4653431F44F3F21F423
:101E70007F5F7093FA0104C08091E5018111F8CF72
:101E800081E09091FA01911101C080E0DF91CF9142
:101E90001F910F91FF90EF90DF90BF90AF909F90B8
:101EA0008F90089510926F00E091FD018CE1E89F02
:101EB000F0011124E250FE4F10828091E3038D7FE8
:101EC0008093E3030895FC012181243108F0EACFD7
:101ED0003381662381F081E090E0032E01C0880FFA
:101EE0000A94EAF7DF01A20FB11D14969C91149792
:101EF000982B14969C93332319F031503383089513
:101F000087E083832F5F2183E20FF11D1482089500
:101F1000DC011196EC911197F0E050E02C91CF018B
:101F2000841B950B0B964797A0F430E070E0C90135
:101F3000861B970B0B96479760F42E0F3F1F640F7D
:101F4000751F261B370B255F3F4F81E02731310579
:101F500008F080E00895539A5B985298E9E6F0E023
:101F600080818061808310921A0210923602109252
:101F700052021092DB0308958091D50381110AC0AB
:101F80008091E403882321F00E9434060C94C2055A
:101F90000C942B060895FC01218121110BC0809126
:101FA000E403E8D940E265E08091E1039091E20327
:101FB00071D96CC941E064EE73E00196DFD9DCCFE2
:101FC000442339F04150FB01E40FF11D9081890F4A
:101FD000F7CF089520E0662339F06150FC01E60F49
:101FE000F11D30812327F7CF822F0895A091E501BD
:101FF00040E035E020E0662399F06150FC01E60FF7
:10200000F11D5081752F72957F702727370FAA23F6
:1020100011F0442319F05F702527350F4F5FEBCF88
:10202000320F40E1349FC0011124822B0895FC013E
:1020300032812381A081B181A30FB11D8C9190E0E9
:10204000022E02C0959587950A94E2F78170992730
:102050004FEF420F4383211104C03F5F328327E0DB
:1020600023830895A2E0B0E0E8E3F0E10C949A3312
:102070007C01A12CB12CD12CCC24C394062F10E0D0
:1020800001501109A616F0F4C7014A836983CFDF16
:102090004A816981882391F0442349F098012A19E3
:1020A0003B098C2D01C0880F2A95EAF706C08C2DBC
:1020B0000A2C01C0880F0A94EAF7D82A8FEFA81AD1
:1020C000B80AE0CF8D2D2296EAE00C94B633A4E056
:1020D000B0E0EDE6F0E10C9499331B8227E02C830D
:1020E0009C012C5F3F4F3A8329831092FA01FC0137
:1020F0002181338187E090E0831B9109F8E02F9FD5
:10210000800D911D1124853491050CF44EC0B12C25
:10211000A090FA01F5E0FA1558F10A2D10E040E020
:1021200068E0CE0101969EDF0A511E4FF8018083C0
:10213000982E092C92949024092C9694969490248D
:10214000CE01019674DF939491FACC24C0F8D12C7F
:1021500090E0C816D90649F5CE01019668DF8111D5
:1021600024C0F8018081B826A394A092FA01D0CFB0
:1021700040E068E0CE01019675DF082F182F012E90
:1021800012951025012E169516951025CE01019653
:102190004EDF1F5F11FBEE24E0F8F12C282F30E01A
:1021A000E216F30611F481E0B01280E02496EBE031
:1021B0000C94B533A5E0B0E0E0EEF0E10C949D3373
:1021C000FC011B8287E08C83CF0104969A8389836C
:1021D0008081853009F051C02181338187E090E012
:1021E000831B910938E0239F800D911D11248039B4
:1021F000910509F042C01092FA010FE010EF29E8B2
:102200008091FA01E82EF12CDD24D394D80E41E020
:1022100068E08F3088F4CE0101962D8323DF080F0C
:10222000111DF701EA51FE4F2D812827208324E25A
:10223000280FD092FA01E4CFCE01019613DF080FE8
:10224000111DD092FA01F701EA51FE4F809580836B
:1022500041E068E0CE01019605DF90E0982F8827E5
:10226000081B190B41E068E0CE010196FBDE282F28
:1022700030E081E00217130709F080E02596E7E0DF
:102280000C94B933A4E0B0E0E8E4F1E10C949F339E
:102290001B8227E02C839C012C5F3F4F3A832983CC
:1022A000FC0121812430A1F58381813089F51092D0
:1022B000FA018091FA01082F10E0FF24F394F80E40
:1022C00041E0843098F4811106C067E0CE010196A8
:1022D000C9DE806804C068E0CE010196C3DEF80163
:1022E000EA51FE4F8083F092FA01E3CF67E0CE011E
:1022F0000196B8DEF801EA51FE4F880F8083F09214
:10230000FA019091E60192959F7081E09A3009F070
:1023100080E02496E5E00C94BB33CF93DF93FC017F
:1023200081818330E9F483818730D1F480818830E2
:10233000B9F41092FA0120E0822F90E0DC01AA515A
:10234000BE4FEF01C80FD91F8C818C9381E0820FA3
:10235000833010F4282FF0CF8093FA0181E001C080
:1023600080E0DF91CF910895FC0190818091E3039B
:10237000993611F0933751F4982F9370913011F4EE
:10238000826006C080FF07C08B7F03C080FD03C052
:1023900084608093E3030895A1E0B0E0E2EDF1E111
:1023A0000C949E3319828091CA018823B9F18091DF
:1023B000E40387FF17C084E30E943505805880340A
:1023C00058F0803C58F490E08055910953E0959581
:1023D00087955A95E1F703C080E001C08FE08F59DF
:1023E0000E94FA088091E40383FF16C082E70E94EE
:1023F000FA088091E40384FF04C08091CB010E941D
:10240000FA0886E60E94FA088091E40384FF04C07B
:102410008091CA010E94FA081092CA018091FB01C2
:10242000882309F451C2769A0091FC012CE1029FA5
:102430008001112402501E4F8981811106C0C801FC
:102440006CDF882311F083E789838981811106C0BD
:10245000C801B0DE882311F083E589838981811169
:1024600039C066E4C80150DC8823A1F1F090FA017C
:10247000FA94F092FA014F2D66EE71E086E0A0DD4D
:10248000EF2DF0E0EA51FE4FE0808E1105C093E0A1
:102490009F1510F486E41BC0282F30E02F5F3F4FBC
:1024A0006E2D70E02617370739F423E02F1520F43E
:1024B00096E4998380830EC04F2D66EE71E08CE028
:1024C0007FDD8E1106C083E08F1518F484E58983C3
:1024D00001C019828981811116C065E4C80114DC2C
:1024E000882389F08091FA0181508093FA01893024
:1024F00051F469E086EE91E06DDD9091EF01891372
:1025000002C085E489838981811106C0C801DFDDAD
:10251000882311F088E489838981811106C0C8016C
:10252000B1DE882311F084E789838981811133C06A
:10253000F801438D6091CB01C8014A96E9DC682F10
:10254000C801C1DC6BE4C801DFDB8823B1F0F09087
:10255000FA01FA94F092FA016F2D86EE91E046DDD1
:10256000EF2DF0E09091E501E91BF109EA51FE4FF2
:102570009081891302C08BE48983898181110BC00A
:10258000F801838191E0980F9383873021F41382BF
:10259000818181508183898181112DC0F8018181E0
:1025A000843049F58381843031F54EE16CE3C80114
:1025B0004896AEDC8823F9F04EE16091CB01C8016A
:1025C0004A96A6DC682FC8017EDC20E0822F90E0CE
:1025D000FC01EA51FE4FD801A80FB91F14968C9147
:1025E000808381E0820F853010F4282FEFCF809315
:1025F000FA0182E589833981332309F4D9C0209116
:10260000E40320FFD5C08091E3038E7F8B7F80930E
:10261000E30321FD64C05091E401F090FA015F11E1
:102620003DC040E04517C0F4842F90E061E0640FA6
:10263000FC01E053FE4FDC01AA51BE4F70818C912A
:10264000781741F04093E4018091E3038D7F8093FC
:10265000E30304C0462FE6CF4093E40145131EC0B8
:102660004091DD035091DE036091DF037091E00340
:102670008091CC019091CD01A091CE01B091CF017C
:10268000481B590B6A0B7B0B4632510561057105DE
:1026900028F48091E30381608093E30340E04F15C9
:1026A00060F4842F90E0FC01E053FE4FDC01AA515E
:1026B000BE4F8C9180834F5FF2CF4093E4018091B5
:1026C000DD039091DE03A091DF03B091E0038093DE
:1026D000CC019093CD01A093CE01B093CF013435BE
:1026E000E9F426FD1BC08091FA018530B8F0809195
:1026F000E8018B3471F0893661F09DEA980F9230D1
:1027000040F08D57823028F08091E9018077803742
:1027100029F48091E30381608093E303B801CE0143
:10272000019622DE8981843569F49091730499239E
:1027300049F090917A04911105C09091E3039B7F39
:102740009093E3039091E30392FF32C00E94FA0852
:102750008091E501882329F08091FA0181508093CE
:10276000FA01F12CE091FA01FE1648F4EF2DF0E0A9
:10277000EA51FE4F80810E94BA09F394F3CF809111
:10278000E501882351F0F0E0EA51FE4F80818F701F
:1027900040E361E090E00E9480098091E40385FFBE
:1027A00005C084E30E9435050E94BA090E944609CB
:1027B0008091E40382FF6FC080E70E94FA08F8016D
:1027C000808140E262E090E00E944A09F801808D39
:1027D00040E265E0F0E18F9FC00111240E944A09A8
:1027E000F801818D40E265E0F0E18F9FC001112486
:1027F0000E944A09F801828D40E265E0F0E18F9F76
:10280000C00111240E944A09F801838D40E265E06D
:10281000F0E18F9FC00111240E944A09F8018281D2
:1028200040E263E090E00E944A09F801818140E2C1
:1028300063E090E00E944A09F801238140E262E0EF
:1028400087E090E0821B91090E944A0980E20E9481
:10285000FA088091E40385FF08C084E30E943505EF
:102860000E94BA0980E20E94FA08F8018381873049
:1028700019F081818F5F8183F12CF8018181F81635
:1028800040F4F801EF0DF11D84810E94BA09F39420
:10289000F4CF0E944609F80110828091FB0181501B
:1028A0008093FB018091FC018F5F843019F080934D
:1028B000FC0102C01092FC0176988981843521F4D4
:1028C00086EE91E00E94B2292196E6E00C94BA339C
:1028D0001F920F920FB60F9211242F933F934F9395
:1028E0005F936F937F938F939F93AF93BF93EF9378
:1028F000FF9310926F008091E40383FF03C08EE288
:102900000E94FA088091FD019CE1899FF001112449
:10291000E250FE4F9081933018F09181923010F484
:10292000C1DA18C09091FB01933049F48091E4031F
:1029300082FFF6CF8CE992E00E943909F1CF9F5FC8
:102940009093FB018F5F843019F08093FD0102C0EA
:102950001092FD01FF91EF91BF91AF919F918F91E7
:102960007F916F915F914F913F912F910F900FBE8B
:102970000F901F9018959BED980F973150F496EF9C
:10298000960F9D3130F491E0681708F090E0892FA0
:10299000089580E008951F920F920FB60F921124B0
:1029A000FF920F931F932F933F934F935F936F93D8
:1029B0007F938F939F93AF93BF93CF93DF93EF93C7
:1029C000FF9380916B04823021F483E080936B0449
:1029D0005BC1009184001091850064E01695079515
:1029E0006A95E1F7C091FD019CE1C99FE0011124C6
:1029F000C250DE4F9881943031F40E3208F444C155
:102A00000F3448F0B6C0953031F4073108F43CC1BA
:102A1000083208F0AEC04A990DC09450923038F494
:102A200061E0CE0150DA109285001092840000938C
:102A3000CB012AC18091CB01081B0093CA011092DF
:102A40008500109284009881983071F42A812111B8
:102A50000BC021E02A83888F8A8F098F0B3B10F4EB
:102A6000000F01C006950B8F9450923020F460E067
:102A7000CE0129DA09C182E086BBF880F11011C0CD
:102A80009091CB01953608F0FFC08091CA01853640
:102A900008F0FAC0988F898F81E08A8382E088836A
:102AA000F3C01091CA0182E0F81273C00091CB010B
:102AB000412F602FCE0148962BDA6A818823F9F0E6
:102AC000488D50E09A01220F331F240F351F200F2D
:102AD000311D3595279535952795288F298D30E01F
:102AE000C901880F991F820F931F810F911D959522
:102AF000879595958795898F6F5F6A83C5C0643088
:102B000008F445C020EA3FE0309389002093880014
:102B10008A818C3050F0888D298D30E0280F311D4E
:102B20002536310524F084E027C08A3088F0888D6E
:102B3000298D30E0280F311D253231054CF485E018
:102B4000888328EE33E0309389002093880015C0F5
:102B50008091E603882379F0612F802F0CDF882392
:102B600051F0688D898D07DF882329F081E08093FB
:102B70006B0498D989C083E088830A8F1B8F1982E0
:102B800087E08B831C8282E080936F007DC0188277
:102B900077CF98E0F91225C081E9810F8D3178F463
:102BA00060E0CE0190D9288D30E0C901880F991FCF
:102BB000820F931F2091CB01820F911D4EC0173EB3
:102BC00008F462C061E0CE017ED92A8D30E0C901EF
:102BD000880F991F820F931F2091CB01820F911DA7
:102BE00015C00091CB01412F602FCE014A9690D99C
:102BF000882301F161E0CE0166D92A8D30E0C90158
:102C0000880F991F820F931F800F911D95958795AF
:102C1000959587958A8F2B8D30E0C901880F991F74
:102C2000820F931F810F911D959587959595879597
:102C30008B8F2AC0412F602FCE01489669D98823F7
:102C400001F160E0CE013FD9288D30E0C901880F45
:102C5000991F820F931F800F911D959587959595CC
:102C60008795888F298D30E0C901880F991F820FC1
:102C7000931F810F911D9595879595958795898FC0
:102C800003C087E0F81275CFFF91EF91DF91CF91EC
:102C9000BF91AF919F918F917F916F915F914F9174
:102CA0003F912F911F910F91FF900F900FBE0F90AA
:102CB0001F901895E091FD018CE1E89FF00111242F
:102CC000E250FE4F8081811107C081E09091A904FC
:102CD0009F3F19F480E0089581E0089580E690E038
:102CE0000E941E0A8093E60381E690E00E941E0A7D
:102CF00080937304882321F081E28093E4033CD91C
:102D000010926C0408955B9A0C9490085B980C9454
:102D10009008A7E0B0E0EFE8F6E10C949D33309125
:102D2000EA0390E0E92FF0E0E459FB4F20812223F1
:102D300009F471C0321711F09F5FF4CF95E79983C2
:102D4000882399F0BE016E5F7F4F809173040E94CB
:102D5000060ABE016C5F7F4F8091E6030E94060A5F
:102D600085E58E8386E0D82E02C0DD24D3940E94B0
:102D700034060E94B00516E080E891E0C4DF80E0F0
:102D800093E0C4DF1150C1F780E093E0BCDF80E83E
:102D900091E0BCDF80E891E0B6DF5B9887E390E0EC
:102DA0000E94520583E00E94950828988FE70E94B0
:102DB000C1048091E9038D0D0E94C104CE010196EA
:102DC0007C018C01F80181918F010E94C104802F48
:102DD0008E198D15B8F38091E903882339F087EEB9
:102DE00093E00E945B0B0E94C104F5CF289A0E94D9
:102DF000B00587EE93E00E94400B15E18AE30E9444
:102E000035058F7731F0115021F081E00E9495084F
:102E1000F5CFB2D807C0992309F490CF87EE93E09D
:102E20000E94400B2796E7E00C94B933CF93DF93D1
:102E3000EC01898181110BC08091E6030E94BA09DF
:102E4000809173040E94BA090E9446093EC08636EA
:102E500081F42296ACE6B4E0E0E08991882321F089
:102E60008D93EF5FE530C9F7F0E0E459FB4F108236
:102E70002CC08936D9F441E066EE73E0CE010296AB
:102E80000E94BE096091E60380E690E00E94190A64
:102E900041E063E774E0CE0104960E94BE096091B0
:102EA000730481E690E00E94190A0FC087EE93E058
:102EB0000E94400B21966991662329F087EE93E0EA
:102EC0000E94450BF8CF80E024DFDF91CF91089579
:102ED000A1E0B0E0EEE6F7E10C949C3380916B0446
:102EE000882309F485C0C090DD03D090DE03E09014
:102EF000DF03F090E003833009F060C08FE30E94AD
:102F00003505182F8630C8F08DE395E00E94400B00
:102F100028988FEF0E94C10480E00E94C104082F0E
:102F2000115049F080E00E94C104682F8DE395E0C4
:102F30000E94450BF5CF289A01C000E01DD81092E1
:102F40006B04053709F054C041E0BE016F5F7F4F4D
:102F500080E495E00E94BE09019759F5998180911E
:102F6000E603981326C080914405853571F480915D
:102F70003F05882339F08DE395E00E945B0B0E94AA
:102F8000FA08F5CF0E94460933C080913F0584506E
:102F900080933F0584E080933E056AE08DE395E0F1
:102FA0000E94450BE091D903F091DA0388E009957E
:102FB0001FC08DE395E00E94400B1AC0823059F487
:102FC0008091E5039C2D981B983090F00E94BC0FD7
:102FD00010926B040DC0813059F487E390E00E9499
:102FE00052050E94C20582E080936B04C092E50303
:102FF0002196E8E00C94B8335DDE882319F083E075
:1030000080937204809172048150809372048823AB
:1030100021F083E080936A04089581E07ACECF9313
:10302000DF93EA98209A289A8EE190E00E94900817
:1030300028988EE190E00E949008289A8DE290E016
:103040000E94900880E30E944E0584E690E00E9472
:103050009008C3ECD2E0FE0131966491FE018491A8
:103060000E943C052296F2E0C53FDF07A1F7809160
:103070006F02811107C083E30E944E0584E00E9425
:1030800095080FC0CDEAD2E0FE0131966491FE01B1
:1030900084910E943C052296F2E0C33CDF07A1F731
:1030A000EACF84E30E944E0585E30E9435058D300A
:1030B000C1F7DF91CF910895A2E3B0E0E2E6F8E135
:1030C0000C94A03380916E02882309F4A1C04A9B1E
:1030D0008AC08FE30E9435058F778983823368F039
:1030E0008AE30E944E0586E30E944E058DE30E940E
:1030F0004E0584E30E944E058BC028988FEF0E94F6
:10310000C10410E08981181760F480E00E94C104B6
:10311000E2E0F0E0EC0FFD1FE10FF11D80831F5F87
:10312000F1CF80E00E94C104082F80E00E94C1041A
:10313000289A84E30E944E0585E30E9435058D3070
:10314000C1F72A8196E792279A8392E08981E92F35
:10315000F0E0981768F441E050E04C0F5D1FE40F79
:10316000F51F30812452232720839F5F232FEECF2A
:1031700081E090E08C0F9D1FE80FF91F90818B81FB
:10318000982790838091E40384FF12C081E60E9417
:10319000FA0810E08981811730F1E1E0F0E0EC0FEE
:1031A000FD1FE10FF11D80810E94FA081F5FF2CF21
:1031B00081E40E94FA0810E08981811758F0E1E06B
:1031C000F0E0EC0FFD1FE10FF11D80810E94BA09B4
:1031D0001F5FF2CF8091E40385FF03C0802F0E9420
:1031E000BA090E94460985E30E943505813029F01D
:1031F000813161F48AE30E944E0586E30E944E0508
:103200008DE30E944E0584E30E944E050E947B06DA
:10321000E296E4E00C94BC338F929F92AF92BF92FF
:10322000DF92EF92FF920F931F93CF93DF93CDB76F
:10323000DEB7EA970FB6F894DEBF0FBECDBF41E30D
:103240008E010F5F1F4FB80101960E94BE097C01DD
:1032500099270197298130E08217930709F0A3C0CD
:1032600080916E02811104C0DADE83E00E9495082D
:10327000DB808A8196E789278A8322E03981822F41
:1032800090E0F801E80FF91F231750F4DE01A80FB2
:10329000B91F8C9184529081892780832F5FEECF54
:1032A00080818D258083CE01C7960E949E0785E38D
:1032B0000E944E0585E30E943505833181F1CE01E0
:1032C000C3960E949E074BA95CA96DA97EA98FA9F0
:1032D00098ADA9ADBAAD84179507A607B70760F4F6
:1032E0004A015B01881A990AAA0ABB0A2DEB8216C9
:1032F0009104A104B10470F4481759076A077B07C9
:1033000070F484549F4FAF4FBF4F84179507A607A3
:10331000B70728F483EA92E00E94390927C085E3C1
:103320000E943505833119F6D4FE08C088E70E9453
:10333000950888E70E94950888E701C08AE00E9406
:10334000950828988FE70E94C10458018A2D801B98
:103350008E1530F4F50181915F010E94C104F6CF12
:10336000289A85E30E9435058331D9F385E30E94CD
:103370003505863149F48BE30E944E0586E30E94B1
:103380004E058DE30E944E0580916E02882349F020
:1033900084E30E944E0585E30E9435058D30C1F718
:1033A00002C00E94BC0FEA960FB6F894DEBF0FBEB3
:1033B000CDBFDF91CF911F910F91FF90EF90DF90E4
:1033C000BF90AF909F908F900895FC01218122378C
:1033D00031F0223559F481E080936F0202C01092DF
:1033E0006F021DDE81E080936E020895233711F491
:1033F000019612CF10926E020895CF93DF93EA9850
:10340000209A289A8EE190E00E94900828988EE1F8
:1034100090E00E949008289A8DE290E00E94900827
:1034200080E30E944E0584E690E00E949008C7E089
:10343000D3E0FE018491813440F083E30E944E0585
:1034400084E00E949508CFEF0DC0FE013196649193
:10345000FE0184910E943C052296F3E0C334DF070D
:1034600041F7EBCF84E30E944E058AE090E00E9492
:103470009008C150B9F781E080937002DF91CF913D
:103480000895EF92FF920F931F93CF93DF93EC0178
:103490008B01F88080917002811101C0AEDF85E35D
:1034A0000E9435058D3071F08AE50E94FA0885E4A6
:1034B0000E94FA0882E50E94FA0882E50E94FA0852
:1034C00081E34CC08091710290917202A0917302CD
:1034D000B0917402892B8A2B8B2B51F50E94B00579
:1034E00085E30E943505833109F443C08AE50E94D3
:1034F000FA0885E40E94FA0882E50E94FA0882E54B
:103500000E94FA0882E32AC08091DD039091DE03D5
:10351000A091DF03B091E0034F5F5F4F6F4F7F4F8C
:1035200084179507A607B707C9F681E00E9495089A
:103530008091DD039091DE03A091DF03B091E00361
:103540004091710250917202609173027091740205
:1035500084179507A607B707B9F6E7CF0E94FA08C0
:1035600085E30E9435050E94BA090E94460945DF9D
:1035700065C0012B49F428988FE70E94C104EC2E06
:103580000C2F1D2FF3940BC00AE010E084E60E947C
:1035900095080150110901151105C1F7ECCF802FD5
:1035A0008E198F1530F4F80181918F010E94C104AA
:1035B000F6CF289AC8EC85E30E9435058D30E9F4F2
:1035C00085E30E9435058D3019F18AE50E94FA08DD
:1035D00085E40E94FA0882E50E94FA0882E50E94CA
:1035E000FA0883E30E94FA0885E30E9435050E94E9
:1035F000BA090E94460901DF0BC085E30E94350528
:103600008331F1F681E00E949508C150A1F6D8CF30
:1036100080917002811102C00E94BC0F8091DD0375
:103620009091DE03A091DF03B091E00380937102DB
:1036300090937202A0937302B0937402CDB7DEB779
:10364000E6E00C94BA33ACE0B0E0E9E2FBE10C94C4
:10365000A133FC018BE0898381818A831B8282E014
:103660008C8387818D8380858E8381858F83848100
:1036700088878581898786818A871B861C8684E165
:103680000E94950860E070E0CE010196FADE8AE5BE
:103690000E94FA0810E0812F90E0298130E028177D
:1036A00039075CF0E1E0F0E0EC0FFD1FE80FF91FD7
:1036B00080810E94BA091F5FEECF8091E40385FFED
:1036C00003C080E00E94BA090E9446092C96E3E0FC
:1036D0000C94BD33CF93DF93EC018091780281117C
:1036E00008C090917902911104C090917A029923B7
:1036F000A9F09B81903319F09F7E903479F49F81DB
:1037000098130CC0988580917902981307C0998509
:1037100080917A02981302C0CE0195DF80917502E4
:10372000811108C090917602911104C090917702A6
:103730009923A9F098819B3091F49B81903479F47E
:103740009F8198130CC0988580917602981307C0CA
:10375000998580917702981302C0CE0174DFDF91C2
:10376000CF910895AEE1B0E0E8EBFBE10C94A0331B
:1037700080917002882309F469C04A9B59C08FE385
:103780000E9435058F778E3108F08DE18983289866
:103790008FEF0E94C10410E08981181760F480E067
:1037A0000E94C104E2E0F0E0EC0FFD1FE10FF11D0B
:1037B00080831F5FF1CF80E00E94C104082F80E06A
:1037C0000E94C104289ACE01019684DF8091E4030F
:1037D00084FF12C08AE70E94FA0810E089818117ED
:1037E000A8F1E1E0F0E0EC0FFD1FE10FF11D808199
:1037F0000E94FA081F5FF2CF8AE50E94FA0810E0E3
:103800008981811758F0E1E0F0E0EC0FFD1FE10F36
:10381000F11D80810E94BA091F5FF2CF8091E403FD
:1038200085FF03C0802F0E94BA090E9446090EC07E
:1038300085E30E943505813149F48AE30E944E05F3
:1038400086E30E944E0584E30E944E056E96E4E0F6
:103850000C94BC33AEE1B0E0E0E3FCE10C94A033A7
:103860008C01FC018181823711F4C7DD36C08337BA
:1038700011F0863601F54DE1BE016F5F7F4FC80143
:1038800002960E94BE0999270197298130E082178C
:10389000930729F085EF92E00E9439091EC061E08C
:1038A00070E0F8018181833711F060E070E0CE01B3
:1038B0000196E7DD12C0813621F443E068E772E04B
:1038C00005C0873741F443E065E772E0C80102961E
:1038D0000E94BE0902C0109270026E96E4E00C9441
:1038E000BC33A0E0B0E0E7E7FCE10C949D33D82EB8
:1038F000EA98209A10927B02289A8EE190E00E942A
:10390000900828988EE190E00E949008289A8DE215
:1039100090E00E94900880E30E944E0584E690E0CB
:103920000E9490088FEF8D0D833008F03CC0CBE9EA
:10393000D3E0FE018491813470F0F4E1DF9E9001C8
:103940001124C0E0D0E0C901855B9C4F7C01890156
:10395000045B1C4F19C0FE0131966491FE018491F5
:103960000E943C052296F3E0C73DDF0711F7E5CF43
:10397000F801EC0FFD1F6491F90184910E943C0550
:103980002296C431D10539F097012C0F3D1FF90162
:103990008491813468F383E30E944E05D0927B02C8
:1039A00081E00E949508CDB7DEB7E7E00C94B9330B
:1039B000CF93DF9380917B028823B1F14A9B21C092
:1039C00086E30E944E058BE30E943505D82FDF77F2
:1039D00059F128988FEF0E94C1048EE40E94FA08E2
:1039E00080917B020E94BA09C0E080E00E94C1047D
:1039F0000E94BA09CF5FCD13F8CF289A0E944609DA
:103A000013C085E30E943505813011F0813161F4E6
:103A10008AE30E944E0586E30E944E058DE30E94D4
:103A20004E0584E30E944E05DF91CF910895A1E0F9
:103A3000B0E0EDE1FDE10C94A2331982FC0121819B
:103A40002237A9F42281222331F0BE016F5F7F4F1C
:103A500002960E94EB0989819FEF980F933028F01E
:103A600083E493E00E94390913C03BDF0BC0283781
:103A700049F480917B02882319F086E30E944E0569
:103A800010927B0280917B020E94BA090E94460933
:103A90002196E2E00C94BE33CF93DF93EA98209A0C
:103AA000289A8EE190E00E94900828988EE190E09C
:103AB0000E949008289A8DE290E00E94900880E38E
:103AC0000E944E0584E690E00E949008289880E4C9
:103AD0000E94C104C9ECD3E0FE0184910E94C1049C
:103AE0002196F3E0C63DDF07B9F7809108010E94F7
:103AF000C104809109010E94C10480910A010E94C1
:103B0000C104C0E0D0E0FE01E752FC4F84910E9466
:103B1000C1042196C931D105B1F7289A28988EE7BA
:103B20000E94C1048BE290E0EC0121960E941E0AE3
:103B30000E94C104C333D10511F0CE01F5CF289AFC
:103B400083E30E944E0581E00E94950881E0809306
:103B5000DB03DF91CF9108956F927F928F929F92B6
:103B6000AF92CF92EF92FF920F931F93CF93DF9379
:103B7000EC018981843769F46FE071E0CE0102962F
:103B80000E94EB0940E260E080910F0190911001EA
:103B900012C0833709F090C18A81823789F46BE0C3
:103BA00071E0CE0103960E94EB0940E260E0809153
:103BB0000B0190910C010E944A090E944609EFC135
:103BC000769A80917E02811116C080916E028823C0
:103BD00029F081E080937D0210926E028091700244
:103BE000882329F081E080937C021092700254DFD8
:103BF00083E00E94950886E30E944E058AE30E94B6
:103C00004E058BE30E944E050E94B005FE01019017
:103C10000020E9F70E2F0C1B0250C12CFAE09F2E5A
:103C20007E0132E0E30EF11CA5E0AA2EB8E28B2E55
:103C300080910B0190910C012C2D332727FD30959D
:103C40002817390708F0FBC00132A1F45B9A809174
:103C50000F01909110010E9490085B9880910D01D6
:103C600090910E01FC019E9EC0019F9E900D11241B
:103C70000E949008370111E010170CF0B7C0F30153
:103C800081913F015B9A803309F046C0013201F512
:103C900080910D0190910E010E9490085B98809197
:103CA0000D0190910E010E9490085B9A80910D0188
:103CB00090910E010E9490085B9880910D01909167
:103CC0000E019C01A29EC001A39E900D11248AC0EA
:103CD00080910F01909110010E9490085B98809153
:103CE0000F01909110019C01220F331F820F931F2F
:103CF0000E9490085B9A80910F01909110010E94A0
:103D000090085B9880910F01909110019C01220F07
:103D1000331F820F931F66C0813329F5013291F45E
:103D200080910D0190910E010E9490085B98809106
:103D30000D0190910E01FC01AE9EC001AF9E900D51
:103D400011241EC080910F01909110019C01220F3F
:103D5000331F820F931F0E9490085B9880910F0180
:103D6000909110012CC00132D1F480910D019091FD
:103D70000E010E9490085B9880910D0190910E01B8
:103D80000E9490085B9A80910D0190910E010E9413
:103D900090085B9880910D0190910E0123C0809155
:103DA0000F01909110010E9490085B9880910F0183
:103DB000909110019C01220F331F820F931F0E94CC
:103DC00090085B9A80910F01909110019C01220F45
:103DD000331F820F931F0E9490085B9880910F0100
:103DE000909110010E9490081F5F46CF5B9A0132AC
:103DF000A1F480910D0190910E010E9490085B98B2
:103E000080910D0190910E019C01829EC001839EC4
:103E1000900D11240E94900810C080910F01909184
:103E200010010E9490085B981FE180910F01909112
:103E300010010E9490081150C1F7C394F9CE8091EF
:103E40007E02882341F08091E40381110EC086E355
:103E50000E944E0517C080917D02882349F0109280
:103E60007D02DDD881E080936E020E94C2050AC007
:103E700080917C02882321F010927C02BEDA02C07D
:103E80000E94BC0F769889E60E94FA0883E70E9498
:103E9000FA0811E010170CF090CEFE01E10FF11DB1
:103EA00017FDFA958181803319F0813309F086E49A
:103EB0000E94FA081F5FEECF8237B9F480916E023C
:103EC000882329F081E080937D0210926E02809118
:103ED0007002882329F081E080937C0210927002A6
:103EE000DBDD81E080937E025AC0863651F58A81FF
:103EF000803351F480E18093080180EB80930901C5
:103F000081E780930A0107C043E068E071E0CE01D9
:103F100002960E94BE0989E60E94FA0886E60E947F
:103F2000FA088AE30E94FA08809108010E94BA09FF
:103F3000809109010E94BA0980910A010E94BA0980
:103F40003CCE883721F580917D02882339F010928C
:103F50007D0265D881E080936E0210C080917C0262
:103F6000882321F010927C0248DA0EC082E090E0B3
:103F70000E9452058091E403882319F00E94C20533
:103F800003C086E30E944E0510927E0208C083366D
:103F900031F46FE071E0CE0101960E94EB09DF91F0
:103FA000CF911F910F91FF90EF90CF90AF909F9086
:103FB0008F907F906F900895A2E0B0E0E2EEFFE175
:103FC0000C9495337C01FC018181833709F09CC1FD
:103FD000198287E090E00E94C9338C0141E0BE0164
:103FE0006F5F7F4FC70102960E94BE098981F80169
:103FF000808341E0BE016F5F7F4FC70104960E943E
:10400000BE092981207FF801218341E0BE016F5F55
:104010007F4FC70106962A830E94BE098981F80155
:10402000828341E0BE016F5F7F4FC70108960E9407
:10403000BE098981F801838341E0BE016F5F7F4F34
:10404000C7010A960E94BE098981F801868341E072
:10405000BE016F5F7F4FC7010C960E94BE09898128
:10406000F801858341E0BE016F5F7F4FC7010E9667
:104070000E94BE098981F801848380E090E02A8152
:104080004191342F32953F70342783279F5F9730BB
:10409000B9F78F70822BF801818387E090E00E944E
:1040A000C9335C0187E0F801D50101900D928A9532
:1040B000E1F7D8011196C8010696F8013D912191CA
:1040C00023272083E817F907C9F7769A80918102A0
:1040D000811160C080916E02882329F081E0809375
:1040E000800210926E0280917002882329F081E094
:1040F00080937F0210927002EA98209A289A8EE1AB
:1041000090E00E94900828988EE190E00E9490082C
:10411000289A8DE290E00E94900880E30E944E056C
:1041200084E690E00E949008289880E40E94C104F0
:1041300062EFE62E63E0F62EF70184910E94C1043F
:10414000FFEFEF1AFF0A2BE1E21624E0F206A1F7D7
:10415000289A28988EE70E94C1048BE290E07C01A7
:10416000EFEFEE1AFE0A0E941E0A0E94C104F3E35A
:10417000EF16F10411F0C701F2CF289A83E30E94F1
:104180004E0581E00E94950881E08093DB0383E087
:104190000E94950886E30E944E058AE30E944E0520
:1041A0008BE30E944E050E94B0055B9A87EC94E277
:1041B0000E9490085B9889E50E94950885E392E04B
:1041C0000E949008712C8091150190E0272D3327D3
:1041D00027FD3095281739070CF057C0711002C021
:1041E00022E001C027E0F12C5B9A86EF99E02A8358
:1041F0000E9490085B9886EF99E00E949008F394E3
:104200002A81F2168CF35B9A8CEF92E10E9490085F
:104210005B9880911101909112010E9490086801B1
:10422000612CF60181906F0148E0542E50E8E52E94
:10423000F12C912CC70188219921892B49F45B9A93
:1042400080911101909112010E9490085B9808C022
:104250005B9880911101909112010E9490085B9AE5
:1042600080911101909112010E949008F694E794B8
:104270005A9401F76394F7E06F12D3CF5B9880E014
:1042800090E00E94900873949ECF809181028823D1
:1042900041F08091E40381110FC086E30E944E0536
:1042A00018C080918002882351F0109280020E94F1
:1042B0000F1881E080936E020E94C2050AC08091AF
:1042C0007F02882321F010927F0297D802C00E94BB
:1042D000BC0F769889E50E94FA0883E70E94FA08E5
:1042E0007501D12CF70181917F010E94BA09D39405
:1042F000F7E0DF12F7CF0E944609C5010E94613442
:10430000C8010E9461346EC08237A9F465E171E092
:10431000C70102960E94EB0989E50E94FA0882E72C
:104320000E94FA088AE30E94FA088091150140E28F
:1043300060E090E02CC0843779F5F701828180330A
:1043400039F488ED94E0909314018093130106C032
:1043500063E171E0C70102960E94EB0980911301AD
:104360009091140196958795909312018093110175
:1043700089E50E94FA0884E70E94FA088AE30E940D
:10438000FA0840E266E080911301909114010E94C6
:104390004A090E94460926C0883721F5809180028B
:1043A000882341F0109280020E940F1881E08093D0
:1043B0006E0210C080917F02882321F010927F024C
:1043C0001CD80EC082E090E00E9452058091E40368
:1043D000882319F00E94C20503C086E30E944E059F
:1043E000109281022296EFE00C94B133CF93DF93C9
:1043F000EA98209A289A8EE190E00E9490082898E6
:104400008EE190E00E949008289A8DE290E00E9450
:10441000900880E30E944E0584E690E00E94900898
:10442000289880E40E94C104C4EED6E0FE01849185
:104430000E94C1042196F7E0CD30DF07B9F7289A32
:1044400028988EE70E94C1048BE290E0EC0121964F
:104450000E941E0A0E94C104C333D10511F0CE018F
:10446000F5CF289A83E30E944E0581E00E949508CB
:1044700081E08093DB0380939502DF91CF910895D3
:10448000A0E0B0E0E6E4F2E20C949B338C01809172
:104490007404F801838364839DE0E92EF12C0E946B
:1044A000B00585E30E943505833169F087ED96E01C
:1044B0000E94390985E30E9435050E94BA090E94CD
:1044C000460994DF49C04091DD035091DE036091BD
:1044D000DF037091E003409375045093760460937A
:1044E00077047093780428988FE70E94C1046801CC
:1044F000C0E0D0E08AEAB82EF60180810E94C104B3
:10450000C930D10544F4F6018081B826C730D10501
:1045100011F4F801B0862196FFEFCF1ADF0ACF30F1
:10452000D10551F7289AC8EC85E30E9435058331FF
:1045300069F081E0E81AF108E114F10409F0AFCF65
:10454000809174048F5F8093740406C081E00E94A0
:104550009508C15049F7EDCFCDB7DEB7E9E00C942F
:10456000B733ABE3B0E0E7EBF2E20C9498337C01B5
:10457000FC0101900020E9F7AF0141505109481BAF
:10458000590B6C01F2E0CF0ED11CBE01625D7F4F72
:10459000C6010E94BE09082F6DEB71E087E191E032
:1045A0000E943636F70111818DE8810F823008F0C4
:1045B000D8C181E08093930287858A3411F489E51C
:1045C00001C08EE480931601A8958090DD03909041
:1045D000DE03A090DF03B090E0034091DD03509133
:1045E000DE036091DF037091E00340937504509304
:1045F000760460937704709378048091160189356E
:1046000009F050C08BEC96E00E94390984EB96E0EB
:104610000E943909C7010E942E098FE996E00E9485
:104620003909F70101900020E9F7319740E260E095
:10463000CF018E199F090E944A0987E596E00E94E2
:104640003909F70101900020E9F73197808140E2B4
:1046500060E090E00E944A098FE096E00E943909EC
:1046600040E260E0802F90E00E944A098CE096E0F2
:104670000E94390985EF95E00E94390940E364E022
:1046800080917704909178040E94800940E364E06F
:1046900080917504909176040E94800982EF95E0E4
:1046A0000E943909F70101900020E9F77197EE1592
:1046B000FF0509F03DC142E0BE01625D7F4FC601CA
:1046C0000E94BE09029709F033C190DE0EA5B70122
:1046D000665F7F4F45E050E0CE0101960E943D3677
:1046E0001E824AE050E060E070E0CE0101960E9438
:1046F000F0346B017C0123E0F694E794D794C794DF
:104700002A95D1F7809116018935F1F48BED95E06A
:104710000E943909CE0101960E942E0984ED95E090
:104720000E9439098DEB95E00E94390940E364E06D
:10473000C7010E94800940E364E0C6010E9480092D
:1047400085EB95E00E9439098FE0EBE3F1E0DE01B3
:104750005F9601900D928A95E1F78FA588A388A9AD
:1047600089A389A98EA3602FCE014F9689DE1337C6
:1047700009F4EEC007FFECC0409175045091760437
:1047800060917704709178048091DD039091DE034D
:10479000A091DF03B091E00388199909AA09BB0928
:1047A0008E379105A105B10548F48090DD03909006
:1047B000DE03A090DF03B090E003A8958091DD03B5
:1047C0009091DE03A091DF03B091E003841B950B71
:1047D000A60BB70BC816D906EA06FB06A8F680900A
:1047E000DD039090DE03A090DF03B090E0038091A2
:1047F0001601893509F073C08EE995E00E943909E8
:1048000040E364E0C5010E94800940E364E0C40124
:104810000E94800986E995E00E9439098FE795E0BA
:104820000E94390940E364E0809177049091780414
:104830000E94800940E364E08091750490917604C1
:104840000E94800987E795E00E94390980E695E09B
:104850000E94390940E364E0C7010E94800940E3F7
:1048600064E0C6010E94800988E595E00E9439094C
:1048700081E495E00E9439098091DD039091DE0387
:10488000A091DF03B091E00340917504509176044C
:104890006091770470917804841B950BA60BB70B7D
:1048A00040E364E0CD010E9480098091DD03909196
:1048B000DE03A091DF03B091E003209175043091F5
:1048C0007604821B930B40E364E00E94800989E335
:1048D00095E00E94390980E395E00E94390967EF6D
:1048E000CE014F96CDDD40917504509176046091D4
:1048F0007704709178048091DD039091DE03A0919C
:10490000DF03B091E003841B950BA60BB70B459713
:10491000A105B10580F380911601893521F487E264
:1049200095E00E94390967EFCE014F96A9DD10C0CE
:1049300082E095E00E94390940E260E08EE090E07C
:104940000E944A098EED94E00E9439091092950266
:1049500080919402813011F40E94C205109293025A
:104960004AC0123709F041C0F7018281853451F401
:104970001092940286E30E944E05109292028DECF2
:1049800094E030C0833561F5F7018381813311F400
:1049900081E003C0823321F482E08093920202C05E
:1049A0001092920281E08093940220DD8AEB94E0E1
:1049B0000E9439090E94C20585E30E9435058D30A9
:1049C000D1F081EA94E00E94390985E30E9435051F
:1049D0000E94BA090E94460909DD109294020BC098
:1049E0008FE794E00E94390906C088E694E00E94AF
:1049F000390910929502EB96ECE00C94B433A0E1E7
:104A0000B0E0E5E0F5E20C949C338E010F5F1F4FA0
:104A100080E1F80111928A95E9F780919402813042
:104A200009F09AC080919302813009F495C04A9BA5
:104A300093C0A8958BE30E9435058F77F82E898364
:104A400080919202823059F488E594E00E943909FD
:104A50008F2D0E94BA0986E494E00E943909FEE095
:104A6000FF1510F48FE0898328988FEF0E94C1040E
:104A7000F12CC12C3AEAD32E8981F816F0F480E0AB
:104A80000E94C104E2E0F0E0EC0FFD1FEF0DF11D0C
:104A9000808397E09F1510F0D82607C0E8E0FE124B
:104AA00004C0D81611F0CC24C39490919202923095
:104AB00011F40E94BA09F394DFCF289A80919202F0
:104AC000823021F483E494E00E9439094AE050E006
:104AD00062E872E0C8010E94293620919202892B77
:104AE00061F08A81873049F48981893030F0F1E0C2
:104AF000CF1619F0223019F42FC0213069F580E467
:104B000094E00E94390980E1F801A2E8B2E0019046
:104B10000D928A95E1F78E010E5F1F4F7E018BE0AB
:104B2000E80EF11CF80181918F010E94BA090E155F
:104B30001F05C1F780919202813051F4F1E0CF124C
:104B400007C08EE194E00E9439098D2D0E94BA09B8
:104B50008BE194E00E9439096096E8E00C94B83348
:104B6000109294041092510383E080939B028FEF84
:104B70008093A9040895ECE9F2E02081211105C099
:104B8000892BB1F080E090E00895B3E0EA34FB07B0
:104B9000B8F7009751F04181DC013C91431305C007
:104BA000428111963C91431751F0E20FF11DE5CF80
:104BB00033E0EA34F30719F010F0EAE4F3E0CF0150
:104BC000089594E0899FF0011124E655FB4F808100
:104BD0008F3F91F08093960281818093970282812A
:104BE0008093980283818093990221E04CE064E0F5
:104BF00086E992E00C94560C08958BE493E0BBDFB9
:104C0000009799F020919B02FC013081231768F4F2
:104C1000E20FF11D808180934D0389E780934E035D
:104C2000818180934F0381E0089580E00895EF92A1
:104C3000FF921F93CF93DF931F92CDB7DEB7182F4C
:104C40008091E40386FF18C084E599830E94FA08E6
:104C5000E12E9981F92E15E0F70181917F010E94E3
:104C6000BA091150C9F78091E40385FF03C08AEFA8
:104C70000E94BA090E9446090F90DF91CF911F91BF
:104C8000FF90EF90089586E30E944E0580914D03BA
:104C9000833511F48BE901C08BE40E94950821E073
:104CA0004CE065E08BE493E00E94560C0E94C20544
:104CB0008BE493E0BCCFE7DF80914D03893631F080
:104CC00081E080934A0389E28093A9040895CF93F9
:104CD00085E390E00E941E0A80937A0486E390E0C8
:104CE0000E941E0A8093A804CFEFC0939804C0933B
:104CF0009A04C0939C04C0939E04C093A004C093E4
:104D0000A204C093A404C093A6042ADF10929C02BC
:104D100081E080937904C093AA048FEF9FEF909372
:104D20007D0480937C0410927F0410927E04109284
:104D3000810410928004C093AE0490938304809306
:104D400082041092850410928404109287041092B9
:104D50008604C093B20490938904809388041092CF
:104D60008B0410928A0410928D0410928C04C093CC
:104D7000B60490938F0480938E0410929104109245
:104D800090041092930410929204CF910895ACE095
:104D9000B0E0EDECF6E20C949B336C018C010F5FFC
:104DA0001F4F45E0BE016F5F7F4FC8010E94BE09E3
:104DB000843008F0F3C099819130A9F4833061F414
:104DC0006A8185E390E00E94190A6B8186E390E096
:104DD0000E94190A7CDFF9C180917A040E94BA0905
:104DE0008091A8049AC0923009F051C0813039F006
:104DF00081E09A81913009F080E0F82E02C0FF2412
:104E0000F39480919C02811104C08DE097E00E9490
:104E100039090CE912E0F8018081882309F4BBC04C
:104E2000F3E00A341F0708F0B6C082E00C39180717
:104E300019F080E20E94FA08F80181810E94BA0903
:104E4000F80182810E94BA09FF20E1F08AE30E9402
:104E5000FA0893E0F80180819817A0F4943038F0B4
:104E600090FF05C08CE29C870E94FA089C85EE2486
:104E7000E394E90EF801E90FF11D80810E94BA095F
:104E80009E2DE8CFF8018081080F111DC4CF93300B
:104E900049F480E090E06FDE8C5992409EEA981BC6
:104EA000892F3BC0903171F508E914E089E9E82EBB
:104EB00084E0F82EC12CD12CF80180818F3FA1F025
:104EC000DD2019F080E20E94FA088C2D0E94BA09B8
:104ED0008AE30E94FA08F80180810E94BA09F7016A
:104EE00080810E94BA09D3940E5F1F4FC394F2E0F1
:104EF000EF0EF11C88E0C812DFCFD1104CC08BE15F
:104F000097E047C0913161F48091960490919704A5
:104F10006DE770E00E947833862F0E94BA093BC08B
:104F20009231C9F51AEAE12E14E0F12E0DEA14E0EF
:104F3000C12CD12CF70180818F3FF1F0DD2019F0D9
:104F400080E20E94FA088C2D0E94BA098AE30E942E
:104F5000FA08F70180810E94BA09F801329780812E
:104F60000E94BA09F801319780810E94BA09F801BC
:104F700080810E94BA09D394F4E0EF0EF11CC3942F
:104F80000C5F1F4F84E0C812D5CFD11004C087E159
:104F900097E00E9439090E94460917C144E0BE010A
:104FA000695F7F4FC8010E94BE094F81493608F4EE
:104FB00077C07A85588569857C3009F04BC020E040
:104FC00030E080E090E0F901E655FB4F708174130A
:104FD0001CC0A181A51319C0A281A61316C02CE084
:104FE00023839C01220F331F280F391FF901EE0F75
:104FF000FF1FE458FB4F11821082F901EE0FFF1FD3
:10500000E258FB4F11821082C2C07F3FD9F4408327
:10501000518362832CE023839C01220F331F280FCE
:10502000391FF901EE0FFF1FE458FB4F1182108268
:10503000F901EE0FFF1FE258FB4F11821082109210
:105040007904A5C001962C5F3F4F2031310509F04E
:10505000BACFBBC080E090E020E030E0FC01E65534
:10506000FB4FA081A41315C0A181A51312C0A2817A
:10507000A6130FC07383F901EE0FFF1FE20FF31F9A
:10508000EE0FFF1FE258FB4F81E090E09183808399
:105090009CC02F5F3F4F049680319105F9F695C073
:1050A000E98180917A04E81758F190E0F0E09C01E2
:1050B000295F3F4F2E173F071CF13A812091A8042A
:1050C00032131EC02C812F3231F442E06CE0C60155
:1050D0000E94C50C7AC03D812C3249F4309395046E
:1050E00081E090E090939704809396046EC0E81B53
:1050F000F90BEE0FF0E0E856FB4F2083318365C0DB
:1051000080E090E038DD7C01F80101900020E9F7B3
:105110003197E01BF10BF695E795BB24B394BE0ED7
:10512000C7018B0D911D8C5992408F3A91050CF05F
:1051300048C0F701B1928F0121E0822F880F815082
:105140002B15D8F441E0B801F601E80FF11DCF01AD
:105150002C870E94BE092C85233058F020FD09C001
:10516000D80111978C91843621F4F80180818093C5
:105170007B042F5F0F5F1F4FE0CFFAE4EF16F3E0E1
:10518000FF0618F5F701E20FF11D10821EC022E0A4
:105190004CE064E0CE0107960E94560C8FE08A87AF
:1051A00022E04CE064E0CE0107960E94560C82E0BB
:1051B0008A8722E04CE064E0CE0107960E94560CFC
:1051C00004C081E197E00E9439092C96E9E00C9433
:1051D000B7330F931F93CF93DF939091790491117D
:1051E0004FC093E0899F80011124F801EE0FFF1F4B
:1051F000E458FB4F94E0899FD0011124A655BB4F82
:1052000012969C91977040E850E0491B51099AEF23
:10521000949F9001959F300D1124359527953595D4
:10522000279531832083E801CC0FDD1FC058DB4F69
:10523000288139812F5F3F4F39832883000F111F49
:1052400002581B4FF801408151814115510529F445
:1052500024303105A9F4B5DC11C04130510539F4D1
:10526000B0DC82E090E0F8019183808309C0423095
:10527000510531F4A6DCF8011182108219821882DE
:10528000DF91CF911F910F910895A6E0B0E0EBE47C
:10529000F9E20C949E332091A8042A831B8280910A
:1052A0009504882341F0833019F487E791E00FC01B
:1052B0008DE790E00CC0277030E02A513F4F4DE75A
:1052C000429FC001439F900D11249595879590931F
:1052D00097048093960409E914E0F12C7CE2E72E10
:1052E000F801319790819F3FC1F080917A048F0D32
:1052F000898380919504882311F0EC8203C09C83FC
:10530000F80180818D8321E04CE065E0CE010196BB
:105310000E94560CCE0101968ADCF3940E5F1F4F5B
:10532000F8E0FF12DDCF80919504882341F08330AF
:1053300019F41092950403C0825080939504269628
:10534000E6E00C94BA3380914A03882351F09BDC49
:1053500089E28093A90480914A03815080934A0393
:105360000895FECBFF920F931F93CF93DF93FC0121
:10537000F0800181C281D38114818FE58093A904DB
:1053800010924A0380917A04811105C08091A8048B
:10539000882309F4A9C080914B038F1104C0809128
:1053A0004C03801729F0DCDBF0924B0300934C0395
:1053B000809194048F3F09F497C0C0934D03D0931C
:1053C0004E0310934F03CC23F1F081111CC0809148
:1053D0007A04181761F0143651F08DEA8C0F823080
:1053E00010F0CD3739F48FEF809394047DC0C4352D
:1053F00009F47AC08D2F807F803609F075C0D067A0
:10540000D0934E0357C0F9DB811105C080919404FD
:10541000882309F469C080915103811107C0E0918C
:105420009404F0E0E15EF84FE49101C0E82FE33529
:1054300041F4C43531F4909194049E5F90939404A8
:1054400004C0EC1711F08CDB4FC0882369F0809109
:105450009B028E5F80939B02D0DB81110EC08091F6
:1054600094048E5F8093940480919404E82FF0E07C
:10547000E05EF84F14911F3F59F480914D038093E3
:1054800051038436B9F480917B0480934F0312C09A
:1054900010934D0397E790934E0390917A04909365
:1054A0004F038E5F80939404109251038E3021F04D
:1054B0001123D1F000DC18C08BE493E05CDBDC014D
:1054C000009781F02C9130E08AE493E0821B930BEB
:1054D000A817B90730F4ED01C20FD31F48814D93CF
:1054E000F7CF1C923DDBE4CFCDB7DEB7E5E00C94FF
:1054F000BB330F931F93CF93DF93EC0110E0212F69
:1055000030E0F901EE0FFF1FE20FF31FE054FF4FF1
:105510000491F901EE0FFF1FE20FF31FEF53FF4F4E
:1055200025913491002399F0209739F480E20E946C
:10553000FA08802F0E94FA0808C08881801305C0ED
:10554000CE01F901099581E003C01F5FD8CF80E04B
:10555000DF91CF911F910F910895CF93C091C40116
:105560008093C40180913F05882309F43DC08DE3F9
:1055700095E00E945B0B20915203309153038A30D7
:1055800011F08D3011F52115310561F3F901EC5A57
:10559000FC4F108284E593E0ACDF811111C085E4FB
:1055A00097E00E94390984E593E00E942E098DE27C
:1055B00097E00E94390980E090E09BDF0E94460955
:1055C0001092530310925203CDCF2038310550F67C
:1055D000A9014F5F5F4F5093530340935203F9016A
:1055E000EC5AFC4F8083BECFC093C401CF91089585
:1055F000E4E6F0E080818B7F8083299A84B1876024
:1056000084B9239880E58CBD8DB581608DBD0895EA
:1056100020914A0930914B092115310521F420913F
:105620003701309138018091350190913601009712
:1056300041F48DB79EB74091390150913A01841BD6
:10564000950B2817390718F4821B930B089580E0F7
:1056500090E0089582E40E94FA0840E265E08091BB
:105660004A0990914B090E944A090E94460983E524
:105670000E94FA0840E265E080913701909138017C
:105680000E944A090E94460985E40E94FA0840E205
:1056900065E080913501909136010E944A090E948F
:1056A000460986E40E94FA08B3DF40E265E00E9402
:1056B0004A090C944609A2E0B0E0E1E6FBE20C9452
:1056C000A233E5ECF5E08091F100819385E0ED3CBB
:1056D000F807C9F72091C5053091C605832F90E0E2
:1056E0008A30910508F01BC1FC01EA5AFF4F0C9467
:1056F0008C33203879F0223809F011C18091C90526
:105700008093E9008091EB0085FB882780F9109257
:10571000E90006C08091C0059091C1059111826099
:105720009091E800977F9093E8008093F1001092A9
:10573000F1008091E800982F9E7F9093E8008F778A
:105740008093E8008091E80082FDAFC08091C4059D
:105750008111F8CFD5C0822F8D7F09F0E0C02223C0
:1057600019F0223061F033C08091C705813009F013
:10577000C7C0333009F080E08093C10528C0809114
:10578000C705811124C02091C905277009F4B8C04C
:105790002093E9008091EB0080FF19C08091EB001D
:1057A000313091F480618093EB0081E090E0022E33
:1057B00001C0880F0A94EAF78093EA001092EA0089
:1057C0008091EB00886001C080628093EB001092B2
:1057D000E9008091E800877F8093E8008091E800ED
:1057E000982F9E7F66C021119AC02091C705809195
:1057F000E800877F8093E8009091E800892F8E7FF2
:105800008093E8009F779093E8008091E80080FD06
:1058100005C08091C4058111F8CF72C0822F8F77A7
:10582000982F90689093E300882309F469C083E07F
:105830008093C40565C02058223008F070C0AE01C6
:105840004F5F5F4F6091C9058091C7059091C80572
:105850000E948704009709F453C02091E800277F35
:105860002093E800BC0189819A812CD11EC0203888
:1058700009F055C08091E800877F8093E80080910F
:10588000C2058093F1008091E800982F9E7F90934D
:10589000E8008F778093E8008091E80082FD05C0E2
:1058A0008091C4058111F8CF2BC08091E800982F1A
:1058B0009B7F9093E8008F778093E80021C02111AF
:1058C0002EC09091C7059230D8F48091E800877F70
:1058D0008093E8009093C2058091E800982F9E7F06
:1058E0009093E8008F778093E8008091C205882329
:1058F00011F084E001C083E08093C4050E94F906A2
:105900008091E80083FF0EC08091EB00806280935D
:10591000EB008091E800877F8093E80003C00E943D
:105920001107EECF2296E2E029C78093E900EBEE63
:10593000F0E0808181608083EDEEF0E01082609382
:10594000EC0040838091EE00881F8827881F08950F
:105950001092F40080E08093E9001092F000109221
:10596000E8009091ED009D7F9093ED009091EB0009
:105970009E7F9093EB008F5F873069F70895809149
:10598000C50587FD05C08091E80080FF0FC013C0EA
:105990008091E80082FD05C08091C4058111F8CF97
:1059A00008958091E800982F9B7F09C08091C405DD
:1059B0008111E9CF08958091E800982F9E7F909300
:1059C000E8008F778093E800089585E69091EC00D9
:1059D00090FF05C09091E80090FF05C019C090911C
:1059E000E80092FD15C09091C405992399F090911B
:1059F000EB0095FD11C09091E10092FFE7CF9091EF
:105A0000E1009B7F9093E100815001F783E00895CE
:105A100080E0089582E0089581E008954091CB05EB
:105A20005091CC059B014617570708F49A0160E096
:105A300021153105D9F14091E80043FD3FC0409167
:105A4000E80042FF06C08091E80082FF32C080E09B
:105A500008954091C405442399F14091E80040FF26
:105A6000E7CFFC01CF012115310569F04091F2002B
:105A70005091F3004830510530F481918093F1004A
:105A800021503109EFCF4091F2005091F30061E0D5
:105A90004830510509F060E04091E800542F5E7FE6
:105AA0005093E8004F774093E800C2CF6111C3CF15
:105AB000CACF8091C4058111C6CF02C081E008958C
:105AC00082E008954091CB055091CC059B0146178B
:105AD000570708F49A0160E02115310509F43CC02C
