:100000004AC2000064C2000062C200000C940A13DD
:100010005EC200005CC200005AC2000058C200006C
:1000200056C2000054C200000C94F22E50C20000D0
:100030004EC200004CC200004AC2000048C200008C
:1000400046C200000C94A71242C2000040C2000049
:100050003EC2000068C500003AC2000038C200007D
:1000600036C200000C94B61A0C94B61930C20000C7
:100070002EC200002CC200002AC2000028C20000CC
:1000800026C2000024C2000022C2000020C20000DC
:100090001EC200001CC200001AC2000018C20000EC
:1000A00016C2000014C2000012C20000002C322C44
:1000B000162D322C162D7A2CA22C162DBE2CE62CA9
:1000C000412418420A0943160465340946220B47A5
:1000D000250B688D0C69F0214BD30B4C75066CF920
:1000E000084D630B6DB32B527B0854552774F305F1
:1000F000555A0C75551556740976501957BB085842
:100100000A0E78DD035922245A471E7A3D21000049
:10011000002A03430055004C003400330033000034
:10012000002A03430055004C003800360038000018
:1001300000160362007500730077006100720065AD
:10014000002E006400650000000403090409024356
:1001500000020100803209040000010202010005D2
:1001600024000110052401030104240206052406CD
:100170000001070582030800FF09040100020A00CC
:10018000000007050402400000070583024000004C
:100190001201100102000008EB034B2000000102D5
:1001A0000001202F2000203D2000072E050DD391B7
:1001B000FF080500000C0021656A2D3B1322F86240
:1001C000073F181D1CC700B0876BF8B611EA2A005C
:1001D0001F41000D2E2D07D3913D04320000060073
:1001E00021656A55E43023B900070018146C070034
:1001F00090876BF85611E92A001F410000030F1E7B
:100200002627000000030F1E2536386700030F2540
:100210006740605000030F275188838100030F2738
:1002200050C8C3C2002700000000000000670000A3
:1002300000000000005000000000000000810000ED
:100240000000000000C2000000000000504C4C31D3
:100250000D0A00504C4C300D0A005620312E363716
:100260005F6E6F637265646974732043554C3836F2
:1002700038005620312E36375F6E6F6372656469C1
:1002800074732043554C3433330043554C5F56331D
:1002900000202F2000203D2000424F56460D0A002E
:1002A0004552523A4343410D0A000B08105B11F8C6
:1002B0001547191D1A1C1BC71C001DB221B623EAC5
:1002C0000007022E030D04E905CA070C0B060D21D9
:1002D0000E650F6A10C811931203153417331818DE
:1002E00019161B4321562500261129592C812D351D
:1002F0003EC3000D022D030106FF070008320B0666
:100300000D210E650F6C106A118312101322155007
:10031000181819161B431C401D9123E9242A250097
:10032000261F3E504C454E4552520D0A004C454E3C
:100330004552520D0A000007024604C605260B0668
:1003400010C81193120313221534173F18281916D9
:100350001B432156250026110D210E650F6A070C3F
:10036000160720F81E871F6B29592C812D353EC397
:10037000FF000001022E030104AA050F06FF07007B
:1003800008000B060D210E740FAD104B11F812165C
:1003900013721541181819161B0323E9242A250086
:1003A000261F3E500001022E030104AA050F06FF7E
:1003B000070008000B060D210E660F6610CA119388
:1003C000120613521535181819161B0323E9242A8F
:1003D0002500261F3E500001022E0301045505F0A2
:1003E00006FF070008000B060D210E660F99105935
:1003F0001183121E13521535181819161B0323E901
:10040000242A2500261F3E500D2E2D07D3913D0492
:10041000320000060010B07155E43023B900070027
:1004200018146C070090876BF85611E92A001F41D9
:10043000000D2E2D07D3913D04320000060010ABB5
:10044000A5550A3023B900070018146C07009087DF
:100450006BF85611E92A001F41004E2F4100454F0D
:10046000420D0A004E2F41004E2F41000053530011
:10047000547D7DFFFF4B4B7E7E0020697320756E9F
:100480006B6E6F776E2920557365206F6E65206FD8
:1004900066003F20280011241FBECFEFDAE0DEBF48
:1004A000CDBF11E0A0E0B1E0EEE9F2E602C00590B8
:1004B0000D92AC34B107D9F726E0ACE4B1E001C04D
:1004C0001D92A034B207E1F70CD00C944D3198CDB9
:1004D000F89481E085BF82E085BFE0E0F8E309950C
:1004E00008952FE088E190E00FB6F894A8958093E6
:1004F00060000FBE2093600090E080E80FB6F89493
:1005000080936100909361000FBE2E9A2D9A04B6DD
:1005100003FE0AC083E390E0D5D5882329F060E08C
:1005200083E390E0CAD5D4DF89EF87BD84E085BD41
:1005300082E084BD80936E00109280008AE08093F8
:10054000810084B7877F84BF6E9A0E94812BB9D6C1
:100550000E94C72E0E94F5260E94EF0D86E39BE2C3
:1005600090939B0380939A030E94AD1489E080933B
:10057000500176980E94A22F11D20E940B1049D3ED
:100580000E94A7150E949B160E94CF1D0E94092061
:100590000E94B118EFCF292F33272230310559F0AF
:1005A0002330310569F02130310539F582E190E0E1
:1005B00020E931E026C083E490E02DE431E021C061
:1005C00099278130910539F018F0029751F015C044
:1005D000E9E4F1E002C0E1E3F1E0849190E09F0101
:1005E00010C01E9903C021E131E002C021E231E0D8
:1005F000E1E2F1E0849190E004C080E090E020E04E
:1006000030E0FA013183208308958EBD0DB407FEDA
:10061000FDCF8EB50895A1E0B0E0E1E1F3E00C94E8
:10062000DA2F482F8A3008F048E088E0489F7001B0
:100630001124F701E450FE4F7F018BE290E0F701B7
:1006400064918C010F5F1F4F498337D5FFEFEF1A7D
:10065000FF0A49810333110511F0C801F0CF45505D
:10066000453010F461E101C067E184E290E025D5F6
:100670002196E6E00C94F62FCF93DF9382E090E092
:10068000FC01EF52FE4F6491EC01219616D5CB325E
:10069000D10511F0CE01F4CF87E390E0FC01ED58D5
:1006A000FE4F6491EC01219608D5C036D10511F0BA
:1006B000CE01F4CF1E9918C060E18FE090E0FDD428
:1006C00060EB80E190E0F9D461E781E190E0F5D45E
:1006D00060E184E490E0F1D460EB85E490E0EDD457
:1006E00061E786E490E0E9D488E095DFDF91CF917F
:1006F00008952898806C89DF80E087DF289A089524
:10070000A1E0B0E0E6E8F3E00C94DE2F28988064E6
:1007100069837BDF6981862F78DF289A2196E2E062
:100720000C94FA2F289871DF289A0895EF92FF927F
:100730000F931F93CF93DF93EC0110924602EA9838
:10074000209A289A8EE190E02FD328988EE190E0AD
:100750002BD3289A8DE290E027D380E3E3DF84E671
:1007600090E022D3289880E450DF7E0189E2E80EF1
:10077000F11C8E010F5F1F4FCE01A4D446DF0E1572
:100780001F0511F0E801F5CF289A28988EE73DDF84
:100790008BE290E0EC01219695D437DFC333D1058D
:1007A00011F0CE01F7CF289A83E3BCDF81E001D3BB
:1007B000CDB7DEB7E6E00C94F62FA1E0B0E0E3EEB3
:1007C000F3E00C94DE2F22E0298341E0BE016F5F4D
:1007D0007F4F019617D489811EDF82E090E0A6DF6B
:1007E0002196E2E00C94FA2FCF93EA9886E39ADF01
:1007F000CFEF85E397DFC1508077803229F08AE020
:1008000090E0D2D2C111F5CFCF910895CF93CFEF21
:1008100084E388DFC1508077803129F08AE090E05E
:10082000C3D2C111F5CFEA9ACF910895A2E0B0E00A
:10083000ECE1F4E00C94DC2F8C01FC018181873722
:10084000E9F441E0BE016F5F7F4FC8010296DAD341
:10085000892BA1F041E0BE016E5F7F4FC801049675
:10086000D1D3892B59F06A8189814ADF83E35ADF2A
:10087000CDDF8981C3D38A81C1D32CC041E0BE01C1
:100880006E5F7F4FC8010196BDD3892B21F18A810C
:10089000893969F410E0812F2CDFB0D3812F877064
:1008A000873009F437D31F5F1033A9F714C021DF55
:1008B000182F83E4E3D28A81A1D386EA91E01DD385
:1008C000812F9CD382EA91E018D340E262E0812F2D
:1008D00090E024D31FD32296E4E00C94F82F86E313
:1008E00021DF10929C031092FA01109246020895A3
:1008F00082E090E01BDF81E080939C031092FA017C
:100900001092460208950F931F93CF93DF93082F01
:1009100010E0C62FD0E085E3ECDE801731F0CE0189
:1009200043D21150C1F781E001C080E0DF91CF9147
:100930001F910F91089585E2DCDE8F3311F080E086
:10094000089586E3EFDE80914C01811104C083E5B8
:1009500092E0D3D202C08DE3E5DE83E3E3DE64E020
:1009600081E0D1DF85E2C5DE8F3349F780914C010C
:10097000811103C08CE492E0C0D281E0089585E348
:10098000B8DE8D3051F485E2B4DE8F3331F4D3DF3D
:1009900084E3C8DE80778031D9F7089580913306EB
:1009A000843009F069C08093E90080914D01811184
:1009B0002AC08091E80085FF26C08091F2009091C6
:1009C000F300892B31F06091F1008CEA95E0A1D41D
:1009D000F4CF8091E800982F9B7F9093E8008F7769
:1009E0008093E80081E080934D018EEC94E0909339
:1009F000990380939803E0919A03F0919B0381E01F
:100A0000099510924D0183E08093E90080912B05B8
:100A1000882391F18091E80085FF2EC0F8948091A1
:100A20002B05882369F08091F2009091F3008034C7
:100A3000910530F489E295E082D48093F100EFCF04
:100A400078948091F2009091F3002091E800322F89
:100A50003E7F3093E8002F772093E80080349105A3
:100A600059F40E946C2D8091E800982F9E7F9093FE
:100A7000E8008F778093E800089542E061EC82E01F
:100A80000E941C2D42E361E883E00E941C2D42E39A
:100A900060E884E00E941C2D109200011092010178
:100AA00010920201109203010895809134069091F2
:100AB0003506913229F0923261F1903299F512C0E7
:100AC000813A81F58091E800877F8093E80067E0B4
:100AD00070E080E091E00E94952D8091E800982FD1
:100AE0009B7F11C08132F1F48091E800877F809371
:100AF000E80067E070E080E091E00E943F2E809186
:100B0000E800982F9E7F9093E8008F778093E8000D
:100B10000895813239F48091E800877F8093E8005E
:100B20000C94462D08951F920F920FB60F92112428
:100B30008F939F93AF93BF93EF93FF9380919E0307
:100B400090919F03A091A003B091A1030196A11DD4
:100B5000B11D80939E0390939F03A093A003B09335
:100B6000A10380919D038F5F80939D03EBEEF4E0E2
:100B700080819181181619061CF401979183808356
:100B8000369685E0E330F80799F780910505909156
:100B90000605009729F001979093060580930505B7
:100BA000809118058F3F19F0815080931805FF91AF
:100BB000EF91BF91AF919F918F910F900FBE0F90CA
:100BC0001F9018952FB7F89440919E0350919F0362
:100BD0006091A0037091A103FC0140835183628363
:100BE00073832FBF0895A4E0B0E0E9EFF5E00C9423
:100BF000DE2FCE010196E6DF8C8100D28B81FED103
:100C00008A81FCD18981FAD185D12496E2E00C94C5
:100C1000FA2F1F93CF93DF9380919E0390919F03B0
:100C2000A091A003B091A10320914F01281709F4CE
:100C300058C080919E0390919F03A091A003B09112
:100C4000A10380934F01A895CBEED4E010E028815A
:100C50003981232B19F4812F0E9475291F5F269655
:100C60001430A9F78091050590910605892B11F4A0
:100C70000E94D12980911805811102C00E942D2A5D
:100C800080912B04882339F0815080932B048111AB
:100C900002C00E943B1680919D038D3710F1109287
:100CA0009D038091070181FF04C08EB190E48927E4
:100CB0008EB984E893E09093A3038093A20380917C
:100CC0004E018F5F80934E018C3359F410924E0188
:100CD0008091EA048F5F8093EA048C3310F01092C5
:100CE000EA04DF91CF911F910895A0E0B0E0EBE717
:100CF000F6E00C94D92F8C016EE070E00E942C314C
:100D00008D3009F04CC0769A80914602882341F0DC
:100D1000109246028AE391E07DD7DD24D39401C08E
:100D2000D12C80919C03811101C0E2DD5DDD84E066
:100D3000F82E5B9A88EE93E037D0C1E0D0E0EE2445
:100D4000E394F801EC0FFD1F8081813309F0E12C61
:100D50005B98EE2019F088EE93E002C080ED97E0FA
:100D600023D05B9AEE2019F080ED97E002C088EE68
:100D700093E01AD02196CD30D10509F75B9883E234
:100D800018D0FA94B1F68091A503882311F03EDDC6
:100D900002C086E3C7DCD1100E941A1C7698CDB73A
:100DA000DEB7E7E00C94F52F880F991F0197F1F754
:100DB000089520ED37E0815020F0F9013197F1F7E7
:100DC000FACF0895CF93DF93DC0113968C9113979C
:100DD000843509F050C0CD010396CC91FD01709689
:100DE0004DE04C1750F050E0D0E09E012F503109FB
:100DF0004217530709F03FC005C021912B3399F3E7
:100E00004F5FEFCFFE013E97E80FF91F2081243599
:100E100091F514963C911497218132132CC01596AC
:100E20003C9115972281321326C016963C91169755
:100E30002381321320C017963C91179724813213D7
:100E40001AC06197C80FD91F8581888386818983DD
:100E500081858A8382858B8383858C8384858D833A
:100E600085858E838C918A508C9312968C911297E3
:100E70008A5012968C93DF91CF910895CF93C82F0B
:100E800080913306843079F48091500180FF0BC04B
:100E900080912B0587FD82DD6C2F89E295E039D2A8
:100EA000CA3009F47BDD809134048823C9F0809135
:100EB000500183FF15C0CA3099F0CD3011F46BE3B7
:100EC00001C06C2F88EA93E024D2CD3019F488EA6F
:100ED00093E078DF83E080932B0482E080933304F7
:100EE000CF910895CF93DF93EC018991882311F07E
:100EF000C5DFFBCFDF91CF910895CF93DF93EC0156
:100F0000FE018491882319F0B9DF2196F9CFDF9192
:100F1000CF9108958DE0B2DF8AE0B0CFA6E0B0E0D7
:100F2000E4E9F7E00C94DC2F062F1E8215E02AE09E
:100F300030E01150E1E0F0E0EC0FFD1FE10FF11D9A
:100F4000B9010E94B42F805D8083CB0101500097CE
:100F500069F01111EECF0AC0112359F01150E1E0F0
:100F6000F0E0EC0FFD1FE10FF11D4083015007FF82
:100F7000F3CF81E090E08C0F9D1F810F911DB2DFB8
:100F80002696E4E00C94F82FA5E0B0E0EAECF7E058
:100F90000C94DE2F1D8224E0382F3F702150E22F69
:100FA000F0E03A3010F4305D01C0395CA1E0B0E00F
:100FB000AC0FBD1FEA0FFB1F308334E09695879579
:100FC0003A95E1F76150009739F7615067FD0BC022
:100FD000222349F02150E1E0F0E0EC0FFD1FE20F89
:100FE000F11D4083F2CF81E090E08C0F9D1F820FB6
:100FF000911D78DF2596E2E00C94FA2F40E362E041
:1010000090E0C2CFDC01FB0130E090E08D918823BD
:10101000A9F0813608F0805220ED280F2A3030F0F8
:101020002FEB280F263030F429EC280F292B3323FF
:1010300079F006C0803251F38A3341F3CF0105C005
:10104000CF0101962083415041F4861B970B0895F0
:10105000922F9295907F31E0D9CFFC01D5CF20E03F
:1010600030E05AE0FC014191CF01442379F0E0EDFA
:10107000E40FEA30B8F7F9015E9F90015F9F300DF1
:10108000112420533109240F311DECCFFB01318392
:1010900020830895982F92959F709A3010F4905D58
:1010A00001C0995CFB0190838F708A3010F4805DE1
:1010B00001C0895CFB01818308950E943F31F99949
:1010C000FECF08950C94373108951F93CF93DF938B
:1010D000162F11501F3F59F0EC012196F3DF8EDFE0
:1010E000112311F08AE3CADE1150CE01F3CFDF9154
:1010F000CF911F910895A2E0B0E0E1E8F8E00C94F0
:10110000DB2FFC0121812D3421F466E08AEF93E08E
:1011100005C0203529F460E18AED93E0D6DF26C0D2
:101120001A82198242E0BE016F5F7F4F01966ADF2B
:10113000098110E0823021F4102F00278A81082BCA
:10114000C801C0DFF82E82E599DE40E364E0C80103
:101150001BDF85E992E0D1DE8F2D50DF81E992E03F
:10116000CCDE40E262E08F2D90E0D8DED3DE229626
:10117000E5E00C94F72FA6E0B0E0E1ECF8E00C9489
:10118000D82F6C0143E0BE016F5F7F4F01963ADFBD
:10119000823058F1E980F12C823021F0FE2CEE24CF
:1011A0002A81E22A8C011127FE01E00FF11F6081E4
:1011B000C70183DF000F111F0F5F1F4F0C0D1D1D97
:1011C000F8018081882389F041E0BE016F5F7F4F85
:1011D000C80118DF892B49F08FEFE81AF80A6981F6
:1011E000C7016BDF0E5F1F4FEBCF2696E8E00C9434
:1011F000F42F41E067E071E0019604DF8091070180
:1012000080FF02C0769A01C076986091070184E35E
:1012100090E053CFA1E0B0E0E0E1F9E00C94DE2FE4
:101220001982009731F041E0BE016F5F7F4F019658
:10123000E9DE89818F3F09F4FFCF882321F061E047
:1012400083E390E03ADF0E94D22E10926E00F89471
:1012500028E088E190E00FB6F894A89580936000AC
:101260000FBE20936000FFCFCF93DF93EC0161E0CE
:1012700080E090E022DF63E481E090E01EDFFCD9B3
:1012800060E080E690E019DF60E081E690E015DF45
:1012900060E083E390E011DF62E084E390E00DDF43
:1012A00060E080E690E009DF60E081E690E005DF45
:1012B0008981883719F080E090E0ACDFDF91CF9131
:1012C000089580E090E0FEDE813029F481E090E036
:1012D000F9DE833419F080E090E0C6DF84E390E02B
:1012E000F1DE809307010895FC018181883419F4AF
:1012F0008AE892E007C01E9903C082E792E002C02C
:101300008AE592E0FADD06CEFC011282108211829B
:101310000895FC018FB7F894928197FD0EC09F5FEE
:101320009283208191E0920F9083DF01A20FB11D83
:1013300013966C93903809F410828FBF0895FC01C6
:101340009FB7F8948281882371F0815082838181D4
:1013500021E0280F2183DF01A80FB11D13968C9186
:10136000203809F411829FBF0895FA013081882343
:1013700069F0E1E0F0E0022E01C0EE0F0A94EAF716
:10138000DB01A30FB11D9C919E2B9C93222319F08E
:101390008FEF820F0BC081E0830F8C3010F4FA01C5
:1013A0008083FB01E80FF11D108287E090E0089533
:1013B000CF93C82F5B9A882319F08091530102C004
:1013C0008091550120E1829FC0011124EDDC5B98E2
:1013D000CC2319F08091520102C08091540120E188
:1013E000829FC0011124E0DCCF910895A9E0B0E014
:1013F000ECEFF9E00C94CE2F4C01D62E642E422E49
:101400001E2D769A80914602882341F01092460262
:101410008AE391E0FFD3BB24B39401C0B12C809147
:101420009C03811101C064DADFD980E1C89E90017C
:1014300011243A83298380E1A89E900111243C83E2
:101440002B832D2D30E03E832D83712CEE24E394ED
:10145000F12C512CC11002C0AA2041F05B9A898165
:101460009A81A2DC5B988B819C819EDC312C832D40
:10147000992787FD90952D813E818217930724F44B
:1014800080E096DF3394F3CFDD2011F081E090DF30
:1014900090E0292E332427FC30942614370424F0BE
:1014A00097E0280C391C1CC047E050E0280C391C80
:1014B0009701042E01C0220F0A94EAF7F1018081FE
:1014C00082234F835887998773DF4F815885415016
:1014D000510999854F3FFFEF5F0751F79F5FD9CFC4
:1014E000292F332727FD30954216530674F49701B0
:1014F000092E01C0220F0A94EAF7F10180818223AC
:10150000998756DF99859150EBCF812F52DC01509E
:1015100009F0A0CF8091A503882311F077D902C0EC
:1015200086E300D9B1100E941A1C76982996E2E150
:101530000C94EA2FADE0B0E0E0EAFAE00C94D12F91
:101540007C01162F842F022F6701C60ED11C462F57
:10155000B70175D3D6018C931F5F1D8619825E2C4F
:10156000670127E066246394712C8C2D85198117FF
:1015700088F537E0A32EB12C4701880E911CF301AA
:101580000A2C01C0EE0F0A94EAF7D4018C91AE0147
:10159000435F5F4FBE016F5F7F4F8E23E6DE282FD4
:1015A000B1E0AB1AB10858F7D6018D916D01082E44
:1015B00082958025082E8695869580258F5F869555
:1015C0008170AE01435F5F4FBE016F5F7F4FCDDE25
:1015D000282FCBCF222311F0215004C08D858F5F9F
:1015E0008D8727E089E1809354018093550185E23E
:1015F0008093520180935301A12CC12C9AE0E92ED3
:101600004D856CE0CE010196F1DE2D96EFE00C9455
:10161000ED2FADE0B0E0EFE0FBE00C94DD2F162FF6
:10162000242F4BE0BE016F5F7F4F01962D87EADCD0
:101630002D85412F682FCE0101967CDF2D96E3E0AA
:101640000C94F92F43E066E0E4CFAF92CF92EF9293
:101650000F93CF93DF93CDB7DEB760970FB6F894B3
:10166000DEBF0FBECDBF40E1BE016F5F7F4F019671
:10167000C9DC69814A810B818C81809355018D8100
:10168000809354018E81809353018F818093520106
:10169000E02EE2945FE0E5220F70242F2F70429538
:1016A0004F70A12CC12CCE010896A0DE60960FB61B
:1016B000F894DEBF0FBECDBFDF91CF910F91EF90B9
:1016C000CF90AF900895A9E1B0E0E9E6FBE00C947B
:1016D000D62F4BE0BE016F5F7F4F019693DC182F32
:1016E000893009F05CC099E19093540190935501C1
:1016F0009093530182E38093520169E0CE010196F9
:10170000A8D2E1E0F0E0EC0FFD1FE10FF11D8083B6
:10171000198E1D86CE0101967C016E019BE0C90EDB
:10172000D11C27E0AA24A394B12CEC14FD0429F1C8
:1017300000E010E0F501002E01C0EE0F0A94EAF778
:10174000D7018C91AE01475E5F4FBE01635F7F4F53
:101750008E230BDE282F0F5F1F4F0830110551F726
:10176000AE01475E5F4FBE01635F7F4F81E0FDDDED
:10177000282FBFEFEB1AFB0AD8CF222311F02150FC
:1017800004C0898D8F5F898F27E0A12CC12C6AE06E
:10179000E62E03E0498D6CE0CE010D9627DE6996BA
:1017A000EAE00C94F22FA9E1B0E0E9EDFBE00C9443
:1017B000D52F4BE09E012F5F3F4F7901B901019674
:1017C00021DC182F85E38093550196E19093540115
:1017D0009093530180935201612FC70146D2F701C4
:1017E000E10FF11D808399249394910E198E1D862B
:1017F000870127E0AA24A394B12C802F8E19891584
:1018000008F04AC0C12CD12CF5010C2C01C0EE0F00
:101810000A94EAF7D8018C91AE01475E5F4FBE0192
:10182000635F7F4F8E23A1DD282FBFEFCB1ADB0A2A
:1018300034E0C316D10441F7AE01475E5F4FBE01ED
:10184000635F7F4F81E091DD282FF4E0CF2ED12C14
:10185000F5010C2C01C0EE0F0A94EAF7D8018C9127
:10186000AE01475E5F4FBE01635F7F4F8E237DDD1C
:10187000282FBFEFCB1ADB0A38E0C316D10441F79B
:10188000AE01475E5F4FBE01635F7F4F81E06DDD5C
:10189000282F0F5F1F4FB1CFA12CC12CEAE0EE2EF5
:1018A00003E0498D6AE0CE010D96A0DD6996EBE07C
:1018B0000C94F12FAF92CF92EF920F93CF93DF93CF
:1018C00000D000D0CDB7DEB743E0BE016F5F7F4FE1
:1018D000019698DB8AE68093550194E29093540137
:1018E00091E2909353018093520180E88C83A12C64
:1018F000C12CBFE0EB2E03E026E043E060E0CE0128
:10190000019674DD0F900F900F900F90DF91CF91A3
:101910000F91EF90CF90AF900895AF92CF92EF924A
:101920000F93CF93DF93CDB7DEB72C970FB6F89414
:10193000DEBF0FBECDBF4BE0BE016F5F7F4F029693
:1019400061DB8530C1F48EE3809355018CE1809397
:10195000540181E2809353018AE38093520105E2AE
:10196000A02E8AEFC82EE12C05E024E044E068E0D8
:10197000CE0101963BDD2C960FB6F894DEBF0FBE6C
:10198000CDBFDF91CF910F91EF90CF90AF900895A1
:101990008F929F92AF92BF92DF92EF92FF920F933E
:1019A0001F93CF93DF931092710110928601FC0177
:1019B0002181220F220F220F3381231B57E0520F68
:1019C0001092720110E070E038E0D32ED20EFF24A6
:1019D000F39447E007E0E12CC7E0D0E0A1E0B0E0FD
:1019E000FD1409F47FC0FC01EE0DF11D248130E0EF
:1019F000002E02C0359527950A94E2F7217033270F
:101A0000E22F002311F0015002C0E39407E06B3491
:101A100071F4433009F04AC0111107C0E1115FC0F1
:101A2000109271017093860174C010E041C04F3F65
:101A300031F56634A9F4E72FF0E0EE58FE4FE0816F
:101A40000E2EE295E0250E2EE695E695E025EF5F59
:101A5000E1FB882480F8912C8216930641F004C0A3
:101A6000653429F4E11103C010937101DBCF7F5F6E
:101A7000E72FF0E0EE58FE4F108247E031C0EE2332
:101A800061F1663471F4E72FF0E0EE58FE4FA0806C
:101A90009D01042E01C0220F0A94EAF7A22AA08217
:101AA0001CC0653439F06B34C1F404C04F3FD1F22F
:101AB000EE2399F0E72FF0E0EE58FE4F9E01241B35
:101AC000310947FD33955D0102C0AA0CBB1C2A9564
:101AD000E2F795013081322B3083415001C011E093
:101AE000F3947ECF10937101709386015F1588F493
:101AF000653431F44F3F21F47F5F7093860104C059
:101B0000809171018111F8CF81E09091860191114E
:101B100001C080E0DF91CF911F910F91FF90EF9076
:101B2000DF90BF90AF909F908F90089510926F00BC
:101B3000E09189018CE1E89FF0011124E657FE4F06
:101B400010828091A4038D7F8093A4030895FC01EB
:101B50002181243108F0EACF3381662381F081E0CE
:101B600090E0032E01C0880F0A94EAF7DF01A20F6C
:101B7000B11D14969C911497982B14969C93332323
:101B800019F031503383089587E083832F5F2183D9
:101B9000E20FF11D14820895DC011196EC9111976A
:101BA000F0E050E02C91CF01841B950B0B964797EA
:101BB000A0F430E070E0C901861B970B0B964797A5
:101BC00060F42E0F3F1F640F751F261B370B255F18
:101BD0003F4F81E02731310508F080E00895539AA6
:101BE0005B985298E9E6F0E08081806180831092F2
:101BF000A6011092C2011092DE0110929C0308957A
:101C00008091A503882321F00E9478040C94060497
:101C10000C946F04FC01218121110BC08091A5035C
:101C2000EDD940E265E08091A2039091A30376D9BB
:101C300071C941E065EA73E00196E4D9E1CF44233C
:101C400039F04150FB01E40FF11D9081890FF7CF6E
:101C5000089520E0662339F06150FC01E60FF11D84
:101C600030812327F7CF822F0895A091710140E0A2
:101C700035E020E0662399F06150FC01E60FF11D8C
:101C80005081752F72957F702727370FAA2311F087
:101C9000442319F05F702527350F4F5FEBCF320FCC
:101CA00040E1349FC0011124822B0895FC01328150
:101CB0002381A081B181A30FB11D8C9190E0022EF0
:101CC00002C0959587950A94E2F7817099274FEFA6
:101CD000420F4383211104C03F5F328327E02383F7
:101CE0000895A2E0B0E0E7E7FEE00C94D62F7C0177
:101CF000A12CB12CD12CCC24C394062F10E0015080
:101D00001109A616F0F4C7014A836983CFDF4A811F
:101D10006981882391F0442349F098012A193B09ED
:101D20008C2D01C0880F2A95EAF706C08C2D0A2C4D
:101D300001C0880F0A94EAF7D82A8FEFA81AB80AC8
:101D4000E0CF8D2D2296EAE00C94F22FA4E0B0E0D3
:101D5000ECEAFEE00C94D52F1B8227E02C839C013B
:101D60002C5F3F4F3A83298310928601FC01218129
:101D7000338187E090E0831B9109F8E02F9F800D6D
:101D8000911D1124853491050CF44EC0B12CA09006
:101D90008601F5E0FA1558F10A2D10E040E068E000
:101DA000CE0101969EDF0E581E4FF8018083982EBB
:101DB000092C92949024092C969496949024CE0108
:101DC000019674DF939491FACC24C0F8D12C90E062
:101DD000C816D90649F5CE01019668DF811124C0E5
:101DE000F8018081B826A394A0928601D0CF40E06C
:101DF00068E0CE01019675DF082F182F012E12958D
:101E00001025012E169516951025CE0101964EDF50
:101E10001F5F11FBEE24E0F8F12C282F30E0E216D2
:101E2000F30611F481E0B01280E02496EBE00C940C
:101E3000F12FA5E0B0E0EFE1FFE00C94D92FFC0119
:101E40001B8287E08C83CF0104969A8389838081EB
:101E5000853009F051C02181338187E090E0831BF8
:101E6000910938E0239F800D911D1124803991053F
:101E700009F042C0109286010FE010EF29E880912E
:101E80008601E82EF12CDD24D394D80E41E068E0E1
:101E90008F3088F4CE0101962D8323DF080F111DAA
:101EA000F701EE58FE4F2D812827208324E2280FCA
:101EB000D0928601E4CFCE01019613DF080F111DE9
:101EC000D0928601F701EE58FE4F8095808341E065
:101ED00068E0CE01019605DF90E0982F8827081B67
:101EE000190B41E068E0CE010196FBDE282F30E0BF
:101EF00081E00217130709F080E02596E7E00C94D3
:101F0000F52FA4E0B0E0E7E8FFE00C94DB2F1B82A4
:101F100027E02C839C012C5F3F4F3A832983FC01EF
:101F200021812430A1F58381813089F510928601C9
:101F300080918601082F10E0FF24F394F80E41E011
:101F4000843098F4811106C067E0CE010196C9DEA5
:101F5000806804C068E0CE010196C3DEF801EE5847
:101F6000FE4F8083F0928601E3CF67E0CE010196B9
:101F7000B8DEF801EE58FE4F880F8083F09286019C
:101F80009091720192959F7081E09A3009F080E003
:101F90002496E5E00C94F72FCF93DF93FC01818129
:101FA0008330E9F483818730D1F480818830B9F4BB
:101FB0001092860120E0822F90E0DC01AE58BE4FE7
:101FC000EF01C80FD91F8C818C9381E0820F833081
:101FD00010F4282FF0CF8093860181E001C080E0CB
:101FE000DF91CF910895FC0190818091A4039936EF
:101FF00011F0933751F4982F9370913011F482605F
:1020000006C080FF07C08B7F03C080FD03C08460D3
:102010008093A4030895A1E0B0E0E1E1F0E10C9425
:10202000DA2F1982809156018823B9F18091A50396
:1020300087FF17C084E30E9479038058803458F0EA
:10204000803C58F490E08055910953E09595879530
:102050005A95E1F703C080E001C08FE08F590E94DC
:102060003E078091A50383FF16C082E70E943E07CA
:102070008091A50384FF04C0809157010E943E0710
:1020800086E60E943E078091A50384FF04C08091EC
:1020900056010E943E0710925601809187018823C5
:1020A00009F451C2769A009188012CE1029F8001C7
:1020B000112406571E4F8981811106C0C8016CDFAB
:1020C000882311F083E789838981811106C0C801C3
:1020D000B0DE882311F083E589838981811139C0BD
:1020E00066E4C80155DC8823A1F1F0908601FA94DA
:1020F000F09286014F2D62E771E086E0A0DDEF2DC2
:10210000F0E0EE58FE4FE0808E1105C093E09F1581
:1021100010F486E41BC0282F30E02F5F3F4F6E2D58
:1021200070E02617370739F423E02F1520F496E4E2
:10213000998380830EC04F2D62E771E08CE07FDDD4
:102140008E1106C083E08F1518F484E5898301C0E1
:1021500019828981811116C065E4C80119DC8823C0
:1021600089F080918601815080938601893051F4F5
:1021700069E082E791E06DDD90917B01891302C0F7
:1021800085E489838981811106C0C801DFDD882348
:1021900011F088E489838981811106C0C801B1DE0C
:1021A000882311F084E789838981811133C0F80184
:1021B000438D60915701C8014A96EEDC682FC80133
:1021C000C6DC6BE4C801E4DB8823B1F0F090860143
:1021D000FA94F09286016F2D82E791E046DDEF2DB3
:1021E000F0E090917101E91BF109EE58FE4F9081EA
:1021F000891302C08BE48983898181110BC0F801A6
:10220000838191E0980F9383873021F41382818139
:1022100081508183898181112DC0F80181818430B1
:1022200049F58381843031F54EE16CE3C80148966D
:10223000B3DC8823F9F04EE160915701C8014A965A
:10224000ABDC682FC80183DC20E0822F90E0FC012A
:10225000EE58FE4FD801A80FB91F14968C918083B9
:1022600081E0820F853010F4282FEFCF8093860114
:1022700082E589833981332309F4D9C02091A503EC
:1022800020FFD5C08091A4038E7F8B7F8093A40311
:1022900021FD64C050917001F09086015F113DC036
:1022A00040E04517C0F4842F90E061E0640FFC012A
:1022B000E45AFE4FDC01AE58BE4F70818C91781706
:1022C00041F0409370018091A4038D7F8093A4031B
:1022D00004C0462FE6CF4093700145131EC04091C5
:1022E0009E0350919F036091A0037091A103809180
:1022F000580190915901A0915A01B0915B01481B7E
:10230000590B6A0B7B0B463251056105710528F4A8
:102310008091A40381608093A40340E04F1560F492
:10232000842F90E0FC01E45AFE4FDC01AE58BE4F12
:102330008C9180834F5FF2CF4093700180919E0318
:1023400090919F03A091A003B091A10380935801A5
:1023500090935901A0935A01B0935B013435E9F48D
:1023600026FD1BC0809186018530B8F080917401F4
:102370008B3471F0893661F09DEA980F923040F00D
:102380008D57823028F0809175018077803729F44D
:102390008091A40381608093A403B801CE010196CB
:1023A00022DE8981843569F490913404992349F0BF
:1023B0009091E904911105C09091A4039B7F9093A3
:1023C000A4039091A40392FF32C00E943E07809123
:1023D0007101882329F080918601815080938601C4
:1023E000F12CE0918601FE1648F4EF2DF0E0EE5856
:1023F000FE4F80810E94FE07F394F3CF809171011C
:10240000882351F0F0E0EE58FE4F80818F7040E35A
:1024100061E090E00E94C4078091A50385FF05C09C
:1024200084E30E9479030E94FE070E948A0780913C
:10243000A50382FF6FC080E70E943E07F8018081FC
:1024400040E262E090E00E948E07F801808D40E259
:1024500065E0F0E18F9FC00111240E948E07F80112
:10246000818D40E265E0F0E18F9FC00111240E9460
:102470008E07F801828D40E265E0F0E18F9FC00198
:1024800011240E948E07F801838D40E265E0F0E19F
:102490008F9FC00111240E948E07F801828140E2C3
:1024A00063E090E00E948E07F801818140E263E0E2
:1024B00090E00E948E07F801238140E262E087E00D
:1024C00090E0821B91090E948E0780E20E943E07E5
:1024D0008091A50385FF08C084E30E9479030E94D0
:1024E000FE0780E20E943E07F8018381873019F0E1
:1024F00081818F5F8183F12CF8018181F81640F48E
:10250000F801EF0DF11D84810E94FE07F394F4CFD2
:102510000E948A07F8011082809187018150809380
:102520008701809188018F5F843019F08093880142
:1025300002C01092880176988981843521F482E75F
:1025400091E00E943C2A2196E6E00C94F62F1F921F
:102550000F920FB60F9211242F933F934F935F93D7
:102560006F937F938F939F93AF93BF93EF93FF935B
:1025700010926F008091A50383FF03C08EE20E943A
:102580003E07809189019CE1899FF0011124E65763
:10259000FE4F9081933018F09181923010F4C6DA9A
:1025A00018C090918701933049F48091A50382FF70
:1025B000F6CF89E992E00E947D07F1CF9F5F90936B
:1025C00087018F5F843019F08093890102C01092D7
:1025D0008901FF91EF91BF91AF919F918F917F9171
:1025E0006F915F914F913F912F910F900FBE0F9080
:1025F0001F9018959BED980F973150F496EF960F1A
:102600009D3130F491E0681708F090E0892F08952B
:1026100080E008951F920F920FB60F921124FF923F
:102620000F931F932F933F934F935F936F937F93DA
:102630008F939F93AF93BF93CF93DF93EF93FF93CA
:1026400080912C04823021F483E080932C045BC1C0
:10265000009184001091850064E0169507956A95B5
:10266000E1F7C09189019CE1C99FE0011124C6579F
:10267000DE4F9881943031F40E3208F444C10F34A7
:1026800048F0B6C0953031F4073108F43CC1083247
:1026900008F0AEC04A990DC09450923038F461E011
:1026A000CE0155DA109285001092840000935701F4
:1026B0002AC180915701081B009356011092850092
:1026C000109284009881983071F42A8121110BC0F6
:1026D00021E02A83888F8A8F098F0B3B10F4000F2B
:1026E00001C006950B8F9450923020F460E0CE012B
:1026F0002EDA09C182E086BBF880F11011C09091FA
:102700005701953608F0FFC080915601853608F0D4
:10271000FAC0988F898F81E08A8382E08883F3C032
:102720001091560182E0F81273C000915701412FB9
:10273000602FCE01489630DA6A818823F9F0488DFF
:1027400050E09A01220F331F240F351F200F311D37
:102750003595279535952795288F298D30E0C90126
:10276000880F991F820F931F810F911D9595879553
:1027700095958795898F6F5F6A83C5C0643008F42B
:1027800045C020EA3FE030938900209388008A8189
:102790008C3050F0888D298D30E0280F311D253682
:1027A000310524F084E027C08A3088F0888D298D97
:1027B00030E0280F311D253231054CF485E0888347
:1027C00028EE33E0309389002093880015C0809173
:1027D000A703882379F0612F802F0CDF882351F025
:1027E000688D898D07DF882329F081E080932C0490
:1027F0009DD989C083E088830A8F1B8F198287E067
:102800008B831C8282E080936F007DC0188277CF1B
:1028100098E0F91225C081E9810F8D3178F460E0EC
:10282000CE0195D9288D30E0C901880F991F820FFC
:10283000931F20915701820F911D4EC0173E08F43F
:1028400062C061E0CE0183D92A8D30E0C901880FD2
:10285000991F820F931F20915701820F911D15C060
:1028600000915701412F602FCE014A9695D98823B8
:1028700001F161E0CE016BD92A8D30E0C901880FEA
:10288000991F820F931F800F911D959587959595A0
:1028900087958A8F2B8D30E0C901880F991F820F91
:1028A000931F810F911D95958795959587958B8F92
:1028B0002AC0412F602FCE0148966ED9882301F19E
:1028C00060E0CE0144D9288D30E0C901880F991FFE
:1028D000820F931F800F911D9595879595958795EC
:1028E000888F298D30E0C901880F991F820F931FAF
:1028F000810F911D9595879595958795898F03C033
:1029000087E0F81275CFFF91EF91DF91CF91BF91E2
:10291000AF919F918F917F916F915F914F913F9177
:102920002F911F910F91FF900F900FBE0F901F904E
:102930001895E09189018CE1E89FF0011124E65798
:10294000FE4F8081811107C081E0909118059F3F63
:1029500019F480E0089581E0089580E690E00E94F7
:1029600062088093A70381E690E00E94620880934A
:102970003404882321F081E28093A50341D9109289
:102980002D0408955B9A0C94D4065B980C94D4069D
:10299000A7E0B0E0EEECF4E10C94D92F3091AB035A
:1029A00090E0E92FF0E0E35DFB4F2081222309F462
:1029B00071C0321711F09F5FF4CF95E79983882398
:1029C00099F0BE016E5F7F4F809134040E944A08E7
:1029D000BE016C5F7F4F8091A7030E944A0885E586
:1029E0008E8386E0D82E02C0DD24D3940E94780422
:1029F0000E94F40316E080E891E0C4DF80E093E0F9
:102A0000C4DF1150C1F780E093E0BCDF80E891E0C3
:102A1000BCDF80E891E0B6DF5B9887E390E00E943E
:102A2000960383E00E94D90628988FE70E94050349
:102A30008091AA038D0D0E940503CE0101967C01B1
:102A40008C01F80181918F010E940503802F8E195E
:102A50008D15B8F38091AA03882339F088EA93E0B2
:102A60000E949F090E940503F5CF289A0E94F40353
:102A700088EA93E00E94840915E18AE30E947903C1
:102A80008F7731F0115021F081E00E94D906F5CF07
:102A9000B7D807C0992309F490CF88EA93E00E9441
:102AA00084092796E7E00C94F52FCF93DF93EC0190
:102AB000898181110BC08091A7030E94FE0780913C
:102AC00034040E94FE070E948A073EC0863681F4C5
:102AD0002296ADE2B4E0E0E08991882321F08D9365
:102AE000EF5FE530C9F7F0E0E35DFB4F10822CC0EB
:102AF0008936D9F441E067EA73E0CE0102960E947C
:102B000002086091A70380E690E00E945D0841E022
:102B100064E374E0CE0104960E94020860913404DC
:102B200081E690E00E945D080FC088EA93E00E9471
:102B3000840921966991662329F088EA93E00E942E
:102B40008909F8CF80E024DFDF91CF910895A1E0DB
:102B5000B0E0EDEAF5E10C94D82F80912C048823A5
:102B600009F485C0C0909E03D0909F03E090A0031D
:102B7000F090A103833009F060C08FE30E947903D5
:102B8000182F8630C8F08CEA95E00E9484092898B6
:102B90008FEF0E94050380E00E940503082F11506B
:102BA00049F080E00E940503682F8CEA95E00E94BE
:102BB0008909F5CF289A01C000E022D810922C0490
:102BC000053709F054C041E0BE016F5F7F4F8FEAC7
:102BD00095E00E940208019759F599818091A70319
:102BE000981326C08091B305853571F48091AE05A8
:102BF000882339F08CEA95E00E949F090E943E07E5
:102C0000F5CF0E948A0733C08091AE05845080932F
:102C1000AE0584E08093AD056AE08CEA95E00E9401
:102C20008909E0919A03F0919B0388E009951FC000
:102C30008CEA95E00E9484091AC0823059F4809190
:102C4000A6039C2D981B983090F00E94000E1092C5
:102C50002C040DC0813059F487E390E00E94960364
:102C60000E94060482E080932C04C092A603219661
:102C7000E8E00C94F42F5DDE882319F083E0809364
:102C8000330480913304815080933304882321F0EE
:102C900083E080932B04089581E07ACECF93DF9375
:102CA000EA98209A289A8EE190E00E94D40628980B
:102CB0008EE190E00E94D406289A8DE290E00E9476
:102CC000D40680E30E94920384E690E00E94D4063A
:102CD000C0ECD2E0FE0131966491FE0184910E9425
:102CE00080032296F2E0C23FDF07A1F78091FB014B
:102CF000811107C083E30E94920384E00E94D906F9
:102D00000FC0CAEAD2E0FE0131966491FE018491BF
:102D10000E9480032296F2E0C03CDF07A1F7EACFD1
:102D200084E30E94920385E30E9479038D30C1F70A
:102D3000DF91CF910895A2E3B0E0E1EAF6E10C94CF
:102D4000DC2F8091FA01882309F4A1C04A9B8AC034
:102D50008FE30E9479038F778983823368F08AE357
:102D60000E94920386E30E9492038DE30E949203E5
:102D700084E30E9492038BC028988FEF0E94050382
:102D800010E08981181760F480E00E940503E2E0FA
:102D9000F0E0EC0FFD1FE10FF11D80831F5FF1CF0D
:102DA00080E00E940503082F80E00E940503289A16
:102DB00084E30E94920385E30E9479038D30C1F77A
:102DC0002A8196E792279A8392E08981E92FF0E0A1
:102DD000981768F441E050E04C0F5D1FE40FF51FB9
:102DE00030812452232720839F5F232FEECF81E061
:102DF00090E08C0F9D1FE80FF91F90818B81982721
:102E000090838091A50384FF12C081E60E943E0753
:102E100010E08981811730F1E1E0F0E0EC0FFD1F57
:102E2000E10FF11D80810E943E071F5FF2CF81E418
:102E30000E943E0710E08981811758F0E1E0F0E040
:102E4000EC0FFD1FE10FF11D80810E94FE071F5F47
:102E5000F2CF8091A50385FF03C0802F0E94FE075B
:102E60000E948A0785E30E947903813029F081312D
:102E700061F48AE30E94920386E30E9492038DE349
:102E80000E94920384E30E9492030E94BF04E29690
:102E9000E4E00C94F82F8F929F92AF92BF92DF9252
:102EA000EF92FF920F931F93CF93DF93CDB7DEB7CF
:102EB000EA970FB6F894DEBF0FBECDBF41E38E0197
:102EC0000F5F1F4FB80101960E9402087C019927ED
:102ED0000197298130E08217930709F0A3C0809100
:102EE000FA01811104C0DADE83E00E94D906DB809A
:102EF0008A8196E789278A8322E03981822F90E0B0
:102F0000F801E80FF91F231750F4DE01A80FB91FCD
:102F10008C9184529081892780832F5FEECF8081AE
:102F20008D258083CE01C7960E94E20585E30E942D
:102F3000920385E30E947903833181F1CE01C39628
:102F40000E94E2054BA95CA96DA97EA98FA998AD45
:102F5000A9ADBAAD84179507A607B70760F44A0173
:102F60005B01881A990AAA0ABB0A2DEB8216910402
:102F7000A104B10470F4481759076A077B0770F47D
:102F800084549F4FAF4FBF4F84179507A607B707CD
:102F900028F480EA92E00E947D0727C085E30E9422
:102FA0007903833119F6D4FE08C088E70E94D90658
:102FB00088E70E94D90688E701C08AE00E94D90606
:102FC00028988FE70E94050358018A2D801B8E15D3
:102FD00030F4F50181915F010E940503F6CF289A34
:102FE00085E30E9479038331D9F385E30E94790355
:102FF000863149F48BE30E94920386E30E94920398
:103000008DE30E9492038091FA01882349F084E3C2
:103010000E94920385E30E9479038D30C1F702C0BC
:103020000E94000EEA960FB6F894DEBF0FBECDBF29
:10303000DF91CF911F910F91FF90EF90DF90BF90A4
:10304000AF909F908F900895FC012181223731F03D
:10305000223559F481E08093FB0102C01092FB01FC
:103060001DDE81E08093FA010895233711F4019663
:1030700012CF1092FA010895282F2A7A30E0359560
:103080002795982F957529272535310559F4982FBF
:10309000907696959695969586708695892B95E06F
:1030A000892708958FEF08951092FC0182E08093A4
:1030B000FD0180910102882379F08091FD01833028
:1030C00021F48091FC01823020F48091FD01843054
:1030D00011F4769A01C0769880E98093C9000E9425
:1030E0000604EA9808951092FC0184E08093FD01A3
:1030F00080910102882379F08091FD01833021F4D1
:103100008091FC01823020F48091FD01843011F423
:10311000769A01C076980E94F403EA9888E2809338
:10312000C90008951092FC0181E08093FD01809117
:103130000102882379F08091FD01833021F4809190
:10314000FC01823020F48091FD01843011F4769AE4
:1031500001C076981092C90086E30E949203EA9813
:1031600008951F93CF93DF938091FD018330E9F59C
:103170008091FC018430C9F580910102882381F09F
:1031800080910202882361F08DE391E00E94720732
:10319000809102020E943E078AE30E943E0704C01B
:1031A00080E491E00E94720710E0809105021817F8
:1031B000C8F4C12FD0E0CA5FDD4F888182958F703F
:1031C0008A3010F4805D01C0895C0E943E078881CE
:1031D0008F708A3010F4805D01C0895C0E943E07C8
:1031E0001F5FE3CF0E948A075FDFDF91CF911F91BE
:1031F0000895539A1092CD008CE08093CC001092E9
:10320000C8001092C90086E08093CA000895CF9349
:10321000DF93209A289A8EE190E00E94D4062898A5
:103220008EE190E00E94D406289A8DE290E00E9400
:10323000D40680E30E94920384E690E00E94D406C4
:10324000C2EFD2E0FE0131966491FE0184910E94AA
:1032500080032296F3E0C432DF07A1F783E30E94E4
:10326000920384E00E94D906C4DF1092FC0181E041
:103270008093FD0180910102882379F08091FD0106
:10328000833021F48091FC01823020F48091FD0193
:10329000843011F4769A01C07698DF91CF91089529
:1032A000CF93DF93EC018981843649F018F48823A9
:1032B000C9F153C08C3639F0833791F04EC081E0AC
:1032C0008093010202C0109201028091FD018111E0
:1032D00001C09DDF8091FD018130F1F4E5DE1CC06D
:1032E0008091FD01811101C092DF8091FD0181304B
:1032F00021F08091FD01823091F48091FD018230B6
:1033000009F410DF40E466E072E0CE0102960E940C
:10331000020880930402E7DE83E491E020C086E4A3
:1033200091E01DC010920102FDDE1092FC0110928E
:10333000FD0180910102882379F38091FD018330A2
:1033400021F48091FC01823020F48091FD018430D1
:1033500011F4769AE1CF7698DFCF89E491E00E946C
:1033600072070E948A07DF91CF9108951F920F92F2
:103370000FB60F9211242F933F934F935F936F9348
:103380007F938F939F93AF93BF93EF93FF9380911E
:10339000FD01843009F0D8C08091FC01853039F1FD
:1033A00018F4882341F0D0C0863009F450C087302B
:1033B00009F4B5C0C9C01092050285E08093FC01F4
:1033C0008091FD018093FD0180910102882379F0B5
:1033D0008091FD01833021F48091FC01823020F442
:1033E0008091FD01843011F4769A01C07698E091C5
:1033F000050281E08E0F80930502F0E0E45FFE4F4E
:1034000080818093CE00809105028A3008F49DC0AF
:1034100086E08093FC018091FD018093FD01809105
:103420000102882379F08091FD01833021F480919D
:10343000FC01823020F48091FD01843011F4769AF1
:1034400001C0769810920302109200026DC0809124
:10345000000281112BC090910502809104029817FF
:1034600090F490910302E0910502F0E0EA5FFD4FD5
:103470008081890F80930302E0910502F0E0EA5F0A
:10348000FD4FE08103C0E0910302E195AE2FA295CC
:10349000AF70B0E0AA5EBE4F8C918093FE01EF70DA
:1034A000F0E0EA5EFE4F80818093FF01E091000230
:1034B00081E08E0F80930002F0E0E250FE4F8081A9
:1034C0008093CE0080910002823009F03EC080914E
:1034D00005028F5F80930502109200029091050211
:1034E00080910402891788F587E08093FC01809120
:1034F000FD018093FD01809101028823A9F0809154
:10350000FD01833021F48091FC01823020F4809110
:10351000FD01843011F4769A07C0769805C0809139
:103520000502843020F0C0DD109205020EC0E0914B
:10353000050281E08E0F80930502F0E0E85FFE4F08
:1035400080818093CE0001C0AFDDFF91EF91BF91EC
:10355000AF919F918F917F916F915F914F913F912B
:103560002F910F900FBE0F901F9018951F920F92E2
:103570000FB60F9211242F933F934F935F936F9346
:103580007F938F939F93AF93BF93CF93EF93FF93CB
:103590009091C8008091CE002091FD01223051F021
:1035A0002091FD01233009F033C12091FC0124302A
:1035B00009F42EC1292F2871F9F08091FD01833083
:1035C00009F026C12091FC0180910102223060F0B7
:1035D00094FF05C0882309F4FAC086E4DFC088237D
:1035E00009F4F5C08FE4DAC01092FC0192E09093E8
:1035F000FD018111DCC00CC19091FC01913061F1A1
:1036000020F0923009F478C003C196E0909305024F
:10361000E0910502F0E0E45FFE4F90818913F8C06D
:1036200081E08093FC0183E08093FD0180910102A1
:10363000882379F08091FD01833021F48091FC0191
:10364000823020F48091FD01843011F4769A01C01B
:10365000769810920202D7C0909105029A3030F508
:10366000E0910502F0E0E45FFE4F9081891306C00F
:10367000809105028F5F8093050218C01092FC01B3
:1036800082E08093FD0180910102882379F080918E
:10369000FD01833021F48091FC01823020F480917F
:1036A000FD01843011F4769A01C07698809105026C
:1036B0008A3009F0ADC082E08093FC018091FD0169
:1036C0008093FD0180910102882379F08091FD01B2
:1036D000833021F48091FC01823020F48091FD013F
:1036E000843011F4769A01C07698109205021092F7
:1036F0000002109203028CC020910502203458F081
:1037000080910102882311F08CE448C01092FC01E2
:103710009093FD017DC0E091000291E09E0F909397
:103720000002F0E0E250FE4F80839091080189137F
:103730001EC08091050290910102823020F080919C
:103740000302882329F0992309F441C083E426C0A9
:103750008091050281508093050284E08093FC01F2
:103760008091FD018093FD01911121C051C0809194
:103770000002823009F04CC0109200028091FE01DC
:103780007BDCC82F8091FF0177DCCF3F11F08F3FAA
:1037900021F5809101028823D1F08DE4809302020B
:1037A00084E08093FC018091FD018093FD01809174
:1037B000FD01833021F48091FC01823020F480915E
:1037C000FD01843011F4769A23C0769821C01092BE
:1037D000FC0182E08093FD011BC0E0910502F0E056
:1037E00090E1C99F90011124282BEA5FFD4F2083AF
:1037F00090910302E0910502F0E0EA5FFD4F8081C5
:10380000890F80930302809105028F5F80930502E8
:10381000FF91EF91CF91BF91AF919F918F917F9148
:103820006F915F914F913F912F910F900FBE0F902D
:103830001F901895CF93DF93EA98209A289A8EE1EB
:1038400090E00E94D40628988EE190E00E94D40671
:10385000289A8DE290E00E94D40680E30E949203B1
:1038600084E690E00E94D406C6E3D3E0FE01849192
:10387000813440F083E30E94920384E00E94D906E1
:10388000CFEF0DC0FE0131966491FE0184910E943C
:1038900080032296F3E0C237DF0741F7EBCF84E3E2
:1038A0000E9492038AE090E00E94D406C150B9F7CA
:1038B00081E080934602DF91CF910895EF92FF92CD
:1038C0000F931F93CF93DF93EC018B01F8808091CE
:1038D0004602811101C0AEDF85E30E9479038D307D
:1038E00071F08AE50E943E0785E40E943E0782E56A
:1038F0000E943E0782E50E943E0781E34CC0809112
:10390000470290914802A0914902B0914A02892B46
:103910008A2B8B2B51F50E94F40385E30E947903D7
:10392000833109F443C08AE50E943E0785E40E9482
:103930003E0782E50E943E0782E50E943E0782E341
:103940002AC080919E0390919F03A091A003B09103
:10395000A1034F5F5F4F6F4F7F4F84179507A607F7
:10396000B707C9F681E00E94D90680919E03909125
:103970009F03A091A003B091A103409147025091F1
:1039800048026091490270914A0284179507A60780
:10399000B707B9F6E7CF0E943E0785E30E94790397
:1039A0000E94FE070E948A0745DF65C0012B49F48B
:1039B00028988FE70E940503EC2E0C2F1D2FF394FF
:1039C0000BC00AE010E084E60E94D90601501109FC
:1039D00001151105C1F7ECCF802F8E198F1530F42A
:1039E000F80181918F010E940503F6CF289AC8EC57
:1039F00085E30E9479038D30E9F485E30E94790321
:103A00008D3019F18AE50E943E0785E40E943E0749
:103A100082E50E943E0782E50E943E0783E30E9402
:103A20003E0785E30E9479030E94FE070E948A07F1
:103A300001DF0BC085E30E9479038331F1F681E059
:103A40000E94D906C150A1F6D8CF809146028111BB
:103A500002C00E94000E80919E0390919F03A0914E
:103A6000A003B091A1038093470290934802A093D2
:103A70004902B0934A02CDB7DEB7E6E00C94F62FC8
:103A8000ACE0B0E0E6E4FDE10C94DD2FFC018BE05E
:103A9000898381818A831B8282E08C8387818D83E5
:103AA00080858E8381858F838481888785818987BE
:103AB00086818A871B861C8684E10E94D90660E085
:103AC00070E0CE010196FADE8AE50E943E0710E022
:103AD000812F90E0298130E0281739075CF0E1E080
:103AE000F0E0EC0FFD1FE80FF91F80810E94FE0738
:103AF0001F5FEECF8091A50385FF03C080E00E9489
:103B0000FE070E948A072C96E3E00C94F92FCF93CE
:103B1000DF93EC0180914E02811108C090914F0219
:103B2000911104C0909150029923A9F09B81903388
:103B300019F09F7E903479F49F8198130CC098857A
:103B400080914F02981307C0998580915002981375
:103B500002C0CE0195DF80914B02811108C0909187
:103B60004C02911104C090914D029923A9F09881C3
:103B70009B3091F49B81903479F49F8198130CC011
:103B8000988580914C02981307C0998580914D02C9
:103B9000981302C0CE0174DFDF91CF910895AEE19A
:103BA000B0E0E5EDFDE10C94DC2F80914602882326
:103BB00009F469C04A9B59C08FE30E9479038F774B
:103BC0008E3108F08DE1898328988FEF0E940503DC
:103BD00010E08981181760F480E00E940503E2E09C
:103BE000F0E0EC0FFD1FE10FF11D80831F5FF1CFAF
:103BF00080E00E940503082F80E00E940503289AB8
:103C0000CE01019684DF8091A50384FF12C08AE76C
:103C10000E943E0710E089818117A8F1E1E0F0E001
:103C2000EC0FFD1FE10FF11D80810E943E071F5F19
:103C3000F2CF8AE50E943E0710E08981811758F093
:103C4000E1E0F0E0EC0FFD1FE10FF11D80810E942B
:103C5000FE071F5FF2CF8091A50385FF03C0802F71
:103C60000E94FE070E948A070EC085E30E94790326
:103C7000813149F48AE30E94920386E30E94920311
:103C800084E30E9492036E96E4E00C94F82FAEE178
:103C9000B0E0EDE4FEE10C94DC2F8C01FC018181AD
:103CA000823711F4C7DD36C0833711F0863601F54F
:103CB0004DE1BE016F5F7F4FC80102960E9402086E
:103CC00099270197298130E08217930729F084E230
:103CD00093E00E947D071EC061E070E0F8018181E1
:103CE000833711F060E070E0CE010196E7DD12C08D
:103CF000813621F443E06EE472E005C0873741F479
:103D000043E06BE472E0C80102960E94020802C020
:103D1000109246026E96E4E00C94F82F0E9406047E
:103D2000EA980895CF93DF93209A289A8EE190E045
:103D30000E94D40628988EE190E00E94D406289A2A
:103D40008DE290E00E94D40680E30E94920384E614
:103D500090E00E94D4068091DE048933C1F4C6ED60
:103D6000D3E0FE0131966491FE0184910E948003AC
:103D70002296F4E0C830DF07A1F783E30E949203A4
:103D800084E00E94D906CADFDF91CF910895843381
:103D900079F4C4EAD3E0FE0131966491FE01849186
:103DA0000E9480032296F3E0C63DDF07A1F7E5CF2E
:103DB000813319F7C2E7D3E0FE0131966491FE0129
:103DC00084910E9480032296F3E0C43ADF07A1F7B2
:103DD000D4CFFC0190818091E304981318C09181A5
:103DE0008091E404981313C092818091E5049813A4
:103DF0000EC093818091E604981309C0808590914C
:103E0000E704891302C081E008958F3FE1F380E069
:103E100008952FEF662339F06150FC01E60FF11D84
:103E200030812327F7CF822F0895DC01FC018FE03A
:103E30009DE170E09F012A1B3B0B2617370704F515
:103E40002191492F552742279A01329522952F70AB
:103E500023273F70232724273527982F8827822759
:103E60009327A901542F44275295507F84279527E3
:103E700045E0220F331F4A95E1F782279327DACFD7
:103E80000895A0E0B0E0E7E4FFE10C94D92FEC0145
:103E9000E62E769A8091DE04893339F464E182E17A
:103EA0000E9480036E2D660F6D5E86E00E94800387
:103EB0000E94F40328988FE70E9405038091DE0496
:103EC000893321F0FC2E0C2F1D2F50C01FE086E6F9
:103ED0000E9405031150D9F78AEA0E94050385E57F
:103EE0000E940503DC2E0C2F1D2F802F8D198E159F
:103EF000B0F5F801F1908F01F7FE02C080E801C033
:103F000080E4F6FE02C090E201C090E1980FF5FE59
:103F100002C088E001C084E0890FF4FE02C092E094
:103F200001C091E0890F0E940503F3FE02C080E802
:103F300001C080E4F2FE02C090E201C090E1980F5F
:103F4000F1FE02C088E001C084E0890FF0FE02C0EB
:103F500092E001C091E0890F0E940503C6CF80E086
:103F60000E94050380E00E9405030BC0802F8F197B
:103F70008E1538F4F80181918F0180950E94050318
:103F8000F5CF289A85E30E9479038331D9F36FEF47
:103F900086E00E9480038091DE04893321F46EE183
:103FA00082E10E948003BADE76988D8186FF2CC064
:103FB00080919E0390919F03A091A003B091A103D3
:103FC0000696A11DB11D8093DF049093E004A09399
:103FD000E104B093E204809151028F5F809351021B
:103FE000823060F08AE70E943E0782E70E943E0727
:103FF000809151020E94FE070E948A07809151021F
:10400000833010F010925102CDB7DEB7E7E00C9488
:10401000F52FA9EAB0E0EFE0F0E20C94D42F809104
:104020005202882309F424C1809151028823D9F0D7
:1040300040919E0350919F036091A0037091A10352
:104040008091DF049091E004A091E104B091E2043A
:1040500084179507A607B70730F46091DD0485E360
:1040600094E00FDF05C14A9B03C1769A28988FEF31
:104070000E9405038E010F5F1F4F6E0189E0C80E7D
:10408000D11C780180E00E940503F70180839091A4
:10409000DE04993311F080958083FFEFEF1AFF0A59
:1040A000EC14FD0479F7289AB88487EF8B0D803AD9
:1040B00010F038DEDDC06B2D86E00E948003809119
:1040C000DE04813331F0843341F4ACEDEA2EF12C7F
:1040D00008C0FAE5EF2EF12C04C0E8E9EE2EE3E08B
:1040E000FE2E60EA962E78E0A72ECB2CD12CC701AD
:1040F0000E94D4068BE30E947903882E882331F135
:10410000282F30E02A0D311DC216D30694F22898CC
:104110008FEF0E9405038A0CA81471F080E00E94C2
:1041200005039091DE04993309F08095F801EA0DBA
:10413000F11D8083A394F0CF289AAB1438F08091BE
:10414000DE04EB2CF12C8133D9F403C09A9479F678
:10415000F6CFFE013197EE0DFF1DC080D12CDC2C77
:10416000CC24FE01EE0DFF1D8081C80ED11C6EEF28
:104170006B0DC8015ADE21E08C159D0559F40BC06A
:104180006FEF6B0DC80145DEFE01EE0DFF1D21E056
:104190009081891320E080915202823771F4C80126
:1041A000C755DF4F2883C95AD04013DEC755DF4FAC
:1041B0002881C95AD040882399F0222391F08AE7B8
:1041C0000E943E077801F70181917F010E94FE075E
:1041D0008E2D801B8B15B8F30E948A0721E001C049
:1041E00020E080915202823781F4222371F08E8187
:1041F000982F9370933029F490915102911110925D
:10420000510286FF02C087FF07C06FEF86E00E9461
:10421000800384DD76982CC08AE00E94D9068D81C7
:1042200089878091E7048D8383E08E838091DE040B
:10423000813349F48BE0888769E0C801F6DD9A870D
:104240008B876BE007C08AE0888769E0C801E1DD01
:104250008A876AE0C80115DE8AE70E943E0781E688
:104260000E943E0789850E94FE070E948A07D2CFDE
:10427000C755DF4FECE00C94F02FFC012181223771
:1042800011F02D3651F4FC018281811101C084E3CB
:104290008093DE042093520245CD233771F41092AF
:1042A000510248EA65E374E002960E940208809396
:1042B000DD04682F85E394E0E4CD293671F5FC0137
:1042C0002281222331F045E063EE74E002960C94E3
:1042D0000208809152020E943E078091DE040E94F3
:1042E0003E0780E20E943E078091E3040E94FE07A1
:1042F0008091E4040E94FE078091E5040E94FE077D
:104300008091E6040E94FE0780E20E943E078091B1
:10431000E7040E94FE070C948A0710925202089547
:10432000CF93DF93EA98209A289A8EE190E00E943A
:10433000D40628988EE190E00E94D406289A8DE257
:1043400090E00E94D40680E30E94920384E690E00D
:104350000E94D406289880E40E940503C8E0D4E0B7
:10436000FE0184910E9405032196F4E0C531DF0728
:10437000B9F7809126010E940503809127010E94D0
:104380000503809128010E940503C0E0D0E0FE01F2
:10439000E85EFB4F84910E9405032196C931D10547
:1043A000B1F7289A28988EE70E9405038BE290E0E7
:1043B000EC0121960E9462080E940503C333D105D7
:1043C00011F0CE01F5CF289A83E30E94920381E099
:1043D0000E94D90681E080939C03DF91CF910895DC
:1043E0006F927F928F929F92AF92CF92EF92FF92B5
:1043F0000F931F93CF93DF93EC018981843769F486
:104400006DE271E0CE0102960E942F0840E260E06A
:1044100080912D0190912E0112C0833709F091C136
:104420008A81823789F469E271E0CE0103960E94A5
:104430002F0840E260E08091290190912A010E94BA
:104440008E070E948A07F1C1769A809155028111E8
:1044500016C08091FA01882329F081E080935402EC
:104460001092FA0180914602882329F081E080931E
:1044700053021092460254DF83E00E94D90686E37D
:104480000E9492038AE30E9492038BE30E949203AC
:104490000E94F403FE0101900020E9F70E2F0C1B8F
:1044A0000250C12CFAE09F2E7E0132E0E30EF11C97
:1044B000A5E0AA2EB8E28B2E8091290190912A01C5
:1044C0002C2D332727FD30952817390708F0FBC01E
:1044D0000132A1F45B9A80912D0190912E010E94EE
:1044E000D4065B9880912B0190912C01FC019E9E3B
:1044F000C0019F9E900D11240E94D406370111E047
:1045000010170CF0B7C0F30181913F015B9A803323
:1045100009F046C0013201F580912B0190912C01E8
:104520000E94D4065B9880912B0190912C010E94EF
:10453000D4065B9A80912B0190912C010E94D406A5
:104540005B9880912B0190912C019C01A29EC0014F
:10455000A39E900D11248AC080912D0190912E016F
:104560000E94D4065B9880912D0190912E019C01B0
:10457000220F331F820F931F0E94D4065B9A8091F3
:104580002D0190912E010E94D4065B9880912D01FF
:1045900090912E019C01220F331F820F931F66C042
:1045A000813329F5013291F480912B0190912C01F6
:1045B0000E94D4065B9880912B0190912C01FC0104
:1045C000AE9EC001AF9E900D11241EC080912D01A2
:1045D00090912E019C01220F331F820F931F0E9486
:1045E000D4065B9880912D0190912E012CC0013250
:1045F000D1F480912B0190912C010E94D4065B98FC
:1046000080912B0190912C010E94D4065B9A80919D
:104610002B0190912C010E94D4065B9880912B0174
:1046200090912C0123C080912D0190912E010E9428
:10463000D4065B9880912D0190912E019C01220F50
:10464000331F820F931F0E94D4065B9A80912D0125
:1046500090912E019C01220F331F820F931F0E9405
:10466000D4065B9880912D0190912E010E94D40672
:104670001F5F46CF5B9A0132A1F480912B0190918C
:104680002C010E94D4065B9880912B0190912C0103
:104690009C01829EC001839E900D11240E94D4062D
:1046A00010C080912D0190912E010E94D4065B983C
:1046B0001FE180912D0190912E010E94D40611508E
:1046C000C1F7C394F9CE80915502882341F08091BF
:1046D000A50381110FC086E30E94920318C0809148
:1046E0005402882351F0109254020E944E1681E029
:1046F0008093FA010E9406040AC080915302882325
:1047000021F01092530296D802C00E94000E7698B3
:1047100089E60E943E0783E70E943E0711E01017DA
:104720000CF08FCEFE01E10FF11D17FDFA9581818E
:10473000803319F0813309F086E40E943E071F5F41
:10474000EECF8237B9F48091FA01882329F081E015
:10475000809354021092FA0180914602882329F036
:1047600081E08093530210924602DADD81E080936B
:1047700055025BC0863651F58A81803351F480E161
:104780008093260180EB8093270181E780932801A5
:1047900007C043E066E271E0CE0102960E94020883
:1047A00089E60E943E0786E60E943E078AE30E9451
:1047B0003E07809126010E94FE07809127010E94FA
:1047C000FE07809128010E94FE073BCE883729F51D
:1047D00080915402882341F0109254020E944E1698
:1047E00081E08093FA0110C080915302882321F068
:1047F000109253021FD80EC082E090E00E949603F0
:104800008091A503882319F00E94060403C086E363
:104810000E9492031092550208C0833631F46DE273
:1048200071E0CE0101960E942F08DF91CF911F9178
:104830000F91FF90EF90CF90AF909F908F907F90CF
:104840006F900895A2E0B0E0E8E2F4E20C94D12F7A
:104850007C01FC018181833709F09DC1198287E0C9
:1048600090E00E9405308C0141E0BE016F5F7F4FF8
:10487000C70102960E9402088981F801808341E005
:10488000BE016F5F7F4FC70104960E940208298115
:10489000207FF801218341E0BE016F5F7F4FC70198
:1048A00006962A830E9402088981F801828341E0EA
:1048B000BE016F5F7F4FC70108960E940208898181
:1048C000F801838341E0BE016F5F7F4FC7010A9605
:1048D0000E9402088981F801868341E0BE016F5F72
:1048E0007F4FC7010C960E9402088981F8018583D9
:1048F00041E0BE016F5F7F4FC7010E960E94020824
:104900008981F801848380E090E02A814191342FED
:1049100032953F70342783279F5F9730B9F78F70A8
:10492000822BF801818387E090E00E9405305C01D2
:1049300087E0F801D50101900D928A95E1F7D80141
:104940001196C8010696F8013D91219123272083F5
:10495000E817F907C9F7769A80915802811160C06B
:104960008091FA01882329F081E080935702109208
:10497000FA0180914602882329F081E08093560253
:1049800010924602EA98209A289A8EE190E00E94BE
:10499000D40628988EE190E00E94D406289A8DE2F1
:1049A00090E00E94D40680E30E94920384E690E0A7
:1049B0000E94D406289880E40E94050361E3E62E55
:1049C00064E0F62EF70184910E940503FFEFEF1AD1
:1049D000FF0A2AE5E21624E0F206A1F7289A2898B1
:1049E0008EE70E9405038BE290E07C01EFEFEE1A68
:1049F000FE0A0E9462080E940503F3E3EF16F10429
:104A000011F0C701F2CF289A83E30E94920381E05C
:104A10000E94D90681E080939C0383E00E94D9061E
:104A200086E30E9492038AE30E9492038BE30E9432
:104A300092030E94F4035B9A87EC94E20E94D406EE
:104A40005B9889E50E94D90685E392E00E94D4062E
:104A5000712C8091330190E0272D332727FD30956D
:104A6000281739070CF057C0711002C022E001C0AE
:104A700027E0F12C5B9A86EF99E02A830E94D40606
:104A80005B9886EF99E00E94D406F3942A81F2168F
:104A90008CF35B9A8CEF92E10E94D4065B98809134
:104AA0002F01909130010E94D4066801612CF6011B
:104AB00081906F0148E0542E50E8E52EF12C912CA6
:104AC000C70188219921892B49F45B9A80912F0194
:104AD000909130010E94D4065B9808C05B98809149
:104AE0002F01909130010E94D4065B9A80912F0192
:104AF000909130010E94D406F694E7945A9401F7FD
:104B00006394F7E06F12D3CF5B9880E090E00E944F
:104B1000D40673949ECF80915802882341F08091EF
:104B2000A50381110FC086E30E94920319C08091F2
:104B30005702882351F0109257020E944E1681E0CE
:104B40008093FA010E9406040BC0809156028823CC
:104B500029F0109256020E941A1C02C00E94000EF8
:104B6000769889E50E943E0783E70E943E0775011B
:104B7000D12CF70181917F010E94FE07D394F7E0C9
:104B8000DF12F7CF0E948A07C5010E949D30C8013D
:104B90000E949D306FC08237A9F463E371E0C701C2
:104BA00002960E942F0889E50E943E0782E70E9434
:104BB0003E078AE30E943E078091330140E260E0B5
:104BC00090E02CC0843779F5F7018281803339F485
:104BD00088ED94E0909332018093310106C061E347
:104BE00071E0C70102960E942F08809131019091D7
:104BF0003201969587959093300180932F0189E536
:104C00000E943E0784E70E943E078AE30E943E0717
:104C100040E266E080913101909132010E948E075E
:104C20000E948A0727C0883729F580915702882378
:104C300041F0109257020E944E1681E08093FA01D3
:104C400011C080915602882329F0109256020E94CA
:104C50001A1C0EC082E090E00E9496038091A5038A
:104C6000882319F00E94060403C086E30E94920381
:104C7000109258022296EFE00C94ED2F109203054B
:104C80001092140383E080935E028FEF80931805E7
:104C90000895EFE5F2E02081211105C0892BB1F0E4
:104CA00080E090E00895B3E0ED30FB07B8F700979F
:104CB00051F04181DC013C91431305C042811196C2
:104CC0003C91431751F0E20FF11DE5CF33E0ED3099
:104CD000F30719F010F0EDE0F3E0CF01089594E050
:104CE000899FF0011124E75EFA4F80818F3F91F098
:104CF00080935902818180935A02828180935B0262
:104D0000838180935C0221E04CE064E089E592E0DD
:104D10000C949A0A08958EE093E0BBDF009799F017
:104D200020915E02FC013081231768F4E20FF11D2F
:104D300080818093100389E78093110381818093A0
:104D4000120381E0089580E00895EF92FF921F938F
:104D5000CF93DF931F92CDB7DEB7182F8091A503B5
:104D600086FF18C084E599830E943E07E12E998151
:104D7000F92E15E0F70181917F010E94FE07115085
:104D8000C9F78091A50385FF03C08AEF0E94FE0743
:104D90000E948A070F90DF91CF911F91FF90EF90B3
:104DA000089586E30E94920380911003833511F4E5
:104DB0008BE901C08BE40E94D90621E04CE065E05C
:104DC0008EE093E00E949A0A0E9406048EE093E02F
:104DD000BCCFE7DF80911003893631F081E080930A
:104DE0000D0389E2809318050895CF9385E390E041
:104DF0000E9462088093E90486E390E00E946208C2
:104E000080931705CFEFC0930705C0930905C093A2
:104E10000B05C0930D05C0930F05C0931105C093FA
:104E20001305C09315052ADF10925F0281E080937D
:104E3000E804C09319058FEF9FEF9093EC048093E3
:104E4000EB041092EE041092ED041092F004109214
:104E5000EF04C0931D059093F2048093F104109227
:104E6000F4041092F3041092F6041092F504C09327
:104E700021059093F8048093F7041092FA0410929D
:104E8000F9041092FC041092FB04C0932505909342
:104E9000FE048093FD04109200051092FF0410920E
:104EA000020510920105CF910895ACE0B0E0EBE56A
:104EB000F7E20C94D72F6C018C010F5F1F4F45E078
:104EC000BE016F5F7F4FC8010E940208843008F066
:104ED000F2C099819130A9F4833061F46A8185E34D
:104EE00090E00E945D086B8186E390E00E945D087F
:104EF0007CDFF8C18091E9040E94FE0780911705CC
:104F000099C0923009F051C0813039F081E09A8126
:104F1000913009F080E0F82E02C0FF24F3948091D4
:104F20005F02811104C08AE594E00E947D070FE5CD
:104F300012E0F8018081882309F4BAC0F3E00D3053
:104F40001F0708F0B5C082E00F35180719F080E29E
:104F50000E943E07F80181810E94FE07F8018281CC
:104F60000E94FE07FF20E1F08AE30E943E0793E0E3
:104F7000F80180819817A0F4943038F090FF05C0B4
:104F80008CE29C870E943E079C85EE24E394E90E08
:104F9000F801E90FF11D80810E94FE079E2DE8CFE8
:104FA000F8018081080F111DC4CF933049F480E0CF
:104FB00090E06FDE8F5592409EEA981B892F3AC091
:104FC000903171F507E015E088E0E82E85E0F82ED5
:104FD000C12CD12CF80180818F3FA1F0DD2019F088
:104FE00080E20E943E078C2D0E94FE078AE30E9409
:104FF0003E07F80180810E94FE07F70180810E9430
:10500000FE07D3940E5F1F4FC394F2E0EF0EF11C26
:1050100088E0C812DFCFD1104BC088E694E046C0CC
:10502000913159F480910505909106056DE770E086
:105030009BD7862F0E94FE073BC09231C9F519E12C
:10504000E12E15E0F12E0CE115E0C12CD12CF70179
:1050500080818F3FF1F0DD2019F080E20E943E0751
:105060008C2D0E94FE078AE30E943E07F701808193
:105070000E94FE07F801329780810E94FE07F80126
:10508000319780810E94FE07F80180810E94FE070F
:10509000D394F4E0EF0EF11CC3940C5F1F4F84E037
:1050A000C812D5CFD11004C084E694E00E947D07D9
:1050B0000E948A0717C144E0BE01695F7F4FC801A3
:1050C0000E9402084F81493608F477C07A855885D6
:1050D00069857C3009F04BC020E030E080E090E052
:1050E000F901E75EFA4F708174131CC0A181A5130A
:1050F00019C0A281A61316C02CE023839C01220FA5
:10510000331F280F391FF901EE0FFF1FE551FB4F29
:1051100011821082F901EE0FFF1FE351FB4F118244
:105120001082C2C07F3FD9F44083518362832CE058
:1051300023839C01220F331F280F391FF901EE0F23
:10514000FF1FE551FB4F11821082F901EE0FFF1F87
:10515000E351FB4F118210821092E804A5C0019622
:105160002C5F3F4F2031310509F0BACFBBC080E042
:1051700090E020E030E0FC01E75EFA4FA081A4134C
:1051800015C0A181A51312C0A281A6130FC07383FD
:10519000F901EE0FFF1FE20FF31FEE0FFF1FE351A8
:1051A000FB4F81E090E0918380839CC02F5F3F4F55
:1051B000049680319105F9F695C0E9818091E90462
:1051C000E81758F190E0F0E09C01295F3F4F2E175F
:1051D0003F071CF13A812091170532131EC02C8124
:1051E0002F3231F442E06CE0C6010E94090B7AC014
:1051F0003D812C3249F43093040581E090E0909396
:105200000605809305056EC0E81BF90BEE0FF0E074
:10521000E95FFA4F2083318365C080E090E039DD9B
:105220007C01F80101900020E9F73197E01BF10BB8
:10523000F695E795BB24B394BE0EC7018B0D911D67
:105240008F5592408F3A91050CF048C0F701B1920A
:105250008F0121E0822F880F81502B15D8F441E077
:10526000B801F601E80FF11DCF012C870E9402085A
:105270002C85233058F020FD09C0D80111978C915E
:10528000843621F4F80180818093EA042F5F0F5F58
:105290001F4FE0CFFDE0EF16F3E0FF0618F5F70132
:1052A000E20FF11D10821EC022E04CE064E0CE014E
:1052B00007960E949A0A8FE08A8722E04CE064E019
:1052C000CE0107960E949A0A82E08A8722E04CE08B
:1052D00064E0CE0107960E949A0A04C08EE594E02D
:1052E0000E947D072C96E9E07EC60F931F93CF9313
:1052F000DF939091E80491114FC093E0899F800162
:105300001124F801EE0FFF1FE551FB4F94E0899F38
:10531000D0011124A75EBA4F12969C91977040E875
:1053200050E0491B51099AEF949F9001959F300DD1
:105330001124359527953595279531832083E801EC
:10534000CC0FDD1FC151DB4F288139812F5F3F4FCB
:1053500039832883000F111F03511B4FF80140812F
:1053600051814115510529F424303105A9F4B7DCE8
:1053700011C04130510539F4B2DC82E090E0F8010F
:105380009183808309C04230510531F4A8DCF801D3
:105390001182108219821882DF91CF911F910F9193
:1053A0000895A6E0B0E0E6EDF9E204C62091170505
:1053B0002A831B8280910405882341F0833019F4ED
:1053C00087E791E00FC08DE790E00CC0277030E0D8
:1053D0002A513F4F4DE7429FC001439F900D11243A
:1053E00095958795909306058093050508E015E04F
:1053F000F12C7CE2E72EF801319790819F3FC1F0BC
:105400008091E9048F0D898380910405882311F030
:10541000EC8203C09C83F80180818D8321E04CE005
:1054200065E0CE0101960E949A0ACE0101968DDCBC
:10543000F3940E5F1F4FF8E0FF12DDCF809104055B
:10544000882341F0833019F41092040503C0825080
:10545000809304052696E6E0C9C580910D03882354
:1054600051F09FDC89E28093180580910D038150F3
:1054700080930D03089502CCFF920F931F93CF9357
:10548000DF93FC01F0800181C281D38114818FE51B
:105490008093180510920D038091E904811105C0D5
:1054A00080911705882309F4A9C080910E038F11FC
:1054B00004C080910F03801729F0E0DBF0920E0307
:1054C00000930F03809103058F3F09F497C0C093A9
:1054D0001003D093110310931203CC23F1F0811128
:1054E0001CC08091E904181761F0143651F08DEA60
:1054F0008C0F823010F0CD3739F48FEF8093030595
:105500007DC0C43509F47AC08D2F807F803609F0C4
:1055100075C0D067D093110357C0FDDB811105C062
:1055200080910305882309F469C0809114038111D7
:1055300007C0E0910305F0E0E459FB4FE49101C09E
:10554000E82FE33541F4C43531F4909103059E5FB3
:105550009093030504C0EC1711F090DB4FC0882333
:1055600069F080915E028E5F80935E02D4DB8111D0
:105570000EC0809103058E5F809303058091030523
:10558000E82FF0E0E359FB4F14911F3F59F480914D
:105590001003809314038436B9F48091EA04809355
:1055A000120312C01093100397E790931103909188
:1055B000E904909312038E5F809303051092140305
:1055C0008E3021F01123D1F004DC18C08EE093E07E
:1055D00060DBDC01009781F02C9130E08DE093E0FE
:1055E000821B930BA817B90730F4ED01C20FD31F2C
:1055F00048814D93F7CF1C9241DBE4CFCDB7DEB7A6
:10560000E5E0F5C40F931F93CF93DF93EC0110E017
:10561000212F30E0F901EE0FFF1FE20FF31FE054DE
:10562000FF4F0491F901EE0FFF1FE20FF31FEF533D
:10563000FF4F25913491002399F0209739F480E2AF
:105640000E943E07802F0E943E0708C08881801379
:1056500005C0CE01F901099581E003C01F5FD8CFD5
:1056600080E0DF91CF911F910F910895CF93C0916A
:105670005001809350018091AE05882309F43DC00C
:105680008CEA95E00E949F09209115033091160342
:105690008A3011F08D3011F52115310561F3F901D2
:1056A000E95EFC4F108287E193E0ACDF811111C00D
:1056B00082E994E00E947D0787E193E00E947207EF
:1056C0008AE794E00E947D0780E090E09BDF0E94E3
:1056D0008A071092160310921503CDCF203831059A
:1056E00050F6A9014F5F5F4F509316034093150387
:1056F000F901E95EFC4F8083BECFC0935001CF918A
:105700000895E4E6F0E080818B7F8083299A84B15C
:10571000876084B9239880E58CBD8DB581608DBD8F
:10572000089520913C0630913D062115310521F464
:1057300020913601309137018091340190913501EB
:10574000009741F48DB79EB74091380150913901CF
:10575000841B950B2817390718F4821B930B0895A7
:1057600080E090E0089582E40E943E0740E265E018
:1057700080913C0690913D060E948E070E948A0708
:1057800083E50E943E0740E265E0809136019091FA
:1057900037010E948E070E948A0785E40E943E0717
:1057A00040E265E080913401909135010E948E07BE
:1057B0000E948A0786E40E943E07B3DF40E265E06C
:1057C0000E948E070C948A07A2E0B0E0E9EEFBE2AB
:1057D000F5C3E4E3F6E08091F100819386E0EC33D9
:1057E000F807C9F72091340630913506832F90E0F1
:1057F0008A30910508F01AC1FC01EA5AFF4FC8C36C
:10580000203879F0223809F011C180913806809350
:10581000E9008091EB0085FB882780F91092E90070
:1058200006C080912F069091300691118260909170
:10583000E800977F9093E8008093F1001092F100C8
:105840008091E800982F9E7F9093E8008F77809357
:10585000E8008091E80082FDAFC08091330681119D
:10586000F8CFD5C0822F8D7F09F0E0C0222319F038
:10587000223061F033C080913606813009F0C7C014
:10588000333009F080E08093300628C080913606DE
:10589000811124C020913806277009F4B8C02093E4
:1058A000E9008091EB0080FF19C08091EB0031305E
:1058B00091F480618093EB0081E090E0022E01C0C2
:1058C000880F0A94EAF78093EA001092EA00809128
:1058D000EB00886001C080628093EB001092E900C9
:1058E0008091E800877F8093E8008091E800982FFE
:1058F0009E7F66C021119AC0209136068091E800F3
:10590000877F8093E8009091E800892F8E7F8093B5
:10591000E8009F779093E8008091E80080FD05C043
:10592000809133068111F8CF72C0822F8F77982F24
:1059300090689093E300882309F469C083E0809322
:10594000330665C02058223008F070C0AE014F5FAA
:105950005F4F6091380680913606909137060E941D
:10596000CB02009709F453C02091E800277F2093D1
:10597000E800BC0189819A812CD11EC0203809F031
:1059800055C08091E800877F8093E80080913106C0
:105990008093F1008091E800982F9E7F9093E8001B
:1059A0008F778093E8008091E80082FD05C08091A8
:1059B00033068111F8CF2BC08091E800982F9B7F90
:1059C0009093E8008F778093E80021C021112EC0CA
:1059D000909136069230D8F48091E800877F8093CA
:1059E000E800909331068091E800982F9E7F909375
:1059F000E8008F778093E80080913106882311F0CA
:105A000084E001C083E0809333060E943D058091CD
:105A1000E80083FF0EC08091EB0080628093EB0072
:105A20008091E800877F8093E80003C00E945505BD
:105A3000EECF2296E2E0DEC28093E900EBEEF0E0EA
:105A4000808181608083EDEEF0E010826093EC0055
:105A500040838091EE00881F8827881F0895109248
:105A6000F40080E08093E9001092F0001092E800CA
:105A70009091ED009D7F9093ED009091EB009E7FC3
:105A80009093EB008F5F873069F70895809134061B
:105A900087FD05C08091E80080FF0FC013C0809192
:105AA000E80082FD05C0809133068111F8CF08958A
:105AB0008091E800982F9B7F09C080913306811167
:105AC000E9CF08958091E800982F9E7F9093E80099
:105AD0008F778093E800089585E69091EC0090FF21
