:1000000014C200002EC200002CC200000C94EC129E
:1000100028C2000026C2000024C2000022C2000044
:1000200020C200001EC200001CC200000C94C02AA6
:1000300018C2000016C2000014C200000C94851201
:1000400010C200000EC200000CC200002FC500004C
:1000500008C2000006C2000004C2000002C2000084
:1000600000C20000FEC10000FCC10000FAC1000097
:10007000F8C10000F8272A280E292A280E297228FC
:100080009A280E29B628DE28410A1842C90843E1F9
:100090000365F30846EF0A47F20A685A0C69F41D33
:1000A0004BA00B4C38066CB8084D300B6DAB27528B
:1000B0003A0854402374B60555270C753B15563342
:1000C00009577A0858D90D78A803590B205A4F1AA6
:1000D0007A411D0000002A03430055004C00340003
:1000E0003300330000002A03430055004C00380061
:1000F00036003800000016036200750073007700B8
:100100006100720065002E006400650000000403B9
:1001100009040902430002010080320904000001C1
:10012000020201000524000110052401030104243A
:1001300002060524060001070582030800FF0904E2
:100140000100020A00000007050402400000070544
:1001500083024000001201100102000008EB034B73
:1001600020000001020001202F2000203D20000778
:100170002E050DD391FF080500000C0021656A2DA6
:100180003B1322F862073F181D1CC700B0876BF8AD
:10019000B611EA2A001F41000D2E2D07D3913D0410
:1001A000320000060021656A55E43023B9000700DB
:1001B00018146C070090876BF85611E92A001F414C
:1001C0000000030F1E2627000000030F1E253638EF
:1001D0006700030F256740605000030F2751888395
:1001E0008100030F2750C8C3C20027000000000091
:1001F0000000670000000000000050000000000048
:1002000000008100000000000000C20000000000AB
:1002100000504C4C310D0A00504C4C300D0A005629
:1002200020312E36375F6E6F637265646974732098
:1002300043554C383638005620312E36375F6E6FB6
:10024000637265646974732043554C3433330043DF
:10025000554C5F563400202F2000203D2000424F97
:1002600056460D0A004552523A4343410D0A000BCF
:1002700008105B11F81547191D1A1C1BC71C001D1F
:10028000B221B623EA0007022E030D04E905CA07CE
:100290000C0B060D210E650F6A10C8119312031581
:1002A000341733181819161B432156250026112917
:1002B000592C812D353EC34C454E4552520D0A00F6
:1002C0004C454E4552520D0A000007024604C60531
:1002D000260B0610C81193120313221534173F186A
:1002E0002819161B432156250026110D210E650FD6
:1002F0006A070C160720F81E871F6B29592C812DC1
:10030000353EC3FF000001022E030104AA050F06BB
:10031000FF070008000B060D210E740FAD104B11E6
:10032000F8121613721541181819161B0323E92425
:100330002A2500261F3E500001022E030104AA05B3
:100340000F06FF070008000B060D210E660F661052
:10035000CA1193120613521535181819161B0323C8
:10036000E9242A2500261F3E500001022E03010425
:100370005505F006FF070008000B060D210E660F5D
:100380009910591183121E13521535181819161B7E
:100390000323E9242A2500261F3E500D2E2D07D3C6
:1003A000913D04320000060010B07155E43023B9CD
:1003B00000070018146C070090876BF85611E92AA3
:1003C000001F41000D2E2D07D3913D043200000681
:1003D0000010ABA5550A3023B900070018146C07AC
:1003E0000090876BF85611E92A001F41004E2F41FB
:1003F00000454F420D0A004E2F41004E2F41000094
:10040000535300547D7DFFFF4B4B7E7E002069736C
:1004100020756E6B6E6F776E2920557365206F6E39
:1004200065206F66003F2028000011241FBECFEF1B
:10043000D4E0DEBFCDBF11E0A0E0B1E0E8E2FAE534
:1004400002C005900D92A032B107D9F724E0A0E2D6
:10045000B1E001C01D92A236B207E1F70CD00C94B6
:10046000122DCECDF89481E085BF82E085BFE0E01B
:10047000F8E3099508952FE088E190E00FB6F8942D
:10048000A895809360000FBE2093600090E080E804
:100490000FB6F89480936100909361000FBE2E9A7E
:1004A0002D9A04B603FE0AC083E390E0CAD58823E0
:1004B00029F060E083E390E0BFD5D4DF89EF87BD0A
:1004C00084E085BD82E084BD80936E001092800040
:1004D0008AE08093810084B7877F84BF3D9A0E9421
:1004E0007927AED60E94A42A0E94E0220E94BE0D67
:1004F0008EE297E29093E5028093E4020E949314C7
:1005000089E08093240145980E94562B12D20E94C4
:10051000DF0F42D30E948D150E9481160E94D719C9
:100520000E94111CF1CF292F33272230310559F0B9
:100530002330310569F02130310539F582E190E051
:1005400025E531E026C083E490E022E131E021C0DE
:1005500099278130910539F018F0029751F015C0B4
:10056000EEE0F1E002C0E6EFF0E0849190E09F0160
:1005700010C01E9903C026ED30E002C026EE30E028
:10058000E6EEF0E0849190E004C080E090E020E0AE
:1005900030E0FA013183208308958EBD0DB407FE4B
:1005A000FDCF8EB50895A1E0B0E0E9EDF2E00C9446
:1005B0009F2B482F8A3008F048E0E42EF12C83E08E
:1005C000EE0CFF1C8A95E1F7C7018F539E4F7C010B
:1005D0008BE290E0F70164918C010F5F1F4F49831C
:1005E0002BD5FFEFEF1AFF0A49810333110511F0F4
:1005F000C801F0CF4550453010F461E101C067E11A
:1006000084E290E019D52196E6E00C94BB2BCF93C1
:10061000DF9382E090E0FC01EA56FE4F6491EC012A
:1006200021960AD5CB32D10511F0CE01F4CF87E364
:1006300090E0FC01E85CFE4F6491EC012196FCD453
:10064000C036D10511F0CE01F4CF1E9918C060E17B
:100650008FE090E0F1D460EB80E190E0EDD461E7D1
:1006600081E190E0E9D460E184E490E0E5D460EBDE
:1006700085E490E0E1D461E786E490E0DDD488E0B1
:1006800092DFDF91CF9108952898806C86DF80E01B
:1006900084DF289A0895A1E0B0E0E1E5F3E00C944E
:1006A000A32B28988064698378DF6981862F75DFA2
:1006B000289A2196E2E00C94BF2B28986EDF289AA6
:1006C0000895EF92FF920F931F93CF93DF93EC0166
:1006D0001092D001EA98209A289A8EE190E027D3D0
:1006E00028988EE190E023D3289A8DE290E01FD3E2
:1006F00080E3E3DF84E690E01AD3289880E44DDFBE
:100700007E0189E2E80EF11C8E010F5F1F4FCE01C2
:1007100098D443DF0E151F0511F0E801F5CF289A94
:1007200028988EE73ADF8BE290E0EC01219689D49D
:1007300034DFC333D10511F0CE01F7CF289A83E31C
:10074000BCDF81E0F9D2CDB7DEB7E6E00C94BB2B7D
:10075000A1E0B0E0EEEAF3E00C94A32B22E02983C1
:1007600041E0BE016F5F7F4F019610D489811BDF8E
:1007700082E090E0A6DF2196E2E00C94BF2BCF93BD
:10078000EA9886E39ADFCFEF85E397DFC150807761
:10079000803229F08AE090E0CAD2C111F5CFCF9122
:1007A0000895CF93CFEF84E388DFC1508077803105
:1007B00029F08AE090E0BBD2C111F5CFEA9ACF913F
:1007C0000895A2E0B0E0E7EEF3E00C94A12B8C01D9
:1007D000FC0181818737E9F441E0BE016F5F7F4F03
:1007E000C8010296D3D3892BA1F041E0BE016E5F10
:1007F0007F4FC8010496CAD3892B59F06A81898139
:100800004ADF83E35ADFCDDF8981BCD38A81BAD343
:100810002CC041E0BE016E5F7F4FC8010196B6D388
:10082000892B21F18A81893969F410E0812F2CDF2D
:10083000A9D3812F8770873009F430D31F5F10331D
:10084000A9F714C021DF182F83E4DBD28A819AD361
:100850008BE691E016D3812F95D387E691E011D3F3
:1008600040E262E0812F90E01DD318D32296E4E0AD
:100870000C94BD2B86E321DF1092E6021092CE018C
:100880001092D001089582E090E01BDF81E0809318
:10089000E6021092CE011092D00108950F931F939B
:1008A000CF93DF93082F10E0C62FD0E085E3ECDE76
:1008B000801731F0CE013BD21150C1F781E001C069
:1008C00080E0DF91CF911F910F91089585E2DCDEEA
:1008D0008F3311F080E0089586E3EFDE80912001F0
:1008E000811104C088E192E0CCD202C08DE3E5DE44
:1008F00083E3E3DE64E081E0D1DF85E2C5DE8F33B0
:1009000049F780912001811103C081E192E0B9D2C1
:1009100081E0089585E3B8DE8D3051F485E2B4DEE0
:100920008F3331F4D3DF84E3C8DE80778031D9F7A9
:10093000089580915504843009F061C08093E900E6
:1009400080912101811128C08091E80085FF24C099
:100950008091F200882331F06091F1008EE094E004
:1009600097D4F6CF8091E800982F9B7F9093E80072
:100970008F778093E80081E08093210189E994E0FA
:100980009093E3028093E202E091E402F091E502A9
:1009900081E009951092210183E08093E900809124
:1009A000CD03882361F18091E80085FF28C0F89489
:1009B0008091CD03882351F08091F200803430F48F
:1009C0008BEC93E07BD48093F100F2CF78949091FC
:1009D000F2008091E800282F2E7F2093E8008F7787
:1009E0008093E800903459F40E9464298091E800D3
:1009F000982F9E7F9093E8008F778093E80008956A
:100A000042E061EC82E00E94142942E361E883E065
:100A10000E94142942E360E884E00E9414291092A5
:100A20000001109201011092020110920301089539
:100A30008091560490915704913229F0923261F1DD
:100A4000903299F512C0813A81F58091E800877F54
:100A50008093E80067E070E080E091E00E948D29DB
:100A60008091E800982F9B7F11C08132F1F4809132
:100A7000E800877F8093E80067E070E080E091E025
:100A80000E942A2A8091E800982F9E7F9093E80088
:100A90008F778093E8000895813239F48091E800DF
:100AA000877F8093E8000C943E2908951F920F924F
:100AB0000FB60F9211248F939F93AF93BF93EF9331
:100AC000FF938091E8029091E902A091EA02B0912F
:100AD000EB020196A11DB11D8093E8029093E902FB
:100AE000A093EA02B093EB028091E7028F5F8093BC
:100AF000E702EDE8F3E080819181181619061CF4F5
:100B0000019791838083369683E0E53AF80799F759
:100B10008091A7039091A803009729F001979093E3
:100B2000A8038093A7038091BA038F3F19F08150E7
:100B30008093BA03FF91EF91BF91AF919F918F91F5
:100B40000F900FBE0F901F9018952FB7F8944091FB
:100B5000E8025091E9026091EA027091EB02FC0117
:100B600040835183628373832FBF0895A4E0B0E074
:100B7000ECEBF5E00C94A32BCE010196E6DF8C8123
:100B800001D28B81FFD18A81FDD18981FBD186D1B0
:100B90002496E2E00C94BF2B1F93CF93DF938091B8
:100BA000E8029091E902A091EA02B091EB02209153
:100BB0002301281709F458C08091E8029091E902B6
:100BC000A091EA02B091EB0280932301A895CDE8B1
:100BD000D3E010E028813981232B19F4812F0E9462
:100BE0006A251F5F26961430A9F78091A70390917C
:100BF000A803892B11F40E94CC258091BA0381119E
:100C000002C00E94252680913503882339F0815047
:100C100080933503811102C00E9421168091E70262
:100C20008D3710F11092E7028091070181FF04C017
:100C300088B190E2892788B984E893E09093ED0227
:100C40008093EC02809122018F5F809322018C338C
:100C500059F41092220180918C038F5F80938C0352
:100C60008C3310F010928C03DF91CF911F91089577
:100C7000A0E0B0E0EEE3F6E00C949E2B8C016EE079
:100C800070E00E94F12C8D3009F04CC0459A8091A3
:100C9000D001882341F01092D0018CE191E089D7F6
:100CA000DD24D39401C0D12C8091E602811101C0D2
:100CB000EADD65DD84E0F82E5B9A88EE93E037D0BC
:100CC000C1E0D0E0EE24E394F801EC0FFD1F808139
:100CD000813309F0E12C5B98EE2019F088EE93E067
:100CE00002C080ED97E023D05B9AEE2019F080EDF2
:100CF00097E002C088EE93E01AD02196CD30D1055E
:100D000009F75B9883E218D0FA94B1F68091EF026C
:100D1000882311F046DD02C086E3CFDCD1100E94AB
:100D200022184598CDB7DEB7E7E00C94BA2B880FB0
:100D3000991F0197F1F7089520ED37E0815020F0D9
:100D4000F9013197F1F7FACF0895CF93DF93DC01E2
:100D500013968C911397843509F050C0CD010396FA
:100D6000CC91FD0170964DE04C1750F050E0D0E072
:100D70009E012F5031094217530709F03FC005C0AB
:100D800021912B3399F34F5FEFCFFE013E97E80F90
:100D9000F91F2081243591F514963C9114972181F7
:100DA00032132CC015963C9115972281321326C020
:100DB00016963C9116972381321320C017963C91CA
:100DC0001797248132131AC06197C80FD91F8581E4
:100DD00088838681898381858A8382858B838385C5
:100DE0008C8384858D8385858E838C918A508C93AA
:100DF00012968C9112978A5012968C93DF91CF9114
:100E00000895CF93C82F80915504843081F4809148
:100E1000240180FF0CC08091CD03803408F089DD6F
:100E20006C2F8BEC93E034D2CA3009F482DD8091D0
:100E30003E038823C9F08091240183FF15C0CA3086
:100E400099F0CD3011F46BE301C06C2F82EF92E08A
:100E50001FD2CD3019F482EF92E077DF83E08093E8
:100E6000350382E080933D03CF910895CF93DF93C4
:100E7000EC018991882311F0C4DFFBCFDF91CF9182
:100E80000895CF93DF93EC01FE018491882319F03C
:100E9000B8DF2196F9CFDF91CF9108958DE0B1DFD2
:100EA0008AE0AFCFA6E0B0E0E8E5F7E00C94A12B34
:100EB000062F1E8215E02AE030E01150E1E0F0E05C
:100EC000EC0FFD1FE10FF11DB9010E94792B805D30
:100ED0008083CB010150009769F01111EECF0AC059
:100EE000112359F01150E1E0F0E0EC0FFD1FE10F8C
:100EF000F11D4083015007FFF3CF81E090E08C0F9C
:100F00009D1F810F911DB2DF2696E4E00C94BD2B4E
:100F1000A5E0B0E0EEE8F7E00C94A32B1D8224E0FE
:100F2000382F3F702150E22FF0E03A3010F4305D5E
:100F300001C0395CA1E0B0E0AC0FBD1FEA0FFB1FA0
:100F4000308334E0969587953A95E1F761500097A4
:100F500039F7615067FD0BC0222349F02150E1E0D1
:100F6000F0E0EC0FFD1FE20FF11D4083F2CF81E0B6
:100F700090E08C0F9D1F820F911D78DF2596E2E097
:100F80000C94BF2B40E362E090E0C2CFDC01FB0198
:100F900030E090E08D918823A9F0813608F08052EE
:100FA00020ED280F2A3030F02FEB280F263030F4B8
:100FB00029EC280F292B332379F006C0803251F316
:100FC0008A3341F3CF0105C0CF0101962083415000
:100FD00041F4861B970B0895922F9295907F31E0F4
:100FE000D9CFFC01D5CFDB01FC0180E090E021915D
:100FF000222361F030ED320F3A30C8F76AE070E03A
:101000000E94682BC097820F911DF1CF8D939C9306
:101010000895982F92959F709A3010F4905D01C0BA
:10102000995CFB0190838F708A3010F4805D01C061
:10103000895CFB01818308950E94042DF999FECFFC
:1010400008950C94FC2C08951F93CF93DF93162FD3
:1010500011501F3F59F0EC012196F3DF93DF11236C
:1010600011F08AE3CEDE1150CE01F3CFDF91CF91A4
:101070001F910895A2E0B0E0E0E4F8E00C94A02B0A
:10108000FC0121812D3421F466E08AEF93E005C054
:10109000203529F460E18AED93E0D6DF26C01A827C
:1010A000198242E0BE016F5F7F4F01966FDF0981B9
:1010B00010E0823021F4102F00278A81082BC8010C
:1010C000C0DFF82E82E59DDE40E364E0C80120DF4A
:1010D0008AE592E0D6DE8F2D55DF86E592E0D1DEFF
:1010E00040E262E08F2D90E0DDDED8DE2296E5E082
:1010F0000C94BC2BA6E0B0E0E0E8F8E00C949D2B4B
:101100006C0143E0BE016F5F7F4F01963FDF82308D
:1011100058F1E980F12C823021F0FE2CEE242A8156
:10112000E22A8C011127FE01E00FF11F6081C70147
:1011300083DF000F111F0F5F1F4F0C0D1D1DF801E6
:101140008081882389F041E0BE016F5F7F4FC80135
:101150001DDF892B49F08FEFE81AF80A6981C70172
:101160006BDF0E5F1F4FEBCF2696E8E00C94B92B98
:1011700041E067E071E0019609DF8091070180FF9F
:1011800002C0459A01C045986091070184E390E050
:1011900053CFA1E0B0E0EFECF8E00C94A32B198260
:1011A000009731F041E0BE016F5F7F4F0196EEDEA8
:1011B00089818F3F09F4FFCF882321F061E083E329
:1011C00090E03ADF0E94AA2A10926E00F89428E07C
:1011D00088E190E00FB6F894A895809360000FBE68
:1011E00020936000FFCFCF93DF93EC0161E080E0BC
:1011F00090E022DF63E481E090E01EDF08DA60E047
:1012000080E690E019DF60E081E690E015DF60E0C5
:1012100083E390E011DF62E084E390E00DDF60E0C3
:1012200080E690E009DF60E081E690E005DF8981FB
:10123000883719F080E090E0ACDFDF91CF9108951E
:1012400080E090E0FEDE813029F481E090E0F9DE7C
:10125000833419F080E090E0C6DF84E390E0F1DEB3
:10126000809307010895FC018181883419F48FE48B
:1012700092E007C01E9903C087E392E002C08FE1AD
:1012800092E0FFDD0BCEFC011282108211820895E4
:10129000FC018FB7F8949281903470F49F5F928331
:1012A000208191E0920F9083DF01A20FB11D139670
:1012B0006C93903409F410828FBF0895FC019FB79E
:1012C000F8948281882371F081508283818121E0AA
:1012D000280F2183DF01A80FB11D13968C912034B4
:1012E00009F411829FBF0895FA013081882369F0C3
:1012F000E1E0F0E0022E01C0EE0F0A94EAF7DB0114
:10130000A30FB11D9C919E2B9C93222319F08FEF6C
:10131000820F0BC081E0830F8C3010F4FA018083C0
:10132000FB01E80FF11D108287E090E00895CF9354
:10133000C82F5B9A882319F08091270102C0809101
:10134000290190E034E0880F991F3A95E1F7EFDC2E
:101350005B98CC2319F08091260102C0809128016E
:1013600090E024E0880F991F2A95E1F7E0DCCF9107
:101370000895A9E0B0E0EFEBF9E00C94932B3C0169
:10138000D62E542E322E1E2D459A8091D0018823C0
:1013900041F01092D0018CE191E00BD4BB24B394C6
:1013A00001C0B12C8091E602811101C06CDAE7D94D
:1013B000EC2CF12C44E0EE0CFF1C4A95E1F78A2C52
:1013C000912C54E0880C991C5A95E1F72D2D30E0B2
:1013D0003A832983452D50E05C834B834424439416
:1013E000512C232D30E03E832D83C11002C0AA2052
:1013F00031F05B9AC7019BDC5B98C40198DC312C0F
:10140000832D992787FD909549815A8184179507E7
:1014100024F480E08CDF3394F3CFDD2011F081E001
:1014200086DF90E0292E332427FC30942B813C81E9
:101430002216330624F097E0260C371C1CC047E028
:1014400050E0260C371C9201042E01C0220F0A9492
:10145000EAF7F101808182234F835887998767DFFC
:101460004F8158854150510999854F3FFFEF5F07E4
:1014700051F79F5FD7CF292F332727FD30954D8117
:101480005E814217530774F49201092E01C0220FA6
:101490000A94EAF7F10180818223998748DF9985D0
:1014A0009150E9CF812F48DC015009F09ECF809107
:1014B000EF02882311F075D902C086E3FED8B1107F
:1014C0000E94221845982996E2E10C94AF2BADE0DA
:1014D000B0E0EDE6FAE00C94962B7C01162F842FF9
:1014E000022F6701C60ED11C462FB70177D3D60154
:1014F0008C931F5F1D8619825E2C670127E066248E
:101500006394712C8C2D8519811788F5E7E0AE2E38
:10151000B12C4701880E911CF3010A2C01C0EE0F7B
:101520000A94EAF7D4018C91AE01435F5F4FBE018C
:101530006F5F7F4F8E23D8DE282FB1E0AB1AB10842
:1015400058F7D6018D916D01082E82958025082EC1
:101550008695869580258F5F86958170AE01435F65
:101560005F4FBE016F5F7F4FBFDE282FCBCF22239F
:1015700011F0215004C08D858F5F8D8727E089E1B0
:10158000809328018093290185E28093260180932E
:101590002701A12CC12C7AE0E72E4D856CE0CE010D
:1015A0000196E7DE2D96EFE00C94B22BADE0B0E0B3
:1015B000ECEDFAE00C94A22B162F242F4BE0BE0189
:1015C0006F5F7F4F01962D87E1DC2D85412F682FBE
:1015D000CE0101967CDF2D96E3E00C94BE2B43E018
:1015E00066E0E4CFAF92CF92EF920F93CF93DF9369
:1015F000CDB7DEB760970FB6F894DEBF0FBECDBF94
:1016000040E1BE016F5F7F4F0196C0DC69814A8176
:101610000B818C81809329018D81809328018E819B
:10162000809327018F8180932601E02EE294AFE022
:10163000EA220F70242F2F7042954F70A12CC12CDD
:10164000CE01089696DE60960FB6F894DEBF0FBE08
:10165000CDBFDF91CF910F91EF90CF90AF900895D4
:10166000A9E1B0E0E6E3FBE00C949B2B4BE0BE016C
:101670006F5F7F4F01968ADC182F893009F05CC0BC
:1016800099E190932801909329019093270182E397
:101690008093260169E0CE010196AAD2E1E0F0E054
:1016A000EC0FFD1FE10FF11D8083198E1D86CE0109
:1016B00001967C016E019BE0C90ED11C27E0AA2493
:1016C000A394B12CEC14FD0429F100E010E0F50125
:1016D000002E01C0EE0F0A94EAF7D7018C91AE01FB
:1016E000475E5F4FBE01635F7F4F8E23FDDD282F76
:1016F0000F5F1F4F0830110551F7AE01475E5F4F76
:10170000BE01635F7F4F81E0EFDD282FBFEFEB1A53
:10171000FB0AD8CF222311F0215004C0898D8F5F9E
:10172000898F27E0A12CC12CBAE0EB2E03E0498D74
:101730006CE0CE010D961DDE6996EAE00C94B72BA5
:10174000A9E1B0E0E6EAFBE00C949A2B4BE09E01A5
:101750002F5F3F4F7901B901019618DC182F85E3FF
:101760008093290196E1909328019093270180931B
:101770002601612FC70148D2F701E10FF11D8083D7
:1017800099249394910E198E1D86870127E0AA242F
:10179000A394B12C802F8E19891508F04AC0C12C52
:1017A000D12CF5010C2C01C0EE0F0A94EAF7D801F8
:1017B0008C91AE01475E5F4FBE01635F7F4F8E230A
:1017C00093DD282FBFEFCB1ADB0A34E0C316D10418
:1017D00041F7AE01475E5F4FBE01635F7F4F81E01F
:1017E00083DD282F94E0C92ED12CF5010C2C01C0EB
:1017F000EE0F0A94EAF7D8018C91AE01475E5F4F75
:10180000BE01635F7F4F8E236FDD282FBFEFCB1AA2
:10181000DB0A38E0C316D10441F7AE01475E5F4FE3
:10182000BE01635F7F4F81E05FDD282F0F5F1F4F99
:10183000B1CFA12CC12C8AE0E82E03E0498D6AE0EB
:10184000CE010D9696DD6996EBE00C94B62BAF9227
:10185000CF92EF920F93CF93DF9300D000D0CDB70C
:10186000DEB743E0BE016F5F7F4F01968FDB8AE6F4
:101870008093290194E29093280191E290932701AB
:101880008093260180E88C83A12CC12C4FE0E42EAC
:1018900003E026E043E060E0CE0101966ADD0F90B0
:1018A0000F900F900F90DF91CF910F91EF90CF900D
:1018B000AF900895AF92CF92EF920F93CF93DF93B3
:1018C000CDB7DEB72C970FB6F894DEBF0FBECDBFF5
:1018D0004BE0BE016F5F7F4F029658DB8530C1F44D
:1018E0008EE3809329018CE18093280181E280932B
:1018F00027018AE38093260155E2A52E6AEFC62EC2
:10190000E12C05E024E044E068E0CE01019631DD01
:101910002C960FB6F894DEBF0FBECDBFDF91CF91EE
:101920000F91EF90CF90AF9008958F929F92AF92CA
:10193000BF92DF92EF92FF920F931F93CF93DF93AB
:101940001092450110925A01FC012181220F220FB1
:10195000220F3381231B57E0520F1092460110E0F3
:1019600070E038E0D32ED20EFF24F39447E007E076
:10197000E12CC7E0D0E0A1E0B0E0FD1409F47FC0A5
:10198000FC01EE0DF11D248130E0002E02C03595E2
:1019900027950A94E2F721703327E22F002311F0F4
:1019A000015002C0E39407E06B3471F4433009F056
:1019B0004AC0111107C0E1115FC010924501709338
:1019C0005A0174C010E041C04F3F31F56634A9F4AC
:1019D000E72FF0E0EA5BFE4FE0810E2EE295E02576
:1019E0000E2EE695E695E025EF5FE1FB882480F872
:1019F000912C8216930641F004C0653429F4E1115C
:101A000003C010934501DBCF7F5FE72FF0E0EA5B77
:101A1000FE4F108247E031C0EE2361F1663471F46D
:101A2000E72FF0E0EA5BFE4FA0809D01042E01C08D
:101A3000220F0A94EAF7A22AA0821CC0653439F06A
:101A40006B34C1F404C04F3FD1F2EE2399F0E72F7D
:101A5000F0E0EA5BFE4F9E01241B310947FD339500
:101A60005D0102C0AA0CBB1C2A95E2F795013081EA
:101A7000322B3083415001C011E0F3947ECF10939C
:101A8000450170935A015F1588F4653431F44F3F76
:101A900021F47F5F70935A0104C080914501811148
:101AA000F8CF81E090915A01911101C080E0DF915F
:101AB000CF911F910F91FF90EF90DF90BF90AF906B
:101AC0009F908F90089510926F0080915D0190E03B
:101AD0006CE170E00E94682B825A9E4FFC011082DC
:101AE0008091EE028D7F8093EE020895FC012181AA
:101AF000243108F0E8CF3381662381F081E090E063
:101B0000032E01C0880F0A94EAF7DF01A20FB11D6E
:101B100014969C911497982B14969C93332319F048
:101B200031503383089587E083832F5F2183E20F51
:101B3000F11D14820895DC011196EC911197F0E0EB
:101B400050E02C91CF01841B950B0B964797A0F486
:101B500030E070E0C901861B970B0B96479760F445
:101B60002E0F3F1F640F751F261B370B255F3F4F3E
:101B700081E02731310508F080E00895539A5B98A1
:101B80005298E9E6F0E080818061808310927A01CA
:101B9000109296011092B2011092E602089580917F
:101BA000EF02882321F00E9443040C94D1030C948B
:101BB0003A04FC01218121110BC08091EF02E2D98E
:101BC00040E265E08091EC029091ED026BD966C92C
:101BD00041E06FEE72E00196D9D9E1CF442339F0AC
:101BE0004150FB01E40FF11D9081890FF7CF08955B
:101BF00020E0662339F06150FC01E60FF11D3081D1
:101C00002327F7CF822F0895A091450140E035E0CA
:101C100020E0662399F06150FC01E60FF11D508130
:101C2000752F72957F702727370FAA2311F0442351
:101C300019F05F702527350F4F5FEBCF822F830F91
:101C40008295807F822B0895FC0132812381A081BF
:101C5000B181A30FB11D8C9190E0022E02C0959529
:101C600087950A94E2F7817099274FEF420F4383DB
:101C7000211104C03F5F328327E023830895A2E04F
:101C8000B0E0E5E4FEE00C949B2B7C01A12CB12C90
:101C9000D12CCC24C394062F10E001501109A616B4
:101CA000F0F4C7014A836983CFDF4A8169818823C1
:101CB00091F0442349F098012A193B098C2D01C069
:101CC000880F2A95EAF706C08C2D0A2C01C0880FD0
:101CD0000A94EAF7D82A8FEFA81AB80AE0CF8D2D18
:101CE0002296EAE00C94B72BA4E0B0E0EAE7FEE02D
:101CF0000C949A2B1B8227E02C839C012C5F3F4F76
:101D00003A83298310925A01FC01218130E043E09B
:101D1000220F331F4A95E1F7438187E090E0841B4F
:101D20009109280F391F253431050CF44EC0B12C10
:101D3000A0905A01F5E0FA1558F10A2D10E040E0A4
:101D400068E0CE0101969BDF0A5B1E4FF80180839D
:101D5000982E092C92949024092C96949694902471
:101D6000CE01019671DF939491FACC24C0F8D12C66
:101D700090E0C816D90649F5CE01019665DF8111BC
:101D800024C0F8018081B826A394A0925A01D0CF34
:101D900040E068E0CE01019672DF082F182F012E77
:101DA00012951025012E169516951025CE01019637
:101DB0004BDF1F5F11FBEE24E0F8F12C282F30E001
:101DC000E216F30611F481E0B01280E02496EBE015
:101DD0000C94B62BA5E0B0E0E0EFFEE00C949E2B57
:101DE000FC011B8287E08C83CF0104969A83898350
:101DF0008081853009F054C0218130E063E0220FFA
:101E0000331F6A95E1F7438187E090E0841B9109D5
:101E1000280F391F2039310509F042C010925A01AC
:101E20000FE010EF29E880915A01E82EF12CDD2413
:101E3000D394D80E41E068E08F3088F4CE0101964B
:101E40002D831DDF080F111DF701EA5BFE4F2D8169
:101E50002827208324E2280FD0925A01E4CFCE0114
:101E600001960DDF080F111DD0925A01F701EA5BB0
:101E7000FE4F8095808341E068E0CE010196FFDE51
:101E800090E0982F8827081B190B41E068E0CE01ED
:101E90000196F5DE282F30E081E00217130709F0E4
:101EA00080E02596E7E00C94BA2BA4E0B0E0EBE5E7
:101EB000FFE00C94A02B1B8227E02C839C012C5F5D
:101EC0003F4F3A832983FC0121812430A1F583818E
:101ED000813089F510925A0180915A01082F10E043
:101EE000FF24F394F80E41E0843098F4811106C089
:101EF00067E0CE010196C3DE806804C068E0CE01D1
:101F00000196BDDEF801EA5BFE4F8083F0925A0134
:101F1000E3CF67E0CE010196B2DEF801EA5BFE4F47
:101F2000880F8083F0925A019091460192959F709C
:101F300081E09A3009F080E02496E5E00C94BC2B17
:101F4000CF93DF93FC0181818330E9F48381873073
:101F5000D1F480818830B9F410925A0120E0822FA8
:101F600090E0DC01AA5BBE4FEF01C80FD91F8C8146
:101F70008C9381E0820F833010F4282FF0CF809370
:101F80005A0181E001C080E0DF91CF910895FC010A
:101F900090818091EE02993611F0933751F4982F89
:101FA0009370913011F4826006C080FF07C08B7F70
:101FB00003C080FD03C084608093EE020895A1E019
:101FC000B0E0E5EEFFE00C949F2B198280912A018E
:101FD0008823B9F18091EF0287FF17C084E30E9444
:101FE00044038058803458F0803C58F490E0805589
:101FF0009109B3E095958795BA95E1F703C080E024
:1020000001C08FE08F590E9401078091EF0283FF8A
:1020100016C082E70E9401078091EF0284FF04C08E
:1020200080912B010E94010786E60E9401078091A2
:10203000EF0284FF04C080912A010E9401071092E0
:102040002A0180915B01882309F45BC2459A809143
:102050005C0190E06CE170E00E94682B8C01025AF8
:102060001E4F8981811106C0C8016ADF882311F0E3
:1020700083E789838981811106C0C801ABDE88238B
:1020800011F083E589838981811139C066E4C80133
:102090004CDC8823A1F1F0905A01FA94F0925A0195
:1020A0004F2D66E471E086E099DDEF2DF0E0EA5B0C
:1020B000FE4FE0808E1105C093E09F1510F486E47A
:1020C0001BC0282F30E02F5F3F4F6E2D70E026178A
:1020D000370739F493E09F1520F496E499838083C1
:1020E0000EC04F2D66E471E08CE078DD8E1106C0E5
:1020F000E3E0EF1518F484E5898301C01982898132
:10210000811116C065E4C80110DC882389F0809134
:102110005A01815080935A01893051F469E086E474
:1021200091E066DD90914F01891302C085E48983B7
:102130008981811106C0C801D7DD882311F088E4A8
:1021400089838981811106C0C801AFDE882311F01F
:1021500084E789838981811133C0F801438D6091BF
:102160002B01C8014A96E7DC682FC801BFDC6BE48D
:10217000C801DBDB8823B1F0F0905A01FA94F092A9
:102180005A016F2D86E491E03FDDEF2DF0E0909154
:102190004501E91BF109EA5BFE4F9081891302C0FA
:1021A0008BE48983898181110BC0F801838191E0DF
:1021B000980F9383873021F413828181815081832A
:1021C000898181112DC0F8018181843049F5838195
:1021D000843031F54EE16CE3C8014896ACDC8823CD
:1021E000F9F04EE160912B01C8014A96A4DC682FFA
:1021F000C8017CDC20E0822F90E0FC01EA5BFE4F0E
:10220000D801A80FB91F14968C91808381E0820FAA
:10221000853010F4282FEFCF80935A0182E589830F
:102220003981332309F4D9C02091EF0220FFD5C0B2
:102230008091EE028E7F8B7F8093EE0221FD64C041
:1022400050914401F0905A015F113DC040E04517A4
:10225000C0F4842F90E061E0640FFC01E05DFE4F6C
:10226000DC01AA5BBE4F70818C91781741F04093DE
:1022700044018091EE028D7F8093EE0204C0462FD0
:10228000E6CF4093440145131EC04091E8025091AF
:10229000E9026091EA027091EB0280912C01909129
:1022A0002D01A0912E01B0912F01481B590B6A0BF3
:1022B0007B0B463251056105710528F48091EE02D1
:1022C00081608093EE0240E04F1560F4842F90E02F
:1022D000FC01E05DFE4FDC01AA5BBE4F8C91808368
:1022E0004F5FF2CF409344018091E8029091E90260
:1022F000A091EA02B091EB0280932C0190932D0102
:10230000A0932E01B0932F013435E9F426FD1BC0B4
:1023100080915A018530B8F0809148018B3471F07A
:10232000893661F09DEA980F923040F08D578230E7
:1023300028F0809149018077803729F48091EE025E
:1023400081608093EE02B801CE01019620DE898182
:10235000843569F490913E03992349F090918B0361
:10236000911105C09091EE029B7F9093EE029091A7
:10237000EE0292FF32C00E9401078091450188233E
:1023800029F080915A01815080935A01F12CE091FB
:102390005A01FE1648F4EF2DF0E0EA5BFE4F808113
:1023A0000E94C207F394F3CF80914501882351F036
:1023B000F0E0EA5BFE4F80818F7040E361E090E0E7
:1023C0000E9488078091EF0285FF05C084E30E9488
:1023D00044030E94C2070E944E078091EF0282FFD1
:1023E00077C080E70E940107F801808140E262E047
:1023F00090E00E945207F801808D90E040E265E095
:1024000074E0880F991F7A95E1F70E945207F8014E
:10241000818D90E040E265E0E4E0880F991FEA9545
:10242000E1F70E945207F801828D90E040E265E0FA
:10243000F4E0880F991FFA95E1F70E945207F8011E
:10244000838D90E040E265E0A4E0880F991FAA9593
:10245000E1F70E945207F801828140E263E090E0D8
:102460000E945207F801818140E263E090E00E94FF
:102470005207F801238140E262E087E090E0821B8E
:1024800091090E94520780E20E9401078091EF02A9
:1024900085FF08C084E30E9444030E94C20780E2D3
:1024A0000E940107F8018381873019F081818F5FD5
:1024B0008183F12CF8018181F81640F4F801EF0DC9
:1024C000F11D84810E94C207F394F4CF0E944E074D
:1024D000F801108280915B01815080935B018091B3
:1024E0005C018F5F843019F080935C0102C0109210
:1024F0005C0145988981843521F486E491E00E944D
:1025000034262196E6E00C94BB2B1F920F920FB657
:102510000F9211242F933F934F935F936F937F9369
:102520008F939F93AF93BF93EF93FF9310926F009E
:102530008091EF0283FF03C08EE20E940107409169
:102540005D01242F30E0C9016CE170E00E94682B2E
:10255000825A9E4FFC018081833018F08181823045
:1025600010F4B1DA18C080915B01833049F4809196
:10257000EF0282FFF6CF8EE592E00E944107F1CF95
:102580008F5F80935B014F5F443019F040935D0192
:1025900002C010925D01FF91EF91BF91AF919F91A9
:1025A0008F917F916F915F914F913F912F910F90FC
:1025B0000FBE0F901F9018959BED980F973150F418
:1025C00096EF960F9D3130F491E0681708F090E097
:1025D000892F089580E008951F920F920FB60F92F1
:1025E0001124FF920F931F932F933F934F935F9369
:1025F0006F937F938F939F93AF93BF93CF93DF930B
:10260000EF93FF9380913603823021F483E080932F
:1026100036035DC10091840010918500B4E01695E9
:102620000795BA95E1F780915D0190E06CE170E06B
:102630000E94682BEC01C25ADE4F8881843031F44D
:102640000E3208F444C10F3448F0B6C0853031F47E
:10265000073108F43CC1083208F0AEC04A990DC0F9
:102660008450823038F461E0CE0140DA1092850067
:102670001092840000932B012AC180912B01081B2A
:1026800000932A011092850010928400988198305E
:1026900071F42A8121110BC021E02A83888F8A8F4F
:1026A000098F0B3B10F4000F01C006950B8F94505F
:1026B000923020F460E0CE0119DA09C182E086BBD5
:1026C000F880F11011C090912B01953608F0FFC0F1
:1026D00080912A01853608F0FAC0988F898F81E0B1
:1026E0008A8382E08883F3C010912A0182E0F81285
:1026F00073C000912B01412F602FCE0148961BDA49
:102700006A818823F9F0488D50E09A01220F331F27
:10271000240F351F200F311D3595279535952795A9
:10272000288F298D30E0C901880F991F820F931FD0
:10273000810F911D9595879595958795898F6F5FE9
:102740006A83C5C0643008F445C020EA3FE0309396
:102750008900209388008A818C3050F0888D298DE3
:1027600030E0280F311D2536310524F084E027C0E4
:102770008A3088F0888D298D30E0280F311D253270
:1027800031054CF485E0888328EE33E030938900EE
:102790002093880015C08091F102882379F0612F81
:1027A000802F0ADF882351F0688D898D05DF88230B
:1027B00029F081E08093360386D989C083E088833D
:1027C0000A8F1B8F198287E08B831C8282E08093A3
:1027D0006F007DC0188277CF88E0F81225C081E9AC
:1027E000810F8D3178F460E0CE0180D9288D30E002
:1027F000C901880F991F820F931F20912B01820F0F
:10280000911D4EC0173E08F462C061E0CE016ED942
:102810002A8D30E0C901880F991F820F931F2091E4
:102820002B01820F911D15C000912B01412F602FAC
:10283000CE014A9680D9882301F161E0CE0156D9B4
:102840002A8D30E0C901880F991F820F931F800FD6
:10285000911D95958795959587958A8F2B8D30E05D
:10286000C901880F991F820F931F810F911D9595A4
:102870008795959587958B8F2AC0412F602FCE0124
:10288000489659D9882301F160E0CE012FD9288DCF
:1028900030E0C901880F991F820F931F800F911D8F
:1028A0009595879595958795888F298D30E0C901F5
:1028B000880F991F820F931F810F911D9595879502
:1028C00095958795898F03C087E0F81275CFFF91A2
:1028D000EF91DF91CF91BF91AF919F918F917F91B8
:1028E0006F915F914F913F912F911F910F91FF90A9
:1028F0000F900FBE0F901F90189580915D0190E092
:102900006CE170E00E94682B825A9E4FFC0180812E
:10291000811107C081E09091BA039F3F19F480E0D4
:10292000089581E0089580E690E00E942108809358
:10293000F10281E690E00E94210880933E03882303
:1029400021F081E28093EF022AD910923703089593
:102950005B9A0C9497065B980C949706A7E0B0E0FE
:10296000E4EBF4E10C949E2B3091F50290E0E92F1A
:10297000F0E0E95CFC4F2081222309F471C032179A
:1029800011F09F5FF4CF95E79983882399F0BE01FA
:102990006E5F7F4F80913E030E940908BE016C5F0D
:1029A0007F4F8091F1020E94090885E58E8386E0C1
:1029B000D82E02C0DD24D3940E9443040E94BF039A
:1029C00016E080E891E0C4DF80E093E0C4DF1150BE
:1029D000C1F780E093E0BCDF80E891E0BCDF80E8F5
:1029E00091E0B6DF5B9887E390E00E94610383E0AB
:1029F0000E949C0628988FE70E94CD028091F402E5
:102A00008D0D0E94CD02CE0101967C018C01F80152
:102A100081918F010E94CD02802F8E198D15B8F300
:102A20008091F402882339F082EF92E00E945E09DF
:102A30000E94CD02F5CF289A0E94BF0382EF92E058
:102A40000E94430915E18AE30E9444038F7731F025
:102A5000115021F081E00E949C06F5CFA0D807C05C
:102A6000992309F490CF82EF92E00E9443092796C0
:102A7000E7E00C94BA2BCF93DF93EC0189818111AD
:102A80000BC08091F1020E94C20780913E030E9418
:102A9000C2070E944E073EC0863681F42296A7E305
:102AA000B3E0E0E08991882321F08D93EF5FE5307A
:102AB000C9F7F0E0E95CFC4F10822CC08936D9F4EC
:102AC00041E061EF72E0CE0102960E94C60760917C
:102AD000F10280E690E00E941C0841E06EE373E0A2
:102AE000CE0104960E94C60760913E0381E690E005
:102AF0000E941C080FC082EF92E00E9443092196B9
:102B00006991662329F082EF92E00E944809F8CF8C
:102B100080E024DFDF91CF910895A1E0B0E0E3E908
:102B2000F5E10C949D2B80913603882309F485C030
:102B3000C090E802D090E902E090EA02F090EB0247
:102B4000833009F060C08FE30E944403182F863061
:102B5000C8F08EE094E00E94430928988FEF0E940D
:102B6000CD0280E00E94CD02082F115049F080E094
:102B70000E94CD02682F8EE094E00E944809F5CFB4
:102B8000289A01C000E00BD810923603053709F0EF
:102B900054C041E0BE016F5F7F4F81E194E00E942D
:102BA000C607019759F599818091F102981326C0C3
:102BB00080911504853571F480911004882339F0D3
:102BC0008EE094E00E945E090E940107F5CF0E940A
:102BD0004E0733C08091100484508093100484E029
:102BE00080930F046AE08EE094E00E944809E0912F
:102BF000E402F091E50288E009951FC08EE094E0C0
:102C00000E9443091AC0823059F48091F0029C2D31
:102C1000981B983090F00E94CF0D109236030DC093
:102C2000813059F487E390E00E9461030E94D10350
:102C300082E080933603C092F0022196E8E00C9483
:102C4000B92B5BDE882319F083E080933D038091EC
:102C50003D03815080933D03882321F083E08093DE
:102C60003503089581E07ACECF93DF93EA98209AD6
:102C7000289A8EE190E00E94970628988EE190E0D5
:102C80000E949706289A8DE290E00E94970680E3C2
:102C90000E945D0384E690E00E949706C5E8D2E0BA
:102CA000FE0131966491FE0184910E944B032296AD
:102CB000F2E0C73BDF07A1F78091CF01811107C088
:102CC00083E30E945D0384E00E949C060FC0CFE670
:102CD000D2E0FE0131966491FE0184910E944B0383
:102CE0002296F2E0C538DF07A1F7EACF84E30E941D
:102CF0005D0385E30E9444038D30C1F7DF91CF91DE
:102D00000895A2E3B0E0E7E8F6E10C94A12B8091EE
:102D1000CE01882309F4A1C04A9B8AC08FE30E9498
:102D200044038F778983823368F08AE30E945D03CE
:102D300086E30E945D038DE30E945D0384E30E94AD
:102D40005D038BC028988FEF0E94CD0210E089812F
:102D5000181760F480E00E94CD02E2E0F0E0EC0F92
:102D6000FD1FE10FF11D80831F5FF1CF80E00E9406
:102D7000CD02082F80E00E94CD02289A84E30E94B1
:102D80005D0385E30E9444038D30C1F72A8196E7F5
:102D900092279A8392E08981E92FF0E0981768F4EE
:102DA00041E050E04C0F5D1FE40FF51F30812452CD
:102DB000232720839F5F232FEECF81E090E08C0FAD
:102DC0009D1FE80FF91F90818B8198279083809138
:102DD000EF0284FF12C081E60E94010710E08981A2
:102DE000811730F1E1E0F0E0EC0FFD1FE10FF11D84
:102DF00080810E9401071F5FF2CF81E40E940107DA
:102E000010E08981811758F0E1E0F0E0EC0FFD1F40
:102E1000E10FF11D80810E94C2071F5FF2CF8091F8
:102E2000EF0285FF03C0802F0E94C2070E944E0759
:102E300085E30E944403813029F0813161F48AE303
:102E40000E945D0386E30E945D038DE30E945D03A3
:102E500084E30E945D030E948A04E296E4E00C94FD
:102E6000BD2B8F929F92AF92BF92DF92EF92FF9213
:102E70000F931F93CF93DF93CDB7DEB7EA970FB6CB
:102E8000F894DEBF0FBECDBF41E38E010F5F1F4F31
:102E9000B80101960E94C6077C01992701972981F4
:102EA00030E08217930709F0A3C08091CE01811111
:102EB00004C0DADE83E00E949C06DB808A8196E70C
:102EC00089278A8322E03981822F90E0F801E80F78
:102ED000F91F231750F4DE01A80FB91F8C918452FB
:102EE0009081892780832F5FEECF80818D2580831D
:102EF000CE01C7960E94A50585E30E945D0385E388
:102F00000E944403833181F1CE01C3960E94A5053E
:102F10004BA95CA96DA97EA98FA998ADA9ADBAAD41
:102F200084179507A607B70760F44A015B01881A62
:102F3000990AAA0ABB0A2DEB82169104A104B104D6
:102F400070F4481759076A077B0770F484549F4F41
:102F5000AF4FBF4F84179507A607B70728F485E63C
:102F600092E00E94410727C085E30E944403833119
:102F700019F6D4FE08C088E70E949C0688E70E94E4
:102F80009C0688E701C08AE00E949C0628988FE78B
:102F90000E94CD0258018A2D801B8E1530F4F50158
:102FA00081915F010E94CD02F6CF289A85E30E94AD
:102FB00044038331D9F385E30E944403863149F405
:102FC0008BE30E945D0386E30E945D038DE30E9414
:102FD0005D038091CE01882349F084E30E945D0364
:102FE00085E30E9444038D30C1F702C00E94CF0DDB
:102FF000EA960FB6F894DEBF0FBECDBFDF91CF913A
:103000001F910F91FF90EF90DF90BF90AF909F9036
:103010008F900895FC012181223731F0223559F437
:1030200081E08093CF0102C01092CF011DDE81E0CC
:103030008093CE010895233711F4019612CF109298
:10304000CE010895CF93DF93EA98209A289A8EE1D3
:1030500090E00E94970628988EE190E00E949706E3
:10306000289A8DE290E00E94970680E30E945D031B
:1030700084E690E00E949706C9ECD2E0FE018491BC
:10308000813440F083E30E945D0384E00E949C064B
:10309000CFEF0DC0FE0131966491FE0184910E9434
:1030A0004B032296F3E0C530DF0741F7EBCF84E313
:1030B0000E945D038AE090E00E949706C150B9F734
:1030C00081E08093D001DF91CF910895EF92FF923C
:1030D0000F931F93CF93DF93EC018B01F8808091C6
:1030E000D001811101C0AEDF85E30E9444038D3021
:1030F00071F08AE50E94010785E40E94010782E5DC
:103100000E94010782E50E94010781E34CC0809183
:10311000D1019091D201A091D301B091D401892B1A
:103120008A2B8B2B51F50E94BF0385E30E94440339
:10313000833109F443C08AE50E94010785E40E94B7
:10314000010782E50E94010782E50E94010782E3F0
:103150002AC08091E8029091E902A091EA02B09120
:10316000EB024F5F5F4F6F4F7F4F84179507A607A6
:10317000B707C9F681E00E949C068091E802909111
:10318000E902A091EA02B091EB024091D101509185
:10319000D2016091D3017091D40184179507A607DD
:1031A000B707B9F6E7CF0E94010785E30E94440301
:1031B0000E94C2070E944E0745DF65C0012B49F4FB
:1031C00028988FE70E94CD02EC2E0C2F1D2FF39430
:1031D0000BC00AE010E084E60E949C060150110931
:1031E00001151105C1F7ECCF802F8E198F1530F422
:1031F000F80181918F010E94CD02F6CF289AC8EC88
:1032000085E30E9444038D30E9F485E30E94440382
:103210008D3019F18AE50E94010785E40E940107BB
:1032200082E50E94010782E50E94010783E30E9474
:10323000010785E30E9444030E94C2070E944E07D3
:1032400001DF0BC085E30E9444038331F1F681E086
:103250000E949C06C150A1F6D8CF8091D001811167
:1032600002C00E94CF0D8091E8029091E902A091E6
:10327000EA02B091EB028093D1019093D201A09326
:10328000D301B093D401CDB7DEB7E6E00C94BB2BED
:10329000ACE0B0E0EEE4F9E10C94A22BFC018BE091
:1032A000898381818A831B8282E08C8387818D83DD
:1032B00080858E8381858F838481888785818987B6
:1032C00086818A871B861C8684E10E949C0660E0BA
:1032D00070E0CE010196FADE8AE50E94010710E057
:1032E000812F90E0298130E0281739075CF0E1E078
:1032F000F0E0EC0FFD1FE80FF91F80810E94C2076C
:103300001F5FEECF8091EF0285FF03C080E00E9437
:10331000C2070E944E072C96E3E00C94BE2BCF937D
:10332000DF93EC018091D801811108C09091D901FF
:10333000911104C09091DA019923A9F09B819033F7
:1033400019F09F7E903479F49F8198130CC0988572
:103350008091D901981307C099858091DA0198135B
:1033600002C0CE0195DF8091D501811108C09091F6
:10337000D601911104C09091D7019923A9F09881A9
:103380009B3091F49B81903479F49F8198130CC009
:1033900098858091D601981307C099858091D701AF
:1033A000981302C0CE0174DFDF91CF910895AEE192
:1033B000B0E0EDEDF9E10C94A12B8091D0018823D0
:1033C00009F469C04A9B59C08FE30E9444038F7778
:1033D0008E3108F08DE1898328988FEF0E94CD020D
:1033E00010E08981181760F480E00E94CD02E2E0CD
:1033F000F0E0EC0FFD1FE10FF11D80831F5FF1CFA7
:1034000080E00E94CD02082F80E00E94CD02289A21
:10341000CE01019684DF8091EF0284FF12C08AE71B
:103420000E94010710E089818117A8F1E1E0F0E036
:10343000EC0FFD1FE10FF11D80810E9401071F5F4E
:10344000F2CF8AE50E94010710E08981811758F0C8
:10345000E1E0F0E0EC0FFD1FE10FF11D80810E9423
:10346000C2071F5FF2CF8091EF0285FF03C0802F5C
:103470000E94C2070E944E070EC085E30E944403CB
:10348000813149F48AE30E945D0386E30E945D0373
:1034900084E30E945D036E96E4E00C94BD2BAEE1E4
:1034A000B0E0E5E5FAE10C94A12B8C01FC018181EF
:1034B000823711F4C7DD36C0833711F0863601F547
:1034C0004DE1BE016F5F7F4FC80102960E94C607A3
:1034D00099270197298130E08217930729F087EB1C
:1034E00092E00E9441071EC061E070E0F801818116
:1034F000833711F060E070E0CE010196E7DD12C085
:10350000813621F443E068ED71E005C0873741F46E
:1035100043E065ED71E0C80102960E94C60702C053
:103520001092D0016E96E4E00C94BD2B0E94D10362
:10353000EA980895CF93DF93209A289A8EE190E03D
:103540000E94970628988EE190E00E949706289A9C
:103550008DE290E00E94970680E30E945D0384E67E
:1035600090E00E949706809180038933C1F4C9E6F8
:10357000D3E0FE0131966491FE0184910E944B03D9
:103580002296F3E0CB39DF07A1F783E30E945D03C6
:1035900084E00E949C06CADFDF91CF9108958433B6
:1035A00079F4C7E3D3E0FE0131966491FE01849182
:1035B0000E944B032296F3E0C936DF07A1F7E5CF5F
:1035C000813319F7C5E0D3E0FE0131966491FE0125
:1035D00084910E944B032296F3E0C733DF07A1F7E3
:1035E000D4CFFC01908180918503981318C09181FC
:1035F00080918603981313C092818091870398135A
:103600000EC0938180918803981309C080859091A2
:103610008903891302C081E008958F3FE1F380E0C0
:1036200008952FEF662339F06150FC01E60FF11D7C
:1036300030812327F7CF822F0895DC01FC018FE032
:103640009DE170E09F012A1B3B0B2617370704F50D
:103650002191492F552742279A01329522952F70A3
:1036600023273F70232724273527982F8827822751
:103670009327A901542F44275295507F84279527DB
:1036800045E0220F331F4A95E1F782279327DACFCF
:103690000895A0E0B0E0EFE4FBE10C949E2BEC0178
:1036A000E62E459A80918003893339F464E182E102
:1036B0000E944B036E2D660F6D5E86E00E944B03E9
:1036C0000E94BF0328988FE70E94CD02809180035B
:1036D000893321F0FC2E0C2F1D2F50C01FE086E6F1
:1036E0000E94CD021150D9F78AEA0E94CD0285E5E9
:1036F0000E94CD02DC2E0C2F1D2F802F8D198E15D0
:10370000B0F5F801F1908F01F7FE02C080E801C02A
:1037100080E4F6FE02C090E201C090E1980FF5FE51
:1037200002C088E001C084E0890FF4FE02C092E08C
:1037300001C091E0890F0E94CD02F3FE02C080E833
:1037400001C080E4F2FE02C090E201C090E1980F57
:10375000F1FE02C088E001C084E0890FF0FE02C0E3
:1037600092E001C091E0890F0E94CD02C6CF80E0B7
:103770000E94CD0280E00E94CD020BC0802F8F19E5
:103780008E1538F4F80181918F0180950E94CD0249
:10379000F5CF289A85E30E9444038331D9F36FEF74
:1037A00086E00E944B0380918003893321F46EE10F
:1037B00082E10E944B03BADE45988D8186FF2CC0C2
:1037C0008091E8029091E902A091EA02B091EB02A7
:1037D0000696A11DB11D8093810390938203A0934F
:1037E0008303B09384038091DB018F5F8093DB01BF
:1037F000823060F08AE70E94010782E70E94010799
:103800008091DB010E94C2070E944E078091DB017C
:10381000833010F01092DB01CDB7DEB7E7E00C94F7
:10382000BA2BA1E4B0E0E7E1FCE10C94992B809184
:10383000DC01882309F420C18091DB018823D9F0C1
:103840004091E8025091E9026091EA027091EB0226
:103850008091810390918203A0918303B0918403AE
:1038600084179507A607B70730F460917F038FE3AD
:1038700093E00FDF01C14A9BFFC0459A28988FEF64
:103880000E94CD028E010F5F1F4F6E0189E0C80EAE
:10389000D11C780180E00E94CD02F70180839091D5
:1038A0008003993311F080958083FFEFEF1AFF0AB0
:1038B000EC14FD0479F7289AB88487EF8B0D8833D0
:1038C00010F038DED9C06B2D86E00E944B0380914A
:1038D0008003813331F0843341F4ACEDEA2EF12CD6
:1038E00008C0FAE5EF2EF12C04C0E8E9EE2EE3E083
:1038F000FE2E68E3962E78E0A72ECB2CD12CC701A4
:103900000E9497068BE30E944403882E882331F19E
:10391000282F30E02A0D311DC216D30694F22898C4
:103920008FEF0E94CD028A0CA81471F080E00E94F3
:10393000CD0290918003993309F08095F801EA0D4A
:10394000F11D8083A394F0CF289AAB1438F08091B6
:103950008003EB2CF12C8133D9F403C09A9479F6CF
:10396000F6CFFE013197EE0DFF1DC080D12CDC2C6F
:10397000CC24FE01EE0DFF1D8081C80ED11C6EEF20
:103980006B0DC8015ADE21E08C159D0559F40BC062
:103990006FEF6B0DC80145DEFE01EE0DFF1D21E04E
:1039A0009081891320E08091DC01823751F4C801B5
:1039B00022962FAF229715DE22962FAD22978823CD
:1039C00099F0222391F08AE70E9401077801F7011C
:1039D00081917F010E94C2078E2D801B8B15B8F349
:1039E0000E944E0721E001C020E08091DC01823777
:1039F00081F4222371F08E81982F9370933029F4F3
:103A00009091DB0191111092DB0186FF02C087FFCC
:103A100007C06FEF86E00E944B0388DD45982CC0FD
:103A20008AE00E949C068D818987809189038D831D
:103A300083E08E8380918003813349F48BE0888713
:103A400069E0C801FADD9A878B876BE007C08AE0DE
:103A5000888769E0C801E5DD8A876AE0C80119DE68
:103A60008AE70E94010781E60E94010789850E947A
:103A7000C2070E944E07D2CFCF5BDF4FECE00C9421
:103A8000B52BFC012181223711F02D3651F4FC01B8
:103A90008281811101C084E3809380032093DC0143
:103AA00049CD233771F41092DB0140E46FE373E0FA
:103AB00002960E94C60780937F03682F8FE393E0EE
:103AC000E8CD293671F5FC012281222331F045E051
:103AD00065E873E002960C94C6078091DC010E94B1
:103AE0000107809180030E94010780E20E94010784
:103AF000809185030E94C207809186030E94C207BD
:103B0000809187030E94C207809188030E94C207A8
:103B100080E20E940107809189030E94C2070C94F1
:103B20004E071092DC010895CF93DF93EA98209A14
:103B3000289A8EE190E00E94970628988EE190E006
:103B40000E949706289A8DE290E00E94970680E3F3
:103B50000E945D0384E690E00E949706289880E426
:103B60000E94CD02CBE9D3E0FE0184910E94CD02F8
:103B70002196F3E0C83ADF07B9F7809108010E9467
:103B8000CD02809109010E94CD0280910A010E941C
:103B9000CD02C0E0D0E0FE01E555FC4F84910E94CB
:103BA000CD022196C931D105B1F7289A28988EE720
:103BB0000E94CD028BE290E0EC0121960E94210848
:103BC0000E94CD02C333D10511F0CE01F5CF289A62
:103BD00083E30E945D0381E00E949C0681E0809364
:103BE000E602DF91CF910895AF92BF92CF92EF920C
:103BF000FF920F931F93CF93DF93EC01898184375A
:103C000069F46FE071E0CE0102960E94F30740E292
:103C100060E080910F019091100112C0833709F08C
:103C20007CC18A81823789F46BE071E0CE01039612
:103C30000E94F30740E260E080910B0190910C013B
:103C40000E9452070E944E07DCC1459A8091DF0115
:103C5000811116C08091CE01882329F081E08093E4
:103C6000DE011092CE018091D001882329F081E0FD
:103C70008093DD011092D00157DF83E00E949C0603
:103C800086E30E945D038AE30E945D038BE30E944A
:103C90005D030E94BF03FE0101900020E9F70E2F93
:103CA0000C1B0250C12C7E01E2E0EE0EF11C809153
:103CB0000B0190910C012C2D332727FD30952817EF
:103CC000390708F0ECC0013291F45B9A80910F0142
:103CD000909110010E9497065B9880910D01909140
:103CE0000E016AE070E00E94682B0E94970657015F
:103CF00011E010170CF0ACC0F50181915F015B9AE7
:103D0000803309F040C00132E1F480910D019091BF
:103D10000E010E9497065B9880910D0190910E0113
:103D20000E9497065B9A80910D0190910E010E946E
:103D300097065B9880910D0190910E0165E070E00F
:103D40001FC080910F01909110010E9497065B980F
:103D500080910F019091100163E070E00E94682B48
:103D60000E9497065B9A80910F01909110010E942A
:103D700097065B9880910F019091100163E070E0CD
:103D80000E94682B61C0813311F5013281F480916A
:103D90000D0190910E010E9497065B9880910D0194
:103DA00090910E0165E070E00E94682B1DC080912B
:103DB0000F019091100163E070E00E94682B0E9457
:103DC00097065B9880910F01909110012BC00132F2
:103DD000D1F480910D0190910E010E9497065B989D
:103DE00080910D0190910E010E9497065B9A80913F
:103DF0000D0190910E010E9497065B9880910D0134
:103E000090910E0121C080910F01909110010E94AC
:103E100097065B9880910F019091100163E070E02C
:103E20000E94682B0E9497065B9A80910F019091E7
:103E3000100163E070E00E94682B0E9497065B9877
:103E400080910F01909110010E9497061F5F51CF42
:103E50005B9A013291F480910D0190910E010E94C4
:103E600097065B9880910D0190910E0168E270E0D9
:103E70000E94682B0E94970610C080910F019091BC
:103E800010010E9497065B981FE180910F019091AD
:103E900010010E9497061150C1F7C39408CF80917A
:103EA000DF01882341F08091EF0281110FC086E38A
:103EB0000E945D0318C08091DE01882351F01092AA
:103EC000DE010E94341681E08093CE010E94D1036E
:103ED0000AC08091DD01882321F01092DD01B2D863
:103EE00002C00E94CF0D459889E60E94010783E732
:103EF0000E94010711E010170CF0A4CEFE01E10FA3
:103F0000F11D17FDFA958181803319F0813309F095
:103F100086E40E9401071F5FEECF8237B9F48091DB
:103F2000CE01882329F081E08093DE011092CE013A
:103F30008091D001882329F081E08093DD011092E7
:103F4000D001F2DD81E08093DF015BC0863651F560
:103F50008A81803351F480E18093080180EB809363
:103F6000090181E780930A0107C043E068E071E03E
:103F7000CE0102960E94C60789E60E94010786E6E6
:103F80000E9401078AE30E940107809108010E94B4
:103F9000C207809109010E94C20780910A010E9414
:103FA000C20750CE883729F58091DE01882341F081
:103FB0001092DE010E94341681E08093CE0110C081
:103FC0008091DD01882321F01092DD013BD80EC0E5
:103FD00082E090E00E9461038091EF02882319F053
:103FE0000E94D10303C086E30E945D031092DF01AB
:103FF00008C0833631F46FE071E0CE0101960E9473
:10400000F307DF91CF911F910F91FF90EF90CF9029
:10401000BF90AF900895A2E0B0E0E1E1F0E20C942F
:10402000962B7C01FC018181833709F09DC11982A7
:1040300087E090E00E94CA2B8C0141E0BE016F5FD7
:104040007F4FC70102960E94C6078981F8018083CD
:1040500041E0BE016F5F7F4FC70104960E94C60713
:104060002981207FF801218341E0BE016F5F7F4FEE
:10407000C70106962A830E94C6078981F8018283B8
:1040800041E0BE016F5F7F4FC70108960E94C607DF
:104090008981F801838341E0BE016F5F7F4FC701D3
:1040A0000A960E94C6078981F801868341E0BE0115
:1040B0006F5F7F4FC7010C960E94C6078981F80188
:1040C000858341E0BE016F5F7F4FC7010E960E945E
:1040D000C6078981F801848380E090E02A814191BC
:1040E000342F32953F70342783279F5F9730B9F77D
:1040F0008F70822BF801818387E090E00E94CA2BA9
:104100005C0187E0F801D50101900D928A95E1F7F5
:10411000D8011196C8010696F8013D9121912327F7
:104120002083E817F907C9F7459A8091E2018111C8
:1041300060C08091CE01882329F081E08093E10165
:104140001092CE018091D001882329F081E08093E4
:10415000E0011092D001EA98209A289A8EE190E02E
:104160000E94970628988EE190E00E949706289A70
:104170008DE290E00E94970680E30E945D0384E652
:1041800090E00E949706289880E40E94CD0264EC9B
:10419000E62E63E0F62EF70184910E94CD02FFEF38
:1041A000EF1AFF0A2DEEE21623E0F206A1F7289A95
:1041B00028988EE70E94CD028BE290E07C01EFEF21
:1041C000EE1AFE0A0E9421080E94CD02F3E3EF16C8
:1041D000F10411F0C701F2CF289A83E30E945D0336
:1041E00081E00E949C0681E08093E60283E00E94C9
:1041F0009C0686E30E945D038AE30E945D038BE3D5
:104200000E945D030E94BF035B9A87EC94E20E94C8
:1042100097065B9889E50E949C0685E392E00E94E0
:104220009706712C8091150190E0272D332727FDEB
:104230003095281739070CF057C0711002C022E0E2
:1042400001C027E0F12C5B9A86EF99E02A830E9457
:1042500097065B9886EF99E00E949706F3942A816F
:10426000F2168CF35B9A8CEF92E10E9497065B98B2
:1042700080911101909112010E9497066801612CB2
:10428000F60181906F0148E0542E50E8E52EF12CA4
:10429000912CC70188219921892B49F45B9A80913F
:1042A0001101909112010E9497065B9808C05B98DB
:1042B00080911101909112010E9497065B9A809162
:1042C0001101909112010E949706F694E7945A9476
:1042D00001F76394F7E06F12D3CF5B9880E090E032
:1042E0000E94970673949ECF8091E201882341F04B
:1042F0008091EF0281110FC086E30E945D0319C017
:104300008091E101882351F01092E1010E9434165E
:1043100081E08093CE010E94D1030BC08091E00127
:10432000882329F01092E0010E94221802C00E9406
:10433000CF0D459889E50E94010783E70E94010798
:104340007501D12CF70181917F010E94C207D3949E
:10435000F7E0DF12F7CF0E944E07C5010E94622CE2
:10436000C8010E94622C6FC08237A9F465E171E038
:10437000C70102960E94F30789E50E94010782E7C0
:104380000E9401078AE30E9401078091150140E223
:1043900060E090E02CC0843779F5F70182818033AA
:1043A00039F488ED94E0909314018093130106C0D2
:1043B00063E171E0C70102960E94F3078091130147
:1043C0009091140196958795909312018093110115
:1043D00089E50E94010784E70E9401078AE30E94A1
:1043E000010740E266E080911301909114010E9460
:1043F00052070E944E0727C0883729F58091E101B6
:10440000882341F01092E1010E94341681E08093EC
:10441000CE0111C08091E001882329F01092E001C3
:104420000E9422180EC082E090E00E9461038091F9
:10443000EF02882319F00E94D10303C086E30E9493
:104440005D031092E2012296EFE00C94B22B1092E1
:10445000A50310929E0283E08093E8018FEF809382
:10446000BA030895E9EEF1E02081211105C0892BFE
:10447000B1F080E090E00895B2E0E739FB07B8F7CB
:10448000009751F04181DC013C91431305C042810A
:1044900011963C91431751F0E20FF11DE5CF32E048
:1044A000E739F30719F010F0E7E9F2E0CF010895DA
:1044B000E82FF0E0EE0FFF1FEE0FFF1FE554FC4F5B
:1044C00080818F3F91F08093E30181818093E401AB
:1044D00082818093E50183818093E60121E04CE0B5
:1044E00064E083EE91E00C94670A089588E992E015
:1044F000B9DF009799F02091E801FC013081231782
:1045000068F4E20FF11D808180939A0289E780931D
:104510009B02818180939C0281E0089580E0089550
:10452000EF92FF921F93CF93DF931F92CDB7DEB729
:10453000182F8091EF0286FF18C084E599830E94AE
:104540000107E12E9981F92E15E0F70181917F0194
:104550000E94C2071150C9F78091EF0285FF03C086
:104560008AEF0E94C2070E944E070F90DF91CF9101
:104570001F91FF90EF90089586E30E945D03809164
:104580009A02833511F48BE901C08BE40E949C06EA
:1045900021E04CE065E088E992E00E94670A0E9411
:1045A000D10388E992E0BCCFE7DF80919A02893697
:1045B00031F081E08093970289E28093BA030895F5
:1045C000CF9385E390E00E94210880938B0386E3DC
:1045D00090E00E9421088093B903CFEFC093A90314
:1045E000C093AB03C093AD03C093AF03C093B103BB
:1045F000C093B303C093B503C093B70328DF1092F1
:10460000E90181E080938A03C093BB038FEF9FEFA2
:1046100090938E0380938D031092900310928F03DA
:104620001092920310929103C093BF03909394034E
:10463000809393031092960310929503109298031F
:1046400010929703C093C30390939A0380939903A6
:1046500010929C0310929B0310929E0310929D0354
:10466000C093C7039093A00380939F031092A2036B
:104670001092A1031092A4031092A303CF91089566
:10468000ACE0B0E0E6E4F3E20C949C2B6C018C010E
:104690000F5F1F4F45E0BE016F5F7F4FC8010E9453
:1046A000C607843008F0F2C099819130A9F48330B4
:1046B00061F46A8185E390E00E941C086B8186E3C7
:1046C00090E00E941C087CDF02C280918B030E9454
:1046D000C2078091B90399C0923009F051C081306E
:1046E00039F081E09A81913009F080E0F82E02C023
:1046F000FF24F3948091E901811104C08DEE93E0D1
:104700000E94410709EE11E0F8018081882309F435
:10471000BAC0F2E007391F0708F0B5C081E0093ED2
:10472000180719F080E20E940107F80181810E94B8
:10473000C207F80182810E94C207FF20E1F08AE3EC
:104740000E94010793E0F80180819817A0F494304B
:1047500038F090FF05C08CE29C870E9401079C8581
:10476000EE24E394E90EF801E90FF11D80810E9427
:10477000C2079E2DE8CFF8018081080F111DC4CF1C
:10478000933049F480E090E06DDE895E91409EEACE
:10479000981B892F3AC0903171F509EA13E0FAEAC3
:1047A000EF2EF3E0FF2EC12CD12CF80180818F3F3A
:1047B000A1F0DD2019F080E20E9401078C2D0E94FB
:1047C000C2078AE30E940107F80180810E94C207A4
:1047D000F70180810E94C207D3940E5F1F4FC394DC
:1047E000F2E0EF0EF11C88E0C812DFCFD1104BC011
:1047F0008BEF93E046C0913159F48091A7039091DB
:10480000A8036DE770E075D7862F0E94C2073BC0F2
:104810009231C9F5EBEBEE2EE3E0FE2E0EEB13E04A
:10482000C12CD12CF70180818F3FF1F0DD2019F0F0
:1048300080E20E9401078C2D0E94C2078AE30E9439
:104840000107F70180810E94C207F8013297808139
:104850000E94C207F801319780810E94C207F801C7
:1048600080810E94C207D394F4E0EF0EF11CC39440
:104870000C5F1F4F84E0C812D5CFD11004C087EF62
:1048800093E00E9441070E944E0721C144E0BE010F
:10489000695F7F4FC8010E94C6074F81493608F4FF
:1048A00081C07A8558856985EDEBF3E080E090E082
:1048B0007C3009F058C09C01220F331F220F331F98
:1048C000DF0112977C9174131EC01196AC91A51351
:1048D0001AC0A081A61317C0F901E554FC4F2CE0C3
:1048E000238363E070E0F4D6DC01AA0FBB1FA3575B
:1048F000BC4F1D921C92FC01EE0FFF1FE157FC4FB5
:1049000011821082C6C07F3FE1F4F901E554FC4FEB
:104910004083518362832CE0238363E070E0D8D628
:10492000DC01AA0FBB1FA357BC4F1D921C92FC01B8
:10493000EE0FFF1FE157FC4F1182108210928A0385
:10494000A8C0019634968430910509F0B4CFBFC059
:10495000DF011197AC91A51789F001963496843048
:10496000910509F4B4C09C01220F331F220F331F9D
:10497000DF011297AC91A413F0CFEACFA081A61368
:10498000ECCFF901E554FC4F738363E070E0A0D6EF
:10499000FC01EE0FFF1FE157FC4F81E090E0918397
:1049A000808395C0E98180918B03E81758F190E0EE
:1049B000F0E09C01295F3F4F2E173F071CF13A8121
:1049C0002091B90332131EC02C812F3231F442E002
:1049D0006CE0C6010E94D60A7AC03D812C3249F4AF
:1049E0003093A60381E090E09093A8038093A703FF
:1049F0006EC0E81BF90BEE0FF0E0E755FC4F20838B
:104A0000318365C080E090E02DDD7C01F8010190EC
:104A10000020E9F73197E01BF10BF695E795BB24F1
:104A2000B394BE0EC7018B0D911D895E91408F3AE4
:104A300091050CF048C0F701B1928F0121E0822F5F
:104A4000880F81502B15D8F441E0B801F601E80F2A
:104A5000F11DCF012C870E94C6072C85233058F00A
:104A600020FD09C0D80111978C91843621F4F801FA
:104A7000808180938C032F5F0F5F1F4FE0CFF7E99A
:104A8000EF16F2E0FF0618F5F701E20FF11D1082B4
:104A90001EC022E04CE064E0CE0107960E94670A47
:104AA0008FE08A8722E04CE064E0CE0107960E9406
:104AB000670A82E08A8722E04CE064E0CE01079634
:104AC0000E94670A04C081EF93E00E9441072C9680
:104AD000E9E04EC6FF920F931F93CF93DF93F82E1A
:104AE00080918A03811154C0AF2DB0E0CD0163E005
:104AF00070E0EED58C01FC01EE0FFF1FE357FC4F79
:104B0000AA0FBB1FAA0FBB1FA554BC4F12968C91B6
:104B1000877020E830E0A901481B5109CA016AEFFB
:104B200070E0D6D5959587959595879591838083E7
:104B3000E801CC0FDD1FCF56DC4F288139812F5F74
:104B40003F4F39832883000F111F01571C4FF80175
:104B5000408151814115510531F424303105C1F4B2
:104B60008F2DA6DC13C04130510541F48F2DA0DC00
:104B700082E090E0F801918380830AC042305105C1
:104B800039F48F2D95DCF801118210821982188278
:104B9000CDB7DEB7E5E0F0C5A6E0B0E0E1EDF5E2C7
:104BA000CEC58091B9038A831B829091A603992375
:104BB00041F0933019F487E791E00CC08DE790E065
:104BC00009C0877090E08A519F4F6DE770E080D5F3
:104BD000959587959093A8038093A7030AEA13E01D
:104BE000F12C5CE2E52EF801319790819F3FC1F0F6
:104BF00080918B038F0D89838091A603882311F008
:104C0000EC8203C09C83F80180818D8321E04CE01D
:104C100065E0CE0101960E94670ACE01019680DC14
:104C2000F3940E5F1F4FF8E0FF12DDCF8091A603D3
:104C3000882341F0833019F41092A60303C08250F8
:104C40008093A6032696E6E096C580919702882376
:104C500051F092DC89E28093BA03809197028150EF
:104C6000809397020895F3CBFF920F931F93CF93F6
:104C7000DF93FC01F0800181C281D38114818FE533
:104C80008093BA031092970280918B03811105C023
:104C90008091B903882309F4A9C0809198028F11EB
:104CA00004C080919902801729F0D1DBF09298021C
:104CB000009399028091A5038F3F09F497C0C09398
:104CC0009A02D0939B0210939C02CC23F1F08111A5
:104CD0001CC080918B03181761F0143651F08DEAD7
:104CE0008C0F823010F0CD3739F48FEF8093A5030D
:104CF0007DC0C43509F47AC08D2F807F803609F0DD
:104D000075C0D067D0939B0257C0F0DB811105C0FE
:104D10008091A503882309F469C080919E028111C6
:104D200007C0E091A503F0E0E150FC4FE49101C021
:104D3000E82FE33541F4C43531F49091A5039E5F2B
:104D40009093A50304C0EC1711F081DB4FC08823BA
:104D500069F08091E8018E5F8093E801C7DB8111E3
:104D60000EC08091A5038E5F8093A5038091A5035B
:104D7000E82FF0E0E050FC4F14911F3F59F4809170
:104D80009A0280939E028436B9F480918C038093BA
:104D90009C0212C010939A0297E790939B02909105
:104DA0008B0390939C028E5F8093A50310929E02CA
:104DB0008E3021F01123D1F0F7DB18C088E992E0A2
:104DC00051DBDC01009781F02C9130E087E992E023
:104DD000821B930BA817B90730F4ED01C20FD31F44
:104DE00048814D93F7CF1C9232DBE4CFCDB7DEB7CD
:104DF000E5E0C2C40F931F93CF93DF93EC0110E063
:104E0000212F30E0C90163E070E062D488579F4FE2
:104E1000FC010491C90163E070E05AD487579F4FA9
:104E2000FC0125913491002399F0209739F480E218
:104E30000E940107802F0E94010708C0888180130B
:104E400005C0CE01F901099581E003C01F5FD8CFED
:104E500080E0DF91CF911F910F910895CF93C09182
:104E600024018093240180911004882309F43DC01B
:104E70008EE094E00E945E0920919F023091A00292
:104E80008A3011F08D3011F52115310561F3F901EA
:104E9000EF55FD4F108281EA92E0ACDF811111C025
:104EA00085E294E00E94410781EA92E00E94360781
:104EB0008DE094E00E94410780E090E09BDF0E943B
:104EC0004E071092A00210929F02CDCF20343105E0
:104ED00050F6A9014F5F5F4F5093A00240939F028D
:104EE000F901EF55FD4F8083BECFC0932401CF91D0
:104EF0000895E4E6F0E080818B7F8083299A84B175
:104F0000876084B9239880E58CBD8DB581608DBDA7
:104F1000089520915E0430915F042115310521F43C
:104F2000209118013091190180911601909117017B
:104F3000009741F48DB79EB740911A0150911B0123
:104F4000841B950B2817390718F4821B930B0895BF
:104F500080E090E0089582E40E94010740E265E06D
:104F600080915E0490915F040E9452070E944E0758
:104F700083E50E94010740E265E08091180190916D
:104F800019010E9452070E944E0785E40E94010702
:104F900040E265E080911601909117010E9452074E
:104FA0000E944E0786E40E940107B3DF40E265E0FD
:104FB0000E9452070C944E07A2E0B0E0E1EEF7E247
:104FC000C2C3E6E5F4E08091F100819384E0EE3520
:104FD000F807C9F72091560430915704832F90E0C9
:104FE0008A30910508F01AC1FC01E65CFF4F95C3B9
:104FF000203879F0223809F011C180915A04809349
:10500000E9008091EB0085FB882780F91092E90088
:1050100006C0809151049091520491118260909148
:10502000E800977F9093E8008093F1001092F100E0
:105030008091E800982F9E7F9093E8008F7780936F
:10504000E8008091E80082FDAFC080915504811195
:10505000F8CFD5C0822F8D7F09F0E0C0222319F050
:10506000223061F033C080915804813009F0C7C00C
:10507000333009F080E08093520428C080915804B6
:10508000811124C020915A04277009F4B8C02093DC
:10509000E9008091EB0080FF19C08091EB00313076
:1050A00091F480618093EB0081E090E0022E01C0DA
:1050B000880F0A94EAF78093EA001092EA00809140
:1050C000EB00886001C080628093EB001092E900E1
:1050D0008091E800877F8093E8008091E800982F16
:1050E0009E7F66C021119AC0209158048091E800EB
:1050F000877F8093E8009091E800892F8E7F8093CE
:10510000E8009F779093E8008091E80080FD05C05B
:10511000809155048111F8CF72C0822F8F77982F1C
:1051200090689093E300882309F469C083E080933A
:10513000550465C02058223008F070C0AE014F5FA2
:105140005F4F60915A0480915804909159040E94D5
:105150009302009709F453C02091E800277F209321
:10516000E800BC0189819A8126D11EC0203809F04F
:1051700055C08091E800877F8093E80080915304B8
:105180008093F1008091E800982F9E7F9093E80033
:105190008F778093E8008091E80082FD05C08091C0
:1051A00055048111F8CF2BC08091E800982F9B7F88
:1051B0009093E8008F778093E80021C021112EC0E2
:1051C000909158049230D8F48091E800877F8093C2
:1051D000E800909353048091E800982F9E7F90936D
:1051E000E8008F778093E80080915304882311F0C2
:1051F00084E001C083E0809355040E940005809103
:10520000E80083FF0EC08091EB0080628093EB008A
:105210008091E800877F8093E80003C00E94180512
:10522000EECF2296E2E0ABC28093E900EBEEF0E035
:10523000808181608083EDEEF0E010826093EC006D
:1052400040838091EE00881F8827881F0895109260
:10525000F40080E08093E9001092F0001092E800E2
:105260009091ED009D7F9093ED009091EB009E7FDB
:105270009093EB008F5F853069F708958091560415
:1052800087FD05C08091E80080FF0FC013C08091AA
:10529000E80082FD05C0809155048111F8CF089582
:1052A0008091E800982F9B7F09C08091550481115F
:1052B000E9CF08958091E800982F9E7F9093E800B1
:1052C0008F778093E800089585E69091EC0090FF39
:1052D00005C09091E80090FF05C019C09091E800CA
:1052E00092FD15C090915504992399F09091EB008F
:1052F00095FD11C09091E10092FFE7CF9091E10000
:105300009B7F9093E100815001F783E0089580E056
:10531000089582E0089581E0089540915C045091E1
:105320005D049B014617570708F49A0140E02115D8
:105330003105A9F15091E80053FD39C05091E800C2
:1053400052FF06C08091E80082FF2CC080E00895E3
:1053500050915504552369F15091E80050FFE7CF73
:10536000FC01CF012115310551F04091F200483088
:1053700030F481918093F10021503109F2CF5091A6
:10538000F20041E0583009F040E05091E800652F0C
:105390006E7F6093E8005F775093E800C8CF4111BB
:1053A000C9CFD0CF809155048111CCCF02C081E00C
:1053B000089582E0089540915C0450915D049B0142
:1053C0004617570708F49A0140E021153105B1F15D
:1053D0005091E80053FD3AC05091E80052FF06C0DA
:1053E0008091E80082FF2DC080E00895509155041F
:1053F000552371F15091E80050FFE7CFFC01CF0138
:105400002115310559F04091F200483038F484916B
:105410008093F100215031093196F1CF5091F20083
:1054200041E0583009F040E05091E800652F6E7F70
:105430006093E8005F775093E800C7CF4111C8CF71
:10544000CFCF809155048111CBCF02C081E0089568
:1054500082E008956115710571F12091E80023FD46
:105460002FC020915504222379F12091E80022FFDA
:10547000F4CFFC018091F200882371F09F012F5F2F
:105480003F4FC9014091F10040836150710961159E
:10549000710519F0F901EECFCF012091E800322F0C
:1054A0003B7F3093E8002F772093E800D3CF8091A3
:1054B0005504882349F08091E80080FFF8CF02C0AE
:1054C00081E0089580E0089582E0089553D055D09A
:1054D00010925504109253041092520410925104E9
:1054E00019BC89B5826089BD09B400FEFDCF8091E9
:1054F000D800982F9F779093D80080688093D80029
:10550000809163008E7F809363008091D8008F7DAF
:105510008093D8008091E0008E7F8093E00080919E
:10552000E1008E7F8093E1008091E20081608093B2
:10553000E2008091E100877F8093E1008091E200AA
:1055400088608093E2000895C1DF81E08093540475
:1055500078940895BBDFE0EEF0E080818160808385
:10556000E8EDF0E080818F77808319BC10925404BD
:10557000089508951092E20008951092E1000895B0
:105580001F920F920FB60F9211242F933F934F93B8
:105590005F936F937F938F939F93AF93BF93EF939B
:1055A000FF938091E10080FF1CC08091E20080FFAA
:1055B00018C08091E1008E7F8093E1008091E2002D
:1055C0008E7F8093E2008091E20080618093E20010
:1055D0008091D80080628093D80019BC1092550445
:1055E000C8DF8091E10084FF29C08091E20084FF40
:1055F00025C019BC89B5826089BD09B400FEFDCF04
:105600008091D8008F7D8093D8008091E1008F7EBB
:105610008093E1008091E2008F7E8093E200809190
:10562000E20081608093E20080915304882311F0AE
:1056300084E001C081E0809355049BDF8091E1000C
:1056400083FF23C08091E20083FF1FC08091E100AF
:10565000877F8093E10082E0809355041092530489
:105660008091E1008E7F8093E1008091E2008E7F47
:105670008093E2008091E20080618093E200E7DDA8
:1056800042E060E080E0D0DD74DFFF91EF91BF91F8
:10569000AF919F918F917F916F915F914F913F91CA
:1056A0002F910F900FBE0F901F901895CF93809160
:1056B0005504882359F0C091E900C7701092E900A1
:1056C0008091E80083FD78DCC093E900CF910895D4
:1056D0000024552704C0080E591F880F991F0097F2
:1056E00029F076956795B8F37105B9F7802D952F58
:1056F0000895AA1BBB1B51E107C0AA1FBB1FA61719
:10570000B70710F0A61BB70B881F991F5A95A9F76A
:1057100080959095BC01CD010895EE0FFF1F059077
:10572000F491E02D09942F923F924F925F926F92E5
:105730007F928F929F92AF92BF92CF92DF92EF9221
:10574000FF920F931F93CF93DF93CDB7DEB7CA1BA2
:10575000DB0B0FB6F894DEBF0FBECDBF09942A88CD
:10576000398848885F846E847D848C849B84AA8475
:10577000B984C884DF80EE80FD800C811B81AA8102
:10578000B981CE0FD11D0FB6F894DEBF0FBECDBFCD
:10579000ED010895CF93DF938230910510F482E0FC
:1057A00090E0E0916004F091610420E030E0A0E03E
:1057B000B0E0309739F14081518148175907B8F06E
:1057C0004817590771F482819381109729F0139635
:1057D0009C938E9312972CC09093610480936004E5
:1057E00027C02115310531F04217530718F0A901E0
:1057F000DB0101C0EF019A01BD01DF010280F381ED
:10580000E02DD7CF21153105F9F0281B390B2430B5
:10581000310580F48A819B816115710521F0FB01BE
:105820009383828304C09093610480936004FE019B
:10583000329644C0FE01E20FF31F819391932250F0
:105840003109398328833AC020915E0430915F0486
:10585000232B41F4209118013091190130935F04FA
:1058600020935E0420911601309117012115310516
:1058700041F42DB73EB740911A0150911B01241BF2
:10588000350BE0915E04F0915F04E217F307A0F49A
:105890002E1B3F0B2817390778F0AC014E5F5F4F86
:1058A0002417350748F04E0F5F1F50935F04409355
:1058B0005E048193919302C0E0E0F0E0CF01DF91BC
:1058C000CF910895CF93DF93009709F487C0FC012F
:1058D000329713821282C0916004D09161042097A4
:1058E00081F420813181280F391F80915E049091CD
:1058F0005F048217930779F5F0935F04E0935E04E9
:105900006DC0DE0120E030E0AE17BF0750F4129604
:105910004D915C9113979D014115510509F1DA01F3
:10592000F3CFB383A28340815181840F951F8A17DF
:105930009B0771F48D919C911197840F951F02968E
:105940009183808312968D919C9113979383828388
:105950002115310529F4F0936104E09360043EC001
:10596000D9011396FC93EE9312974D915D91A40F7C
:10597000B51FEA17FB0779F480819181840F951F89
:105980000296D90111969C938E93828193811396EE
:105990009C938E931297E0E0F0E08A819B810097C0
:1059A00019F0FE01EC01F9CFCE0102962881398170
:1059B000820F931F20915E0430915F0428173907EE
:1059C00069F4309729F4109261041092600402C0C7
:1059D00013821282D0935F04C0935E04DF91CF9153
:1059E0000895FC016150704001900110D8F7809536
:1059F00090958E0F9F1F0895F999FECF92BD81BD9E
:105A0000F89A992780B50895262FF999FECF1FBAE5
:105A100092BD81BD20BD0FB6F894FA9AF99A0FBED7
:085A200001960895F894FFCFF0
:105A2800802500000000080210B07106000401A4DF
:105A3800016C02D804060000620420003231000024
:00000001FF
