:1000000008C1000022C1000020C100001EC1000084
:100010001CC100000C94D20D18C1000016C10000D4
:1000200014C1000012C1000010C100000C94881619
:100030000CC100000AC1000008C100000C947B0D37
:1000400004C1000002C1000000C10000B9C30000EB
:10005000FCC00000FAC00000F8C00000F6C00000BC
:10006000F4C00000F2C00000F0C00000EEC00000CC
:10007000ECC00000C013F213D614F213D6143A14D5
:100080006214D6147E14A61442AA0643BE0265D496
:100090000646C20868C5086C9906521B06546511CD
:1000A00074220475C40F561407575B0658380A7833
:1000B00085020000002A03430055004C0034003341
:1000C00000330000002A03430055004C003800367E
:1000D00000380000001603620075007300770061AD
:1000E00000720065002E0064006500000004030932
:1000F00004090243000201008032090400000102E9
:10010000020100052400011005240103010424025A
:10011000060524060001070582030800FF09040103
:1001200000020A00000007050402400000070583E2
:10013000024000001201100102000008EB034B20F6
:10014000000001020001202F2000203D2000072E8A
:10015000050DD391FF080500000C0021656A2D3BB9
:100160001322F862073F181D1CC700B0876BF8B652
:1001700011EA2A001F41000D2E2D07D3913D0432B4
:100180000000060021656A55E43023B90007001815
:10019000146C070090876BF85611E92A001F410084
:1001A00027675081C25620312E36375F6E6F6372DB
:1001B00065646974732043554C38363800562031D5
:1001C0002E36375F6E6F63726564697473204355B2
:1001D0004C34333300202F2000203D20004E2F418F
:1001E00000454F420D0A0000535300547D7DFFFF30
:1001F0004B4B7E7E0020697320756E6B6E6F776E41
:100200002920557365206F6E65206F66003F20289A
:10021000000011241FBECFEFD2E0DEBFCDBF11E042
:10022000A0E0B1E0E4E5FFE202C005900D92A83045
:10023000B107D9F722E0A8E0B1E001C01D92A537CF
:10024000B207E1F70CD00C94A817DACEF89481E04D
:1002500085BF82E085BFE0E0F8E1099508952FE0D1
:1002600088E190E00FB6F894A895809360000FBEE7
:100270002093600090E080E80FB6F89480936100CE
:10028000909361000FBE2E9A2D9A04B603FE0AC009
:1002900083E390E0B7D4882329F060E083E390E023
:1002A000ACD4D4DF89EF87BD84E085BD82E084BD16
:1002B00080936E00109280008AE08093810084B762
:1002C000877F84BF3C9A0E9494139BD50E946C1632
:1002D0000E9455110E94240A89E493E19093E6015B
:1002E0008093E5010E941D0F89E080930B014498E3
:1002F0000E941E17A8D10E949C0BBAD20E94161011
:10030000F7CF292F33272230310559F0233031051B
:1003100069F02130310539F582E190E024E331E0E4
:1003200026C083E490E021EF30E021C0992781309E
:10033000910539F018F0029751F015C0EDEEF0E09C
:1003400002C0E5EDF0E0849190E09F0110C01E999D
:1003500003C025EB30E002C025EC30E0E5ECF0E036
:10036000849190E004C080E090E020E030E0FA0169
:100370003183208308958EBD0DB407FEFDCF8EB569
:1003800008950F931F93CF93DF93082F8A3018F4AB
:10039000853018F001C008E005508BE290E060E085
:1003A00010E000561E4FEC01219627D4C333D1052F
:1003B00041F0CC3219F4F801649101C060E0CE0143
:1003C000F2CFDF91CF911F910F910895CF93DF93DB
:1003D00082E090E0FC01EB58FE4F6491EC01219625
:1003E0000CD4CB32D10511F0CE01F4CF87E390E0ED
:1003F000FC01E95EFE4F6491EC012196FED3C0360C
:10040000D10511F0CE01F4CF1E9918C060E18FE044
:1004100090E0F3D360EB80E190E0EFD361E781E11E
:1004200090E0EBD360E184E490E0E7D360EB85E417
:1004300090E0E3D361E786E490E0DFD388E0A1DFDA
:10044000DF91CF9108954598806C95DF80E093DF30
:10045000459A0895A1E0B0E0E0E3F2E00C946B1758
:1004600045988064698387DF6981862F84DF459A98
:100470002196E2E00C94871745987DDF459A089510
:10048000EF92FF920F931F93CF93DF93EC01EC98C1
:100490003D9A459A8EE190E03BD245988EE190E0FE
:1004A00037D2459A8DE290E033D280E3E5DF84E6EF
:1004B00090E02ED2459880E45EDF7E0189E2E80E6E
:1004C000F11C8E010F5F1F4FCE019CD354DF0E1520
:1004D0001F0511F0E801F5CF459A45988EE74BDFEF
:1004E0008BE290E0EC0121968DD345DFC333D1053B
:1004F00011F0CE01F7CF459A83E3BEDF81E00DD244
:10050000CDB7DEB7E6E00C948317A1E0B0E0EBE8EE
:10051000F2E00C946B1722E0298341E0BE016F5F8B
:100520007F4F01962AD389812CDF82E090E0A8DFFB
:100530002196E2E00C948717CF93EC9886E39CDF3A
:10054000CFEF85E399DFC1508077803229F08AE0D0
:1005500090E0DED1C111F5CFCF910895CF93CFEFC9
:1005600084E38ADFC1508077803129F08AE090E00F
:10057000CFD1C111F5CFEC9ACF910895A2E0B0E0B0
:10058000E4ECF2E00C9469178C01FC01818187375F
:10059000E9F441E0BE016F5F7F4FC8010296EDD2E2
:1005A000892BA1F041E0BE016E5F7F4FC801049628
:1005B000E4D2892B59F06A8189814CDF83E35CDFC7
:1005C000CDDF8981D6D28A81D4D22CC041E0BE0150
:1005D0006E5F7F4FC8010196D0D2892B21F18A81AD
:1005E000893969F410E0812F2EDFC3D2812F877003
:1005F000873009F44AD21F5F1033A9F714C023DFF4
:10060000182F83E4EFD18A81B4D28AE491E030D20A
:10061000812FAFD286E491E02BD240E262E0812FBD
:1006200090E037D232D22296E4E00C94851786E32C
:1006300023DF1092E701089582E090E021DF81E05E
:100640008093E701089580916C02843009F061C0C5
:100650008093E90080910801811128C08091E80011
:1006600085FF24C08091F200882331F06091F10071
:1006700085E392E0E7D3F6CF8091E800982F9B7F47
:100680009093E8008F778093E80081E080930801E1
:1006900083E293E09093E4018093E301E091E5012C
:1006A000F091E60181E009951092080183E08093C2
:1006B000E90080910402882361F18091E80085FFC0
:1006C00028C0F89480910402882351F08091F200B0
:1006D000803430F482E092E0CBD38093F100F2CF0B
:1006E00078949091F2008091E800282F2E7F20933B
:1006F000E8008F778093E800903459F40E942C151D
:100700008091E800982F9E7F9093E8008F778093E8
:10071000E800089542E061EC82E00E94DC1442E3CC
:1007200061E883E00E94DC1442E360E884E00E9418
:10073000DC1410920001109201011092020110923B
:100740000301089580916D0290916E02913229F01B
:10075000923261F1903299F512C0813A81F580911F
:10076000E800877F8093E80067E070E080E091E038
:100770000E9455158091E800982F9B7F11C081320F
:10078000F1F48091E800877F8093E80067E070E0F3
:1007900080E091E00E94F2158091E800982F9E7F02
:1007A0009093E8008F778093E8000895813239F4C0
:1007B0008091E800877F8093E8000C9406150895E7
:1007C0001F920F920FB60F9211248F939F93AF93A6
:1007D000BF938091E9019091EA01A091EB01B09162
:1007E000EC010196A11DB11D8093E9019093EA01EE
:1007F000A093EB01B093EC018091E8018F5F8093AF
:10080000E801809101028F3F19F08150809301022D
:10081000BF91AF919F918F910F900FBE0F901F903E
:1008200018952FB7F8944091E9015091EA01609131
:10083000EB017091EC01FC0140835183628373836F
:100840002FBF0895A4E0B0E0E8E2F4E00C946B1749
:10085000CE010196E6DF8C818CD18B818AD18A8191
:1008600088D1898186D111D12496E2E00C94871732
:100870008091E9019091EA01A091EB01B091EC0126
:1008800020910A01281709F442C08091E901909152
:10089000EA01A091EB01B091EC0180930A01A895C7
:1008A00080910102811102C00E9440128091F301E7
:1008B000882339F081508093F301811102C00E9496
:1008C000A7108091E8018D3710F11092E801809116
:1008D000070181FF04C088B190E1892788B984E8C5
:1008E00093E09093EE018093ED01809109018F5F79
:1008F000809309018C3359F4109209018091FE0113
:100900008F5F8093FE018C3310F01092FE010895EA
:10091000880F991F0197F1F7089520ED37E0815076
:1009200020F0F9013197F1F7FACF0895CF93DF93D3
:10093000DC0113968C911397843509F050C0CD01DA
:100940000396CC91FD0170964DE04C1750F050E0AD
:10095000D0E09E012F5031094217530709F03FC0E4
:1009600005C021912B3399F34F5FEFCFFE013E97E6
:10097000E80FF91F2081243591F514963C911497C6
:10098000218132132CC015963C9115972281321388
:1009900026C016963C9116972381321320C01796D5
:1009A0003C911797248132131AC06197C80FD91F41
:1009B000858188838681898381858A8382858B83EB
:1009C00083858C8384858D8385858E838C918A50E5
:1009D0008C9312968C9112978A5012968C93DF9179
:1009E000CF910895CF93C82F80916C02843089F401
:1009F00080910B0180FF0DC080910402803308F0CC
:100A000022DE6C2F82E092E01DD2CA3021F41BDE80
:100A100002C081E001C080E09091FC019923D9F0EF
:100A200090910B0193FF17C0CA30A9F0882399F069
:100A3000CD3011F46BE301C06C2F82E092E002D262
:100A4000CD3019F482E092E071DF83E08093F3010E
:100A500082E08093FB01CF910895CF93DF93EC0167
:100A60008991882311F0BEDFFBCFDF91CF910895EC
:100A7000CF93DF93EC01FE018491882319F0B2DF5C
:100A80002196F9CFDF91CF9108958DE0ABDF8AE019
:100A9000A9CFA6E0B0E0EFE4F5E00C946917062FCB
:100AA0001E8215E02AE030E01150E1E0F0E0EC0FAA
:100AB000FD1FE10FF11DB9010E944117805D808388
:100AC000CB010150009769F01111EECF0AC011233C
:100AD00059F01150E1E0F0E0EC0FFD1FE10FF11DC6
:100AE0004083015007FFF3CF81E090E08C0F9D1F02
:100AF000810F911DB2DF2696E4E00C948517A5E0E6
:100B0000B0E0E5E8F5E00C946B171D8224E0382F87
:100B10003F702150E22FF0E03A3010F4305D01C018
:100B2000395CA1E0B0E0AC0FBD1FEA0FFB1F3083C2
:100B300034E0969587953A95E1F76150009739F73B
:100B4000615067FD0BC0222349F02150E1E0F0E045
:100B5000EC0FFD1FE20FF11D4083F2CF81E090E02A
:100B60008C0F9D1F820F911D78DF2596E2E00C947B
:100B7000871740E362E090E0C2CFDC01FB0130E088
:100B800090E08D918823A9F0813608F0805220ED05
:100B9000280F2A3030F02FEB280F263030F429ECC4
:100BA000280F292B332379F006C0803251F38A3382
:100BB00041F3CF0105C0CF0101962083415041F49C
:100BC000861B970B0895922F9295907F31E0D9CF95
:100BD000FC01D5CF982F92959F709A3010F4905DBC
:100BE00001C0995CFB0190838F708A3010F4805DA6
:100BF00001C0895CFB01818308950E949A17F999CD
:100C0000FECF08950C94921708951F93CF93DF930E
:100C1000162F11501F3F59F0EC012196F3DFA9DF89
:100C2000112311F08AE3DEDE1150CE01F3CFDF9104
:100C3000CF911F910895A2E0B0E0E1E2F6E00C94BC
:100C40006817FC0121812D3421F466E08AEF91E0E0
:100C500005C0203529F460E18AED91E0D6DF26C099
:100C60001A82198242E0BE016F5F7F4F019685DFD5
:100C7000098110E0823021F4102F00278A81082B8F
:100C8000C801C0DFF82E82E5ADDE40E364E0C801B4
:100C900036DF89ED91E0ECDE8F2D6BDF85ED91E0A5
:100CA000E7DE40E262E08F2D90E0F3DEEEDE22969A
:100CB000E5E00C948417A6E0B0E0E1E6F6E00C94E1
:100CC00065176C0143E0BE016F5F7F4F019655DFF2
:100CD000823058F1E980F12C823021F0FE2CEE2494
:100CE0002A81E22A8C011127FE01E00FF11F6081A9
:100CF000C70183DF000F111F0F5F1F4F0C0D1D1D5C
:100D0000F8018081882389F041E0BE016F5F7F4F49
:100D1000C80133DF892B49F08FEFE81AF80A69819F
:100D2000C7016BDF0E5F1F4FEBCF2696E8E00C94F8
:100D3000811741E067E071E001961FDF80910701B4
:100D400080FF02C0449A01C044986091070184E387
:100D500090E053CFA1E0B0E0E0EBF6E00C946B172D
:100D60001982009731F041E0BE016F5F7F4F01961D
:100D700004DF89818F3F09F4FFCF882321F061E0F0
:100D800083E390E03ADF0E94721610926E00F894AE
:100D900028E088E190E00FB6F894A8958093600071
:100DA0000FBE20936000FFCFCF93DF93EC0161E093
:100DB00080E090E022DF63E481E090E01EDF06DB6C
:100DC00060E080E690E019DF60E081E690E015DF0A
:100DD00060E083E390E011DF62E084E390E00DDF08
:100DE00060E080E690E009DF60E081E690E005DF0A
:100DF0008981883719F080E090E0ACDFDF91CF91F6
:100E0000089580E090E0FEDE813029F481E090E0FA
:100E1000F9DE833419F080E090E0C6DF84E390E0EF
:100E2000F1DE8093070108951E9903C08DEB91E0D8
:100E300002C085EA91E01CDE28CEFC0112821082FD
:100E400011820895FC018FB7F8949281903370F469
:100E50009F5F9283208191E0920F9083DF01A20F28
:100E6000B11D13966C93903309F410828FBF0895CF
:100E7000FC019FB7F8948281882371F081508283AE
:100E8000818121E0280F2183DF01A80FB11D139676
:100E90008C91203309F411829FBF0895CF93C82FFE
:100EA000469A882319F080910E0102C080911001AA
:100EB00090E034E0880F991F3A95E1F729DD4698D4
:100EC000CC2319F080910D0102C080910F0190E0B8
:100ED00024E0880F991F2A95E1F71ADDCF91089534
:100EE000A8E0B0E0E6E7F7E00C945B173C01D62EF3
:100EF000542EB22E1E2D449A8091E701811101C01B
:100F00009BDB1ADBEC2CF12C54E0EE0CFF1C5A9509
:100F1000E1F78A2C912C64E0880C991C6A95E1F722
:100F20002D2D30E03A832983252D30E03C832B831F
:100F300044244394512C2B2D30E03E832D83C1104B
:100F400002C0AA2031F0469AC701E2DC4698C401EB
:100F5000DFDCB12C8B2D992787FD909529813A8173
:100F60008217930724F480E099DFB394F3CFDD2058
:100F700011F081E093DFB12C2B2C332427FC30942B
:100F80002B813C81221633062CF047E0B42E260C30
:100F9000371C17C047E050E0260C371CC201042E56
:100FA00001C0880F0A94EAF7F101908189234F83E9
:100FB000588774DF4F8158854150510978F7B394B1
:100FC000DBCF8B2D992787FD90952D813E812817AA
:100FD000390764F4C2010B2C01C0880F0A94EAF7A8
:100FE000F101908189235ADFBA94EBCF812F95DCF0
:100FF000015009F0A4CF8091F001882311F0AEDAFE
:1010000002C086E339DA44982896E2E10C94771717
:10101000ACE0B0E0EEE0F8E00C9463177C01162F32
:10102000842F022F6701C60ED11C462FB70135D27F
:10103000F601808361E0610F19825E2D570140E067
:1010400027E0A1E0B0E08A2D851B861708F065C077
:10105000F50171915F0187E090E07D01082E02C0EB
:10106000EE0CFF1C0A94E2F7E72291F0EE24E394E1
:10107000F12CEC0EFD1EE40EF11CF70130816D0128
:10108000022E02C0CC0CDD1C0A94E2F73C2930830E
:10109000222319F03FEF320F0DC021E0240F2C3036
:1010A00008F4422FE1E0F0E0EC0FFD1FE20FF11D2C
:1010B000108237E0232F019780F6872F082E829524
:1010C0008025082E8695869580258F5F81FF11C02B
:1010D00081E090E08C0F9D1F840F911DFC01208109
:1010E0007D01032E02C0EE0CFF1C0A94E2F72E29AC
:1010F0002083332319F02FEF230FA5CF81E0840F36
:101100008C3008F4482F21E030E02C0F3D1F280FD1
:10111000311DF901108227E096CF222311F02150D2
:1011200002C04F5F27E089E180930F018093100197
:1011300085E280930D0180930E01A12CC12CEAE081
:10114000EE2E6CE0CE010196CBDE2C96EAE00C94FC
:101150007F17ADE0B0E0EFEAF8E00C946A17162FC5
:10116000242F4BE0BE016F5F7F4F01962D8705DD79
:101170002D85412F682FCE0101964ADF2D96E3E0A1
:101180000C94861743E066E0E4CFAF92CF92EF92E3
:101190000F93CF93DF93CDB7DEB72C970FB6F894AC
:1011A000DEBF0FBECDBF4BE0BE016F5F7F4F02962B
:1011B000E4DC8530C1F48EE3809310018CE18093F0
:1011C0000F0181E280930E018AE380930D01A5E275
:1011D000AA2EBAEFCB2EE12C05E024E044E068E033
:1011E000CE0101967DDE2C960FB6F894DEBF0FBEC1
:1011F000CDBFDF91CF910F91EF90CF90AF90089539
:101200008F929F92AF92BF92DF92EF92FF920F93D5
:101210001F93CF93DF931092240110923101FC01B0
:101220002181220F220F220F3381231B57E0520FFF
:101230001092250110E070E038E0D32ED20EFF248A
:10124000F39447E007E0E12CC7E0D0E0A1E0B0E094
:10125000FD1409F47FC0FC01EE0DF11D248130E086
:10126000002E02C0359527950A94E2F721703327A6
:10127000E22F002311F0015002C0E39407E06B3429
:1012800071F4433009F04AC0111107C0E1115FC089
:10129000109224017093310174C010E041C04F3F9F
:1012A00031F56634A9F4E72FF0E0EB5DFE4FE08105
:1012B0000E2EE295E0250E2EE695E695E025EF5FF1
:1012C000E1FB882480F8912C8216930641F004C03B
:1012D000653429F4E11103C010932401DBCF7F5F53
:1012E000E72FF0E0EB5DFE4F108247E031C0EE23C8
:1012F00061F1663471F4E72FF0E0EB5DFE4FA08002
:101300009D01042E01C0220F0A94EAF7A22AA082AE
:101310001CC0653439F06B34C1F404C04F3FD1F2C6
:10132000EE2399F0E72FF0E0EB5DFE4F9E01241BCA
:10133000310947FD33955D0102C0AA0CBB1C2A95FB
:10134000E2F795013081322B3083415001C011E02A
:10135000F3947ECF10932401709331015F1588F4CC
:10136000653431F44F3F21F47F5F7093310104C045
:10137000809124018111F8CF81E090913101911188
:1013800001C080E0DF91CF911F910F91FF90EF900E
:10139000DF90BF90AF909F908F90089510926F0054
:1013A0008091340190E064E170E00E9430178B5C22
:1013B0009E4FFC0110820895FC0121812C3008F021
:1013C000EDCF3381662381F081E090E0032E01C0F0
:1013D000880F0A94EAF7DF01A20FB11D14969C91C1
:1013E0001497982B14969C93332319F03150338320
:1013F000089587E083832F5F2183E20FF11D14821C
:101400000895DC011196EC911197F0E050E02C91D9
:10141000CF01841B950B0B964797A0F430E070E04A
:10142000C901861B970B0B96479760F42E0F3F1F41
:10143000640F751F261B370B255F3F4F81E0273157
:10144000310508F080E008953E9A46983F98EAE614
:10145000F0E0808181608083109249011092E70161
:1014600008958091F001882311F0E6D877C8DFC88D
:10147000FC01218121110BC08091F0017ADB40E257
:1014800065E08091ED019091EE0103DBFECA41E041
:1014900060EF71E0019671DBE4CF442339F04150F5
:1014A000FB01E40FF11D9081890FF7CF089520E033
:1014B000662339F06150FC01E60FF11D30812327CE
:1014C000F7CF822F0895A091240140E035E020E07D
:1014D000662399F06150FC01E60FF11D5081752FD4
:1014E00072957F702727370FAA2311F0442319F034
:1014F0005F702527350F4F5FEBCF822F830F8295CB
:10150000807F822B0895FC0132812381A081B181EB
:10151000A30FB11D8C9190E0022E02C09595879586
:101520000A94E2F7817099274FEF420F438321110C
:1015300004C03F5F328327E023830895A2E0B0E038
:10154000E4EAFAE00C9463177C01A12CB12CD12CB5
:10155000CC24C394062F10E001501109A616F0F414
:10156000C7014A836983CFDF4A816981882391F06B
:10157000442349F098012A193B098C2D01C0880F9A
:101580002A95EAF706C08C2D0A2C01C0880F0A9410
:10159000EAF7D82A8FEFA81AB80AE0CF8D2D229645
:1015A000EAE00C947F17A4E0B0E0E9EDFAE00C94D7
:1015B00062171B8227E02C839C012C5F3F4F3A83EC
:1015C000298310923101FC01218130E043E0220F98
:1015D000331F4A95E1F7438187E090E0841B91092E
:1015E000280F391F253431050CF44EC0B12CA090C2
:1015F0003101F5E0FA1558F10A2D10E040E068E0FD
:10160000CE0101969BDF0B5D1E4FF8018083982E63
:10161000092C92949024092C969496949024CE01AF
:10162000019671DF939491FACC24C0F8D12C90E00C
:10163000C816D90649F5CE01019665DF811124C08F
:10164000F8018081B826A394A0923101D0CF40E068
:1016500068E0CE01019672DF082F182F012E129537
:101660001025012E169516951025CE0101964BDFFB
:101670001F5F11FBEE24E0F8F12C282F30E0E2167A
:10168000F30611F481E0B01280E02496EBE00C94B4
:101690007E17A4E0B0E0EFE4FBE00C9468171B8237
:1016A00027E02C839C012C5F3F4F3A832983FC0168
:1016B00021812430A1F58381813089F51092310197
:1016C00080913101082F10E0FF24F394F80E41E0DF
:1016D000843098F4811106C067E0CE0101962EDFB8
:1016E000806804C068E0CE01019628DFF801EB5D58
:1016F000FE4F8083F0923101E3CF67E0CE01019687
:101700001DDFF801EB5DFE4F880F8083F092310101
:101710009091250192959F7081E09A3009F080E0C8
:101720002496E5E00C9484178091EF0180FD03C0BE
:1017300084608093EF010895A1E0B0E0E2EAFBE06D
:101740000C94671719828091110181111092110177
:1017500080913201882309F4CAC1449A80913301EF
:1017600090E064E170E00E9430178C010B5C1E4F2A
:101770008981811139C066E4C80142DD8823A1F165
:10178000F0903101FA94F09231014F2D65E271E051
:1017900086E083DEEF2DF0E0EB5DFE4FE0808E1102
:1017A00005C093E09F1510F486E41BC0282F30E09D
:1017B0002F5F3F4F6E2D70E02617370739F493E007
:1017C0009F1520F496E4998380830EC04F2D65E227
:1017D00071E08CE062DE8E1106C0E3E0EF1518F4D4
:1017E00084E5898301C019828981811116C065E46D
:1017F000C80106DD882389F08091310181508093F2
:101800003101893051F469E085E291E050DE909138
:101810002E01891302C085E489838981811106C064
:10182000C801C1DE882311F088E489838981811190
:1018300006C0C8012EDF882311F084E789838981DF
:10184000811133C0F801438960911201C8014296A9
:10185000D8DD682FC801B0DD6BE4C801D1DC882376
:10186000B1F0F0903101FA94F09231016F2D85E2E0
:1018700091E029DEEF2DF0E090912401E91BF109C0
:10188000EB5DFE4F9081891302C08BE489838981CF
:1018900081110BC0F801838191E0980F9383873009
:1018A00021F41382818181508183898181112DC02E
:1018B000F8018181843049F58381843031F54EE12E
:1018C0006CE3C80140969DDD8823F9F04EE16091FC
:1018D0001201C801429695DD682FC8016DDD20E038
:1018E000822F90E0FC01EB5DFE4FD801A80FB91FDD
:1018F00014968C91808381E0820F853010F4282F1C
:10190000EFCF8093310182E589833981332309F454
:10191000D6C02091F00120FFD2C08091EF018E7FD0
:101920008B7F8093EF0121FD64C050912301F090E3
:1019300031015F113DC040E04517C0F4842F90E0B5
:1019400061E0640FFC01E95EFE4FDC01AB5DBE4F60
:1019500070818C91781741F0409323018091EF01C1
:101960008D7F8093EF0104C0462FE6CF4093230183
:1019700045131EC04091E9015091EA016091EB01CD
:101980007091EC018091130190911401A0911501C7
:10199000B0911601481B590B6A0B7B0B463251055F
:1019A0006105710528F48091EF0181608093EF015A
:1019B00040E04F1560F4842F90E0FC01E95EFE4F9B
:1019C000DC01AB5DBE4F8C9180834F5FF2CF4093C3
:1019D00023018091E9019091EA01A091EB01B0917E
:1019E000EC018093130190931401A0931501B0931F
:1019F00016013435E9F426FD1BC080913101853094
:101A0000B8F0809127018B3471F0893661F09DEA3E
:101A1000980F923040F08D57823028F08091280145
:101A20008077803729F48091EF0181608093EF0106
:101A3000B801CE01019678DE8981843569F49091F0
:101A4000FC01992349F09091FD01911105C09091FD
:101A5000EF019B7F9093EF019091EF0192FF2FC0D8
:101A60000E94F20480912401882329F080913101A1
:101A7000815080933101F12CE0913101FE1640F448
:101A8000EF2DF0E0EB5DFE4F808173D8F394F4CF3F
:101A900080912401882349F0F0E0EB5DFE4F8081C6
:101AA0008F7040E361E090E02AD88091F00185FFDB
:101AB00004C084E30E9423025CD80E944505F8011B
:101AC00010828091320181508093320180913301E4
:101AD0008F5F823019F08093330102C0109233017E
:101AE00044988981843519F485E291E0D8D421960F
:101AF000E6E00C9483171F920F920FB60F921124F9
:101B00002F933F934F935F936F937F938F939F9305
:101B1000AF93BF93EF93FF9310926F004091340106
:101B2000242F30E0C90164E170E00E9430178B5C23
:101B30009E4FFC018081833018F08181823010F447
:101B40002DDC0FC0809132018130D1F38F5F809303
:101B500032014F5F423019F04093340102C01092BD
:101B60003401FF91EF91BF91AF919F918F917F9140
:101B70006F915F914F913F912F910F900FBE0F90FA
:101B80001F9018959BED980F973150F496EF960F94
:101B90009D3130F491E0681708F090E0892F0895A6
:101BA00080E008951F920F920FB60F921124FF92BA
:101BB0000F931F932F933F934F935F936F937F9355
:101BC0008F939F93AF93BF93CF93DF93EF93FF9345
:101BD0008091F401823021F483E08093F40101C10B
:101BE0000091840010918500B4E016950795BA9590
:101BF000E1F78091340190E064E170E00E943017D9
:101C0000EC01CB5CDE4F8881843031F40E3208F475
:101C1000E8C00F3408F086C037990CC0843039F41E
:101C200061E0CE01C9DB1092850010928400009320
:101C30001201D7C080911201081B0093110110926C
:101C40008500109284008881843021F460E0CE0108
:101C5000B3DBC7C082E086BBF88000911201F110AF
:101C60000FC0053608F0BDC080911101853608F01F
:101C7000B8C0088B898B81E08A8382E08883B1C0F9
:101C80001091110182E0412F602FF8125BC0CE014C
:101C90004096B7DB6A818823F9F0488950E09A01C1
:101CA000220F331F240F351F200F311D3595279527
:101CB00035952795288B298930E0C901880F991F10
:101CC000820F931F810F911D959587959595879507
:101CD000898B6F5F6A8385C0643090F180EA9FE0F2
:101CE00090938900809388008A818C3050F0888995
:101CF000298930E0280F311D2536310514F084E0A4
:101D000014C08091F201882379F0612F802F3ADF8F
:101D1000882351F06889898935DF882329F081E09B
:101D20008093F4013BDB5DC083E088830A8B1B8BCF
:101D3000198287E08B831C8282E080936F0051C000
:101D400018828FCFCE0142965CDB882301F161E0DF
:101D5000CE0132DB4A8950E09A01220F331F240F53
:101D6000351F200F311D35952795359527952A8BE1
:101D70002B8930E0C901880F991F820F931F810FB3
:101D8000911D95958795959587958B8B2AC0412FA9
:101D9000602FCE01409635DB882301F160E0CE0153
:101DA0000BDB488950E09A01220F331F240F351FA7
:101DB000200F311D3595279535952795288B298935
:101DC00030E0C901880F991F820F931F810F911D69
:101DD0009595879595958795898B03C087E0F8122F
:101DE000A1CFFF91EF91DF91CF91BF91AF919F91E3
:101DF0008F917F916F915F914F913F912F911F91A3
:101E00000F91FF900F900FBE0F901F90189580912B
:101E1000340190E064E170E00E9430178B5C9E4FCB
:101E2000FC018081811107C081E0909101029F3FF8
:101E300019F480E0089581E0089580E690E00E9422
:101E400002068093F20181E690E00E9402068093F0
:101E5000FC01882321F081E28093F00102DB1092E3
:101E6000F5010895469A0C94880446980C948804C9
:101E7000A7E0B0E0EEE3FFE00C94661730910502B6
:101E800090E0E92FF0E0EB50FE4F2081222309F48F
:101E900071C0321711F09F5FF4CF95E799838823C3
:101EA00099F0BE016E5F7F4F8091FC010E94EA05B0
:101EB000BE016C5F7F4F8091F2010E94EA0585E5CB
:101EC0008E8386E0D82E02C0DD24D3940E941C03AA
:101ED0000E949C0216E080E891E0C4DF80E093E07D
:101EE000C4DF1150C1F780E093E0BCDF80E891E0EF
:101EF000BCDF80E891E0B6DF469887E390E00E947F
:101F0000400283E00E948D0445988FE70E94BB0148
:101F1000809104028D0D0E94BB01CE0101967C01CF
:101F20008C01F80181918F010E94BB01802F8E19D5
:101F30008D15B8F380910402882339F082E092E095
:101F40000E9438070E94BB01F5CF459A0E949C026F
:101F500082E092E00E941D0715E18AE30E942302BD
:101F60008F7731F0115021F081E00E948D04F5CF80
:101F700078DA07C0992309F490CF82E092E00E94BA
:101F80001D072796E7E0BEC7CF93DF93EC01898159
:101F900081110BC08091F2010E94B9058091FC0172
:101FA0000E94B9050E9445053EC0863681F42296FE
:101FB000A5EFB1E0E0E08991882321F08D93EF5FF8
:101FC000E530C9F7F0E0EB50FE4F10822CC08936A7
:101FD000D9F441E062EF71E0CE0102960E94BD05A6
:101FE0006091F20180E690E00E94FD0541E06CEF17
:101FF00071E0CE0104960E94BD056091FC0181E66E
:1020000090E00E94FD050FC082E092E00E941D0753
:1020100021966991662329F082E092E00E942207CE
:10202000F8CF80E025DFDF91CF910895A1E0B0E007
:10203000EBE1F0E14AC78091F401882309F484C000
:10204000C090E901D090EA01E090EB01F090EC0142
:10205000833009F060C08FE30E942302182F86307E
:10206000C8F085E392E00E941D0745988FEF0E941B
:10207000BB0180E00E94BB01082F115049F080E0B5
:102080000E94BB01682F85E392E00E942207F5CFF2
:10209000459A01C000E0E5D91092F401053709F036
:1020A00053C041E0BE016F5F7F4F88E392E00E9422
:1020B000BD05019759F599818091F201981326C0C9
:1020C00080913C02853571F480913702882339F084
:1020D00085E392E00E9438070E94F204F5CF0E9447
:1020E000450532C08091370284508093370284E0E6
:1020F000809336026AE085E392E00E942207E09135
:10210000E501F091E60188E009951EC085E392E0C3
:102110000E941D0719C0823051F48091F1019C2D5D
:10212000981B983088F09DD91092F4010DC0813031
:1021300059F487E390E00E9440020E94AE0282E0E0
:102140008093F401C092F1012196E8E0DAC65FDEE7
:10215000882319F083E08093FB018091FB0181507B
:102160008093FB01882321F083E08093F30108959D
:1021700081E07ECE1092FF011092AF0183E0809348
:102180005D018FEF809301020895EEE5F1E020817B
:10219000211105C0892BB1F080E090E00895B1E0F5
:1021A000E83AFB07B8F7009751F04181DC013C9118
:1021B000431305C0428111963C91431751F0E20F41
:1021C000F11DE5CF31E0E83AF30719F010F0E8EA45
:1021D000F1E0CF01089589EA91E0D7DF009799F007
:1021E00020915D01FC013081231768F4E20FF11D9D
:1021F00080818093AB0189E78093AC0181818093DA
:10220000AD0181E0089580E00895EF92FF921F9361
:10221000CF93DF931F92CDB7DEB7182F8091F001D7
:1022200086FF18C084E599830E94F204E12E99810B
:10223000F92E15E0F70181917F010E94B905115037
:10224000C9F78091F00185FF03C08AEF0E94B905AC
:102250000E9445050F90DF91CF911F91FF90EF9065
:10226000089586E30E943C028091AB01833511F40E
:102270008BE901C08BE40E948D0421E04CE065E015
:1022800089EA91E00E9408080E94AE0289EA91E082
:10229000BCCFE7DF8091AB01893631F081E08093DC
:1022A000A80189E280930102089585E390E00E94ED
:1022B00002068093FD0186E390E00E94020680936F
:1022C000000258DF10925E010895A7E0B0E0EAE650
:1022D000F1E1FAC56C018C010F5F1F4F45E0BE01B3
:1022E0006F5F7F4FC8010E94BD05843008F07BC03E
:1022F00099819130A9F4833061F46A8185E390E09B
:102300000E94FD056B8186E390E00E94FD05CDDF14
:10231000B4C08091FD010E94B905809100025EC0A9
:10232000923009F051C0813039F081E09A819130CA
:1023300009F080E0F82E02C0FF24F39480915E0142
:10234000811104C08DED91E00E9438050EE511E089
:10235000F8018081882309F443C0F1E0083A1F079F
:1023600008F03EC081E00E35180719F080E20E94A7
:10237000F204F80181810E94B905F80182810E946E
:10238000B905FF20E1F08AE30E94F20493E0F8012E
:1023900080819817A0F4943038F090FF05C08CE24B
:1023A0009F830E94F2049F81EE24E394E90EF801DA
:1023B000E90FF11D80810E94B9059E2DE8CFF8013B
:1023C0008081080F111DC4CF933051F480E090E05C
:1023D000DCDE8E5591409AE4981B892F0E94B90546
:1023E0000E9445054AC080E090E0CFDE7C01F80104
:1023F00001900020E9F73197E01BF10BF695E79586
:10240000BB24B394BE0E97012B0D311D2E553140C8
:102410002B34310574F5F701B1928F0121E0822F41
:10242000880F81502B15D8F441E0B801F601E80F70
:10243000F11DCF012F830E94BD052F81233058F05D
:1024400020FD09C0D80111978C91843621F4F80140
:1024500080818093FE012F5F0F5F1F4FE0CFF8EA6E
:10246000EF16F1E0FF0648F4F701E20FF11D1082CC
:1024700004C081EE91E00E9438052796E9E040C54E
:102480008091A801882351F0ECDE89E2809301025B
:102490008091A80181508093A80108956BCEFF928E
:1024A0000F931F93CF93DF93FC01F0800181C281D2
:1024B000D38114818FE5809301021092A80180914D
:1024C000FD01811105C080910002882309F4A9C093
:1024D0008091A9018F1104C08091AA01801729F071
:1024E00049DEF092A9010093AA018091FF018F3F7C
:1024F00009F497C0C093AB01D093AC011093AD0128
:10250000CC23F1F081111CC08091FD01181761F0FE
:10251000143651F08DEA8C0F823010F0CD3739F43B
:102520008FEF8093FF017DC0C43509F47AC08D2FF1
:10253000807F803609F075C0D067D093AC0157C05A
:102540004ADE811105C08091FF01882309F469C02A
:102550008091AF01811107C0E091FF01F0E0E951E6
:10256000FE4FE49101C0E82FE33541F4C43531F466
:102570009091FF019E5F9093FF0104C0EC1711F052
:10258000F9DD4FC0882369F080915D018E5F8093F3
:102590005D0121DE81110EC08091FF018E5F80936D
:1025A000FF018091FF01E82FF0E0E851FE4F149108
:1025B0001F3F59F48091AB018093AF018436B9F489
:1025C0008091FE018093AD0112C01093AB0197E79B
:1025D0009093AC019091FD019093AD018E5F80933B
:1025E000FF011092AF018E3021F01123D1F051DEA6
:1025F00018C089EA91E0C9DDDC01009781F02C91D7
:1026000030E088EA91E0821B930BA817B90730F4F9
:10261000ED01C20FD31F48814D93F7CF1C92AADD65
:10262000E4CFCDB7DEB7E5E06FC40F931F93CF9330
:10263000DF93EC0110E0212F30E0C90163E070E08E
:102640000FD488579F4FFC010491C90163E070E0EB
:1026500007D487579F4FFC0125913491002399F0AF
:10266000209739F480E20E94F204802F0E94F20445
:1026700008C08881801305C0CE01F901099581E069
:1026800003C01F5FD8CF80E0DF91CF911F910F91E2
:102690000895CF93C0910B0180930B018091370275
:1026A000882309F43DC085E392E00E943807209119
:1026B000B0013091B1018A3011F08D3011F5211542
:1026C000310561F3F901EE54FE4F108282EB91E087
:1026D000ACDF811111C08DE092E00E94380582EBE1
:1026E00091E00E942D0585EF91E00E94380580E081
:1026F00090E09BDF0E9445051092B1011092B0015D
:10270000CDCF2033310550F6A9014F5F5F4F509375
:10271000B1014093B001F901EE54FE4F8083BECF6A
:10272000C0930B01CF910895E4E6F0E080818B7FA8
:102730008083299A84B1876084B9239880E58CBD11
:102740008DB581608DBD0895A2E0B0E0E9EAF3E1C6
:10275000C2C3EDE6F2E08091F100819382E0E537BB
:10276000F807C9F720916D0230916E02832F90E037
:102770008A30910508F01AC1FC01E65CFF4F95C351
:10278000203879F0223809F011C1809171028093CC
:10279000E9008091EB0085FB882780F91092E90021
:1027A00006C08091680290916902911182609091B7
:1027B000E800977F9093E8008093F1001092F10079
:1027C0008091E800982F9E7F9093E8008F77809308
:1027D000E8008091E80082FDAFC080916C02811119
:1027E000F8CFD5C0822F8D7F09F0E0C0222319F0E9
:1027F000223061F033C080916F02813009F0C7C090
:10280000333009F080E08093690228C080916F0224
:10281000811124C020917102277009F4B8C020935F
:10282000E9008091EB0080FF19C08091EB0031300E
:1028300091F480618093EB0081E090E0022E01C072
:10284000880F0A94EAF78093EA001092EA008091D8
:10285000EB00886001C080628093EB001092E90079
:102860008091E800877F8093E8008091E800982FAE
:102870009E7F66C021119AC020916F028091E8006E
:10288000877F8093E8009091E800892F8E7F809366
:10289000E8009F779093E8008091E80080FD05C0F4
:1028A00080916C028111F8CF72C0822F8F77982FA0
:1028B00090689093E300882309F469C083E08093D3
:1028C0006C0265C02058223008F070C0AE014F5F26
:1028D0005F4F6091710280916F02909170020E942F
:1028E0008101009709F453C02091E800277F2093CD
:1028F000E800BC0189819A8126D11EC0203809F0E8
:1029000055C08091E800877F8093E80080916A023B
:102910008093F1008091E800982F9E7F9093E800CB
:102920008F778093E8008091E80082FD05C0809158
:102930006C028111F8CF2BC08091E800982F9B7F0B
:102940009093E8008F778093E80021C021112EC07A
:1029500090916F029230D8F48091E800877F809345
:10296000E80090936A028091E800982F9E7F9093F0
:10297000E8008F778093E80080916A02882311F045
:1029800084E001C083E080936C020E948A038091FE
:10299000E80083FF0EC08091EB0080628093EB0023
:1029A0008091E800877F8093E80003C00E94A20323
:1029B000EECF2296E2E0ABC28093E900EBEEF0E0CE
:1029C000808181608083EDEEF0E010826093EC0006
:1029D00040838091EE00881F8827881F08951092F9
:1029E000F40080E08093E9001092F0001092E8007B
:1029F0009091ED009D7F9093ED009091EB009E7F74
:102A00009093EB008F5F853069F7089580916D0298
:102A100087FD05C08091E80080FF0FC013C0809142
:102A2000E80082FD05C080916C028111F8CF089505
:102A30008091E800982F9B7F09C080916C028111E2
:102A4000E9CF08958091E800982F9E7F9093E80049
:102A50008F778093E800089585E69091EC0090FFD1
:102A600005C09091E80090FF05C019C09091E80062
:102A700092FD15C090916C02992399F09091EB0012
:102A800095FD11C09091E10092FFE7CF9091E10098
:102A90009B7F9093E100815001F783E0089580E0EF
:102AA000089582E0089581E0089540917302509165
:102AB00074029B014617570708F49A0140E021155C
:102AC0003105A9F15091E80053FD39C05091E8005B
:102AD00052FF06C08091E80082FF2CC080E008957C
:102AE00050916C02552369F15091E80050FFE7CFF7
:102AF000FC01CF012115310551F04091F200483021
:102B000030F481918093F10021503109F2CF50913E
:102B1000F20041E0583009F040E05091E800652FA4
:102B20006E7F6093E8005F775093E800C8CF411153
:102B3000C9CFD0CF80916C028111CCCF02C081E08F
:102B4000089582E0089540917302509174029B01B0
:102B50004617570708F49A0140E021153105B1F1F5
:102B60005091E80053FD3AC05091E80052FF06C072
:102B70008091E80082FF2DC080E0089550916C02A2
:102B8000552371F15091E80050FFE7CFFC01CF01D0
:102B90002115310559F04091F200483038F4849104
:102BA0008093F100215031093196F1CF5091F2001C
:102BB00041E0583009F040E05091E800652F6E7F09
:102BC0006093E8005F775093E800C7CF4111C8CF0A
:102BD000CFCF80916C028111CBCF02C081E00895EC
:102BE00082E008956115710571F12091E80023FDDF
:102BF0002FC020916C02222379F12091E80022FF5E
:102C0000F4CFFC018091F200882371F09F012F5FC7
:102C10003F4FC9014091F100408361507109611536
:102C2000710519F0F901EECFCF012091E800322FA4
:102C30003B7F3093E8002F772093E800D3CF80913B
:102C40006C02882349F08091E80080FFF8CF02C031
:102C500081E0089580E0089582E0089553D055D032
:102C600010926C0210926A0210926902109268022D
:102C700019BC89B5826089BD09B400FEFDCF809181
:102C8000D800982F9F779093D80080688093D800C1
:102C9000809163008E7F809363008091D8008F7D48
:102CA0008093D8008091E0008E7F8093E000809137
:102CB000E1008E7F8093E1008091E200816080934B
:102CC000E2008091E100877F8093E1008091E20043
:102CD00088608093E2000895C1DF81E080936B02F9
:102CE00078940895BBDFE0EEF0E08081816080831E
:102CF000E8EDF0E080818F77808319BC10926B0241
:102D0000089508951092E20008951092E100089548
:102D10001F920F920FB60F9211242F933F934F9350
:102D20005F936F937F938F939F93AF93BF93EF9333
:102D3000FF938091E10080FF1CC08091E20080FF42
:102D400018C08091E1008E7F8093E1008091E200C5
:102D50008E7F8093E2008091E20080618093E200A8
:102D60008091D80080628093D80019BC10926C02C8
:102D7000C8DF8091E10084FF29C08091E20084FFD8
:102D800025C019BC89B5826089BD09B400FEFDCF9C
:102D90008091D8008F7D8093D8008091E1008F7E54
:102DA0008093E1008091E2008F7E8093E200809129
:102DB000E20081608093E20080916A02882311F032
:102DC00084E001C081E080936C029BDF8091E10090
:102DD00083FF23C08091E20083FF1FC08091E10048
:102DE000877F8093E10082E080936C0210926A02F8
:102DF0008091E1008E7F8093E1008091E2008E7FE0
:102E00008093E2008091E20080618093E200E7DD40
:102E100042E060E080E0D0DD74DFFF91EF91BF9190
:102E2000AF919F918F917F916F915F914F913F9162
:102E30002F910F900FBE0F901F901895CF938091F8
:102E40006C02882359F0C091E900C7701092E90024
:102E50008091E80083FD78DCC093E900CF9108956C
:102E60000024552704C0080E591F880F991F00978A
:102E700029F076956795B8F37105B9F7802D952FF0
:102E80000895AA1BBB1B51E107C0AA1FBB1FA617B1
:102E9000B70710F0A61BB70B881F991F5A95A9F703
:102EA00080959095BC01CD010895EE0FFF1F059010
:102EB000F491E02D09942F923F924F925F926F927E
:102EC0007F928F929F92AF92BF92CF92DF92EF92BA
:102ED000FF920F931F93CF93DF93CDB7DEB7CA1B3B
:102EE000DB0B0FB6F894DEBF0FBECDBF09942A8866
:102EF000398848885F846E847D848C849B84AA840E
:102F0000B984C884DF80EE80FD800C811B81AA819A
:102F1000B981CE0FD11D0FB6F894DEBF0FBECDBF65
:102F2000ED010895F999FECF92BD81BDF89A9927D8
:102F300080B50895262FF999FECF1FBA92BD81BDA5
:102F400020BD0FB6F894FA9AF99A0FBE019608952B
:042F5000F894FFCF23
:082F54008025000000000802C6
:00000001FF
