:1000000028C1000042C1000040C100003EC1000004
:100010003CC100000C94840D38C1000036C10000C2
:1000200034C1000032C1000030C100000C94FF1642
:100030002CC100002AC1000028C100000C942D0D25
:1000400024C1000022C1000020C10000C3C3000081
:100050001CC100001AC1000018C1000016C1000038
:1000600014C1000012C1000010C100000EC1000048
:100070000CC10000371469144D1569144D15B114E5
:10008000D9144D15F5141D1542160643C4026540DA
:1000900006463608683908696D116C0506528705F1
:1000A00054601374250456780657C70558AC097870
:1000B0008B025AC8100000002A03430055004C0070
:1000C00034003300330000002A03430055004C0085
:1000D0005F004D00580000001603620075007300B9
:1000E00077006100720065002E006400650000006A
:1000F00004030904090243000201008032090400DC
:100100000001020201000524000110052401030181
:10011000042402060524060001070582030800FFE7
:1001200009040100020A0000000705040240000063
:10013000070583024000001201100102000008EBD5
:10014000034B20000001020001202F2000203D2051
:10015000000D2E2D07D3913D0432000006002165CD
:100160006A55E43023B900070018146C0700908723
:100170006BF85611E92A001F410027675081C256CB
:1001800020312E36375F6E6F637265646974732039
:1001900043554C5F4D58005620312E36375F6E6FF9
:1001A000637265646974732043554C3433330020A3
:1001B0002F2000203D2000424F56460D0A004C459E
:1001C0004E4552520D0A004C454E4552520D0A0002
:1001D0000007024604C605260B0610C81193120339
:1001E00013221534173F182819161B4321562500D2
:1001F00026110D210E650F6A070C160720F81E87C1
:100200001F6B29592C812D353EC3FF000D2E2D0764
:10021000D3913D04320000060010B07155E4302344
:10022000B900070018146C070090876BF85611E9A5
:100230002A001F410020697320756E6B6E6F776E08
:100240002920557365206F6E65206F66003F20285A
:10025000000011241FBECFEFD2E0DEBFCDBF11E002
:10026000A0E0B1E0E2E4F0E302C005900D92A43119
:10027000B107D9F722E0A4E1B1E001C01D92AD358C
:10028000B207E1F70CD00C941F18BACEF89481E0B5
:1002900085BF82E085BFE0E0F8E1099508952FE091
:1002A00088E190E00FB6F894A895809360000FBEA7
:1002B0002093600090E080E80FB6F894809361008E
:1002C000909361000FBE2E9A2D9A04B603FE0AC0C9
:1002D00083E390E003D4882329F060E083E390E097
:1002E000F8D3D4DF89EF87BD84E085BD82E084BD8B
:1002F00080936E00109280008AE08093810084B722
:10030000877F84BF3C9A0E940B14DFD40E94E316BF
:100310000E9453130E94980980EC93E19093BD01D1
:100320008093BC0181E08093170144980E94951747
:1003300094D10E94C50A9FD20E945210F7CF292F54
:1003400033272230310559F02330310569F021304F
:10035000310539F582E190E027E331E026C083E4FE
:1003600090E024EF30E021C099278130910539F0E9
:1003700018F0029751F015C0E0EFF0E002C0E8ED90
:10038000F0E0849190E09F0110C01E9903C028EB1B
:1003900030E002C028EC30E0E8ECF0E0849190E03E
:1003A00004C080E090E020E030E0FA013183208357
:1003B00008958EBD0DB407FEFDCF8EB508950F9341
:1003C0001F93CF93DF93082F8A3018F4853018F0ED
:1003D00001C008E005508BE290E060E010E00658B4
:1003E0001E4FEC01219675D3C333D10541F0CC32B9
:1003F00019F4F801649101C060E0CE01F2CFDF9101
:10040000CF911F910F910895CF93DF9382E090E0F9
:10041000FC01E15BFE4F6491EC0121965AD3CB3293
:10042000D10511F0CE01F4CF1E990CC060E18FE030
:1004300090E04FD360EB80E190E04BD361E781E146
:1004400090E047D388E0BBDFDF91CF9108954598D6
:10045000806CAFDF80E0ADDF459A0895A1E0B0E0A9
:10046000E4E3F2E00C94E217459880646983A1DF2D
:100470006981862F9EDF459A2196E2E00C94FE1753
:10048000459897DF459A0895EF92FF920F931F9337
:10049000CF93DF93EC0110926901EC983D9A459A55
:1004A0008EE190E01DD245988EE190E019D2459AF8
:1004B0008DE290E015D280E3E3DF84E690E010D295
:1004C000459880E476DF7E0189E2E80EF11C8E011A
:1004D0000F5F1F4FCE0102D36CDF0E151F0511F009
:1004E000E801F5CF459A45988EE763DF8BE290E00F
:1004F000EC012196F3D25DDFC333D10511F0CE01BB
:10050000F7CF459A83E3BCDF81E0EFD1CDB7DEB70B
:10051000E6E00C94FA17A1E0B0E0E1E9F2E00C9417
:10052000E21722E0298341E0BE016F5F7F4F019611
:100530008DD2898144DF82E090E0A6DF2196E2E05F
:100540000C94FE17CF93EC9886E39ADFCFEF85E308
:1005500097DFC1508077803229F08AE090E0C0D1E7
:10056000C111F5CFCF910895CF93CFEF84E388DF0A
:10057000C1508077803129F08AE090E0B1D1C1117B
:10058000F5CFEC9ACF910895A2E0B0E0EAECF2E06A
:100590000C94E0178C01FC0181818737E9F441E07C
:1005A000BE016F5F7F4FC801029650D2892BA1F028
:1005B00041E0BE016E5F7F4FC801049647D2892B90
:1005C00059F06A8189814ADF83E35ADFCDDF89816F
:1005D00039D28A8137D22CC041E0BE016E5F7F4F95
:1005E000C801019633D2892B21F18A81893969F4B6
:1005F00010E0812F2CDF26D2812F8770873009F4FD
:10060000ADD11F5F1033A9F714C021DF182F83E489
:1006100075D18A8117D28DE491E093D1812F12D2C6
:1006200089E491E08ED140E262E0812F90E09AD19E
:1006300095D12296E4E00C94FC1786E321DF10921A
:10064000BE0110926901089582E090E01DDF81E013
:100650008093BE0110926901089580915402843004
:1006600009F061C08093E90080911401811128C0D4
:100670008091E80085FF24C08091F200882331F04A
:100680006091F1008DE092E03CD3F6CF8091E800DC
:10069000982F9B7F9093E8008F778093E80081E00C
:1006A000809314018DE293E09093BB018093BA0193
:1006B000E091BC01F091BD0181E009951092140117
:1006C00083E08093E9008091CC01882361F18091DF
:1006D000E80085FF28C0F8948091CC01882351F070
:1006E0008091F200803430F48AEC91E020D3809342
:1006F000F100F2CF78949091F2008091E800282FD9
:100700002E7F2093E8008F778093E800903459F48F
:100710000E94A3158091E800982F9E7F9093E80097
:100720008F778093E800089542E061EC82E00E94B8
:10073000531542E361E883E00E94531542E360E809
:1007400084E00E9453151092000110920101109252
:100750000201109203010895809155029091560272
:10076000913229F0923261F1903299F512C0813ABA
:1007700081F58091E800877F8093E80067E070E072
:1007800080E091E00E94CC158091E800982F9B7F3B
:1007900011C08132F1F48091E800877F8093E800F6
:1007A00067E070E080E091E00E9469168091E800C7
:1007B000982F9E7F9093E8008F778093E8000895AC
:1007C000813239F48091E800877F8093E8000C94AF
:1007D0007D1508951F920F920FB60F9211248F93DB
:1007E0009F93AF93BF938091C0019091C101A0915D
:1007F000C201B091C3010196A11DB11D8093C0013A
:100800009093C101A093C201B093C3018091BF0135
:100810008F5F8093BF01BF91AF919F918F910F9098
:100820000FBE0F901F9018952FB7F8944091C001FC
:100830005091C1016091C2017091C301FC014083DC
:100840005183628373832FBF0895A4E0B0E0EBE28D
:10085000F4E00C94E217CE010196E6DF8C81F2D031
:100860008B81F0D08A81EED08981ECD077D024962C
:10087000E2E00C94FE178091C0019091C101A0911B
:10088000C201B091C30120911601281741F1809156
:10089000C0019091C101A091C201B091C3018093A8
:1008A0001601A8958091BF018D37C8F01092BF0145
:1008B0008091070181FF04C088B190E1892788B940
:1008C00084E893E09093C5018093C4018091150161
:1008D0008F5F809315018C3311F4109215010895E8
:1008E000880F991F0197F1F7089520ED37E08150A7
:1008F00020F0F9013197F1F7FACF0895CF93C82F7F
:1009000080915402843081F48091170180FF0CC0E3
:100910008091CC01803408F0A0DE6C2F8AEC91E04D
:10092000F0D1CA3009F499DECF910895CF93DF93C7
:10093000EC018991882311F0E1DFFBCFDF91CF91AA
:100940000895CF93DF93EC01FE018491882319F081
:10095000D5DF2196F9CFDF91CF9108958DE0CEDFDD
:100960008AE0CCCFA6E0B0E0E8EBF4E00C94E0172E
:10097000062F1E8215E02AE030E01150E1E0F0E0A1
:10098000EC0FFD1FE10FF11DB9010E94B817805D4A
:100990008083CB010150009769F01111EECF0AC09E
:1009A000112359F01150E1E0F0E0EC0FFD1FE10FD1
:1009B000F11D4083015007FFF3CF81E090E08C0FE1
:1009C0009D1F810F911DB2DF2696E4E00C94FC1769
:1009D000A5E0B0E0EEEEF4E00C94E2171D8224E016
:1009E000382F3F702150E22FF0E03A3010F4305DA4
:1009F00001C0395CA1E0B0E0AC0FBD1FEA0FFB1FE6
:100A0000308334E0969587953A95E1F761500097E9
:100A100039F7615067FD0BC0222349F02150E1E016
:100A2000F0E0EC0FFD1FE20FF11D4083F2CF81E0FB
:100A300090E08C0F9D1F820F911D78DF2596E2E0DC
:100A40000C94FE1740E362E090E0C2CFDC01FB01B2
:100A500030E090E08D918823A9F0813608F0805233
:100A600020ED280F2A3030F02FEB280F263030F4FD
:100A700029EC280F292B332379F006C0803251F35B
:100A80008A3341F3CF0105C0CF0101962083415045
:100A900041F4861B970B0895922F9295907F31E039
:100AA000D9CFFC01D5CFDB01FC0180E090E02191A2
:100AB000222361F030ED320F3A30C8F76AE070E07F
:100AC0000E94A717C097820F911DF1CF8D939C9321
:100AD00008950E941118F999FECF08950C940918F1
:100AE00008951F93CF93DF93162F11501F3F59F096
:100AF000EC012196F3DFA6DF112311F08AE3FEDE7D
:100B00001150CE01F3CFDF91CF911F910895A2E054
:100B1000B0E0EDE8F5E00C94DF17FC0121812D3405
:100B200021F466E08AEF91E005C0203529F460E108
:100B30008AED91E0D6DF26C01A82198242E0BE011A
:100B40006F5F7F4F019682DF098110E0823021F4D0
:100B5000102F00278A81082BC801C0DFF82E82E5FC
:100B6000CDDE40E364E0C80133DF83EB91E0E9DEF2
:100B70008F2D68DF8FEA91E0E4DE40E262E08F2DA6
:100B800090E0F0DEEBDE2296E5E00C94FB17A6E0A9
:100B9000B0E0EDECF5E00C94DC176C0143E0BE0135
:100BA0006F5F7F4F019652DF823058F1E980F12C60
:100BB000823021F0FE2CEE242A81E22A8C011127BA
:100BC000FE01E00FF11F6081C70183DF000F111FDD
:100BD0000F5F1F4F0C0D1D1DF8018081882389F0C8
:100BE00041E0BE016F5F7F4FC80130DF892B49F0C4
:100BF0008FEFE81AF80A6981C7016BDF0E5F1F4F9C
:100C0000EBCF2696E8E00C94F81741E067E071E03E
:100C100001961CDF8091070180FF02C0449A01C049
:100C200044986091070184E390E053CFA1E0B0E0E5
:100C3000ECE1F6E00C94E2171982009731F041E004
:100C4000BE016F5F7F4F019601DF89818F3F09F4FD
:100C5000FFCF882321F061E083E390E03ADF0E9438
:100C6000E91610926E00F89428E088E190E00FB643
:100C7000F894A895809360000FBE20936000FFCF8A
:100C8000CF93DF93EC0161E080E090E022DF63E44A
:100C900081E090E01EDFB8DB60E080E690E019DFE5
:100CA00060E081E690E015DF60E083E390E011DF33
:100CB00062E084E390E00DDF8981883719F080E0FD
:100CC00090E0B4DFDF91CF91089580E090E006DFFF
:100CD000813029F481E090E001DF833419F080E075
:100CE00090E0CEDF84E390E0F9DE80930701089581
:100CF0001E9903C087E991E002C08FE791E021DEF1
:100D00002DCEFC018FB7F8949281903470F49F5FE0
:100D10009283208191E0920F9083DF01A20FB11D99
:100D200013966C93903409F410828FBF0895FC01E0
:100D30009FB7F8948281882371F0815082838181EA
:100D400021E0280F2183DF01A80FB11D13968C919C
:100D5000203409F411829FBF0895CF93C82F469A7B
:100D6000882319F080911A0102C080911C0190E043
:100D700034E0880F991F3A95E1F7B2DD4698CC230D
:100D800019F08091190102C080911B0190E024E0CC
:100D9000880F991F2A95E1F7A3DDCF910895A9E067
:100DA000B0E0E5EDF6E00C94D2173C01D62E542EBF
:100DB000322E1E2D449A80916901882341F01092B1
:100DC000690181E191E0C8D2BB24B39401C0B12C88
:100DD0008091BE01811101C037DCB4DBEC2CF12C19
:100DE00044E0EE0CFF1C4A95E1F78A2C912C54E06C
:100DF000880C991C5A95E1F72D2D30E03A83298310
:100E0000452D50E05C834B8344244394512C232D87
:100E100030E03E832D83C11002C0AA2031F0469AF3
:100E2000C7015EDD4698C4015BDD312C832D992717
:100E300087FD909549815A818417950724F480E0B5
:100E40008CDF3394F3CFDD2011F081E086DF90E07A
:100E5000292E332427FC30942B813C812216330623
:100E600024F097E0260C371C1CC047E050E0260C0D
:100E7000371C9201042E01C0220F0A94EAF7F101F7
:100E8000808182234F835887998767DF4F815885F8
:100E90004150510999854F3FFFEF5F0751F79F5F21
:100EA000D7CF292F332727FD30954D815E814217FB
:100EB000530774F49201092E01C0220F0A94EAF735
:100EC000F10180818223998748DF99859150E9CF8C
:100ED000812F0BDD015009F09ECF8091C70188233F
:100EE00011F042DB02C086E3CBDAB11028D7449878
:100EF0002996E2E10C94EE17ACE0B0E0E2E8F7E00E
:100F00000C94DA177C01162F842F022F6701C60E6E
:100F1000D11C462FB70135D2F601808361E0610F05
:100F200019825E2D570140E027E0A1E0B0E08A2D54
:100F3000851B861708F065C0F50171915F0187E098
:100F400090E07D01082E02C0EE0CFF1C0A94E2F72F
:100F5000E72291F0EE24E394F12CEC0EFD1EE40E5A
:100F6000F11CF70130816D01022E02C0CC0CDD1C9A
:100F70000A94E2F73C293083222319F03FEF320F25
:100F80000DC021E0240F2C3008F4422FE1E0F0E006
:100F9000EC0FFD1FE20FF11D108237E0232F0197A8
:100FA00080F6872F082E82958025082E86958695B7
:100FB00080258F5F81FF11C081E090E08C0F9D1F25
:100FC000840F911DFC0120817D01032E02C0EE0CD7
:100FD000FF1C0A94E2F72E292083332319F02FEF08
:100FE000230FA5CF81E0840F8C3008F4482F21E037
:100FF00030E02C0F3D1F280F311DF901108227E032
:1010000096CF222311F0215002C04F5F27E089E1E3
:1010100080931B0180931C0185E2809319018093CA
:101020001A01A12CC12C7AE0E72E6CE0CE010196CA
:10103000B6DE2C96EAE00C94F617ADE0B0E0E3E201
:10104000F8E00C94E117162F242F4BE0BE016F5FE0
:101050007F4F01962D87FADC2D85412F682FCE0119
:1010600001964ADF2D96E3E00C94FD1743E066E01D
:10107000E4CFAF92CF92EF920F93CF93DF93CDB7A0
:10108000DEB72C970FB6F894DEBF0FBECDBF4BE096
:10109000BE016F5F7F4F0296D9DC8530C1F48EE3CD
:1010A00080931C018CE180931B0181E280931A01E3
:1010B0008AE380931901F5E2AF2EAAEFCA2EE12C44
:1010C00005E024E044E068E0CE01019668DE2C965D
:1010D0000FB6F894DEBF0FBECDBFDF91CF910F9159
:1010E000EF90CF90AF9008958F929F92AF92BF9262
:1010F000DF92EF92FF920F931F93CF93DF931092A3
:10110000300110923D01FC012181220F220F220F9C
:101110003381231B57E0520F1092310110E070E031
:1011200038E0D32ED20EFF24F39447E007E0E12C01
:10113000C7E0D0E0A1E0B0E0FD1409F47FC0FC01FD
:10114000EE0DF11D248130E0002E02C0359527956B
:101150000A94E2F721703327E22F002311F00150A7
:1011600002C0E39407E06B3471F4433009F04AC0E5
:10117000111107C0E1115FC01092300170933D0161
:1011800074C010E041C04F3F31F56634A9F4E72F39
:10119000F0E0EF5CFE4FE0810E2EE295E0250E2E92
:1011A000E695E695E025EF5FE1FB882480F8912C39
:1011B0008216930641F004C0653429F4E11103C09E
:1011C00010933001DBCF7F5FE72FF0E0EF5CFE4F45
:1011D000108247E031C0EE2361F1663471F4E72FED
:1011E000F0E0EF5CFE4FA0809D01042E01C0220FB5
:1011F0000A94EAF7A22AA0821CC0653439F06B3445
:10120000C1F404C04F3FD1F2EE2399F0E72FF0E094
:10121000EF5CFE4F9E01241B310947FD33955D01B4
:1012200002C0AA0CBB1C2A95E2F795013081322B33
:101230003083415001C011E0F3947ECF1093300110
:1012400070933D015F1588F4653431F44F3F21F40C
:101250007F5F70933D0104C0809130018111F8CF10
:1012600081E090913D01911101C080E0DF91CF912B
:101270001F910F91FF90EF90DF90BF90AF909F90E4
:101280008F90089510926F008091400190E064E18A
:1012900070E00E94A7178F5B9E4FFC01108208959B
:1012A000FC0121812C3008F0EDCF3381662381F0E1
:1012B00081E090E0032E01C0880F0A94EAF7DF0175
:1012C000A20FB11D14969C911497982B14969C9381
:1012D000332319F031503383089587E083832F5FE0
:1012E0002183E20FF11D14820895DC011196EC9127
:1012F0001197F0E050E02C91CF01841B950B0B96D9
:101300004797A0F430E070E0C901861B970B0B965D
:10131000479760F42E0F3F1F640F751F261B370B76
:10132000255F3F4F81E02731310508F080E00895C7
:101330003E9A46983F98EAE6F0E08081816080839B
:10134000109255011092BE0108958091C701882323
:1013500011F07AD909C971C9FC01218121110BC091
:101360008091C7016FDB40E265E08091C4019091FC
:10137000C501F8DAF3CA41E067EC71E0019666DB7B
:10138000E4CF442339F04150FB01E40FF11D90817B
:10139000890FF7CF089520E0662339F06150FC01F2
:1013A000E60FF11D30812327F7CF822F0895A091FA
:1013B000300140E035E020E0662399F06150FC0107
:1013C000E60FF11D5081752F72957F702727370F1B
:1013D000AA2311F0442319F05F702527350F4F5FC2
:1013E000EBCF822F830F8295807F822B0895FC01A3
:1013F00032812381A081B181A30FB11D8C9190E036
:10140000022E02C0959587950A94E2F7817099277C
:101410004FEF420F4383211104C03F5F328327E027
:1014200023830895A2E0B0E0E8E1FAE00C94DA1733
:101430007C01A12CB12CD12CCC24C394062F10E01C
:1014400001501109A616F0F4C7014A836983CFDF62
:101450004A816981882391F0442349F098012A192F
:101460003B098C2D01C0880F2A95EAF706C08C2D08
:101470000A2C01C0880F0A94EAF7D82A8FEFA81A1D
:10148000B80AE0CF8D2D2296EAE00C94F617A4E07E
:10149000B0E0EDE4FAE00C94D9171B8227E02C832E
:1014A0009C012C5F3F4F3A83298310923D01FC0140
:1014B000218130E043E0220F331F4A95E1F7438159
:1014C00087E090E0841B9109280F391F25343105EE
:1014D0000CF44EC0B12CA0903D01F5E0FA1558F186
:1014E0000A2D10E040E068E0CE0101969BDF0F5C22
:1014F0001E4FF8018083982E092C92949024092C79
:10150000969496949024CE01019671DF939491FA6B
:10151000CC24C0F8D12C90E0C816D90649F5CE01EC
:10152000019665DF811124C0F8018081B826A3945B
:10153000A0923D01D0CF40E068E0CE01019672DF7D
:10154000082F182F012E12951025012E169516958D
:101550001025CE0101964BDF1F5F11FBEE24E0F852
:10156000F12C282F30E0E216F30611F481E0B012DE
:1015700080E02496EBE00C94F5178091C60180FD85
:1015800003C084608093C6010895A1E0B0E0EBEC55
:10159000FAE00C94DE17198280911D01882391F1E5
:1015A0008091C70187FF16C084E30E9427028058FC
:1015B000803458F0803C58F490E080559109A3E0C5
:1015C00095958795AA95E1F703C080E001C08FE06B
:1015D0008F5994D98091C70183FF12C082E78ED9B9
:1015E0008091C70184FF03C080911E0187D986E6E0
:1015F00085D98091C70184FF03C080911D017ED9E8
:1016000010921D0180913E01882309F422C2449A60
:1016100080913F0190E064E170E00E94A7178C0187
:101620000F5B1E4F8981811139C066E4C8015CDD02
:101630008823A1F1F0903D01FA94F0923D014F2DE5
:1016400061E371E086E09DDEEF2DF0E0EF5CFE4FA0
:10165000E0808E1105C093E09F1510F486E41BC056
:10166000282F30E02F5F3F4F6E2D70E02617370791
:1016700039F493E09F1520F496E4998380830EC09B
:101680004F2D61E371E08CE07CDE8E1106C0E3E05B
:10169000EF1518F484E5898301C0198289818111CD
:1016A00016C065E4C80120DD882389F080913D01E2
:1016B000815080933D01893051F469E081E391E0EC
:1016C0006ADE90913A01891302C085E48983898199
:1016D000811106C0C801DBDE882311F088E489830C
:1016E0008981811133C0F801438960911E01C801CD
:1016F0004296FBDD682FC801D3DD6BE4C801F4DC42
:101700008823B1F0F0903D01FA94F0923D016F2DE5
:1017100081E391E04CDEEF2DF0E090913001E91B88
:10172000F109EF5CFE4F9081891302C08BE489833D
:10173000898181110BC0F801838191E0980F938317
:10174000873021F4138281818150818389818111C5
:101750002DC0F8018181843049F58381843031F5D1
:101760004EE16CE3C8014096C0DD8823F9F04EE1FC
:1017700060911E01C8014296B8DD682FC80190DD56
:1017800020E0822F90E0FC01EF5CFE4FD801A80F13
:10179000B91F14968C91808381E0820F853010F4FC
:1017A000282FEFCF80933D0182E589833981332350
:1017B00009F4C5C02091C70120FFC1C08091C601B6
:1017C0008E7F8B7F8093C60121FD64C050912F01D5
:1017D000F0903D015F113DC040E04517C0F4842FFB
:1017E00090E061E0640FFC01ED5DFE4FDC01AF5C59
:1017F000BE4F70818C91781741F040932F018091FA
:10180000C6018D7F8093C60104C0462FE6CF40936A
:101810002F0145131EC04091C0015091C10160913C
:10182000C2017091C30180911F0190912001A0918C
:101830002101B0912201481B590B6A0B7B0B4632E8
:1018400051056105710528F48091C601816080937E
:10185000C60140E04F1560F4842F90E0FC01ED5D7F
:10186000FE4FDC01AF5CBE4F8C9180834F5FF2CFA7
:1018700040932F018091C0019091C101A091C201BC
:10188000B091C30180931F0190932001A093210187
:10189000B09322013435E9F426FD1BC080913D014F
:1018A0008530B8F0809133018B3471F0893661F066
:1018B0009DEA980F923040F08D57823028F0809149
:1018C00034018077803729F48091C601816080934C
:1018D000C601B801CE01019650DE8091C60182FF9B
:1018E0002EC089810BD880913001882329F0809106
:1018F0003D01815080933D01F12CE0913D01FE16A8
:1019000040F4EF2DF0E0EF5CFE4F80819BD8F39424
:10191000F4CF80913001882349F0F0E0EF5CFE4F76
:1019200080818F7040E361E090E052D88091C701E0
:1019300085FF04C084E30E94270284D80FD88091D9
:10194000C70182FF74C080E70E947E04F801808195
:1019500040E262E090E006D8F801808990E040E241
:1019600065E054E0880F991F5A95E1F70E94B20490
:10197000F801818990E040E265E074E0880F991FEA
:101980007A95E1F70E94B204F801828990E040E282
:1019900065E0E4E0880F991FEA95E1F70E94B20440
:1019A000F801838990E040E265E0F4E0880F991F38
:1019B000FA95E1F70E94B204F801828140E263E007
:1019C00090E00E94B204F801818140E263E090E07F
:1019D0000E94B204F801238140E262E087E090E0D7
:1019E000821B91090E94B20480E20E947E048091D1
:1019F000C70185FF07C084E30E94270223D880E245
:101A00000E947E04F8018381873019F081818F5F05
:101A10008183F12CF8018181F81638F4F801EF0D7B
:101A2000F11D84810FD8F394F5CF0E94AE04F80124
:101A3000108280913E01815080933E0180913F0150
:101A40008F5F823019F080933F0102C010923F01F6
:101A500044982196E6E00C94FA171F920F920FB665
:101A60000F9211242F933F934F935F936F937F9324
:101A70008F939F93AF93BF93EF93FF9310926F0059
:101A80008091C70183FF03C08EE20E947E044091D3
:101A90004001242F30E0C90164E170E00E94A717E3
:101AA0008F5B9E4FFC018081833018F081818230F2
:101AB00010F4E8DB18C080913E01813049F4809138
:101AC000C70182FFF6CF87EB91E00E94A104F1CF1E
:101AD0008F5F80933E014F5F423019F04093400189
:101AE00002C010924001FF91EF91BF91AF919F9181
:101AF0008F917F916F915F914F913F912F910F90B7
:101B00000FBE0F901F9018951F920F920FB60F9255
:101B10001124FF920F931F932F933F934F935F9343
:101B20006F937F938F939F93AF93BF93CF93DF93E5
:101B3000EF93FF930091840010918500F4E01695D7
:101B40000795FA95E1F78091400190E064E170E03B
:101B50000E94A717EC01CF5BDE4F8881843039F4F7
:101B60000E3208F4D6C00F3410F08CDBD2C0379997
:101B70000CC0843039F461E0CE0192DB1092850014
:101B80001092840000931E01C4C080911E01081BA6
:101B900000931D011092850010928400888184308A
:101BA00021F460E0CE017CDBB4C082E086BBF8802B
:101BB00000911E01F1100FC0053608F0AAC08091F7
:101BC0001D01853608F0A5C0088B898B81E08A83CA
:101BD00082E088839EC010911D0182E0412F602F1A
:101BE000F81248C0CE01409680DB4A818823F9F084
:101BF000288930E0C901880F991F820F931F800F39
:101C0000911D9595879595958795888B298930E0C5
:101C1000C901880F991F820F931F810F911D959500
:101C2000879595958795898B4F5F4A8372C044301D
:101C3000F8F080EA9FE090938900809388008A8181
:101C40008C3050F02889898990E0820F911D85366B
:101C5000910514F084E001C083E088830A8B1B8B1C
:101C6000198287E08B831C8282E080936F0051C0D1
:101C70001882A2CFCE01429638DB882301F161E0C1
:101C8000CE010EDB2A8930E0C901880F991F820F2F
:101C9000931F800F911D95958795959587958A8BB4
:101CA0002B8930E0C901880F991F820F931F810F84
:101CB000911D95958795959587958B8B2AC0412F7A
:101CC000602FCE01409611DB882301F160E0CE0148
:101CD000E7DA288930E0C901880F991F820F931F26
:101CE000800F911D9595879595958795888B298966
:101CF00030E0C901880F991F820F931F810F911D3A
:101D00009595879595958795898B03C087E0F812FF
:101D10002CCFFF91EF91DF91CF91BF91AF919F9128
:101D20008F917F916F915F914F913F912F911F9173
:101D30000F91FF900F900FBE0F901F901895CF93AB
:101D4000DF93EC983D9A459A8EE190E00E947004F2
:101D500045988EE190E00E947004459A8DE290E0F3
:101D60000E94700480E30E94400284E690E00E949A
:101D70007004C0EDD1E0FE018491813440F083E332
:101D80000E94400284E00E947504CFEF0DC0FE0166
:101D900031966491FE0184910E942E022296F2E017
:101DA000CC30DF0741F7EBCF84E30E9440028AE0AA
:101DB00090E00E947004C150B9F781E080936901FE
:101DC000DF91CF910895EF92FF920F931F93CF93DE
:101DD000DF93EC018B01F88080916901811101C0D2
:101DE000AEDF85E30E9427028D3071F08AE50E9404
:101DF0007E0485E40E947E0482E50E947E0482E5E2
:101E00000E947E0481E34CC080916A0190916B0135
:101E1000A0916C01B0916D01892B8A2B8B2B51F510
:101E20000E94A20285E30E942702833109F443C085
:101E30008AE50E947E0485E40E947E0482E50E9479
:101E40007E0482E50E947E0482E32AC08091C00164
:101E50009091C101A091C201B091C3014F5F5F4F4A
:101E60006F4F7F4F84179507A607B707C9F681E024
:101E70000E9475048091C0019091C101A091C2019E
:101E8000B091C30140916A0150916B0160916C0166
:101E900070916D0184179507A607B707B9F6E7CFCC
:101EA0000E947E0485E30E9427020E9422050E9470
:101EB000AE0445DF64C0012B49F445988FE70E94CA
:101EC000D901EC2E0C2F1D2FF3940BC00AE010E06B
:101ED00084E60E9475040150110901151105C1F72E
:101EE000ECCF802F8E198F1530F4F80181918F017E
:101EF0000E94D901F6CF459AC8EC85E30E942702DB
:101F00008D30E9F485E30E9427028D3019F18AE5CE
:101F10000E947E0485E40E947E0482E50E947E0485
:101F200082E50E947E0483E30E947E0485E30E9492
:101F300027020E9422050E94AE0401DF0BC085E348
:101F40000E9427028331F1F681E00E947504C1509E
:101F5000A1F6D8CF80916901811101C0F6D9809195
:101F6000C0019091C101A091C201B091C3018093C1
:101F70006A0190936B01A0936C01B0936D01CDB792
:101F8000DEB7E6E00C94FA17ACE0B0E0EAECFFE074
:101F90000C94E117FC018BE0898381818A831B8289
:101FA00082E08C8387818D8380858E8381858F837A
:101FB000848188878581898786818A871B861C869C
:101FC00084E10E94750460E070E0CE010196FBDEC2
:101FD0008AE50E947E0410E0812F90E0298130E0A4
:101FE000281739075CF0E1E0F0E0EC0FFD1FE80F87
:101FF000F91F80810E9422051F5FEECF8091C701EB
:1020000085FF03C080E00E9422050E94AE042C964A
:10201000E3E0F3C7CF93DF93EC018091710181116D
:1020200008C090917201911104C09091730199239D
:10203000A9F09B81903319F09F7E903479F49F81B1
:1020400098130CC0988580917201981307C09985E8
:1020500080917301981302C0CE0196DF80916E01CA
:10206000811108C090916F01911104C0909170018D
:102070009923A9F098819B3091F49B81903479F455
:102080009F8198130CC0988580916F01981307C0A9
:10209000998580917001981302C0CE0175DFDF91A0
:1020A000CF910895AEE1B0E0E7E5F0E189C7809116
:1020B0006901882309F469C0379B59C08FE30E94E6
:1020C00027028F778E3108F08DE1898345988FEF55
:1020D0000E94D90110E08981181760F480E00E9405
:1020E000D901E2E0F0E0EC0FFD1FE10FF11D80836C
:1020F0001F5FF1CF80E00E94D901082F80E00E948D
:10210000D901459ACE01019685DF8091C70184FFF0
:1021100012C08AE70E947E0410E089818117A8F12D
:10212000E1E0F0E0EC0FFD1FE10FF11D80810E9466
:102130007E041F5FF2CF8AE50E947E0410E0898151
:10214000811758F0E1E0F0E0EC0FFD1FE10FF11D09
:1021500080810E9422051F5FF2CF8091C70185FF19
:1021600003C0802F0E9422050E94AE040EC085E3AA
:102170000E942702813149F48AE30E94400286E3EB
:102180000E94400284E30E9440026E96E4E034C75D
:10219000AEE1B0E0EDECF0E113C78C01FC01818110
:1021A000823711F4CCDD36C0833711F0863601F565
:1021B0004DE1BE016F5F7F4FC80102960E94260568
:1021C00099270197298130E08217930729F08EEB38
:1021D00091E00E94A1041EC061E070E0F8018181DD
:1021E000833711F060E070E0CE010196ECDD12C0A3
:1021F000813621F443E061E771E005C0873741F49F
:1022000043E06EE671E0C80102960E94260502C016
:10221000109269016E96E4E0EFC6CF93DF93EC98DD
:102220003D9A459A8EE190E00E94700445988EE1B7
:1022300090E00E947004459A8DE290E00E94700444
:1022400080E30E94400284E690E00E94700445987A
:1022500080E40E94D901CCE0D2E0FE0184910E948A
:10226000D9012196F2E0C931DF07B9F78091080161
:102270000E94D901809109010E94D90180910A012F
:102280000E94D901C0E0D0E0FE01E45EFD4F8491E0
:102290000E94D9012196C931D105B1F7459A4598D7
:1022A0008EE70E94D9018BE290E0EC0121960E941A
:1022B0006E050E94D901C333D10511F0CE01F5CFCF
:1022C000459A83E30E94400281E00E94750481E008
:1022D0008093BE01DF91CF910895AF92BF92CF92CC
:1022E000EF92FF920F931F93CF93DF93EC018981BD
:1022F000843769F46FE071E0CE0102960E945305C5
:1023000040E260E080910F019091100112C083378C
:1023100009F060C18A81823789F46BE071E0CE01F7
:1023200003960E94530540E260E080910B0190917A
:102330000C010E94B2040E94AE04ABC1449A809189
:10234000760181110DC080916901882329F081E017
:10235000809374011092690160DF83E00E9475042C
:1023600086E30E9440028AE30E9440028BE30E94BF
:1023700040020E94A202FE0101900020E9F70E2F08
:102380000C1B0250C12C7E01E2E0EE0EF11C80918C
:102390000B0190910C012C2D332727FD3095281728
:1023A000390708F0E4C0013289F4469A80910F01A0
:1023B000909110010E947004469880910D019091B7
:1023C0000E016AE070E0C3D50E947004570111E06D
:1023D00010170CF0A6C0F50181915F01469A803379
:1023E00009F03EC00132E1F480910D0190910E019F
:1023F0000E947004469880910D0190910E010E94F8
:102400007004469A80910D0190910E010E94700413
:10241000469880910D0190910E0165E070E01EC01C
:1024200080910F01909110010E9470044698809154
:102430000F019091100163E070E089D50E94700453
:10244000469A80910F01909110010E947004469865
:1024500080910F019091100163E070E078D55DC02C
:10246000813301F5013279F480910D0190910E01D3
:102470000E947004469880910D0190910E0165E0D4
:1024800070E065D51CC080910F019091100163E050
:1024900070E05DD50E947004469880910F01909184
:1024A00010012AC00132D1F480910D0190910E01EA
:1024B0000E947004469880910D0190910E010E9437
:1024C0007004469A80910D0190910E010E94700453
:1024D000469880910D0190910E011FC080910F01CF
:1024E000909110010E947004469880910F01909184
:1024F000100163E070E02BD50E947004469A809131
:102500000F019091100163E070E021D50E947004EA
:10251000469880910F01909110010E9470041F5FF6
:1025200057CF469A013289F480910D0190910E01A6
:102530000E947004469880910D0190910E0168E20E
:1025400070E005D50E94700410C080910F01909139
:1025500010010E94700446981FE180910F01909134
:1025600010010E9470041150C1F7C39410CF8091E4
:102570007601882359F08091C701882319F00E94C1
:10258000B4020EC086E30E9440020AC0809174012A
:10259000882321F010927401D2DB02C00E94A509A9
:1025A000449889E60E947E0483E70E947E0411E03D
:1025B00010170CF0C0CEFE01E10FF11D17FDFA95CA
:1025C0008181803319F0813309F086E40E947E0412
:1025D0001F5FEECF823771F480916901882329F063
:1025E00081E0809374011092690117DE81E080938D
:1025F00076014FC0863651F58A81803351F480E1EF
:102600008093080180EB8093090181E780930A01A0
:1026100007C043E068E071E0CE0102960E94260503
:1026200089E60E947E0486E60E947E048AE30E9478
:102630007E04809108010E942205809109010E9478
:10264000220580910A010E94220575CE8837C9F4BF
:1026500080917401882321F01092740170DB0EC008
:1026600082E090E00E9444028091C701882319F023
:102670000E94B40203C086E30E94400210927601D9
:1026800008C0833631F46FE071E0CE0101960E94FC
:102690005305DF91CF911F910F91FF90EF90CF9055
:1026A000BF90AF90089585E390E00E946E058093FF
:1026B000C80186E390E00E946E058093C9010895E9
:1026C000A6E0B0E0E5E6F3E17DC445E0BE016F5F62
:1026D0007F4F01960E9426058430D8F4998191306D
:1026E000B1F4833061F46A8185E390E00E9469056A
:1026F0006B8186E390E00E946905D5DF0AC0809176
:10270000C8010E9422058091C9010E9422050E94F1
:10271000AE042696E2E072C40F931F93CF93DF932B
:10272000EC0110E0212F30E0C90163E070E00FD42C
:1027300088579F4FFC010491C90163E070E007D402
:1027400087579F4FFC0125913491002399F02097E2
:1027500039F480E20E947E04802F0E947E0408C02B
:102760008881801305C0CE01F901099581E003C07D
:102770001F5FD8CF80E0DF91CF911F910F91089517
:10278000CF93C09117018093170180910F02882386
:1027900009F43DC08DE092E00E94970620917701F8
:1027A000309178018A3011F08D3011F52115310505
:1027B00061F3F901E758FE4F108289E791E0ACDF41
:1027C000811111C08DE492E00E94A10489E791E09B
:1027D0000E94960485E392E00E94A10480E090E0CC
:1027E0009BDF0E94AE041092780110927701CDCF4A
:1027F0002034310550F6A9014F5F5F4F50937801A7
:1028000040937701F901E758FE4F8083BECFC09314
:102810001701CF910895E4E6F0E080818B7F8083FB
:10282000299A84B1876084B9239880E58CBD8DB5E1
:1028300081608DBD0895A2E0B0E0E0E2F4E1C2C3A2
:10284000E5E5F2E08091F100819382E0ED35F80753
:10285000C9F72091550230915602832F90E08A30BB
:10286000910508F01AC1FC01E65CFF4F95C32038C2
:1028700079F0223809F011C1809159028093E90062
:102880008091EB0085FB882780F91092E90006C053
:102890008091500290915102911182609091E800D4
:1028A000977F9093E8008093F1001092F10080915F
:1028B000E800982F9E7F9093E8008F778093E80040
:1028C0008091E80082FDAFC0809154028111F8CF61
:1028D000D5C0822F8D7F09F0E0C0222319F022306D
:1028E00061F033C080915702813009F0C7C03330A6
:1028F00009F080E08093510228C080915702811135
:1029000024C020915902277009F4B8C02093E9002F
:102910008091EB0080FF19C08091EB00313091F481
:1029200080618093EB0081E090E0022E01C0880F6F
:102930000A94EAF78093EA001092EA008091EB0093
:10294000886001C080628093EB001092E900809162
:10295000E800877F8093E8008091E800982F9E7FB1
:1029600066C021119AC0209157028091E800877FAC
:102970008093E8009091E800892F8E7F8093E80093
:102980009F779093E8008091E80080FD05C08091DA
:1029900054028111F8CF72C0822F8F77982F9068E0
:1029A0009093E300882309F469C083E08093540284
:1029B00065C02058223008F070C0AE014F5F5F4FF5
:1029C0006091590280915702909158020E949F0194
:1029D000009709F453C02091E800277F2093E80076
:1029E000BC0189819A8126D11EC0203809F055C0CA
:1029F0008091E800877F8093E80080915202809365
:102A0000F1008091E800982F9E7F9093E8008F77E7
:102A10008093E8008091E80082FD05C08091540217
:102A20008111F8CF2BC08091E800982F9B7F909365
:102A3000E8008F778093E80021C021112EC090918B
:102A400057029230D8F48091E800877F8093E800A5
:102A5000909352028091E800982F9E7F9093E80017
:102A60008F778093E80080915202882311F084E0F0
:102A700001C083E0809354020E9494038091E80097
:102A800083FF0EC08091EB0080628093EB00809109
:102A9000E800877F8093E80003C00E94AC03EECF7C
:102AA0002296E2E0ABC28093E900EBEEF0E0808199
:102AB00081608083EDEEF0E010826093EC00408353
:102AC0008091EE00881F8827881F08951092F400D7
:102AD00080E08093E9001092F0001092E80090915D
:102AE000ED009D7F9093ED009091EB009E7F909381
:102AF000EB008F5F853069F708958091550287FD5F
:102B000005C08091E80080FF0FC013C08091E800ED
:102B100082FD05C0809154028111F8CF0895809103
:102B2000E800982F9B7F09C0809154028111E9CF62
:102B300008958091E800982F9E7F9093E8008F770A
:102B40008093E800089585E69091EC0090FF05C021
:102B50009091E80090FF05C019C09091E80092FDA7
:102B600015C090915402992399F09091EB0095FD36
:102B700011C09091E10092FFE7CF9091E1009B7F1F
:102B80009093E100815001F783E0089580E008957B
:102B900082E0089581E0089540915B0250915C02CB
:102BA0009B014617570708F49A0140E021153105AB
:102BB000A9F15091E80053FD39C05091E80052FF4F
:102BC00006C08091E80082FF2CC080E008955091FB
:102BD0005402552369F15091E80050FFE7CFFC0102
:102BE000CF012115310551F04091F200483030F409
:102BF00081918093F10021503109F2CF5091F20080
:102C000041E0583009F040E05091E800652F6E7FB8
:102C10006093E8005F775093E800C8CF4111C9CFB7
:102C2000D0CF809154028111CCCF02C081E00895B1
:102C300082E0089540915B0250915C029B0146172F
:102C4000570708F49A0140E021153105B1F1509180
:102C5000E80053FD3AC05091E80052FF06C0809151
:102C6000E80082FF2DC080E0089550915402552362
:102C700071F15091E80050FFE7CFFC01CF01211521
:102C8000310559F04091F200483038F48491809336
:102C9000F100215031093196F1CF5091F20041E01D
:102CA000583009F040E05091E800652F6E7F609346
:102CB000E8005F775093E800C7CF4111C8CFCFCF6E
:102CC000809154028111CBCF02C081E0089582E04F
:102CD00008956115710571F12091E80023FD2FC061
:102CE00020915402222379F12091E80022FFF4CFB1
:102CF000FC018091F200882371F09F012F5F3F4F0C
:102D0000C9014091F100408361507109611571055D
:102D100019F0F901EECFCF012091E800322F3B7F6F
:102D20003093E8002F772093E800D3CF80915402AE
:102D3000882349F08091E80080FFF8CF02C081E04D
:102D4000089580E0089582E0089553D055D0109200
:102D5000540210925202109251021092500219BC69
:102D600089B5826089BD09B400FEFDCF8091D8008D
:102D7000982F9F779093D80080688093D800809197
:102D800063008E7F809363008091D8008F7D809355
:102D9000D8008091E0008E7F8093E0008091E10078
:102DA0008E7F8093E1008091E20081608093E20059
:102DB0008091E100877F8093E1008091E20088604C
:102DC0008093E2000895C1DF81E0809353027894FC
:102DD0000895BBDFE0EEF0E0808181608083E8ED64
:102DE000F0E080818F77808319BC109253020895A0
:102DF00008951092E20008951092E10008951F9244
:102E00000F920FB60F9211242F933F934F935F931E
:102E10006F937F938F939F93AF93BF93EF93FF93A2
:102E20008091E10080FF1CC08091E20080FF18C00B
:102E30008091E1008E7F8093E1008091E2008E7F9F
:102E40008093E2008091E20080618093E2008091B3
:102E5000D80080628093D80019BC10925402C8DF59
:102E60008091E10084FF29C08091E20084FF25C0A9
:102E700019BC89B5826089BD09B400FEFDCF80917F
:102E8000D8008F7D8093D8008091E1008F7E809361
:102E9000E1008091E2008F7E8093E2008091E20069
:102EA00081608093E20080915202882311F084E0D7
:102EB00001C081E0809354029BDF8091E10083FF99
:102EC00023C08091E20083FF1FC08091E100877FD3
:102ED0008093E10082E0809354021092520280912C
:102EE000E1008E7F8093E1008091E2008E7F8093ED
:102EF000E2008091E20080618093E200E7DD42E041
:102F000060E080E0D0DD74DFFF91EF91BF91AF9181
:102F10009F918F917F916F915F914F913F912F91F1
:102F20000F900FBE0F901F901895CF938091540271
:102F3000882359F0C091E900C7701092E900809190
:102F4000E80083FD78DCC093E900CF910895002468
:102F5000552704C0080E591F880F991F009729F0A4
:102F600076956795B8F37105B9F7802D952F08957B
:102F7000AA1BBB1B51E107C0AA1FBB1FA617B7079F
:102F800010F0A61BB70B881F991F5A95A9F78095BB
:102F90009095BC01CD010895EE0FFF1F0590F491AF
:102FA000E02D09942F923F924F925F926F927F9201
:102FB0008F929F92AF92BF92CF92DF92EF92FF9249
:102FC0000F931F93CF93DF93CDB7DEB7CA1BDB0BF5
:102FD0000FB6F894DEBF0FBECDBF09942A8839889A
:102FE00048885F846E847D848C849B84AA84B984A1
:102FF000C884DF80EE80FD800C811B81AA81B981AD
:10300000CE0FD11D0FB6F894DEBF0FBECDBFED01C0
:103010000895F999FECF92BD81BDF89A992780B5A0
:103020000895262FF999FECF1FBA92BD81BD20BD0C
:103030000FB6F894FA9AF99A0FBE01960895F8948B
:02304000FFCFC0
:10304200802500000000080210B07106000401A4EF
:043052000132310016
:00000001FF
