:10000000B2C100000C948410CCC10000CAC1000031
:10001000C8C10000C6C10000C4C10000C2C10000C8
:10002000C0C10000BEC10000BCC10000BAC10000D8
:10003000B8C100000C941D10B4C10000B2C1000092
:10004000C1C30000AEC10000ACC10000AAC10000E5
:100050000C94CF270C949727A4C10000A2C10000E4
:10006000A0C100009EC100009CC100009AC1000018
:1000700098C1000096C1000094C1000092C1000028
:1000800090C100008EC100008CC100006D12306272
:10009000B119432A03460D0969711F4143165ACA13
:1000A0001E4FD72E4710094D48094BB60962B119AA
:1000B00052820654BA2256790757C20658800B65F9
:1000C0003907666C266C000774460475111378F1C5
:1000D00002000000202F2000203D2000072E050DEB
:1000E000D391FF080500000C0021656A2D3B132207
:1000F000F862073F181D1CC700B0876BF8B611EAFD
:100100002A001F41000D2E2D07D3913D043200001F
:10011000060021656A55E43023B900070018146C05
:10012000070090876BF85611E92A001F4100000371
:100130000F1E2627000000030F1E25363867000318
:100140000F256740605000030F275188838100030B
:100150000F2750C8C3C2002700000000000000673E
:1001600000000000000000500000000000000081BE
:1001700000000000000000C2000000000000504C21
:100180004C310D0A00504C4C300D0A005620312ED7
:1001900036375F6E6F637265646974732043534DC5
:1001A00038363800202F2000203D2000424F564690
:1001B0000D0A004552523A4343410D0A000B081004
:1001C0005B11F81547191D1A1C1BC71C001DB22115
:1001D000B623EA0007022E030D04E905CA070C0B3B
:1001E000060D210E650F6A10C811931203153417FE
:1001F00033181819161B4321562500261129592C8E
:10020000812D353EC34F4646004F464600544D4F64
:10021000444500534D4F4445000454053D1700002C
:100220000602000B080C000D210E6B0FD0105C11A4
:10023000041206132214F80A00154421B6221018DD
:1002400018192E1ABF1B431C091DB523EA242A25A1
:1002500000261F29592C812D352E09070408000975
:100260000006FF3EC2FF0476059617000006020056
:100270000B080C000D210E650F6A106A114A120658
:10028000132214F80A00154721B622101818192E47
:100290001A6D1B041C091DB223EA242A2500261FFF
:1002A00029592C812D352E0907040800090006FF65
:1002B0003EC2FF4C454E4552520D0A004C454E453C
:1002C00052520D0A000007024604C605260B06100E
:1002D000C81193120313221534173F182819161B3F
:1002E000432156250026110D210E650F6A070C16B5
:1002F0000720F81E871F6B29592C812D353EC3FF1F
:10030000000D2E2D07D3913D04320000060010B0E1
:100310007155E43023B900070018146C070090876A
:100320006BF85611E92A001F41004E2F4100454F3E
:10033000420D0A004E2F41004E2F41000053530042
:10034000547D7DFFFF4B4B7E7E0020697320756ED0
:100350006B6E6F776E2920557365206F6E65206F09
:1003600066003F20280011241FBECFEFD0E4DEBF7F
:10037000CDBF12E0A0E0B1E0ECE6F6E600E00BBF96
:1003800002C007900D92A438B107D9F728E1A4E87C
:10039000B2E001C01D92A536B207E1F703D00C947C
:1003A00034332ECE88E10FB6F8948093600010921B
:1003B00060000FBE90E080E80FB6F8948093610073
:1003C000909361000FBE3E9A469A0E942B287ED5DC
:1003D0000E943B280E94632C0E94BB2B89EF87BDA3
:1003E00084E085BD82E084BD80936E001092800021
:1003F0008AE08093810084B7877F84BF2FE088E103
:1004000090E00FB6F894A895809360000FBE2093FB
:10041000600089E190E80E9403280E945A220E940D
:10042000620B87E497E2909306088093050881E0C9
:10043000809387020E9433128091870288608093A4
:100440008702469878940E9424280E94810D34D215
:100450000E94B2260E94B3130E94BA140E94521E38
:100460000E94B217F0CF8EBD0DB407FEFDCF8EB542
:100470000895A1E0B0E0EFE3F2E00C947630482F6D
:100480008A3008F048E088E0489F70011124F701A5
:10049000E25DFE4F7F018BE290E0F70164918C01F9
:1004A0000F5F1F4F498310D4FFEFEF1AFF0A4981F6
:1004B0000333110511F0C801F0CF4550453010F459
:1004C00061E101C067E184E290E0FED32196E6E0BD
:1004D0000C949230CF93DF9382E090E0FC01ED5FCB
:1004E000FE4F6491EC012196EFD3CB32D10511F090
:1004F000CE01F4CF87E390E0FC01EB55FF4F649110
:10050000EC012196E1D3C036D10511F0CE01F4CF34
:1005100088E0AFDFDF91CF9108952C98806CA3DF46
:1005200080E0A1DF2C9A0895A1E0B0E0EAE9F2E0D2
:100530000C947A302C988064698395DF6981862FCA
:1005400092DF2C9A2196E2E00C9496302C988BDF67
:100550002C9A0895EF92FF920F931F93CF93DF93FE
:10056000EC0110923503E898249A2C9A8EE190E0E1
:1005700013D22C988EE190E00FD22C9A8DE290E06D
:100580000BD280E3E3DF84E690E006D22C9880E48F
:100590006ADF7E0189E2E80EF11C8E010F5F1F4FBA
:1005A000CE0197D360DF0E151F0511F0E801F5CFDE
:1005B0002C9A2C988EE757DF8BE290E0EC01219685
:1005C00088D351DFC333D10511F0CE01F7CF2C9A78
:1005D00083E3BCDF81E0E5D1CDB7DEB7E6E00C9484
:1005E0009230A1E0B0E0E7EFF2E00C947A3022E044
:1005F000298341E0BE016F5F7F4F01960AD3898155
:1006000038DF82E090E0A6DF2196E2E00C9496309D
:10061000CF93E89886E39ADFCFEF85E397DFC15069
:100620008077803229F08AE090E0B6D1C111F5CF11
:10063000CF910895CF93CFEF84E388DFC1508077C7
:10064000803129F08AE090E0A7D1C111F5CFE89A76
:10065000CF910895A2E0B0E0E0E3F3E00C947830AD
:100660008C01FC0181818737E9F441E0BE016F5FB5
:100670007F4FC8010296CDD2892BA1F041E0BE0187
:100680006E5F7F4FC8010496C4D2892B59F06A81EE
:1006900089814ADF83E35ADFCDDF8981B6D28A813F
:1006A000B4D22CC041E0BE016E5F7F4FC8010196FD
:1006B000B0D2892B21F18A81893969F410E0812F28
:1006C0002CDFA3D2812F8770873009F42AD21F5FD5
:1006D0001033A9F714C021DF182F83E4D2D18A8107
:1006E00094D288ED90E010D2812F8FD284ED90E0EB
:1006F0000BD240E262E0812F90E017D212D2229614
:10070000E4E00C94943086E321DF10920708109205
:10071000310310923503089582E090E01BDF81E001
:1007200080930708109231031092350308950F93B8
:100730001F93CF93DF93082F10E0C62FD0E085E3FF
:10074000ECDE801731F0CE0127D11150C1F781E0E6
:1007500001C080E0DF91CF911F910F91089585E254
:10076000DCDE8F3311F080E0089586E3EFDE8091C8
:100770008402811104C085E891E0C6D102C08DE3F6
:10078000E5DE83E3E3DE64E081E0D1DF85E2C5DE20
:100790008F3349F780918402811103C08EE791E085
:1007A000B3D181E0089585E3B8DE8D3051F485E260
:1007B000B4DE8F3331F4D3DF84E3C8DE8077803159
:1007C000D9F708951F920F920FB60F9211240BB60E
:1007D0000F928F939F93AF93BF93EF93FF9380916B
:1007E000090890910A08A0910B08B0910C08019695
:1007F000A11DB11D8093090890930A08A0930B08CE
:10080000B0930C08809108088F5F80930808EBEA8A
:10081000FFE080819181181619061CF401979183DD
:10082000808336968FE0E33CF80799F78091C50FF7
:100830009091C60F009729F001979093C60F80936F
:10084000C50F8091D80F8F3F19F081508093D80F3A
:10085000FF91EF91BF91AF919F918F910F900BBE40
:100860000F900FBE0F901F9018952FB7F8944091DE
:10087000090850910A0860910B0870910C08FC015E
:1008800040835183628373832FBF0895A4E0B0E057
:10089000ECE4F4E00C947A30CE010196E6DF8C8132
:1008A000B4D18B81B2D18A81B0D18981AED139D115
:1008B0002496E2E00C9496301F93CF93DF938091BF
:1008C000090890910A08A0910B08B0910C0820919A
:1008D0008602281709F45CC08091090890910A08E3
:1008E000A0910B08B0910C0880938602A895CBEAE2
:1008F000DFE010E028813981232B19F4812F0E9439
:10090000DC241F5F26961430A9F78091C50F9091C3
:10091000C60F892B11F40E9438258091D80F8111C0
:1009200002C00E94962580911F0C882339F08150C7
:1009300080931F0C811102C00E9451140E94AB2CA5
:10094000809108088D3720F11092080880910001ED
:1009500081FF04C088B190E4892788B984E893E0D6
:1009600090930E0880930D080E94C52880918502FF
:100970008F5F809385028C3359F4109285028091A9
:10098000AA0F8F5F8093AA0F8C3310F01092AA0FDA
:10099000DF91CF911F910895880F991F0197F1F76B
:1009A000089520ED37E0815020F0F9013197F1F7FB
:1009B000FACF0895CF93DF93DC0116968C911697AA
:1009C000843509F05BC0CD010696CD91DC9111977D
:1009D0004DE0242F30E02C173D0740F0AE014F5082
:1009E00051092417350709F049C008C0FC01E20F7E
:1009F000F31F50815B3391F34F5FEBCFFE013E97C6
:100A0000E80FF91F20812435C9F517963C911797F7
:100A10002181321333C018963C91189722813213EA
:100A20002DC019963C9119972381321327C01A962D
:100A30003C911A972481321321C06197C80FD91FA6
:100A4000858188838681898381858A8382858B835A
:100A500083858C8384858D8385858E838D919C9100
:100A600011970A9711969C938E9314968D919C9151
:100A700015970A9715969C938E931497DF91CF91B3
:100A80000895CF93C82F8091870280FF13C02091D3
:100A9000EE0F3091EF0F2E3F83E0380738F021152D
:100AA000344040F4CD3011F0CA3021F46C2F8AEE7E
:100AB0009FE02BD280912A0C8823C9F08091870275
:100AC00083FF15C0CA3099F0CD3011F46BE301C03B
:100AD0006C2F87E198E019D2CD3019F487E198E0C6
:100AE00069DF83E080931F0C82E08093250CCF9117
:100AF0000895CF93DF93EC018991882311F0C1DF32
:100B0000FBCFDF91CF910895CF93DF93EC01FE01EE
:100B10008491882319F0B5DF2196F9CFDF91CF9129
:100B200008958DE0AEDF8AE0ACCFA6E0B0E0EBE95F
:100B3000F5E00C947830062F1E8215E02AE030E0B4
:100B40001150E1E0F0E0EC0FFD1FE10FF11DB901E4
:100B50000E944330805D8083CB010150009769F093
:100B60001111EECF0AC0112359F01150E1E0F0E06D
:100B7000EC0FFD1FE10FF11D4083015007FFF3CF84
:100B800081E090E08C0F9D1F810F911DB2DF2696B2
:100B9000E4E00C949430A5E0B0E0E1EDF5E00C94D5
:100BA0007A301D8224E0382F3F702150E22FF0E090
:100BB0003A3010F4305D01C0395CA1E0B0E0AC0F18
:100BC000BD1FEA0FFB1F308334E0969587953A9559
:100BD000E1F76150009739F7615067FD0BC02223A0
:100BE00049F02150E1E0F0E0EC0FFD1FE20FF11DB4
:100BF0004083F2CF81E090E08C0F9D1F820F911D0A
:100C000078DF2596E2E00C94963040E362E090E0D5
:100C1000C2CFDC01FB0130E090E08D918823A9F088
:100C2000813608F0805220ED280F2A3030F02FEB6B
:100C3000280F263030F429EC280F292B332379F0A4
:100C400006C0803251F38A3341F3CF0105C0CF0192
:100C500001962083415041F4861B970B0895922FF3
:100C60009295907F31E0D9CFFC01D5CF20E030E0E4
:100C70005AE0FC014191CF01442379F0E0EDE40F0B
:100C8000EA30B8F7F9015E9F90015F9F300D1124A3
:100C900020533109240F311DECCFFB013183208318
:100CA0000895982F92959F709A3010F4905D01C02E
:100CB000995CFB0190838F708A3010F4805D01C0D5
:100CC000895CFB01818308950E942633F999FECF48
:100CD00008950C941E3308951F93CF93DF93162F1E
:100CE00011501F3F59F0EC012196F3DF8EDF1123E5
:100CF00011F08AE3C6DE1150CE01F3CFDF91CF9120
:100D00001F910895A2E0B0E0E8E8F6E00C94773097
:100D1000FC0121812D3421F466E08AEF9FE005C0BB
:100D2000203529F460E18AED9FE0D6DF26C01A82E3
:100D3000198242E0BE016F5F7F4F01966ADF098131
:100D400010E0823021F4102F00278A81082BC8017F
:100D5000C0DFF82E82E595DE40E364E0C8011BDFCA
:100D600088EA91E0D1DE8F2D50DF84EA91E0CCDE7D
:100D700040E262E08F2D90E0D8DED3DE2296E5E0FF
:100D80000C949330A6E0B0E0E8ECF6E00C947430FC
:100D90006C0143E0BE016F5F7F4F01963ADF823006
:100DA00058F1E980F12C823021F0FE2CEE242A81CA
:100DB000E22A8C011127FE01E00FF11F6081C701BB
:100DC00083DF000F111F0F5F1F4F0C0D1D1DF8015A
:100DD0008081882389F041E0BE016F5F7F4FC801A9
:100DE00018DF892B49F08FEFE81AF80A6981C701EB
:100DF0006BDF0E5F1F4FEBCF2696E8E00C94903030
:100E000041E060E071E0019604DF8091000180FF25
:100E100002C0469A01C046986091000184E390E0C8
:100E200053CFA1E0B0E0E7E1F7E00C947A3019820B
:100E3000009731F041E0BE016F5F7F4F0196E9DE20
:100E400089818F3F09F4FFCF882321F061E083E39C
:100E500090E03ADF10926E00F89428E088E190E08C
:100E60000FB6F894A895809360000FBE20936000A1
:100E7000FFCFCF93DF93EC0161E080E090E024DFCF
:100E800063E481E090E020DF25DB60E080E690E035
:100E90001BDF60E081E690E017DF60E083E390E035
:100EA00013DF62E084E390E00FDF60E080E690E033
:100EB0000BDF60E081E690E007DF8981883719F079
:100EC00080E090E0AEDFDF91CF91089580E090E088
:100ED00000DF813029F481E090E0FBDE833419F0FB
:100EE00080E090E0C6DF84E390E0F3DE80930001D1
:100EF00008958CE891E008DE14CEFC01158214827E
:100F000011821082138212820895FC014FB7F89467
:100F100084819581811524E0920798F40196958348
:100F2000848320813181C901019691838083DF010F
:100F3000A20FB31F16966C938115944011F4118281
:100F400010824FBF0895FC014FB7F89484819581BA
:100F5000009719F44FBF80E008950197958384832B
:100F6000828193819C012F5F3F4F33832283DF0176
:100F7000A80FB91F16968C912115344011F41382D5
:100F800012824FBF0895FA013081882369F0E1E0B1
:100F9000F0E0022E01C0EE0F0A94EAF7DB01A30F86
:100FA000B11D9C919E2B9C93222319F08FEF820FF1
:100FB0000BC081E0830F8C3010F4FA018083FB01B9
:100FC000E80FF11D108287E090E00895CF93C82FBD
:100FD000299A882319F080918A0202C080918C029C
:100FE00020E1829FC0011124D7DC2998CC2319F07D
:100FF0008091890202C080918B0220E1829FC00112
:101000001124CADCCF910895A1E0B0E0EAE0F8E055
:101010000C946A306C01162F842E622E469A8091B1
:101020003503882341F01092350380E892E068D3BD
:10103000FF24F39401C0F12C80910708811101C0B5
:101040006BDBE6DAA12EB12C912C712C512C852D65
:10105000992787FD90958A159B0524F480E0B6DFDB
:101060005394F5CF112311F081E0B0DF20E0422E40
:10107000552447FC5094481459042CF097E0392E1D
:101080004C0C5D1C1BC087E0282E312C4C0C5D1CC9
:1010900081E090E0022C01C0880F0A94EAF7F20187
:1010A00090818923298392DFF1E02F1A3108298169
:1010B0008FEF2816380661F72F5FD9CF832D992738
:1010C00087FD9095681679066CF481E090E0032C1A
:1010D00001C0880F0A94EAF7F2019081892376DF34
:1010E0003A94ECCF8E2D5DDC015009F0AFCF8091AA
:1010F0001008882311F09EDA02C086E327DAF11087
:101100000E949D1C46982196E2E10C948630ADE049
:10111000B0E0EDE8F8E00C946D307C01162F842FE0
:10112000022F6701C60ED11C462FB701FED2D60191
:101130008C931F5F1D8619825E2C670127E0662451
:101140006394712C8C2D8519811788F547E0A42EA6
:10115000B12C4701880E911CF3010A2C01C0EE0F3F
:101160000A94EAF7D4018C91AE01435F5F4FBE0150
:101170006F5F7F4F8E2307DF282FB1E0AB1AB108D6
:1011800058F7D6018D916D01082E82958025082E85
:101190008695869580258F5F86958170AE01435F29
:1011A0005F4FBE016F5F7F4FEEDE282FCBCF222334
:1011B00011F0215004C08D858F5F8D8727E089E174
:1011C00080938B0280938C0285E2809389028093C6
:1011D0008A023AE0E32E4D856CE0CE01019614DFE1
:1011E0002D96EFE00C948930ADE0B0E0EAEFF8E046
:1011F0000C947930162F242F4BE0BE016F5F7F4F88
:1012000001962D8706DD2D85412F682FCE01019691
:101210007EDF2D96E3E00C94953043E066E0E4CF6A
:10122000EF920F93CF93DF93CDB7DEB760970FB6F2
:10123000F894DEBF0FBECDBF40E1BE016F5F7F4FB0
:101240000196E7DC69814A810B818C8180938C0255
:101250008D8180938B028E8180938A028F8180930F
:101260008902E02EE2947FE0E7220F70242F2F7096
:1012700042954F70CE010896C7DE60960FB6F8947F
:10128000DEBF0FBECDBFDF91CF910F91EF900895DC
:10129000A9E1B0E0EEE4F9E00C9472304BE0BE015D
:1012A0006F5F7F4F0196B5DC182F893009F05AC067
:1012B00099E190938B0290938C0290938A0282E33F
:1012C0008093890269E0CE01019639D2E1E0F0E035
:1012D000EC0FFD1FE10FF11D8083198E1D86CE01DD
:1012E00001967C016E019BE0C90ED11C27E0AA2467
:1012F000A394B12CEC14FD0429F100E010E0F501F9
:10130000002E01C0EE0F0A94EAF7D7018C91AE01CE
:10131000475E5F4FBE01635F7F4F8E2334DE282F11
:101320000F5F1F4F0830110551F7AE01475E5F4F49
:10133000BE01635F7F4F81E026DE282FBFEFEB1AEF
:10134000FB0AD8CF222311F0215004C0898D8F5F72
:10135000898F27E0EAE0EE2E03E0498D6CE0CE01B4
:101360000D9652DE6996EAE00C948E30A9E1B0E069
:10137000ECEBF9E00C9471304BE09E012F5F3F4F96
:101380007901B901019645DC182F85E380938C0221
:1013900096E190938B0290938A0280938902612F49
:1013A000C701D9D1F701E10FF11D808399249394EE
:1013B000910E198E1D86870127E0AA24A394B12CD3
:1013C000802F8E19891508F04AC0C12CD12CF50147
:1013D0000C2C01C0EE0F0A94EAF7D8018C91AE01F3
:1013E000475E5F4FBE01635F7F4F8E23CCDD282FAA
:1013F000BFEFCB1ADB0A34E0C316D10441F7AE01CC
:10140000475E5F4FBE01635F7F4F81E0BCDD282FE9
:10141000B4E0CB2ED12CF5010C2C01C0EE0F0A94B8
:10142000EAF7D8018C91AE01475E5F4FBE01635F62
:101430007F4F8E23A8DD282FBFEFCB1ADB0A38E0C1
:10144000C316D10441F7AE01475E5F4FBE01635F33
:101450007F4F81E098DD282F0F5F1F4FB1CFAAE0AB
:10146000EA2E03E0498D6AE0CE010D96CDDD699646
:10147000EBE00C948D308F929F92AF92BF92DF92EF
:10148000EF92FF920F931F93CF93DF931092A802D6
:101490001092BD02FC012181220F220F220F338105
:1014A000231B57E0520F1092A90210E070E038E0C1
:1014B000D32ED20EFF24F39447E007E0E12CC7E0DF
:1014C000D0E0A1E0B0E0FD1409F47FC0FC01EE0D16
:1014D000F11D248130E0002E02C0359527950A9435
:1014E000E2F721703327E22F002311F0015002C0F0
:1014F000E39407E06B3471F4433009F04AC01111F2
:1015000007C0E1115FC01092A8027093BD0274C0C1
:1015100010E041C04F3F31F56634A9F4E72FF0E009
:10152000E755FD4FE0810E2EE295E0250E2EE69563
:10153000E695E025EF5FE1FB882480F8912C821688
:10154000930641F004C0653429F4E11103C01093FF
:10155000A802DBCF7F5FE72FF0E0E755FD4F108259
:1015600047E031C0EE2361F1663471F4E72FF0E01B
:10157000E755FD4FA0809D01042E01C0220F0A9463
:10158000EAF7A22AA0821CC0653439F06B34C1F49A
:1015900004C04F3FD1F2EE2399F0E72FF0E0E7557A
:1015A000FD4F9E01241B310947FD33955D0102C0AB
:1015B000AA0CBB1C2A95E2F795013081322B3083AF
:1015C000415001C011E0F3947ECF1093A8027093B4
:1015D000BD025F1588F4653431F44F3F21F47F5F1D
:1015E0007093BD0204C08091A8028111F8CF81E000
:1015F0009091BD02911101C080E0DF91CF911F91C8
:101600000F91FF90EF90DF90BF90AF909F908F90E1
:10161000089510926F00E091C0028CE1E89FF00104
:101620001124EF53FD4F108280910F088D7F80931E
:101630000F080895FC012181243108F0EACF33819D
:10164000662381F081E090E0032E01C0880F0A94A8
:10165000EAF7DF01A20FB11D14969C911497982B05
:1016600014969C93332319F031503383089587E007
:1016700083832F5F2183E20FF11D14820895DC0123
:101680001196EC911197F0E050E02C91CF01841B62
:10169000950B0B964797A0F430E070E0C901861BCC
:1016A000970B0B96479760F42E0F3F1F640F751F23
:1016B000261B370B255F3F4F81E02731310508F0AE
:1016C00080E00895219A29985298E9E6F0E0808117
:1016D000816080831092DD021092F902109215034E
:1016E00010920708089580913303811108C08091FA
:1016F0001008882319F010D80C941A0304C8089510
:10170000FC01218121110BC0809110087EDA40E29A
:1017100065E080910D0890910E0807DA02CA41E059
:1017200060E178E0019675DADECF442339F041506C
:10173000FB01E40FF11D9081890FF7CF089520E0A0
:10174000662339F06150FC01E60FF11D308123273B
:10175000F7CF822F0895A091A80240E035E020E065
:10176000662399F06150FC01E60FF11D5081752F41
:1017700072957F702727370FAA2311F0442319F0A1
:101780005F702527350F4F5FEBCF320F40E1349F5D
:10179000C0011124822B0895FC0132812381A08194
:1017A000B181A30FB11D8C9190E0022E02C09595DE
:1017B00087950A94E2F7817099274FEF420F438390
:1017C000211104C03F5F328327E023830895A2E004
:1017D000B0E0EDEEFBE00C9472307C01A12CB12C5A
:1017E000D12CCC24C394062F10E001501109A61669
:1017F000F0F4C7014A836983CFDF4A816981882376
:1018000091F0442349F098012A193B098C2D01C01D
:10181000880F2A95EAF706C08C2D0A2C01C0880F84
:101820000A94EAF7D82A8FEFA81AB80AE0CF8D2DCC
:101830002296EAE00C948E30A4E0B0E0E2E2FCE014
:101840000C9471301B8227E02C839C012C5F3F4F4E
:101850003A8329831092BD02FC012181338187E004
:1018600090E0831B9109F8E02F9F800D911D1124BA
:10187000853491050CF44EC0B12CA090BD02F5E06A
:10188000FA1558F10A2D10E040E068E0CE0101960B
:101890009EDF07551D4FF8018083982E092C9294E6
:1018A0009024092C969496949024CE01019674DF8E
:1018B000939491FACC24C0F8D12C90E0C816D906A4
:1018C00049F5CE01019668DF811124C0F8018081BD
:1018D000B826A394A092BD02D0CF40E068E0CE012C
:1018E000019675DF082F182F012E12951025012E55
:1018F000169516951025CE0101964EDF1F5F11FB40
:10190000EE24E0F8F12C282F30E0E216F30611F473
:1019100081E0B01280E02496EBE00C948D30A5E0DD
:10192000B0E0E5E9FCE00C947530FC011B8287E037
:101930008C83CF0104969A8389838081853009F056
:1019400051C02181338187E090E0831B910938E009
:10195000239F800D911D11248039910509F042C00B
:101960001092BD020FE010EF29E88091BD02E82E31
:10197000F12CDD24D394D80E41E068E08F3088F458
:10198000CE0101962D8323DF080F111DF701E755C6
:10199000FD4F2D812827208324E2280FD092BD02FD
:1019A000E4CFCE01019613DF080F111DD092BD02C6
:1019B000F701E755FD4F8095808341E068E0CE0157
:1019C000019605DF90E0982F8827081B190B41E04E
:1019D00068E0CE010196FBDE282F30E081E002179F
:1019E000130709F080E02596E7E00C949130A4E01D
:1019F000B0E0EDEFFCE00C9477301B8227E02C8305
:101A00009C012C5F3F4F3A832983FC0121812430C4
:101A1000A1F58381813089F51092BD028091BD02CC
:101A2000082F10E0FF24F394F80E41E0843098F47E
:101A3000811106C067E0CE010196C9DE806804C04E
:101A400068E0CE010196C3DEF801E755FD4F8083C3
:101A5000F092BD02E3CF67E0CE010196B8DEF80157
:101A6000E755FD4F880F8083F092BD029091A90247
:101A700092959F7081E09A3009F080E02496E5E02D
:101A80000C949330CF93DF93FC0181818330E9F490
:101A900083818730D1F480818830B9F41092BD02FF
:101AA00020E0822F90E0DC01A755BD4FEF01C80F69
:101AB000D91F8C818C9381E0820F833010F4282F02
:101AC000F0CF8093BD0281E001C080E0DF91CF9133
:101AD0000895FC01908180910F08993611F0933799
:101AE00051F4982F9370913011F4826006C080FFFA
:101AF00007C08B7F03C080FD03C0846080930F0804
:101B00000895A1E0B0E0E7E8FDE00C94763019829A
:101B100080918D028823B9F18091100887FF17C04A
:101B200084E30E948D028058803458F0803C58F441
:101B300090E08055910953E0959587955A95E1F786
:101B400003C080E001C08FE08F590E944105809161
:101B5000100883FF16C082E70E944105809110089B
:101B600084FF04C080918E020E94410586E60E9497
:101B700041058091100884FF04C080918D020E946D
:101B8000410510928D028091BE02882309F451C252
:101B9000469A0091BF022CE1029F800111240F534D
:101BA0001D4F8981811106C0C8016CDF882311F0A7
:101BB00083E789838981811106C0C801B0DE88234B
:101BC00011F083E589838981811139C066E4C801F8
:101BD00052DC8823A1F1F090BD02FA94F092BD028C
:101BE0004F2D69EA72E086E0A0DDEF2DF0E0E755C9
:101BF000FD4FE0808E1105C093E09F1510F486E440
:101C00001BC0282F30E02F5F3F4F6E2D70E026174E
:101C1000370739F423E02F1520F496E49983808365
:101C20000EC04F2D69EA72E08CE07FDD8E1106C098
:101C300083E08F1518F484E5898301C019828981B6
:101C4000811116C065E4C80116DC882389F08091F3
:101C5000BD0281508093BD02893051F469E089EA68
:101C600092E06DDD9091B202891302C085E4898310
:101C70008981811106C0C801DFDD882311F088E465
:101C800089838981811106C0C801B1DE882311F0E2
:101C900084E789838981811133C0F801438D609184
:101CA0008E02C8014A96EBDC682FC801C3DC6BE4E6
:101CB000C801E1DB8823B1F0F090BD02FA94F09204
:101CC000BD026F2D89EA92E046DDEF2DF0E09091A4
:101CD000A802E91BF109E755FD4F9081891302C065
:101CE0008BE48983898181110BC0F801838191E0A4
:101CF000980F9383873021F41382818181508183EF
:101D0000898181112DC0F8018181843049F5838159
:101D1000843031F54EE16CE3C8014896B0DC88238D
:101D2000F9F04EE160918E02C8014A96A8DC682F56
:101D3000C80180DC20E0822F90E0FC01E755FD4FD8
:101D4000D801A80FB91F14968C91808381E0820F6F
:101D5000853010F4282FEFCF8093BD0282E5898370
:101D60003981332309F4D9C02091100820FFD5C050
:101D700080910F088E7F8B7F80930F0821FD64C0B8
:101D80005091A702F090BD025F113DC040E04517A1
:101D9000C0F4842F90E061E0640FFC01ED56FD4F2C
:101DA000DC01A755BD4F70818C91781741F04093AD
:101DB000A70280910F088D7F80930F0804C0462FE3
:101DC000E6CF4093A70245131EC0409109085091E9
:101DD0000A0860910B0870910C0880918F02909115
:101DE0009002A0919102B0919202481B590B6A0B8C
:101DF0007B0B463251056105710528F480910F086F
:101E0000816080930F0840E04F1560F4842F90E0CC
:101E1000FC01ED56FD4FDC01A755BD4F8C91808331
:101E20004F5FF2CF4093A7028091090890910A0872
:101E3000A0910B08B0910C0880938F0290939002B0
:101E4000A0939102B09392023435E9F426FD1BC0B1
:101E50008091BD028530B8F08091AB028B3471F077
:101E6000893661F09DEA980F923040F08D578230AC
:101E700028F08091AC028077803729F480910F0898
:101E8000816080930F08B801CE01019622DE89811E
:101E9000843569F490912A0C992349F09091A90F07
:101EA000911105C090910F089B7F90930F0890911E
:101EB0000F0892FF32C00E9441058091A80288233A
:101EC00029F08091BD0281508093BD02F12CE091F8
:101ED000BD02FE1648F4EF2DF0E0E755FD4F80817E
:101EE0000E940506F394F3CF8091A802882351F055
:101EF000F0E0E755FD4F80818F7040E361E090E0B6
:101F00000E94CB058091100885FF05C084E30E94E4
:101F10008D020E9405060E9491058091100882FFA3
:101F20006FC080E70E944105F801808140E262E0D5
:101F300090E00E949505F801808D40E265E0F0E1B7
:101F40008F9FC00111240E949505F801818D40E208
:101F500065E0F0E18F9FC00111240E949505F80112
:101F6000828D40E265E0F0E18F9FC00111240E9464
:101F70009505F801838D40E265E0F0E18F9FC00197
:101F800011240E949505F801828140E263E090E00F
:101F90000E949505F801818140E263E090E00E9493
:101FA0009505F801238140E262E087E090E0821B22
:101FB00091090E94950580E20E94410580911008D8
:101FC00085FF08C084E30E948D020E94050680E21E
:101FD0000E944105F8018381873019F081818F5F6C
:101FE0008183F12CF8018181F81640F4F801EF0D9E
:101FF000F11D84810E940506F394F4CF0E9491059F
:10200000F80110828091BE0281508093BE028091BF
:10201000BF028F5F843019F08093BF0202C010921C
:10202000BF0246988981843521F489EA92E00E94B2
:10203000A5252196E6E00C9492301F920F920FB6E0
:102040000F9211240BB60F922F933F934F935F93F0
:102050006F937F938F939F93AF93BF93EF93FF9370
:1020600010926F008091100883FF03C08EE20E94DF
:1020700041058091C0029CE1899FF0011124EF533A
:10208000FD4F9081933018F09181923010F4C1DAB5
:1020900018C09091BE02933049F48091100882FFDD
:1020A000F6CF8CEA91E00E948405F1CF9F5F909378
:1020B000BE028F5F843019F08093C00202C010927C
:1020C000C002FF91EF91BF91AF919F918F917F914E
:1020D0006F915F914F913F912F910F900BBE0F9099
:1020E0000FBE0F901F9018959BED980F973150F4ED
:1020F00096EF960F9D3130F491E0681708F090E06C
:10210000892F089580E008951F920F920FB60F92C5
:1021100011240BB60F92FF920F931F932F933F93AF
:102120004F935F936F937F938F939F93AF93BF93DF
:10213000CF93DF93EF93FF938091E90F882321F0F2
:1021400082E08093E90F63C18091200C823021F4FA
:1021500083E08093200C5BC1009184001091850086
:1021600064E0169507956A95E1F7C091C0029CE17D
:10217000C99FE0011124CF53DD4F9881943031F491
:102180000E3208F444C10F3448F0B6C0953031F433
:10219000073108F43CC1083208F0AEC04A990DC0BE
:1021A0009450923038F461E0CE0144DA1092850008
:1021B0001092840000938E022AC180918E02081B27
:1021C00000938D02109285001092840098819830BF
:1021D00071F42A8121110BC021E02A83888F8A8F14
:1021E000098F0B3B10F4000F01C006950B8F945024
:1021F000923020F460E0CE011DDA09C182E086BB96
:10220000F880F11011C090918E02953608F0FFC051
:1022100080918D02853608F0FAC0988F898F81E011
:102220008A8382E08883F3C010918D0282E0F812E5
:1022300073C000918E02412F602FCE0148961FDAA5
:102240006A818823F9F0488D50E09A01220F331FEC
:10225000240F351F200F311D35952795359527956E
:10226000288F298D30E0C901880F991F820F931F95
:10227000810F911D9595879595958795898F6F5FAE
:102280006A83C5C0643008F445C020EA3FE030935B
:102290008900209388008A818C3050F0888D298DA8
:1022A00030E0280F311D2536310524F084E027C0A9
:1022B0008A3088F0888D298D30E0280F311D253235
:1022C00031054CF485E0888328EE33E030938900B3
:1022D0002093880015C080911608882379F0612F1B
:1022E000802F02DF882351F0688D898DFDDE8823E1
:1022F00029F081E08093200C8CD989C083E0888309
:102300000A8F1B8F198287E08B831C8282E0809367
:102310006F007DC0188277CF98E0F91225C081E95F
:10232000810F8D3178F460E0CE0184D9288D30E0C2
:10233000C901880F991F820F931F20918E02820F6F
:10234000911D4EC0173E08F462C061E0CE0172D903
:102350002A8D30E0C901880F991F820F931F2091A9
:102360008E02820F911D15C000918E02412F602FA9
:10237000CE014A9684D9882301F161E0CE015AD971
:102380002A8D30E0C901880F991F820F931F800F9B
:10239000911D95958795959587958A8F2B8D30E022
:1023A000C901880F991F820F931F810F911D959569
:1023B0008795959587958B8F2AC0412F602FCE01E9
:1023C00048965DD9882301F160E0CE0133D9288D8C
:1023D00030E0C901880F991F820F931F800F911D54
:1023E0009595879595958795888F298D30E0C901BA
:1023F000880F991F820F931F810F911D95958795C7
:1024000095958795898F03C087E0F81275CFFF9166
:10241000EF91DF91CF91BF91AF919F918F917F917C
:102420006F915F914F913F912F911F910F91FF906D
:102430000F900BBE0F900FBE0F901F901895E0915C
:10244000C0028CE1E89FF0011124EF53FD4F808121
:10245000811107C081E09091D80F9F3F19F480E06F
:10246000089581E0089580E690E00E9469068093D7
:10247000160881E690E00E94690680932A0C882362
:1024800021F081E2809310082EC90895299A0C94B6
:10249000CC0429980C94CC04A7E0B0E0E2E5F2E18A
:1024A0000C94753090911D08943559F42091230CAB
:1024B0003091240C2F5F3F4F3093240C2093230C3A
:1024C0003EC0963459F42091210C3091220C2F5F9C
:1024D0003F4F3093220C2093210C31C0953459F496
:1024E00020911308309114082F5F3F4F3093140848
:1024F0002093130824C09B3459F42091260C30916A
:10250000270C2F5F3F4F3093270C2093260C17C0CA
:10251000983459F42091280C3091290C2F5F3F4FAB
:102520003093290C2093280C0AC020911108309177
:1025300012082F5F3F4F309312082093110895E740
:102540009983882399F0BE016E5F7F4F80912A0C9A
:102550000E945106BE016C5F7F4F809116080E9459
:10256000510685E58E8386E0D82E02C0DD24D39403
:102570000E948C030E94080316E080E891E086DF49
:1025800080E093E086DF1150C1F780E093E07EDFCA
:1025900080E891E07EDF80E891E078DF299887E3AA
:1025A00090E00E94AA0283E00E94D1042C988FE759
:1025B0000E94330280911B088D0D0E943302CE01D0
:1025C00001967C018C01F80181918F010E943302F8
:1025D000802F8E198D15B8F380911B0890911C08DF
:1025E000892B39F087E198E00E94A3070E9433020B
:1025F000F3CF2C9A0E94080387E198E00E947D07A0
:1026000015E18AE30E948D028F7731F0115021F09D
:1026100081E00E94D104F5CF66D82796E7E00C94BC
:102620009130CF93DF93EC018981811107C08091B4
:1026300016080E94050680912A0C13C08436A1F466
:102640008091090890910A08A0910B08B0910C089C
:1026500040E364E00E94CB058EE20E944105809138
:102660001F0C0E9405064DC0833709F04DC040E3A2
:1026700061E08091230C9091240C0E94CB058EE2A6
:102680000E94410540E361E08091210C9091220C71
:102690000E94CB058EE20E94410540E361E08091FB
:1026A0001308909114080E94CB058EE20E94410508
:1026B00040E361E08091260C9091270C0E94CB05AD
:1026C0008EE20E94410540E361E08091280C9091E8
:1026D000290C0E94CB058EE20E94410540E361E097
:1026E00080911108909112080E94CB058EE20E9401
:1026F000410540E361E080911D0C90911E0C0E9409
:10270000CB050E9491052CC08936D9F441E066E1E1
:1027100078E0CE0102960E9409066091160880E6D4
:1027200090E00E94640641E06AE27CE0CE010496FB
:102730000E94090660912A0C81E690E00E946406DE
:102740000FC087E198E00E947D072196699166237A
:1027500029F087E198E00E948507F8CF80E09CDEB1
:10276000DF91CF910895A1E0B0E0E9EBF3E10C94A3
:1027700074308091200C882309F48FC0C090090820
:10278000D0900A08E0900B08F0900C08833009F014
:102790006AC08FE30E948D02182F8630C8F080EF48
:1027A00093E10E947D072C988FEF0E94330280E016
:1027B0000E943302082F115049F080E00E9433023A
:1027C000682F80EF93E10E948507F5CF2C9A01C016
:1027D00000E00E94730B1092200C053709F05DC0D9
:1027E00041E0BE016F5F7F4F86EF93E10E940906D3
:1027F0000197A1F599818091160898132FC08091B7
:10280000FA13853581F48091F4139091F513892B97
:1028100039F080EF93E10E94A3070E944105F3CFB6
:102820000E9491053AC08091F4139091F51304979A
:102830009093F5138093F41384E090E09093F31356
:102840008093F2136AE080EF93E10E948507E091A4
:102850000508F091060888E009951FC080EF93E114
:102860000E947D071AC0823059F4809115089C2D72
:10287000981B983090F00E94730B1092200C0DC0A2
:10288000813059F487E390E00E94AA020E941A0363
:1028900082E08093200CC09215082196E8E00C9409
:1028A0009030CDDD882361F083E08093250C80910A
:1028B0001D0C90911E0C019690931E0C80931D0C84
:1028C0008091250C81508093250C882321F083E092
:1028D00080931F0C089581E0DFCDCF93DF93E898BC
:1028E000249A2C9A8EE190E00E94CC042C988EE1E0
:1028F00090E00E94CC042C9A8DE290E00E94CC04DF
:1029000080E30E94A60284E690E00E94CC04C3ED1E
:10291000D1E0FE0131966491FE0184910E949402FF
:102920002296F2E0C530DF07A1F7809132038111D2
:1029300007C083E30E94A60284E00E94D1040FC076
:10294000CDEBD1E0FE0131966491FE0184910E94AD
:1029500094022296F1E0C33DDF07A1F7EACF84E3BA
:102960000E94A60285E30E948D028D30C1F7DF919F
:10297000CF910895A2E3B0E0E0ECF4E10C9478305C
:1029800080913103882309F4A1C04A9B8AC08FE358
:102990000E948D028F778983823368F08AE30E94D8
:1029A000A60286E30E94A6028DE30E94A60284E3AB
:1029B0000E94A6028BC02C988FEF0E94330210E079
:1029C0008981181760F480E00E943302E2E0F0E0B1
:1029D000EC0FFD1FE10FF11D80831F5FF1CF80E041
:1029E0000E943302082F80E00E9433022C9A84E375
:1029F0000E94A60285E30E948D028D30C1F72A81D4
:102A000096E792279A8392E08981E92FF0E0981760
:102A100068F441E050E04C0F5D1FE40FF51F30817A
:102A20002452232720839F5F232FEECF81E090E065
:102A30008C0F9D1FE80FF91F90818B819827908341
:102A40008091100884FF12C081E60E94410510E0C9
:102A50008981811730F1E1E0F0E0EC0FFD1FE10F1B
:102A6000F11D80810E9441051F5FF2CF81E40E9429
:102A7000410510E08981811758F0E1E0F0E0EC0FAA
:102A8000FD1FE10FF11D80810E9405061F5FF2CF3F
:102A90008091100885FF03C0802F0E9405060E94C8
:102AA000910585E30E948D02813029F0813161F426
:102AB0008AE30E94A60286E30E94A6028DE30E949A
:102AC000A60284E30E94A6020E94D303E296E4E0F9
:102AD0000C9494308F929F92AF92BF92DF92EF92BC
:102AE000FF920F931F93CF93DF93CDB7DEB7EA9793
:102AF0000FB6F894DEBF0FBECDBF41E38E010F5F6E
:102B00001F4FB80101960E9409067C019927019781
:102B1000298130E08217930709F0A3C08091310327
:102B2000811104C0DADE83E00E94D104DB808A8157
:102B300096E789278A8322E03981822F90E0F80185
:102B4000E80FF91F231750F4DE01A80FB91F8C916D
:102B500084529081892780832F5FEECF80818D25DD
:102B60008083CE01C7960E94350485E30E94A602A9
:102B700085E30E948D02833181F1CE01C3960E94CC
:102B800035044BA95CA96DA97EA98FA998ADA9AD03
:102B9000BAAD84179507A607B70760F44A015B0131
:102BA000881A990AAA0ABB0A2DEB82169104A1047D
:102BB000B10470F4481759076A077B0770F484540E
:102BC0009F4FAF4FBF4F84179507A607B70728F44D
:102BD00083EB91E00E94840527C085E30E948D026B
:102BE000833119F6D4FE08C088E70E94D10488E733
:102BF0000E94D10488E701C08AE00E94D1042C9889
:102C00008FE70E94330258018A2D801B8E1530F405
:102C1000F50181915F010E943302F6CF2C9A85E382
:102C20000E948D028331D9F385E30E948D028631A3
:102C300049F48BE30E94A60286E30E94A6028DE37C
:102C40000E94A60280913103882349F084E30E9408
:102C5000A60285E30E948D028D30C1F702C00E945A
:102C6000730BEA960FB6F894DEBF0FBECDBFDF91AF
:102C7000CF911F910F91FF90EF90DF90BF90AF9099
:102C80009F908F900895FC012181223731F02235E9
:102C900059F481E08093320302C0109232031DDEAA
:102CA00081E0809331030895233711F4019612CF08
:102CB0001092310308958F929F92BF92CF92DF922C
:102CC000EF92FF920F931F93CF93DF931F92CDB795
:102CD000DEB7D82EC62E7A0189012C988FEF998302
:102CE0000E943302BD2C8D2C9981992E882D8B1931
:102CF0008C1538F480E00E943302F40181934F0177
:102D0000F5CFE114F10469F080E00E943302F7018D
:102D100080830115110529F080E00E943302F8013B
:102D200080832C9A0F90DF91CF911F910F91FF908C
:102D3000EF90DF90CF90BF909F908F900895CF93AA
:102D4000882331F01092360C86E30E94A60207C059
:102D500085E30E948D028D30A9F780E039C085E3BC
:102D60000E948D02C82F8130D1F78BE30E94A6020A
:102D70008AE30E94A60210922B0C10922D0C109246
:102D80002C0C10922F0C10922E0C2AE53DE0309363
:102D9000310C2093300C1092320CC093330C1092F3
:102DA000340C809133038093350C60E083E00E9403
:102DB000940262E088E00E94940284E30E94A602EA
:102DC00085E30E948D028D30D9F781E08093360C27
:102DD000CF9108950F931F93CF93DF93182F062F52
:102DE000219852981092330310923403E898249A51
:102DF0002C9A8EE190E00E94CC042C988EE190E019
:102E00000E94CC042C9A8DE290E00E94CC0480E3D6
:102E10000E94A60284E690E00E94CC04113031F0BA
:102E2000123009F06DC0C9E1D2E022C0C6E6D2E09E
:102E3000FE018491813420F0013009F049C01DC0A9
:102E4000FE0131966491FE0184910E9494022296C3
:102E5000F3E0CE32DF0761F7EFCF31966491FE01E8
:102E600084910E9494022296F2E0C13EDF0721F392
:102E7000FE018491813488F3DFCF60E087E10E9416
:102E8000940267E083E00E94940264E584E01130DC
:102E900029F40E94940266E785E010C00E94940223
:102EA0006DE385E00E94940260E585E10E94940252
:102EB0006BE580E10E94940268EF81E10E94940238
:102EC00062E082E00E9494026EE280E00E9494023E
:102ED000109333030093340383E30E94A6028CE033
:102EE000EBE2FCE0DF011D928A95E9F786E0E2EA79
:102EF000FFE0DF011D928A95E9F784E00E94D1048A
:102F0000DF91CF911F910F910895CF92DF92FF92A1
:102F10000F931F93CF93DF931F92CDB7DEB7182F78
:102F2000062F2C988FE799830E943302F12EC12E31
:102F30009981D92E8C2D8F19801730F4F60181914B
:102F40006F010E943302F6CF2C9A81E00F90DF913F
:102F5000CF911F910F91FF90DF90CF9008958DE357
:102F60000C94A602A4E0B0E0E8EBF7E10C94793011
:102F700090913403923009F009C180913303882382
:102F800009F404C18091360C813049F030F0823070
:102F900059F0833009F472C0A2C081E0F6C04A9BA8
:102FA0009EC09093360C9BC0199B99C020E030E0E6
:102FB00040E050E063E08091300C9091310C7BDE7A
:102FC0002091350C8091300C9091310C213071F4AE
:102FD000BE016F5F7F4F38D28111D3C0898180934A
:102FE0002B0C13D3AC0160E081E00EC040E0BE01C9
:102FF0006F5F7F4FB0D28111C4C0898180932B0C49
:1030000004D3AC0160E080E016D390932D0C809344
:103010002C0C60912C0C70912D0C693482E0780797
:1030200008F0AFC086E06F3F710509F050F40E94D0
:10303000940260E088E00E94940281E08093320C68
:1030400002C00E9494028091300C9091310C039642
:103050009093310C8093300C80912C0C90912D0C1E
:10306000039790932F0C80932E0C1092330C83E0D7
:103070008093360C67E00E94940231C0199B2FC0E8
:1030800080912E0C90912F0C8F3F910509F058F4F0
:103090008091320C811107C060E088E00E949402A8
:1030A00081E08093320C20E030E040E050E06FE1BE
:1030B0008091300C9091310CFEDD80912E0C90911E
:1030C0002F0C4F9790932F0C80932E0C8091300CE7
:1030D0009091310C4F969093310C8093300C4A991B
:1030E00053C08091360C823008F44EC01C821B8283
:1030F0009E012D5F3F4FAE014C5F5F4F60912E0CE4
:103100008091300C9091310CD6DD81E08093340CAD
:103110008091350C813051F480912B0C76D2AC012A
:1031200067E37CE08AE59DE0F4D209C080912B0C36
:103130006CD2AC0167E37CE08AE59DE060D3892B2B
:1031400001F582E60E94410510E08091370C5DD2C6
:10315000212F30E02817390740F4F901E95CF34FDB
:1031600080810E9405061F5FF0CF8091100885FFC7
:1031700006C08B810E9405068C810E9405060E9474
:1031800091051092360C02C080E0D9DD2496E3E070
:103190000C949530A0E0B0E0E0EDF8E10C947430D0
:1031A0007C018B01C42EFC0180812FD2EC019C019B
:1031B000215031092232314008F0C9C080913403D6
:1031C000823019F4D090330301C0D12C61E08C2DF2
:1031D00001DE81E0AE01B701C81206C0C8013FD2CE
:1031E000AE0161E081E005C0C80161D2AE0161E0DD
:1031F00080E021D29093A30F8093A20FB0DE80775E
:1032000011F086E361C08BE30E94A6021093A50F24
:103210000093A40F1092A70F6091A20F7091A30FBB
:103220006F3F710509F058F486E00E94940260E057
:1032300088E00E94940281E08093A60F0AC077275D
:1032400086E00E94940262E088E00E94940210925C
:10325000A60FC091A20FD091A30FC134D10510F0D9
:10326000C0E4D0E06C2F8091A40F9091A50F4DDEAB
:103270008091A40F9091A50F8C0F9D1F9093A50F87
:103280008093A40F2091A20F3091A30F2C1B3D0B14
:103290003093A30F2093A20F232B19F481E0809386
:1032A000A70F85E30E94A60211E003C0203C310570
:1032B000C0F18091A70F81113FC019990AC04FDE5C
:1032C00080778037B1F78BE30E94A60282E090E01E
:1032D00043C0C091A20FD091A30FC132D10510F00D
:1032E000C0E2D0E06C2F8091A40F9091A50F0DDE6D
:1032F0002091A40F3091A50F2C0F3D1F3093A50FE7
:103300002093A40F2091A20F3091A30F2C1B3D0BF3
:103310003093A30F2093A20F2115310539F6109396
:10332000A70F8091A60F8111C4CF60E088E00E94B2
:1033300094021093A60FBDCF85E30E948D028130C9
:10334000D9F7DD2039F062E08D2D44DD03C081E046
:1033500090E002C080E090E0CDB7DEB7E8E00C94EA
:1033600090301F93CF93DF93EC018981823789F4EA
:103370008A818823C9F1833719F462E081E004C0AF
:10338000843721F462E082E025DD2EC060E080E039
:10339000FBCF833749F510E0612F70E09B01220FCE
:1033A000331FC90103968C0F9D1FFC0140814423EC
:1033B00069F0FE01E20FF31F2481222339F0695CDA
:1033C000734F41E00E9409061F5FE6CF8A81833771
:1033D00011F441E003C0843701F542E06AE57DE085
:1033E00087E39CE0D7DE19C080913403823079F402
:1033F00080913303813029F0823031F48DE092E006
:1034000008C083E192E005C089E092E002C085E057
:1034100092E00E9484050E949105DF91CF911F9157
:103420000895DC01EC91AE2FA295AF70B0E0A05EE4
:10343000BE4F8C91DB018C93EF70F0E0E05EFE4FAD
:10344000808111968C930895CF93DF93EC01A8812E
:10345000E981CA2FC295CF70D0E0C05FDE4F4881AE
:10346000AF70B0E0A05FBE4F2C91AE2FA295AF70B1
:10347000B0E0A05FBE4F8C91EF70F0E0E05FFE4FD8
:10348000908151E02F3F09F050E031E04F3F09F0CB
:1034900030E0532B31E08F3F09F030E0352BA9F4B9
:1034A0009F3F99F0D0E44D9FA0011124E0E12E9FB1
:1034B00090011124242B292BF4E08F9FC0011124AB
:1034C000282BEB01288380E001C081E0DF91CF91C0
:1034D00008951F93CF93DF93FB0141110FC0EC01BF
:1034E000A981CA2FCF70D0E0C059DE4F1881A295B4
:1034F000AF70B0E0A059BE4F5C9101C054E1EC0147
:10350000A881CA2FCF70D0E0C059DE4F2881A29584
:10351000AF70B0E0A059BE4F6C91D4E06D9FB00188
:103520001124922F92959F70962B9083952F9695AC
:10353000969580E1289F90011124922B918341114F
:1035400006C0C0E45C9FC0011124812B8283DF91FF
:10355000CF911F910895DC0111969C911197411113
:1035600018C012968C911297E82FEF73F0E0E05D8F
:10357000FE4F5081E92FEF7024E0E29FF00111240B
:103580008295869586958370E82BE05DFE4F80815D
:1035900002C080E050E02C91E22FE37030E1E39F25
:1035A000F001112492959F70E92BE05DFE4F908110
:1035B00026952695E22FF0E0E05DFE4F2081E1E0C8
:1035C0009F3F09F0E0E031E02F3F09F030E0E32BCE
:1035D00031E05F3F09F030E03E2B99F48F3F89F0F6
:1035E000E0E12E9F90011124292BFB012083411142
:1035F0000AC0F0E18F9FC0011124852BFB0181835C
:1036000002C081E0089580E00895482F50E08A319B
:1036100050F09A012A51310984E0359527958A9511
:10362000E1F72D5F01C022E0CA010196820F911DD2
:10363000820F911D0895882331F0CA01611101960E
:10364000880F991F0895CA01880F991F840F951F2D
:1036500096958795611101C040FD01960895A0E0FF
:10366000B0E0E5E3FBE10C9472306A018C0186E97D
:10367000F80181938F01EB017F015B01A40EB51E60
:10368000CA15DB0541F0B701CE01CBDE2196F2E091
:10369000EF0EF11CF5CFF601EE0FFF1FE00FF11F4B
:1036A00085E58083CDB7DEB7EAE00C948E30A0E0EC
:1036B000B0E0EDE5FBE10C947330EC017B018A0195
:1036C00075E5B72E01151105F9F00130110529F442
:1036D00041E0BE01C701FDDE0CC0CE0103966C01C6
:1036E00040E0BE01C7010230110531F4F2DEBB82B9
:1036F000E60100E010E0E6CFECDEE60192E0E90E44
:10370000F11C02501109DECFCDB7DEB7E9E00C9411
:103710008F30A0E0B0E0EFE8FBE10C946C304C019E
:10372000EB016A01A12CB12C00E010E0612C712C9E
:10373000E12CF12CA2E14A2E512CC114D10409F440
:1037400051C0BE01C40180DE81114FC082E0C816A5
:10375000D104A1F08AE0E816F10460F0C7010A97ED
:10376000B2010E94433031E020E0892B09F030E0C3
:10377000032F122FA114B10499F005C0A114B104B4
:1037800091F001E010E0609470947724888190E0DB
:103790006816790669F5A12CB12C612C712C17C023
:1037A0000115110581F0930120953095232F3327C2
:1037B000888190E028173907D9F4AA24A394B12C62
:1037C00000E010E004C06881C301A1D03C0181E0A9
:1037D000C81AD1088FEFE81AF80A82E0880E911C07
:1037E0002196ABCF80E090E005C081E090E002C080
:1037F00082E090E0CDB7DEB7E0E10C948830A0E045
:10380000B0E0E5E0FCE10C946E307C01EB013A01A4
:1038100000E010E0C12CD12C92E1892E912C611492
:10382000710409F46DC081E068167104D1F441E0BF
:10383000BE01C70190DE882319F081E090E062C0EC
:1038400056018FEFA81AB80AC8018095909599275C
:10385000288130E08217930709F44EC082E090E09F
:1038600051C040E0BE01C70176DE8111E6CF82E0A3
:10387000681A7108560182E0A80EB11C6114710427
:1038800059F08BE0A816B104D0F0C6010A97B40134
:103890000E944330892B99F40095109598013327A5
:1038A000898190E028173907C9F6012F11278881EF
:1038B00090E00817190791F600E010E018C0688141
:1038C00081E06816710471F4C80121D08C019C015B
:1038D00020953095232F3327898190E028173907C9
:1038E00031F0BCCFC80113D0698111D08C0183E0C5
:1038F000E80EF11C229602C0612C712C65018FCF5D
:1039000080E090E0CDB7DEB7EEE00C948A3078E04E
:10391000AC0144275078452F5527262F207830E0DA
:10392000880F991F4217530721F025E682272DE3C0
:103930009227660F715061F70895CF93DF93E8984F
:10394000249A2C9A8EE190E00E94CC042C988EE16F
:1039500090E00E94CC042C9A8DE290E00E94CC046E
:1039600080E30E94A60284E690E00E94CC04C5ECAD
:10397000D2E0FE018491813440F083E30E94A602EC
:1039800084E00E94D104CFEF0DC0FE013196649116
:10399000FE0184910E9494022296F3E0C130DF0779
:1039A00041F7EBCF84E30E94A6028AE090E00E94F8
:1039B000CC04C150B9F781E080933503DF91CF91FA
:1039C0000895EF92FF920F931F93CF93DF93EC0133
:1039D0008B01F88080913503811101C0AEDF85E352
:1039E0000E948D028D3071F08AE50E94410585E4C8
:1039F0000E94410582E50E94410582E50E94410541
:103A000081E34CC08091360390913703A091380335
:103A1000B0913903892B8A2B8B2B51F50E94080317
:103A200085E30E948D02833109F443C08AE50E9438
:103A3000410585E40E94410582E50E94410582E539
:103A40000E94410582E32AC08091090890910A08EA
:103A5000A0910B08B0910C084F5F5F4F6F4F7F4FE5
:103A600084179507A607B707C9F681E00E94D1041D
:103A70008091090890910A08A0910B08B0910C0858
:103A800040913603509137036091380370913903A8
:103A900084179507A607B707B9F6E7CF0E94410537
:103AA00085E30E948D020E9405060E94910545DF74
:103AB00065C0012B49F42C988FE70E943302EC2E4D
:103AC0000C2F1D2FF3940BC00AE010E084E60E9437
:103AD000D1040150110901151105C1F7ECCF802F58
:103AE0008E198F1530F4F80181918F010E943302F5
:103AF000F6CF2C9AC8EC85E30E948D028D30E9F454
:103B000085E30E948D028D3019F18AE50E944105FE
:103B100085E40E94410582E50E94410582E50E94FC
:103B2000410583E30E94410585E30E948D020E94C6
:103B300005060E94910501DF0BC085E30E948D02FE
:103B40008331F1F681E00E94D104C150A1F6D8CFB3
:103B500080913503811102C00E94730B8091090886
:103B600090910A08A0910B08B0910C08809336033D
:103B700090933703A0933803B0933903CDB7DEB7E2
:103B8000E6E00C949230ACE0B0E0E9ECFDE10C949E
:103B90007930FC018BE0898381818A831B8282E0FA
:103BA0008C8387818D8380858E8381858F838481BB
:103BB00088878581898786818A871B861C8684E120
:103BC0000E94D10460E070E0CE010196FADE8AE541
:103BD0000E94410510E0812F90E0298130E02817F4
:103BE00039075CF0E1E0F0E0EC0FFD1FE80FF91F92
:103BF00080810E9405061F5FEECF8091100885FF2F
:103C000003C080E00E9405060E9491052C96E3E027
:103C10000C949530CF93DF93EC0180913D0381119B
:103C200008C090913E03911104C090913F039923E5
:103C3000A9F09B81903319F09F7E903479F49F8195
:103C400098130CC0988580913E03981307C09985FE
:103C500080913F03981302C0CE0195DF80913A0313
:103C6000811108C090913B03911104C090913C03D5
:103C70009923A9F098819B3091F49B81903479F439
:103C80009F8198130CC0988580913B03981307C0BF
:103C9000998580913C03981302C0CE0174DFDF91B7
:103CA000CF910895AEE1B0E0E8E5FEE10C94783004
:103CB00080913503882309F469C04A9B59C08FE37A
:103CC0000E948D028F778E3108F08DE189832C98C8
:103CD0008FEF0E94330210E08981181760F480E0B2
:103CE0000E943302E2E0F0E0EC0FFD1FE10FF11D56
:103CF00080831F5FF1CF80E00E943302082F80E0B5
:103D00000E9433022C9ACE01019684DF8091100824
:103D100084FF12C08AE70E94410510E08981811763
:103D2000A8F1E1E0F0E0EC0FFD1FE10FF11D808153
:103D30000E9441051F5FF2CF8AE50E94410510E015
:103D40008981811758F0E1E0F0E0EC0FFD1FE10FF1
:103D5000F11D80810E9405061F5FF2CF809110083F
:103D600085FF03C0802F0E9405060E9491050EC0AA
:103D700085E30E948D02813149F48AE30E94A60204
:103D800086E30E94A60284E30E94A6026E96E4E007
:103D90000C949430AEE1B0E0E0EDFEE10C947830AC
:103DA0008C01FC018181823711F4C7DD36C0833775
:103DB00011F0863601F54DE1BE016F5F7F4FC801FE
:103DC00002960E94090699270197298130E08217FF
:103DD000930729F083EB92E00E9484051EC061E006
:103DE00070E0F8018181833711F060E070E0CE016E
:103DF0000196E7DD12C0813621F443E06DE373E004
:103E000005C0873741F443E06AE373E0C8010296D6
:103E10000E94090602C0109235036E96E4E00C94ED
:103E20009430CF93DF93E898249A2C9A8EE190E017
:103E30000E94CC042C988EE190E00E94CC042C9A35
:103E40008DE290E00E94CC0480E30E94A60284E60A
:103E500090E00E94CC042C9880E40E943302C1E0E0
:103E6000D3E0FE0184910E9433022196F3E0CE302C
:103E7000DF07B9F7809101010E94330280910201AE
:103E80000E943302809103010E943302C0E0D0E01F
:103E9000FE01EF5EFC4F84910E9433022196C931EE
:103EA000D105B1F72C9A2C988EE70E9433028BE251
:103EB00090E0EC0121960E9469060E943302C33310
:103EC000D10511F0CE01F5CF2C9A83E30E94A60212
:103ED00081E00E94D10481E080930708DF91CF91B7
:103EE00008956F927F928F929F92AF92CF92EF92AE
:103EF000FF920F931F93CF93DF93EC018981843757
:103F000069F468E071E0CE0102960E94360640E254
:103F100060E0809108019091090112C0833709F097
:103F200091C18A81823789F464E071E0CE01039601
:103F30000E94360640E260E0809104019091050104
:103F40000E9495050E949105F1C1469A8091420315
:103F5000811116C080913103882329F081E080937C
:103F600041031092310380913503882329F081E0C9
:103F7000809340031092350354DF83E00E94D10404
:103F800086E30E94A6028AE30E94A6028BE30E94B7
:103F9000A6020E940803FE0101900020E9F70E2FFF
:103FA0000C1B0250C12CFAE09F2E7E0132E0E30E82
:103FB000F11CA5E0AA2EB8E28B2E8091040190910D
:103FC00005012C2D332727FD30952817390708F0D8
:103FD000FBC00132A1F4299A809108019091090156
:103FE0000E94CC0429988091060190910701FC0160
:103FF0009E9EC0019F9E900D11240E94CC0437010B
:1040000011E010170CF0B7C0F30181913F01299A1C
:10401000803309F046C0013201F58091060190918C
:1040200007010E94CC042998809106019091070114
:104030000E94CC04299A80910601909107010E9468
:10404000CC04299880910601909107019C01A29EC1
:10405000C001A39E900D11248AC080910801909107
:1040600009010E94CC0429988091080190910901CE
:104070009C01220F331F820F931F0E94CC04299AA8
:1040800080910801909109010E94CC0429988091A7
:104090000801909109019C01220F331F820F931F89
:1040A00066C0813329F5013291F480910601909127
:1040B00007010E94CC042998809106019091070184
:1040C000FC01AE9EC001AF9E900D11241EC08091D8
:1040D0000801909109019C01220F331F820F931F49
:1040E0000E94CC04299880910801909109012CC06C
:1040F0000132D1F480910601909107010E94CC0415
:10410000299880910601909107010E94CC04299A78
:1041100080910601909107010E94CC04299880911A
:1041200006019091070123C0809108019091090137
:104130000E94CC04299880910801909109019C016A
:10414000220F331F820F931F0E94CC04299A809163
:104150000801909109019C01220F331F820F931FC8
:104160000E94CC04299880910801909109010E9435
:10417000CC041F5F46CF299A0132A1F48091060139
:10418000909107010E94CC0429988091060190919A
:1041900007019C01829EC001839E900D11240E9404
:1041A000CC0410C080910801909109010E94CC04B8
:1041B00029981FE180910801909109010E94CC0487
:1041C0001150C1F7C394F9CE80914203882341F086
:1041D0008091100881110FC086E30E94A60218C0CA
:1041E00080914103882351F0109241030E946D1485
:1041F00081E0809331030E941A030AC0809140033A
:10420000882321F01092400398DB02C00E94730BB8
:10421000469889E60E94410583E70E94410511E026
:1042200010170CF08FCEFE01E10FF11D17FDFA956E
:104230008181803319F0813309F086E40E944105C1
:104240001F5FEECF8237B9F480913103882329F0C4
:1042500081E08093410310923103809135038823DC
:1042600029F081E08093400310923503DADD81E08C
:10427000809342035BC0863651F58A81803351F4C6
:1042800080E18093010180EB8093020181E78093BC
:10429000030107C043E061E071E0CE0102960E9495
:1042A000090689E60E94410586E60E9441058AE3E7
:1042B0000E944105809101010E9405068091020142
:1042C0000E940506809103010E9405063BCE8837B7
:1042D00029F580914103882341F0109241030E9407
:1042E0006D1481E08093310310C0809140038823D6
:1042F00021F01092400321DB0EC082E090E00E948A
:10430000AA0280911008882319F00E941A0303C0A2
:1043100086E30E94A6021092420308C0833631F45D
:1043200068E071E0CE0101960E943606DF91CF91E0
:104330001F910F91FF90EF90CF90AF909F908F9033
:104340007F906F9008951092C30F1092FE0383E048
:10435000809348038FEF8093D80F0895E9E4F3E04A
:104360002081211105C0892BB1F080E090E00895F3
:10437000B3E0E73FFB07B8F7009751F04181DC015C
:104380003C91431305C0428111963C91431751F073
:10439000E20FF11DE5CF33E0E73FF30719F010F02E
:1043A000E7EFF3E0CF01089594E0899FF001112435
:1043B000E752F04F80818F3F91F0809343038181DA
:1043C00080934403828180934503838180934603D5
:1043D00021E04CE064E083E493E00C9487080895C6
:1043E00088EF93E0BBDF009799F020914803FC0130
:1043F0003081231768F4E20FF11D80818093FA0366
:1044000089E78093FB0381818093FC0381E0089519
:1044100080E00895EF92FF921F93CF93DF931F9256
:10442000CDB7DEB7182F8091100886FF18C084E53D
:1044300099830E944105E12E9981F92E15E0F7013B
:1044400081917F010E9405061150C9F780911008E3
:1044500085FF03C08AEF0E9405060E9491050F9018
:10446000DF91CF911F91FF90EF90089586E30E9416
:10447000A6028091FA03833511F48BE901C08BE425
:104480000E94D10421E04CE065E088EF93E00E94B7
:1044900087080E941A0388EF93E0BCCFE7DF809182
:1044A000FA03893631F081E08093F70389E2809343
:1044B000D80F0895CF9385E390E00E94690680931A
:1044C000A90F86E390E00E9469068093D70FCFEF93
:1044D000C093C70FC093C90FC093CB0FC093CD0F2C
:1044E000C093CF0FC093D10FC093D30FC093D50FFC
:1044F0002ADF1092490381E08093A80FC093D90F5F
:104500008FEF9FEF9093AC0F8093AB0F1092AE0F95
:104510001092AD0F1092B00F1092AF0FC093DD0F3D
:104520009093B20F8093B10F1092B40F1092B30F0B
:104530001092B60F1092B50FC093E10F9093B80F81
:104540008093B70F1092BA0F1092B90F1092BC0F50
:104550001092BB0FC093E50F9093BE0F8093BD0FD9
:104560001092C00F1092BF0F1092C20F1092C10F85
:10457000CF910895ACE0B0E0E0ECF2E20C9473303F
:104580006C018C010F5F1F4F45E0BE016F5F7F4FD5
:10459000C8010E940906843008F0F3C09981913067
:1045A000A9F4833061F46A8185E390E00E94640697
:1045B0006B8186E390E00E9464067CDFF9C1809104
:1045C000A90F0E9405068091D70F9AC0923009F07A
:1045D00051C0813039F081E09A81913009F080E05A
:1045E000F82E02C0FF24F39480914903811104C086
:1045F0008AE293E00E94840509E413E0F8018081D7
:10460000882309F4BBC0F3E0073F1F0708F0B6C0DA
:1046100083E00934180719F080E20E944105F8018F
:1046200081810E940506F80182810E940506FF2013
:10463000E1F08AE30E94410593E0F8018081981738
:10464000A0F4943038F090FF05C08CE29C870E9463
:1046500041059C85EE24E394E90EF801E90FF11D74
:1046600080810E9405069E2DE8CFF8018081080F09
:10467000111DC4CF933049F480E090E06FDE89547F
:1046800093409EEA981B892F3BC0903171F507EC4F
:104690001FE088ECE82E8FE0F82EC12CD12CF80119
:1046A00080818F3FA1F0DD2019F080E20E9441055A
:1046B0008C2D0E9405068AE30E944105F801808145
:1046C0000E940506F70180810E940506D3940E5FC3
:1046D0001F4FC394F2E0EF0EF11C88E0C812DFCF49
:1046E000D1104CC088E393E047C0913161F48091D0
:1046F000C50F9091C60F6DE770E00E944330862F82
:104700000E9405063BC09231C9F519EDE12E1FE06C
:10471000F12E0CED1FE0C12CD12CF70180818F3FD1
:10472000F1F0DD2019F080E20E9441058C2D0E94FD
:1047300005068AE30E944105F70180810E94050673
:10474000F801329780810E940506F8013197808137
:104750000E940506F80180810E940506D394F4E0CA
:10476000EF0EF11CC3940C5F1F4F84E0C812D5CF2D
:10477000D11004C084E393E00E9484050E94910557
:1047800017C144E0BE01695F7F4FC8010E9409065E
:104790004F81493608F477C07A85588569857C3021
:1047A00009F04BC020E030E080E090E0F901E752F2
:1047B000F04F708174131CC0A181A51319C0A28190
:1047C000A61316C02CE023839C01220F331F280F51
:1047D000391FF901EE0FFF1FE555F04F11821082CE
:1047E000F901EE0FFF1FE355F04F11821082C2C096
:1047F0007F3FD9F44083518362832CE023839C0163
:10480000220F331F280F391FF901EE0FFF1FE55547
:10481000F04F11821082F901EE0FFF1FE355F04FA8
:10482000118210821092A80FA5C001962C5F3F4FF5
:104830002031310509F0BACFBBC080E090E020E024
:1048400030E0FC01E752F04FA081A41315C0A18114
:10485000A51312C0A281A6130FC07383F901EE0F36
:10486000FF1FE20FF31FEE0FFF1FE355F04F81E034
:1048700090E0918380839CC02F5F3F4F04968031EE
:104880009105F9F695C0E9818091A90FE81758F1D3
:1048900090E0F0E09C01295F3F4F2E173F071CF18D
:1048A0003A812091D70F32131EC02C812F3231F460
:1048B00042E06CE0C6010E94F4087AC03D812C32CF
:1048C00049F43093C40F81E090E09093C60F809339
:1048D000C50F6EC0E81BF90BEE0FF0E0E953F04F87
:1048E0002083318365C080E090E038DD7C01F801F1
:1048F00001900020E9F73197E01BF10BF695E79561
:10490000BB24B394BE0EC7018B0D911D89549340F7
:104910008F3A91050CF048C0F701B1928F0121E068
:10492000822F880F81502B15D8F441E0B801F60191
:10493000E80FF11DCF012C870E9409062C8523303A
:1049400058F020FD09C0D80111978C91843621F4CC
:10495000F80180818093AA0F2F5F0F5F1F4FE0CF78
:10496000F7EFEF16F3E0FF0618F5F701E20FF11D80
:1049700010821EC022E04CE064E0CE0107960E9447
:1049800087088FE08A8722E04CE064E0CE0107963A
:104990000E94870882E08A8722E04CE064E0CE0132
:1049A00007960E94870804C08EE293E00E94840567
:1049B0002C96E9E00C948F300F931F93CF93DF93E5
:1049C0009091A80F91114FC093E0899F800111240D
:1049D000F801EE0FFF1FE555F04F94E0899FD001DD
:1049E0001124A752B04F12969C91977040E850E066
:1049F000491B51099AEF949F9001959F300D112406
:104A0000359527953595279531832083E801CC0F7F
:104A1000DD1FC155D04F288139812F5F3F4F39832A
:104A20002883000F111F0355104FF8014081518159
:104A30004115510529F424303105A9F4B5DC11C024
:104A40004130510539F4B0DC82E090E0F801918307
:104A5000808309C04230510531F4A6DCF80111828F
:104A6000108219821882DF91CF911F910F910895C2
:104A7000A6E0B0E0EEE3F5E20C9476302091D70F9B
:104A80002A831B828091C40F882341F0833019F45C
:104A900087E791E00FC08DE790E00CC0277030E011
:104AA0002A513F4F4DE7429FC001439F900D112473
:104AB000959587959093C60F8093C50F08EC1FE0DE
:104AC000F12C7CE2E72EF801319790819F3FC1F0F5
:104AD0008091A90F8F0D89838091C40F882311F0D5
:104AE000EC8203C09C83F80180818D8321E04CE03F
:104AF00065E0CE0101960E948708CE0101968ADC0E
:104B0000F3940E5F1F4FF8E0FF12DDCF8091C40FCA
:104B1000882341F0833019F41092C40F03C08250EF
:104B20008093C40F2696E6E00C9492308091F703B0
:104B3000882351F09BDC89E28093D80F8091F703A2
:104B400081508093F7030895FECBFF920F931F933C
:104B5000CF93DF93FC01F0800181C281D381148166
:104B60008FE58093D80F1092F7038091A90F8111E0
:104B700005C08091D70F882309F4A9C08091F8035C
:104B80008F1104C08091F903801729F0DCDBF092CB
:104B9000F8030093F9038091C30F8F3F09F497C086
:104BA000C093FA03D093FB031093FC03CC23F1F0E2
:104BB00081111CC08091A90F181761F0143651F0B3
:104BC0008DEA8C0F823010F0CD3739F48FEF80935F
:104BD000C30F7DC0C43509F47AC08D2F807F803625
:104BE00009F075C0D067D093FB0357C0F9DB811182
:104BF00005C08091C30F882309F469C08091FE032A
:104C0000811107C0E091C30FF0E0E45CFC4FE49138
:104C100001C0E82FE33541F4C43531F49091C30F5E
:104C20009E5F9093C30F04C0EC1711F08CDB4FC054
:104C3000882369F0809148038E5F80934803D0DB1E
:104C400081110EC08091C30F8E5F8093C30F80913E
:104C5000C30FE82FF0E0E35CFC4F14911F3F59F4C1
:104C60008091FA038093FE038436B9F48091AA0FF1
:104C70008093FC0312C01093FA0397E79093FB0311
:104C80009091A90F9093FC038E5F8093C30F1092B5
:104C9000FE038E3021F01123D1F000DC18C088EF24
:104CA00093E05CDBDC01009781F02C9130E087EF32
:104CB00093E0821B930BA817B90730F4ED01C20FE4
:104CC000D31F48814D93F7CF1C923DDBE4CFCDB786
:104CD000DEB7E5E00C949330FF920F931F93CF93D0
:104CE000DF938C01EC0109900020E9F72197C81BA4
:104CF000D90BFC018181823751F487E390E00E9457
:104D0000AA020E941A0381E08093E90F26C083372C
:104D100011F5FC2E2C988FE70E9433028C2F8250C5
:104D20000E943302E801229612E01F1528F48991AF
:104D30000E9433021F5FF9CF2C9A0E9408038AE376
:104D40000E948D028F7721F081E00E94D104F7CF7D
:104D50000E941A0302C01092E90FCDB7DEB7E5E05A
:104D60000C949330A0E0B4E0E8EBF6E20C947430DD
:104D70008091E90F882309F452C0813011F58091A8
:104D8000090890910A08A0910B08B0910C08209195
:104D9000FF03281709F443C085E30E948D02813187
:104DA00029F48AE30E94A6020E941A03809109084E
:104DB00090910A08A0910B08B0910C088093FF0312
:104DC0002EC08FE30E948D02D82E2C988FEF0E9468
:104DD00033028E010F5F1F4F7801C02E8E2D801B76
:104DE0008D1538F480E00E943302F70181937F0132
:104DF000F5CF2C9A81E080938702802F8C198D1536
:104E000030F4F80181918F010E944105F6CF0E9494
:104E100091058FEF8093870281E08093E90FDC5F3B
:104E2000E8E00C9490300F931F93CF93DF93EC0145
:104E300010E0212F30E0F901EE0FFF1FE20FF31F0A
:104E4000E457FF4F0491F901EE0FFF1FE20FF31F2C
:104E5000E357FF4F25913491002399F0209739F4BF
:104E600080E20E944105802F0E94410508C0888190
:104E7000801305C0CE01F901099581E003C01F5FD1
:104E8000D8CF80E0DF91CF911F910F910895CF93FC
:104E9000C0918702809387028091F4139091F5135B
:104EA000892B09F440C080EF93E10E94A3078F3F54
:104EB00099F320910004309101048A3011F08D3073
:104EC00011F52115310541F3F901EE5FFB4F108219
:104ED00082E094E0A8DF811111C082E693E00E9495
:104EE000840582E094E00E9479058AE493E00E94C0
:104EF000840580E090E097DF0E9491051092010404
:104F000010920004C9CF211594E0390728F6A901B1
:104F10004F5F5F4F5093010440930004F901EE5F2F
:104F2000FB4F8083B9CFC0938702CF9108951F9222
:104F30000F920FB60F9211240BB60F922F933F933F
:104F40004F935F936F937F938F939F93AF93BF9391
:104F5000EF93FF938091EE0F9091EF0F892B39F033
:104F60008AEE9FE00E94A3078093C60005C080914F
:104F7000C1008F7D8093C100FF91EF91BF91AF91F0
:104F80009F918F917F916F915F914F913F912F9161
:104F90000F900BBE0F900FBE0F901F9018951F9291
:104FA0000F920FB60F9211240BB60F922F933F93CF
:104FB0004F935F936F937F938F939F93AF93BF9321
:104FC000EF93FF9388B190E4892788B96091C60078
:104FD0008091C000887121F480EF93E10E948507E1
:104FE000FF91EF91BF91AF919F918F917F916F91C1
:104FF0005F914F913F912F910F900BBE0F900FBE7D
:105000000F901F90189597FF04C022E02093C000D6
:105010009F779093C5008093C40088E98093C10076
:1050200086E08093C20008958091C10085FD0BC089
:105030008091EE0F9091EF0F892B29F08091C100A4
:1050400080628093C1000895E0910508F091060800
:1050500081E00995E9CFE4E6F0E080818B7F8083F1
:105060002F9A84B1806B84B9269880E58CBD8DB56C
:1050700081608DBD08951092B90080E28093B800E0
:10508000089594EA9093BC009091BC0097FFFCCFE8
:105090009091B900987F983021F0903111F081E023
:1050A00008958093BB0084E88093BC008091BC008D
:1050B00087FFFCCF8091B900887F883111F0803460
:1050C00071F780E0089584E98093BC008091BC0072
:1050D00084FDFCCF08958093BB0084E88093BC00DE
:1050E0008091BC0087FFFCCF9091B900987F81E050
:1050F000983209F480E0089584EC8093BC0080919C
:10510000BC0087FFFCCF8091BB00089584E88093AA
:10511000BC008091BC0087FFFCCF8091BB0008954C
:105120008F929F92AF92BF92CF92DF92EF92FF92B7
:1051300020E030E040E251E40E9497324B015C01F4
:105140000E94EF316B017C019B01AC01C501B401F0
:10515000F8D72FE335E34EE05FE30E94933287FDFB
:1051600006C0C501B4010E9406316B017C01C70174
:10517000B6010E948131CB01FF90EF90DF90CF907C
:10518000BF90AF909F908F90089580915B18909101
:105190005C18892B59F08091F8179091F9170097B6
:1051A00029F001979093F9178093F817089581E0FB
:1051B00090E02091F6173091F717232B11F480E03F
:1051C00090E0089581E090E02091FC173091FD1768
:1051D000232B11F480E090E0089510925A18109259
:1051E0005918109254181092531810925218109285
:1051F00051181092FB171092FA1710926018109223
:105200005F18EFEFF7E1119288E1EF34F807D9F773
:105210000895E091FE17E827F0E0E058FE4F808106
:105220008093FE170895EF92FF920F931F93CF93F1
:10523000DF938FEFE82E87E1F82EC0E0D0E0809179
:105240005F1890916018C817D907E4F4219640E2DE
:1052500060E0CE010E9495058AE30E94410508E0C6
:1052600010E001501109F701E00FF11F80810E9449
:10527000050601151105A9F70E94910588E0E80EC1
:10528000F11CDDCFCDB7DEB7E6E04CC780E3F9DE39
:10529000882321F018DF80E090E0089514DF81E09A
:1052A00090E00895EF92FF921F93CF93DF9300D089
:1052B000CDB7DEB7162F49835A83E3DEF82E498136
:1052C0005A81811102C07A0123C0FDDE86E40E946A
:1052D000410581E60E94410589E60E9441058CE670
:1052E0000E94410585E60E94410584E60E94410531
:1052F00080E20E94410589E40E94410582E30E9408
:10530000410583E40E9441050E9491058F2D0AC04A
:10531000112331F0F70181917F01DDDE1150F8CFCB
:10532000D2DE80E00F900F90DF91CF911F91FF9020
:10533000EF900895EF92FF921F93CF93DF9300D0E9
:105340001F92CDB7DEB78F5F4A835B83698399DE97
:10535000182F4A815B816981811104C07A01162F5F
:10536000140F23C0B0DE86E40E94410581E60E944E
:10537000410589E60E9441058CE60E94410585E6CB
:105380000E94410584E60E94410580E20E94410599
:1053900089E40E94410582E30E94410583E40E9462
:1053A00041050E949105812F0EC0812F8E198230F8
:1053B00028F0A2DEF70181937F01F7CFA7DEF70186
:1053C000808381DE80E00F900F900F90DF91CF916E
:1053D0001F91FF90EF900895A2E0B0E0E1EFF9E2B5
:1053E00089C68A83AE014E5F5F4F61E080E35ADF7A
:1053F000813011F589E40E94410582E30E94410554
:1054000083E40E94410580E20E94410586E40E94F7
:10541000410581E60E94410589E60E9441058CE62E
:105420000E94410585E60E94410584E60E944105EF
:105430000E94910581E007C0AE014F5F5F4F61E0C0
:1054400080E378DF80E02296E2E070C6A2E0B0E080
:10545000EBE2FAE24FC689836A83AE014F5F5F4F8A
:1054600062E080E31FDF813011F589E40E9441058D
:1054700082E30E94410583E40E94410580E20E948C
:10548000410586E40E94410581E60E94410589E6C6
:105490000E9441058CE60E94410585E60E94410577
:1054A00084E60E9441050E94910581E007C0AE019B
:1054B0004F5F5F4F61E080E33DDF80E02296E2E0F6
:1054C00035C680EF89DF811109C064E082EDBEDF5F
:1054D00021E090E0811120E0822F089580E090E0AB
:1054E0000895A1E0B0E0E6E7FAE204C660EF81EEDD
:1054F000ADDFAE014F5F5F4F61E080E31BDF89816D
:1055000080FDF7CF2196E2E011C61092F7171092B6
:10551000F61784EB61DFE5DF82FD03C086958170BD
:1055200001C082E090E00895CF93C82FDADFCC234A
:1055300011F060E801C060E087E888DFD2DFCF913A
:10554000089581E0F1DFCDDF85FB882780F908959C
:10555000A1E0B0E0EDEAFAE2CDC58983C2DF69815E
:1055600085EA74DFBEDF2196E2E0E0C5CF93DF93EA
:10557000EC01CBDF85E5ECDF8F81EADF8E81E8DFB0
:105580008D81E6DF8C81E4DF8B81E2DF8A81E0DFE1
:105590008981DEDF8881DCDFDF91CF910895AF92D2
:1055A000BF92DF92EF92FF920F931F93CF93DF93FF
:1055B0001F92CDB7DEB71092FE17809153189091CD
:1055C0005418892B09F0ADC0A0DF009769F4109240
:1055D0005A18109259181092541810925318109289
:1055E000521810925118BCC080EFB2DFDD24D39462
:1055F00000E010E0E12CF12CAA24A394B12CA1DF4F
:1056000089839FDF2091FA173091FB1799819130A0
:1056100019F4813041F565C0981336C0809159184E
:1056200090915A18A816B90694F41216130694F419
:10563000F901319753E0EE0FFF1F5A95E1F7E00FA4
:10564000F11FE150F84E80818D2169F403C0A81646
:10565000B90649F089E0A816B104A4F4B092521832
:10566000A09251180FC0F90143E0EE0FFF1F4A95B9
:10567000E1F7E00FF11FE150F84E80818D29808322
:1056800091E011C0750190E0F90133E0EE0FFF1FCA
:105690003A95E1F7E00FF11FE150F84E80812D2D92
:1056A000209582238083892F3FDFEFEFAE1ABE0A59
:1056B000DD0C99F4E091FA17F091FB1723E0EE0F5F
:1056C000FF1F2A95E1F7E00FF11FE150F84E8081AE
:1056D000A0DD0F5F1F4FDD24D394083011050CF4BB
:1056E0008ECFF1E4AF16B104E4F08091FE17811182
:1056F00018C0F0925A18E0925918E114F10431F4EC
:1057000081E090E090935418809353188091511841
:10571000909152188E159F0521F4109252181092F4
:105720005118E091FA17F091FB1793E0EE0FFF1F6D
:105730009A95E1F7E150F84E808181110FC01092E7
:105740005A18109259181092541810925318109217
:1057500052181092511880E090E002C081E090E071
:105760000F90DF91CF911F910F91FF90EF90DF90FD
:10577000BF90AF90089531DD12DF892BF1F4809155
:10578000FA179091FB179093601880935F1884E448
:105790000E9441058AE30E94410540E262E0809157
:1057A0005F18909160180E9495050C949105809166
:1057B000FA179091FB170A9714F782E50E944105AA
:1057C0008AE30E944105E091FA17F091FB1773E01C
:1057D000EE0FFF1F7A95E1F7E150F84E87810E94A6
:1057E0000506E091FA17F091FB17A3E0EE0FFF1FFB
:1057F000AA95E1F7E150F84E86810E940506E091F6
:10580000FA17F091FB17B3E0EE0FFF1FBA95E1F71F
:10581000E150F84E85810E940506E091FA17F0915B
:10582000FB1783E0EE0FFF1F8A95E1F7E150F84E7A
:1058300084810E940506E091FA17F091FB1793E02E
:10584000EE0FFF1F9A95E1F7E150F84E83810E9419
:105850000506E091FA17F091FB1723E0EE0FFF1F0A
:105860002A95E1F7E150F84E82810E940506E09109
:10587000FA17F091FB1733E0EE0FFF1F3A95E1F7AF
:10588000E150F84E81810E940506E091FA17F091EF
:10589000FB1743E0EE0FFF1F4A95E1F7E150F84E8A
:1058A00080810E9405068091FA179091FB1701965E
:1058B0009093FB178093FA170E94910570DE892B55
:1058C00009F075CF5CCF88E790E0909356188093ED
:1058D000551810925C1810925B181092FD171092D8
:1058E000FC1710925E1810925D181092F717109224
:1058F000F6171092501810924F189093F917809342
:10590000F8176BDCC3DC892B21F0FFDD019709F46C
:1059100032CF0895E6DD84E41BDEE3DD81E090E034
:105920009093F7178093F6170895A1E0B0E0EAE9A5
:10593000FCE2E0C3D6DD86E94FDDD3DD61EE81EE2A
:1059400085DDAE014F5F5F4F61E080E3F3DC89816D
:105950002196E2E0EBC3AAE0B0E0E0EBFCE2C0C3DA
:105960008091F6179091F717892B39F0DEDF87FFCA
:1059700004C01092F7171092F6178091FC179091BF
:10598000FD17892B79F080915D1890915E18019731
:1059900090935E1880935D18892B21F41092FD1767
:1059A0001092FC1780915B1890915C18892B09F478
:1059B000AEC18091F8179091F917892B09F0A7C112
:1059C00080914F18909150180097B9F49EDD8CEC9F
:1059D000BFDD84E4BDDD85DD81E090E09093FD17BF
:1059E0008093FC1727E030E030935E1820935D1819
:1059F0009093501880934F18A7C08130910509F0FB
:105A0000A8C08091FC179091FD17892B09F07FC1E8
:105A1000809157189091581820915F183091601814
:105A2000821793070CF084C0FC01A3E0EE0FFF1F68
:105A3000AA95E1F7E150F84E2081283229F0223270
:105A400019F0203109F06EC060DD85E581DDE0915F
:105A50005718F091581883E0EE0FFF1F8A95E1F771
:105A6000E150F84E808174DDE0915718F09158189C
:105A700093E0EE0FFF1F9A95E1F7E150F84E818118
:105A800067DDE0915718F091581823E0EE0FFF1FE3
:105A90002A95E1F7E150F84E82815ADDE0915718DE
:105AA000F091581833E0EE0FFF1F3A95E1F7E150FF
:105AB000F84E83814DDDE0915718F091581843E07E
:105AC000EE0FFF1F4A95E1F7E150F84E848140DD6B
:105AD000E0915718F091581853E0EE0FFF1F5A95B8
