:10000000B1C100000C947910CBC10000C9C100003F
:10001000C7C10000C5C10000C3C10000C1C10000CC
:10002000BFC10000BDC10000BBC10000B9C10000DC
:10003000B7C100000C941210B3C10000B1C10000A0
:10004000BAC30000ADC10000ABC10000A9C10000EF
:100050000C94BB270C948327A3C10000A1C100000E
:100060009FC100009DC100009BC1000099C100001C
:1000700097C1000095C1000093C1000091C100002C
:100080008FC100008DC100008BC100006D49286246
:10009000A61943230346020969661F4138165ABF51
:1000A0001E4705094D3D094BAB0962A6195277065B
:1000B00054AF22566E0757B70658750B652E076664
:1000C0005B266CF506743F0475061378EA0200009F
:1000D00000202F2000203D2000072E050DD391FF8A
:1000E000080500000C0021656A2D3B1322F8620709
:1000F0003F181D1CC700B0876BF8B611EA2A001F15
:1001000041000D2E2D07D3913D0432000006002141
:10011000656A55E43023B900070018146C07009095
:10012000876BF85611E92A001F410000030F1E26B5
:1001300027000000030F1E2536386700030F2567D0
:1001400040605000030F275188838100030F275020
:10015000C8C3C200270000000000000067000000C4
:1001600000000000500000000000000081000000BE
:1001700000000000C2000000000000504C4C310D97
:100180000A00504C4C300D0A005620312E36375F95
:100190006E6F637265646974732043534D383638EB
:1001A00000202F2000203D2000424F56460D0A001F
:1001B0004552523A4343410D0A000B08105B11F8B7
:1001C0001547191D1A1C1BC71C001DB221B623EAB6
:1001D0000007022E030D04E905CA070C0B060D21CA
:1001E0000E650F6A10C811931203153417331818CF
:1001F00019161B4321562500261129592C812D350E
:100200003EC34F4646004F464600544D4F444500BE
:10021000534D4F4445000454053D170000060200AD
:100220000B080C000D210E6B0FD0105C1104120690
:10023000132214F80A00154421B622101818192E9A
:100240001ABF1B431C091DB523EA242A2500261FBB
:1002500029592C812D352E0907040800090006FFB5
:100260003EC2FF047605961700000602000B080C3C
:10027000000D210E650F6A106A114A12061322142E
:10028000F80A00154721B622101818192E1A6D1BEE
:10029000041C091DB223EA242A2500261F29592CF3
:1002A000812D352E0907040800090006FF3EC2FF14
:1002B0004C454E4552520D0A004C454E4552520D8A
:1002C0000A000007024604C605260B0610C8119353
:1002D000120313221534173F182819161B432156F1
:1002E000250026110D210E650F6A070C160720F850
:1002F0001E871F6B29592C812D353EC3FF000D2E03
:100300002D07D3913D04320000060010B07155E472
:100310003023B900070018146C070090876BF8565B
:1003200011E92A001F41004E2F4100454F420D0A9E
:10033000004E2F41004E2F410000535300547D7D4D
:10034000FFFF4B4B7E7E0020697320756E6B6E6FD6
:10035000776E2920557365206F6E65206F66003FAC
:100360002028000011241FBECFEFD0E4DEBFCDBF98
:1003700011E0A0E0B1E0EAEBF1E500E00BBF02C064
:1003800007900D92A438B107D9F726E1A4E8B1E0AF
:1003900001C01D92AA3FB207E1F703D00C94DB28FD
:1003A0002FCE88E10FB6F894809360001092600021
:1003B0000FBE90E080E80FB6F894809361009093B0
:1003C00061000FBE3E9A469A0E94172874D589EFA5
:1003D00087BD84E085BD82E084BD80936E0010926D
:1003E00080008AE08093810084B7877F84BF2FE0FC
:1003F00088E190E00FB6F894A895809360000FBE56
:100400002093600089E190E80E94EF270E944F222C
:100410000E94570B83E397E29093060780930507AA
:1004200081E0809387010E94281280918701886073
:1004300080938701469878940E9410280E94760D38
:1004400034D20E94A0260E94A8130E94AF140E94DA
:10045000471E0E94A717F0CF8EBD0DB407FEFDCF3B
:100460008EB50895A1E0B0E0E8E3F2E00C949A289C
:10047000482F8A3008F048E088E0489F7001112436
:10048000F701E55DFE4F7F018BE290E0F70164919B
:100490008C010F5F1F4F49830CD4FFEFEF1AFF0A47
:1004A00049810333110511F0C801F0CF45504530A3
:1004B00010F461E101C067E184E290E0FAD3219693
:1004C000E6E00C94B628CF93DF9382E090E0FC0145
:1004D000E050FF4F6491EC012196EBD3CB32D10574
:1004E00011F0CE01F4CF87E390E0FC01EE55FF4F11
:1004F0006491EC012196DDD3C036D10511F0CE0117
:10050000F4CF88E0AFDFDF91CF9108952C98806C15
:10051000A3DF80E0A1DF2C9A0895A1E0B0E0E3E939
:10052000F2E00C949E282C988064698395DF6981A1
:10053000862F92DF2C9A2196E2E00C94BA282C9810
:100540008BDF2C9A0895EF92FF920F931F93CF9316
:10055000DF93EC0110923502E898249A2C9A8EE1F0
:1005600090E00FD22C988EE190E00BD22C9A8DE285
:1005700090E007D280E3E3DF84E690E002D22C989B
:1005800080E46ADF7E0189E2E80EF11C8E010F5FD4
:100590001F4FCE0193D360DF0E151F0511F0E80148
:1005A000F5CF2C9A2C988EE757DF8BE290E0EC0188
:1005B000219684D351DFC333D10511F0CE01F7CF9B
:1005C0002C9A83E3BCDF81E0E1D1CDB7DEB7E6E072
:1005D0000C94B628A1E0B0E0E0EFF2E00C949E2885
:1005E00022E0298341E0BE016F5F7F4F019606D371
:1005F000898138DF82E090E0A6DF2196E2E00C946A
:10060000BA28CF93E89886E39ADFCFEF85E397DFA8
:10061000C1508077803229F08AE090E0B2D1C111D8
:10062000F5CFCF910895CF93CFEF84E388DFC1500A
:100630008077803129F08AE090E0A3D1C111F5CF15
:10064000E89ACF910895A2E0B0E0E9E2F3E00C94DB
:100650009C288C01FC0181818737E9F441E0BE01CF
:100660006F5F7F4FC8010296C9D2892BA1F041E08C
:10067000BE016E5F7F4FC8010496C0D2892B59F02E
:100680006A8189814ADF83E35ADFCDDF8981B2D273
:100690008A81B0D22CC041E0BE016E5F7F4FC8019D
:1006A0000196ACD2892B21F18A81893969F410E055
:1006B000812F2CDF9FD2812F8770873009F426D2BB
:1006C0001F5F1033A9F714C021DF182F83E4CED1A8
:1006D0008A8190D285ED90E00CD2812F8BD281ED72
:1006E00090E007D240E262E0812F90E013D20ED278
:1006F0002296E4E00C94B82886E321DF10920707E5
:100700001092310210923502089582E090E01BDFD2
:1007100081E080930707109231021092350208950C
:100720000F931F93CF93DF93082F10E0C62FD0E0D5
:1007300085E3ECDE801731F0CE0123D11150C1F7F3
:1007400081E001C080E0DF91CF911F910F9108956A
:1007500085E2DCDE8F3311F080E0089586E3EFDE82
:1007600080918401811104C082E891E0C2D102C06D
:100770008DE3E5DE83E3E3DE64E081E0D1DF85E263
:10078000C5DE8F3349F780918401811103C08BE767
:1007900091E0AFD181E0089585E3B8DE8D3051F46A
:1007A00085E2B4DE8F3331F4D3DF84E3C8DE8077B3
:1007B0008031D9F708951F920F920FB60F9211242E
:1007C0000BB60F928F939F93AF93BF93EF93FF93CB
:1007D0008091090790910A07A0910B07B0910C072F
:1007E0000196A11DB11D8093090790930A07A0935C
:1007F0000B07B0930C07809108078F5F8093080761
:10080000EBEAFEE080819181181619061CF401972D
:100810009183808336968EE0E33CF80799F78091C8
:10082000C50E9091C60E009729F001979093C60EC1
:100830008093C50E8091D80E8F3F19F08150809320
:10084000D80EFF91EF91BF91AF919F918F910F9033
:100850000BBE0F900FBE0F901F9018952FB7F894F6
:100860004091090750910A0760910B0770910C079E
:10087000FC0140835183628373832FBF0895A4E0FA
:10088000B0E0E5E4F4E00C949E28CE010196E6DFAA
:100890008C81B0D18B81AED18A81ACD18981AAD132
:1008A00035D12496E2E00C94BA281F93CF93DF93BE
:1008B0008091090790910A07A0910B07B0910C074E
:1008C00020918601281709F458C08091090790915A
:1008D0000A07A0910B07B0910C0780938601A89599
:1008E000CBEADEE010E028813981232B19F4812F37
:1008F0000E94CE241F5F26961430A9F78091C50E62
:100900009091C60E892B11F40E942A258091D80E51
:10091000811102C00E94862580911F0B882339F027
:10092000815080931F0B811102C00E944614809158
:1009300008078D3710F1109208078091000181FFA0
:1009400004C088B190E4892788B984E893E0909343
:100950000E0780930D07809185018F5F809385013D
:100960008C3359F4109285018091AA0E8F5F809389
:10097000AA0E8C3310F01092AA0EDF91CF911F9126
:100980000895880F991F0197F1F7089520ED37E03A
:10099000815020F0F9013197F1F7FACF0895CF9304
:1009A000DF93DC0116968C911697843509F05BC0B5
:1009B000CD010696CD91DC9111974DE0242F30E0CA
:1009C0002C173D0740F0AE014F5051092417350751
:1009D00009F049C008C0FC01E20FF31F50815B33EE
:1009E00091F34F5FEBCFFE013E97E80FF91F208197
:1009F0002435C9F517963C9117972181321333C0DE
:100A000018963C911897228132132DC019963C916B
:100A100019972381321327C01A963C911A97248183
:100A2000321321C06197C80FD91F858188838681C1
:100A3000898381858A8382858B8383858C83848562
:100A40008D8385858E838D919C9111970A97119640
:100A50009C938E9314968D919C9115970A97159659
:100A60009C938E931497DF91CF910895CF93C82FC5
:100A70008091870180FF13C02091EE0E3091EF0E20
:100A80002E3F83E0380738F02115344040F4CD3054
:100A900011F0CA3021F46C2F8AEE9EE02BD28091A7
:100AA0002A0B8823C9F08091870183FF15C0CA30C3
:100AB00099F0CD3011F46BE301C06C2F87E197E022
:100AC00019D2CD3019F487E197E069DF83E0809394
:100AD0001F0B82E08093250BCF910895CF93DF9376
:100AE000EC018991882311F0C1DFFBCFDF91CF9119
:100AF0000895CF93DF93EC01FE018491882319F0D0
:100B0000B5DF2196F9CFDF91CF9108958DE0AEDF6B
:100B10008AE0ACCFA6E0B0E0E0E9F5E00C949C28D8
:100B2000062F1E8215E02AE030E01150E1E0F0E0EF
:100B3000EC0FFD1FE10FF11DB9010E947A28805DC5
:100B40008083CB010150009769F01111EECF0AC0EC
:100B5000112359F01150E1E0F0E0EC0FFD1FE10F1F
:100B6000F11D4083015007FFF3CF81E090E08C0F2F
:100B70009D1F810F911DB2DF2696E4E00C94B828EA
:100B8000A5E0B0E0E6ECF5E00C949E281D8224E0A0
:100B9000382F3F702150E22FF0E03A3010F4305DF2
:100BA00001C0395CA1E0B0E0AC0FBD1FEA0FFB1F34
:100BB000308334E0969587953A95E1F76150009738
:100BC00039F7615067FD0BC0222349F02150E1E065
:100BD000F0E0EC0FFD1FE20FF11D4083F2CF81E04A
:100BE00090E08C0F9D1F820F911D78DF2596E2E02B
:100BF0000C94BA2840E362E090E0C2CFDC01FB0134
:100C000030E090E08D918823A9F0813608F0805281
:100C100020ED280F2A3030F02FEB280F263030F44B
:100C200029EC280F292B332379F006C0803251F3A9
:100C30008A3341F3CF0105C0CF0101962083415093
:100C400041F4861B970B0895922F9295907F31E087
:100C5000D9CFFC01D5CF20E030E05AE0FC01419132
:100C6000CF01442379F0E0EDE40FEA30B8F7F90161
:100C70005E9F90015F9F300D112420533109240F96
:100C8000311DECCFFB01318320830895982F92957D
:100C90009F709A3010F4905D01C0995CFB019083C5
:100CA0008F708A3010F4805D01C0895CFB01818304
:100CB00008950E94CD28F999FECF08950C94C52877
:100CC00008951F93CF93DF93162F11501F3F59F0B4
:100CD000EC012196F3DF8EDF112311F08AE3C6DEEB
:100CE0001150CE01F3CFDF91CF911F910895A2E073
:100CF000B0E0EDE7F6E00C949B28FC0121812D3457
:100D000021F466E08AEF9FE005C0203529F460E118
:100D10008AED9FE0D6DF26C01A82198242E0BE012A
:100D20006F5F7F4F01966ADF098110E0823021F406
:100D3000102F00278A81082BC801C0DFF82E82E51A
:100D400095DE40E364E0C8011BDF85EA91E0D1DE77
:100D50008F2D50DF81EA91E0CCDE40E262E08F2D02
:100D600090E0D8DED3DE2296E5E00C94B728A6E02A
:100D7000B0E0EDEBF6E00C9498286C0143E0BE0186
:100D80006F5F7F4F01963ADF823058F1E980F12C96
:100D9000823021F0FE2CEE242A81E22A8C011127D8
:100DA000FE01E00FF11F6081C70183DF000F111FFB
:100DB0000F5F1F4F0C0D1D1DF8018081882389F0E6
:100DC00041E0BE016F5F7F4FC80118DF892B49F0FA
:100DD0008FEFE81AF80A6981C7016BDF0E5F1F4FBA
:100DE000EBCF2696E8E00C94B42841E060E071E097
:100DF000019604DF8091000180FF02C0469A01C085
:100E000046986091000184E390E053CFA1E0B0E008
:100E1000ECE0F7E00C949E281982009731F041E055
:100E2000BE016F5F7F4F0196E9DE89818F3F09F434
:100E3000FFCF882321F061E083E390E03ADF109256
:100E40006E00F89428E088E190E00FB6F894A89539
:100E5000809360000FBE20936000FFCFCF93DF939D
:100E6000EC0161E080E090E024DF63E481E090E069
:100E700020DF29DB60E080E690E01BDF60E081E6B8
:100E800090E017DF60E083E390E013DF62E084E34B
:100E900090E00FDF60E080E690E00BDF60E081E64D
:100EA00090E007DF8981883719F080E090E0AEDFBD
:100EB000DF91CF91089580E090E000DF813029F448
:100EC00081E090E0FBDE833419F080E090E0C6DF43
:100ED00084E390E0F3DE80930001089589E891E0D7
:100EE00008DE14CEFC011582148211821082138256
:100EF00012820895FC014FB7F89484819581811581
:100F000024E0920798F401969583848320813181AF
:100F1000C901019691838083DF01A20FB31F16964A
:100F20006C938115944011F4118210824FBF089583
:100F3000FC014FB7F89484819581009719F44FBF55
:100F400080E00895019795838483828193819C0139
:100F50002F5F3F4F33832283DF01A80FB91F1696FF
:100F60008C912115344011F4138212824FBF0895E1
:100F7000FA013081882369F0E1E0F0E0022E01C03F
:100F8000EE0F0A94EAF7DB01A30FB11D9C919E2B93
:100F90009C93222319F08FEF820F0BC081E0830F07
:100FA0008C3010F4FA018083FB01E80FF11D1082F0
:100FB00087E090E00895CF93C82F299A882319F0ED
:100FC00080918A0102C080918C0120E1829FC00142
:100FD0001124D7DC2998CC2319F08091890102C013
:100FE00080918B0120E1829FC0011124CADCCF9146
:100FF0000895A1E0B0E0EFEFF7E00C948E286C01CB
:10100000162F842E622E469A80913502882341F055
:101010001092350280E891E068D3FF24F39401C078
:10102000F12C80910707811101C06FDBEADAA12E54
:10103000B12C912C712C512C852D992787FD9095E1
:101040008A159B0524F480E0B6DF5394F5CF112375
:1010500011F081E0B0DF20E0422E552447FC50948F
:10106000481459042CF097E0392E4C0C5D1C1BC021
:1010700087E0282E312C4C0C5D1C81E090E0022C86
:1010800001C0880F0A94EAF7F2019081892329832D
:1010900092DFF1E02F1A310829818FEF28163806E8
:1010A00061F72F5FD9CF832D992787FD909568161B
:1010B00079066CF481E090E0032C01C0880F0A945B
:1010C000EAF7F2019081892376DF3A94ECCF8E2DF6
:1010D0005DDC015009F0AFCF80911007882311F03B
:1010E000A2DA02C086E32BDAF1100E94921C469825
:1010F0002196E2E10C94AA28ADE0B0E0E2E8F8E045
:101100000C9491287C01162F842F022F6701C60EA4
:10111000D11C462FB701FED2D6018C931F5F1D86CE
:1011200019825E2C670127E066246394712C8C2D54
:101130008519811788F547E0A42EB12C4701880E48
:10114000911CF3010A2C01C0EE0F0A94EAF7D401B6
:101150008C91AE01435F5F4FBE016F5F7F4F8E2367
:1011600007DF282FB1E0AB1AB10858F7D6018D91EF
:101170006D01082E82958025082E869586958025FE
:101180008F5F86958170AE01435F5F4FBE016F5FD9
:101190007F4FEEDE282FCBCF222311F0215004C049
:1011A0008D858F5F8D8727E089E180938B01809308
:1011B0008C0185E28093890180938A013AE0E32ED5
:1011C0004D856CE0CE01019614DF2D96EFE00C9476
:1011D000AD28ADE0B0E0EFEEF8E00C949D28162FBE
:1011E000242F4BE0BE016F5F7F4F01962D8706DDF8
:1011F0002D85412F682FCE0101967EDF2D96E3E0ED
:101200000C94B92843E066E0E4CFEF920F93CF93BC
:10121000DF93CDB7DEB760970FB6F894DEBF0FBE91
:10122000CDBF40E1BE016F5F7F4F0196E7DC698172
:101230004A810B818C8180938C018D8180938B01FD
:101240008E8180938A018F8180938901E02EE294C0
:101250007FE0E7220F70242F2F7042954F70CE0150
:101260000896C7DE60960FB6F894DEBF0FBECDBFFE
:10127000DF91CF910F91EF900895A9E1B0E0E3E401
:10128000F9E00C9496284BE0BE016F5F7F4F01960A
:10129000B5DC182F893009F05AC099E190938B0181
:1012A00090938C0190938A0182E38093890169E095
:1012B000CE01019639D2E1E0F0E0EC0FFD1FE10F25
:1012C000F11D8083198E1D86CE0101967C016E0171
:1012D0009BE0C90ED11C27E0AA24A394B12CEC14E6
:1012E000FD0429F100E010E0F501002E01C0EE0F31
:1012F0000A94EAF7D7018C91AE01475E5F4FBE01B9
:10130000635F7F4F8E2334DE282F0F5F1F4F08301F
:10131000110551F7AE01475E5F4FBE01635F7F4F1E
:1013200081E026DE282FBFEFEB1AFB0AD8CF22235D
:1013300011F0215004C0898D8F5F898F27E0EAE08A
:10134000EE2E03E0498D6CE0CE010D9652DE6996DB
:10135000EAE00C94B228A9E1B0E0E1EBF9E00C94EA
:1013600095284BE09E012F5F3F4F7901B90101960F
:1013700045DC182F85E380938C0196E190938B01D7
:1013800090938A0180938901612FC701D9D1F70118
:10139000E10FF11D808399249394910E198E1D867F
:1013A000870127E0AA24A394B12C802F8E198915D8
:1013B00008F04AC0C12CD12CF5010C2C01C0EE0F55
:1013C0000A94EAF7D8018C91AE01475E5F4FBE01E7
:1013D000635F7F4F8E23CCDD282FBFEFCB1ADB0A54
:1013E00034E0C316D10441F7AE01475E5F4FBE0142
:1013F000635F7F4F81E0BCDD282FB4E0CB2ED12C82
:10140000F5010C2C01C0EE0F0A94EAF7D8018C917B
:10141000AE01475E5F4FBE01635F7F4F8E23A8DD45
:10142000282FBFEFCB1ADB0A38E0C316D10441F7EF
:10143000AE01475E5F4FBE01635F7F4F81E098DD85
:10144000282F0F5F1F4FB1CFAAE0EA2E03E0498D8E
:101450006AE0CE010D96CDDD6996EBE00C94B128E3
:101460008F929F92AF92BF92DF92EF92FF920F9373
:101470001F93CF93DF931092A8011092BD01FC013E
:101480002181220F220F220F3381231B57E0520F9D
:101490001092A90110E070E038E0D32ED20EFF24A4
:1014A000F39447E007E0E12CC7E0D0E0A1E0B0E032
:1014B000FD1409F47FC0FC01EE0DF11D248130E024
:1014C000002E02C0359527950A94E2F72170332744
:1014D000E22F002311F0015002C0E39407E06B34C7
:1014E00071F4433009F04AC0111107C0E1115FC027
:1014F0001092A8017093BD0174C010E041C04F3F2D
:1015000031F56634A9F4E72FF0E0E755FE4FE081AE
:101510000E2EE295E0250E2EE695E695E025EF5F8E
:10152000E1FB882480F8912C8216930641F004C0D8
:10153000653429F4E11103C01093A801DBCF7F5F6C
:10154000E72FF0E0E755FE4F108247E031C0EE2371
:1015500061F1663471F4E72FF0E0E755FE4FA080AB
:101560009D01042E01C0220F0A94EAF7A22AA0824C
:101570001CC0653439F06B34C1F404C04F3FD1F264
:10158000EE2399F0E72FF0E0E755FE4F9E01241B74
:10159000310947FD33955D0102C0AA0CBB1C2A9599
:1015A000E2F795013081322B3083415001C011E0C8
:1015B000F3947ECF1093A8017093BD015F1588F45A
:1015C000653431F44F3F21F47F5F7093BD0104C057
:1015D0008091A8018111F8CF81E09091BD01911116
:1015E00001C080E0DF91CF911F910F91FF90EF90AC
:1015F000DF90BF90AF909F908F90089510926F00F2
:10160000E091C0018CE1E89FF0011124EF53FE4FFF
:10161000108280910F078D7F80930F070895FC0142
:101620002181243108F0EACF3381662381F081E003
:1016300090E0032E01C0880F0A94EAF7DF01A20FA1
:10164000B11D14969C911497982B14969C93332358
:1016500019F031503383089587E083832F5F21830E
:10166000E20FF11D14820895DC011196EC9111979F
:10167000F0E050E02C91CF01841B950B0B9647971F
:10168000A0F430E070E0C901861B970B0B964797DA
:1016900060F42E0F3F1F640F751F261B370B255F4D
:1016A0003F4F81E02731310508F080E00895219A0D
:1016B00029985298E9E6F0E0808181608083109259
:1016C000DD011092F901109215021092070708959A
:1016D00080913302811108C080911007882319F08E
:1016E00014D80C94130308C80895FC01218121111A
:1016F0000BC0809110077EDA40E265E080910D0713
:1017000090910E0707DA02CA41E060E177E00196A6
:1017100075DADECF442339F04150FB01E40FF11DAF
:101720009081890FF7CF089520E0662339F061504A
:10173000FC01E60FF11D30812327F7CF822F08959A
:10174000A091A80140E035E020E0662399F06150C7
:10175000FC01E60FF11D5081752F72957F702727D0
:10176000370FAA2311F0442319F05F702527350F96
:101770004F5FEBCF320F40E1349FC0011124822B29
:101780000895FC0132812381A081B181A30FB11D95
:101790008C9190E0022E02C0959587950A94E2F70D
:1017A000817099274FEF420F4383211104C03F5F9F
:1017B000328327E023830895A2E0B0E0E2EEFBE06D
:1017C0000C9496287C01A12CB12CD12CCC24C39450
:1017D000062F10E001501109A616F0F4C7014A8344
:1017E0006983CFDF4A816981882391F0442349F0DE
:1017F00098012A193B098C2D01C0880F2A95EAF718
:1018000006C08C2D0A2C01C0880F0A94EAF7D82A4A
:101810008FEFA81AB80AE0CF8D2D2296EAE00C943B
:10182000B228A4E0B0E0E7E1FCE00C9495281B822C
:1018300027E02C839C012C5F3F4F3A832983109231
:10184000BD01FC012181338187E090E0831B910978
:10185000F8E02F9F800D911D1124853491050CF423
:101860004EC0B12CA090BD01F5E0FA1558F10A2D3B
:1018700010E040E068E0CE0101969EDF07551E4F64
:10188000F8018083982E092C92949024092C969428
:1018900096949024CE01019674DF939491FACC240F
:1018A000C0F8D12C90E0C816D90649F5CE010196B2
:1018B00068DF811124C0F8018081B826A394A0922A
:1018C000BD01D0CF40E068E0CE01019675DF082F62
:1018D000182F012E12951025012E169516951025FC
:1018E000CE0101964EDF1F5F11FBEE24E0F8F12CD4
:1018F000282F30E0E216F30611F481E0B01280E008
:101900002496EBE00C94B128A5E0B0E0EAE8FCE016
:101910000C949928FC011B8287E08C83CF010496EC
:101920009A8389838081853009F051C02181338178
:1019300087E090E0831B910938E0239F800D911D83
:1019400011248039910509F042C01092BD010FE0C9
:1019500010EF29E88091BD01E82EF12CDD24D3940D
:10196000D80E41E068E08F3088F4CE0101962D83D7
:1019700023DF080F111DF701E755FE4F2D812827A2
:10198000208324E2280FD092BD01E4CFCE0101963E
:1019900013DF080F111DD092BD01F701E755FE4F6F
:1019A0008095808341E068E0CE01019605DF90E0FC
:1019B000982F8827081B190B41E068E0CE0101969B
:1019C000FBDE282F30E081E00217130709F080E0EA
:1019D0002596E7E00C94B528A4E0B0E0E2EFFCE047
:1019E0000C949B281B8227E02C839C012C5F3F4F8B
:1019F0003A832983FC0121812430A1F58381813040
:101A000089F51092BD018091BD01082F10E0FF24DF
:101A1000F394F80E41E0843098F4811106C067E039
:101A2000CE010196C9DE806804C068E0CE0101964F
:101A3000C3DEF801E755FE4F8083F092BD01E3CF8E
:101A400067E0CE010196B8DEF801E755FE4F880F3A
:101A50008083F092BD019091A90192959F7081E0E1
:101A60009A3009F080E02496E5E00C94B728CF93F3
:101A7000DF93FC0181818330E9F483818730D1F4E5
:101A800080818830B9F41092BD0120E0822F90E06F
:101A9000DC01A755BE4FEF01C80FD91F8C818C9375
:101AA00081E0820F833010F4282FF0CF8093BD01A6
:101AB00081E001C080E0DF91CF910895FC01908129
:101AC00080910F07993611F0933751F4982F937046
:101AD000913011F4826006C080FF07C08B7F03C085
:101AE00080FD03C0846080930F070895A1E0B0E0FB
:101AF000ECE7FDE00C949A28198280918D018823EF
:101B0000B9F18091100787FF17C084E30E94860215
:101B10008058803458F0803C58F490E0805591090A
:101B200053E0959587955A95E1F703C080E001C091
:101B30008FE08F590E9436058091100783FF16C0F1
:101B400082E70E9436058091100784FF04C08091CF
:101B50008E010E94360586E60E94360580911007A8
:101B600084FF04C080918D010E94360510928D0182
:101B70008091BE01882309F451C2469A0091BF01A9
:101B80002CE1029F800111240F531E4F8981811186
:101B900006C0C8016CDF882311F083E7898389813F
:101BA000811106C0C801B0DE882311F083E5898366
:101BB0008981811139C066E4C80152DC8823A1F112
:101BC000F090BD01FA94F092BD014F2D69EA71E0E9
:101BD00086E0A0DDEF2DF0E0E755FE4FE0808E11AE
:101BE00005C093E09F1510F486E41BC0282F30E059
:101BF0002F5F3F4F6E2D70E02617370739F423E033
:101C00002F1520F496E4998380830EC04F2D69EA46
:101C100071E08CE07FDD8E1106C083E08F1518F433
:101C200084E5898301C019828981811116C065E428
:101C3000C80116DC882389F08091BD018150809312
:101C4000BD01893051F469E089EA91E06DDD909140
:101C5000B201891302C085E489838981811106C09C
:101C6000C801DFDD882311F088E48983898181112F
:101C700006C0C801B1DE882311F084E78983898119
:101C8000811133C0F801438D60918E01C8014A96DD
:101C9000EBDC682FC801C3DC6BE4C801E1DB8823FF
:101CA000B1F0F090BD01FA94F092BD016F2D89EA78
:101CB00091E046DDEF2DF0E09091A801E91BF109DC
:101CC000E755FE4F9081891302C08BE48983898197
:101CD00081110BC0F801838191E0980F93838730C5
:101CE00021F41382818181508183898181112DC0EA
:101CF000F8018181843049F58381843031F54EE1EA
:101D00006CE3C8014896B0DC8823F9F04EE160919D
:101D10008E01C8014A96A8DC682FC80180DC20E04B
:101D2000822F90E0FC01E755FE4FD801A80FB91FA4
:101D300014968C91808381E0820F853010F4282FD7
:101D4000EFCF8093BD0182E589833981332309F484
:101D5000D9C02091100720FFD5C080910F078E7F3A
:101D60008B7F80930F0721FD64C05091A701F090F5
:101D7000BD015F113DC040E04517C0F4842F90E0E5
:101D800061E0640FFC01ED56FE4FDC01A755BE4F2C
:101D900070818C91781741F04093A70180910F07D3
:101DA0008D7F80930F0704C0462FE6CF4093A70195
:101DB00045131EC04091090750910A0760910B0717
:101DC00070910C0780918F0190919001A0919101E9
:101DD000B0919201481B590B6A0B7B0B463251059F
:101DE0006105710528F480910F07816080930F07CA
:101DF00040E04F1560F4842F90E0FC01ED56FE4F5B
:101E0000DC01A755BE4F8C9180834F5FF2CF40938A
:101E1000A7018091090790910A07A0910B07B09143
:101E20000C0780938F0190939001A0939101B09340
:101E300092013435E9F426FD1BC08091BD01853047
:101E4000B8F08091AB018B3471F0893661F09DEA76
:101E5000980F923040F08D57823028F08091AC017D
:101E60008077803729F480910F07816080930F0776
:101E7000B801CE01019622DE8981843569F4909102
:101E80002A0B992349F09091A90E911105C09091C8
:101E90000F079B7F90930F0790910F0792FF32C01F
:101EA0000E9436058091A801882329F08091BD0108
:101EB00081508093BD01F12CE091BD01FE1648F4E4
:101EC000EF2DF0E0E755FE4F80810E94FA05F39474
:101ED000F3CF8091A801882351F0F0E0E755FE4F41
:101EE00080818F7040E361E090E00E94C0058091A6
:101EF000100785FF05C084E30E9486020E94FA0550
:101F00000E9486058091100782FF6FC080E70E94C3
:101F10003605F801808140E262E090E00E948A0587
:101F2000F801808D40E265E0F0E18F9FC00111244F
:101F30000E948A05F801818D40E265E0F0E18F9F03
:101F4000C00111240E948A05F801828D40E265E0FB
:101F5000F0E18F9FC00111240E948A05F801838D52
:101F600040E265E0F0E18F9FC00111240E948A05E4
:101F7000F801828140E263E090E00E948A05F80166
:101F8000818140E263E090E00E948A05F8012381AC
:101F900040E262E087E090E0821B91090E948A059E
:101FA00080E20E9436058091100785FF08C084E317
:101FB0000E9486020E94FA0580E20E943605F8011E
:101FC0008381873019F081818F5F8183F12CF80143
:101FD0008181F81640F4F801EF0DF11D84810E9413
:101FE000FA05F394F4CF0E948605F80110828091DF
:101FF000BE0181508093BE018091BF018F5F84300C
:1020000019F08093BF0102C01092BF0146988981E8
:10201000843521F489EA91E00E9495252196E6E035
:102020000C94B6281F920F920FB60F9211240BB684
:102030000F922F933F934F935F936F937F938F9361
:102040009F93AF93BF93EF93FF9310926F00809194
:10205000100783FF03C08EE20E9436058091C00105
:102060009CE1899FF0011124EF53FE4F9081933042
:1020700018F09181923010F4C1DA18C09091BE012D
:10208000933049F48091100782FFF6CF89EA91E0FE
:102090000E947905F1CF9F5F9093BE018F5F8430DE
:1020A00019F08093C00102C01092C001FF91EF911E
:1020B000BF91AF919F918F917F916F915F914F9160
:1020C0003F912F910F900BBE0F900FBE0F901F905E
:1020D00018959BED980F973150F496EF960F9D3120
:1020E00030F491E0681708F090E0892F089580E0BF
:1020F00008951F920F920FB60F9211240BB60F92F4
:10210000FF920F931F932F933F934F935F936F9380
:102110007F938F939F93AF93BF93CF93DF93EF936F
:10212000FF938091E90E882321F082E08093E90EED
:1021300063C18091200B823021F483E08093200BD7
:102140005BC1009184001091850064E016950795AD
:102150006A95E1F7C091C0019CE1C99FE00111249B
:10216000CF53DE4F9881943031F40E3208F444C1DD
:102170000F3448F0B6C0953031F4073108F43CC153
:10218000083208F0AEC04A990DC09450923038F42D
:1021900061E0CE0144DA1092850010928400009331
:1021A0008E012AC180918E01081B00938D0110922F
:1021B0008500109284009881983071F42A81211151
:1021C0000BC021E02A83888F8A8F098F0B3B10F484
:1021D000000F01C006950B8F9450923020F460E000
:1021E000CE011DDA09C182E086BBF880F11011C072
:1021F00090918E01953608F0FFC080918D01853653
:1022000008F0FAC0988F898F81E08A8382E0888302
:10221000F3C010918D0182E0F81273C000918E011D
:10222000412F602FCE0148961FDA6A818823F9F08A
:10223000488D50E09A01220F331F240F351F200FC5
:10224000311D3595279535952795288F298D30E0B7
:10225000C901880F991F820F931F810F911D9595BA
:10226000879595958795898F6F5F6A83C5C0643020
:1022700008F445C020EA3FE03093890020938800AD
:102280008A818C3050F0888D298D30E0280F311DE7
:102290002536310524F084E027C08A3088F0888D07
:1022A000298D30E0280F311D253231054CF485E0B1
:1022B000888328EE33E0309389002093880015C08E
:1022C00080911607882379F0612F802F02DF882301
:1022D00051F0688D898DFDDE882329F081E080939F
:1022E000200B8CD989C083E088830A8F1B8F1982C9
:1022F00087E08B831C8282E080936F007DC0188210
:1023000077CF98E0F91225C081E9810F8D3178F4FB
:1023100060E0CE0184D9288D30E0C901880F991F73
:10232000820F931F20918E01820F911D4EC0173E88
:1023300008F462C061E0CE0172D92A8D30E0C90193
:10234000880F991F820F931F20918E01820F911D7C
:1023500015C000918E01412F602FCE014A9684D97D
:10236000882301F161E0CE015AD92A8D30E0C901FC
:10237000880F991F820F931F800F911D9595879548
:10238000959587958A8F2B8D30E0C901880F991F0D
:10239000820F931F810F911D959587959595879530
:1023A0008B8F2AC0412F602FCE0148965DD988239C
:1023B00001F160E0CE0133D9288D30E0C901880FEA
:1023C000991F820F931F800F911D95958795959565
:1023D0008795888F298D30E0C901880F991F820F5A
:1023E000931F810F911D9595879595958795898F59
:1023F00003C087E0F81275CFFF91EF91DF91CF9185
:10240000BF91AF919F918F917F916F915F914F910C
:102410003F912F911F910F91FF900F900BBE0F9046
:102420000FBE0F901F901895E091C0018CE1E89FBE
:10243000F0011124EF53FE4F8081811107C081E02C
:102440009091D80E9F3F19F480E0089581E008959F
:1024500080E690E00E945E068093160781E690E099
:102460000E945E0680932A0B882321F081E28093EC
:1024700010072EC90895299A0C94C10429980C9428
:10248000C104A7E0B0E0E7E4F2E10C949928909150
:102490001D07943559F42091230B3091240B2F5FA5
:1024A0003F4F3093240B2093230B3EC0963459F4B6
:1024B0002091210B3091220B2F5F3F4F3093220B45
:1024C0002093210B31C0953459F42091130730919A
:1024D00014072F5F3F4F309314072093130724C036
:1024E0009B3459F42091260B3091270B2F5F3F4FDF
:1024F0003093270B2093260B17C0983459F4209162
:10250000280B3091290B2F5F3F4F3093290B2093DD
:10251000280B0AC020911107309112072F5F3F4FFF
:10252000309312072093110795E79983882399F038
:10253000BE016E5F7F4F80912A0B0E944606BE014E
:102540006C5F7F4F809116070E94460685E58E835B
:1025500086E0D82E02C0DD24D3940E9485030E9419
:10256000010316E080E891E086DF80E093E086DFFB
:102570001150C1F780E093E07EDF80E891E07EDFDC
:1025800080E891E078DF299887E390E00E94A30239
:1025900083E00E94C6042C988FE70E942C02809151
:1025A0001B078D0D0E942C02CE0101967C018C012F
:1025B000F80181918F010E942C02802F8E198D15B8
:1025C000B8F380911B0790911C07892B39F087E1A4
:1025D00097E00E9498070E942C02F3CF2C9A0E9449
:1025E000010387E197E00E94720715E18AE30E94E8
:1025F00086028F7731F0115021F081E00E94C604ED
:10260000F5CF66D82796E7E00C94B528CF93DF93F3
:10261000EC018981811107C0809116070E94FA059B
:1026200080912A0B13C08436A1F480910907909100
:102630000A07A0910B07B0910C0740E364E00E94E9
:10264000C0058EE20E94360580911F0B0E94FA059C
:102650004DC0833709F04DC040E361E08091230B0A
:102660009091240B0E94C0058EE20E94360540E343
:1026700061E08091210B9091220B0E94C0058EE2B7
:102680000E94360540E361E08091130790911407A2
:102690000E94C0058EE20E94360540E361E0809111
:1026A000260B9091270B0E94C0058EE20E943605F2
:1026B00040E361E08091280B9091290B0E94C005B6
:1026C0008EE20E94360540E361E08091110790910F
:1026D00012070E94C0058EE20E94360540E361E0C9
:1026E00080911D0B90911E0B0E94C0050E948605D3
:1026F0002CC08936D9F441E066E177E0CE0102963C
:102700000E94FE056091160780E690E00E9459063F
:1027100041E06AE27BE0CE0104960E94FE056091F2
:102720002A0B81E690E00E9459060FC087E197E0EE
:102730000E94720721966991662329F087E197E04C
:102740000E947A07F8CF80E09CDEDF91CF91089558
:10275000A1E0B0E0EEEAF3E10C9498288091200B20
:10276000882309F48FC0C0900907D0900A07E09031
:102770000B07F0900C07833009F06AC08FE30E94CA
:102780008602182F8630C8F080EF92E10E9472070F
:102790002C988FEF0E942C0280E00E942C02082FC0
:1027A000115049F080E00E942C02682F80EF92E1E6
:1027B0000E947A07F5CF2C9A01C000E00E94680BB6
:1027C0001092200B053709F05DC041E0BE016F5F3C
:1027D0007F4F86EF92E10E94FE050197A1F5998156
:1027E0008091160798132FC08091FA12853581F4D5
:1027F0008091F4129091F512892B39F080EF92E1DB
:102800000E9498070E943605F3CF0E9486053AC0C1
:102810008091F4129091F51204979093F5128093A1
:10282000F41284E090E09093F3128093F2126AE045
:1028300080EF92E10E947A07E0910507F091060788
:1028400088E009951FC080EF92E10E9472071AC0CC
:10285000823059F4809115079C2D981B983090F088
:102860000E94680B1092200B0DC0813059F487E351
:1028700090E00E94A3020E94130382E08093200B49
:10288000C09215072196E8E00C94B428CDDD88238A
:1028900061F083E08093250B80911D0B90911E0BBE
:1028A000019690931E0B80931D0B8091250B8150F8
:1028B0008093250B882321F083E080931F0B0895DC
:1028C00081E0DFCDCF93DF93E898249A2C9A8EE1B4
:1028D00090E00E94C1042C988EE190E00E94C10417
:1028E0002C9A8DE290E00E94C10480E30E949F0236
:1028F00084E690E00E94C104C0EDD1E0FE01319673
:102900006491FE0184910E948D022296F2E0C23011
:10291000DF07A1F780913202811107C083E30E9493
:102920009F0284E00E94C6040FC0CAEBD1E0FE0102
:1029300031966491FE0184910E948D022296F1E00D
:10294000C03DDF07A1F7EACF84E30E949F0285E341
:102950000E9486028D30C1F7DF91CF910895A2E3E6
:10296000B0E0E5EBF4E10C949C28809131028823DF
:1029700009F4A1C04A9B8AC08FE30E9486028F7728
:102980008983823368F08AE30E949F0286E30E9473
:102990009F028DE30E949F0284E30E949F028BC0EE
:1029A0002C988FEF0E942C0210E08981181760F498
:1029B00080E00E942C02E2E0F0E0EC0FFD1FE10F4E
:1029C000F11D80831F5FF1CF80E00E942C02082F51
:1029D00080E00E942C022C9A84E30E949F0285E3EF
:1029E0000E9486028D30C1F72A8196E792279A834A
:1029F00092E08981E92FF0E0981768F441E050E017
:102A00004C0F5D1FE40FF51F3081245223272083D4
:102A10009F5F232FEECF81E090E08C0F9D1FE80F8A
:102A2000F91F90818B81982790838091100784FFF4
:102A300012C081E60E94360510E08981811730F1CD
:102A4000E1E0F0E0EC0FFD1FE10FF11D80810E943D
:102A500036051F5FF2CF81E40E94360510E08981C0
:102A6000811758F0E1E0F0E0EC0FFD1FE10FF11DE0
:102A700080810E94FA051F5FF2CF8091100785FFC9
:102A800003C0802F0E94FA050E94860585E30E94FC
:102A90008602813029F0813161F48AE30E949F022D
:102AA00086E30E949F028DE30E949F0284E30E94BE
:102AB0009F020E94CC03E296E4E00C94B8288F9227
:102AC0009F92AF92BF92DF92EF92FF920F931F936C
:102AD000CF93DF93CDB7DEB7EA970FB6F894DEBF9A
:102AE0000FBECDBF41E38E010F5F1F4FB8010196AE
:102AF0000E94FE057C0199270197298130E0821709
:102B0000930709F0A3C080913102811104C0DADE7D
:102B100083E00E94C604DB808A8196E789278A8346
:102B200022E03981822F90E0F801E80FF91F231786
:102B300050F4DE01A80FB91F8C918452908189272F
:102B400080832F5FEECF80818D258083CE01C79655
:102B50000E942E0485E30E949F0285E30E94860264
:102B6000833181F1CE01C3960E942E044BA95CA94A
:102B70006DA97EA98FA998ADA9ADBAAD84179507A7
:102B8000A607B70760F44A015B01881A990AAA0AE6
:102B9000BB0A2DEB82169104A104B10470F448170E
:102BA00059076A077B0770F484549F4FAF4FBF4F9C
:102BB00084179507A607B70728F480EB91E00E94D9
:102BC000790527C085E30E948602833119F6D4FE79
:102BD00008C088E70E94C60488E70E94C60488E708
:102BE00001C08AE00E94C6042C988FE70E942C0244
:102BF00058018A2D801B8E1530F4F50181915F01FB
:102C00000E942C02F6CF2C9A85E30E948602833123
:102C1000D9F385E30E948602863149F48BE30E9452
:102C20009F0286E30E949F028DE30E949F02809193
:102C30003102882349F084E30E949F0285E30E94C9
:102C400086028D30C1F702C00E94680BEA960FB66B
:102C5000F894DEBF0FBECDBFDF91CF911F910F91D2
:102C6000FF90EF90DF90BF90AF909F908F9008956E
:102C7000FC012181223731F0223559F481E0809323
:102C8000320202C0109232021DDE81E080933102D6
:102C90000895233711F4019612CF1092310208954E
:102CA0008F929F92BF92CF92DF92EF92FF920F93FB
:102CB0001F93CF93DF931F92CDB7DEB7D82EC62ECA
:102CC0007A0189012C988FEF99830E942C02BD2CE8
:102CD0008D2C9981992E882D8B198C1538F480E0D4
:102CE0000E942C02F40181934F01F5CFE114F1040D
:102CF00069F080E00E942C02F70180830115110524
:102D000029F080E00E942C02F80180832C9A0F9019
:102D1000DF91CF911F910F91FF90EF90DF90CF90B7
:102D2000BF909F908F900895CF93882331F0109299
:102D3000360B86E30E949F0207C085E30E9486024D
:102D40008D30A9F780E039C085E30E948602C82F44
:102D50008130D1F78BE30E949F028AE30E949F0299
:102D600010922B0B10922D0B10922C0B10922F0BFC
:102D700010922E0B2AE53CE03093310B2093300B60
:102D80001092320BC093330B1092340B80913302AC
:102D90008093350B60E083E00E948D0262E088E062
:102DA0000E948D0284E30E949F0285E30E948602B6
:102DB0008D30D9F781E08093360BCF9108950F9332
:102DC0001F93CF93DF93182F062F219852981092BC
:102DD000330210923402E898249A2C9A8EE190E003
:102DE0000E94C1042C988EE190E00E94C1042C9AAC
:102DF0008DE290E00E94C10480E30E949F0284E67D
:102E000090E00E94C104113031F0123009F06DC021
:102E1000C6E1D2E022C0C3E6D2E0FE018491813453
:102E200020F0013009F049C01DC0FE0131966491C7
:102E3000FE0184910E948D022296F3E0CB32DF07DF
:102E400061F7EFCF31966491FE0184910E948D026B
:102E50002296F2E0CE3DDF0721F3FE01849181341A
:102E600088F3DFCF60E087E10E948D0267E083E0B6
:102E70000E948D0264E584E0113029F40E948D02E5
:102E800066E785E010C00E948D026DE385E00E9438
:102E90008D0260E585E10E948D026BE580E10E9474
:102EA0008D0268EF81E10E948D0262E082E00E9463
:102EB0008D026EE280E00E948D0210933302009337
:102EC000340283E30E949F028CE0EBE2FBE0DF012F
:102ED0001D928A95E9F786E0E2EAFEE0DF011D92A5
:102EE0008A95E9F784E00E94C604DF91CF911F9193
:102EF0000F910895CF92DF92FF920F931F93CF937C
:102F0000DF931F92CDB7DEB7182F062F2C988FE7CF
:102F100099830E942C02F12EC12E9981D92E8C2DDD
:102F20008F19801730F4F60181916F010E942C02F5
:102F3000F6CF2C9A81E00F90DF91CF911F910F91E6
:102F4000FF90DF90CF9008958DE30C949F02A4E052
:102F5000B0E0EDEAF7E10C949D28909134029230B4
:102F600009F009C180913302882309F404C18091DA
:102F7000360B813049F030F0823059F0833009F45B
:102F800072C0A2C081E0F6C04A9B9EC09093360BEF
:102F90009BC0199B99C020E030E040E050E063E026
:102FA0008091300B9091310B7BDE2091350B80911D
:102FB000300B9091310B213071F4BE016F5F7F4F68
:102FC00038D28111D3C0898180932B0B13D3AC01EC
:102FD00060E081E00EC040E0BE016F5F7F4FB0D285
:102FE0008111C4C0898180932B0B04D3AC0160E0B4
:102FF00080E016D390932D0B80932C0B60912C0BBB
:1030000070912D0B693482E0780708F0AFC086E03C
:103010006F3F710509F050F40E948D0260E088E076
:103020000E948D0281E08093320B02C00E948D02CB
:103030008091300B9091310B03969093310B8093DC
:10304000300B80912C0B90912D0B039790932F0BAD
:1030500080932E0B1092330B83E08093360B67E046
:103060000E948D0231C0199B2FC080912E0B909130
:103070002F0B8F3F910509F058F48091320B81118D
:1030800007C060E088E00E948D0281E08093320BEF
:1030900020E030E040E050E06FE18091300B909113
:1030A000310BFEDD80912E0B90912F0B4F9790935B
:1030B0002F0B80932E0B8091300B9091310B4F96FC
:1030C0009093310B8093300B4A9953C08091360B0B
:1030D000823008F44EC01C821B829E012D5F3F4F40
:1030E000AE014C5F5F4F60912E0B8091300B909141
:1030F000310BD6DD81E08093340B8091350B81302C
:1031000051F480912B0B76D2AC0167E37BE08AE52A
:103110009CE0F4D209C080912B0B6CD2AC0167E328
:103120007BE08AE59CE060D3892B01F582E60E9472
:10313000360510E08091370B5DD2212F30E0281743
:10314000390740F4F901E95CF44F80810E94FA05E7
:103150001F5FF0CF8091100785FF06C08B810E9412
:10316000FA058C810E94FA050E9486051092360BA2
:1031700002C080E0D9DD2496E3E00C94B928A0E0F9
:10318000B0E0E5ECF8E10C9498287C018B01C42EAA
:10319000FC0180812FD2EC019C01215031092232A7
:1031A000314008F0C9C080913402823019F4D090C7
:1031B000330201C0D12C61E08C2D01DE81E0AE0133
:1031C000B701C81206C0C8013FD2AE0161E081E07C
:1031D00005C0C80161D2AE0161E080E021D29093C8
:1031E000A30E8093A20EB0DE807711F086E361C05B
:1031F0008BE30E949F021093A50E0093A40E1092E1
:10320000A70E6091A20E7091A30E6F3F710509F099
:1032100058F486E00E948D0260E088E00E948D02F2
:1032200081E08093A60E0AC0772786E00E948D0277
:1032300062E088E00E948D021092A60EC091A20E5C
:10324000D091A30EC134D10510F0C0E4D0E06C2FB2
:103250008091A40E9091A50E4DDE8091A40E9091C8
:10326000A50E8C0F9D1F9093A50E8093A40E209108
:10327000A20E3091A30E2C1B3D0B3093A30E209376
:10328000A20E232B19F481E08093A70E85E30E9400
:103290009F0211E003C0203C3105C0F18091A70ED0
:1032A00081113FC019990AC04FDE80778037B1F78E
:1032B0008BE30E949F0282E090E043C0C091A20E87
:1032C000D091A30EC132D10510F0C0E2D0E06C2F36
:1032D0008091A40E9091A50E0DDE2091A40E309148
:1032E000A50E2C0F3D1F3093A50E2093A40E209108
:1032F000A20E3091A30E2C1B3D0B3093A30E2093F6
:10330000A20E2115310539F61093A70E8091A60E55
:103310008111C4CF60E088E00E948D021093A60E58
:10332000BDCF85E30E9486028130D9F7DD2039F0D8
:1033300062E08D2D44DD03C081E090E002C080E0BA
:1033400090E0CDB7DEB7E8E00C94B4281F93CF939C
:10335000DF93EC018981823789F48A818823C9F15E
:10336000833719F462E081E004C0843721F462E01D
:1033700082E025DD2EC060E080E0FBCF833749F599
:1033800010E0612F70E09B01220F331FC9010396EB
:103390008C0F9D1FFC014081442369F0FE01E20F68
:1033A000F31F2481222339F0695C744F41E00E94AD
:1033B000FE051F5FE6CF8A81833711F441E003C029
:1033C000843701F542E06AE57CE087E39BE0D7DEE5
:1033D00019C080913402823079F4809133028130B7
:1033E00029F0823031F48AE092E008C080E192E076
:1033F00005C086E092E002C082E092E00E9479057A
:103400000E948605DF91CF911F910895DC01EC9118
:10341000AE2FA295AF70B0E0A05EBE4F8C91DB01E5
:103420008C93EF70F0E0E05EFE4F808111968C93FC
:103430000895CF93DF93EC01A881E981CA2FC2954B
:10344000CF70D0E0C05FDE4F4881AF70B0E0A05FCA
:10345000BE4F2C91AE2FA295AF70B0E0A05FBE4FD3
:103460008C91EF70F0E0E05FFE4F908151E02F3FD4
:1034700009F050E031E04F3F09F030E0532B31E0EC
:103480008F3F09F030E0352BA9F49F3F99F0D0E44D
:103490004D9FA0011124E0E12E9F90011124242BC7
:1034A000292BF4E08F9FC0011124282BEB012883E6
:1034B00080E001C081E0DF91CF9108951F93CF9309
:1034C000DF93FB0141110FC0EC01A981CA2FCF701E
:1034D000D0E0C059DE4F1881A295AF70B0E0A0597E
:1034E000BE4F5C9101C054E1EC01A881CA2FCF709E
:1034F000D0E0C059DE4F2881A295AF70B0E0A0594E
:10350000BE4F6C91D4E06D9FB0011124922F929523
:103510009F70962B9083952F9695969580E1289F86
:1035200090011124922B9183411106C0C0E45C9F4D
:10353000C0011124812B8283DF91CF911F910895C7
:10354000DC0111969C911197411118C012968C9133
:103550001297E82FEF73F0E0E05DFE4F5081E92F06
:10356000EF7024E0E29FF001112482958695869504
:103570008370E82BE05DFE4F808102C080E050E068
:103580002C91E22FE37030E1E39FF001112492953A
:103590009F70E92BE05DFE4F908126952695E22FE6
:1035A000F0E0E05DFE4F2081E1E09F3F09F0E0E0C8
:1035B00031E02F3F09F030E0E32B31E05F3F09F0CD
:1035C00030E03E2B99F48F3F89F0E0E12E9F90018F
:1035D0001124292BFB01208341110AC0F0E18F9FA8
:1035E000C0011124852BFB01818302C081E0089575
:1035F00080E00895482F50E08A3150F09A012A5116
:10360000310984E0359527958A95E1F72D5F01C052
:1036100022E0CA010196820F911D820F911D08952B
:10362000882331F0CA0161110196880F991F08950E
:10363000CA01880F991F840F951F96958795611170
:1036400001C040FD01960895A0E0B0E0EAE2FBE190
:103650000C9496286A018C0186E9F80181938F0108
:10366000EB017F015B01A40EB51ECA15DB0541F01D
:10367000B701CE01CBDE2196F2E0EF0EF11CF5CFC3
:10368000F601EE0FFF1FE00FF11F85E58083CDB738
:10369000DEB7EAE00C94B228A0E0B0E0E2E5FBE19E
:1036A0000C949728EC017B018A0175E5B72E011572
:1036B0001105F9F00130110529F441E0BE01C701FF
:1036C000FDDE0CC0CE0103966C0140E0BE01C701D7
:1036D0000230110531F4F2DEBB82E60100E010E0B9
:1036E000E6CFECDEE60192E0E90EF11C0250110992
:1036F000DECFCDB7DEB7E9E00C94B328A0E0B0E0B0
:10370000E4E8FBE10C9490284C01EB016A01A12C48
:10371000B12C00E010E0612C712CE12CF12CA2E125
:103720004A2E512CC114D10409F451C0BE01C40168
:1037300080DE81114FC082E0C816D104A1F08AE07A
:10374000E816F10460F0C7010A97B2010E947A28D6
:1037500031E020E0892B09F030E0032F122FA11473
:10376000B10499F005C0A114B10491F001E010E09A
:10377000609470947724888190E06816790669F5E2
:10378000A12CB12C612C712C17C00115110581F0F1
:10379000930120953095232F3327888190E02817B7
:1037A0003907D9F4AA24A394B12C00E010E004C096
:1037B0006881C301A1D03C0181E0C81AD1088FEF14
:1037C000E81AF80A82E0880E911C2196ABCF80E0BF
:1037D00090E005C081E090E002C082E090E0CDB7CB
:1037E000DEB7E0E10C94AC28A0E0B0E0EAEFFBE14A
:1037F0000C9492287C01EB013A0100E010E0C12C0E
:10380000D12C92E1892E912C6114710409F46DC0C0
:1038100081E068167104D1F441E0BE01C70190DE79
:10382000882319F081E090E062C056018FEFA81A5A
:10383000B80AC801809590959927288130E08217B1
:10384000930709F44EC082E090E051C040E0BE0111
:10385000C70176DE8111E6CF82E0681A7108560151
:1038600082E0A80EB11C6114710459F08BE0A81617
:10387000B104D0F0C6010A97B4010E947A28892BBE
:1038800099F40095109598013327898190E02817C5
:103890003907C9F6012F1127888190E00817190709
:1038A00091F600E010E018C0688181E068167104AC
:1038B00071F4C80121D08C019C0120953095232FF3
:1038C0003327898190E02817390731F0BCCFC80130
:1038D00013D0698111D08C0183E0E80EF11C22968F
:1038E00002C0612C712C65018FCF80E090E0CDB7D4
:1038F000DEB7EEE00C94AE2878E0AC0144275078B7
:10390000452F5527262F207830E0880F991F421722
:10391000530721F025E682272DE39227660F715089
:1039200061F70895CF93DF93E898249A2C9A8EE15B
:1039300090E00E94C1042C988EE190E00E94C104A6
:103940002C9A8DE290E00E94C10480E30E949F02C5
:1039500084E690E00E94C104C2ECD2E0FE018491B2
:10396000813440F083E30E949F0284E00E94C604F9
:10397000CFEF0DC0FE0131966491FE0184910E944B
:103980008D022296F2E0CE3FDF0741F7EBCF84E3D2
:103990000E949F028AE090E00E94C104C150B9F7E2
:1039A00081E080933502DF91CF910895EF92FF92ED
:1039B0000F931F93CF93DF93EC018B01F8808091DD
:1039C0003502811101C0AEDF85E30E9486028D3091
:1039D00071F08AE50E94360585E40E94360582E58D
:1039E0000E94360582E50E94360581E34CC0809135
:1039F000360290913702A0913802B0913902892B9A
:103A00008A2B8B2B51F50E94010385E30E948602CD
:103A1000833109F443C08AE50E94360585E40E949B
:103A2000360582E50E94360582E50E94360582E36E
:103A30002AC08091090790910A07A0910B07B091C5
:103A40000C074F5F5F4F6F4F7F4F84179507A60797
:103A5000B707C9F681E00E94C604809109079091DA
:103A60000A07A0910B07B0910C07409136025091C4
:103A70003702609138027091390284179507A607C2
:103A8000B707B9F6E7CF0E94360585E30E948602A4
:103A90000E94FA050E94860545DF65C0012B49F4A6
:103AA0002C988FE70E942C02EC2E0C2F1D2FF394E4
:103AB0000BC00AE010E084E60E94C6040150110920
:103AC00001151105C1F7ECCF802F8E198F1530F439
:103AD000F80181918F010E942C02F6CF2C9AC8EC3C
:103AE00085E30E9486028D30E9F485E30E94860218
:103AF0008D3019F18AE50E94360585E40E9436056D
:103B000082E50E94360582E50E94360583E30E9425
:103B1000360585E30E9486020E94FA050E9486050A
:103B200001DF0BC085E30E9486028331F1F681E05C
:103B30000E94C604C150A1F6D8CF809135028111F0
:103B400002C00E94680B8091090790910A07A0911A
:103B50000B07B0910C078093360290933702A09325
:103B60003802B0933902CDB7DEB7E6E00C94B62840
:103B7000ACE0B0E0EEEBFDE10C949D28FC018BE0A5
:103B8000898381818A831B8282E08C8387818D83F4
:103B900080858E8381858F838481888785818987CD
:103BA00086818A871B861C8684E10E94C60460E0A9
:103BB00070E0CE010196FADE8AE50E94360510E03B
:103BC000812F90E0298130E0281739075CF0E1E08F
:103BD000F0E0EC0FFD1FE80FF91F80810E94FA054D
:103BE0001F5FEECF8091100785FF03C080E00E9429
:103BF000FA050E9486052C96E3E00C94B928CF9331
:103C0000DF93EC0180913D02811108C090913E024A
:103C1000911104C090913F029923A9F09B819033A8
:103C200019F09F7E903479F49F8198130CC0988589
:103C300080913E02981307C0998580913F029813A6
:103C400002C0CE0195DF80913A02811108C09091A7
:103C50003B02911104C090913C029923A9F09881F4
:103C60009B3091F49B81903479F49F8198130CC020
:103C7000988580913B02981307C0998580913C02FA
:103C8000981302C0CE0174DFDF91CF910895AEE1A9
:103C9000B0E0EDE4FEE10C949C288091350288238D
:103CA00009F469C04A9B59C08FE30E9486028F774E
:103CB0008E3108F08DE189832C988FEF0E942C02C1
:103CC00010E08981181760F480E00E942C02E2E085
:103CD000F0E0EC0FFD1FE10FF11D80831F5FF1CFBE
:103CE00080E00E942C02082F80E00E942C022C9A77
:103CF000CE01019684DF8091100784FF12C08AE70D
:103D00000E94360510E089818117A8F1E1E0F0E01A
:103D1000EC0FFD1FE10FF11D80810E9436051F5F32
:103D2000F2CF8AE50E94360510E08981811758F0AC
:103D3000E1E0F0E0EC0FFD1FE10FF11D80810E943A
:103D4000FA051F5FF2CF8091100785FF03C0802F17
:103D50000E94FA050E9486050EC085E30E94860235
:103D6000813149F48AE30E949F0286E30E949F0208
:103D700084E30E949F026E96E4E00C94B828AEE1C2
:103D8000B0E0E5ECFEE10C949C288C01FC01818103
:103D9000823711F4C7DD36C0833711F0863601F55E
:103DA0004DE1BE016F5F7F4FC80102960E94FE0584
:103DB00099270197298130E08217930729F080EB3A
:103DC00092E00E9479051EC061E070E0F8018181F7
:103DD000833711F060E070E0CE010196E7DD12C09C
:103DE000813621F443E06DE372E005C0873741F48A
:103DF00043E06AE372E0C80102960E94FE0502C039
:103E0000109235026E96E4E00C94B828CF93DF93BD
:103E1000E898249A2C9A8EE190E00E94C1042C9894
:103E20008EE190E00E94C1042C9A8DE290E00E9405
:103E3000C10480E30E949F0284E690E00E94C104D6
:103E40002C9880E40E942C02CEEFD2E0FE018491F7
:103E50000E942C022196F3E0CB30DF07B9F7809166
:103E600001010E942C02809102010E942C0280918B
:103E700003010E942C02C0E0D0E0FE01E25FFC4F93
:103E800084910E942C022196C931D105B1F72C9A58
:103E90002C988EE70E942C028BE290E0EC01219698
:103EA0000E945E060E942C02C333D10511F0CE01A0
:103EB000F5CF2C9A83E30E949F0281E00E94C60402
:103EC00081E080930707DF91CF9108956F927F92F1
:103ED0008F929F92AF92CF92EF92FF920F931F9388
:103EE000CF93DF93EC018981843769F468E071E056
:103EF000CE0102960E942B0640E260E0809108010C
:103F00009091090112C0833709F091C18A818237EB
:103F100089F464E071E0CE0103960E942B0640E232
:103F200060E080910401909105010E948A050E9441
:103F30008605F1C1469A80914202811116C0809196
:103F40003102882329F081E08093410210923102EE
:103F500080913502882329F081E0809340021092FD
:103F6000350254DF83E00E94C60486E30E949F026C
:103F70008AE30E949F028BE30E949F020E9401033A
:103F8000FE0101900020E9F70E2F0C1B0250C12CFE
:103F9000FAE09F2E7E0132E0E30EF11CA5E0AA2E8E
:103FA000B8E28B2E80910401909105012C2D3327CE
:103FB00027FD30952817390708F0FBC00132A1F41E
:103FC000299A80910801909109010E94C1042998C1
:103FD0008091060190910701FC019E9EC0019F9E69
:103FE000900D11240E94C104370111E010170CF04C
:103FF000B7C0F30181913F01299A803309F046C08F
:10400000013201F580910601909107010E94C104DF
:10401000299880910601909107010E94C104299A74
:1040200080910601909107010E94C1042998809116
:104030000601909107019C01A29EC001A39E900DD4
:1040400011248AC080910801909109010E94C10445
:10405000299880910801909109019C01220F331F3A
:10406000820F931F0E94C104299A809108019091A8
:1040700009010E94C10429988091080190910901C9
:104080009C01220F331F820F931F66C0813329F5D5
:10409000013291F480910601909107010E94C104C0
:1040A00029988091060190910701FC01AE9EC00104
:1040B000AF9E900D11241EC08091080190910901BE
:1040C0009C01220F331F820F931F0E94C104299865
:1040D00080910801909109012CC00132D1F48091A6
:1040E0000601909107010E94C10429988091060160
:1040F000909107010E94C104299A80910601909134
:1041000007010E94C104299880910601909107013E
:1041100023C080910801909109010E94C10429984F
:1041200080910801909109019C01220F331F820F99
:10413000931F0E94C104299A80910801909109015E
:104140009C01220F331F820F931F0E94C1042998E4
:1041500080910801909109010E94C1041F5F46CF20
:10416000299A0132A1F480910601909107010E94E1
:10417000C104299880910601909107019C01829EBB
:10418000C001839E900D11240E94C10410C0809133
:104190000801909109010E94C10429981FE18091B2
:1041A0000801909109010E94C1041150C1F7C39404
:1041B000F9CE80914202882341F08091100781114D
:1041C0000FC086E30E949F0218C08091410288239D
:1041D00051F0109241020E94621481E080933102FA
:1041E0000E9413030AC080914002882321F010929C
:1041F000400298DB02C00E94680B469889E60E9444
:10420000360583E70E94360511E010170CF08FCEBB
:10421000FE01E10FF11D17FDFA958181803319F040
:10422000813309F086E40E9436051F5FEECF8237A6
:10423000B9F480913102882329F081E08093410212
:104240001092310280913502882329F081E0809319
:10425000400210923502DADD81E0809342025BC0B9
:10426000863651F58A81803351F480E180930101D3
:1042700080EB8093020181E78093030107C043E054
:1042800061E071E0CE0102960E94FE0589E60E947F
:10429000360586E60E9436058AE30E94360580913F
:1042A00001010E94FA05809102010E94FA058091A5
:1042B00003010E94FA053BCE883729F5809141021F
:1042C000882341F0109241020E94621481E08093A1
:1042D000310210C080914002882321F010924002E8
:1042E00021DB0EC082E090E00E94A30280911007C3
:1042F000882319F00E94130303C086E30E949F02E3
:104300001092420208C0833631F468E071E0CE01B9
:1043100001960E942B06DF91CF911F910F91FF9084
:10432000EF90CF90AF909F908F907F906F90089577
:104330001092C30E1092FE0283E0809348028FEF2A
:104340008093D80E0895E9E4F2E02081211105C0A0
:10435000892BB1F080E090E00895B2E0E73FFB07E1
:10436000B8F7009751F04181DC013C91431305C03F
:10437000428111963C91431751F0E20FF11DE5CFB8
:1043800032E0E73FF30719F010F0E7EFF2E0CF017A
:10439000089594E0899FF0011124E752F14F808144
:1043A0008F3F91F080934302818180934402828108
:1043B0008093450283818093460221E04CE064E0D3
:1043C00083E492E00C947C08089588EF92E0BBDFD0
:1043D000009799F020914802FC013081231768F47E
:1043E000E20FF11D80818093FA0289E78093FB023E
:1043F00081818093FC0281E0089580E00895EF922E
:10440000FF921F93CF93DF931F92CDB7DEB7182F84
:104410008091100786FF18C084E599830E943605B5
:10442000E12E9981F92E15E0F70181917F010E941B
:10443000FA051150C9F78091100785FF03C08AEF74
:104440000E94FA050E9486050F90DF91CF911F917F
:10445000FF90EF90089586E30E949F028091FA02F8
:10446000833511F48BE901C08BE40E94C60421E07E
:104470004CE065E088EF92E00E947C080E94130304
:1044800088EF92E0BCCFE7DF8091FA02893631F005
:1044900081E08093F70289E28093D80E0895CF934C
:1044A00085E390E00E945E068093A90E86E390E08B
:1044B0000E945E068093D70ECFEFC093C70EC093C5
:1044C000C90EC093CB0EC093CD0EC093CF0EC09338
:1044D000D10EC093D30EC093D50E2ADF109249029D
:1044E00081E08093A80EC093D90E8FEF9FEF909339
:1044F000AC0E8093AB0E1092AE0E1092AD0E1092D9
:10450000B00E1092AF0EC093DD0E9093B20E80935A
:10451000B10E1092B40E1092B30E1092B60E10920D
:10452000B50EC093E10E9093B80E8093B70E109223
:10453000BA0E1092B90E1092BC0E1092BB0EC09320
:10454000E50E9093BE0E8093BD0E1092C00E109299
:10455000BF0E1092C20E1092C10ECF910895ACE022
:10456000B0E0E4EBF2E2E3C56C018C010F5F1F4F9A
:1045700045E0BE016F5F7F4FC8010E94FE05843099
:1045800008F0F2C099819130A9F4833061F46A8116
:1045900085E390E00E9459066B8186E390E00E94DB
:1045A00059067DDFF8C18091A90E0E94FA0580911D
:1045B000D70E99C0923009F051C0813039F081E0B6
:1045C0009A81913009F080E0F82E02C0FF24F39424
:1045D00080914902811104C087E293E00E9479052D
:1045E00009E412E0F8018081882309F4BAC0F2E0FE
:1045F000073F1F0708F0B5C082E00934180719F01B
:1046000080E20E943605F80181810E94FA05F801D6
:1046100082810E94FA05FF20E1F08AE30E943605BC
:1046200093E0F80180819817A0F4943038F090FF5F
:1046300005C08CE29C870E9436059C85EE24E3949D
:10464000E90EF801E90FF11D80810E94FA059E2D07
:10465000E8CFF8018081080F111DC4CF933049F4D1
:1046600080E090E070DE895492409EEA981B892F8A
:104670003AC0903171F507EC1EE088ECE82E8EE030
:10468000F82EC12CD12CF80180818F3FA1F0DD20C4
:1046900019F080E20E9436058C2D0E94FA058AE30B
:1046A0000E943605F80180810E94FA05F701808199
:1046B0000E94FA05D3940E5F1F4FC394F2E0EF0EF1
:1046C000F11C88E0C812DFCFD1104BC085E393E026
:1046D00046C0913159F48091C50E9091C60E6DE798
:1046E00070E008D5862F0E94FA053BC09231C9F5CB
:1046F00019EDE12E1EE0F12E0CED1EE0C12CD12CA7
:10470000F70180818F3FF1F0DD2019F080E20E94F7
:1047100036058C2D0E94FA058AE30E943605F701C2
:1047200080810E94FA05F801329780810E94FA0583
:10473000F801319780810E94FA05F80180810E947A
:10474000FA05D394F4E0EF0EF11CC3940C5F1F4FF5
:1047500084E0C812D5CFD11004C081E393E00E9459
:1047600079050E94860517C144E0BE01695F7F4F4D
:10477000C8010E94FE054F81493608F477C07A854A
:10478000588569857C3009F04BC020E030E080E03E
:1047900090E0F901E752F14F708174131CC0A181C0
:1047A000A51319C0A281A61316C02CE023839C0177
:1047B000220F331F280F391FF901EE0FFF1FE55598
:1047C000F14F11821082F901EE0FFF1FE355F14FF7
:1047D00011821082C2C07F3FD9F44083518362832B
:1047E0002CE023839C01220F331F280F391FF9016E
:1047F000EE0FFF1FE555F14F11821082F901EE0F08
:10480000FF1FE355F14F118210821092A80EA5C030
:1048100001962C5F3F4F2031310509F0BACFBBC064
:1048200080E090E020E030E0FC01E752F14FA08111
:10483000A41315C0A181A51312C0A281A6130FC095
:104840007383F901EE0FFF1FE20FF31FEE0FFF1F3F
:10485000E355F14F81E090E0918380839CC02F5F0E
:104860003F4F049680319105F9F695C0E98180911A
:10487000A90EE81758F190E0F0E09C01295F3F4F46
:104880002E173F071CF13A812091D70E32131EC01C
:104890002C812F3231F442E06CE0C6010E94E9081D
:1048A0007AC03D812C3249F43093C40E81E090E00F
:1048B0009093C60E8093C50E6EC0E81BF90BEE0FE9
:1048C000F0E0E953F14F2083318365C080E090E050
:1048D0003ADD7C01F80101900020E9F73197E01BF7
:1048E000F10BF695E795BB24B394BE0EC7018B0D73
:1048F000911D895492408F3A91050CF048C0F70100
:10490000B1928F0121E0822F880F81502B15D8F4AE
:1049100041E0B801F601E80FF11DCF012C870E949C
:10492000FE052C85233058F020FD09C0D8011197D1
:104930008C91843621F4F80180818093AA0E2F5F38
:104940000F5F1F4FE0CFF7EFEF16F2E0FF0618F50D
:10495000F701E20FF11D10821EC022E04CE064E07E
:10496000CE0107960E947C088FE08A8722E04CE007
:1049700064E0CE0107960E947C0882E08A8722E0EC
:104980004CE064E0CE0107960E947C0804C08BE2F4
:1049900093E00E9479052C96E9E0E5C30F931F93FD
:1049A000CF93DF939091A80E91114FC093E0899F10
:1049B00080011124F801EE0FFF1FE555F14F94E03F
:1049C000899FD0011124A752B14F12969C919770E4
:1049D00040E850E0491B51099AEF949F9001959F40
:1049E000300D1124359527953595279531832083F2
:1049F000E801CC0FDD1FC155D14F288139812F5FD0
:104A00003F4F39832883000F111F0355114FF801C1
:104A1000408151814115510529F424303105A9F413
:104A2000B8DC11C04130510539F4B3DC82E090E0CC
:104A3000F8019183808309C04230510531F4A9DC2B
:104A4000F8011182108219821882DF91CF911F9193
:104A50000F910895A6E0B0E0EFE2F5E26BC320917C
:104A6000D70E2A831B828091C40E882341F08330A5
:104A700019F487E791E00FC08DE790E00CC0277034
:104A800030E02A513F4F4DE7429FC001439F900DB8
:104A90001124959587959093C60E8093C50E08ECCA
:104AA0001EE0F12C7CE2E72EF801319790819F3FC8
:104AB000C1F08091A90E8F0D89838091C40E882347
:104AC00011F0EC8203C09C83F80180818D8321E08A
:104AD0004CE065E0CE0101960E947C08CE01019673
:104AE0008EDCF3940E5F1F4FF8E0FF12DDCF809154
:104AF000C40E882341F0833019F41092C40E03C011
:104B000082508093C40E2696E6E030C38091F7026F
:104B1000882351F0A0DC89E28093D80E8091F702BF
:104B200081508093F702089503CCFF920F931F9357
:104B3000CF93DF93FC01F0800181C281D381148186
:104B40008FE58093D80E1092F7028091A90E811103
:104B500005C08091D70E882309F4A9C08091F8027E
:104B60008F1104C08091F902801729F0E1DBF092E7
:104B7000F8020093F9028091C30E8F3F09F497C0A9
:104B8000C093FA02D093FB021093FC02CC23F1F005
:104B900081111CC08091A90E181761F0143651F0D4
:104BA0008DEA8C0F823010F0CD3739F48FEF80937F
:104BB000C30E7DC0C43509F47AC08D2F807F803646
:104BC00009F075C0D067D093FB0257C0FEDB81119E
:104BD00005C08091C30E882309F469C08091FE024C
:104BE000811107C0E091C30EF0E0E75CFC4FE49157
:104BF00001C0E82FE33541F4C43531F49091C30E80
:104C00009E5F9093C30E04C0EC1711F091DB4FC070
:104C1000882369F0809148028E5F80934802D5DB3B
:104C200081110EC08091C30E8E5F8093C30E809160
:104C3000C30EE82FF0E0E65CFC4F14911F3F59F4DF
:104C40008091FA028093FE028436B9F48091AA0E14
:104C50008093FC0212C01093FA0297E79093FB0234
:104C60009091A90E9093FC028E5F8093C30E1092D8
:104C7000FE028E3021F01123D1F005DC18C088EF40
:104C800092E061DBDC01009781F02C9130E087EF4E
:104C900092E0821B930BA817B90730F4ED01C20F05
:104CA000D31F48814D93F7CF1C9242DBE4CFCDB7A1
:104CB000DEB7E5E05CC2FF920F931F93CF93DF93C3
:104CC0008C01EC0109900020E9F72197C81BD90B52
:104CD000FC018181823751F487E390E00E94A302B6
:104CE0000E94130381E08093E90E26C0833711F5FB
:104CF000FC2E2C988FE70E942C028C2F82500E9451
:104D00002C02E801229612E01F1528F489910E94D6
:104D10002C021F5FF9CF2C9A0E9401038AE30E94A4
:104D200086028F7721F081E00E94C604F7CF0E94AF
:104D3000130302C01092E90ECDB7DEB7E5E017C24B
:104D4000A0E0B4E0E5EAF6E2F3C18091E90E882341
:104D500009F452C0813011F58091090790910A073A
:104D6000A0910B07B0910C072091FF02281709F4BE
:104D700043C085E30E948602813129F48AE30E94C0
:104D80009F020E9413038091090790910A07A09146
:104D90000B07B0910C078093FF022EC08FE30E9497
:104DA0008602D82E2C988FEF0E942C028E010F5F66
:104DB0001F4F7801C02E8E2D801B8D1538F480E09A
:104DC0000E942C02F70181937F01F5CF2C9A81E09C
:104DD00080938701802F8C198D1530F4F801819113
:104DE0008F010E943605F6CF0E9486058FEF8093D3
:104DF000870181E08093E90EDC5FE8E0B5C10F93A5
:104E00001F93CF93DF93EC0110E0212F30E0F901E5
:104E1000EE0FFF1FE20FF31FE457FF4F0491F9015C
:104E2000EE0FFF1FE20FF31FE357FF4F2591349161
:104E3000002399F0209739F480E20E943605802FF4
:104E40000E94360508C08881801305C0CE01F90193
:104E5000099581E003C01F5FD8CF80E0DF91CF913B
:104E60001F910F910895CF93C0918701809387017F
:104E70008091F4129091F512892B09F440C080EFD3
:104E800092E10E9498078F3F99F32091000330919F
:104E900001038A3011F08D3011F52115310541F3F0
:104EA000F901EE5FFC4F108282E093E0A8DF8111F0
:104EB00011C08FE593E00E94790582E093E00E94A3
:104EC0006E0587E493E00E94790580E090E097DF2B
:104ED0000E9486051092010310920003C9CF21158C
:104EE00094E0390728F6A9014F5F5F4F5093010303
:104EF00040930003F901EE5FFC4F8083B9CFC0936C
:104F00008701CF9108951F920F920FB60F9211242F
:104F10000BB60F922F933F934F935F936F937F93B3
:104F20008F939F93AF93BF93EF93FF938091EE0E78
:104F30009091EF0E892B39F08AEE9EE00E9498073F
:104F40008093C60005C08091C1008F7D8093C10011
:104F5000FF91EF91BF91AF919F918F917F916F9151
:104F60005F914F913F912F910F900BBE0F900FBE0D
:104F70000F901F9018951F920F920FB60F92112449
:104F80000BB60F922F933F934F935F936F937F9343
:104F90008F939F93AF93BF93EF93FF9388B190E468
:104FA000892788B96091C6008091C000887121F47A
:104FB00080EF92E10E947A07FF91EF91BF91AF914C
:104FC0009F918F917F916F915F914F913F912F9121
:104FD0000F900BBE0F900FBE0F901F90189597FF6C
:104FE00004C022E02093C0009F779093C500809377
:104FF000C40088E98093C10086E08093C2000895D0
:105000008091C10085FD0BC08091EE0E9091EF0E56
:10501000892B29F08091C10080628093C10008959E
:10502000E0910507F091060781E00995E9CFE4E6F4
:10503000F0E080818B7F80832F9A84B1806B84B96C
:10504000269880E58CBD8DB581608DBD0895209139
:10505000F6163091F7162115310521F420910C0137
:1050600030910D0180910A0190910B01009741F45C
:105070008DB79EB740910E0150910F01841B950B87
:105080002817390718F4821B930B089580E090E0ED
:10509000089582E40E94360540E265E08091F616AC
:1050A0009091F7160E948A050E94860583E50E946A
:1050B000360540E265E080910C0190910D010E945F
:1050C0008A050E94860585E40E94360540E265E077
:1050D00080910A0190910B010E948A050E94860529
:1050E00086E40E943605B3DF40E265E00E948A054F
:1050F0000C948605AA1BBB1B51E107C0AA1FBB1F4E
:10510000A617B70710F0A61BB70B881F991F5A9553
:10511000A9F780959095BC01CD0108952F923F92FB
:105120004F925F926F927F928F929F92AF92BF92B7
:10513000CF92DF92EF92FF920F931F93CF93DF9363
:10514000CDB7DEB7CA1BDB0B0FB6F894DEBF0FBEC0
:10515000CDBF09942A88398848885F846E847D840D
:105160008C849B84AA84B984C884DF80EE80FD800F
:105170000C811B81AA81B981CE0FD11D0FB6F89485
:10518000DEBF0FBECDBFED010895F999FECF92BDF0
:1051900081BDF89A992780B50895262FF999FECFF9
:1051A0001FBA92BD81BD20BD0FB6F894FA9AF99A44
:0A51B0000FBE01960895F894FFCF9A
:1051BA000210B07106000401A4010000FA162000D2
:1051CA00FFFFFFFFFF0302FFFF0100FFFFFFFFFFDB
:1051DA00AAA9A6A59A9996956A6966655A595655CD
:1051EA00FFFFFFFFFFFFFFFFFFFFFF03FF0102FFBC
:1051FA00FFFFFF07FFFF00FFFF0506FF04FFFFFF9A
:10520A00FFFFFF0BFF090AFFFF0FFFFF08FFFFFF6A
:10521A00FF0D0EFF0CFFFFFFFFFFFFFFFFFFFFFF6A
:10522A00160D0E0B1C191A132C252623343132297C
:04523A00323100000D
:00000001FF
